:100000000C94EE4118951895189518951895189513
:100010001895189518951895189518951895189578
:10002000189518950C9414331895189518951895DB
:100030001895189518951895189518951895189558
:100040001895189518951895189518951895189548
:1000500018951895189518950C94D23118951895EF
:100060001895189518951895189518951895189528
:1000700018951895189518950C9433310C94EF3009
:100080000C940D31189518951895189500000000DE
:100090009A05AE05C30BC60BC90BEC07AE05D50B15
:1000A000D80BDB0BFF07AE05DE0BE10BE40B1208F0
:1000B000AE05E70BEA0BED0B2508AE05F00BF30BD5
:1000C000F60B3808AE05F90BFC0BFF0B4B08AE0521
:1000D000020C050C080C5E08AE050B0C0E0C110C86
:1000E0007108AE05140C170C1A0C8408AE051D0C13
:1000F000200C230C9708AA08260C290C2C0CCE0ADD
:10010000AA082F0C320C350CE10AAA08380C3B0C5B
:100110003E0CF40AAA08410C440C470C070B1B0BBD
:100120004A0C4D0C00000000000000000000000020
:10013000000000000000820C900C0000C1C081C1D2
:10014000400101C3C003800241C201C6C00680074E
:1001500041C70005C1C581C4400401CCC00C800D5D
:1001600041CD000FC1CF81CE400E000AC1CA81CB64
:10017000400B01C9C009800841C801D8C0188019C6
:1001800041D9001BC1DB81DA401A001EC1DE81DFCC
:10019000401F01DDC01D801C41DC0014C1D481D58D
:1001A000401501D7C017801641D601D2C012801366
:1001B00041D30011C1D181D0401001F0C030803155
:1001C00041F10033C1F381F240320036C1F681F7CC
:1001D000403701F5C035803441F4003CC1FC81FD5D
:1001E000403D01FFC03F803E41FE01FAC03A803BE6
:1001F00041FB0039C1F981F840380028C1E881E9A4
:10020000402901EBC02B802A41EA01EEC02E802F4D
:1002100041EF002DC1ED81EC402C01E4C02480258C
:1002200041E50027C1E781E640260022C1E281E3E3
:10023000402301E1C021802041E001A0C060806135
:1002400041A10063C1A381A240620066C1A681A74B
:10025000406701A5C065806441A4006CC1AC81AD5C
:10026000406D01AFC06F806E41AE01AAC06A806B65
:1002700041AB0069C1A981A840680078C1B881B9C3
:10028000407901BBC07B807A41BA01BEC07E807FCD
:1002900041BF007DC1BD81BC407C01B4C07480758C
:1002A00041B50077C1B781B640760072C1B281B363
:1002B000407301B1C071807041B00050C190819114
:1002C00040510193C053805241920196C0568057CD
:1002D00041970055C19581944054019CC05C805D5C
:1002E000419D005FC19F819E405E005AC19A819BE3
:1002F000405B0199C059805841980188C0488049A5
:100300004189004BC18B818A404A004EC18E818F4A
:10031000404F018DC04D804C418C0044C18481858B
:1003200040450187C047804641860182C0428043E4
:1003300041830041C18181804040000000000000F5
:1003400000000000000000000000000000000000AD
:10035000000000000000000000000000000000009D
:100360000000000000003A11481149114811000036
:10037000000000000000000000000000000000007D
:10038000000000000000000000000000000000006D
:10039000000000000000000000000000000000005D
:1003A000000000000000000000000000000000004D
:1003B0005D12481171124811FD144C150000000027
:1003C000000000000000000000000000000000002D
:1003D0000000262E2F271F170F07050D151D1E16AF
:1003E0000E06141C242C2D25040C222A2B231B134F
:1003F0000B03010911191A120A02101820282921C9
:1004000000083F3F3F0000000000FF00FF00FF002A
:100410000000FFFFFFFFFFFB164811000000000077
:1004200000000000000000000000000000000000CC
:10043000001B172E17000000000000000000000045
:100440000000000000000000000000EC174811034D
:10045000184944494449444944951F991F000000E4
:10046000000000000000000000000000000000008C
:10047000000000CE1F2821422109214D21D8215002
:10048000245824E71F4D24031825213F214A215CCD
:100490002154245C248304000000000000000000BC
:1004A00000000000000000000000000000A624C7BB
:1004B000268D24A324481100000000000000000045
:1004C000000000000000000000000000001D275E8A
:1004D0002704271A2748116028802849444944499D
:1004E00044494449444944662E6A2E6E2E722E7643
:1004F0002E7A2E7E2E822E862E8A2E1A2B8028640D
:100500002B652B6E2B772B782B312B8E2E922E96E4
:100510002E9A2E9E2EA22E7E2E822E862E8A2E83FE
:100520002B8028CD2BCE2BD72BD82BE12B9A2BA68B
:100530002EAA2EAE2EB22EB62EBA2E7E2E822E864B
:100540002E8A2EDC2C2C2DF42CFF2C0A2D152D2080
:100550002DF32CBE2EC22EC62ECA2ECE2ED22E7E0D
:100560002E822E862E8A2E00000000000000000041
:1005700000000000000000000000000000EC2B80E4
:10058000283B2C432C442C4C2C542C032C662E6AD8
:100590002E6E2E722E762E7A2E7E2E822E862E8A0B
:1005A0002E5E2C8028B22CBA2CC22CCA2CD22C75D0
:1005B0002C662E6A2E6E2E722E762E7A2E7E2E822D
:1005C0002E862E8A2E702F5131AA32000000000094
:1005D000000000000000000000000000000000001B
:1005E000004A32020130000000000000000000005C
:1005F000000000000000006F0A012F0873060000D1
:10060000171B0000000000000000000000000000B8
:100610000000BEF0000102030405060708090A0BEA
:100620000C0D0E0F101112131415161718191A1B92
:100630001C1D1E1F202122232425262728292A2B82
:100640002C2D2E2FFFFFFFFFFFFFFFFFFFFFFFFF00
:10065000FFFFFFFFFFFFFFFFFFFFFFFFFFFFFFFFAA
:10066000FFFFFFFFFFFFFFFFFFFFFFFFFFFFFFFF9A
:10067000FFFFFFFFFFFFFFFFFFFFFFFFFFFFFFFF8A
:10068000FFFFFFFFFFFFFFFFFFFFFFFFFFFFFFFF7A
:10069000FFFFFFFFF95A03030303030303030303ED
:1006A000030303030303030303030303030302021C
:1006B000020202020202020202020202020202021A
:1006C000020202020202020202020202020202020A
:1006D00002020202020239413E3E3E3E3C3C3C3CAC
:1006E000FFFFFFFFFFFFFFFFFFFFFFFFFFFFFFFF1A
:1006F0004B6F010204081020408000000000000041
:1007000000000000000000000000000000000000E9
:1007100000000000000000000000000000000000D9
:1007200000000000000000000000000000000000C9
:1007300000000000000000000000000000000000B9
:1007400000000000000000000000000000000000A9
:100750000000000000000000000000000000000099
:100760000000000000000000000000000000000089
:10077000000099E8010102100020000000000000C4
:100780000000000000000000000000000000000069
:100790000000000000000000000000000000000059
:1007A0000000000000000000000000000000000049
:1007B0000000000000000000000000000000000039
:1007C000000000000023E20101050000FF0000001E
:1007D0000000000000000000000000000000000019
:1007E0000000000000000000000000000000000009
:1007F00000000000000000000000000000000000F9
:1008000000000000000000000000000000000000E8
:1008100000000000000000007B9C0101050100FFBA
:1008200000000000000000000000000000000000C8
:1008300000000000000000000000000000000000B8
:1008400000000000000000000000000000000000A8
:100850000000000000000000000000000000000098
:100860000000000000000000000000FB6C00000021
:100870000000000000400B000000000000000040ED
:100880000B001400000107160002101F0003803146
:10089000000440B3000518F50006800F01075191D0
:1008A000010851E401095137020A088A020B089431
:1008B0000200000000000000000000000000000036
:1008C000000000000000000101010101010101011F
:1008D0000000000000000101000000000000010114
:1008E0000000000000000101000000000000010104
:0908F00001010101010101314186
:1008FA000101221FC71E01CE1E01D51E01DC1E01E9
:10090A00E31E01EA1E01F11E07FF1E01F81E010681
:10091A001F010D1F06141F2A291F03291F01291F42
:10092A00011B1FFB00004A2414004A244A24E62122
:10093A00F12102225322B622E322EE220E231B23A6
:10094A004A24242339238623E52306241324332423
:10095A0042240001172B172B01FD28011E29052A05
:10096A0029014B29017329049B2901BC2901E42986
:10097A00040C2A012D2A01552A017D2A01A52A01E2
:10098A008C2801AD2801D52804CD2A01EE2A0608B3
:10099A002BFB000074401600653F7440843F9F3F64
:1009AA00CA3FCF3F74407440744074407440D43F8F
:1009BA00E03FE23FEF3F12401440364038404740A4
:1009CA0057406E40EA0DA633BA93AA93D8018D0117
:1009DA000E941F1100E910E0FD01018312838D01BD
:1009EA00A991B9910895BA93AA93D8018D01ECDF20
:1009FA000AE910E0FD010183128320E08D010E94C3
:100A0A00BA0B8D01A991B9910895BA93AA93D80105
:100A1A008D01DADF04EA10E0FD010183128321E08F
:100A2A008D010E94BA0B8D01A991B9910895BA93CB
:100A3A00AA93D8018D01C8DF0EEA10E0FD010183F7
:100A4A00128321E08D010E94BA0B8D01A991B991FF
:100A5A000895BA93AA93D8018D01B6DF08EB10E086
:100A6A00FD010183128321E08D010E94BA0B8D01E1
:100A7A00A991B9910895BA93AA93D8018D01A4DFD7
:100A8A0002EC10E0FD010183128321E08D010E9436
:100A9A00BA0B8D01A991B9910895BA93AA93D80175
:100AAA008D0192DF04EF10E0FD010183128321E042
:100ABA008D010E94BA0B8D01A991B9910895BA933B
:100ACA00AA93D8018D01E9DF0EEF10E0FD01018341
:100ADA00128321E08D010E94BA0B8D01A991B9916F
:100AEA000895BA93AA93D8018D01D7DF08E011E0DF
:100AFA00FD010183128321E08D010E94BA0B8D0151
:100B0A00A991B9910895BA93AA93D8018D01C5DF25
:100B1A0002E111E0FD010183128321E08D010E94AF
:100B2A00BA0B8D01A991B99108950E94EE42C801AC
:100B3A00D901082F092B51F020E030E08C010E94E6
:100B4A003A11A0FB1EF48C010E940842E4E00C94C6
:100B5A00FF420E94EC42D80144248D01FD0121810B
:100B6A003281F9013896259134913997F90109951D
:100B7A00002311F001E001C000E0002309F44FC096
:100B8A008D010E94CC0B0E94B33C005039F00A95AB
:100B9A0029F00A9581F10A9571F194C0FD018181CC
:100BAA00928106968D010E94CC0B0E94B33C502E76
:100BBA0050FA552450F88D01FC0125913491319752
:100BCA00F90109955026552011F001E001C000E015
:100BDA00002349F0442443948D010E94CC0B11E078
:100BEA000E94A33C6FC044248D010E94CC0B10E0EC
:100BFA000E94A33C67C044248D010E94CC0B10E0E4
:100C0A000E94A33C8D010E94CF0B11E00E940D3D72
:100C1A008D010E94CF0B12E00E941A3D53C08D0134
:100C2A00FD0121813281F901369625913491379758
:100C3A00F9010995002311F001E001C000E0002349
:100C4A0009F18D010E94CC0B0E94B33C0370023063
:100C5A0049F4442443948D010E94CC0B11E00E9474
:100C6A00A33C30C08D010E94CC0B0E94B33C0370A0
:100C7A00033041F544248D010E94CC0B10E00E9400
:100C8A00A33C20C08D010E94CC0B0E94B33C037090
:100C9A00033049F4442443948D010E94CC0B11E0A3
:100CAA000E94A33C0FC08D010E94CC0B0E94B33C52
:100CBA000370023039F444248D010E94CC0B10E0F9
:100CCA000E94A33C8D010E94BD0B0050A9F00A9519
:100CDA00A1F00A9509F4EBC00A9509F4B6C00A9581
:100CEA0009F40BC10A9509F41FC10A9509F430C128
:100CFA00025009F444C168C167C18D01FD01218117
:100D0A003281F9013896259134913997F90109957B
:100D1A00002311F001E001C000E0002309F45AC0E9
:100D2A008D010E94CC0B0E94B33C005039F00A9509
:100D3A0029F00A95F1F10A95E1F146C14420C1F181
:100D4A008D010E94D20B21E00E94953B8D01FD018D
:100D5A0021813281F9013496259134913597F9012F
:100D6A000995802F8D010E94CF0B182F0E940D3DEF
:100D7A008D01FD0121813281F90134962591349149
:100D8A003597F9010995802F8D010E94CF0B182FF5
:100D9A000E941A3DEAECFCE0038103FF05C023E050
:100DAA008D010E94BA0B10C122E08D010E94BA0B7C
:100DBA000BC18D010E94CF0B11E00E940D3D8D01E8
:100DCA000E94CF0B12E00E941A3D28E08D010E947A
:100DDA00BA0BFAC04420C1F18D010E94D20B21E066
:100DEA000E94953B8D01FD0121813281F9013496E2
:100DFA00259134913597F9010995802F8D010E942B
:100E0A00CF0B182F0E940D3D8D01FD0121813281EA
:100E1A00F9013496259134913597F9010995802F76
:100E2A008D010E94CF0B182F0E941A3DEAECFCE0BC
:100E3A00038103FF05C023E08D010E94BA0BC4C0E1
:100E4A0022E08D010E94BA0BBFC0442059F08D01E7
:100E5A000E94D20B20E00E94953B0E94590C00236D
:100E6A0061F416C08D010E94CF0B10E00E940D3D67
:100E7A0021E08D010E94BA0BA7C08D010E94CF0B01
:100E8A0011E00E940D3D25E08D010E94BA0B9CC025
:100E9A000E94560C002351F08D010E94CF0B11E0E5
:100EAA000E940D3D24E08D010E94BA0B8DC04420A2
:100EBA0031F08D010E94D20B20E00E94953B0E94E6
:100ECA00590C002359F08D010E94CF0B11E00E94AA
:100EDA000D3D25E08D010E94BA0B76C00E94560C8A
:100EEA00002351F08D010E94CF0B11E00E940D3DAD
:100EFA0024E08D010E94BA0B67C00E94590C00239E
:100F0A0029F025E08D010E94BA0B5EC0442029F425
:100F1A0026E08D010E94BA0B57C08D010E94D20BA8
:100F2A0020E00E94953B50C0442059F48D010E9454
:100F3A00CF0B10E00E940D3D21E08D010E94BA0BFB
:100F4A0043C08D010E94D20B20E00E94953B3CC019
:100F5A00442031F08D010E94D20B20E00E94953B83
:100F6A000E94590C002381F18D010E94CF0B10E0E1
:100F7A000E940D3D21E08D010E94BA0B25C08D0112
:100F8A00FD0121813281F9013896259134913997F1
:100F9A00F9010995002311F001E001C000E00023E6
:100FAA0099F08D010E94CC0B0E94B33C005011F0C5
:100FBA000A9551F48D010E94CF0B10E00E940D3D5D
:100FCA0021E08D010E94BA0BE6E00C94FD420E94DA
:100FDA00EE42C801D901082F092B49F020E030E080
:100FEA008C01A3DDA0FB1EF48C010E940842E4E000
:100FFA000C94FF420E94EE42C801D901082F092B26
:10100A0049F020E030E08C0190DDA0FB1EF48C0159
:10101A000E940842E4E00C94FF420E94EE42C8019A
:10102A00D901082F092B49F020E030E08C017DDD41
:10103A00A0FB1EF48C010E940842E4E00C94FF42DB
:10104A000E94EE42C801D901082F092B49F020E07D
:10105A0030E08C016ADDA0FB1EF48C010E9408427C
:10106A00E4E00C94FF420E94EE42C801D901082F25
:10107A00092B49F020E030E08C0157DDA0FB1EF47B
:10108A008C010E940842E4E00C94FF420E94EE4266
:10109A00C801D901082F092B49F020E030E08C0162
:1010AA0044DDA0FB1EF48C010E940842E4E00C948B
:1010BA00FF420E94EE42C801D901082F092B49F0CC
:1010CA0020E030E08C0131DDA0FB1EF48C010E948F
:1010DA000842E4E00C94FF420E94EE42C801D901A2
:1010EA00082F092B49F020E030E08C011EDDA0FB1F
:1010FA001EF48C010E940842E4E00C94FF420E9414
:10110A00EE42C801D901082F092B49F020E030E04E
:10111A008C010BDDA0FB1EF48C010E940842E4E066
:10112A000C94FF420E94EE42C801D901082F092BF4
:10113A0049F020E030E08C01F8DCA0FB1EF48C01C1
:10114A000E940842E4E00C94FF420E94EC42D8015B
:10115A0044248D01FD0121813281F90138962591BE
:10116A0034913997F9010995002311F001E001C082
:10117A0000E0002309F44FC08D010E94CC0B0E94AD
:10118A00B33C005039F00A9529F00A9581F10A9585
:10119A0071F194C0FD018181928106968D010E94B0
:1011AA00CC0B0E94B33C502E50FA552450F88D01B6
:1011BA00FC01259134913197F90109955026552062
:1011CA0011F001E001C000E0002349F044244394F7
:1011DA008D010E94CC0B11E00E94A33C6FC04424F5
:1011EA008D010E94CC0B10E00E94A33C67C04424EE
:1011FA008D010E94CC0B10E00E94A33C8D010E943D
:10120A00CF0B11E00E940D3D8D010E94CF0B12E021
:10121A000E941A3D53C08D01FD0121813281F901DD
:10122A003696259134913797F9010995002311F0E3
:10123A0001E001C000E0002309F18D010E94CC0BFE
:10124A000E94B33C0370023049F4442443948D0154
:10125A000E94CC0B11E00E94A33C30C08D010E9479
:10126A00CC0B0E94B33C0370033041F544248D013A
:10127A000E94CC0B10E00E94A33C20C08D010E946A
:10128A00CC0B0E94B33C0370033049F444244394CA
:10129A008D010E94CC0B11E00E94A33C0FC08D016E
:1012AA000E94CC0B0E94B33C0370023039F44424F0
:1012BA008D010E94CC0B10E00E94A33C8D010E947C
:1012CA00BD0B005049F00A9541F0065009F4B7C029
:1012DA000A9509F42CC15AC159C18D01FD01218118
:1012EA003281F9013896259134913997F901099596
:1012FA00002311F001E001C000E0002309F464C0FA
:10130A008D010E94CC0B0E94B33C005039F00A9523
:10131A0029F00A95F1F10A95E1F138C14420C1F1A9
:10132A008D010E94D20B21E00E94953B8D01FD01A7
:10133A0021813281F9013496259134913597F90149
:10134A000995802F8D010E94CF0B182F0E940D3D09
:10135A008D01FD0121813281F90134962591349163
:10136A003597F9010995802F8D010E94CF0B182F0F
:10137A000E941A3D8D010E94CF0B0E94620C21E04F
:10138A000E94C00B0E944B3527E08D010E94BA0BC8
:10139A00FDC08D010E94CF0B11E00E940D3D8D0111
:1013AA000E94CF0B12E00E941A3D8D010E94CF0BC2
:1013BA000E94620C21E00E94C00B0E944B3528E07B
:1013CA008D010E94BA0BE2C04420C1F18D010E9436
:1013DA00D20B21E00E94953B8D01FD0121813281D2
:1013EA00F9013496259134913597F9010995802FA1
:1013FA008D010E94CF0B182F0E940D3D8D01FD011A
:10140A0021813281F9013496259134913597F90178
:10141A000995802F8D010E94CF0B182F0E941A3D2B
:10142A008D010E94CF0B0E94620C21E00E94C00B2A
:10143A000E944B3527E08D010E94BA0BA7C08D018F
:10144A00FD0121813281F90138962591349139972C
:10145A00F9010995002311F001E001C000E0002321
:10146A0009F447C08D010E94CC0B0E94B33C005086
:10147A0039F00A9529F00A9509F10A95F9F086C01A
:10148A004420A9F48D010E94CF0B10E00E940D3D6B
:10149A008D010E94CF0B0E94620C20E00E94C00BBB
:1014AA000E944B3521E08D010E94BA0B6FC08D015D
:1014BA000E94D20B20E00E94953B68C08D010E94D9
:1014CA00CF0B11E00E940D3D8D010E94CF0B12E05F
:1014DA000E941A3D8D010E94CF0B0E94620C21E0EE
:1014EA000E94C00B0E944B3528E08D010E94BA0B66
:1014FA004DC04420A9F48D010E94CF0B10E00E9438
:10150A000D3D8D010E94CF0B0E94620C20E00E94CB
:10151A00C00B0E944B3521E08D010E94BA0B36C0E8
:10152A008D010E94D20B20E00E94953B2FC08D01B5
:10153A00FD0121813281F90138962591349139973B
:10154A00F9010995002311F001E001C000E0002330
:10155A00E9F08D010E94CC0B0E94B33C005011F0BF
:10156A000A95A1F48D010E94CF0B10E00E940D3D57
:10157A008D010E94CF0B0E94620C20E00E94C00BDA
:10158A000E944B3521E08D010E94BA0BE6E00C94D3
:10159A00FD420E94EE42C801D901082F092B49F0E9
:1015AA0020E030E08C01BEDDA0FB1EF48C010E941D
:1015BA000842E4E00C94FF420E94EE42C801D901BD
:1015CA00082F092B49F020E030E08C01ABDDA0FBAD
:1015DA001EF48C010E940842E4E00C94FF420E942F
:1015EA00EE42C801D901082F092B49F020E030E06A
:1015FA008C0198DDA0FB1EF48C010E940842E4E0F5
:10160A000C94FF420E94EE42C801D901082F092B0F
:10161A0051F020E030E08C010E943A11A0FB1EF448
:10162A008C010E940842E4E00C94FF420E94ED42C1
:10163A00D8018D010E94BD0B005049F00A9541F076
:10164A000A9509F463C00A9509F46BC08BC08AC075
:10165A00FD018181928106968D010E94500C0E94A3
:10166A00B93C402E8D01FC01259134913197F90145
:10167A0009954026442011F001E001C000E0002352
:10168A0009F470C00E945F0C073021F1FD018181CD
:10169A00928104960E945F0C402E8D01FC012591D7
:1016AA0034913197F9010995401610F001E001C013
:1016BA0000E0002379F48D011196ED91FC911297C7
:1016CA003496259134913597F90109950E945C0C5D
:1016DA000E94BF3C8D011196ED91FC9112973496B0
:1016EA00259134913597F9010995802F8D010E9432
:1016FA00530C182F0E941A3D8D010E94530C0E9410
:10170A00903E22E08D010E94BA0B2CC00E94560C1A
:10171A00002341F10E94DE3C23E08D010E94BA0BB6
:10172A0021C0FD018181928106968D010E94500C93
:10173A000E94B93C402E8D01FC01259134913197CC
:10174A00F90109954026442011F401E001C000E0A6
:10175A00002341F00E94E73C0E94503521E08D01B0
:10176A000E94BA0BE5E00C94FE42F801208308952A
:10177A00F80100810895F80120830895980100E096
:10178A000895980100E00895980100E00895F8018D
:10179A0005810895F801038108950C5F1F4F08958C
:1017AA00980100E00895980100E00895980100E08A
:1017BA000895980103E00895980100E008959801BA
:1017CA0000E00895980103E00895980101E0089562
:1017DA00980100E00895980103E00895980100E057
:1017EA000895980101E00895980103E00895980189
:1017FA0001E00895980101E00895980104E0089530
:10180A00980100E00895980100E00895980104E025
:10181A000895980101E00895980100E0089598015B
:10182A0004E00895980100E00895980101E0089500
:10183A00980104E00895980101E00895980101E0F3
:10184A000895980101E00895980100E0089598012B
:10185A0000E00895980101E00895980101E00895D3
:10186A00980100E00895980101E00895980100E0C8
:10187A000895980101E00895980101E008959801FA
:10188A0001E00895980101E00895980107E008959C
:10189A00980100E00895F80104810895F801038190
:1018AA0008950091500C08950091510C08950093E9
:1018BA00BF0C08950091BF0C089510E048E050E075
:1018CA000E94104298010BED1DE0020F131F0895AC
:1018DA0026E331E0F80126833783F80120E02083EC
:1018EA00F80120E02183F80120E02283F80120E0BA
:1018FA002383F80120E0248308959A938A93C801E8
:10190A00082F092B29F020FB1EF48C010E940842A3
:10191A008991999108959A938A93C801082F092B5E
:10192A0029F020FB1EF48C010E94084289919991AA
:10193A0008950E94C40C0E94C00C0E94CA0C0E9406
:10194A00C60C089508EF12E00E94DE320E94C20C13
:10195A000E94C80C08950AE81CE00E94DE320E9428
:10196A00C20C0E94C80C08950E94C40C0E94CA0CA2
:10197A000E9409330895149A08951C9A08951C9890
:10198A000895159A08951D9A08951D9808957B2F14
:10199A002A2ED8010FEF1FEF40E050E042175307FD
:1019AA0098F46C91502F65271196012F10E0E62FBD
:1019BA00F0E0EE0FFF1FE65CFE4F059014903197A2
:1019CA00002511254395E9CFA22DB72F0895F801D7
:1019DA0000E010E0408150E0040F151F31962150BD
:1019EA003040422F432BB1F708950E94EE42F8018E
:1019FA00C90120E030E0008110E0200F311F31964C
:101A0A000197082F092BB9F7DF01FD013196022F43
:101A1A001C91011749F48901012F10E01081011767
:101A2A0019F401E010E002C000E010E0E4E00C94D8
:101A3A00FF42F80140E00081400F319621503040CA
:101A4A00022F032BC1F70081401719F401E010E0BF
:101A5A00089500E010E00895A895089510E048E080
:101A6A0050E00E941042F801E056F84F06811781B3
:101A7A0008950091310808950CE008950093520CDE
:101A8A0008950E94EE420E94FE0DB0E0A1E00A2FE6
:101A9A00015039F00A9539F10A95A1F10A9581F1B7
:101AAA0033C00E94410DB017E0F42B2F0AE11AE06F
:101ABA000E94EE10C801082F092B89F04B2F43957D
:101ACA009C010AE11AE00E94450F002311F0A2E0EE
:101ADA001BC00E943E0D0430B9F4A3E015C0A3E078
:101AEA0013C0A4E011C00E943E0D033019F4B3954F
:101AFA00A1E00AC00E943E0D043031F4A3E004C004
:101B0A0001E00BC000E009C00E94EB0F0AE010E000
:101B1A000E949B320E94310DBACFE4E00C94FF423E
:101B2A000E94680F08950E948D0F08950E94B90FB0
:101B3A00089500E00E94430D0E948910002399F045
:101B4A00EFDF002351F0F2DF002311F001E00895E6
:101B5A0004E00E94430D00E0089504E00E94430D52
:101B6A0090DF00E0089504E00E94430D8ADF00E060
:101B7A0008950E94EF42C801A22F2A2F23958C01B3
:101B8A000E94340EE3E00C9400438A93802F0E9453
:101B9A00410D801730F4082F03950E94330D10E091
:101BAA0002C000E010E0899108950E94EF42C80146
:101BBA00A22F0A2FEADF98014A2F43958C010E942F
:101BCA00450F10E0E3E00C94004308E218E00E949D
:101BDA00164100E417E00E94AC4108959A938A9353
:101BEA00C80122E030E08C010E943141899199912B
:101BFA0008950AE11AE0E6E2F8E00083118300E0C2
:101C0A000E9410114CE650E020E030E000EA17E0B4
:101C1A000E941A43E0EAF7E000E110E0048315832A
:101C2A00E0EAF7E00CE610E0068317830EE610E020
:101C3A000E94BA13E0EAF7E0008711870EE610E087
:101C4A000E94BA13005F1F4FE0EAF7E00283138392
:101C5A00E0EAF7E000E0008300E0018308950E94D3
:101C6A00E442D1503801822E0DE0801618F000E0CF
:101C7A0010E077C0082D10E048E050E00E941042C2
:101C8A00F801E056F84F06811781012B09F451C07B
:101C9A00082D10E048E050E00E941042F801E0569A
:101CAA00F84F00851185012B09F443C0082D10E077
:101CBA0048E050E00E941042F801E056F84F0481D3
:101CCA0015816801082D10E048E050E00E9410429A
:101CDA00F801E056F84F068117812801082D10E017
:101CEA0048E050E00E941042F801E056F84F0085A3
:101CFA0011855801A50196018E010E946C31A5013A
:101D0A009E018E010E946B14FE01E40DF51D808177
:101D1A0090E0FE01E40DF51D118100E0802B912B6E
:101D2A0092018E010E94CC0CD8018A179B07A1F45C
:101D3A0003C000E010E015C0082D10E0000F111FCD
:101D4A00F801E45FF74F80839183A2019E0183012A
:101D5A000E940A43820105C004E00E94430D00E08C
:101D6A0010E0DF5FEEE00C94F5420E94E842D150A9
:101D7A002801C901642E0DE0601618F000E010E099
:101D8A007BC0AC0192018E010E940A439C01820130
:101D9A000E94CC0CD8010A2FFE01E80FF91F00831C
:101DAA008D01012F10E0FE01E80FF91F0183062DB6
:101DBA0010E048E050E00E941042F801E056F84F67
:101DCA00A287B387AC014E5F5F4F9E01E6E2F8E05F
:101DDA00008111810E94C4134801062D10E048E0D9
:101DEA0050E00E941042F801E056F84F0085118534
:101DFA00012B69F5E0EAF7E022813381062D10E034
:101E0A0048E050E00E941042F801E056F84F24835F
:101E1A003583E0EAF7E002811381080D191D028378
:101E2A001383062D10E048E050E00E941042F801AA
:101E3A00E056F84F86839783062D10E048E050E07D
:101E4A000E941042F801E056F84F80869186A4015C
:101E5A00E6E2F8E020813181BA01062D10E048E07F
:101E6A0050E00E941042F801E056F84F04811581B3
:101E7A00AB010E947F318401DF5FEAE00C94F942F2
:101E8A000E94ED42D801C901442E0E941311002379
:101E9A0099F4442D9C018D0168DF012B41F001E08A
:101EAA000E94161101E00E94101101E009C004E02D
:101EBA000E94161100E004C002E00E94161100E020
:101ECA00E5E00C94FE42BD01E1E0F0E0EC3000E018
:101EDA00F007D8F48F01000F111FD801A45FB74F84
:101EEA002D913C9111978F0148E050E00E941042D9
:101EFA00D801A655B84F0D911C911197201731079B
:101F0A0011F000E003C03196E1CF01E0DB01089552
:101F1A00BA93AA936897E0E0F0E0EC3000E0F007AB
:101F2A00B0F48F0148E050E00E941042D801AE544C
:101F3A00B84F2D913C911197DE018F01000F111FAF
:101F4A00A00FB11F2D933C9311973196E6CF28E14C
:101F5A0030E08E010E94CC0CE0EAF7E000831183A6
:101F6A006896A991B9910895BA93AA936897E0E0FF
:101F7A00F0E0EC3000E0F007B0F48F0148E050E008
:101F8A000E941042D801AE54B84F2D913C9111973E
:101F9A00DE018F01000F111FA00FB11F2D933C937B
:101FAA0011973196E6CF28E130E08E010E94CC0CE1
:101FBA00E0EAF7E0208131812017310711F401E0CE
:101FCA0001C000E06896A991B99108950E94131181
:101FDA00005079F00A9571F00A95B1F00A9589F1E5
:101FEA000A9509F443C00A9509F459C00A9509F4F7
:101FFA0073C008950E940D1128EC30E00E943F4101
:10200A0002E00E94101108950E94FB10002361F063
:10201A000E940D1120E137E20E943F410E94071100
:10202A0003E00E94101108950E940D110E94594167
:10203A00002331F004E00E94161100E00E94101102
:10204A0008950E940411002321F004E00E94101157
:10205A0008950E940D110E945941002331F004E0B5
:10206A000E94161100E00E941011089540E02CE62B
:10207A0030E000EA17E079DE012B51F00E940D11E1
:10208A0028EC30E00E943F4105E00E9410110895BB
:10209A0004E00E94161100E00E94101108950E94A7
:1020AA00FB10002361F00E940D1120E137E20E942B
:1020BA003F410E94071106E00E94101108950E94F4
:1020CA000D110E9459410023F1F004E00E941611FB
:1020DA0000E00E94101108950E940411002339F0B3
:1020EA0003E00E94161100E00E94101108950E9458
:1020FA000D110E945941002331F004E00E9416118B
:10210A0000E00E94101108950E94EE4272DD20E064
:10211A0000EA17E0A4DD012B11F400E057C0B0E09B
:10212A00A1E000E00E9419110A2F015059F00A9506
:10213A0009F10A9581F10A95D1F10A95E9F10A9511
:10214A00C9F13CC0BD30A0F42B2FE6E2F8E00081D3
:10215A00118185DDC801082F092B41F00E941C114D
:10216A00002311F0A2E02AC0A4E028C0A5E026C0FE
:10217A00A6E024C04B2F9C01E6E2F8E00081118121
:10218A007FDE002311F0A3E019C00E943E0D043047
:10219A00A9F4A5E013C00E943E0D033011F4A4E097
:1021AA000DC00E943E0D043049F4A5E007C0B39566
:1021BA00A1E004C001E00AC000E008C007DF0AE0AD
:1021CA0010E00E949B320E94310DAECFE4E00C94E5
:1021DA00FF420E94EF42C801A22F2A2F8C010E94BF
:1021EA001132E3E00C940043E39A0895E19B02C0A4
:1021FA0000E0089501E0089500937C080895009195
:10220A007C08089500E00E9401110E94F9100895C7
:10221A0008E218E008950093300808950091300804
:10222A0008950093310808950093320808950091A3
:10223A003208089526E633E0F80121833283F80153
:10224A0020E020830895AD01D8018D01F3DF0AE66D
:10225A0013E0FD0101831283FD0100E00383FD0108
:10226A0000E004838D01DA0108959A938A93C801E4
:10227A00082F092B29F020FB1EF48C010E9408422A
:10228A0089919991089508959A938A93C801082F7C
:10229A00092B29F020FB1EF48C010E940842899127
:1022AA009991089500916100016000936100089579
:1022BA00009162000160009362000895009162003B
:1022CA000E7F0093620008950091610000640093FC
:1022DA00610008950091620000640093620008950D
:1022EA00009162000F7B00936200089500916100E3
:1022FA0002600093610008950091620002600093F9
:10230A0062000895009162000D7F009362000895B3
:10231A0000916100046000936100089500916200D9
:10232A000B7F009362000895BC9A0895C49808959B
:10233A0000916100006100936100089500916200BC
:10234A000061009362000895009162000F7E00937D
:10235A00620008950091610000620093610008958F
:10236A000091620000620093620008950E94991130
:10237A0002E001BF09E103BF0895000000000895CB
:10238A00000008950E9457110E9463110E9469116A
:10239A000E946F110E947B110E9487110E948D1169
:1023AA000E9493110E9499110E949B110E949D11F3
:1023BA000E94A9110E94AF110E94B5110E94BB117F
:1023CA0008950E9475110E94C2110E946F1108950A
:1023DA009A938A93902F0E94A91180E08630B0F4D4
:1023EA0000E210E0482F0E942442192F10231123E3
:1023FA0019F00E945D1102C00E9463110E948111AE
:10240A000E94C5110E9487118395E8CF0E94A911E5
:10241A008991999108959A938A93902F0E94A31172
:10242A0080E08830B0F400E810E0482F0E9424428F
:10243A00192F1023112319F00E945D1102C00E9466
:10244A0063110E9481110E94C5110E948711839510
:10245A00E8CF0E94A911899199910895BA93AA93F4
:10246A00D8018D010E94281100EB13E0FD010183C0
:10247A0012838D01A991B99108950E94EE42D80163
:10248A00C9018D01EBDF04EB13E0FD010183128327
:10249A008D010B5F1F4F0E941641FD0183879487B0
:1024AA0020E08D010E94BA0B8D01E4E00C94FF42FA
:1024BA000E94EE42C801D901082F092B51F020E0F1
:1024CA0030E08C010E944911A0FB1EF48C010E948D
:1024DA000842E4E00C94FF420E94EE42D801C9018E
:1024EA000A2F0B2BA9F004EB13E0FD0101831283E1
:1024FA0022E030E08D010B5F1F4F0E94314120E046
:10250A0030E08D01D5DF80FB1EF48D010E94084268
:10251A00E4E00C94FF420E94EE42D801922F832FEE
:10252A008D010E94BD0B005029F00A9561F00A95B1
:10253A0021F148C0FD0100E0058721E08D010E94DC
:10254A00BA0B00E040C0992321F0FD010585016026
:10255A000587882321F0FD01058502600587FD01B5
:10256A00238534858D010B5F1F4F0E943F4122E076
:10257A008D010E94BA0B00E026C08D010B5F1F4F30
:10258A000E945941002331F020E08D010E94BA0BCC
:10259A0000E019C0992321F0FD0105850160058736
:1025AA00882321F0FD01058502600587FD01058567
:1025BA00033031F420E08D010E94BA0B01E003C020
:1025CA0000E001C000E0E4E00C94FF42202F30E07C
:1025DA00E0E0F0E0E83000E0F0074CF4022F10E011
:1025EA004E2F0E942442017030273196F3CF3323B5
:1025FA0011F401E0089500E00895980150E0E0E048
:10260A00F0E0EC3000E0F00744F44E2F89010E941C
:10261A001F42017050273196F4CF552311F401E07F
:10262A00089500E00895502F60E070E000E1509FA7
:10263A0000E000220FE01022B00108E0509F00E7FE
:10264A00002200E0102260297129052F017014E090
:10265A00019F60297129052F007FB8DF10E8019FCB
:10266A0060297129052F0E78B1DF18E0019F6029D2
:10267A007129052F0D76AADF12E0019F60297129C1
:10268A00052F0B75A3DF10E0602B712B8B010895CA
:10269A00080160E0800100701F70AFDF102D17FB8A
:1026AA0010E010F9011711F061E001C060E0660F57
:1026BA00660F660F8001007718709FDF102D13FBDD
:1026CA0010E010F9011711F001E001C000E0000F5D
:1026DA00000F602B8001047616708FDF102D11FB1E
:1026EA0010E010F9011711F001E001C000E0000F3D
:1026FA00602B80010475157080DF102D1170011791
:10270A0011F001E001C000E0602B062F0895B80126
:10271A00222311F48B010895209332082A9501E0AF
:10272A0010E0422F0E941A42602771278B010895F8
:10273A00B80120E044E08B010E941F42007F202F55
:10274A00062F0695069506950E70202B062F02FB7E
:10275A0000E000F9202B022F08951801810198DF6B
:10276A00202F8101D4DFE4DF089500FB16F40F5F08
:10277A001F4F980136952795020F131F08950E943F
:10278A00E342380159016A0122243324442455249E
:10279A00EE240C2D0D2941F0C0FA36F40FEFC00ECD
:1027AA000FEFD01EEE24E394882499248C149D0400
:1027BA0008F04BC0F501E40DF51D008134DF20E07F
:1027CA0030E0C801D90101E0400E00E0501EF501D9
:1027DA00E40DF51D008127DFA80160E070E0ECE060
:1027EA008A019B014E2F0E947642802B912BA22BAD
:1027FA00B32B01E0400E00E0501E8C01F301E20D04
:10280A00F31D008301E0200E00E0301E892F9A2F6D
:10281A00AB2FB0E08C01F301E20DF31D008301E060
:10282A00200E00E0301E892F9A2FAB2FB0E08C01CA
:10283A00F301E20DF31D008301E0200E00E0301EDB
:10284A0002E0800E00E0901EB1CFEE20D9F1F50132
:10285A00E40DF51D0081E7DE20E030E0C801D90172
:10286A0000E0E1DEA80160E070E0ECE08A019B0193
:10287A004E2F0E947642802B912BA22BB32B8C01D8
:10288A00F301E20DF31D008301E0200E00E0301E8B
:10289A00892F9A2FAB2FB0E08C01F301E20DF31DC3
:1028AA00008301E0200E00E0301E892F9A2FAB2F03
:1028BA00B0E08C01F301E20DF31D008301E0200E6C
:1028CA0000E0301E8101EFE00C94F4420E94E242E3
:1028DA00580149017A0166247724442455240E2D8F
:1028EA000F2951F043E050E087010E942742452B0F
:1028FA0019F000E010E057C0CC24DD24CE14DF0428
:10290A0008F050C0F401E40DF51D008110E020E04C
:10291A0030E0C801D90101E0400E00E0501EF40188
:10292A00E40DF51D008110E020E030E0322F212F68
:10293A00102F00E0802B912BA22BB32B01E0400E2D
:10294A0000E0501EF401E40DF51D208130E000E0A6
:10295A0010E0802B912BA22BB32B01E0400E00E05C
:10296A00501E8C010F7F1F70F8DEF501E60DF71D72
:10297A00008301E0600E00E0701E4CE08C019D01B6
:10298A000E947D420F7F1F70E8DEF501E60DF71DFC
:10299A00008301E0600E00E0701E03E0C00E00E05C
:1029AA00D01EACCF8301E0E10C94F3420E94EE42C8
:1029BA00D801C9018D010E94281108EB13E0FD011D
:1029CA00018312838D01075F1F4F0E941641FD018B
:1029DA0085839683FD0100E00087FD0100E00783FF
:1029EA0020E08D010E94BA0B8D01E4E00C94FF42B5
:1029FA000E94EE42D801C9010A2F0B2BB1F008EB55
:102A0A0013E0FD010183128322E030E08D01075FAC
:102A1A001F4F0E94314120E030E08D010E94491190
:102A2A0080FB1EF48D010E940842E4E00C94FF42F0
:102A3A00BA93AA93D8011596ED91FC911697099528
:102A4A00002311F001E001C000E0A991B9910895B5
:102A5A000E94EE42D801822F8D01FD01218132812F
:102A6A00F9013296259134913397F9010995FD01BF
:102A7A000781081741F4FD0100E00783FD0100E02A
:102A8A00008701E001C000E0E4E00C94FF42BA9341
:102A9A00AA93D8018D010E94BD0B005089F00A95B6
:102AAA00C1F00A9541F10A9509F44EC00A9509F454
:102ABA0074C00A9509F49AC0025009F4BCC0C3C094
:102ACA00FD010085FD01078321E08D010E94BA0BFB
:102ADA00BAC08D01ADDF002369F08D010E942B166B
:102AEA0098018D01075F1F4F0E943F4122E08D012F
:102AFA000E94BA0BA8C08D019BDF0023E1F08D0173
:102B0A00075F1F4F0E9459410023E9F08D010E947F
:102B1A002F1698018D01075F1F4F0E943F41FD014B
:102B2A0002E00087FD010085FD01078323E08D0196
:102B3A000E94BA0B88C0FD010085FD01078320E0D1
:102B4A008D010E94BA0B7FC08D0172DF0023E1F074
:102B5A008D01075F1F4F0E9459410023E9F08D0143
:102B6A000E94331698018D01075F1F4F0E943F4153
:102B7A00FD0103E00087FD010085FD01078324E0D4
:102B8A008D010E94BA0B5FC0FD010085FD0107831C
:102B9A0020E08D010E94BA0B56C08D0149DF002347
:102BAA00E1F08D01075F1F4F0E9459410023E9F0B0
:102BBA008D010E94371698018D01075F1F4F0E94F1
:102BCA003F41FD0104E00087FD010085FD01078307
:102BDA0027E08D010E94BA0B36C0FD010085FD0178
:102BEA00078320E08D010E94BA0B2DC08D0120DFE2
:102BFA000023E1F08D01075F1F4F0E945941002316
:102C0A0011F18D010E943B1698018D01075F1F4F3C
:102C1A000E943F41FD0105E00087FD010085FD019D
:102C2A00078327E08D010E94BA0B0DC020E08D01B9
:102C3A000E94BA0B08C08D01FBDE002321F420E0BC
:102C4A008D010E94BA0BA991B9910895980104E6E1
:102C5A0010E0089598010CED15E00895980108EB2D
:102C6A001BE00895980108E813E10895980102E32A
:102C7A0010E00895F80100810895F801048108958B
:102C8A00009162000460009362000895009162005E
:102C9A000F7D009362000895000008959A938A9325
:102CAA00C8010E94C7118991999108950E94EF4223
:102CBA00C8010E94E611A0E0A03338F402E014E053
:102CCA0020E00E94DA2EA395F7CFA0E0A03308F007
:102CDA0058C0EA2FF0E0EE52FC4F049110E048E0B1
:102CEA0050E00E94104298018C01020F131F0E94AB
:102CFA003F160023F9F1EA2FF0E0EE52FC4F04915F
:102D0A0010E048E050E00E94104298018C01020F46
:102D1A00131F0E944216015049F00A9569F00A955C
:102D2A0089F00A95A9F00350C9F01EC00BE014E01F
:102D3A0020E00E94F72E23C00EE014E020E00E945B
:102D4A00F72E1DC001E114E020E00E94F72E17C003
:102D5A0008E014E020E00E94F72E11C004E114E01C
:102D6A0020E00E94F72E0BC005E014E020E00E944C
:102D7A00F72E05C005E014E020E00E94F72EA39587
:102D8A00A5CF0E9445160E9451160E9493110E94D7
:102D9A004B16E3E00C940043BA93AA93D8018D0131
:102DAA000E94281107E114E0FD01018312838D01BD
:102DBA000B5F1F4F0E9416418D01A991B991089589
:102DCA00BA93AA93D8018D01E7DF01E314E0FD016C
:102DDA000183128320E08D010E94CB1721E08D012F
:102DEA000E94BA0B8D01A991B99108950E94EE42F1
:102DFA00D801C9010A2F0B2BB1F007E114E0FD013C
:102E0A000183128322E030E08D010B5F1F4F0E9485
:102E1A00314120E030E08D010E94491180FB1EF40F
:102E2A008D010E940842E4E00C94FF420E94EE42A7
:102E3A00C801D901082F092B49F020E030E08C01A4
:102E4A00D5DFA0FB1EF48C010E940842E4E00C943A
:102E5A00FF420E94EE42C8018C010E94BD0B005045
:102E6A0051F00A9549F00A9539F10A95F9F10A954E
:102E7A0009F45EC088C087C00E94E8370023B9F011
:102E8A000E94F837002371F00E94F037D8018C01B4
:102E9A000E94D1179D010E943F4123E08C010E94AC
:102EAA00BA0B71C022E08C010E94BA0B6CC020E000
:102EBA008C010E94BA0B67C08C010E94CE170130A8
:102ECA00A1F420E08C010E94CB1701E00E94013896
:102EDA000E94F037D8018C010E94D1179D010E94EF
:102EEA003F4123E08C010E94BA0B4DC08C010E9425
:102EFA00CE17013071F420E08C010E94CB170E949A
:102F0A00F037D8018C010E94D1179D010E943F41E0
:102F1A003AC08C010E94D1170E945941002399F1AD
:102F2A0005E00E94430D24E08C010E94BA0B2BC0DD
:102F3A008C010E94CE17015019F00A95B1F023C0F6
:102F4A0020E08C010E94CB1702E10E94D4170E9454
:102F5A00F037D8018C010E94D1179D010E943F4190
:102F6A0023E08C010E94BA0B0EC020E08C010E9463
:102F7A00CB1700E00E94013802E10E94D41722E038
:102F8A008C010E94BA0BE4E00C94FF42F8012483FE
:102F9A000895F801048108950B5F1F4F0895009367
:102FAA009A0B089500E00E94D4170E945D3FFDCF5E
:102FBA00BA93AA93D8018D010E9428110BE414E058
:102FCA00FD01018312838D01A991B99108950E948F
:102FDA00EE42C801D901082F092B51F020E030E058
:102FEA008C010E944911A0FB1EF48C010E94084228
:102FFA00E4E00C94FF42F801258308959A938A939A
:10300A00C8018C010E94BD0B002311F401E001C02C
:10301A0000E08991999108950E94EC422801C90122
:10302A00DA01AD019C018201F20161817281FB0129
:10303A003696659174913797FB010995D801AD01D0
:10304A009C018201F20161817281FB013C966591CA
:10305A0074913D97FB010995E6E00C94FD420E94AC
:10306A00E942D801722E632E842ECB01AC01362D93
:10307A003068272D8D01FD0161817281FB013A962D
:10308A00659174913B97FB0109952801FC01E40DB8
:10309A00F51D808201E0400E00E0501E8201E9E049
:1030AA000C94FA420E94E84228010A012A843B84CD
:1030BA008C859D8550E06624A0E0B0E0A015B1059E
:1030CA00F0F4490194012F5F3F4FFB01E80DF91D10
:1030DA000081002331F001E010E0462D0E941A42DF
:1030EA00502B07E0601641F4F101E80FF91F5083F5
:1030FA00019650E0662401C063941196DFCF6620E2
:10310A0029F0F101E80FF91F508301968C01EEE0D6
:10311A000C94F9420E94E242280159014A01CB016A
:10312A008201F20121813281F9013E962591349181
:10313A003F97F90109953801F501E60DF71D319719
:10314A00F080F501E60DF71DE080F501E60DF71DAB
:10315A00D180CC24F501E60DF71D028110E0C02ACA
:10316A00D12AF501E60DF71DB381A0E0F501E60DC0
:10317A00F71D048110E0A02BB12B0A2F0B2B21F095
:10318A00A13D07E0B00740F0B40143E03E2D2F2DEA
:10319A00820165DFC80144C0F201028D138D9601D8
:1031AA002A0F3B1F0217130740F4B40142E03E2DD9
:1031BA002F2D820154DFC80133C0A4013E2D2F2DCB
:1031CA008201F20161817281FB013A9665917491E3
:1031DA003B97FB010995C8010A2F0770002359F094
:1031EA0043E08D010E941F420395F401E80FF91F85
:1031FA000083019609C043E08D010E941F42F40139
:10320A00E80FF91F008301969A938A939A928A92F9
:10321A00F20162897389AD019601820143DFC80117
:10322A008C01E0E10C94F3420E94E2422801590128
:10323A004A01CB018201F20121813281F9013E96D4
:10324A00259134913F97F90109953801F501E60D69
:10325A00F71D3197F080F501E60DF71DE080F501C5
:10326A00E60DF71DD180CC24F501E60DF71D02818C
:10327A0010E0C02AD12AF501E60DF71DB381A0E0BE
:10328A00F501E60DF71D048110E0A02BB12B0A2FE2
:10329A000B2B21F0A13D07E0B00740F0B40143E059
:1032AA003E2D2F2D8201DBDEC80144C0F201048DC0
:1032BA00158D96012A0F3B1F0217130740F4B4011C
:1032CA0042E03E2D2F2D8201CADEC80133C0A4017F
:1032DA003E2D2F2D8201F20161817281FB013A9606
:1032EA00659174913B97FB010995C8010A2F0770F4
:1032FA00002359F043E08D010E941F420395F40117
:10330A00E80FF91F0083019609C043E08D010E946E
:10331A001F42F401E80FF91F008301969A938A93DA
:10332A009A928A92F20164897589AD0196018201A5
:10333A00B9DEC8018C01E0E10C94F3420E94E2423A
:10334A00280169014A01CB018201F20121813281FE
:10335A00F9013E96259134913F97F9010995580153
:10336A00F601EA0DFB1D3197F080F601EA0DFB1D0F
:10337A00E080F601EA0DFB1DB181A0E0F601EA0D3D
:10338A00FB1D028110E0A02BB12BF601EA0DFB1DFB
:10339A0073806624F601EA0DFB1D048110E0602AA1
:1033AA00712A062D072929F00EE7601600E070063B
:1033BA0040F0B40143E03E2D2F2D820150DEC801BA
:1033CA0052C0F201068D178D9D01260D371D021779
:1033DA00130740F4B40142E03E2D2F2D82013FDE57
:1033EA00C80141C0A4013E2D2F2D8201F201618145
:1033FA007281FB013A96659174913B97FB0109959D
:10340A00C801062D000FF401E80FF91F0083019689
:10341A0000E010E00615170530F5F20146895789D4
:10342A009D01220F331F420F531FFA012081318160
:10343A00232F30E0F401E80FF91F20830196F201EF
:10344A00468957899D01220F331F420F531FFA01E4
:10345A0020813181F401E80FF91F2083019611962A
:10346A000F5F1F4FD7CF8C01E0E10C94F3420E940B
:10347A00E242280169014A01CB018201F20121815C
:10348A003281F9013E96259134913F97F9010995C8
:10349A005801F601EA0DFB1D3197F080F601EA0D9D
:1034AA00FB1DE080F601EA0DFB1DB181A0E0F601EB
:1034BA00EA0DFB1D028110E0A02BB12BF601EA0DEB
:1034CA00FB1D73806624F601EA0DFB1D048110E0E2
:1034DA00602A712A062D072929F00EE7601600E0F6
:1034EA00700640F0B40143E03E2D2F2D8201B7DD76
:1034FA00C80152C0F20100A111A19D01260D371D7C
:10350A000217130740F4B40142E03E2D2F2D820129
:10351A00A6DDC80141C0A4013E2D2F2D8201F20172
:10352A0061817281FB013A96659174913B97FB0127
:10353A000995C801062D000FF401E80FF91F008351
:10354A00019600E010E00615170530F5F201408DEE
:10355A00518D9D01220F331F420F531FFA01208103
:10356A003181232F30E0F401E80FF91F20830196FF
:10357A00F201408D518D9D01220F331F420F531FBF
:10358A00FA0120813181F401E80FF91F20830196A5
:10359A0011960F5F1F4FD7CF8C01E0E10C94F342D5
:1035AA000E94E242580129016A01CB018501F50115
:1035BA0021813281F9013E96259134913F97F90193
:1035CA0009953801F201E60DF71D3197F080F201F5
:1035DA00E60DF71DE080F201E60DF71D91808824C3
:1035EA00F201E60DF71D028110E0802A912AF50109
:1035FA00028D138D8016910640F0B60142E03E2DF1
:10360A002F2D85012CDDC8012EC0F201E60DF71D14
:10361A00B381A0E0F201E60DF71D048110E0A02BB2
:10362A00B12BA0300FEFB00751F4940101E00E94D2
:10363A00DA37AC01920186010E940A4314C00A2FAC
:10364A000B2B51F4940100E00E94DA37AC0192018D
:10365A0086010E940A4307C0B60143E03E2D2F2D82
:10366A008501FDDCC8018C01E0E10C94F3420E9463
:10367A00E4422801C9015A014B018201F201218168
:10368A003281F9013E96259134913F97F9010995C6
:10369A00D801FC01EA0FFB1F3197D080FC01EA0F29
:1036AA00FB1FC080FC01EA0FFB1F71806624FC012E
:1036BA00EA0FFB1F028110E0602A712AF201068DCF
:1036CA00178D6016710640F0B50142E03C2D2D2D94
:1036DA008201C5DC48011CC0FC01EA0FFB1F5381B3
:1036EA0040E0FC01EA0FFB1F048110E0402B512B44
:1036FA00F201268937898301000F111F200F311F1C
:10370A00F90140835183A4019C0185010E940A4367
:10371A008401EEE00C94F5420E94E242280139014C
:10372A006A01CB018201F20121813281F9013E96BF
:10373A00259134913F97F90109954801F301E80D64
:10374A00F91D3197F080F301E80DF91DE080F301CE
:10375A00E80DF91DB180AA24F301E80DF91D0281D3
:10376A0010E0A02AB12AF301E80DF91DB381A0E007
:10377A00F301E80DF91D048110E0A02BB12B0A2FEB
:10378A000B2B21F0A13B07E0B00740F0B60143E064
:10379A003E2D2F2D820163DCC80134C0F201028D57
:1037AA00138D95012A0F3B1F0217130740F4B60128
:1037BA0042E03E2D2F2D820152DCC80123C0A50113
:1037CA009D018301080D191D0A5F1F4F0E94A13731
:1037DA00A6013E2D2F2D8201F20161817281FB012A
:1037EA003A96659174913B97FB010995C80144E0AB
:1037FA0050E09301280F391F8601080F191F0E94F4
:10380A000A4304968C01E0E10C94F3420E94E242DE
:10381A00480129016A013B018401F40121813281B5
:10382A00F9013E96259134913F97F9010995C8010E
:10383A00F201E80FF91F3197F080F201E80FF91F42
:10384A00E080F201E80FF91FB181A0E0F201E80F70
:10385A00F91F028110E0A02BB12BF201E80FF91F2A
:10386A00B380AA24F201E80FF91F048110E0A02A0C
:10387A00B12A0A2D0B2929F00CE7A01600E0B006A0
:10388A0040F0B60143E03E2D2F2D8401E8DB3801DC
:10389A004FC0F401068D178D9D012A0D3B1D02179D
:1038AA00130740F4B60142E03E2D2F2D8401D7DBE9
:1038BA0038013EC020E030E02A153B05E0F4F20171
:1038CA00E80FF91F568140E0F201E80FF91F07815E
:1038DA0010E0402B512BF401668977898D01000F86
:1038EA00111F600F711FFB014083518311960296CD
:1038FA002F5F3F4FE1CFA6013E2D2F2D8401F4010A
:10390A0061817281FB013A96659174913B97FB0143
:10391A000995380144E050E09201260D371D8601D1
:10392A00060D171D0E940A4304E0600E00E0701E97
:10393A008301E0E10C94F34208010FEF1FEF0895B1
:10394A00080100E010E008950E94E64228014901BA
:10395A00DA01CB018201F20121813281F9013E961D
:10396A00259134913F97F90109953801F401E60D43
:10397A00F71D3197B080F401E60DF71DA080AD0167
:10398A003A2D2B2D8201F20161817281FB013A9657
:10399A00659174913B97FB010995C801FD01E80FF8
:1039AA00F91F03E000830196FD01E80FF91F00E209
:1039BA0000830196FD01E80FF91F07E000830196D5
:1039CA00FD01E80FF91F02E3008301968C01ECE088
:1039DA000C94F7420E94E24238014901DA01CB0114
:1039EA008301F30121813281F9013E9625913491B7
:1039FA003F97F90109952801F401E40DF51D319766
:103A0A00B080F401E40DF51DA080F401E40DF51D6C
:103A1A00E280FF248C0106501040E016F10641F0C6
:103A2A00BD0142E03A2D2B2D830119DBC8012CC1BF
:103A3A00AD013A2D2B2D8301F30161817281FB01C6
:103A4A003A96659174913B97FB010995C801F40177
:103A5A00E40DF51D0381005049F00A9579F10A95A4
:103A6A0009F49DC00A9509F4E0C007C1FD01E80FF9
:103A7A00F91F00E000830196FD01E80FF91F04E039
:103A8A0000830196F401E40DF51D0381FD01E80FA1
:103A9A00F91F00830196FD01E80FF91F02E0008378
:103AAA000196FD01E80FF91F00E000830196FD0170
:103ABA00E80FF91F02E000830196E6C0F401E40D65
:103ACA00F51D0481C02E0E94410D0C1540F4BD0164
:103ADA0042E03A2D2B2D8301C2DAC801D5C0CC2091
:103AEA00B9F52C2D8D01040D151D0B5F1F4F0E947A
:103AFA00BE0D2091C90CFD01E40DF51D2583209111
:103B0A00C80CFD01E40DF51D2683FD01E40DF51D2C
:103B1A0020E32783FD01E80FF91F20E020830196A7
:103B2A00202F2E5FFD01E80FF91F20830196F40173
:103B3A00E40DF51D2381FD01E80FF91F208301968D
:103B4A00FD01E80FF91FC0820196800F911F9CC0EA
:103B5A002C2D8D01040D151D0B5F1F4F0E94BE0DEC
:103B6A009801FD01E80FF91F00E000830196022F7A
:103B7A000E5FFD01E80FF91F00830196F401E40DC1
:103B8A00F51D0381FD01E80FF91F00830196FD0170
:103B9A00E80FF91FC0820196820F931F75C0F401C6
:103BAA00E40DF51D0481C02E0E94410D0C1540F450
:103BBA00BD0142E03A2D2B2D830151DAC80164C0C0
:103BCA000C2D0E94CA0D9801F401E40DF51D028125
:103BDA0010E0025010400217130741F0BD0143E004
:103BEA003A2D2B2D83013BDAC8014EC02C2D8401BE
:103BFA00040D151D0B5F1F4F0E94DA0D012B69F092
:103C0A000E94980D03E10E94D417BD0145E03A2DA8
:103C1A002B2D830124DAC80137C0BD0147E03A2DB4
:103C2A002B2D83011CDAC8012FC00E943E0D0330E0
:103C3A0081F4AD013A2D2B2D8301F301618172814B
:103C4A00FB013A96659174913B97FB010995C8016E
:103C5A001BC00E943E0D013041F4BD0146E03A2DE1
:103C6A002B2D8301FCD9C8010FC0BD0141E03A2DBB
:103C7A002B2D8301F4D9C80107C0BD0141E03A2DBB
:103C8A002B2D8301ECD9C8018C01E0E10C94F3429D
:103C9A000E94E642D80149012A01CB018D01FD01AA
:103CAA0021813281F9013E96259134913F97F9019C
:103CBA0009953801F401E60DF71D3197B080F4013A
:103CCA00E60DF71DA0800E943E0D033081F4A2018B
:103CDA003A2D2B2D8D01FD0161817281FB013A96EE
:103CEA00659174913B97FB010995C80113C00E9425
:103CFA003E0D013041F4B20146E03A2D2B2D8D01E3
:103D0A00AED9C80107C0B20141E03A2D2B2D8D0171
:103D1A00A6D9C8018C01ECE00C94F7420E94E34258
:103D2A00D80129013A015B018D01FD01218132810E
:103D3A00F9013E96259134913F97F9010995480179
:103D4A00F201E80DF91D3197C080F201E80DF91D65
:103D5A00E080C501DC2CDD0CDD08FD01058110E0E9
:103D6A00C016D10629F0CC2019F000E010E070C08E
:103D7A000E2D102F110F110BEAEFF0E0FBBFF8E048
:103D8A000C94A542BC01A30192018D01C3D9C801BB
:103D9A005BC0BC01A30192018D0146DAC80154C07F
:103DAA00BC01A30192018D01C9DAC8014DC0BC0151
:103DBA00A30192018D015BDBC80146C0BC01A301CE
:103DCA0092018D01EDDBC8013FC0BC01A301920144
:103DDA008D014DDCC80138C0BC01A30192018D01DF
:103DEA00ABDDC80131C0BC01A30192018D0194DC95
:103DFA00C8012AC0BC01A30192018D0149DFC80193
:103E0A0023C0BC01A30192018D0100DDC8011CC0C1
:103E1A00BC01A30192018D0197DDC80115C0BC0147
:103E2A00A30192018D018CDDC8010EC0BC01A30162
:103E3A0092018D01CFDDC80107C0B30141E03E2DDB
:103E4A002C2D8D010CD9C801FD01848795878C0121
:103E5A00EFE00C94F442B80101E010E008950E94EA
:103E6A00E642D80129013A018D01FD012181328101
:103E7A00F9013E96259134913F97F9010995C801B8
:103E8A00F201E80FF91F31979080F201E80FF91F4C
:103E9A0080805301FD010681091591F4FD01078116
:103EAA00081571F402E0801641F4A5019201280F69
:103EBA00391F2E5F3F4F8D01CEDF01E010E02DC08C
:103ECA008D01FD0121813281F9017096259134918C
:103EDA007197F901099598018C01020F131F0E5F62
:103EEA001F4FA016B10631F487FA16F401E003C099
:103EFA0000E001C000E0002371F0F201E80FF91FB1
:103F0A0021812C302CF4022F102F110F110B05C018
:103F1A000EE010E002C001E010E0ECE00C94F74281
:103F2A00980101E010E00895980102E010E0089578
:103F3A000E94EC42C801D9010A2F0B2B11F401E0AF
:103F4A0001C000E0002379F005E9402E04E0502E7C
:103F5A00DC011F96FC01A587B6878C01015F1F4F04
:103F6A000E94DD1706C0FC0143845484FC01A58726
:103F7A00B68703E714E0FC0103871487F201059171
:103F8A0014913197FD01018312838C01E6E00C94B0
:103F9A00FD420E94EE42C801D901082F092B79F08F
:103FAA000A2F0B2B39F020E030E08C01015F1F4F04
:103FBA000E94EC17A0FB1EF48C010E940842E4E068
:103FCA000C94FF420F501040E4CF0E94E242229725
:103FDA0028833983D8012A013B018D889E888F89DD
:103FEA00988DED8CFE8CCF8CD8A0A9A0BAA00881A0
:103FFA0019810D931C931197FD01428253826482A9
:10400A0075820A89FD0100870B89FD0106830C89E7
:10401A00FD010783FD0105851685F80186869786C9
:10402A00FD0105851685F801808B918B298D3A8DC6
:10403A00FD0105851685F801228B338B2B8D3C8D6E
:10404A00FD0105851685F801248B358BFD01058553
:10405A001685F801E68AF78AFD0105851685F801B5
:10406A00C08ED18EFD0105851685F801A28EB38E0C
:10407A002BA13CA1FD0105851685F801248F358FFA
:10408A002DA13EA1FD0105851685F801268F378FE2
:10409A002FA138A5FD0105851685F80120A331A3B6
:1040AA00FD01428153816481758100E412E42FE0AD
:1040BA0030E00E94804240E250E060E070E00E94FE
:1040CA0052420801190148EE53E060E070E08001B5
:1040DA0091010E9480420F5F1F4FFD0101871287E5
:1040EA00FD0105851685F801428D538D20E030E0EB
:1040FA00FD0105851685F801028913890E941A4374
:10410A00FD0105851685F801448D558D20E030E0C6
:10411A00FD0105851685F801048915890E941A434F
:10412A00FD0105851685F801468D578D440F551FEB
:10413A0020E030E0FD0105851685F801068917891A
:10414A000E941A43FD0105851685F80140A151A177
:10415A00440F551F20E030E0FD0105851685F80162
:10416A00008D118D0E941A439A938A939A928A9289
:10417A00FD0107810A93FD013681FD012085FD01BC
:10418A0042815381648175810D911C9111970E941E
:10419A007E2F2296E7E20C94F342BA93AA93D801AF
:1041AA000D911C9111970E94B32FA991B99108956D
:1041BA00BA93AA93D8010D911C9111970E94C22F0C
:1041CA00A991B9910895BA93AA93D8010D911C9116
:1041DA0011970E94D32FA991B9910895BA93AA93DE
:1041EA00D8010D911C9111970E940130A991B991A2
:1041FA000895BA93AA93D8010D911C9111970E9420
:10420A001C30A991B99108950E94EC422801D90164
:10421A00CA019C018D010E94CC0C9801022FFD015C
:10422A00E80FF91F008301968901012F10E0FD01B3
:10423A00E80FF91F008301968C01E6E00C94FD4219
:10424A000F501040E1CF1D010801E881F981208358
:10425A0031838A01012F10E00283042F03838B012B
:10426A00012F10E00483062F058306E010E0D10138
:10427A00229608950F501040E6CFB801FA01208324
:10428A00FA01318302E010E008950F501040F5CF93
:10429A000E94EC42D8012901CA01AC0192010D9198
:1042AA001C9111970E943030E6E00C94FD420F50A9
:1042BA001040EECFBA93AA93D8010D911C91119791
:1042CA000E946324A991B9910895BA93AA93D80137
:1042DA000D911C9111970E946024A991B99108959A
:1042EA000E94EC42D8012901CA01AC0192010D9148
:1042FA001C9111970E943830E6E00C94FD420E940E
:10430A00EE42D801C9010E946624FD012585368541
:10431A00F90122853385021B130B0817190710F0C0
:10432A0001E001C000E0E4E00C94FF42BA93AA93D2
:10433A00D8010E946624FD0125853685F901028788
:10434A001387A991B99108950E94E8424801D901B9
:10435A00CA01843000E0900710F400E021C0FD019A
:10436A00E80FF91F319750804424FD01E80FF91F27
:10437A003297008110E0402A512A9C012250304095
:10438A008D010E94CC0C38019C01225030408D01D5
:10439A000E94CC0C0415150511F401E001C000E0DF
:1043AA00EAE00C94F9420E94EE42D801FD0105852B
:1043BA0016850E94BD0BEEE2F0E0FBBFF9E00C941B
:1043CA00A5428D01EADE8D01F3DE23E0FD010585BC
:1043DA0016850E94BA0B59C28D01A8DFFD01058519
:1043EA001685F80100E0048700E0058724E0FD0156
:1043FA00058516850E94BA0B48C28D0166DF002327
:10440A00F1F140E051E0FD0105851685F8010485CA
:10441A001585401B510BFD0105851685F80126857A
:10442A003785FD0105851685F80104851585200F58
:10443A00311F8D0155DFC801813000E090079CF0E3
:10444A00FD0105851685F80104851585080F191FD4
:10445A00048715878D016ADF25E0FD01058516852C
:10446A000E94BA0B0CC08F3F0FEF900741F48D01E9
:10447A0094DE23E0FD01058516850E94BA0B28E922
:10448A003AE38D013CDF002341F08D0186DE23E013
:10449A00FD01058516850E94BA0BF7C18D0115DF4E
:1044AA000023C1F140E051E0FD0105851685F801C0
:1044BA0004851585401B510BFD0105851685F801FC
:1044CA0026853785FD0105851685F801048515853C
:1044DA00200F311F8D0104DFC801813000E09007F1
:1044EA006CF0FD0105851685F80104851585080F10
:1044FA00191F048715878D0119DF0CC08F3F0FEF35
:10450A00900741F48D0149DE23E0FD0105851685FA
:10451A000E94BA0BFD01218532858D01F0DE002350
:10452A00F9F0FD0105851685F80144855585FD01DB
:10453A0005851685F801268537858D0105DF002357
:10454A0039F026E0FD01058516850E94BA0B9DC14A
:10455A008D0123DE23E0FD01058516850E94BA0B35
:10456A0094C1FD0105851685F80164857585FD01EF
:10457A0005851685F80140895189FD01058516854D
:10458A00F80126853785FD01058516850E94931E4B
:10459A00012B49F00E946B2427E0FD010585168551
:1045AA000E94BA0B72C10E946D248D01F6DD23E0D0
:1045BA00FD01058516850E94BA0B67C18D01B6DE1D
:1045CA008D01EBDD28E0FD01058516850E94BA0BF9
:1045DA005CC125E030E08D0192DE0023C9F0FD01C7
:1045EA0005851685F80144855585FD0105851685DD
:1045FA00F80120893189FD01058516850E94111867
:10460A008D01ECDD29E0FD01058516850E94BA0BB6
:10461A003CC18D014FDE002341F00E946D2423E04E
:10462A00FD01058516850E94BA0B2FC18D01CBDDD0
:10463A0020E0FD01058516850E94BA0B26C18D0171
:10464A0075DE8D01AADDFD0105851685F80100E0FC
:10465A00048700E005878D01ABDD2DE0FD010585AE
:10466A0016850E94BA0B11C18D012FDE0023E1F1DC
:10467A0040E051E0FD0105851685F80104851585A0
:10468A00401B510BFD0105851685F80126853785E6
:10469A00FD0105851685F80104851585200F311F52
:1046AA008D011EDEC801813000E090079CF08D016B
:1046BA003DDEFD0105851685F80104851585080F7F
:1046CA00191F048715872EE0FD01058516850E94AE
:1046DA00BA0B0AC08F3F0FEF900731F423E1FD01B7
:1046EA00058516850E94BA0B28EE33E08D0107DE98
:1046FA00002331F023E1FD01058516850E94BA0BDE
:10470A00C4C08D01E2DD0023B1F140E051E0FD01BA
:10471A0005851685F80104851585401B510BFD0199
:10472A0005851685F80126853785FD0105851685D7
:10473A00F80104851585200F311F8D01D1DDC801CF
:10474A00813000E090076CF08D01F0DDFD010585F8
:10475A001685F80104851585080F191F0487158722
:10476A000AC08F3F0FEF900731F423E1FD01058561
:10477A0016850E94BA0BFD01218532858D01BFDDA8
:10478A000023E9F0FD0105851685F8014485558564
:10479A00FD0105851685F801268537858D01D4DD4D
:1047AA00002339F02FE0FD01058516850E94BA0B1A
:1047BA006CC023E1FD01058516850E94BA0B65C010
:1047CA00FD0105851685F80144855585FD01058598
:1047DA001685F80126853785FD01058516850E940F
:1047EA00341F012B39F023E1FD01058516850E944E
:1047FA00BA0B4BC023E1FD01058516850E94BA0B51
:10480A0044C08D0193DD8D01C8DC0E946B2421E137
:10481A00FD01058516850E94BA0B37C025E030E0F8
:10482A008D016DDD002389F1FD0105851685F801ED
:10483A0044855585FD0105851685F801208931894C
:10484A00FD01058516850E9411188D01C7DC22E13C
:10485A00FD01058516850E94BA0B17C08D012ADD58
:10486A00002399F08D01C5DC0E946D242CE0FD0126
:10487A00058516850E94BA0B08C08D01A4DC20E0CC
:10488A00FD01058516850E94BA0BE4E00C94FF42EF
:10489A000F50104088CD980101E010E008950F50A4
:1048AA0010400C945024980102E010E008950F5033
:1048BA0010400C945824F80102A50895F80103A5A4
:1048CA000895EDE7F8E0008111810895DB980895D5
:1048DA00DB9A08950E94EE42D801822F8D01055F6E
:1048EA001F4F0E9428110DEA14E0FD01018712876B
:1048FA0003EB14E0FD01048715878C9320E08D01FA
:10490A00055F1F4F0E94BA0B8D01E4E00C94FF4231
:10491A000E94EE42C801D901082F092B61F020E05C
:10492A0030E08C01055F1F4F0E944911A0FB1EF465
:10493A008C010E940842E4E00C94FF420B501040A4
:10494A00E7CF1D01D801F9010081FD01008BF901B2
:10495A0001811281FD01018B128BF90103811481FE
:10496A00FD01038B148BF90105811681FD01058375
:10497A001683F90107811085FD01058B168BF90154
:10498A0003891489FD01038F148FF90105851685A2
:10499A00FD01078B108FF90140895189F9010289BC
:1049AA0010E0000F111F400F511FFD01418F528F60
:1049BA00F9010289085F028BF90163897489F90197
:1049CA00058910E048E150E00E941042600F711F13
:1049DA00FD01638F748FF9010589085F058BF90161
:1049EA00068917890F5F1F4FFD0107831087FD0195
:1049FA0000E0058FD10108950E94EC42D801FD0123
:104A0A00038914890E5F1F4FC80100E0083078F44B
:104A1A00FD01238D348D10E0200F311FF901208113
:104A2A0010E0FC01E00FF11F20830395EFCF28E08F
:104A3A0030E08C010E94EC0C2801FD0103891489E5
:104A4A00065F1F4FC801042DFC01008301968201F5
:104A5A00012F10E0FC010083FD0103891489F8018C
:104A6A0001E80083FD0100890E94A1350AE613E0EE
:104A7A0001501040E9F700C000004DE050E0FD0190
:104A8A0023893489FD01018912890E947C320E949E
:104A9A00C635FD0101891289F8010181013849F4FD
:104AAA00FD0101891289F80104850E3711F401E02C
:104ABA0001C000E0E6E00C94FD420E94E842D80101
:104ACA00992420E0283020F5FD01038D148D30E073
:104ADA00020F131FF80100850F3FC1F0FD01058980
:104AEA001689FD01438D548D30E0420F531FFA01A0
:104AFA00408550E0040F151FF8010081002331F0B2
:104B0A0001E010E0422F0E941A42902A2395DACF40
:104B1A00882420E0283020F5FD01038D148D30E033
:104B2A00020F131FF80100890F3FC1F0FD0105892B
:104B3A001689FD01438D548D30E0420F531FFA014F
:104B4A00408950E0040F151FF8010081002331F05D
:104B5A0001E010E0422F0E941A42802A2395DACF00
:104B6A005524FD010381002329F0FD0100E00383A0
:104B7A00689450F8FD010481002329F0FD0100E04A
:104B8A000483689451F8FD010181002329F0FD0195
:104B9A0000E00183689452F8FD010281002329F0A4
:104BAA00FD0100E00283689453F8FD01038914892A
:104BBA00F80102E40083FD01038914890E5F1F4F87
:104BCA00C801442420E02830A8F4FD01018D128D8B
:104BDA00422F50E0440F551F040F151FF8010181A1
:104BEA00002331F001E010E0422F0E941A42402ACD
:104BFA002395E9CFFC0140820196442420E0283025
:104C0A00A8F4FD01018D128D422F50E0440F551F6B
:104C1A00040F151FF8010081002331F001E010E0B4
:104C2A00422F0E941A42402A2395E9CFFC01408272
:104C3A000196FC0190820196FC0180820196FC019A
:104C4A005082019625E030E0FD01038914890E5F48
:104C5A001F4F0E94EC0C3801062DFC0100830196BF
:104C6A008301012F10E0FC0100830196FC010EE78D
:104C7A0000830196FD0100890E94A1350AE613E02E
:104C8A0001501040E9F700C000004AE050E0FD0181
:104C9A0023893489FD01018912890E947C320E948C
:104CAA00C635FD0101891289F8010181045209F40E
:104CBA0047C00E5109F04EC025E030E0FD010189E0
:104CCA0012890E5F1F4F0E94FA0C01301040BCF18E
:104CDA00FD0101891289F80101850E37D9F5FD0117
:104CEA0000E0058F20E08D010E94E526FD01018983
:104CFA001289F8010281402E20E02830F0F401E008
:104D0A0010E0422F0E941A42142D1023112351F051
:104D1A00FD010789108D30E0020F131FF80101E031
:104D2A00008309C0FD010789108D30E0020F131FAF
:104D3A00F80100E000832395E0CF01E020C00AC01B
:104D4A00FD01058D043130F420E08D01055F1F4F10
:104D5A000E94BA0BFD01058D043130F4FD01058D69
:104D6A000395058F00E00BC0FD0105811681F8014E
:104D7A0002E0008321E08D010E94E52600E0EAE0DE
:104D8A000C94F9420E94EF42C8018C01055F1F4F43
:104D9A000E94BD0B005019F00A9559F00DC08C0104
:104DAA002BDEA02F21E08C01055F1F4F0E94BA0B5A
:104DBA0003C08C0182DEA02F0A2FE3E00C9400438B
:104DCA00AD01F801A781B0852C93DA0108950E94FC
:104DDA00EE42D801822F8D01055F1F4F0E942811D4
:104DEA000DEC14E0FD010187128703ED14E0FD01CB
:104DFA00048715878C938D01E4E00C94FF420E948E
:104E0A00EE42C801D901082F092B61F020E030E0F9
:104E1A008C01055F1F4F0E944911A0FB1EF48C01F3
:104E2A000E940842E4E00C94FF420B501040E7CF86
:104E3A00BD01D801F9010081FD01008BF901018151
:104E4A001281FD01018B128BF90103811481FD018D
:104E5A00038B148BF90105811681FD0105831683E5
:104E6A00F90147815085F901018510E0400F511F72
:104E7A00FD01458B568BF9010185085E0187F90111
:104E8A0042855385F901048510E0400F511FFD0149
:104E9A00478B508FF9010485085E0487F90106895A
:104EAA001789FD0107831087FD0100E0018FDB01EF
:104EBA0008950E94EE42D8015396ED91FC915497C1
:104ECA0002E40083FD0100890E94A1350AE613E08D
:104EDA0001501040E9F700C0000049E050E0FD0130
:104EEA0023893489FD01018912890E947C320E943A
:104EFA00C6355196ED91FC91529701810452B1F158
:104F0A000E51A1F527E030E0FD01018912890F5FFA
:104F1A001F4F0E941E0D0130104044F1FD0100E0B8
:104F2A00018F20E08D010E94E526FD014589568901
:104F3A00FD018789908D20E02630B0F4FD010189BA
:104F4A00128930E0020F131FF801328100E00430A9
:104F5A0048F4132F137036953695FC011083019689
:104F6A000395F5CF2395E8CF01E015C0FD01018D2A
:104F7A00043130F4FD01018D0395018F00E00BC06F
:104F8A001596ED91FC91169701E0008321E08D01C1
:104F9A000E94E52600E0E4E00C94FF42F801238336
:104FAA000895BA93AA93D8018D010E94281107ED9A
:104FBA0014E0FD01018312838D010A5F1F4F0E94D5
:104FCA00164125E28D010E94BA0B25E28D010E944D
:104FDA00D3278D01A991B9910895BA93AA93D801BB
:104FEA008D01DFDF0BEF14E0FD010183128325E25F
:104FFA008D010E94BA0B25E28D010E94D3278D01F3
:10500A00A991B9910895BA93AA93D8018D01C9DFDC
:10501A000FE115E0FD010183128325E28D010E9453
:10502A00BA0B25E28D010E94D3278D01A991B9916E
:10503A000895BA93AA93D8018D01B3DF0DE715E05D
:10504A00FD010183128328E18D010E94BA0B28E138
:10505A008D010E94D3278D01A991B9910895BA9320
:10506A00AA93D8018D019DDF01EA15E0FD010183B4
:10507A00128325E28D010E94BA0B25E28D010E945E
:10508A00D3278D01A991B9910895BA93AA93D8010A
:10509A008D0187DF03E415E0FD010183128325E218
:1050AA008D010E94BA0B25E28D010E94D3278D0142
:1050BA00A991B99108950E94EE42D801C9010A2F17
:1050CA000B2BB1F007ED14E0FD010183128322E0FE
:1050DA0030E08D010A5F1F4F0E94314120E030E02D
:1050EA008D010E94491180FB1EF48D010E94084225
:1050FA00E4E00C94FF42BA93AA93D8018D010E946E
:10510A00BD0BECE5F0E0FBBFF9E00C94A5428D0184
:10511A001196ED91FC9112977096259134917197A1
:10512A00F901099598018D010A5F1F4F0E943F41BD
:10513A008D011196ED91FC91129734962591349137
:10514A003597F901099529E18D010E94BA0B6AC2C6
:10515A008D010A5F1F4F0E945941002301F18D0101
:10516A001196ED91FC91129772962591349173974D
:10517A00F901099598018D010A5F1F4F0E943F416D
:10518A008D011196ED91FC9112973C9625913491DF
:10519A003D97F90109952AE18D010E94BA0B42C295
:1051AA008D010A5F1F4F0E945941002301F18D01B1
:1051BA001196ED91FC911297709625913491719701
:1051CA00F901099598018D010A5F1F4F0E943F411D
:1051DA008D011196ED91FC91129734962591349197
:1051EA003597F901099529E18D010E94BA0B1AC276
:1051FA008D011196ED91FC9112977096259134913B
:10520A007197F901099598018D010A5F1F4F0E9454
:10521A003F418D011196ED91FC9112973696259199
:10522A0034913797F901099522E08D010E94BA0B52
:10523A00F9C18D010A5F1F4F0E945941002321F0D5
:10524A0021E08D010E94BA0BEDC18D011196ED91FD
:10525A00FC9112977496259134917597F9010995E5
:10526A0098018D010A5F1F4F0E943F418D011196DF
:10527A00ED91FC9112973896259134913997F9015D
:10528A00099528E08D010E94BA0BCCC18D010A5FF5
:10529A001F4F0E945941002301F18D011196ED9192
:1052AA00FC9112977696259134917797F901099591
:1052BA0098018D010A5F1F4F0E943F418D0111968F
:1052CA00ED91FC9112973C96259134913D97F90105
:1052DA00099529E08D010E94BA0BA4C18D010A5FCC
:1052EA001F4F0E945941002301F18D011196ED9142
:1052FA00FC9112977496259134917597F901099545
:10530A0098018D010A5F1F4F0E943F418D0111963E
:10531A00ED91FC9112973896259134913997F901BC
:10532A00099528E08D010E94BA0B7CC18D01119666
:10533A00ED91FC9112977896259134917997F9011C
:10534A00099598018D010A5F1F4F0E943F418D0107
:10535A001196ED91FC9112973A96259134913B97CB
:10536A00F90109952EE08D010E94BA0B5BC18D01EE
:10537A000A5F1F4F0E945941002301F18D011196C6
:10538A00ED91FC9112977A96259134917B97F901C8
:10539A00099598018D010A5F1F4F0E943F418D01B7
:1053AA001196ED91FC9112973C96259134913D9777
:1053BA00F90109952FE08D010E94BA0B33C18D01C5
:1053CA000A5F1F4F0E945941002301F18D01119676
:1053DA00ED91FC9112977896259134917997F9017C
:1053EA00099598018D010A5F1F4F0E943F418D0167
:1053FA001196ED91FC9112973A96259134913B972B
:10540A00F90109952EE08D010E94BA0B0BC18D019D
:10541A001196ED91FC9112977C96259134917D9786
:10542A00F901099598018D010A5F1F4F0E943F41BA
:10543A008D011196ED91FC9112973A96259134912E
:10544A003B97F901099524E18D010E94BA0BEAC044
:10545A008D010A5F1F4F0E945941002301F18D01FE
:10546A001196ED91FC9112977E96259134917F9732
:10547A00F901099598018D010A5F1F4F0E943F416A
:10548A008D011196ED91FC9112973C9625913491DC
:10549A003D97F901099525E18D010E94BA0BC2C019
:1054AA008D010A5F1F4F0E945941002301F18D01AE
:1054BA001196ED91FC9112977C96259134917D97E6
:1054CA00F901099598018D010A5F1F4F0E943F411A
:1054DA008D011196ED91FC9112973A96259134918E
:1054EA003B97F901099526E18D010E94BA0B9AC0F2
:1054FA008D010A5F1F4F0E945941002301F18D015E
:10550A001196ED91FC911297B09625913491B1972D
:10551A00F901099598018D010A5F1F4F0E943F41C9
:10552A008D011196ED91FC9112973C96259134913B
:10553A003D97F901099527E18D010E94BA0B72C0C6
:10554A008D010A5F1F4F0E945941002301F18D010D
:10555A001196ED91FC9112977C96259134917D9745
:10556A00F901099598018D010A5F1F4F0E943F4179
:10557A008D011196ED91FC9112973A9625913491ED
:10558A003B97F901099524E18D010E94BA0B4AC0A3
:10559A008D011196ED91FC911297B2962591349155
:1055AA00B397F901099598018D010A5F1F4F0E946F
:1055BA003F418D011196ED91FC91129738962591F4
:1055CA0034913997F90109952FE18D010E94BA0B9F
:1055DA0029C08D010A5F1F4F0E945941002311F112
:1055EA008D011196ED91FC9112973C96259134917B
:1055FA003D97F90109958D010E94632E202F8D0197
:10560A000E94BA0B0FC08D011196ED91FC91129771
:10561A003C96259134913D97F901099520E08D0139
:10562A000E94BA0BA991B99108950E94EE42C8014D
:10563A00D901082F092B69F025E28C010E94BA0BC7
:10564A0020E030E08C0137DDA0FB1EF48C010E94C3
:10565A000842E4E00C94FF420E94EF42C801A22FE4
:10566A008C010E94BD0B202F8C010E94D3270A2F88
:10567A00005079F00A9591F00250A9F00A95C1F00C
:10568A000A95D1F00A95C1F00A95B1F00A95A1F0F0
:10569A0013C025E28C010E94BA0B0EC021E08C01D6
:1056AA000E94BA0B09C027E08C010E94BA0B04C001
:1056BA0027E08C010E94BA0BE3E00C9400430895A2
:1056CA009A938A93C80101E00E94E73D89919991D2
:1056DA0008959A938A93C80103E00E94E73D89914D
:1056EA009991089508959A938A93C80103E00E94B4
:1056FA00113E0E944B358991999108950E94EE427C
:10570A00C801D901082F092B69F025E28C010E94F2
:10571A00BA0B20E030E08C01CEDCA0FB1EF48C0139
:10572A000E940842E4E00C94FF420E94EF42C80142
:10573A00A22F8C010E94BD0B202F8C010E94D3271F
:10574A000A2F005079F00A9591F00250A9F00A95B3
:10575A00C1F00A95D1F00A95C1F00A95B1F00A95FF
:10576A00A1F013C025E28C010E94BA0B0EC021E001
:10577A008C010E94BA0B09C025E28C010E94BA0B67
:10578A0004C02DE08C010E94BA0BE3E00C940043A4
:10579A0008959A938A93C80101E00E94E73D89918E
:1057AA009991089508959A938A93C80104E00E94F2
:1057BA00E73D8991999108959A938A93C80104E0E3
:1057CA000E94113E0E944B358991999108950E9439
:1057DA00EE42C801D901082F092B69F025E28C0194
:1057EA000E94BA0B20E030E08C0165DCA0FB1EF4BD
:1057FA008C010E940842E4E00C94FF420E94EF42AE
:10580A00C801A22F8C010E94BD0B202F8C010E947F
:10581A00D3270A2F005079F00A9591F00250A9F087
:10582A000A95C1F00A95F9F00A95E9F00A95B9F0D6
:10583A000A95C9F018C028E18C010E94BA0B13C05E
:10584A0028E18C010E94BA0B0EC027E08C010E944D
:10585A00BA0B09C02DE08C010E94BA0B04C023E1E7
:10586A008C010E94BA0BE3E00C9400439A938A934A
:10587A00C8010E94D62E89919991089508959A9304
:10588A008A93C8010E94D62E8991999108959A9374
:10589A008A93C8010E94D62E8991999108959A9364
:1058AA008A93C8010E94D82E0E944B3589919991FA
:1058BA0008950E94EE42C801D901082F092B69F008
:1058CA0025E28C010E94BA0B20E030E08C01F3DB68
:1058DA00A0FB1EF48C010E940842E4E00C94FF42F3
:1058EA000E94EF42C801A22F8C010E94BD0B202FFB
:1058FA008C010E94D3270A2F005079F00A9591F063
:10590A000250A9F00A95C1F00A9521F10A9511F100
:10591A000A95B9F00A95D1F01DC025E28C010E94C2
:10592A00BA0B18C025E28C010E94BA0B13C027E0FB
:10593A008C010E94BA0B0EC02DE08C010E94BA0B9A
:10594A0009C023E18C010E94BA0B04C02EE18C012C
:10595A000E94BA0BE3E00C9400439A938A93C8011D
:10596A000E94B90C8991999108959A938A93C801D2
:10597A000E94B90C8991999108959A938A93C801C2
:10598A000E94A70C8991999108959A938A93C801C4
:10599A000E94B00C8991999108959A938A93C801AB
:1059AA000E94B90C0E944B358991999108950E94E1
:1059BA00EE42C801D901082F092B69F025E28C01B2
:1059CA000E94BA0B20E030E08C0175DBA0FB1EF4CC
:1059DA008C010E940842E4E00C94FF4208959A93D5
:1059EA008A93C80101E00E94593E0E94A70C89913E
:1059FA00999108959A938A93C80101E00E94593EA9
:105A0A000E94A70C8991999108959A938A93C80143
:105A1A0003E00E94593E0E94A70C8991999108952A
:105A2A009A938A93C80104E00E94593E0E94A70CE7
:105A3A008991999108959A938A93C8010E94B90C01
:105A4A000E9450350E944B35899199910895BA93D5
:105A5A00AA93D8018D010E94BD0B0050E9F00A9566
:105A6A00E1F00A95D9F10A9509F460C0045009F4E5
:105A7A0069C00A9509F487C00A9509F4ACC00450B4
:105A8A0009F4B5C00A9509F4D3C00A9509F4F8C017
:105A9A00065109F401C10FC10EC18D011196ED9194
:105AAA00FC9112977096259134917197F901099595
:105ABA0098018D010A5F1F4F0E943F418D01119687
:105ACA00ED91FC9112973696259134913797F90109
