:100000000C940B40189518951895189518951895F7
:100010001895189518951895189518951895189578
:10002000189518950C944E311895189518951895A3
:100030001895189518951895189518951895189558
:100040001895189518951895189518951895189548
:1000500018951895189518950C940C3018951895B6
:100060001895189518951895189518951895189528
:1000700018951895189518950C946D2F0C94292F98
:100080000C94472F189518951895189500000000A6
:100090009305A705FD09000A030AB207A7050F0A81
:1000A000120A150AC507A705180A1B0A1E0AD8074F
:1000B000A705210A240A270AEB07A7052A0A2D0A01
:1000C000300AFE07A705330A360A390A1108A705C0
:1000D0003C0A3F0A420A2408A705450A480A4B0A77
:1000E0003708A7054E0A510A540A4A08A705570AB5
:1000F0005A0A5D0A5D087008600A630A660A080900
:100100007008690A6C0A6F0A1B097008720A750A7E
:10011000780A2E0970087B0A7E0A810A410955096E
:10012000840A870A000000000000000000000000B0
:10013000000000000000BC0ACA0A0000C1C081C162
:10014000400101C3C003800241C201C6C00680074E
:1001500041C70005C1C581C4400401CCC00C800D5D
:1001600041CD000FC1CF81CE400E000AC1CA81CB64
:10017000400B01C9C009800841C801D8C0188019C6
:1001800041D9001BC1DB81DA401A001EC1DE81DFCC
:10019000401F01DDC01D801C41DC0014C1D481D58D
:1001A000401501D7C017801641D601D2C012801366
:1001B00041D30011C1D181D0401001F0C030803155
:1001C00041F10033C1F381F240320036C1F681F7CC
:1001D000403701F5C035803441F4003CC1FC81FD5D
:1001E000403D01FFC03F803E41FE01FAC03A803BE6
:1001F00041FB0039C1F981F840380028C1E881E9A4
:10020000402901EBC02B802A41EA01EEC02E802F4D
:1002100041EF002DC1ED81EC402C01E4C02480258C
:1002200041E50027C1E781E640260022C1E281E3E3
:10023000402301E1C021802041E001A0C060806135
:1002400041A10063C1A381A240620066C1A681A74B
:10025000406701A5C065806441A4006CC1AC81AD5C
:10026000406D01AFC06F806E41AE01AAC06A806B65
:1002700041AB0069C1A981A840680078C1B881B9C3
:10028000407901BBC07B807A41BA01BEC07E807FCD
:1002900041BF007DC1BD81BC407C01B4C07480758C
:1002A00041B50077C1B781B640760072C1B281B363
:1002B000407301B1C071807041B00050C190819114
:1002C00040510193C053805241920196C0568057CD
:1002D00041970055C19581944054019CC05C805D5C
:1002E000419D005FC19F819E405E005AC19A819BE3
:1002F000405B0199C059805841980188C0488049A5
:100300004189004BC18B818A404A004EC18E818F4A
:10031000404F018DC04D804C418C0044C18481858B
:1003200040450187C047804641860182C0428043E4
:1003300041830041C18181804040000000000000F5
:1003400000000000000000000000000000000000AD
:10035000000000000000000000000000000000009D
:10036000000000000000740F820F830F820F000056
:10037000000000000000000000000000000000007D
:10038000000000000000000000000000000000006D
:10039000000000000000000000000000000000005D
:1003A000000000000000000000000000000000004D
:1003B0009710820FAB10820F3713861300000000D6
:1003C000000000000000000000000000000000002D
:1003D0000000262E2F271F170F07050D151D1E16AF
:1003E0000E06141C242C2D25040C222A2B231B134F
:1003F0000B03010911191A120A02101820282921C9
:1004000000083F3F3F0000000000FF00FF00FF002A
:100410000000FFFFFFFFFF3515820F000000000006
:1004200000000000000000000000000000000000CC
:1004300000551568150000000000000000000000D5
:1004400000000000000000000000002616820F3DA2
:10045000166642664266426642CF1DD31D0000000A
:10046000000000000000000000000000000000008C
:10047000000000081E621F7C1F431F871F12208A76
:10048000229222211E87223D165F1F791F841F960C
:100490001F8E22962283040000000000000000004E
:1004A00000000000000000000000000000E0220149
:1004B00025C722DD22820F0000000000000000009E
:1004C0000000000000000000000000000057259818
:1004D000253E255425820F9A26BA26664266426634
:1004E00042664266426642A02CA42CA82CAC2CB0DA
:1004F0002CB42CB82CBC2CC02CC42C5429BA269E4D
:10050000299F29A829B129B2296B29C82CCC2CD024
:100510002CD42CD82CDC2CB82CBC2CC02CC42CBD3E
:1005200029BA26072A082A112A122A1B2AD429E0C6
:100530002CE42CE82CEC2CF02CF42CB82CBC2CC08B
:100540002CC42C162B662B2E2B392B442B4F2B5ABD
:100550002B2D2BF82CFC2C002D042D082D0C2DB848
:100560002CBC2CC02CC42C0000000000000000009B
:1005700000000000000000000000000000262ABA71
:1005800026752A7D2A7E2A862A8E2A3D2AA02CA418
:100590002CA82CAC2CB02CB42CB82CBC2CC02CC44B
:1005A0002C982ABA26EC2AF42AFC2A042B0C2BAF0E
:1005B0002AA02CA42CA82CAC2CB02CB42CB82CBC6D
:1005C0002CC02CC42CAA2D8B2FE43000000000007E
:1005D000000000000000000000000000000000001B
:1005E0000084300201300000000000000000000024
:1005F000000000000000006F0A012F0873060000D1
:10060000171B0000000000000000000000000000B8
:100610000000BEF0000102030405060708090A0BEA
:100620000C0D0E0F101112131415161718191A1B92
:100630001C1D1E1F202122232425262728292A2B82
:100640002C2D2E2FFFFFFFFFFFFFFFFFFFFFFFFF00
:10065000FFFFFFFFFFFFFFFFFFFFFFFFFFFFFFFFAA
:10066000FFFFFFFFFFFFFFFFFFFFFFFFFFFFFFFF9A
:10067000FFFFFFFFFFFFFFFFFFFFFFFFFFFFFFFF8A
:10068000FFFFFFFFFFFFFFFFFFFFFFFFFFFFFFFF7A
:10069000FFFFFFFFF95A03030303030303030303ED
:1006A000030303030303030303030303030302021C
:1006B000020202020202020202020202020202021A
:1006C000020202020202020202020202020202020A
:1006D00002020202020239413E3E3E3E3C3C3C3CAC
:1006E000FFFFFFFFFFFFFFFFFFFFFFFFFFFFFFFF1A
:1006F0004B6F010204081020408000000000000041
:1007000000000000000000000000000000000000E9
:1007100000000000000000000000000000000000D9
:1007200000000000000000000000000000000000C9
:1007300000000000000000000000000000000000B9
:1007400000000000000000000000000000000000A9
:100750000000000000000000000000000000000099
:100760000000000000000000000000000000000089
:10077000000099E8010102100020000000000000C4
:100780000000000000000000000000000000000069
:100790000000000000000000000000000000000059
:1007A0000000000000000000000000000000000049
:1007B0000000000000000000000000000000000039
:1007C000000000000023E20101050000FF0000001E
:1007D0000000000000000000000000000000000019
:1007E0000000000000000000000000000000000009
:1007F00000000000000000000000000000000000F9
:1008000000000000000000000000000000000000E8
:1008100000000000000000007B9C0101050100FFBA
:1008200000000000000000000000000000000000C8
:1008300000000000000000000000000000000000B8
:1008400000000000000000000000000000000000A8
:100850000000000000000000000000000000000098
:100860000000000000000000000000FB6C00000021
:100870000000000000400B001400000107160002F9
:10088000101F00038031000440B3000518F5000676
:10089000800F01075191010851E401095137020A03
:1008A000088A0200000000000000000000000000B4
:1008B0000000000000000000000101010101010131
:1008C0000101000000000000010100000000000024
:1008D0000101000000000000010100000000000014
:0B08E0000101010101010101014E3F77
:1008EC0001015C1D011D01081D010F1D01161D01DB
:1008FC001D1D01241D012B1D07391D01321D014039
:10090C001D01471D064E1D2A631D03631D01631D3A
:10091C0001551DFB00008422140084228422202017
:10092C002B203C208D20F0201D21282148215521F1
:10093C0084225E217321C0211F2240224D226D2270
:10094C007C220001512951290137270158270564C0
:10095C002701852701AD2704D52701F627011E287D
:10096C00044628016728018F2801B72801DF2801D8
:10097C00C62601E726010F2704072901282906426C
:10098C0029FB0000913E1600823D913EA13DBC3DED
:10099C00E73DEC3D913E913E913E913E913EF13DC5
:1009AC00FD3DFF3D0C3E2F3E313E533E553E643ED9
:1009BC00743E8B3E240CE031BA93AA93D8018D017E
:1009CC000E94590F00E910E0FD01018312838D0193
:1009DC00A991B9910895BA93AA93D8018D01ECDF2E
:1009EC000AE910E0FD010183128320E08D010E94D1
:1009FC00F4098D01A991B9910895BA93AA93D801DC
:100A0C008D01DADF04EA10E0FD010183128321E09D
:100A1C008D010E94F4098D01A991B9910895BA93A1
:100A2C00AA93D8018D01C8DF0EEA10E0FD01018305
:100A3C00128321E08D010E94F4098D01A991B991D5
:100A4C000895BA93AA93D8018D01B6DF08EB10E094
:100A5C00FD010183128321E08D010E94F4098D01B7
:100A6C00A991B9910895BA93AA93D8018D01A4DFE5
:100A7C0002EC10E0FD010183128321E08D010E9444
:100A8C00F4098D01A991B9910895BA93AA93D8014B
:100A9C008D0192DF04EF10E0FD010183128321E050
:100AAC008D010E94F4098D01A991B9910895BA9311
:100ABC00AA93D8018D01E9DF0EEF10E0FD0101834F
:100ACC00128321E08D010E94F4098D01A991B99145
:100ADC000895BA93AA93D8018D01D7DF08E011E0ED
:100AEC00FD010183128321E08D010E94F4098D0127
:100AFC00A991B9910895BA93AA93D8018D01C5DF34
:100B0C0002E111E0FD010183128321E08D010E94BD
:100B1C00F4098D01A991B99108950E940B41C80166
:100B2C00D901082F092B51F020E030E08C010E94F4
:100B3C00740FA0FB1EF48C010E942540E4E00C9481
:100B4C001C410E940941D80144248D01FD012181E1
:100B5C003281F9013896259134913997F90109952B
:100B6C00002311F001E001C000E0002309F443C0B0
:100B7C008D010E94060A0E94D03A005039F00A9565
:100B8C0029F00A9581F10A9571F161C0FD0181810D
:100B9C00928106968D010E94060A0E94D03A502E30
:100BAC0050FA552450F88D01FC0125913491319760
:100BBC00F90109955026552011F001E001C000E023
:100BCC00002349F0442443948D010E94060A11E04D
:100BDC000E94B23A3CC044248D010E94060A10E0E7
:100BEC000E94B23A34C044248D010E94060A10E0DF
:100BFC000E94B23A2CC0FD018181928106968D0132
:100C0C000E94060A0E94D03A502E51FA552450F8F0
:100C1C008D01FC01259134913197F90109955026EC
:100C2C00552011F001E001C000E0002349F04424FC
:100C3C0043948D010E94060A11E00E94B23A07C04B
:100C4C0044248D010E94060A10E00E94B23A8D01E4
:100C5C000E94F7090050A9F00A95A1F00A9509F431
:100C6C00EBC00A9509F4B6C00A9509F40BC10A95B4
:100C7C0009F41FC10A9509F430C1025009F444C1AA
:100C8C0068C167C18D01FD0121813281F90138965E
:100C9C00259134913997F9010995002311F001E060
:100CAC0001C000E0002309F45AC08D010E94060A1D
:100CBC000E94D03A005039F00A9529F00A95F1F1CA
:100CCC000A95E1F146C14420C1F18D010E940C0A44
:100CDC0021E00E94CB398D01FD0121813281F90186
:100CEC003496259134913597F9010995802F8D0112
:100CFC000E94090A182F0E942A3B8D01FD012181B7
:100D0C003281F9013496259134913597F901099581
:100D1C00802F8D010E94090A182F0E94373BE0ECAE
:100D2C00FCE0038103FF05C023E08D010E94F40960
:100D3C0010C122E08D010E94F4090BC18D010E94AB
:100D4C00090A11E00E942A3B8D010E94090A12E057
:100D5C000E94373B28E08D010E94F409FAC0442020
:100D6C00C1F18D010E940C0A21E00E94CB398D014A
:100D7C00FD0121813281F901349625913491359709
:100D8C00F9010995802F8D010E94090A182F0E94E4
:100D9C002A3B8D01FD0121813281F9013496259187
:100DAC0034913597F9010995802F8D010E94090A1C
:100DBC00182F0E94373BE0ECFCE0038103FF05C0D9
:100DCC0023E08D010E94F409C4C022E08D010E9431
:100DDC00F409BFC0442059F08D010E940C0A20E098
:100DEC000E94CB390E94930A002361F416C08D0136
:100DFC000E94090A10E00E942A3B21E08D010E940A
:100E0C00F409A7C08D010E94090A11E00E942A3B37
:100E1C0025E08D010E94F4099CC00E94900A0023D9
:100E2C0051F08D010E94090A11E00E942A3B24E036
:100E3C008D010E94F4098DC0442031F08D010E9477
:100E4C000C0A20E00E94CB390E94930A002359F02F
:100E5C008D010E94090A11E00E942A3B25E08D01B8
:100E6C000E94F40976C00E94900A002351F08D0173
:100E7C000E94090A11E00E942A3B24E08D010E9485
:100E8C00F40967C00E94930A002329F025E08D0124
:100E9C000E94F4095EC0442029F426E08D010E94D2
:100EAC00F40957C08D010E940C0A20E00E94CB3936
:100EBC0050C0442059F48D010E94090A10E00E9490
:100ECC002A3B21E08D010E94F40943C08D010E9450
:100EDC000C0A20E00E94CB393CC0442031F08D013B
:100EEC000E940C0A20E00E94CB390E94930A002336
:100EFC0081F18D010E94090A10E00E942A3B21E039
:100F0C008D010E94F40925C08D01FD0121813281E2
:100F1C00F9013896259134913997F90109950023F7
:100F2C0011F001E001C000E0002399F08D010E9456
:100F3C00060A0E94D03A005011F00A9551F48D0126
:100F4C000E94090A10E00E942A3B21E08D010E94B8
:100F5C00F409E6E00C941A410E940B41C801D90136
:100F6C00082F092B49F020E030E08C01D6DDA0FBE6
:100F7C001EF48C010E942540E4E00C941C410E945C
:100F8C000B41C801D901082F092B49F020E030E0B2
:100F9C008C01C3DDA0FB1EF48C010E942540E4E013
:100FAC000C941C410E940B41C801D901082F092B3C
:100FBC0049F020E030E08C01B0DDA0FB1EF48C0188
:100FCC000E942540E4E00C941C410E940B41C80196
:100FDC00D901082F092B49F020E030E08C019DDD70
:100FEC00A0FB1EF48C010E942540E4E00C941C41F3
:100FFC000E940B41C801D901082F092B49F020E0B0
:10100C0030E08C018ADDA0FB1EF48C010E9425408F
:10101C00E4E00C941C410E940B41C801D901082F3B
:10102C00092B49F020E030E08C0177DDA0FB1EF4A9
:10103C008C010E942540E4E00C941C410E940B4161
:10104C00C801D901082F092B49F020E030E08C01B0
:10105C0064DDA0FB1EF48C010E942540E4E00C949E
:10106C001C410E940B41C801D901082F092B49F0E2
:10107C0020E030E08C0151DDA0FB1EF48C010E94BD
:10108C002540E4E00C941C410E940B41C801D9019D
:10109C00082F092B49F020E030E08C013EDDA0FB4D
:1010AC001EF48C010E942540E4E00C941C410E942B
:1010BC000B41C801D901082F092B49F020E030E081
:1010CC008C012BDDA0FB1EF48C010E942540E4E07A
:1010DC000C941C410E940A41D8018D010E94F70911
:1010EC00005031F00A9529F0065009F454C087C01D
:1010FC0086C0FD018181928106968D010E94060AAF
:10110C000E94C23A402E8D01FC01259134913197F9
:10111C00F90109954026442011F001E001C000E0DE
:10112C000023C1F18D010E940C0A21E00E94CB39F1
:10113C008D011196ED91FC91129734962591349175
:10114C003597F9010995802F8D010E94090A182FF6
:10115C000E942A3B8D011196ED91FC9112973496C9
:10116C00259134913597F9010995802F8D010E94B5
:10117C00090A182F0E94373B8D010E94090A0E9410
:10118C009C0A21E00E94FA090E94853327E08D0118
:10119C000E94F40934C0FD018181928106968D0173
:1011AC000E94060A0E94C23A402E8D01FC01259134
:1011BC0034913197F90109954026442011F401E04E
:1011CC0001C000E00023A9F08D010E94090A10E083
:1011DC000E942A3B8D010E94090A0E949C0A20E071
:1011EC000E94FA090E94853321E08D010E94F409C6
:1011FC0006C08D010E940C0A20E00E94CB39E5E06C
:10120C000C941B410E940B41C801D901082F092BDA
:10121C0049F020E030E08C014ADFA0FB1EF48C0189
:10122C000E942540E4E00C941C410E940B41C80133
:10123C00D901082F092B49F020E030E08C0137DF71
:10124C00A0FB1EF48C010E942540E4E00C941C4190
:10125C000E940B41C801D901082F092B49F020E04D
:10126C0030E08C0124DFA0FB1EF48C010E94254091
:10127C00E4E00C941C410E940B41C801D901082FD9
:10128C00092B51F020E030E08C010E94740FA0FB80
:10129C001EF48C010E942540E4E00C941C410E9439
:1012AC000A41D8018D010E94F709005049F00A95B6
:1012BC0041F00A9509F463C00A9509F46BC08BC020
:1012CC008AC0FD018181928106968D010E948A0A55
:1012DC000E94D63A402E8D01FC0125913491319714
:1012EC00F90109954026442011F001E001C000E00D
:1012FC00002309F470C00E94990A073021F1FD0106
:10130C008181928104960E94990A402E8D01FC01E4
:10131C00259134913197F9010995401610F001E0AF
:10132C0001C000E0002379F48D011196ED91FC9140
:10133C0012973496259134913597F90109950E94AD
:10134C00960A0E94DC3A8D011196ED91FC91129750
:10135C003496259134913597F9010995802F8D019B
:10136C000E948D0A182F0E94373B8D010E948D0A16
:10137C000E94AD3C22E08D010E94F4092CC00E9419
:10138C00900A002341F10E94FB3A23E08D010E9458
:10139C00F40921C0FD018181928106968D010E9484
:1013AC008A0A0E94D63A402E8D01FC012591349177
:1013BC003197F90109954026442011F401E001C050
:1013CC0000E0002341F00E94043B0E948A3321E09C
:1013DC008D010E94F409E5E00C941B41F801208377
:1013EC000895F80100810895F8012083089598016B
:1013FC0000E00895980100E00895980100E0089538
:10140C00F80105810895F801038108950C5F1F4FC1
:10141C000895980100E00895980100E0089598015E
:10142C0000E00895980103E00895980100E0089504
:10143C00980100E00895980103E00895980101E0F7
:10144C000895980100E00895980103E0089598012B
:10145C0000E00895980101E00895980103E00895D3
:10146C00980101E00895980101E00895980104E0C5
:10147C000895980100E00895980100E008959801FE
:10148C0004E00895980101E00895980100E00895A2
:10149C00980104E00895980100E00895980101E096
:1014AC000895980104E00895980101E008959801C9
:1014BC0001E00895980101E00895980100E0089575
:1014CC00980100E00895980101E00895980101E069
:1014DC000895980100E00895980101E0089598019D
:1014EC0000E00895980101E00895980101E0089545
:1014FC00980101E00895980101E00895980107E032
:10150C000895980100E00895F80104810895F80108
:10151C00038108950091460C08950091470C08959D
:10152C000093B50C08950091B50C089510E048E0B7
:10153C0050E00E942D40980101ED1DE0020F131F99
:10154C00089526E331E0F80126833783F80120E083
:10155C002083F80120E02183F80120E02283F801A8
:10156C0020E02383F80120E0248308959A938A9342
:10157C00C801082F092B29F020FB1EF48C010E94B6
:10158C0025408991999108959A938A93C801082FBF
:10159C00092B29F020FB1EF48C010E942540899117
:1015AC00999108950E94FE0A0E94FA0A0E94040B67
:1015BC000E94000B089508EF12E00E9418310E945F
:1015CC00FC0A0E94020B08950AE81CE00E941831E4
:1015DC000E94FC0A0E94020B08950E94FE0A0E94BF
:1015EC00040B0E9443310895149A08951C9A08958F
:1015FC001C980895159A08951D9A08951D9808959C
:10160C007B2F2A2ED8010FEF1FEF40E050E042173E
:10161C00530798F46C91502F65271196012F10E009
:10162C00E62FF0E0EE0FFF1FE65CFE4F05901490E6
:10163C003197002511254395E9CFA22DB72F089599
:10164C00F80100E010E0408150E0040F151F3196C6
:10165C0021503040422F432BB1F708950E940B418B
:10166C00F801C90120E030E0008110E0200F311FAB
:10167C0031960197082F092BB9F7DF01FD0131963F
:10168C00022F1C91011749F48901012F10E01081E0
:10169C00011719F401E010E002C000E010E0E4E0F2
:1016AC000C941C41F80140E00081400F3196215010
:1016BC003040022F032BC1F70081401719F401E0D1
:1016CC0010E0089500E010E00895A895089510E04A
:1016DC0048E050E00E942D40F801E056F84F06819A
:1016EC00178108950091270808950BE00895009341
:1016FC00480C08950E940B410E94380CB0E0A1E008
:10170C000A2F015039F00A9539F10A95A1F10A9581
:10171C0081F133C00E947B0BB017E0F42B2F00E15A
:10172C001AE00E94280FC801082F092B89F04B2FB3
:10173C0043959C0100E11AE00E947F0D002311F0FB
:10174C00A2E01BC00E94780B0430B9F4A3E015C0D2
:10175C00A3E013C0A4E011C00E94780B033019F46D
:10176C00B395A1E00AC00E94780B043031F4A3E0D9
:10177C0004C001E00BC000E009C00E94250E0AE085
:10178C0010E00E94D5300E946B0BBACFE4E00C94B1
:10179C001C410E94A20D08950E94C70D08950E943D
:1017AC00F30D089500E00E947D0B0E94C30E0023F0
:1017BC0099F0EFDF002351F0F2DF002311F001E08C
:1017CC00089504E00E947D0B00E0089504E00E945F
:1017DC007D0B90DF00E0089504E00E947D0B8ADF12
:1017EC0000E008950E940C41C801A22F2A2F2395D6
:1017FC008C010E946E0CE3E00C941D418A93802FA7
:10180C000E947B0B801730F4082F03950E946D0B00
:10181C0010E002C000E010E0899108950E940C4194
:10182C00C801A22F0A2FEADF98014A2F43958C0199
:10183C000E947F0D10E0E3E00C941D410EE118E0D6
:10184C000E94333F00E417E00E94C93F08959A9329
:10185C008A93C80122E030E08C010E944E3F8991AE
:10186C009991089500E11AE0ECE1F8E0008311830E
:10187C0000E00E944A0F44E650E020E030E000EA2D
:10188C0017E00E943741E0EAF7E000E110E0048342
:10189C001583E0EAF7E004E610E00683178306E61A
:1018AC0010E00E94F411E0EAF7E00087118706E6E9
:1018BC0010E00E94F411005F1F4FE0EAF7E0028392
:1018CC001383E0EAF7E000E0008300E00183089571
:1018DC000E940141D1503801822E0CE0801618F084
:1018EC0000E010E077C0082D10E048E050E00E94C6
:1018FC002D40F801E056F84F06811781012B09F4B1
:10190C0051C0082D10E048E050E00E942D40F80135
:10191C00E056F84F00851185012B09F443C0082DC2
:10192C0010E048E050E00E942D40F801E056F84FDE
:10193C00048115816801082D10E048E050E00E94F8
:10194C002D40F801E056F84F068117812801082D2B
:10195C0010E048E050E00E942D40F801E056F84FAE
:10196C00008511855801A50196018E010E94A62FB4
:10197C00A5019E018E010E94A512FE01E40DF51D2C
:10198C00808190E0FE01E40DF51D118100E0802BBB
:10199C00912B92018E010E94060BD8018A179B078E
:1019AC00A1F403C000E010E015C0082D10E0000FFA
:1019BC00111FF801EC5FF74F80839183A2019E0108
:1019CC0083010E942741820105C004E00E947D0B27
:1019DC0000E010E0DF5FEEE00C9412410E94054144
:1019EC00D1502801C901642E0CE0601618F000E0FB
:1019FC0010E07BC0AC0192018E010E9427419C013A
:101A0C0082010E94060BD8010A2FFE01E80FF91F74
:101A1C0000838D01012F10E0FE01E80FF91F0183F7
:101A2C00062D10E048E050E00E942D40F801E056F1
:101A3C00F84FA287B387AC014E5F5F4F9E01ECE17C
:101A4C00F8E0008111810E94FE114801062D10E082
:101A5C0048E050E00E942D40F801E056F84F008518
:101A6C001185012B69F5E0EAF7E022813381062D1F
:101A7C0010E048E050E00E942D40F801E056F84F8D
:101A8C0024833583E0EAF7E002811381080D191DE8
:101A9C0002831383062D10E048E050E00E942D4095
:101AAC00F801E056F84F86839783062D10E048E046
:101ABC0050E00E942D40F801E056F84F8086918648
:101ACC00A401ECE1F8E020813181BA01062D10E08F
:101ADC0048E050E00E942D40F801E056F84F048198
:101AEC001581AB010E94B92F8401DF5FEAE00C94F1
:101AFC0016410E940A41D801C901442E0E944D0F83
:101B0C00002399F4442D9C018D0168DF012B41F0D9
:101B1C0001E00E94500F01E00E944A0F01E009C051
:101B2C0004E00E94500F00E004C002E00E94500F3D
:101B3C0000E0E5E00C941B41BD01E1E0F0E0EB308E
:101B4C0000E0F007D8F48F01000F111FD801AC5F33
:101B5C00B74F2D913C9111978F0148E050E00E94B6
:101B6C002D40D801A655B84F0D911C9111972017F7
:101B7C00310711F000E003C03196E1CF01E0DB0149
:101B8C000895BA93AA936697E0E0F0E0EB3000E09A
:101B9C00F007B0F48F0148E050E00E942D40D801CE
:101BAC00AE54B84F2D913C911197DE018F01000F6F
:101BBC00111FA00FB11F2D933C9311973196E6CFB7
:101BCC0026E130E08E010E94060BE0EAF7E000838C
:101BDC0011836696A991B9910895BA93AA936697C1
:101BEC00E0E0F0E0EB3000E0F007B0F48F0148E00B
:101BFC0050E00E942D40D801AE54B84F2D913C912D
:101C0C001197DE018F01000F111FA00FB11F2D9333
:101C1C003C9311973196E6CF26E130E08E010E947D
:101C2C00060BE0EAF7E0208131812017310711F42F
:101C3C0001E001C000E06696A991B99108950E9457
:101C4C004D0F005079F00A9571F00A95B1F00A9594
:101C5C0089F10A9509F443C00A9509F459C00A950B
:101C6C0009F473C008950E94470F28EC30E00E94DD
:101C7C005C3F02E00E944A0F08950E94350F00233A
:101C8C0061F00E94470F20E137E20E945C3F0E9406
:101C9C00410F03E00E944A0F08950E94470F0E94D3
:101CAC00763F002331F004E00E94500F00E00E94C8
:101CBC004A0F08950E943E0F002321F004E00E9479
:101CCC004A0F08950E94470F0E94763F002331F07F
:101CDC0004E00E94500F00E00E944A0F089540E07B
:101CEC0024E630E000EA17E079DE012B51F00E9487
:101CFC00470F28EC30E00E945C3F05E00E944A0F41
:101D0C00089504E00E94500F00E00E944A0F0895CD
:101D1C000E94350F002361F00E94470F20E137E24B
:101D2C000E945C3F0E94410F06E00E944A0F0895FA
:101D3C000E94470F0E94763F0023F1F004E00E94BE
:101D4C00500F00E00E944A0F08950E943E0F00239E
:101D5C0039F003E00E94500F00E00E944A0F0895F2
:101D6C000E94470F0E94763F002331F004E00E944E
:101D7C00500F00E00E944A0F08950E940B4172DD43
:101D8C0020E000EA17E0A4DD012B11F400E057C0BD
:101D9C00B0E0A1E000E00E94530F0A2F015059F06F
:101DAC000A9509F10A9581F10A95D1F10A95E9F1A3
:101DBC000A95C9F13CC0BC30A0F42B2FECE1F8E043
:101DCC000081118185DDC801082F092B41F00E948B
:101DDC00560F002311F0A2E02AC0A4E028C0A5E011
:101DEC0026C0A6E024C04B2F9C01ECE1F8E000815A
:101DFC0011817FDE002311F0A3E019C00E94780B43
:101E0C000430A9F4A5E013C00E94780B033011F440
:101E1C00A4E00DC00E94780B043049F4A5E007C083
:101E2C00B395A1E004C001E00AC000E008C007DFE0
:101E3C000AE010E00E94D5300E946B0BAECFE4E0BC
:101E4C000C941C410E940C41C801A22F2A2F8C011A
:101E5C000E944B30E3E00C941D41E39A0895E19B02
:101E6C0002C000E0089501E00895009372080895FF
:101E7C0000917208089500E00E943B0F0E94330FFE
:101E8C0008950EE118E00895009326080895009136
:101E9C0026080895009327080895009328080895AC
:101EAC0000912808089526E633E0F8012183328357
:101EBC00F80120E020830895AD01D8018D01F3DFF6
:101ECC000AE613E0FD0101831283FD0100E00383A8
:101EDC00FD0100E004838D01DA0108959A938A9341
:101EEC00C801082F092B29F020FB1EF48C010E943D
:101EFC00254089919991089508959A938A93C801E0
:101F0C00082F092B29F020FB1EF48C010E94254080
:101F1C00899199910895009161000160009361008D
:101F2C000895009162000160009362000895009191
:101F3C0062000E7F009362000895009161000064BE
:101F4C0000936100089500916200006400936200A8
:101F5C000895009162000F7B009362000895009138
:101F6C0061000260009361000895009162000260BC
:101F7C00009362000895009162000D7F009362004F
:101F8C000895009161000460009361000895009130
:101F9C0062000B7F009362000895BC9A0895C49868
:101FAC000895009161000061009361000895009113
:101FBC0062000061009362000895009162000F7E40
:101FCC00009362000895009161000062009361002B
:101FDC0008950091620000620093620008950E94CF
:101FEC00D30F02E001BF09E103BF08950000000018
:101FFC000895000008950E94910F0E949D0F0E9469
:10200C00A30F0E94A90F0E94B50F0E94C10F0E943E
:10201C00C70F0E94CD0F0E94D30F0E94D50F0E94B4
:10202C00D70F0E94E30F0E94E90F0E94EF0F0E944E
:10203C00F50F08950E94AF0F0E94FC0F0E94A90F8C
:10204C0008959A938A93902F0E94E30F80E0863034
:10205C00B0F400E210E0482F0E944140192F1023E9
:10206C00112319F00E94970F02C00E949D0F0E942D
:10207C00BB0F0E94FF0F0E94C10F8395E8CF0E94F7
:10208C00E30F8991999108959A938A93902F0E94C6
:10209C00DD0F80E08830B0F400E810E0482F0E949B
:1020AC004140192F1023112319F00E94970F02C0E1
:1020BC000E949D0F0E94BB0F0E94FF0F0E94C10F38
:1020CC008395E8CF0E94E30F899199910895BA9373
:1020DC00AA93D8018D010E94620F00EB13E0FD0161
:1020EC00018312838D01A991B99108950E940B412E
:1020FC00D801C9018D01EBDF04EB13E0FD01018375
:10210C0012838D010B5F1F4F0E94333FFD018387AC
:10211C00948720E08D010E94F4098D01E4E00C9479
:10212C001C410E940B41C801D901082F092B51F009
:10213C0020E030E08C010E94830FA0FB1EF48C0188
:10214C000E942540E4E00C941C410E940B41D801F4
:10215C00C9010A2F0B2BA9F004EB13E0FD0101833D
:10216C00128322E030E08D010B5F1F4F0E944E3F27
:10217C0020E030E08D01D5DF80FB1EF48D010E9444
:10218C002540E4E00C941C410E940B41D801922F95
:10219C00832F8D010E94F709005029F00A9561F0F8
:1021AC000A9521F148C0FD0100E0058721E08D0171
:1021BC000E94F40900E040C0992321F0FD0105853F
:1021CC0001600587882321F0FD01058502600587E4
:1021DC00FD01238534858D010B5F1F4F0E945C3FF1
:1021EC0022E08D010E94F40900E026C08D010B5FF6
:1021FC001F4F0E94763F002331F020E08D010E949A
:10220C00F40900E019C0992321F0FD010585016056
:10221C000587882321F0FD01058502600587FD01F6
:10222C000585033031F420E08D010E94F40901E0B2
:10223C0003C000E001C000E0E4E00C941C41202F3E
:10224C0030E0E0E0F0E0E83000E0F0074CF4022F82
:10225C0010E04E2F0E944140017030273196F3CF91
:10226C00332311F401E0089500E00895980150E043
:10227C00E0E0F0E0EC3000E0F00744F44E2F890190
:10228C000E943C40017050273196F4CF552311F435
:10229C0001E0089500E00895502F60E070E000E147
:1022AC00509F00E000220FE01022B00108E0509F88
:1022BC0000E7002200E0102260297129052F01702F
:1022CC0014E0019F60297129052F007FB8DF10E809
:1022DC00019F60297129052F0E78B1DF18E0019F4D
:1022EC0060297129052F0D76AADF12E0019F602964
:1022FC007129052F0B75A3DF10E0602B712B8B015F
:10230C000895080160E0800100701F70AFDF102D90
:10231C0017FB10E010F9011711F061E001C060E04B
:10232C00660F660F660F8001007718709FDF102D07
:10233C0013FB10E010F9011711F001E001C000E0EF
:10234C00000F000F602B8001047616708FDF102DAC
:10235C0011FB10E010F9011711F001E001C000E0D1
:10236C00000F602B80010475157080DF102D11702B
:10237C00011711F001E001C000E0602B062F089559
:10238C00B801222311F48B010895209328082A9573
:10239C0001E010E0422F0E943740602771278B012B
:1023AC000895B80120E044E08B010E943C40007F7E
:1023BC00202F062F0695069506950E70202B062FBE
:1023CC0002FB00E000F9202B022F08951801810177
:1023DC0098DF202F8101D4DFE4DF089500FB16F491
:1023EC000F5F1F4F980136952795020F131F089505
:1023FC000E940041380159016A01222433244424EB
:10240C005524EE240C2D0D2941F0C0FA36F40FEFB3
:10241C00C00E0FEFD01EEE24E394882499248C1464
:10242C009D0408F04BC0F501E40DF51D008134DF6F
:10243C0020E030E0C801D90101E0400E00E0501E60
:10244C00F501E40DF51D008127DFA80160E070E0C7
:10245C00ECE08A019B014E2F0E949340802B912B24
:10246C00A22BB32B01E0400E00E0501E8C01F301B7
:10247C00E20DF31D008301E0200E00E0301E892FD9
:10248C009A2FAB2FB0E08C01F301E20DF31D00830A
:10249C0001E0200E00E0301E892F9A2FAB2FB0E008
:1024AC008C01F301E20DF31D008301E0200E00E02E
:1024BC00301E02E0800E00E0901EB1CFEE20D9F16C
:1024CC00F501E40DF51D0081E7DE20E030E0C801E8
:1024DC00D90100E0E1DEA80160E070E0ECE08A01E7
:1024EC009B014E2F0E949340802B912BA22BB32B40
:1024FC008C01F301E20DF31D008301E0200E00E0DE
:10250C00301E892F9A2FAB2FB0E08C01F301E20D16
:10251C00F31D008301E0200E00E0301E892F9A2F5E
:10252C00AB2FB0E08C01F301E20DF31D008301E051
:10253C00200E00E0301E8101EFE00C9411410E944E
:10254C00FF40580149017A0166247724442455241C
:10255C000E2D0F2951F043E050E087010E944440BA
:10256C00452B19F000E010E057C0CC24DD24CE142C
:10257C00DF0408F050C0F401E40DF51D008110E0FB
:10258C0020E030E0C801D90101E0400E00E0501E0F
:10259C00F401E40DF51D008110E020E030E0322F55
:1025AC00212F102F00E0802B912BA22BB32B01E0BD
:1025BC00400E00E0501EF401E40DF51D208130E0CA
:1025CC0000E010E0802B912BA22BB32B01E0400EEE
:1025DC0000E0501E8C010F7F1F70F8DEF501E60D38
:1025EC00F71D008301E0600E00E0701E4CE08C01D2
:1025FC009D010E949A400F7F1F70E8DEF501E60DE9
:10260C00F71D008301E0600E00E0701E03E0C00EB9
:10261C0000E0D01EACCF8301E0E10C9410410E948D
:10262C000B41D801C9018D010E94620F08EB13E028
:10263C00FD01018312838D01075F1F4F0E94333F01
:10264C00FD0185839683FD0100E00087FD0100E01C
:10265C00078320E08D010E94F4098D01E4E00C94C5
:10266C001C410E940B41D801C9010A2F0B2BB1F060
:10267C0008EB13E0FD010183128322E030E08D01B1
:10268C00075F1F4F0E944E3F20E030E08D010E94FB
:10269C00830F80FB1EF48D010E942540E4E00C9416
:1026AC001C41BA93AA93D8011596ED91FC911697FB
:1026BC000995002311F001E001C000E0A991B99146
:1026CC0008950E940B41D801822F8D01FD012181BB
:1026DC003281F9013296259134913397F90109959C
:1026EC00FD010781081741F4FD0100E00783FD019E
:1026FC0000E0008701E001C000E0E4E00C941C4124
:10270C00BA93AA93D8018D010E94F709005089F061
:10271C000A95C1F00A9541F10A9509F44EC00A9543
:10272C0009F474C00A9509F49AC0025009F4BCC0AB
:10273C00C3C0FD010085FD01078321E08D010E94CE
:10274C00F409BAC08D01ADDF002369F08D010E9440
:10275C00651498018D01075F1F4F0E945C3F22E0BA
:10276C008D010E94F409A8C08D019BDF0023E1F0CC
:10277C008D01075F1F4F0E94763F0023E9F08D010A
:10278C000E94691498018D01075F1F4F0E945C3FE6
:10279C00FD0102E00087FD010085FD01078323E0B8
:1027AC008D010E94F40988C0FD010085FD0107839D
:1027BC0020E08D010E94F4097FC08D0172DF00239F
:1027CC00E1F08D01075F1F4F0E94763F0023E9F077
:1027DC008D010E946D1498018D01075F1F4F0E949F
:1027EC005C3FFD0103E00087FD010085FD010783CF
:1027FC0024E08D010E94F4095FC0FD010085FD01FC
:10280C00078320E08D010E94F40956C08D0149DF39
:10281C000023E1F08D01075F1F4F0E94763F0023DC
:10282C00E9F08D010E94711498018D01075F1F4F13
:10283C000E945C3FFD0104E00087FD010085FD0165
:10284C00078327E08D010E94F40936C0FD01008545
:10285C00FD01078320E08D010E94F4092DC08D013C
:10286C0020DF0023E1F08D01075F1F4F0E94763FB0
:10287C00002311F18D010E94751498018D01075FE1
:10288C001F4F0E945C3FFD0105E00087FD010085A4
:10289C00FD01078327E08D010E94F4090DC020E0A3
:1028AC008D010E94F40908C08D01FBDE002321F488
:1028BC0020E08D010E94F409A991B9910895980125
:1028CC0004E610E0089598010CED15E008959801C8
:1028DC0008EB1BE00895980108E813E108959801AE
:1028EC0002E310E00895F80100810895F8010481D5
:1028FC0008950091620004600093620008950091B5
:10290C0062000F7D009362000895000008959A9371
:10291C008A93C8010E9401108991999108950E948F
:10292C000C41C8010E942010A0E0A03338F402E052
:10293C0014E020E00E94142DA395F7CFA0E0A03363
:10294C0008F058C0EA2FF0E0EE52FC4F049110E072
:10295C0048E050E00E942D4098018C01020F131F9B
:10296C000E9479140023F9F1EA2FF0E0EE52FC4FAB
:10297C00049110E048E050E00E942D4098018C0139
:10298C00020F131F0E947C14015049F00A9569F044
:10299C000A9589F00A95A9F00350C9F01EC00BE006
:1029AC0014E020E00E94312D23C00EE014E020E062
:1029BC000E94312D1DC001E114E020E00E94312D58
:1029CC0017C008E014E020E00E94312D11C004E192
:1029DC0014E020E00E94312D0BC005E014E020E053
:1029EC000E94312D05C005E014E020E00E94312D3D
:1029FC00A395A5CF0E947F140E948B140E94CD0F2B
:102A0C000E948514E3E00C941D41BA93AA93D8015B
:102A1C008D010E94620F07E114E0FD010183128316
:102A2C008D010B5F1F4F0E94333F8D01A991B9910E
:102A3C000895BA93AA93D8018D01E7DF01E314E05E
:102A4C00FD010183128320E08D010E94051621E017
:102A5C008D010E94F4098D01A991B99108950E94EC
:102A6C000B41D801C9010A2F0B2BB1F007E114E07F
:102A7C00FD010183128322E030E08D010B5F1F4FBB
:102A8C000E944E3F20E030E08D010E94830F80FBBE
:102A9C001EF48D010E942540E4E00C941C410E9420
:102AAC000B41C801D901082F092B49F020E030E077
:102ABC008C01D5DFA0FB1EF48C010E942540E4E0C4
:102ACC000C941C410E940B41C8018C010E94F70917
:102ADC00005051F00A9549F00A9539F10A95F9F12F
:102AEC000A9509F45EC088C087C00E942236002374
:102AFC00B9F00E943236002371F00E942A36D801B8
:102B0C008C010E940B169D010E945C3F23E08C01FE
:102B1C000E94F40971C022E08C010E94F4096CC07F
:102B2C0020E08C010E94F40967C08C010E940816F9
:102B3C000130A1F420E08C010E94051601E00E94F6
:102B4C003B360E942A36D8018C010E940B169D013F
:102B5C000E945C3F23E08C010E94F4094DC08C0163
:102B6C000E940816013071F420E08C010E940516B9
:102B7C000E942A36D8018C010E940B169D010E94DE
:102B8C005C3F3AC08C010E940B160E94763F0023DA
:102B9C0099F105E00E947D0B24E08C010E94F40960
:102BAC002BC08C010E940816015019F00A95B1F047
:102BBC0023C020E08C010E94051602E10E940E1633
:102BCC000E942A36D8018C010E940B169D010E948E
:102BDC005C3F23E08C010E94F4090EC020E08C01C4
:102BEC000E94051600E00E943B3602E10E940E1680
:102BFC0022E08C010E94F409E4E00C941C41F801E1
:102C0C0024830895F801048108950B5F1F4F0895E4
:102C1C000093900B089500E00E940E160E947A3DDE
:102C2C00FDCFBA93AA93D8018D010E94620F0BE4D9
:102C3C0014E0FD01018312838D01A991B9910895CE
:102C4C000E940B41C801D901082F092B51F020E03B
:102C5C0030E08C010E94830FA0FB1EF48C010E94BB
:102C6C002540E4E00C941C41F801258308959A93C7
:102C7C008A93C8018C010E94F709002311F401E02A
:102C8C0001C000E08991999108950E9409412801A1
:102C9C00C901DA01AD019C018201F20161817281ED
:102CAC00FB013696659174913797FB010995D80114
:102CBC00AD019C018201F20161817281FB013C96A4
:102CCC00659174913D97FB010995E6E00C941A41CE
:102CDC000E940641D801722E632E842ECB01AC01CA
:102CEC00362D3068272D8D01FD0161817281FB012C
:102CFC003A96659174913B97FB0109952801FC016B
:102D0C00E40DF51D808201E0400E00E0501E8201B2
:102D1C00E9E00C9417410E94054128010A012A841C
:102D2C003B848C859D8550E06624A0E0B0E0A01526
:102D3C00B105F0F4490194012F5F3F4FFB01E80D01
:102D4C00F91D0081002331F001E010E0462D0E94B6
:102D5C003740502B07E0601641F4F101E80FF91FE2
:102D6C005083019650E0662401C063941196DFCF26
:102D7C00662029F0F101E80FF91F508301968C01B0
:102D8C00EEE00C9416410E94FF40280159014A01C3
:102D9C00CB018201F20121813281F9013E9625910C
:102DAC0034913F97F90109953801F501E60DF71DAE
:102DBC003197F080F501E60DF71DE080F501E60D89
:102DCC00F71DD180CC24F501E60DF71D028110E032
:102DDC00C02AD12AF501E60DF71DB381A0E0F5015B
:102DEC00E60DF71D048110E0A02BB12B0A2F0B2B45
:102DFC0021F0A13D07E0B00740F0B40143E03E2DC7
:102E0C002F2D820165DFC80144C0F201028D138DA4
:102E1C0096012A0F3B1F0217130740F4B40142E03E
:102E2C003E2D2F2D820154DFC80133C0A4013E2D4D
:102E3C002F2D8201F20161817281FB013A9665911D
:102E4C0074913B97FB010995C8010A2F0770002369
:102E5C0059F043E08D010E943C400395F401E80FCA
:102E6C00F91F0083019609C043E08D010E943C408C
:102E7C00F401E80FF91F008301969A938A939A92B2
:102E8C008A92F20162897389AD019601820143DF56
:102E9C00C8018C01E0E10C9410410E94FF40280114
:102EAC0059014A01CB018201F20121813281F901E0
:102EBC003E96259134913F97F90109953801F5011A
:102ECC00E60DF71D3197F080F501E60DF71DE0805A
:102EDC00F501E60DF71DD180CC24F501E60DF71DAB
:102EEC00028110E0C02AD12AF501E60DF71DB3814D
:102EFC00A0E0F501E60DF71D048110E0A02BB12B2D
:102F0C000A2F0B2B21F0A13D07E0B00740F0B401D4
:102F1C0043E03E2D2F2D8201DBDEC80144C0F201BF
:102F2C00048D158D96012A0F3B1F0217130740F4D1
:102F3C00B40142E03E2D2F2D8201CADEC80133C000
:102F4C00A4013E2D2F2D8201F20161817281FB01C2
:102F5C003A96659174913B97FB010995C8010A2F2C
:102F6C000770002359F043E08D010E943C4003950B
:102F7C00F401E80FF91F0083019609C043E08D01AD
:102F8C000E943C40F401E80FF91F008301969A93CC
:102F9C008A939A928A92F20164897589AD0196019D
:102FAC008201B9DEC8018C01E0E10C9410410E9451
:102FBC00FF40280169014A01CB018201F201218104
:102FCC003281F9013E96259134913F97F90109958B
:102FDC005801F601EA0DFB1D3197F080F601EA0D60
:102FEC00FB1DE080F601EA0DFB1DB181A0E0F601AE
:102FFC00EA0DFB1D028110E0A02BB12BF601EA0DAE
:10300C00FB1D73806624F601EA0DFB1D048110E0A4
:10301C00602A712A062D072929F00EE7601600E0B8
:10302C00700640F0B40143E03E2D2F2D820150DE9E
:10303C00C80152C0F201068D178D9D01260D371D5A
:10304C000217130740F4B40142E03E2D2F2D8201EC
:10305C003FDEC80141C0A4013E2D2F2D8201F2019B
:10306C0061817281FB013A96659174913B97FB01EA
:10307C000995C801062D000FF401E80FF91F008314
:10308C00019600E010E00615170530F5F2014689AF
:10309C0057899D01220F331F420F531FFA012081C4
:1030AC003181232F30E0F401E80FF91F20830196C2
:1030BC00F201468957899D01220F331F420F531F7E
:1030CC00FA0120813181F401E80FF91F2083019668
:1030DC0011960F5F1F4FD7CF8C01E0E10C9410417C
:1030EC000E94FF40280169014A01CB018201F201D3
:1030FC0021813281F9013E96259134913F97F90156
:10310C0009955801F601EA0DFB1D3197F080F60187
:10311C00EA0DFB1DE080F601EA0DFB1DB181A0E07C
:10312C00F601EA0DFB1D028110E0A02BB12BF6017C
:10313C00EA0DFB1D73806624F601EA0DFB1D04816C
:10314C0010E0602A712A062D072929F00EE7601677
:10315C0000E0700640F0B40143E03E2D2F2D8201BB
:10316C00B7DDC80152C0F20100A111A19D01260DCD
:10317C00371D0217130740F4B40142E03E2D2F2DEA
:10318C008201A6DDC80141C0A4013E2D2F2D820174
:10319C00F20161817281FB013A96659174913B97C2
:1031AC00FB010995C801062D000FF401E80FF91F6A
:1031BC000083019600E010E00615170530F5F201CA
:1031CC00408D518D9D01220F331F420F531FFA0169
:1031DC0020813181232F30E0F401E80FF91F208387
:1031EC000196F201408D518D9D01220F331F420F2C
:1031FC00531FFA0120813181F401E80FF91F20835C
:10320C00019611960F5F1F4FD7CF8C01E0E10C9404
:10321C0010410E94FF40580129016A01CB01850130
:10322C00F50121813281F9013E96259134913F9728
:10323C00F90109953801F201E60DF71D3197F0807F
:10324C00F201E60DF71DE080F201E60DF71D91800D
:10325C008824F201E60DF71D028110E0802A912AE4
:10326C00F501028D138D8016910640F0B60142E0F7
:10327C003E2D2F2D85012CDDC8012EC0F201E60D4F
:10328C00F71DB381A0E0F201E60DF71D048110E0FB
:10329C00A02BB12BA0300FEFB00751F4940101E03B
:1032AC000E941436AC01920186010E94274114C081
:1032BC000A2F0B2B51F4940100E00E941436AC0140
:1032CC00920186010E94274107C0B60143E03E2DC2
:1032DC002F2D8501FDDCC8018C01E0E10C9410411F
:1032EC000E9401412801C9015A014B018201F201DE
:1032FC0021813281F9013E96259134913F97F90154
:10330C000995D801FC01EA0FFB1F3197D080FC0115
:10331C00EA0FFB1FC080FC01EA0FFB1F71806624C3
:10332C00FC01EA0FFB1F028110E0602A712AF201F6
:10333C00068D178D6016710640F0B50142E03C2DEC
:10334C002D2D8201C5DC48011CC0FC01EA0FFB1FBE
:10335C00538140E0FC01EA0FFB1F048110E0402B7D
:10336C00512BF201268937898301000F111F200F81
:10337C00311FF90140835183A4019C0185010E94F6
:10338C0027418401EEE00C9412410E94FF40280179
:10339C0039016A01CB018201F20121813281F901EB
:1033AC003E96259134913F97F90109954801F30117
:1033BC00E80DF91D3197F080F301E80DF91DE0805F
:1033CC00F301E80DF91DB180AA24F301E80DF91DF4
:1033DC00028110E0A02AB12AF301E80DF91DB38196
:1033EC00A0E0F301E80DF91D048110E0A02BB12B36
:1033FC000A2F0B2B21F0A13B07E0B00740F0B601E0
:10340C0043E03E2D2F2D820163DCC80134C0F20154
:10341C00028D138D95012A0F3B1F0217130740F4E1
:10342C00B60142E03E2D2F2D820152DCC80123C093
:10343C00A5019D018301080D191D0A5F1F4F0E94F4
:10344C00DB35A6013E2D2F2D8201F20161817281A7
:10345C00FB013A96659174913B97FB010995C80164
:10346C0044E050E09301280F391F8601080F191F03
:10347C000E94274104968C01E0E10C9410410E94BB
:10348C00FF40480129016A013B018401F4012181BB
:10349C003281F9013E96259134913F97F9010995B6
:1034AC00C801F201E80FF91F3197F080F201E80F23
:1034BC00F91FE080F201E80FF91FB181A0E0F201E1
:1034CC00E80FF91F028110E0A02BB12BF201E80FDD
:1034DC00F91FB380AA24F201E80FF91F048110E050
:1034EC00A02AB12A0A2D0B2929F00CE7A01600E01E
:1034FC00B00640F0B60143E03E2D2F2D8401E8DBF1
:10350C0038014FC0F401068D178D9D012A0D3B1D0E
:10351C000217130740F4B60142E03E2D2F2D840113
:10352C00D7DB38013EC020E030E02A153B05E0F443
:10353C00F201E80FF91F568140E0F201E80FF91F84
:10354C00078110E0402B512BF401668977898D019E
:10355C00000F111F600F711FFB01408351831196E7
:10356C0002962F5F3F4FE1CFA6013E2D2F2D8401F8
:10357C00F40161817281FB013A96659174913B97DC
:10358C00FB010995380144E050E09201260D371DEE
:10359C008601060D171D0E94274104E0600E00E015
:1035AC00701E8301E0E10C94104108010FEF1FEF36
:1035BC000895080100E010E008950E9403412801DD
:1035CC004901DA01CB018201F20121813281F90139
:1035DC003E96259134913F97F90109953801F401F4
:1035EC00E60DF71D3197B080F401E60DF71DA080B4
:1035FC00AD013A2D2B2D8201F20161817281FB010B
:10360C003A96659174913B97FB010995C801FD01B0
:10361C00E80FF91F03E000830196FD01E80FF91F85
:10362C0000E200830196FD01E80FF91F07E000831B
:10363C000196FD01E80FF91F02E3008301968C014E
:10364C00ECE00C9414410E94FF4038014901DA016E
:10365C00CB018301F30121813281F9013E96259141
:10366C0034913F97F90109952801F401E40DF51DFA
:10367C003197B080F401E40DF51DA080F401E40D48
:10368C00F51DE280FF248C0106501040E016F10677
:10369C0041F0BD0142E03A2D2B2D830119DBC8010D
:1036AC002CC1AD013A2D2B2D8301F3016181728167
:1036BC00FB013A96659174913B97FB010995C80102
:1036CC00F401E40DF51D0381005049F00A9579F1E0
:1036DC000A9509F49DC00A9509F4E0C007C1FD01E3
:1036EC00E80FF91F00E000830196FD01E80FF91FB8
:1036FC0004E000830196F401E40DF51D0381FD0146
:10370C00E80FF91F00830196FD01E80FF91F02E095
:10371C0000830196FD01E80FF91F00E0008301967C
:10372C00FD01E80FF91F02E000830196E6C0F401E9
:10373C00E40DF51D0481C02E0E947B0B0C1540F48A
:10374C00BD0142E03A2D2B2D8301C2DAC801D5C050
:10375C00CC20B9F52C2D8D01040D151D0B5F1F4FC1
:10376C000E94F80B2091BF0CFD01E40DF51D258383
:10377C002091BE0CFD01E40DF51D2683FD01E40D29
:10378C00F51D20E32783FD01E80FF91F20E02083BE
:10379C000196202F2E5FFD01E80FF91F2083019663
:1037AC00F401E40DF51D2381FD01E80FF91F2083C1
:1037BC000196FD01E80FF91FC0820196800F911F41
:1037CC009CC02C2D8D01040D151D0B5F1F4F0E94ED
:1037DC00F80B9801FD01E80FF91F00E0008301963A
:1037EC00022F0E5FFD01E80FF91F00830196F40113
:1037FC00E40DF51D0381FD01E80FF91F008301960F
:10380C00FD01E80FF91FC0820196820F931F75C04E
:10381C00F401E40DF51D0481C02E0E947B0B0C15E8
:10382C0040F4BD0142E03A2D2B2D830151DAC80141
:10383C0064C00C2D0E94040C9801F401E40DF51DDC
:10384C00028110E0025010400217130741F0BD0135
:10385C0043E03A2D2B2D83013BDAC8014EC02C2DB1
:10386C008401040D151D0B5F1F4F0E94140C012BBE
:10387C0069F00E94D20B03E10E940E16BD0145E0D7
:10388C003A2D2B2D830124DAC80137C0BD0147E046
:10389C003A2D2B2D83011CDAC8012FC00E94780B06
:1038AC00033081F4AD013A2D2B2D8301F30161819D
:1038BC007281FB013A96659174913B97FB010995D6
:1038CC00C8011BC00E94780B013041F4BD0146E0D9
:1038DC003A2D2B2D8301FCD9C8010FC0BD0141E04D
:1038EC003A2D2B2D8301F4D9C80107C0BD0141E04D
:1038FC003A2D2B2D8301ECD9C8018C01E0E10C94FD
:10390C0010410E940341D80149012A01CB018D01CC
:10391C00FD0121813281F9013E96259134913F9729
:10392C00F90109953801F401E60DF71D3197B080C6
:10393C00F401E60DF71DA0800E94780B033081F492
:10394C00A2013A2D2B2D8D01FD0161817281FB01AC
:10395C003A96659174913B97FB010995C80113C088
:10396C000E94780B013041F4B20146E03A2D2B2D28
:10397C008D01AED9C80107C0B20141E03A2D2B2D03
:10398C008D01A6D9C8018C01ECE00C9414410E9465
:10399C000041D80129013A015B018D01FD01218112
:1039AC003281F9013E96259134913F97F9010995A1
:1039BC004801F201E80DF91D3197C080F201E80DC4
:1039CC00F91DE080C501DC2CDD0CDD08FD01058155
:1039DC0010E0C016D10629F0CC2019F000E010E060
:1039EC0070C00E2D102F110F110BECEEF0E0FBBF81
:1039FC00F8E00C94C240BC01A30192018D01C3D923
:103A0C00C8015BC0BC01A30192018D0146DAC8015B
:103A1C0054C0BC01A30192018D01C9DAC8014DC08B
:103A2C00BC01A30192018D015BDBC80146C0BC0146
:103A3C00A30192018D01EDDBC8013FC0BC01A301C4
:103A4C0092018D014DDCC80138C0BC01A30192016B
:103A5C008D01ABDDC80131C0BC01A30192018D0108
:103A6C0094DCC8012AC0BC01A30192018D0149DF7D
:103A7C00C80123C0BC01A30192018D0100DDC80166
:103A8C001CC0BC01A30192018D0197DDC80115C0BA
:103A9C00BC01A30192018D018CDDC8010EC0BC01DB
:103AAC00A30192018D01CFDDC80107C0B30141E034
:103ABC003E2D2C2D8D010CD9C801FD0184879587D5
:103ACC008C01EFE00C941141B80101E010E0089575
:103ADC000E940341D80129013A018D01FD01218188
:103AEC003281F9013E96259134913F97F901099560
:103AFC00C801F201E80FF91F31979080F201E80F2D
:103B0C00F91F80805301FD010681091591F4FD0117
:103B1C000781081571F402E0801641F4A5019201A9
:103B2C00280F391F2E5F3F4F8D01CEDF01E010E0D3
:103B3C002DC08D01FD0121813281F90170962591F5
:103B4C0034917197F901099598018C01020F131F9B
:103B5C000E5F1F4FA016B10631F487FA16F401E080
:103B6C0003C000E001C000E0002371F0F201E80F97
:103B7C00F91F21812C302CF4022F102F110F110B57
:103B8C0005C00EE010E002C001E010E0ECE00C9487
:103B9C001441980101E010E00895980102E010E052
:103BAC0008950E940941C801D9010A2F0B2B11F469
:103BBC0001E001C000E0002379F005E9402E04E0AB
:103BCC00502EDC011F96FC01A587B6878C01015F86
:103BDC001F4F0E94171606C0FC0143845484FC013D
:103BEC00A587B68703E714E0FC0103871487F2016D
:103BFC00059114913197FD01018312838C01E6E04C
:103C0C000C941A410E940B41C801D901082F092BB1
:103C1C0079F00A2F0B2B39F020E030E08C01015F9A
:103C2C001F4F0E942616A0FB1EF48C010E942540FB
:103C3C00E4E00C941C410F501040E4CF0E94FF4074
:103C4C00229728833983D8012A013B018D889E88CD
:103C5C008F89988DED8CFE8CCF8CD8A0A9A0BAA0A2
:103C6C00088119810D931C931197FD014282538297
:103C7C00648275820A89FD0100870B89FD01068328
:103C8C000C89FD010783FD0105851685F8018686E3
:103C9C009786FD0105851685F801808B918B298D02
:103CAC003A8DFD0105851685F801228B338B2B8D02
:103CBC003C8DFD0105851685F801248B358BFD01A6
:103CCC0005851685F801E68AF78AFD0105851685B6
:103CDC00F801C08ED18EFD0105851685F801A28EE6
:103CEC00B38E2BA13CA1FD0105851685F801248F0F
:103CFC00358F2DA13EA1FD0105851685F801268F76
:103D0C00378F2FA138A5FD0105851685F80120A355
:103D1C0031A3FD01428153816481758100E412E479
:103D2C002FE030E00E949D4040E250E060E070E007
:103D3C000E946F400801190148EE53E060E070E00A
:103D4C00800191010E949D400F5F1F4FFD01018773
:103D5C001287FD0105851685F801428D538D20E0F3
:103D6C0030E0FD0105851685F801028913890E9452
:103D7C003741FD0105851685F801448D558D20E0F0
:103D8C0030E0FD0105851685F801048915890E942E
:103D9C003741FD0105851685F801468D578D440F79
:103DAC00551F20E030E0FD0105851685F8010689D8
:103DBC0017890E943741FD0105851685F80140A140
:103DCC0051A1440F551F20E030E0FD0105851685FB
:103DDC00F801008D118D0E9437419A938A939A9223
:103DEC008A92FD0107810A93FD013681FD01208530
:103DFC00FD0142815381648175810D911C91119754
:103E0C000E94B82D2296E7E20C941041BA93AA9323
:103E1C00D8010D911C9111970E94ED2DA991B9918A
:103E2C000895BA93AA93D8010D911C9111970E94F1
:103E3C00FC2DA991B9910895BA93AA93D8010D912B
:103E4C001C9111970E940D2EA991B9910895BA93C6
:103E5C00AA93D8010D911C9111970E943B2EA99108
:103E6C00B9910895BA93AA93D8010D911C91119709
:103E7C000E94562EA991B99108950E9409412801DA
:103E8C00D901CA019C018D010E94060B9801022FD9
:103E9C00FD01E80FF91F008301968901012F10E045
:103EAC00FD01E80FF91F008301968C01E6E00C94EC
:103EBC001A410F501040E1CF1D010801E881F98132
:103ECC00208331838A01012F10E00283042F0383A6
:103EDC008B01012F10E00483062F058306E010E010
:103EEC00D101229608950F501040E6CFB801FA0187
:103EFC002083FA01318302E010E008950F50104046
:103F0C00F5CF0E940941D8012901CA01AC019201E7
:103F1C000D911C9111970E946A2EE6E00C941A41A7
:103F2C000F501040EECFBA93AA93D8010D911C916B
:103F3C0011970E949D22A991B9910895BA93AA93C1
:103F4C00D8010D911C9111970E949A22A991B991B7
:103F5C0008950E940941D8012901CA01AC019201BE
:103F6C000D911C9111970E94722EE6E00C941A414F
:103F7C000E940B41D801C9010E94A022FD01258598
:103F8C003685F90122853385021B130B0817190797
:103F9C0010F001E001C000E0E4E00C941C41BA9385
:103FAC00AA93D8010E94A022FD0125853685F9012E
:103FBC0002871387A991B99108950E940541480180
:103FCC00D901CA01843000E0900710F400E021C050
:103FDC00FD01E80FF91F319750804424FD01E80FD3
:103FEC00F91F3297008110E0402A512A9C0122507F
:103FFC0030408D010E94060B38019C01225030404C
:10400C008D010E94060B0415150511F401E001C089
:10401C0000E0EAE00C9416410E940B41D801FD012E
:10402C00058516850E94F709E0E2F0E0FBBFF9E098
:10403C000C94C2408D01EADE8D01F3DE23E0FD011C
:10404C00058516850E94F40959C28D01A8DFFD0172
:10405C0005851685F80100E0048700E0058724E05B
:10406C00FD01058516850E94F40948C28D0166DFA5
:10407C000023F1F140E051E0FD0105851685F801C2
:10408C0004851585401B510BFD0105851685F8012E
:10409C0026853785FD0105851685F801048515856E
:1040AC00200F311F8D0155DFC801813000E09007D2
:1040BC009CF0FD0105851685F80104851585080F12
:1040CC00191F048715878D016ADF25E0FD01058521
:1040DC0016850E94F4090CC08F3F0FEF900741F436
:1040EC008D0194DE23E0FD01058516850E94F409FF
:1040FC0028E93AE38D013CDF002341F08D0186DE97
:10410C0023E0FD01058516850E94F409F7C18D0198
:10411C0015DF0023C1F140E051E0FD010585168556
:10412C00F80104851585401B510BFD01058516858D
:10413C00F80126853785FD0105851685F80104856E
:10414C001585200F311F8D0104DFC801813000E07F
:10415C0090076CF0FD0105851685F8010485158521
:10416C00080F191F048715878D0119DF0CC08F3FAD
:10417C000FEF900741F48D0149DE23E0FD01058529
:10418C0016850E94F409FD01218532858D01F0DE32
:10419C000023F9F0FD0105851685F8014485558548
:1041AC00FD0105851685F801268537858D0105DF0E
:1041BC00002339F026E0FD01058516850E94F409DF
:1041CC009DC18D0123DE23E0FD01058516850E942E
:1041DC00F40994C1FD0105851685F8016485758582
:1041EC00FD0105851685F80140895189FD0105857C
:1041FC001685F80126853785FD01058516850E94F3
:10420C00CD1C012B49F00E94A52227E0FD0105855C
:10421C0016850E94F40972C10E94A7228D01F6DD59
:10422C0023E0FD01058516850E94F40967C18D0107
:10423C00B6DE8D01EBDD28E0FD01058516850E94BB
:10424C00F4095CC125E030E08D0192DE0023C9F059
:10425C00FD0105851685F80144855585FD0105850B
:10426C001685F80120893189FD01058516850E9486
:10427C004B168D01ECDD29E0FD01058516850E94AC
:10428C00F4093CC18D014FDE002341F00E94A722AE
:10429C0023E0FD01058516850E94F4092FC18D01CF
:1042AC00CBDD20E0FD01058516850E94F40926C1B1
:1042BC008D0175DE8D01AADDFD0105851685F801E0
:1042CC0000E0048700E005878D01ABDD2DE0FD01EA
:1042DC00058516850E94F40911C18D012FDE00237E
:1042EC00E1F140E051E0FD0105851685F8010485FA
:1042FC001585401B510BFD0105851685F80126859A
:10430C003785FD0105851685F80104851585200F77
:10431C00311F8D011EDEC801813000E090079CF03A
:10432C008D013DDEFD0105851685F8010485158599
:10433C00080F191F048715872EE0FD0105851685CA
:10434C000E94F4090AC08F3F0FEF900731F423E16C
:10435C00FD01058516850E94F40928EE33E08D01D8
:10436C0007DE002331F023E1FD01058516850E944F
:10437C00F409C4C08D01E2DD0023B1F140E051E04D
:10438C00FD0105851685F80104851585401B510B2B
:10439C00FD0105851685F80126853785FD01058506
:1043AC001685F80104851585200F311F8D01D1DD8F
:1043BC00C801813000E090076CF08D01F0DDFD014B
:1043CC0005851685F80104851585080F191F0487C6
:1043DC0015870AC08F3F0FEF900731F423E1FD01E1
:1043EC00058516850E94F409FD01218532858D0114
:1043FC00BFDD0023E9F0FD0105851685F801448534
:10440C005585FD0105851685F801268537858D01B5
:10441C00D4DD002339F02FE0FD01058516850E94BF
:10442C00F4096CC023E1FD01058516850E94F40991
:10443C0065C0FD0105851685F80144855585FD018E
:10444C0005851685F80126853785FD0105851685B8
:10445C000E946E1D012B39F023E1FD0105851685A7
:10446C000E94F4094BC023E1FD01058516850E94CD
:10447C00F40944C08D0193DD8D01C8DC0E94A52296
:10448C0021E1FD01058516850E94F40937C025E060
:10449C0030E08D016DDD002389F1FD010585168568
:1044AC00F80144855585FD0105851685F80120899F
:1044BC003189FD01058516850E944B168D01C7DCDF
:1044CC0022E1FD01058516850E94F40917C08D01B6
:1044DC002ADD002399F08D01C5DC0E94A7222CE077
:1044EC00FD01058516850E94F40908C08D01A4DC28
:1044FC0020E0FD01058516850E94F409E4E00C948A
:10450C001C410F50104088CD980101E010E0089537
:10451C000F5010400C948A22980102E010E008958C
:10452C000F5010400C949222F80102A50895F80146
:10453C0003A50895E3E7F8E0008111810895DB9865
:10454C000895DB9A08950E940B41D801822F8D01AA
:10455C00055F1F4F0E94620F0DEA14E0FD010187F9
:10456C00128703EB14E0FD01048715878C9320E080
:10457C008D01055F1F4F0E94F4098D01E4E00C943E
:10458C001C410E940B41C801D901082F092B61F075
:10459C0020E030E08C01055F1F4F0E94830FA0FBD1
:1045AC001EF48C010E942540E4E00C941C410B503D
:1045BC001040E7CF1D01D801F9010081FD01008BEE
:1045CC00F90101811281FD01018B128BF90103812B
:1045DC001481FD01038B148BF90105811681FD01FA
:1045EC0005831683F90107811085FD01058B168B58
:1045FC00F90103891489FD01038F148FF9010585D5
:10460C001685FD01078B108FF90140895189F9013D
:10461C00028910E0000F111F400F511FFD01418F47
:10462C00528FF9010289085F028BF9016389748941
:10463C00F901058910E048E150E00E942D40600F1F
:10464C00711FFD01638F748FF9010589085F058B5C
:10465C00F901068917890F5F1F4FFD01078310872A
:10466C00FD0100E0058FD10108950E940941D80198
:10467C00FD01038914890E5F1F4FC80100E008304B
:10468C0078F4FD01238D348D10E0200F311FF901DA
:10469C00208110E0FC01E00FF11F20830395EFCF88
:1046AC0028E030E08C010E94260B2801FD010389D3
:1046BC001489065F1F4FC801042DFC01008301966D
:1046CC008201012F10E0FC010083FD010389148994
:1046DC00F80101E80083FD0100890E94DB330AE642
:1046EC0013E001501040E9F700C000004DE050E02D
:1046FC00FD0123893489FD01018912890E94B6309C
:10470C000E940034FD0101891289F80101810138F0
:10471C0049F4FD0101891289F80104850E3711F461
:10472C0001E001C000E0E6E00C941A410E94054152
:10473C00D801992420E0283020F5FD01038D148D3B
:10474C0030E0020F131FF80100850F3FC1F0FD018F
:10475C0005891689FD01438D548D30E0420F531F9E
:10476C00FA01408550E0040F151FF8010081002369
:10477C0031F001E010E0422F0E943740902A23953F
:10478C00DACF882420E0283020F5FD01038D148D2C
:10479C0030E0020F131FF80100890F3FC1F0FD013B
:1047AC0005891689FD01438D548D30E0420F531F4E
:1047BC00FA01408950E0040F151FF8010081002315
:1047CC0031F001E010E0422F0E943740802A2395FF
:1047DC00DACF5524FD010381002329F0FD0100E00F
:1047EC000383689450F8FD010481002329F0FD0136
:1047FC0000E00483689451F8FD010181002329F045
:10480C00FD0100E00183689452F8FD010281002350
:10481C0029F0FD0100E00283689453F8FD0103893F
:10482C001489F80102E40083FD01038914890E5FE9
:10483C001F4FC801442420E02830A8F4FD01018D4D
:10484C00128D422F50E0440F551F040F151FF80115
:10485C000181002331F001E010E0422F0E9437402B
:10486C00402A2395E9CFFC0140820196442420E0A4
:10487C002830A8F4FD01018D128D422F50E0440F19
:10488C00551F040F151FF8010081002331F001E0C2
:10489C0010E0422F0E943740402A2395E9CFFC01BB
:1048AC0040820196FC0190820196FC018082019667
:1048BC00FC015082019625E030E0FD01038914894A
:1048CC000E5F1F4F0E94260B3801062DFC01008342
:1048DC0001968301012F10E0FC0100830196FC017D
:1048EC000EE700830196FD0100890E94DB330AE686
:1048FC0013E001501040E9F700C000004AE050E01E
:10490C00FD0123893489FD01018912890E94B63089
:10491C000E940034FD0101891289F80101810452C1
:10492C0009F447C00E5109F04EC025E030E0FD01FE
:10493C00018912890E5F1F4F0E94340B0130104009
:10494C00BCF1FD0101891289F80101850E37D9F5F9
:10495C00FD0100E0058F20E08D010E941F25FD0167
:10496C0001891289F8010281402E20E02830F0F4F0
:10497C0001E010E0422F0E943740142D1023112328
:10498C0051F0FD010789108D30E0020F131FF80163
:10499C0001E0008309C0FD010789108D30E0020F92
:1049AC00131FF80100E000832395E0CF01E020C045
:1049BC000AC0FD01058D043130F420E08D01055F46
:1049CC001F4F0E94F409FD01058D043130F4FD01E7
:1049DC00058D0395058F00E00BC0FD010581168147
:1049EC00F80102E0008321E08D010E941F2500E008
:1049FC00EAE00C9416410E940C41C8018C01055F41
:104A0C001F4F0E94F709005019F00A9559F00DC07C
:104A1C008C012BDEA02F21E08C01055F1F4F0E9423
:104A2C00F40903C08C0182DEA02F0A2FE3E00C9462
:104A3C001D41AD01F801A781B0852C93DA010895D1
:104A4C000E940B41D801822F8D01055F1F4F0E94E0
:104A5C00620F0DEC14E0FD010187128703ED14E0E9
:104A6C00FD01048715878C938D01E4E00C941C41A7
:104A7C000E940B41C801D901082F092B61F020E0DD
:104A8C0030E08C01055F1F4F0E94830FA0FB1EF4CA
:104A9C008C010E942540E4E00C941C410B5010400A
:104AAC00E7CFBD01D801F9010081FD01008BF901AF
:104ABC0001811281FD01018B128BF901038114819B
:104ACC00FD01038B148BF90105811681FD01058312
:104ADC001683F90147815085F901018510E0400FDB
:104AEC00511FFD01458B568BF9010185085E01872D
:104AFC00F90142855385F901048510E0400F511FDF
:104B0C00FD01478B508FF9010485085E0487F9017C
:104B1C0006891789FD0107831087FD0100E0018FCD
:104B2C00DB0108950E940B41D8015396ED91FC9145
:104B3C00549702E40083FD0100890E94DB330AE6EE
:104B4C0013E001501040E9F700C0000049E050E0CC
:104B5C00FD0123893489FD01018912890E94B63037
:104B6C000E9400345196ED91FC91529701810452B0
:104B7C00B1F10E51A1F527E030E0FD010189128958
:104B8C000F5F1F4F0E94580B0130104044F1FD0184
:104B9C0000E0018F20E08D010E941F25FD01458959
:104BAC005689FD018789908D20E02630B0F4FD01F7
:104BBC000189128930E0020F131FF801328100E0E5
:104BCC00043048F4132F137036953695FC0110837E
:104BDC0001960395F5CF2395E8CF01E015C0FD01B3
:104BEC00018D043130F4FD01018D0395018F00E03E
:104BFC000BC01596ED91FC91169701E0008321E016
:104C0C008D010E941F2500E0E4E00C941C41F8018A
:104C1C0023830895BA93AA93D8018D010E94620F41
:104C2C0007ED14E0FD01018312838D010A5F1F4F14
:104C3C000E94333F25E28D010E94F40925E28D018B
:104C4C000E940D268D01A991B9910895BA93AA934A
:104C5C00D8018D01DFDF0BEF14E0FD01018312831E
:104C6C0025E28D010E94F40925E28D010E940D269A
:104C7C008D01A991B9910895BA93AA93D8018D0188
:104C8C00C9DF0FE115E0FD010183128325E28D01DF
:104C9C000E94F40925E28D010E940D268D01A99137
:104CAC00B9910895BA93AA93D8018D01B3DF0DE79A
:104CBC0015E0FD010183128328E18D010E94F409A6
:104CCC0028E18D010E940D268D01A991B9910895BD
:104CDC00BA93AA93D8018D019DDF01EA15E0FD017D
:104CEC000183128325E28D010E94F40925E28D01D6
:104CFC000E940D268D01A991B9910895BA93AA939A
:104D0C00D8018D0187DF03E415E0FD0101831283D7
:104D1C0025E28D010E94F40925E28D010E940D26E9
:104D2C008D01A991B99108950E940B41D801C90137
:104D3C000A2F0B2BB1F007ED14E0FD010183128358
:104D4C0022E030E08D010A5F1F4F0E944E3F20E0B1
:104D5C0030E08D010E94830F80FB1EF48D010E94B8
:104D6C002540E4E00C941C41BA93AA93D8018D0120
:104D7C000E94F709EEE4F0E0FBBFF9E00C94C240AE
:104D8C008D011196ED91FC911297709625913491AD
:104D9C007197F901099598018D010A5F1F4F0E94C7
:104DAC005C3F8D011196ED91FC91129734962591F3
:104DBC0034913597F901099529E18D010E94F40987
:104DCC006AC28D010A5F1F4F0E94763F002301F1DA
:104DDC008D011196ED91FC9112977296259134915B
:104DEC007397F901099598018D010A5F1F4F0E9475
:104DFC005C3F8D011196ED91FC9112973C9625919B
:104E0C0034913D97F90109952AE18D010E94F4092D
:104E1C0042C28D010A5F1F4F0E94763F002301F1B1
:104E2C008D011196ED91FC9112977096259134910C
:104E3C007197F901099598018D010A5F1F4F0E9426
:104E4C005C3F8D011196ED91FC9112973496259152
:104E5C0034913597F901099529E18D010E94F409E6
:104E6C001AC28D011196ED91FC91129770962591B5
:104E7C0034917197F901099598018D010A5F1F4FC3
:104E8C000E945C3F8D011196ED91FC911297369624
:104E9C00259134913797F901099522E08D010E94F3
:104EAC00F409F9C18D010A5F1F4F0E94763F002360
:104EBC0021F021E08D010E94F409EDC18D011196C4
:104ECC00ED91FC9112977496259134917597F90197
:104EDC00099598018D010A5F1F4F0E945C3F8D015F
:104EEC001196ED91FC911297389625913491399742
:104EFC00F901099528E08D010E94F409CCC18D01BE
:104F0C000A5F1F4F0E94763F002301F18D0111961D
:104F1C00ED91FC9112977696259134917797F90142
:104F2C00099598018D010A5F1F4F0E945C3F8D010E
:104F3C001196ED91FC9112973C96259134913D97E9
:104F4C00F901099529E08D010E94F409A4C18D0194
:104F5C000A5F1F4F0E94763F002301F18D011196CD
:104F6C00ED91FC9112977496259134917597F901F6
:104F7C00099598018D010A5F1F4F0E945C3F8D01BE
:104F8C001196ED91FC9112973896259134913997A1
:104F9C00F901099528E08D010E94F4097CC18D016D
:104FAC001196ED91FC911297789625913491799701
:104FBC00F901099598018D010A5F1F4F0E945C3F12
:104FCC008D011196ED91FC9112973A9625913491A1
:104FDC003B97F90109952EE08D010E94F4095BC104
:104FEC008D010A5F1F4F0E94763F002301F18D0156
:104FFC001196ED91FC9112977A96259134917B97AD
:10500C00F901099598018D010A5F1F4F0E945C3FC1
:10501C008D011196ED91FC9112973C96259134914E
:10502C003D97F90109952FE08D010E94F40933C1D8
:10503C008D010A5F1F4F0E94763F002301F18D0105
:10504C001196ED91FC911297789625913491799760
:10505C00F901099598018D010A5F1F4F0E945C3F71
:10506C008D011196ED91FC9112973A962591349100
:10507C003B97F90109952EE08D010E94F4090BC1B3
:10508C008D011196ED91FC9112977C96259134919E
:10509C007D97F901099598018D010A5F1F4F0E94B8
:1050AC005C3F8D011196ED91FC9112973A962591EA
:1050BC0034913B97F901099524E18D010E94F40983
:1050CC00EAC08D010A5F1F4F0E94763F002301F159
:1050DC008D011196ED91FC9112977E96259134914C
:1050EC007F97F901099598018D010A5F1F4F0E9466
:1050FC005C3F8D011196ED91FC9112973C96259198
:10510C0034913D97F901099525E18D010E94F4092F
:10511C00C2C08D010A5F1F4F0E94763F002301F130
:10512C008D011196ED91FC9112977C9625913491FD
:10513C007D97F901099598018D010A5F1F4F0E9417
:10514C005C3F8D011196ED91FC9112973A96259149
:10515C0034913B97F901099526E18D010E94F409E0
:10516C009AC08D010A5F1F4F0E94763F002301F108
:10517C008D011196ED91FC911297B0962591349179
:10518C00B197F901099598018D010A5F1F4F0E9493
:10519C005C3F8D011196ED91FC9112973C962591F7
:1051AC0034913D97F901099527E18D010E94F4098D
:1051BC0072C08D010A5F1F4F0E94763F002301F1E0
:1051CC008D011196ED91FC9112977C96259134915D
:1051DC007D97F901099598018D010A5F1F4F0E9477
:1051EC005C3F8D011196ED91FC9112973A962591A9
:1051FC0034913B97F901099524E18D010E94F40942
:10520C004AC08D011196ED91FC911297B2962591A1
:10521C003491B397F901099598018D010A5F1F4FDD
:10522C000E945C3F8D011196ED91FC91129738967E
:10523C00259134913997F90109952FE18D010E943F
:10524C00F40929C08D010A5F1F4F0E94763F00238D
:10525C0011F18D011196ED91FC9112973C962591CF
:10526C0034913D97F90109958D010E949D2C202FB9
:10527C008D010E94F4090FC08D011196ED91FC91E6
:10528C0012973C96259134913D97F901099520E0B0
:10529C008D010E94F409A991B99108950E940B41C6
:1052AC00C801D901082F092B69F025E28C010E9455
:1052BC00F40920E030E08C0137DDA0FB1EF48C01FA
:1052CC000E942540E4E00C941C410E940C41C80152
:1052DC00A22F8C010E94F709202F8C010E940D2611
:1052EC000A2F005079F00A9591F00250A9F00A9516
:1052FC00C1F00A95D1F00A95C1F00A95B1F00A9562
:10530C00A1F013C025E28C010E94F4090EC021E02B
:10531C008C010E94F40909C027E08C010E94F40959
:10532C0004C027E08C010E94F409E3E00C941D41B9
:10533C0008959A938A93C80101E00E94043C8991D4
:10534C00999108959A938A93C80103E00E94043CB2
:10535C0089919991089508959A938A93C80103E0CD
:10536C000E942E3C0E9485338991999108950E9448
:10537C000B41C801D901082F092B69F025E28C01DA
:10538C000E94F40920E030E08C01CEDCA0FB1EF47E
:10539C008C010E942540E4E00C941C410E940C41BD
:1053AC00C801A22F8C010E94F709202F8C010E94AA
:1053BC000D260A2F005079F00A9591F00250A9F0B1
:1053CC000A95C1F00A95D1F00A95C1F00A95B1F091
:1053DC000A95A1F013C025E28C010E94F4090EC0BD
:1053EC0021E08C010E94F40909C025E28C010E9485
:1053FC00F40904C02DE08C010E94F409E3E00C9444
:10540C001D4108959A938A93C80101E00E94043CBF
:10541C0089919991089508959A938A93C80104E00B
:10542C000E94043C8991999108959A938A93C8019A
:10543C0004E00E942E3C0E94853389919991089535
:10544C000E940B41C801D901082F092B69F025E2F4
:10545C008C010E94F40920E030E08C0165DCA0FB9B
:10546C001EF48C010E942540E4E00C941C410E9427
:10547C000C41C801A22F8C010E94F709202F8C012E
:10548C000E940D260A2F005079F00A9591F00250D7
:10549C00A9F00A95C1F00A95F9F00A95E9F00A9578
:1054AC00B9F00A95C9F018C028E18C010E94F409E2
:1054BC0013C028E18C010E94F4090EC027E08C0176
:1054CC000E94F40909C02DE08C010E94F40904C06B
:1054DC0023E18C010E94F409E3E00C941D419A93A2
:1054EC008A93C8010E94102D89919991089508956D
:1054FC009A938A93C8010E94102D899199910895CD
:10550C009A938A93C8010E94102D899199910895BC
:10551C009A938A93C8010E94122D0E948533899117
:10552C00999108950E940B41C801D901082F092BAC
:10553C0069F025E28C010E94F40920E030E08C0136
:10554C00F3DBA0FB1EF48C010E942540E4E00C94DC
:10555C001C410E940C41C801A22F8C010E94F7092A
:10556C00202F8C010E940D260A2F005079F00A95ED
:10557C0091F00250A9F00A95C1F00A9521F10A9513
:10558C0011F10A95B9F00A95D1F01DC025E28C01F4
:10559C000E94F40918C025E28C010E94F40913C082
:1055AC0027E08C010E94F4090EC02DE08C010E94B2
:1055BC00F40909C023E18C010E94F40904C02EE116
:1055CC008C010E94F409E3E00C941D419A938A9398
:1055DC00C8010E94F30A8991999108959A938A932C
:1055EC00C8010E94F30A8991999108959A938A931C
:1055FC00C8010E94E10A8991999108959A938A931E
:10560C00C8010E94EA0A8991999108959A938A9304
:10561C00C8010E94F30A0E948533899199910895DB
:10562C000E940B41C801D901082F092B69F025E212
:10563C008C010E94F40920E030E08C0175DBA0FBAA
:10564C001EF48C010E942540E4E00C941C4108954A
:10565C009A938A93C80101E00E94763C0E94E10A69
:10566C008991999108959A938A93C80101E00E94B7
:10567C00763C0E94E10A8991999108959A938A93B4
:10568C00C80103E00E94763C0E94E10A899199913D
:10569C0008959A938A93C80104E00E94763C0E9474
:1056AC00E10A8991999108959A938A93C8010E946D
:1056BC00F30A0E948A330E94853389919991089547
:1056CC00BA93AA93D8018D010E94F7090050E9F012
:1056DC000A95E1F00A95D9F10A9509F460C00450D5
:1056EC0009F469C00A9509F487C00A9509F4ACC09D
:1056FC00045009F4B5C00A9509F4D3C00A9509F40D
:10570C00F8C0065109F401C10FC10EC18D011196EB
:10571C00ED91FC9112977096259134917197F90146
:10572C00099598018D010A5F1F4F0E945C3F8D0106
:10573C001196ED91FC9112973696259134913797ED
:10574C00F901099522E08D010E94F409EDC08D014B
:10575C000A5F1F4F0E94763F002301F18D011196C5
:10576C00ED91FC9112977296259134917397F901F2
:10577C00099598018D010A5F1F4F0E945C3F8D01B6
:10578C001196ED91FC9112973C96259134913D9791
:10579C00F901099523E08D010E94F409C5C08D0122
:1057AC000A5F1F4F0E94763F002321F027E08D01F6
:1057BC000E94F409B9C08D011196ED91FC911297DC
:1057CC007496259134917597F901099598018D017D
:1057DC000A5F1F4F0E945C3F8D011196ED91FC9169
:1057EC0012973896259134913997F901099528E04B
:1057FC008D010E94F40998C08D010A5F1F4F0E9411
:10580C00763F002301F18D011196ED91FC911297D9
:10581C007696259134917797F901099598018D0128
:10582C000A5F1F4F0E945C3F8D011196ED91FC9118
:10583C0012973C96259134913D97F901099529E0F1
:10584C008D010E94F40970C08D010A5F1F4F0E94E8
:10585C00763F002321F02DE08D010E94F40964C0F5
:10586C008D011196ED91FC911297789625913491BA
:10587C007997F901099598018D010A5F1F4F0E94D4
:10588C005C3F8D011196ED91FC9112973A96259102
:10589C0034913B97F90109952EE08D010E94F40992
:1058AC0043C08D010A5F1F4F0E94763F0023E1F138
:1058BC008D011196ED91FC9112977A962591349168
:1058CC007B97F901099598018D010A5F1F4F0E9482
:1058DC005C3F8D011196ED91FC9112973C962591B0
:1058EC0034913D97F90109952FE08D010E94F4093F
:1058FC001BC08D010A5F1F4F0E94763F0023A1F051
:10590C0025E28D010E94F4090FC08D011196ED91D5
:10591C00FC9112973C96259134913D97F90109958C
:10592C0020E08D010E94F409A991B9910895F80124
:10593C0003810895980100ED17E00895980100ED9A
:10594C0017E00895980100E213E0089598010CE225
:10595C0011E0089598010CE211E0089598010CE211
:10596C0011E00895980106E910E00895980106E900
:10597C0010E00895980102EC11E00895980102E3FB
:10598C0010E00895980100ED17E00895980100EDDE
:10599C0017E00895980100E213E0089598010CE2D5
:1059AC0011E0089598010CE211E0089598010CE2C1
:1059BC0011E00895980100ED17E00895980100EDAD
:1059CC0017E00895980100E213E0089598010CE2A5
:1059DC0011E0089598010CE211E0089598010CE291
:1059EC0011E00895980108EE13E00895980108EE6F
:1059FC0013E00895980108EE13E00895980108EE5D
:105A0C0013E00895980108EE13E00895980108EE4C
:105A1C0013E00895DC980895DC9A08950E940B41D8
:105A2C00D801922FFD01392F3BBF06910E94271000
:105A3C00FD01392F31963BBF069131970E942710FB
:105A4C00FD01392F32963BBF069132970E942710E9
:105A5C00E4E00C941C410E940B41D801922FFD01F3
:105A6C00392F3BBF06910E944A10FD01392F319608
:105A7C003BBF069131970E944A10FD01392F329697
:105A8C003BBF069132970E944A10E4E00C941C41F3
:105A9C000E940541D80149013A012B018A859B8559
:105AAC002C843D840E841F84688979892B893C89D8
:105ABC0005EC15E0FD0105A716A7FD01808291827A
:105ACC00FD0162827382FD0144825582FD01868351
