:100000000C94F84218951895189518951895189508
:100010001895189518951895189518951895189578
:10002000189518950C949A33189518951895189555
:100030001895189518951895189518951895189558
:100040001895189518951895189518951895189548
:1000500018951895189518950C9458321895189568
:100060001895189518951895189518951895189528
:1000700018951895189518950C94B9310C947531FC
:100080000C94933118951895189518950000000058
:10009000FA050E06430C460C490C94080E06550C46
:1000A000580C5B0CA7080E065E0C610C640CBA08B9
:1000B0000E06670C6A0C6D0CCD080E06700C730CE6
:1000C000760CE0080E06790C7C0C7F0CF3080E060B
:1000D000820C850C880C06090E068B0C8E0C910C7C
:1000E00019090E06940C970C9A0C2C090E069D0CFF
:1000F000A00CA30C3F095209A60CA90CAC0C4E0B8A
:100100005209AF0CB20CB50C610B5209B80CBB0C08
:10011000BE0C740B5209C10CC40CC70C870B9B0B93
:10012000CA0CCD0C00000000000000000000000020
:10013000000000000000020D100D0000C1C081C1D0
:10014000400101C3C003800241C201C6C00680074E
:1001500041C70005C1C581C4400401CCC00C800D5D
:1001600041CD000FC1CF81CE400E000AC1CA81CB64
:10017000400B01C9C009800841C801D8C0188019C6
:1001800041D9001BC1DB81DA401A001EC1DE81DFCC
:10019000401F01DDC01D801C41DC0014C1D481D58D
:1001A000401501D7C017801641D601D2C012801366
:1001B00041D30011C1D181D0401001F0C030803155
:1001C00041F10033C1F381F240320036C1F681F7CC
:1001D000403701F5C035803441F4003CC1FC81FD5D
:1001E000403D01FFC03F803E41FE01FAC03A803BE6
:1001F00041FB0039C1F981F840380028C1E881E9A4
:10020000402901EBC02B802A41EA01EEC02E802F4D
:1002100041EF002DC1ED81EC402C01E4C02480258C
:1002200041E50027C1E781E640260022C1E281E3E3
:10023000402301E1C021802041E001A0C060806135
:1002400041A10063C1A381A240620066C1A681A74B
:10025000406701A5C065806441A4006CC1AC81AD5C
:10026000406D01AFC06F806E41AE01AAC06A806B65
:1002700041AB0069C1A981A840680078C1B881B9C3
:10028000407901BBC07B807A41BA01BEC07E807FCD
:1002900041BF007DC1BD81BC407C01B4C07480758C
:1002A00041B50077C1B781B640760072C1B281B363
:1002B000407301B1C071807041B00050C190819114
:1002C00040510193C053805241920196C0568057CD
:1002D00041970055C19581944054019CC05C805D5C
:1002E000419D005FC19F819E405E005AC19A819BE3
:1002F000405B0199C059805841980188C0488049A5
:100300004189004BC18B818A404A004EC18E818F4A
:10031000404F018DC04D804C418C0044C18481858B
:1003200040450187C047804641860182C0428043E4
:1003300041830041C18181804040000000000000F5
:1003400000000000000000000000000000000000AD
:10035000000000000000000000000000000000009D
:10036000000000000000BA11C811C911C811000036
:10037000000000000000000000000000000000007D
:10038000000000000000000000000000000000006D
:10039000000000000000000000000000000000005D
:1003A000000000000000000000000000000000004D
:1003B000DD12C811F112C8117D15CC150000000026
:1003C000000000000000000000000000000000002D
:1003D0000000262E2F271F170F07050D151D1E16AF
:1003E0000E06141C242C2D25040C222A2B231B134F
:1003F0000B03010911191A120A02101820282921C9
:1004000000083F3F3F00000000FF000000FFFF002A
:100410000000FFFFFFFFFF7B17C811000000000076
:1004200000000000000000000000000000000000CC
:10043000009B17AE17000000000000000000000045
:1004400000000000000000000000006C18C81183CC
:1004500018534553455345534515201920000000B6
:10046000000000000000000000000000000000008C
:100470000000004E209621B0217721BB214622BEEC
:1004800024C6246720BB2483189321AD21B821CA38
:1004900021C224CA24000000000000000000000067
:1004A00000000000000000000000008304000000C5
:1004B000000000000000000000000000000000003C
:1004C00000000014253527FB241125C81100000069
:1004D000000000000000000000000000000000001C
:1004E0000000008B27CC2772278827C811E6280632
:1004F00029534553455345534553455345EC2EF039
:100500002EF42EF82EFC2E002F042F082F0C2F1067
:100510002FA02B0629EA2BEB2BF42BFD2BFE2BB760
:100520002B142F182F1C2F202F242F282F042F0897
:100530002F0C2F102F092C0629532C542C5D2C5EC8
:100540002C672C202C2C2F302F342F382F3C2F4071
:100550002F042F082F0C2F102F622DB22D7A2D85EE
:100560002D902D9B2DA62D792D442F482F4C2F50AB
:100570002F542F582F042F082F0C2F102F0000005E
:10058000000000000000000000000000000000006B
:10059000000000722C0629C12CC92CCA2CD22CDADE
:1005A0002C892CEC2EF02EF42EF82EFC2E002F048D
:1005B0002F082F0C2F102FE42C0629382D402D4802
:1005C0002D502D582DFB2CEC2EF02EF42EF82EFC59
:1005D0002E002F042F082F0C2F102FF62FD731307D
:1005E00033000000000000000000000000000000D8
:1005F00000000000000000D03202013000000000C6
:10060000000000000000000000000000006F0A0170
:100610002F0873060000171B0000000000000000F8
:100620000000000000000000BEF00001020304050D
:10063000060708090A0B0C0D0E0F101112131415E2
:10064000161718191A1B1C1D1E1F202122232425D2
:10065000262728292A2B2C2D2E2FFFFFFFFFFFFFF7
:10066000FFFFFFFFFFFFFFFFFFFFFFFFFFFFFFFF9A
:10067000FFFFFFFFFFFFFFFFFFFFFFFFFFFFFFFF8A
:10068000FFFFFFFFFFFFFFFFFFFFFFFFFFFFFFFF7A
:10069000FFFFFFFFFFFFFFFFFFFFFFFFFFFFFFFF6A
:1006A000FFFFFFFFFFFFFFFFFFFFF95A03030303F5
:1006B000030303030303030303030303030303030A
:1006C0000303030302020202020202020202020206
:1006D00002020202020202020202020202020202FA
:1006E00002020202020202020202020239413E3EFC
:1006F0003E3E3C3C3C3CFFFFFFFFFFFFFFFFFFFF98
:10070000FFFFFFFFFFFF4B6F010204081020408036
:1007100000000000000000000000000000000000D9
:1007200000000000000000000000000000000000C9
:1007300000000000000000000000000000000000B9
:1007400000000000000000000000000000000000A9
:100750000000000000000000000000000000000099
:100760000000000000000000000000000000000089
:100770000000000000000000000000000000000079
:10078000000000000000000099E8010102100020B4
:100790000000000000000000000000000000000059
:1007A0000000000000000000000000000000000049
:1007B0000000000000000000000000000000000039
:1007C0000000000000000000000000000000000029
:1007D000000000000000000000000023E20101050D
:1007E0000000FF000000000000000000000000000A
:1007F00000000000000000000000000000000000F9
:1008000000000000000000000000000000000000E8
:1008100000000000000000000000000000000000D8
:1008200000000000000000000000000000007B9CB1
:100830000101050100FF00000000000000000000B1
:1008400000000000000000000000000000000000A8
:100850000000000000000000000000000000000098
:100860000000000000000000000000000000000088
:100870000000000000000000000000000000000078
:1008800000FB6C0000000000000000400B000000B6
:100890000000000000400B001400000107160002D9
:1008A000101F00038031000440B3000518F5000656
:1008B000800F01075191010851E401095137020AE3
:1008C000088A020B089402000000000000000000EB
:1008D0000000000000000000000000000001010115
:1008E0000101010101010000000000000101000000
:1008F00000000000010100000000000001010000F4
:0F090000000000000101010101010101013B4262
:10091000000091080A009108EF06D3079107F90734
:1009200019083E08910864087D080101A21F471FAD
:10093000014E1F01551F015C1F01631F016A1F014A
:10094000711F077F1F01781F01861F018D1F0694ED
:100950001F2AA91F03A91F01A91F019B1FFB00003C
:10096000B8241400B824B82454225F227022C12273
:10097000242351235C237C238923B8249223A72397
:10098000F423532474248124A124B02400019D2B3A
:100990009D2B01832901A42905B02901D12901F941
:1009A0002904212A01422A016A2A04922A01B32A2F
:1009B00001DB2A01032B012B2B0112290133290111
:1009C0005B2904532B01742B068E2BFB00007E4108
:1009D00016006D407E418C40A840D440D9407E41F5
:1009E0007E417E417E417E41DE40EA40EC40F9405E
:1009F0001C411E41404142415141614178416A0ED2
:100A00002C34BA93AA93D8018D010E949F1100E95A
:100A100010E0FD01018312838D01A991B991089520
:100A2000BA93AA93D8018D01ECDF0AE910E0FD0129
:100A30000183128320E08D010E943A0C8D01A9915F
:100A4000B9910895BA93AA93D8018D01DADF04EA27
:100A500010E0FD010183128321E08D010E943A0C18
:100A60008D01A991B9910895BA93AA93D8018D01E6
:100A7000C8DF0EEA10E0FD010183128321E08D0141
:100A80000E943A0C8D01A991B9910895BA93AA9345
:100A9000D8018D01B6DF08EB10E0FD010183128360
:100AA00021E08D010E943A0C8D01A991B991089520
:100AB000BA93AA93D8018D01A4DF02EC10E0FD01E6
:100AC0000183128321E08D010E943A0C8D01A991CE
:100AD000B9910895BA93AA93D8018D0192DF0CECD5
:100AE00010E0FD010183128321E08D010E943A0C88
:100AF0008D01A991B9910895BA93AA93D8018D0156
:100B000080DF06ED10E0FD010183128321E08D01FD
:100B10000E943A0C8D01A991B9910895BA93AA93B4
:100B2000D8018D016EDF00EE10E0FD01018312831C
:100B300021E08D010E943A0C8D01A991B99108958F
:100B4000BA93AA93D8018D015CDF0AEE10E0FD0193
:100B50000183128321E08D010E943A0C8D01A9913D
:100B6000B9910895BA93AA93D8018D014ADF04EF91
:100B700010E0FD010183128321E08D010E943A0CF7
:100B80008D01A991B9910895BA93AA93D8018D01C5
:100B9000E9DF0EEF10E0FD010183128321E08D01FA
:100BA0000E943A0C8D01A991B9910895BA93AA9324
:100BB000D8018D01D7DF08E011E0FD010183128328
:100BC00021E08D010E943A0C8D01A991B9910895FF
:100BD000BA93AA93D8018D01C5DF02E111E0FD01AE
:100BE0000183128321E08D010E943A0C8D01A991AD
:100BF000B99108950E94F843C801D901082F092B23
:100C000051F020E030E08C010E94BA11A0FB1EF4EC
:100C10008C010E941243E4E00C9409440E94F843C2
:100C2000D80183E08D010E944C0C0E94BB3D0770EF
:100C3000043011F483E0CAC08D01FD0121813281AD
:100C4000F9013896259134913997F90109950023D6
:100C500011F001E001C000E0002309F460C08D0143
:100C60000E944C0C0E94BB3D005049F00A9539F09F
:100C70000A9509F44CC00A9509F449C0A7C08D0132
:100C80000E944C0C0E94BB3D03700023E1F48D01D7
:100C90000E944C0C10E00E94AB3D8D01FD012181B2
:100CA0003281F9013696259134913797F9010995EA
:100CB000002311F001E001C000E0002311F081E009
:100CC00085C080E083C08D010E944C0C0E94BB3D1A
:100CD00003700130D9F48D010E944C0C11E00E9488
:100CE000AB3D8D01FD0121813281F90136962591BF
:100CF00034913797F9010995002311F001E001C003
:100D000000E0002311F080E061C081E05FC082E07C
:100D10008D010E944C0C10E00E94AB3D57C08D012C
:100D20000E944C0C0E94BB3D0370023041F08D01CB
:100D30000E944C0C0E94BB3D03700130E1F48D0118
:100D40000E944C0C10E00E94AB3D8D01FD01218101
:100D50003281F9013696259134913797F901099539
:100D6000002311F001E001C000E0002311F081E058
:100D70002DC080E02BC08D010E944C0C0E94BB3D19
:100D80000370033041F08D010E944C0C0E94BB3D6A
:100D900003700023D9F48D010E944C0C11E00E94D5
:100DA000AB3D8D01FD0121813281F90136962591FE
:100DB00034913797F9010995002311F001E001C042
:100DC00000E0002311F080E001C081E08D010E946D
:100DD0003D0CE0E1F0E0FBBFF9E00C94AF438D0186
:100DE000FD0121813281F90138962591349139979D
:100DF000F9010995002311F001E001C000E0002392
:100E000009F44BC0823029F428E08D010E943A0C8D
:100E100088C1813009F085C18D010E94520C21E00A
:100E20000E949D3C8D01FD0121813281F9013496A2
:100E3000259134913597F9010995902F8D010E94E4
:100E40004F0C192F0E94153E8D01FD012181328129
:100E5000F9013496259134913597F9010995902F30
:100E60008D010E944F0C192F0E94223E8D010E947D
:100E70004F0C0E94E20C21E00E94400CEAECFCE0E6
:100E8000038103FF05C023E08D010E943A0C49C194
:100E900022E08D010E943A0C44C1813009F040C02B
:100EA0008D010E94520C21E00E949D3C8D01FD01AC
:100EB00021813281F9013496259134913597F901D8
:100EC0000995902F8D010E944F0C192F0E94153EFD
:100ED0008D01FD0121813281F901349625913491F2
:100EE0003597F9010995902F8D010E944F0C192F0C
:100EF0000E94223E8D010E944F0C0E94E20C21E0D4
:100F00000E94400CEAECFCE0038103FF05C023E0F3
:100F10008D010E943A0C05C122E08D010E943A0C1D
:100F200000C1813039F48D010E94520C20E00E94F2
:100F30009D3C1BC0882399F48D010E944F0C10E04A
:100F40000E94153E8D010E944F0C0E94E20C20E091
:100F50000E94400C21E08D010E943A0CE2C08230D8
:100F600021F428E08D010E943A0C0E94D90C002344
:100F700059F08D010E944F0C11E00E94153E25E0B2
:100F80008D010E943A0CCDC00E94D60C002351F076
:100F90008D010E944F0C11E00E94153E24E08D014E
:100FA0000E943A0CBEC0813031F48D010E94520C77
:100FB00020E00E949D3C0E94D90C002359F08D0135
:100FC0000E944F0C11E00E94153E25E08D010E9409
:100FD0003A0CA7C00E94D60C002351F08D010E944C
:100FE0004F0C11E00E94153E24E08D010E943A0C46
:100FF00098C00E94D90C002329F025E08D010E94A1
:101000003A0C8FC0882329F426E08D010E943A0C07
:1010100088C0813039F48D010E94520C20E00E947A
:101020009D3C7FC0823021F428E08D010E943A0C63
:1010300078C0882399F48D010E944F0C10E00E9423
:10104000153E8D010E944F0C0E94E20C20E00E9490
:10105000400C21E08D010E943A0C63C0813039F4CC
:101060008D010E94520C20E00E949D3C5AC08230AB
:1010700021F428E08D010E943A0C53C0813039F4EC
:101080008D010E94520C20E00E949D3C06C08230DF
:1010900021F428E08D010E943A0C0E94D90C002313
:1010A00091F08D010E944F0C10E00E94153E8D01C1
:1010B0000E944F0C0E94E20C20E00E94400C21E0B4
:1010C0008D010E943A0C2DC08D010E944F0C11E041
:1010D0000E94153E8D010E944F0C16E00E94223E98
:1010E0008D010E944F0C0E94E20C21E00E94400CF6
:1010F00029E08D010E943A0C14C0823091F08D01DC
:101100000E944F0C10E00E94153E8D010E944F0C72
:101110000E94E20C20E00E94400C21E08D010E9420
:101120003A0CE4E00C9409440E94F843C801D90148
:10113000082F092B49F020E030E08C015BDDA0FB9B
:101140001EF48C010E941243E4E00C9409440E94B6
:10115000F843C801D901082F092B49F020E030E0FD
:101160008C0148DDA0FB1EF48C010E941243E4E0D8
:101170000C9409440E94F843C801D901082F092B97
:1011800049F020E030E08C0135DDA0FB1EF48C013D
:101190000E941243E4E00C9409440E94F843C80101
:1011A000D901082F092B49F020E030E08C0122DD25
:1011B000A0FB1EF48C010E941243E4E00C9409444D
:1011C0000E94F843C801D901082F092B49F020E0FB
:1011D00030E08C010FDDA0FB1EF48C010E94124355
:1011E000E4E00C9409440E94F843C801D901082F97
:1011F000092B49F020E030E08C01FCDCA0FB1EF460
:101200008C010E941243E4E00C9409440E94F843CC
:10121000C801D901082F092B49F020E030E08C01EA
:10122000E9DCA0FB1EF48C010E941243E4E00C9464
:1012300009440E94F843C801D901082F092B49F03D
:1012400020E030E08C01D6DCA0FB1EF48C010E9473
:101250001243E4E00C9409440E94F843C801D90108
:10126000082F092B49F020E030E08C01C3DCA0FB03
:101270001EF48C010E941243E4E00C9409440E9485
:10128000F843C801D901082F092B49F020E030E0CC
:101290008C01B0DCA0FB1EF48C010E941243E4E040
:1012A0000C9409440E94F843D80183E08D010E9408
:1012B0004C0C0E94BB3D0770043011F483E0CAC09F
:1012C0008D01FD0121813281F901389625913491FA
:1012D0003997F9010995002311F001E001C000E000
:1012E000002309F460C08D010E944C0C0E94BB3D9C
:1012F000005049F00A9539F00A9509F44CC00A9556
:1013000009F449C0A7C08D010E944C0C0E94BB3D4E
:1013100003700023E1F48D010E944C0C10E00E9448
:10132000AB3D8D01FD0121813281F9013696259178
:1013300034913797F9010995002311F001E001C0BC
:1013400000E0002311F081E085C080E083C08D01C2
:101350000E944C0C0E94BB3D03700130D9F48D01FA
:101360000E944C0C11E00E94AB3D8D01FD012181DA
:101370003281F9013696259134913797F901099513
:10138000002311F001E001C000E0002311F080E033
:1013900061C081E05FC082E08D010E944C0C10E0D2
:1013A0000E94AB3D57C08D010E944C0C0E94BB3D7A
:1013B0000370023041F08D010E944C0C0E94BB3D35
:1013C00003700130E1F48D010E944C0C10E00E948A
:1013D000AB3D8D01FD0121813281F90136962591C8
:1013E00034913797F9010995002311F001E001C00C
:1013F00000E0002311F081E02DC080E02BC08D01C2
:101400000E944C0C0E94BB3D0370033041F08D01E3
:101410000E944C0C0E94BB3D03700023D9F48D0147
:101420000E944C0C11E00E94AB3D8D01FD01218119
:101430003281F9013696259134913797F901099552
:10144000002311F001E001C000E0002311F080E072
:1014500001C081E08D010E943D0C005061F00A95B1
:1014600059F0065009F495C00A9509F4E7C00A95A9
:1014700009F4FDC010C10FC18D01FD012181328130
:10148000F9013896259134913997F901099500238E
:1014900011F001E001C000E0002309F441C08230F6
:1014A00029F428E08D010E943A0CF5C0813009F042
:1014B000F2C08D010E94520C21E00E949D3C8D01E2
:1014C000FD0121813281F9013496259134913597BE
:1014D000F9010995902F8D010E944F0C192F0E9440
:1014E000153E8D01FD0121813281F901349625914E
:1014F00034913597F9010995902F8D010E944F0C79
:10150000192F0E94223E8D010E944F0C0E94E20C76
:1015100021E00E94400C27E08D010E943A0CBBC0E4
:101520008130B1F58D010E94520C21E00E949D3C5A
:101530008D01FD0121813281F9013496259134918B
:101540003597F9010995902F8D010E944F0C192FA5
:101550000E94153E8D01FD0121813281F9013496F1
:10156000259134913597F9010995902F8D010E94AD
:101570004F0C192F0E94223E8D010E944F0C0E9499
:10158000E20C21E00E94400C27E08D010E943A0C01
:1015900082C08D01FD0121813281F90138962591AA
:1015A00034913997F9010995002311F001E001C048
:1015B00000E0002329F1823029F428E08D010E9407
:1015C0003A0C69C0882399F48D010E944F0C10E0F9
:1015D0000E94153E8D010E944F0C0E94E20C20E0FB
:1015E0000E94400C21E08D010E943A0C54C08130D1
:1015F00021F58D010E94520C20E00E949D3C4BC0C1
:10160000882399F48D010E944F0C10E00E94153E32
:101610008D010E944F0C0E94E20C20E00E94400CC1
:1016200021E08D010E943A0C36C08130A1F58D0178
:101630000E94520C20E00E949D3C2DC08D010E9412
:101640004F0C11E00E94153E8D010E944F0C16E0D8
:101650000E94223E8D010E944F0C0E94E20C21E06C
:101660000E94400C29E08D010E943A0C14C0823087
:1016700091F08D010E944F0C10E00E94153E8D01EB
:101680000E944F0C0E94E20C20E00E94400C21E0DE
:101690008D010E943A0CE4E00C9409440E94F84346
:1016A000C801D901082F092B49F020E030E08C0156
:1016B000E6DDA0FB1EF48C010E941243E4E00C94D2
:1016C00009440E94F843C801D901082F092B49F0A9
:1016D00020E030E08C01D3DDA0FB1EF48C010E94E1
:1016E0001243E4E00C9409440E94F843C801D90174
:1016F000082F092B49F020E030E08C01C0DDA0FB71
:101700001EF48C010E941243E4E00C9409440E94F0
:10171000F843C801D901082F092B51F020E030E02F
:101720008C010E94BA11A0FB1EF48C010E9412438E
:10173000E4E00C9409440E94F743D8018D010E9413
:101740003D0C005049F00A9541F00A9509F463C038
:101750000A9509F46BC08BC08AC0FD01818192811A
:1017600006968D010E94D00C0E94C13D402E8D0135
:10177000FC01259134913197F901099540264420C7
:1017800011F001E001C000E0002309F470C00E94E4
:10179000DF0C073021F1FD018181928104960E94C6
:1017A000DF0C402E8D01FC01259134913197F90118
:1017B0000995401610F001E001C000E0002379F423
:1017C0008D011196ED91FC911297349625913491EB
:1017D0003597F90109950E94DC0C0E94C73D8D01E7
:1017E0001196ED91FC91129734962591349135978D
:1017F000F9010995802F8D010E94D30C182F0E94AA
:10180000223E8D010E94D30C0E94983F22E08D0160
:101810000E943A0C2CC00E94D60C002341F10E9479
:10182000E63D23E08D010E943A0C21C0FD0181813B
:10183000928106968D010E94D00C0E94C13D402EDF
:101840008D01FC01259134913197F90109954026CC
:10185000442011F401E001C000E0002341F00E94A7
:10186000EF3D0E94D63521E08D010E943A0CE5E063
:101870000C940844F80120830895F801008108952C
:10188000F80120830895980100E00895980100E090
:101890000895980100E00895F80105810895F80180
:1018A000038108950C5F1F4F0895980100E008958B
:1018B000980100E00895980100E00895980102E081
:1018C0000895980100E00895980100E008959801B6
:1018D00002E00895980101E00895980100E008955C
:1018E000980102E00895980100E00895980101E050
:1018F0000895980102E00895980101E00895980183
:1019000001E00895980103E00895980100E008952A
:10191000980100E00895980103E00895980101E01E
:101920000895980100E00895980103E00895980152
:1019300000E00895980101E00895980103E00895FA
:10194000980101E00895980101E00895980101E0EF
:101950000895980100E00895980100E00895980125
:1019600001E00895980101E00895980100E00895CC
:10197000980101E00895980100E00895980101E0C0
:101980000895980101E00895980101E008959801F3
:1019900001E00895980107E00895980100E0089596
:1019A000F80104810895F801038108950091500C15
:1019B00008950091510C08950093BF0C0895009173
:1019C000BF0C089510E048E050E00E941A439801CF
:1019D0000BED1DE0020F131F089526E331E0F8011F
:1019E00026833783F80120E02083F80120E021835B
:1019F000F80120E02283F80120E02383F80120E0B1
:101A0000248308959A938A93C801082F092B29F0FB
:101A100020FB1EF48C010E94124389919991089534
:101A20009A938A93C801082F092B29F020FB1EF4F2
:101A30008C010E9412438991999108950E94440D4E
:101A40000E94400D0E944A0D0E94460D089508EF25
:101A500012E00E9464330E94420D0E94480D0895D6
:101A60000AE81CE00E9464330E94420D0E94480D67
:101A700008950E94440D0E944A0D0E948F330895DC
:101A8000149A08951C9A08951C980895159A08951B
:101A90001D9A08951D9808957B2F2A2ED8010FEFC7
:101AA0001FEF40E050E04217530798F46C91502F1D
:101AB00065271196012F10E0E62FF0E0EE0FFF1FD3
:101AC000E65CFE4F05901490319700251125439553
:101AD000E9CFA22DB72F0895F80100E010E0408172
:101AE00050E0040F151F319621503040422F432BF8
:101AF000B1F708950E94F843F801C90120E030E0F1
:101B0000008110E0200F311F31960197082F092B1B
:101B1000B9F7DF01FD013196022F1C91011749F43D
:101B20008901012F10E01081011719F401E010E084
:101B300002C000E010E0E4E00C940944F80140E049
:101B40000081400F319621503040022F032BC1F706
:101B50000081401719F401E010E0089500E010E062
:101B60000895A895089510E048E050E00E941A43B7
:101B7000F801E056F84F0681178108950091310869
:101B800008950CE008950093520C08950E94F843C4
:101B90000E947E0EB0E0A1E00A2F015039F00A95B4
:101BA00039F10A95A1F10A9581F133C00E94C10D66
:101BB000B017E0F42B2F0AE11AE00E946E11C80161
:101BC000082F092B89F04B2F43959C010AE11AE05D
:101BD0000E94C50F002311F0A2E01BC00E94BE0DA1
:101BE0000430B9F4A3E015C0A3E013C0A4E011C011
:101BF0000E94BE0D033019F4B395A1E00AC00E9403
:101C0000BE0D043031F4A3E004C001E00BC000E0DD
:101C100009C00E946B100AE010E00E9421330E946C
:101C2000B10DBACFE4E00C9409440E94E80F089586
:101C30000E940D1008950E943910089500E00E943E
:101C4000C30D0E940911002399F0EFDF002351F02A
:101C5000F2DF002311F001E0089504E00E94C30DBB
:101C600000E0089504E00E94C30D90DF00E00895B5
:101C700004E00E94C30D8ADF00E008950E94F9434A
:101C8000C801A22F2A2F23958C010E94B40EE3E0F5
:101C90000C940A448A93802F0E94C10D801730F45F
:101CA000082F03950E94B30D10E002C000E010E081
:101CB000899108950E94F943C801A22F0A2FEADFF3
:101CC00098014A2F43958C010E94C50F10E0E3E074
:101CD0000C940A4408E218E00E94204200E417E055
:101CE0000E94B64208959A938A93C80122E030E098
:101CF0008C010E943B428991999108950AE11AE072
:101D0000E6E2F8E00083118300E00E9490114CE6C7
:101D100050E020E030E000EA17E00E942444E0EACE
:101D2000F7E000E110E004831583E0EAF7E00CE659
:101D300010E0068317830EE610E00E943A14E0EAF2
:101D4000F7E0008711870EE610E00E943A14005F6A
:101D50001F4FE0EAF7E002831383E0EAF7E000E0D8
:101D6000008300E0018308950E94EE43D1503801C2
:101D7000822E0DE0801618F000E010E077C0082DEC
:101D800010E048E050E00E941A43F801E056F84F96
:101D900006811781012B09F451C0082D10E048E09D
:101DA00050E00E941A43F801E056F84F0085118573
:101DB000012B09F443C0082D10E048E050E00E94D8
:101DC0001A43F801E056F84F048115816801082D87
:101DD00010E048E050E00E941A43F801E056F84F46
:101DE000068117812801082D10E048E050E00E948C
:101DF0001A43F801E056F84F008511855801A501F6
:101E000096018E010E94F231A5019E018E010E9471
:101E1000EB14FE01E40DF51D808190E0FE01E40D60
:101E2000F51D118100E0802B912B92018E010E9403
:101E30004C0DD8018A179B07A1F403C000E010E005
:101E400015C0082D10E0000F111FF801E45FF74FD7
:101E500080839183A2019E0183010E941444820128
:101E600005C004E00E94C30D00E010E0DF5FEEE07B
:101E70000C94FF430E94F243D1502801C901642E03
:101E80000DE0601618F000E010E07BC0AC0192019C
:101E90008E010E9414449C0182010E944C0DD801C5
:101EA0000A2FFE01E80FF91F00838D01012F10E0BA
:101EB000FE01E80FF91F0183062D10E048E050E015
:101EC0000E941A43F801E056F84FA287B387AC018D
:101ED0004E5F5F4F9E01E6E2F8E0008111810E94B3
:101EE00044144801062D10E048E050E00E941A43D7
:101EF000F801E056F84F00851185012B69F5E0EAFD
:101F0000F7E022813381062D10E048E050E00E9486
:101F10001A43F801E056F84F24833583E0EAF7E0EE
:101F200002811381080D191D02831383062D10E011
:101F300048E050E00E941A43F801E056F84F8683CB
:101F40009783062D10E048E050E00E941A43F80104
:101F5000E056F84F80869186A401E6E2F8E0208101
:101F60003181BA01062D10E048E050E00E941A438A
:101F7000F801E056F84F04811581AB010E9405324B
:101F80008401DF5FEAE00C9403440E94F743D80128
:101F9000C901442E0E949311002399F4442D9C0101
:101FA0008D0168DF012B41F001E00E94961101E0F4
:101FB0000E94901101E009C004E00E94961100E027
:101FC00004C002E00E94961100E0E5E00C94084491
:101FD000BD01E1E0F0E0EC3000E0F007D8F48F0163
:101FE000000F111FD801A45FB74F2D913C9111979D
:101FF0008F0148E050E00E941A43D801A655B84F1F
:102000000D911C9111972017310711F000E003C0CA
:102010003196E1CF01E0DB010895BA93AA93689766
:10202000E0E0F0E0EC3000E0F007B0F48F0148E0D1
:1020300050E00E941A43D801AE54B84F2D913C9104
:102040001197DE018F01000F111FA00FB11F2D93FB
:102050003C9311973196E6CF28E130E08E010E9443
:102060004C0DE0EAF7E0008311836896A991B991DD
:102070000895BA93AA936897E0E0F0E0EC3000E0AE
:10208000F007B0F48F0148E050E00E941A43D801F5
:10209000AE54B84F2D913C911197DE018F01000F86
:1020A000111FA00FB11F2D933C9311973196E6CFCE
:1020B00028E130E08E010E944C0DE0EAF7E020813B
:1020C00031812017310711F401E001C000E068966A
:1020D000A991B99108950E949311005079F00A9541
:1020E00071F00A95B1F00A9589F10A9509F443C097
:1020F0000A9509F459C00A9509F473C008950E941D
:102100008D1128EC30E00E94494202E00E949011BB
:1021100008950E947B11002361F00E948D1120E13F
:1021200037E20E9449420E94871103E00E94901109
:1021300008950E948D110E946342002331F004E053
:102140000E94961100E00E94901108950E9484114F
:10215000002321F004E00E94901108950E948D1147
:102160000E946342002331F004E00E94961100E0D7
:102170000E949011089540E02CE630E000EA17E05C
:1021800079DE012B51F00E948D1128EC30E00E9485
:10219000494205E00E949011089504E00E949611C2
:1021A00000E00E94901108950E947B11002361F0CD
:1021B0000E948D1120E137E20E9449420E9487115E
:1021C00006E00E94901108950E948D110E946342C2
:1021D0000023F1F004E00E94961100E00E949011AB
:1021E00008950E948411002339F003E00E949611A3
:1021F00000E00E94901108950E948D110E94634298
:10220000002331F004E00E94961100E00E9490113A
:1022100008950E94F84372DD20E000EA17E0A4DD93
:10222000012B11F400E057C0B0E0A1E000E00E94F3
:1022300099110A2F015059F00A9509F10A9581F177
:102240000A95D1F10A95E9F10A95C9F13CC0BD3072
:10225000A0F42B2FE6E2F8E00081118185DDC801B2
:10226000082F092B41F00E949C11002311F0A2E0DD
:102270002AC0A4E028C0A5E026C0A6E024C04B2FB9
:102280009C01E6E2F8E0008111817FDE002311F07D
:10229000A3E019C00E94BE0D0430A9F4A5E013C04C
:1022A0000E94BE0D033011F4A4E00DC00E94BE0DCB
:1022B000043049F4A5E007C0B395A1E004C001E0F3
:1022C0000AC000E008C007DF0AE010E00E942133E6
:1022D0000E94B10DAECFE4E00C9409440E94F94392
:1022E000C801A22F2A2F8C010E949732E3E00C94A0
:1022F0000A44E39A0895E19B02C000E0089501E0DA
:10230000089500937C08089500917C08089500E0EA
:102310000E9481110E947911089508E218E0089541
:102320000093300808950091300808950093310813
:10233000089500933208089500913208089526E622
:1023400033E0F80121833283F80120E020830895EF
:10235000AD01D8018D01F3DF0AE613E0FD01018331
:102360001283FD0100E00383FD0100E004838D0181
:10237000DA0108959A938A93C801082F092B29F04E
:1023800020FB1EF48C010E941243899199910895BB
:1023900008959A938A93C801082F092B29F020FBEE
:1023A0001EF48C010E941243899199910895009125
:1023B0006100016000936100089500916200016076
:1023C000009362000895009162000E7F0093620006
:1023D00008950091610000640093610008950091E8
:1023E00062000064009362000895009162000F7B18
:1023F0000093620008950091610002600093610003
:1024000008950091620002600093620008950091B7
:1024100062000D7F009362000895009161000460E6
:10242000009361000895009162000B7F00936200A9
:102430000895BC9A0895C4980895009161000061C0
:1024400000936100089500916200006100936200B2
:102450000895009162000F7E00936200089500913C
:1024600061000062009361000895009162000062C3
:102470000093620008950E94191202E001BF09E171
:1024800003BF0895000000000895000008950E9411
:10249000D7110E94E3110E94E9110E94EF110E94DE
:1024A000FB110E9407120E940D120E9413120E943B
:1024B00019120E941B120E941D120E9429120E94D2
:1024C0002F120E9435120E943B1208950E94F511AE
:1024D0000E9442120E94EF1108959A938A93902FBE
:1024E0000E94291280E08630B0F400E210E0482F0C
:1024F0000E942E43192F1023112319F00E94DD1181
:1025000002C00E94E3110E9401120E9445120E9423
:1025100007128395E8CF0E94291289919991089515
:102520009A938A93902F0E94231280E08830B0F40F
:1025300000E810E0482F0E942E43192F102311238A
:1025400019F00E94DD1102C00E94E3110E940112E5
:102550000E9445120E9407128395E8CF0E9429121B
:10256000899199910895BA93AA93D8018D010E94F7
:10257000A81100EB13E0FD01018312838D01A991E5
:10258000B99108950E94F843D801C9018D01EBDF8C
:1025900004EB13E0FD01018312838D010B5F1F4FDC
:1025A0000E942042FD018387948720E08D010E94D4
:1025B0003A0C8D01E4E00C9409440E94F843C801F0
:1025C000D901082F092B51F020E030E08C010E9446
:1025D000C911A0FB1EF48C010E941243E4E00C948C
:1025E00009440E94F843D801C9010A2F0B2BA9F016
:1025F00004EB13E0FD010183128322E030E08D0142
:102600000B5F1F4F0E943B4220E030E08D01D5DF81
:1026100080FB1EF48D010E941243E4E00C940944F7
:102620000E94F843D801922F832F8D010E943D0C08
:10263000005029F00A9561F00A9521F148C0FD018A
:1026400000E0058721E08D010E943A0C00E040C0C7
:10265000992321F0FD01058501600587882321F07C
:10266000FD01058502600587FD01238534858D0107
:102670000B5F1F4F0E94494222E08D010E943A0CDD
:1026800000E026C08D010B5F1F4F0E9463420023B4
:1026900031F020E08D010E943A0C00E019C099232E
:1026A00021F0FD01058501600587882321F0FD01EA
:1026B000058502600587FD010585033031F420E0C2
:1026C0008D010E943A0C01E003C000E001C000E06F
:1026D000E4E00C940944202F30E0E0E0F0E0E83042
:1026E00000E0F0074CF4022F10E04E2F0E942E4322
:1026F000017030273196F3CF332311F401E00895B0
:1027000000E00895980150E0E0E0F0E0EC3000E0F7
:10271000F00744F44E2F89010E942943017050278D
:102720003196F4CF552311F401E0089500E00895A7
:10273000502F60E070E000E1509F00E000220FE0C9
:102740001022B00108E0509F00E7002200E01022B4
:1027500060297129052F017014E0019F60297129FA
:10276000052F007FB8DF10E8019F60297129052F30
:102770000E78B1DF18E0019F60297129052F0D76D1
:10278000AADF12E0019F60297129052F0B75A3DFD5
:1027900010E0602B712B8B010895080160E080012F
:1027A00000701F70AFDF102D17FB10E010F901173C
:1027B00011F061E001C060E0660F660F660F8001F6
:1027C000007718709FDF102D13FB10E010F9011730
:1027D00011F001E001C000E0000F000F602B80014C
:1027E000047616708FDF102D11FB10E010F9011721
:1027F00011F001E001C000E0000F602B80010475C2
:10280000157080DF102D1170011711F001E001C06B
:1028100000E0602B062F0895B801222311F48B01EC
:102820000895209332082A9501E010E0422F0E947B
:102830002443602771278B010895B80120E044E00C
:102840008B010E942943007F202F062F06950695B5
:1028500006950E70202B062F02FB00E000F9202BBE
:10286000022F08951801810198DF202F8101D4DF04
:10287000E4DF089500FB16F40F5F1F4F98013695B3
:102880002795020F131F08950E94ED433801590147
:102890006A012224332444245524EE240C2D0D29CE
:1028A00041F0C0FA36F40FEFC00E0FEFD01EEE2449
:1028B000E394882499248C149D0408F04BC0F501FE
:1028C000E40DF51D008134DF20E030E0C801D901BE
:1028D00001E0400E00E0501EF501E40DF51D008101
:1028E00027DFA80160E070E0ECE08A019B014E2F39
:1028F0000E948043802B912BA22BB32B01E0400E32
:1029000000E0501E8C01F301E20DF31D008301E095
:10291000200E00E0301E892F9A2FAB2FB0E08C01E3
:10292000F301E20DF31D008301E0200E00E0301EF4
:10293000892F9A2FAB2FB0E08C01F301E20DF31D2C
:10294000008301E0200E00E0301E02E0800E00E077
:10295000901EB1CFEE20D9F1F501E40DF51D0081F7
:10296000E7DE20E030E0C801D90100E0E1DEA801A7
:1029700060E070E0ECE08A019B014E2F0E948043F2
:10298000802B912BA22BB32B8C01F301E20DF31DB5
:10299000008301E0200E00E0301E892F9A2FAB2F1C
:1029A000B0E08C01F301E20DF31D008301E0200E85
:1029B00000E0301E892F9A2FAB2FB0E08C01F3017D
:1029C000E20DF31D008301E0200E00E0301E8101C6
:1029D000EFE00C94FE430E94EC43580149017A0158
:1029E00066247724442455240E2D0F2951F043E00A
:1029F00050E087010E943143452B19F000E010E0C0
:102A000057C0CC24DD24CE14DF0408F050C0F401FC
:102A1000E40DF51D008110E020E030E0C801D9018F
:102A200001E0400E00E0501EF401E40DF51D0081B0
:102A300010E020E030E0322F212F102F00E0802B1B
:102A4000912BA22BB32B01E0400E00E0501EF401AD
:102A5000E40DF51D208130E000E010E0802B912B8B
:102A6000A22BB32B01E0400E00E0501E8C010F7F23
:102A70001F70F8DEF501E60DF71D008301E0600E22
:102A800000E0701E4CE08C019D010E9487430F7F87
:102A90001F70E8DEF501E60DF71D008301E0600E12
:102AA00000E0701E03E0C00E00E0D01EACCF83013A
:102AB000E0E10C94FD430E94F843D801C9018D0167
:102AC0000E94A81108EB13E0FD01018312838D0120
:102AD000075F1F4F0E942042FD0185839683FD0101
:102AE00000E00087FD0100E0078320E08D010E94E7
:102AF0003A0C8D01E4E00C9409440E94F843D8019B
:102B0000C9010A2F0B2BB1F008EB13E0FD01018383
:102B1000128322E030E08D01075F1F4F0E943B428D
:102B200020E030E08D010E94C91180FB1EF48D0170
:102B30000E941243E4E00C940944BA93AA93D8018A
:102B40001596ED91FC9116970995002311F001E07F
:102B500001C000E0A991B99108950E94F843D801FD
:102B6000822F8D01FD0121813281F901329625915B
:102B700034913397F9010995FD010781081741F454
:102B8000FD0100E00783FD0100E0008701E001C0D6
:102B900000E0E4E00C940944BA93AA93D8018D01B3
:102BA0000E943D0C005089F00A95C1F00A9541F150
:102BB0000A9509F44EC00A9509F474C00A9509F4FF
:102BC0009AC0025009F4BCC0C3C0FD010085FD01DC
:102BD000078321E08D010E943A0CBAC08D01ADDF60
:102BE000002369F08D010E94AB1698018D01075FEB
:102BF0001F4F0E94494222E08D010E943A0CA8C05A
:102C00008D019BDF0023E1F08D01075F1F4F0E94C4
:102C100063420023E9F08D010E94AF1698018D01F7
:102C2000075F1F4F0E944942FD0102E00087FD013E
:102C30000085FD01078323E08D010E943A0C88C0C6
:102C4000FD010085FD01078320E08D010E943A0C03
:102C50007FC08D0172DF0023E1F08D01075F1F4F00
:102C60000E9463420023E9F08D010E94B31698018F
:102C70008D01075F1F4F0E944942FD0103E000875D
:102C8000FD010085FD01078324E08D010E943A0CBF
:102C90005FC0FD010085FD01078320E08D010E94DA
:102CA0003A0C56C08D0149DF0023E1F08D01075F2A
:102CB0001F4F0E9463420023E9F08D010E94B71666
:102CC00098018D01075F1F4F0E944942FD0104E0FA
:102CD0000087FD010085FD01078327E08D010E942B
:102CE0003A0C36C0FD010085FD01078320E08D010F
:102CF0000E943A0C2DC08D0120DF0023E1F08D01F0
:102D0000075F1F4F0E946342002311F18D010E9453
:102D1000BB1698018D01075F1F4F0E944942FD01BC
:102D200005E00087FD010085FD01078327E08D0197
:102D30000E943A0C0DC020E08D010E943A0C08C0A0
:102D40008D01FBDE002321F420E08D010E943A0C6E
:102D5000A991B9910895980104E610E008959801A9
:102D60000CED15E00895980108EB1BE0089598011B
:102D700008E813E10895980102E310E00895F801CE
:102D800000810895F80104810895009162000460B3
:102D9000009362000895009162000F7D009362002D
:102DA0000895000008959A938A93C8010E944712DB
:102DB0008991999108950E94F943C8010E94661271
:102DC000A0E0A03338F402E014E020E00E94602F7D
:102DD000A395F7CFA0E0A03308F058C0EA2FF0E0A9
:102DE000EE52FC4F049110E048E050E00E941A437C
:102DF00098018C01020F131F0E94BF160023F9F1E6
:102E0000EA2FF0E0EE52FC4F049110E048E050E071
:102E10000E941A4398018C01020F131F0E94C216D0
:102E2000015049F00A9569F00A9589F00350A9F01C
:102E30000A95C9F01EC00BE014E020E00E947D2F2F
:102E400023C001E114E020E00E947D2F1DC008E0B6
:102E500014E020E00E947D2F17C00EE014E020E077
:102E60000E947D2F11C004E114E020E00E947D2F1C
:102E70000BC005E014E020E00E947D2F05C005E0B6
:102E800014E020E00E947D2FA395A5CF0E94C516D7
:102E90000E94D1160E9413120E94CB16E3E00C94FC
:102EA0000A44BA93AA93D8018D010E94A81107E1A0
:102EB00014E0FD01018312838D010B5F1F4F0E94FF
:102EC00020428D01A991B9910895BA93AA93D8018E
:102ED0008D01E7DF01E314E0FD010183128320E0AF
:102EE0008D010E944B1821E08D010E943A0C8D014A
:102EF000A991B99108950E94F843D801C9010A2FF8
:102F00000B2BB1F007E114E0FD010183128322E0F5
:102F100030E08D010B5F1F4F0E943B4220E030E00C
:102F20008D010E94C91180FB1EF48D010E94124385
:102F3000E4E00C9409440E94F843C801D901082F29
:102F4000092B49F020E030E08C01D5DFA0FB1EF416
:102F50008C010E941243E4E00C9409440E94F8435F
:102F6000C8018C010E943D0C005051F00A9549F0B7
:102F70000A9539F10A95F9F10A9509F45EC088C0FD
:102F800087C00E946E380023B9F00E947E3800236B
:102F900071F00E947638D8018C010E9451189D0171
:102FA0000E94494223E08C010E943A0C71C022E049
:102FB0008C010E943A0C6CC020E08C010E943A0CFB
:102FC00067C08C010E944E180130A1F420E08C01F2
:102FD0000E944B1801E00E9487380E947638D80181
:102FE0008C010E9451189D010E94494223E08C01EE
:102FF0000E943A0C4DC08C010E944E18013071F4B1
:1030000020E08C010E944B180E947638D8018C0178
:103010000E9451189D010E9449423AC08C010E94B1
:1030200051180E946342002399F105E00E94C30DEC
:1030300024E08C010E943A0C2BC08C010E944E1897
:10304000015019F00A95B1F023C020E08C010E94D4
:103050004B1802E10E9454180E947638D8018C0166
:103060000E9451189D010E94494223E08C010E9458
:103070003A0C0EC020E08C010E944B1800E00E9428
:10308000873802E10E94541822E08C010E943A0C19
:10309000E4E00C940944F80124830895F8010481C4
:1030A00008950B5F1F4F089500939A0B089500E059
:1030B0000E9454180E946540FDCFBA93AA93D8018C
:1030C0008D010E94A8110BE414E0FD01018312831D
:1030D0008D01A991B99108950E94F843C801D901C1
:1030E000082F092B51F020E030E08C010E94C9111B
:1030F000A0FB1EF48C010E941243E4E00C940944EE
:10310000F801258308959A938A93C8018C010E943F
:103110003D0C002311F401E001C000E08991999178
:1031200008950E94F6432801C901DA01AD019C010E
:103130008201F20161817281FB0136966591749181
:103140003797FB010995D801AD019C018201F2017D
:1031500061817281FB013C96659174913D97FB0101
:103160000995E6E00C9407440E94F343D801722EBF
:10317000632E842ECB01AC01362D3068272D8D01B6
:10318000FD0161817281FB013A96659174913B97D3
:10319000FB0109952801FC01E40DF51D808201E089
:1031A000400E00E0501E8201E9E00C9404440E94AD
:1031B000F24328010A012A843B848C859D8550E0D6
:1031C0006624A0E0B0E0A015B105F0F44901940137
:1031D0002F5F3F4FFB01E80DF91D0081002331F007
:1031E00001E010E0462D0E942443502B07E06016BA
:1031F00041F4F101E80FF91F5083019650E0662475
:1032000001C063941196DFCF662029F0F101E80F29
:10321000F91F508301968C01EEE00C9403440E9448
:10322000EC43280159014A01CB018201F2012181BD
:103230003281F9013E96259134913F97F901099524
:103240003801F501E60DF71D3197F080F501E60D27
:10325000F71DE080F501E60DF71DD180CC24F501C6
:10326000E60DF71D028110E0C02AD12AF501E60D16
:10327000F71DB381A0E0F501E60DF71D048110E014
:10328000A02BB12B0A2F0B2B21F0A13D07E0B0079B
:1032900040F0B40143E03E2D2F2D820165DFC801CF
:1032A00044C0F201028D138D96012A0F3B1F0217B5
:1032B000130740F4B40142E03E2D2F2D820154DF6C
:1032C000C80133C0A4013E2D2F2D8201F20161817E
:1032D0007281FB013A96659174913B97FB010995C8
:1032E000C8010A2F0770002359F043E08D010E94A6
:1032F00029430395F401E80FF91F0083019609C0E3
:1033000043E08D010E942943F401E80FF91F008377
:1033100001969A938A939A928A92F20162897389AA
:10332000AD019601820143DFC8018C01E0E10C94FC
:10333000FD430E94EC43280159014A01CB0182015F
:10334000F20121813281F9013E96259134913F9716
:10335000F90109953801F501E60DF71D3197F08067
:10336000F501E60DF71DE080F501E60DF71DD180B2
:10337000CC24F501E60DF71D028110E0C02AD12A08
:10338000F501E60DF71DB381A0E0F501E60DF71D8F
:10339000048110E0A02BB12B0A2F0B2B21F0A13DB3
:1033A00007E0B00740F0B40143E03E2D2F2D82012D
:1033B000DBDEC80144C0F201048D158D96012A0F91
:1033C0003B1F0217130740F4B40142E03E2D2F2D9E
:1033D0008201CADEC80133C0A4013E2D2F2D820117
:1033E000F20161817281FB013A96659174913B977C
:1033F000FB010995C8010A2F0770002359F043E02B
:103400008D010E9429430395F401E80FF91F008301
:10341000019609C043E08D010E942943F401E80FA1
:10342000F91F008301969A938A939A928A92F201E5
:1034300064897589AD0196018201B9DEC8018C01EC
:10344000E0E10C94FD430E94EC43280169014A012C
:10345000CB018201F20121813281F9013E96259151
:1034600034913F97F90109955801F601EA0DFB1DCA
:103470003197F080F601EA0DFB1DE080F601EA0DC0
:10348000FB1DB181A0E0F601EA0DFB1D028110E0F9
:10349000A02BB12BF601EA0DFB1D73806624F6010B
:1034A000EA0DFB1D048110E0602A712A062D072910
:1034B00029F00EE7601600E0700640F0B40143E02A
:1034C0003E2D2F2D820150DEC80152C0F201068D23
:1034D000178D9D01260D371D0217130740F4B40107
:1034E00042E03E2D2F2D82013FDEC80141C0A401E4
:1034F0003E2D2F2D8201F20161817281FB013A96EE
:10350000659174913B97FB010995C801062D000F49
:10351000F401E80FF91F0083019600E010E00615A2
:10352000170530F5F201468957899D01220F331F97
:10353000420F531FFA0120813181232F30E0F40123
:10354000E80FF91F20830196F201468957899D01F2
:10355000220F331F420F531FFA0120813181F401E2
:10356000E80FF91F2083019611960F5F1F4FD7CFE9
:103570008C01E0E10C94FD430E94EC4328016901B9
:103580004A01CB018201F20121813281F9013E968B
:10359000259134913F97F90109955801F601EA0DFB
:1035A000FB1D3197F080F601EA0DFB1DE080F6016E
:1035B000EA0DFB1DB181A0E0F601EA0DFB1D0281C1
:1035C00010E0A02BB12BF601EA0DFB1D73806624E1
:1035D000F601EA0DFB1D048110E0602A712A062D18
:1035E000072929F00EE7601600E0700640F0B401EC
:1035F00043E03E2D2F2D8201B7DDC80152C0F201FC
:1036000000A111A19D01260D371D0217130740F4DB
:10361000B40142E03E2D2F2D8201A6DDC80141C03C
:10362000A4013E2D2F2D8201F20161817281FB01E7
:103630003A96659174913B97FB010995C801062D57
:10364000000FF401E80FF91F0083019600E010E07D
:103650000615170530F5F201408D518D9D01220FA1
:10366000331F420F531FFA0120813181232F30E095
:10367000F401E80FF91F20830196F201408D518D6E
:103680009D01220F331F420F531FFA012081318108
:10369000F401E80FF91F2083019611960F5F1F4F69
:1036A000D7CF8C01E0E10C94FD430E94EC4358011C
:1036B00029016A01CB018501F50121813281F901DE
:1036C0003E96259134913F97F90109953801F20111
:1036D000E60DF71D3197F080F201E60DF71DE08051
:1036E000F201E60DF71D91808824F201E60DF71D29
:1036F000028110E0802A912AF501028D138D801637
:10370000910640F0B60142E03E2D2F2D85012CDDC3
:10371000C8012EC0F201E60DF71DB381A0E0F20151
:10372000E60DF71D048110E0A02BB12BA0300FEFA8
:10373000B00751F4940101E00E946038AC0192019D
:1037400086010E94144414C00A2F0B2B51F49401DB
:1037500000E00E946038AC01920186010E9414448E
:1037600007C0B60143E03E2D2F2D8501FDDCC801C9
:103770008C01E0E10C94FD430E94EE432801C90155
:103780005A014B018201F20121813281F9013E96F9
:10379000259134913F97F9010995D801FC01EA0F71
:1037A000FB1F3197D080FC01EA0FFB1FC080FC019A
:1037B000EA0FFB1F71806624FC01EA0FFB1F0281E8
:1037C00010E0602A712AF201068D178D60167106CD
:1037D00040F0B50142E03C2D2D2D8201C5DC4801B1
:1037E0001CC0FC01EA0FFB1F538140E0FC01EA0F03
:1037F000FB1F048110E0402B512BF20126893789F1
:103800008301000F111F200F311FF90140835183E5
:10381000A4019C0185010E9414448401EEE00C94F3
:10382000FF430E94EC43280139016A01CB01820168
:10383000F20121813281F9013E96259134913F9721
:10384000F90109954801F301E80DF91D3197F08060
:10385000F301E80DF91DE080F301E80DF91DB180D9
:10386000AA24F301E80DF91D028110E0A02AB12A73
:10387000F301E80DF91DB381A0E0F301E80DF91D96
:10388000048110E0A02BB12B0A2F0B2B21F0A13BC0
:1038900007E0B00740F0B60143E03E2D2F2D820136
:1038A00063DCC80134C0F201028D138D95012A0F2B
:1038B0003B1F0217130740F4B60142E03E2D2F2DA7
:1038C000820152DCC80123C0A5019D018301080DBE
:1038D000191D0A5F1F4F0E942738A6013E2D2F2D6C
:1038E0008201F20161817281FB013A9665917491C6
:1038F0003B97FB010995C80144E050E09301280F74
:10390000391F8601080F191F0E94144404968C0168
:10391000E0E10C94FD430E94EC43480129016A0157
:103920003B018401F40121813281F9013E96259108
:1039300034913F97F9010995C801F201E80FF91F89
:103940003197F080F201E80FF91FE080F201E80FF3
:10395000F91FB181A0E0F201E80FF91F028110E028
:10396000A02BB12BF201E80FF91FB380AA24F201BA
:10397000E80FF91F048110E0A02AB12A0A2D0B29B3
:1039800029F00CE7A01600E0B00640F0B60143E0D5
:103990003E2D2F2D8401E8DB38014FC0F401068D48
:1039A000178D9D012A0D3B1D0217130740F4B60128
:1039B00042E03E2D2F2D8401D7DB38013EC020E0B0
:1039C00030E02A153B05E0F4F201E80FF91F5681BB
:1039D00040E0F201E80FF91F078110E0402B512B66
:1039E000F401668977898D01000F111F600F711F27
:1039F000FB0140835183119602962F5F3F4FE1CF29
:103A0000A6013E2D2F2D8401F40161817281FB01FD
:103A10003A96659174913B97FB010995380144E012
:103A200050E09201260D371D8601060D171D0E94DC
:103A3000144404E0600E00E0701E8301E0E10C9489
:103A4000FD4308010FEF1FEF0895080100E010E0AB
:103A500008950E94F04328014901DA01CB01820157
:103A6000F20121813281F9013E96259134913F97EF
:103A7000F90109953801F401E60DF71D3197B08081
:103A8000F401E60DF71DA080AD013A2D2B2D82012A
:103A9000F20161817281FB013A96659174913B97C5
:103AA000FB010995C801FD01E80FF91F03E0008340
:103AB0000196FD01E80FF91F00E200830196FD0168
:103AC000E80FF91F07E000830196FD01E80FF91FD9
:103AD00002E3008301968C01ECE00C9401440E9407
:103AE000EC4338014901DA01CB018301F301218163
:103AF0003281F9013E96259134913F97F90109955C
:103B00002801F401E40DF51D3197B080F401E40DB6
:103B1000F51DA080F401E40DF51DE280FF248C0169
:103B200006501040E016F10641F0BD0142E03A2D8A
:103B30002B2D830119DBC8012CC1AD013A2D2B2D92
:103B40008301F30161817281FB013A966591749161
:103B50003B97FB010995C801F401E40DF51D0381B4
:103B6000005049F00A9579F10A9509F49DC00A952B
:103B700009F4E0C007C1FD01E80FF91F00E0008370
:103B80000196FD01E80FF91F04E000830196F4019E
:103B9000E40DF51D0381FD01E80FF91F0083019677
:103BA000FD01E80FF91F02E000830196FD01E80F17
:103BB000F91F00E000830196FD01E80FF91F02E004
:103BC00000830196E6C0F401E40DF51D0481C02ECA
:103BD0000E94C10D0C1540F4BD0142E03A2D2B2D81
:103BE0008301C2DAC801D5C0CC20B9F52C2D8D01D6
:103BF000040D151D0B5F1F4F0E943E0E2091C90C36
:103C0000FD01E40DF51D25832091C80CFD01E40D97
:103C1000F51D2683FD01E40DF51D20E32783FD013D
:103C2000E80FF91F20E020830196202F2E5FFD0171
:103C3000E80FF91F20830196F401E40DF51D23819F
:103C4000FD01E80FF91F20830196FD01E80FF91F20
:103C5000C0820196800F911F9CC02C2D8D01040DF8
:103C6000151D0B5F1F4F0E943E0E9801FD01E80FCE
:103C7000F91F00E000830196022F0E5FFD01E80F9F
:103C8000F91F00830196F401E40DF51D0381FD0188
:103C9000E80FF91F00830196FD01E80FF91FC082AC
:103CA0000196820F931F75C0F401E40DF51D048188
:103CB000C02E0E94C10D0C1540F4BD0142E03A2D0A
:103CC0002B2D830151DAC80164C00C2D0E944A0ECD
:103CD0009801F401E40DF51D028110E0025010403E
:103CE0000217130741F0BD0143E03A2D2B2D83014C
:103CF0003BDAC8014EC02C2D8401040D151D0B5F4D
:103D00001F4F0E945A0E012B69F00E94180E03E10A
:103D10000E945418BD0145E03A2D2B2D830124DA71
:103D2000C80137C0BD0147E03A2D2B2D83011CDAB5
:103D3000C8012FC00E94BE0D033081F4AD013A2DA1
:103D40002B2D8301F30161817281FB013A9665910C
:103D500074913B97FB010995C8011BC00E94BE0DE1
:103D6000013041F4BD0146E03A2D2B2D8301FCD9F1
:103D7000C8010FC0BD0141E03A2D2B2D8301F4D9BC
:103D8000C80107C0BD0141E03A2D2B2D8301ECD9BC
:103D9000C8018C01E0E10C94FD430E94F043D8017E
:103DA00049012A01CB018D01FD0121813281F901F7
:103DB0003E96259134913F97F90109953801F40118
:103DC000E60DF71D3197B080F401E60DF71DA080D8
:103DD0000E94BE0D033081F4A2013A2D2B2D8D01DE
:103DE000FD0161817281FB013A96659174913B9767
:103DF000FB010995C80113C00E94BE0D013041F4BA
:103E0000B20146E03A2D2B2D8D01AED9C80107C075
:103E1000B20141E03A2D2B2D8D01A6D9C8018C01AC
:103E2000ECE00C9401440E94ED43D80129013A01D1
:103E30005B018D01FD0121813281F9013E962591C1
:103E400034913F97F90109954801F201E80DF91DF8
:103E50003197C080F201E80DF91DE080C501DC2C2E
:103E6000DD0CDD08FD01058110E0C016D10629F04A
:103E7000CC2019F000E010E070C00E2D102F110FB3
:103E8000110BEAE2F0E0FBBFF9E00C94AF43BC0198
:103E9000A30192018D01C3D9C8015BC0BC01A3017C
:103EA00092018D0146DAC80154C0BC01A301920100
:103EB0008D01C9DAC8014DC0BC01A30192018D0179
:103EC0005BDBC80146C0BC01A30192018D01EDDBA3
:103ED000C8013FC0BC01A30192018D014DDCC801A6
:103EE00038C0BC01A30192018D01ABDDC80131C016
:103EF000BC01A30192018D0194DCC8012AC0BC0160
:103F0000A30192018D0149DFC80123C0BC01A301B7
:103F100092018D0100DDC8011CC0BC01A30192010A
:103F20008D0197DDC80115C0BC01A30192018D016F
:103F30008CDDC8010EC0BC01A30192018D01CFDD53
:103F4000C80107C0B30141E03E2D2C2D8D010CD9D5
:103F5000C801FD01848795878C01EFE00C94FE4336
:103F6000B80101E010E008950E94F043D801290152
:103F70003A018D01FD0121813281F9013E962591A1
:103F800034913F97F9010995C801F201E80FF91F33
:103F900031979080F201E80FF91F80805301FD01F5
:103FA0000681091591F4FD010781081571F402E0FD
:103FB000801641F4A5019201280F391F2E5F3F4F53
:103FC0008D01CEDF01E010E02DC08D01FD012181CA
:103FD0003281F9017096259134917197F901099513
:103FE00098018C01020F131F0E5F1F4FA016B10620
:103FF00031F487FA16F401E003C000E001C000E0EC
:10400000002371F0F201E80FF91F21812C302CF40C
:10401000022F102F110F110B05C00EE010E002C08F
:1040200001E010E0ECE00C940144980101E010E0A4
:104030000895980102E010E008950E94F643C80137
:10404000D9010A2F0B2B11F401E001C000E000237D
:1040500079F00BEA402E04E0502EDC011F96FC01A3
:10406000A587B6878C01015F1F4F0E945D1806C0AF
:10407000FC0143845484FC01A587B68703E714E060
:10408000FC0103871487F201059114913197FD011A
:10409000018312838C01E6E00C9407440E94F843EC
:1040A000C801D901082F092B79F00A2F0B2B39F001
:1040B00020E030E08C01015F1F4F0E946C18A0FBD4
:1040C0001EF48C010E941243E4E00C9409440F504A
:1040D0001040E4CF0E94EC43229728833983D80113
:1040E0002A013B018D889E888F89988DED8CFE8CEE
:1040F000CF8CD8A0A9A0BAA0088119810D931C93D8
:104100001197FD0142825382648275820A89FD0102
:1041100000870B89FD0106830C89FD010783FD01E2
:1041200005851685F80186869786FD010585168525
:10413000F801808B918B298D3A8DFD0105851685BF
:10414000F801228B338B2B8D3C8DFD010585168567
:10415000F801248B358BFD0105851685F801E68A6B
:10416000F78AFD0105851685F801C08ED18EFD0107
:1041700005851685F801A28EB38E2BA13CA1FD0109
:1041800005851685F801248F358F2DA13EA1FD01EF
:1041900005851685F801268F378F2FA138A5FD01DB
:1041A00005851685F80120A331A3FD0142815381C5
:1041B0006481758100E412E42FE030E00E948A43BC
:1041C00040E250E060E070E00E945C4308011901A9
:1041D00048EE53E060E070E0800191010E948A4364
:1041E0000F5F1F4FFD0101871287FD0105851685B1
:1041F000F801428D538D20E030E0FD0105851685E4
:10420000F801028913890E942444FD010585168561
:10421000F801448D558D20E030E0FD0105851685BF
:10422000F801048915890E942444FD01058516853D
:10423000F80140A151A1440F551F20E030E0FD01DD
:1042400005851685F801008D118D0E9424449A93EE
:104250008A939A928A92FD0107810A93FD01368121
:10426000FD012085FD0142815381648175810D919D
:104270001C9111970E9404302296E7E20C94FD43B2
:10428000BA93AA93D8010D911C9111970E943930CD
:10429000A991B9910895BA93AA93D8010D911C914F
:1042A00011970E944830A991B9910895BA93AA93A1
:1042B000D8010D911C9111970E945930A991B99183
:1042C0000895BA93AA93D8010D911C9111970E9459
:1042D0008730A991B9910895BA93AA93D8010D9105
:1042E0001C9111970E94A230A991B99108950E9442
:1042F000F6432801D901CA019C018D010E944C0D91
:104300009801022FFD01E80FF91F00830196890132
:10431000012F10E0FD01E80FF91F008301968C01C9
:10432000E6E00C9407440F501040E1CF1D01080156
:10433000E881F981208331838A01012F10E0028313
:10434000042F03838B01012F10E00483062F0583C4
:1043500006E010E0D101229608950F501040E6CFFC
:10436000B801FA012083FA01318302E010E00895D8
:104370000F501040F5CF0E94F643D8012901CA0121
:10438000AC0192010D911C9111970E94B630E6E0AC
:104390000C9407440F501040EECFBA93AA93D80163
:1043A0000D911C9111970E94D124A991B991089562
:1043B000BA93AA93D8010D911C9111970E94CE2413
:1043C000A991B99108950E94F643D8012901CA0123
:1043D000AC0192010D911C9111970E94BE30E6E054
:1043E0000C9407440E94F843D801C9010E94D424C8
:1043F000FD0125853685F90122853385021B130BC6
:104400000817190710F001E001C000E0E4E00C9487
:104410000944BA93AA93D8010E94D424FD012585AA
:104420003685F90102871387A991B99108950E94F1
:10443000F2434801D901CA01843000E0900710F42A
:1044400000E021C0FD01E80FF91F3197508044249E
:10445000FD01E80FF91F3297008110E0402A512A30
:104460009C01225030408D010E944C0D38019C016E
:10447000225030408D010E944C0D0415150511F499
:1044800001E001C000E0EAE00C9403440E94F8431C
:10449000D801FD01058516850E943D0CEEE5F0E092
:1044A000FBBFF9E00C94AF438D01EADE8D01F3DE32
:1044B00023E0FD01058516850E943A0C59C28D0145
:1044C000A8DFFD0105851685F80100E0048700E0FE
:1044D000058724E0FD01058516850E943A0C48C237
:1044E0008D0166DF0023F1F140E051E0FD0105851B
:1044F0001685F80104851585401B510BFD010585C6
:104500001685F80126853785FD0105851685F80194
:1045100004851585200F311F8D0155DFC8018130BD
:1045200000E090079CF0FD0105851685F8010485E3
:104530001585080F191F048715878D016ADF25E08F
:10454000FD01058516850E943A0C0CC08F3F0FEFC8
:10455000900741F48D0194DE23E0FD010585168569
:104560000E943A0C28E93AE38D013CDF002341F038
:104570008D0186DE23E0FD01058516850E943A0C3B
:10458000F7C18D0115DF0023C1F140E051E0FD01CD
:1045900005851685F80104851585401B510BFD0125
:1045A00005851685F80126853785FD010585168563
:1045B000F80104851585200F311F8D0104DFC80126
:1045C000813000E090076CF0FD0105851685F8014B
:1045D00004851585080F191F048715878D0119DFBC
:1045E0000CC08F3F0FEF900741F48D0149DE23E0AF
:1045F000FD01058516850E943A0CFD012185328555
:104600008D01F0DE0023F9F0FD0105851685F80126
:1046100044855585FD0105851685F8012685378574
:104620008D0105DF002339F026E0FD0105851685A3
:104630000E943A0C9DC18D0123DE23E0FD0105851A
:1046400016850E943A0C94C1FD0105851685F80176
:1046500064857585FD0105851685F80140895189B8
:10466000FD0105851685F80126853785FD0105853F
:1046700016850E94131F012B49F00E94D92427E0C0
:10468000FD01058516850E943A0C72C10E94DB244B
:104690008D01F6DD23E0FD01058516850E943A0CAB
:1046A00067C18D01B6DE8D01EBDD28E0FD010585DA
:1046B00016850E943A0C5CC125E030E08D0192DE47
:1046C0000023C9F0FD0105851685F801448555854F
:1046D000FD0105851685F80120893189FD010585D3
:1046E00016850E9491188D01ECDD29E0FD010585FC
:1046F00016850E943A0C3CC18D014FDE002341F02B
:104700000E94DB2423E0FD01058516850E943A0CFA
:104710002FC18D01CBDD20E0FD01058516850E94AE
:104720003A0C26C18D0175DE8D01AADDFD010585DE
:104730001685F80100E0048700E005878D01ABDDF8
:104740002DE0FD01058516850E943A0C11C18D01F1
:104750002FDE0023E1F140E051E0FD0105851685E3
:10476000F80104851585401B510BFD010585168553
:10477000F80126853785FD0105851685F801048534
:104780001585200F311F8D011EDEC801813000E02C
:1047900090079CF08D013DDEFD0105851685F80131
:1047A00004851585080F191F048715872EE0FD0164
:1047B000058516850E943A0C0AC08F3F0FEF9007BF
:1047C00031F423E1FD01058516850E943A0C28EE9F
:1047D00033E08D0107DE002331F023E1FD01058583
:1047E00016850E943A0CC4C08D01E2DD0023B1F1B0
:1047F00040E051E0FD0105851685F8010485158529
:10480000401B510BFD0105851685F801268537856E
:10481000FD0105851685F80104851585200F311FDA
:104820008D01D1DDC801813000E090076CF08D0171
:10483000F0DDFD0105851685F80104851585080F55
:10484000191F048715870AC08F3F0FEF900731F4B7
:1048500023E1FD01058516850E943A0CFD012185A5
:1048600032858D01BFDD0023E9F0FD010585168548
:10487000F80144855585FD0105851685F8012685D5
:1048800037858D01D4DD002339F02FE0FD0105854A
:1048900016850E943A0C6CC023E1FD010585168542
:1048A0000E943A0C65C0FD0105851685F801448516
:1048B0005585FD0105851685F80126853785FD019D
:1048C000058516850E94B41F012B39F023E1FD01F7
:1048D000058516850E943A0C4BC023E1FD01058534
:1048E00016850E943A0C44C08D0193DD8D01C8DC11
:1048F0000E94D92421E1FD01058516850E943A0C0C
:1049000037C025E030E08D016DDD002389F1FD0128
:1049100005851685F80144855585FD0105851685B3
:10492000F80120893189FD01058516850E949118BD
:104930008D01C7DC22E1FD01058516850E943A0C38
:1049400017C08D012ADD002399F08D01C5DC0E947E
:10495000DB242CE0FD01058516850E943A0C08C079
:104960008D01A4DC20E0FD01058516850E943A0C2E
:10497000E4E00C9409440F50104088CD980101E008
:1049800010E008950F5010400C94BE24980102E0EE
:1049900010E008950F5010400C94C624F80102A5B1
:1049A0000895F80103A50895EDE7F8E0008111816D
:1049B0000895DB980895DB9A08950E94F843D80182
:1049C000822F8D01055F1F4F0E94A81103EC14E098
:1049D000FD010187128709EC14E0FD0104871587AA
:1049E0008C9320E08D01055F1F4F0E943A0C8D01D2
:1049F000E4E00C9409440E94F843C801D901082F4F
:104A0000092B61F020E030E08C01055F1F4F0E9410
:104A1000C911A0FB1EF48C010E941243E4E00C9427
:104A200009440B501040E7CF1D01D801F901008166
:104A3000FD01008BF90101811281FD01018B128BB7
:104A4000F90103811481FD01038B148BF9010581A8
:104A50001681FD0105831683F90107811085FD018B
:104A6000058B168BF90103891489FD01038F148FBF
:104A7000F90105851685FD01078B108FF901408925
:104A80005189F901028910E0000F111F400F511FD9
:104A9000FD01418F528FF9010289085F028BF901F4
:104AA00063897489F901058910E048E150E00E94AA
:104AB0001A43600F711FFD01638F748FF90105891F
:104AC000085F058BF901068917890F5F1F4FFD01EC
:104AD00007831087FD0100E0058FD10108950E9432
:104AE000F643D801FD01038914890E5F1F4FC801E9
:104AF00000E0083078F4FD01238D348D10E0200FA4
:104B0000311FF901208110E0FC01E00FF11F20832B
:104B10000395EFCF28E030E08C010E946C0D280156
:104B2000FD0103891489065F1F4FC801042DFC0194
:104B3000008301968201012F10E0FC010083FD013A
:104B400003891489F80101E80083FD0100890E94AE
:104B500027360AE613E001501040E9F700C00000D4
:104B60004DE050E0FD0123893489FD01018912895E
:104B70000E9402330E944C36FD0101891289F8011E
:104B80000181013849F4FD0101891289F801048588
:104B90000E3711F401E001C000E0E6E00C94074498
:104BA0000E94F243D801992420E0283020F5FD012D
:104BB000038D148D30E0020F131FF80100850F3FA5
:104BC000C1F0FD0105891689FD01438D548D30E04A
:104BD000420F531FFA01408550E0040F151FF801E2
:104BE0000081002331F001E010E0422F0E942443B5
:104BF000902A2395DACF882420E0283020F5FD0183
:104C0000038D148D30E0020F131FF80100890F3F50
:104C1000C1F0FD0105891689FD01438D548D30E0F9
:104C2000420F531FFA01408950E0040F151FF8018D
:104C30000081002331F001E010E0422F0E94244364
:104C4000802A2395DACF5524FD010381002329F022
:104C5000FD0100E00383689450F8FD010481002306
:104C600029F0FD0100E00483689451F8FD01018101
:104C7000002329F0FD0100E00183689452F8FD0152
:104C80000281002329F0FD0100E00283689453F8BB
:104C9000FD0103891489F80102E40083FD01038901
:104CA00014890E5F1F4FC801442420E02830A8F467
:104CB000FD01018D128D422F50E0440F551F040F4E
:104CC000151FF8010181002331F001E010E0422FAF
:104CD0000E942443402A2395E9CFFC01408201969B
:104CE000442420E02830A8F4FD01018D128D422FCC
:104CF00050E0440F551F040F151FF80100810023D9
:104D000031F001E010E0422F0E942443402A239515
:104D1000E9CFFC0140820196FC0190820196FC01E2
:104D200080820196FC015082019625E030E0FD0171
:104D3000038914890E5F1F4F0E946C0D3801062DE8
:104D4000FC01008301968301012F10E0FC01008328
:104D50000196FC010EE700830196FD0100890E9487
:104D600027360AE613E001501040E9F700C00000C2
:104D70004AE050E0FD0123893489FD01018912894F
:104D80000E9402330E944C36FD0101891289F8010C
:104D90000181045209F447C00E5109F04EC025E0CC
:104DA00030E0FD01018912890E5F1F4F0E947A0DCC
:104DB00001301040BCF1FD0101891289F801018523
:104DC0000E37D9F5FD0100E0058F20E08D010E942E
:104DD0005327FD0101891289F8010281402E20E04C
:104DE0002830F0F401E010E0422F0E942443142DFB
:104DF0001023112351F0FD010789108D30E0020FBF
:104E0000131FF80101E0008309C0FD010789108D1F
:104E100030E0020F131FF80100E000832395E0CF7C
:104E200001E020C00AC0FD01058D043130F420E00E
:104E30008D01055F1F4F0E943A0CFD01058D043165
:104E400030F4FD01058D0395058F00E00BC0FD01D9
:104E500005811681F80102E0008321E08D010E94A6
:104E6000532700E0EAE00C9403440E94F943C80190
:104E70008C01055F1F4F0E943D0C005019F00A95F0
:104E800059F00DC08C012BDEA02F21E08C01055FB5
:104E90001F4F0E943A0C03C08C0182DEA02F0A2F04
:104EA000E3E00C940A44AD01F801A781B0852C938E
:104EB000DA0108950E94F843D801822F8D01055F21
:104EC0001F4F0E94A81103EE14E0FD010187128715
:104ED00009EE14E0FD01048715878C938D01E4E051
:104EE0000C9409440E94F843C801D901082F092BEA
:104EF00061F020E030E08C01055F1F4F0E94C91176
:104F0000A0FB1EF48C010E941243E4E00C940944BF
:104F10000B501040E7CFBD01D801F9010081FD0120
:104F2000008BF90101811281FD01018B128BF901C6
:104F300003811481FD01038B148BF9010581168116
:104F4000FD0105831683F90147815085F90101852B
:104F500010E0400F511FFD01458B568BF901018573
:104F6000085E0187F90142855385F901048510E047
:104F7000400F511FFD01478B508FF9010485085EDA
:104F80000487F90106891789FD0107831087FD0150
:104F900000E0018FDB0108950E94F643C801DC01A7
:104FA0005396ED91FC91549702E40083FC01008933
:104FB0000E9427360AE613E001501040E9F700C0CE
:104FC000000049E050E0FC0123893489FC0101899B
:104FD00012890E9402330E944C36FC014588568893
:104FE000FC01A789B08DFC0101891289F8010181BA
:104FF000045279F10E51A9F527E030E0FC01018956
:1050000012890F5F1F4F0E949E0D013010408CF1DE
:10501000FC0100E0018F20E08C010E94532720E07A
:105020002630A8F4FC010189128930E0020F131F19
:10503000F801328100E0043040F4132F13703695EC
:1050400036951C9311960395F6CF2395E9CF01E091
:105050002DC000E0083168F414E01C93119603950C
:10506000F9CF00E0083128F414E01C931196039561
:10507000F9CFFC01018D043130F4FC01018D039561
:10508000018F00E013C000E0083128F414E01C9305
:1050900011960395F9CFFC0105811681F80101E015
:1050A000008321E08C010E94532700E0E6E00C948D
:1050B0000744F80123830895BA93AA93D8018D0178
:1050C0000E94A8110DEE14E0FD01018312838D01F1
:1050D0000A5F1F4F0E94204225E28D010E943A0C78
:1050E00025E28D010E9459288D01A991B991089559
:1050F000BA93AA93D8018D01DFDF01E115E0FD012C
:105100000183128325E28D010E943A0C25E28D0174
:105110000E9459288D01A991B9910895BA93AA9333
:10512000D8018D01C9DF05E315E0FD01018312837C
:1051300025E28D010E943A0C25E28D010E9459283A
:105140008D01A991B9910895BA93AA93D8018D01BF
:10515000B3DF03E915E0FD010183128328E18D012E
:105160000E943A0C28E18D010E9459288D01A991D5
:10517000B9910895BA93AA93D8018D019DDF07EBE9
:1051800015E0FD010183128325E28D010E943A0C96
:1051900025E28D010E9459288D01A991B9910895A8
:1051A000BA93AA93D8018D0187DF09E515E0FD01C7
:1051B0000183128325E28D010E943A0C25E28D01C4
:1051C0000E9459288D01A991B99108950E94F84330
:1051D000D801C9010A2F0B2BB1F00DEE14E0FD012F
:1051E0000183128322E030E08D010A5F1F4F0E948D
:1051F0003B4220E030E08D010E94C91180FB1EF48B
:105200008D010E941243E4E00C940944BA93AA93DE
:10521000D8018D010E943D0CECE8F0E0FBBFF9E005
:105220000C94AF438D011196ED91FC9112977096FD
:10523000259134917197F901099598018D010A5FC3
:105240001F4F0E9449428D011196ED91FC911297DA
:105250003496259134913597F901099529E18D010D
:105260000E943A0C6AC28D010A5F1F4F0E9463427E
:10527000002301F18D011196ED91FC911297729628
:10528000259134917397F901099598018D010A5F71
:105290001F4F0E9449428D011196ED91FC9112978A
:1052A0003C96259134913D97F90109952AE18D01AC
:1052B0000E943A0C42C28D010A5F1F4F0E94634256
:1052C000002301F18D011196ED91FC9112977096DA
:1052D000259134917197F901099598018D010A5F23
:1052E0001F4F0E9449428D011196ED91FC9112973A
:1052F0003496259134913597F901099529E18D016D
:105300000E943A0C1AC28D011196ED91FC911297F0
:105310007096259134917197F901099598018D0145
:105320000A5F1F4F0E9449428D011196ED91FC9139
:1053300012973696259134913797F901099522E015
:105340008D010E943A0CF9C18D010A5F1F4F0E9426
:105350006342002321F021E08D010E943A0CEDC14F
:105360008D011196ED91FC911297749625913491CF
:105370007597F901099598018D010A5F1F4F0E94E9
:1053800049428D011196ED91FC9112973896259125
:1053900034913997F901099528E08D010E943A0C62
:1053A000CCC18D010A5F1F4F0E946342002301F1AF
:1053B0008D011196ED91FC9112977696259134917D
:1053C0007797F901099598018D010A5F1F4F0E9497
:1053D00049428D011196ED91FC9112973C962591D1
:1053E00034913D97F901099529E08D010E943A0C0D
:1053F000A4C18D010A5F1F4F0E946342002301F187
:105400008D011196ED91FC9112977496259134912E
:105410007597F901099598018D010A5F1F4F0E9448
:1054200049428D011196ED91FC9112973896259184
:1054300034913997F901099528E08D010E943A0CC1
:105440007CC18D011196ED91FC9112977896259172
:1054500034917997F901099598018D010A5F1F4FE1
:105460000E9449428D011196ED91FC9112973A9656
:10547000259134913B97F90109952EE08D010E9409
:105480003A0C5BC18D010A5F1F4F0E9463420023EB
:1054900001F18D011196ED91FC9112977A9625916B
:1054A00034917B97F901099598018D010A5F1F4F8F
:1054B0000E9449428D011196ED91FC9112973C9604
:1054C000259134913D97F90109952FE08D010E94B6
:1054D0003A0C33C18D010A5F1F4F0E9463420023C3
:1054E00001F18D011196ED91FC911297789625911D
:1054F00034917997F901099598018D010A5F1F4F41
:105500000E9449428D011196ED91FC9112973A96B5
:10551000259134913B97F90109952EE08D010E9468
:105520003A0C0BC18D011196ED91FC9112977C966E
:10553000259134917D97F901099598018D010A5FB4
:105540001F4F0E9449428D011196ED91FC911297D7
:105550003A96259134913B97F901099524E18D0103
:105560000E943A0CEAC08D010A5F1F4F0E946342FD
:10557000002301F18D011196ED91FC9112977E9619
:10558000259134917F97F901099598018D010A5F62
:105590001F4F0E9449428D011196ED91FC91129787
:1055A0003C96259134913D97F901099525E18D01AE
:1055B0000E943A0CC2C08D010A5F1F4F0E946342D5
:1055C000002301F18D011196ED91FC9112977C96CB
:1055D000259134917D97F901099598018D010A5F14
:1055E0001F4F0E9449428D011196ED91FC91129737
:1055F0003A96259134913B97F901099526E18D0161
:105600000E943A0C9AC08D010A5F1F4F0E946342AC
:10561000002301F18D011196ED91FC911297B09646
:1056200025913491B197F901099598018D010A5F8F
:105630001F4F0E9449428D011196ED91FC911297E6
:105640003C96259134913D97F901099527E18D010B
:105650000E943A0C72C08D010A5F1F4F0E94634284
:10566000002301F18D011196ED91FC9112977C962A
:10567000259134917D97F901099598018D010A5F73
:105680001F4F0E9449428D011196ED91FC91129796
:105690003A96259134913B97F901099524E18D01C2
:1056A0000E943A0C4AC08D011196ED91FC9112971F
:1056B000B29625913491B397F901099598018D011E
:1056C0000A5F1F4F0E9449428D011196ED91FC9196
:1056D00012973896259134913997F90109952FE160
:1056E0008D010E943A0C29C08D010A5F1F4F0E9454
:1056F0006342002311F18D011196ED91FC911297F7
:105700003C96259134913D97F90109958D010E94B0
:10571000E92E202F8D010E943A0C0FC08D011196A9
:10572000ED91FC9112973C96259134913D97F901AA
:10573000099520E08D010E943A0CA991B991089534
:105740000E94F843C801D901082F092B69F025E20E
:105750008C010E943A0C20E030E08C0137DDA0FB88
:105760001EF48C010E941243E4E00C9409440E9450
:10577000F943C801A22F8C010E943D0C202F8C01FF
:105780000E9459280A2F005079F00A9591F00A9545
:10579000A9F00A95C1F00A95D1F00A95C1F002501E
:1057A000B1F00A95A1F013C025E28C010E943A0CD9
:1057B0000EC021E08C010E943A0C09C027E08C0148
:1057C0000E943A0C04C027E08C010E943A0CE3E0EE
:1057D0000C940A4408959A938A93C80101E00E94A8
:1057E000EF3E8991999108959A938A93C80102E0B6
:1057F0000E94EF3E89919991089508959A938A9312
:10580000C80102E00E94193F0E94D1358991999107
:1058100008950E94F843C801D901082F092B69F0A7
:1058200025E28C010E943A0C20E030E08C01CEDCB5
:10583000A0FB1EF48C010E941243E4E00C94094486
:105840000E94F943C801A22F8C010E943D0C202F19
:105850008C010E9459280A2F005079F00A9591F086
:105860000A95A9F00A95C1F00A95D1F00A95C1F000
:105870000250B1F00A95A1F013C025E28C010E94FC
:105880003A0C0EC021E08C010E943A0C09C025E2BE
:105890008C010E943A0C04C02DE08C010E943A0C4D
:1058A000E3E00C940A4408959A938A93C80101E0B6
:1058B0000E94EF3E89919991089508959A938A9351
:1058C000C80103E00E94EF3E8991999108959A934F
:1058D0008A93C80103E00E94193F0E94D135899143
:1058E000999108950E94F843C801D901082F092B06
:1058F00069F025E28C010E943A0C20E030E08C0136
:1059000065DCA0FB1EF48C010E941243E4E00C94C1
:1059100009440E94F943C801A22F8C010E943D0C4A
:10592000202F8C010E9459280A2F005079F00A95E7
:1059300091F00A95A9F00A95C1F00A95F9F00A9537
:10594000E9F00250B9F00A95C9F018C028E18C01BD
:105950000E943A0C13C028E18C010E943A0C0EC040
:1059600027E08C010E943A0C09C02DE08C010E94B6
:105970003A0C04C023E18C010E943A0CE3E00C9441
:105980000A449A938A93C8010E945C2F8991999145
:10599000089508959A938A93C8010E945C2F899173
:1059A000999108959A938A93C8010E945C2F8991D6
:1059B000999108959A938A93C8010E945E2F0E943C
:1059C000D1358991999108950E94F843C801D90170
:1059D000082F092B69F025E28C010E943A0C20E087
:1059E00030E08C01F3DBA0FB1EF48C010E9412431B
:1059F000E4E00C9409440E94F943C801A22F8C01F1
:105A00000E943D0C202F8C010E9459280A2F005023
:105A100079F00A9591F00A95A9F00A95C1F00A95D6
:105A200021F10A9511F10250B9F00A95D1F01DC08B
:105A300025E28C010E943A0C18C025E28C010E94DC
:105A40003A0C13C027E08C010E943A0C0EC02DE0E6
:105A50008C010E943A0C09C023E18C010E943A0C8F
:105A600004C02EE18C010E943A0CE3E00C940A443D
:105A70009A938A93C8010E94390D8991999108954A
:105A80009A938A93C8010E94390D8991999108953A
:105A90009A938A93C8010E94270D8991999108953C
:105AA0009A938A93C8010E94300D89919991089523
:105AB0009A938A93C8010E94390D0E94D135899129
:105AC000999108950E94F843C801D901082F092B24
:105AD00069F025E28C010E943A0C20E030E08C0154
