:100000000C94163E189518951895189518951895EE
:100010001895189518951895189518951895189578
:10002000189518950C946F2F189518951895189584
:100030001895189518951895189518951895189558
:100040001895189518951895189518951895189548
:1000500018951895189518950C942D2E1895189597
:100060001895189518951895189518951895189528
:1000700018951895189518950C948E2D0C944A2D5A
:100080000C94682D18951895189518950000000087
:1000900088059C05CC08CF08F3069C05DB08DE0824
:1000A00006079C05E108E40819079C05E708EA082B
:1000B0002C079C05ED08F0083F079C05F308F6089F
:1000C00052076507F908FC08FD076507FF080209E4
:1000D00010082408050908090000000000000000BD
:1000E000000000000000000000003D094B09000076
:1000F000C1C081C1400101C3C003800241C201C629
:10010000C006800741C70005C1C581C4400401CCB9
:10011000C00C800D41CD000FC1CF81CE400E000A32
:10012000C1CA81CB400B01C9C009800841C801D8B0
:10013000C018801941D9001BC1DB81DA401A001EAA
:10014000C1DE81DF401F01DDC01D801C41DC0014C9
:10015000C1D481D5401501D7C017801641D601D230
:10016000C012801341D30011C1D181D0401001F0E1
:10017000C030803141F10033C1F381F240320036AA
:10018000C1F681F7403701F5C035803441F4003CB9
:10019000C1FC81FD403D01FFC03F803E41FE01FAB0
:1001A000C03A803B41FB0039C1F981F84038002852
:1001B000C1E881E9402901EBC02B802A41EA01EE28
:1001C000C02E802F41EF002DC1ED81EC402C01E4C9
:1001D000C024802541E50027C1E781E640260022B2
:1001E000C1E281E3402301E1C021802041E001A080
:1001F000C060806141A10063C1A381A2406200662A
:10020000C1A681A7406701A5C065806441A4006CB8
:10021000C1AC81AD406D01AFC06F806E41AE01AA2F
:10022000C06A806B41AB0069C1A981A840680078B1
:10023000C1B881B9407901BBC07B807A41BA01BEA7
:10024000C07E807F41BF007DC1BD81BC407C01B4C8
:10025000C074807541B50077C1B781B64076007231
:10026000C1B281B3407301B1C071807041B0005020
:10027000C190819140510193C053805241920196A7
:10028000C056805741970055C19581944054019CB8
:10029000C05C805D419D005FC19F819E405E005AB1
:1002A000C19A819B405B0199C0598058419801884F
:1002B000C04880494189004BC18B818A404A004E29
:1002C000C18E818F404F018DC04D804C418C0044C8
:1002D000C184818540450187C047804641860182AF
:1002E000C042804341830041C18181804040000081
:1002F00000000000000000000000000000000000FE
:1003000000000000000000000000000000000000ED
:1003100000000000000000000000F50D030E040EB8
:10032000030E0000000000000000000000000000BC
:1003300000000000000000000000000000000000BD
:1003400000000000000000000000000000000000AD
:10035000000000000000000000000000000000009D
:1003600000000000180F030E2C0F030EB811071227
:10037000000000000000000000000000000000007D
:10038000000000000000262E2F271F170F07050D65
:10039000151D1E160E06141C242C2D25040C222AB5
:1003A0002B231B130B03010911191A120A0210182F
:1003B0002028292100083F3F3F00000000FF0000E7
:1003C00000FFFF000000FFFFFFFFFFAE13030E0062
:1003D000000000000000000000000000000000001D
:1003E0000000000000CE13E1130000000000000038
:1003F0000000000000000000000000000000009F5E
:1004000014030EB6147140714071407140481C4C89
:100410001C000000000000000000000000000000C0
:1004200000000000000000811CDB1DF51DBC1D004C
:100430001E8B1E03210B219A1C0021B614D81DF21D
:100440001DFD1D0F1E07210F2137040000000000B5
:10045000000000000000000000000000000000009C
:100460000059217A2340215621030E00000000008C
:10047000000000000000000000000000000000007C
:1004800000D0230224B723CD23030E0F252F25717F
:100490004071407140714071407140C12AC52AC904
:1004A0002ACD2AD12AD52AD92ADD2AE12AE52AC944
:1004B000272F250828092812281B281C28E027E9AF
:1004C0002AED2AF12AF52AF92AFD2AD92ADD2AE17C
:1004D0002AE52A27282F2566286728702871287A78
:1004E000283E28012B052B092B0D2B112B152BD961
:1004F0002ADD2AE12AE52A5F29AF29772982298D79
:10050000299829A3297629192B1D2B212B252B2945
:100510002B2D2BD92ADD2AE12AE52A000000000034
:1005200000000000000000000000000000000000CB
:100530000085282F25C928D128D228DA28E2289C2E
:1005400028C12AC52AC92ACD2AD12AD52AD92ADDE5
:100550002AE12AE52AEC282F2535293D2945294D70
:100560002955290329C12AC52AC92ACD2AD12AD524
:100570002AD92ADD2AE12AE52ACB2BAC2D052F002A
:10058000000000000000000000000000000000006B
:100590000000000000A52E02013000000000000055
:1005A00000000000000000000000006F0A012F089A
:1005B00073060000171B0000000000000000000090
:1005C000000000000000BEF0000102030405060761
:1005D00008090A0B0C0D0E0F101112131415161723
:1005E00018191A1B1C1D1E1F202122232425262713
:1005F00028292A2B2C2D2E2FFFFFFFFFFFFFFFFFA7
:10060000FFFFFFFFFFFFFFFFFFFFFFFFFFFFFFFFFA
:10061000FFFFFFFFFFFFFFFFFFFFFFFFFFFFFFFFEA
:10062000FFFFFFFFFFFFFFFFFFFFFFFFFFFFFFFFDA
:10063000FFFFFFFFFFFFFFFFFFFFFFFFFFFFFFFFCA
:10064000FFFFFFFFFFFFFFFFF95A0303030303034D
:10065000030303030303030303030303030303036A
:100660000303020202020202020202020202020268
:10067000020202020202020202020202020202025A
:100680000202020202020202020239413E3E3E3EE4
:100690003C3C3C3CFFFFFFFFFFFFFFFFFFFFFFFF76
:1006A000FFFFFFFF4B6F0102040810204080000095
:1006B000000000000000000000000000000000003A
:1006C000000000000000000000000000000000002A
:1006D000000000000000000000000000000000001A
:1006E000000000000000000000000000000000000A
:1006F00000000000000000000000000000000000FA
:1007000000000000000000000000000000000000E9
:1007100000000000000000000000000000000000D9
:1007200000000000000099E8010102100020000014
:1007300000000000000000000000000000000000B9
:1007400000000000000000000000000000000000A9
:100750000000000000000000000000000000000099
:100760000000000000000000000000000000000089
:1007700000000000000000000023E201010500006D
:10078000FF0000000000000000000000000000006A
:100790000000000000000000000000000000000059
:1007A0000000000000000000000000000000000049
:1007B0000000000000000000000000000000000039
:1007C0000000000000000000000000007B9C010110
:1007D000050100FF00000000000000000000000014
:1007E0000000000000000000000000000000000009
:1007F00000000000000000000000000000000000F9
:1008000000000000000000000000000000000000E8
:10081000000000000000000000000000000000FBDD
:100820006C0000000000000000400B0014000001FC
:1008300007160002101F00038031000440B30005BA
:1008400018F50006800F01075191010851E40109D4
:100850005137020A088A0200000000000000000070
:100860000000000000000000000000000001010185
:100870000101010101010000000000000101000070
:100880000000000001010000000000000101000064
:0F08900000000000010101010101010101593DBA
:1008A0000101D51B7A1B01811B01881B018F1B01D4
:1008B000961B019D1B01A41B07B21B01AB1B01B9B9
:1008C0001B01C01B06C71B2ADC1B03DC1B01DC1B36
:1008D00001CE1BFB0000FD201400FD20FD20991E11
:1008E000A41EB51E061F691F961FA11FC11FCE1F84
:1008F000FD20D71FEC1F39209820B920C620E62004
:10090000F5200001C627C62701AC2501CD2505D954
:100910002501FA25012226044A26016B2601932689
:1009200004BB2601DC26010427012C2701542701E2
:100930003B25015C25018425047C27019D2706B702
:1009400027FB000005280800F227F727FC270128CD
:1009500005280528052805280000632808005028D8
:1009600055285A285F2863286328632863280000D5
:10097000C6280800AE28B328B828BD28C628C6282F
:10098000C228C62800003229080015291A291F2963
:1009900024293229322929292E290000933C1600C6
:1009A0006C3B933C8B3BA63BD13BD63B933C933C6F
:1009B000933C933C933CDB3BEE3B013C0E3C313C97
:1009C000333C553C573C663C763C8D3CA50A013097
:1009D000BA93AA93D8018D010E94DA0D00E910E0C4
:1009E000FD01018312838D01A991B9910895BA93F4
:1009F000AA93D8018D01ECDF08E910E0FD01018325
:100A0000128320E08D010E94C3088D01A991B99144
:100A10000895BA93AA93D8018D01DADF00EA10E0B5
:100A2000FD010183128321E08D010E94C3088D0125
:100A3000A991B9910895BA93AA93D8018D01C8DFFD
:100A400008EA10E0FD010183128321E08D010E947C
:100A5000C3088D01A991B9910895BA93AA93D801B9
:100A60008D01B6DF00EB10E0FD010183128321E070
:100A70008D010E94C3088D01A991B9910895BA937F
:100A8000AA93D8018D01A4DF08EB10E0FD010183DA
:100A9000128321E08D010E94C3088D01A991B991B3
:100AA0000895BA93AA93D8018D0192DF00EC10E06B
:100AB000FD010183128321E08D010E94C3088D0195
:100AC000A991B9910895BA93AA93D8018D01E9DF4C
:100AD00008EC10E0FD010183128321E08D010E94EA
:100AE000C3088D01A991B9910895BA93AA93D80129
:100AF0008D010E94DA0D00ED10E0FD0101831283EB
:100B000021E08D010E94C3088D01A991B99108953A
:100B10000E94163FC801D901082F092B51F020E08F
:100B200030E08C010E94F50DA0FB1EF48C010E94A8
:100B3000303EE4E00C94273F0E94153FD8018D0120
:100B40000E94C608005079F00A9571F00A9509F4E0
:100B50007CC00A9509F4BAC00A9509F4E5C00A9563
:100B600009F40FC13DC13CC1FD018181928106960E
:100B70008D010E94D2080E948B38402E8D01FC010D
:100B8000259134913197F90109954026442011F0BF
:100B900001E001C000E0002309F422C18D010E94A0
:100BA000D80821E00E94D8370E941A09033021F1A9
:100BB000FD018181928104960E941A09402E8D01C7
:100BC000FC01259134913197F9010995401610F0F7
:100BD00001E001C000E0002379F48D011196ED9150
:100BE000FC9112973496259134913597F901099526
:100BF0000E9417090E94B7388D011196ED91FC9162
:100C000012973496259134913597F9010995802FE3
:100C10008D010E94D508182F0E9413398D0111965D
:100C2000ED91FC9112973496259134913597F90105
:100C30000995802F8D010E94D508182F0E94203918
:100C400022E08D010E94C308CBC0FD018181928109
:100C500006968D010E94D2080E948B38402E8D018D
:100C6000FC01259134913197F901099540264420E2
:100C700011F001E001C000E0002331F08D010E947D
:100C8000D80820E00E94D8370E941409002369F098
:100C90000E94E4388D010E94D50811E00E941339AA
:100CA00024E08D010E94C3089BC00E94110900230B
:100CB00061F00E94E4388D010E94D50811E00E9485
:100CC000133923E08D010E94C3088AC00E941409D1
:100CD000002329F024E08D010E94C30881C0FD019A
:100CE0008181928106968D010E94D2080E948B38E4
:100CF000402E8D01FC01259134913197F901099520
:100D00004026442011F401E001C000E0002329F056
:100D100025E08D010E94C30863C08D010E94D808A0
:100D200020E00E94D8375CC0FD0181819281069647
:100D30008D010E94D2080E948B38402E8D01FC014B
:100D4000259134913197F90109954026442011F4F9
:100D500001E001C000E0002369F00E94ED388D0140
:100D60000E94D50810E00E94133921E08D010E94F5
:100D7000C30836C08D010E94D80820E00E94D837F1
:100D80002FC0FD018181928106968D010E94D208BB
:100D90000E948B38402E8D01FC01259134913197B2
:100DA000F90109954026442011F001E001C000E05E
:100DB000002331F08D010E94D80820E00E94D8372E
:100DC0000E941409002361F00E94ED388D010E94F9
:100DD000D50810E00E94133921E08D010E94C3085C
:100DE000E5E00C94263F0E94163FC801D901082F68
:100DF000092B49F020E030E08C018ADEA0FB1EF4D4
:100E00008C010E94303EE4E00C94273F0E94163F84
:100E1000C801D901082F092B49F020E030E08C01EE
:100E200077DEA0FB1EF48C010E94303EE4E00C94BF
:100E3000273F0E94163FC801D901082F092B49F00E
:100E400020E030E08C0164DEA0FB1EF48C010E94E7
:100E5000303EE4E00C94273F0E94163FC801D901C0
:100E6000082F092B49F020E030E08C0151DEA0FB77
:100E70001EF48C010E94303EE4E00C94273F0E9457
:100E8000163FC801D901082F092B49F020E030E0B6
:100E90008C013EDEA0FB1EF48C010E94303EE4E09B
:100EA0000C94273F0E94163FC801D901082F092B37
:100EB00049F020E030E08C012BDEA0FB1EF48C0119
:100EC0000E94303EE4E00C94273F0E94153FD80179
:100ED0008D010E94C608005031F00A9529F0055096
:100EE00009F454C087C086C0FD01818192810696B5
:100EF0008D010E94D2080E948B38402E8D01FC018A
:100F0000259134913197F90109954026442011F03B
:100F100001E001C000E00023C1F18D010E94D8086A
:100F200021E00E94D8378D011196ED91FC91129726
:100F30003496259134913597F9010995802F8D01CB
:100F40000E94D508182F0E9413398D011196ED913A
:100F5000FC9112973496259134913597F9010995B2
:100F6000802F8D010E94D508182F0E9420398D01F5
:100F70000E94D5080E941D0921E00E94C9080E9414
:100F8000A63126E08D010E94C30834C0FD01818195
:100F9000928106968D010E94D2080E948B38402EC5
:100FA0008D01FC01259134913197F9010995402675
:100FB000442011F401E001C000E00023A9F08D01FC
:100FC0000E94D50810E00E9413398D010E94D508B7
:100FD0000E941D0920E00E94C9080E94A63121E05C
:100FE0008D010E94C30806C08D010E94D80820E030
:100FF0000E94D837E5E00C94263F0E94163FC801B6
:10100000D901082F092B49F020E030E08C014ADF9C
:10101000A0FB1EF48C010E94303EE4E00C94273FBC
:101020000E94163FC801D901082F092B51F020E07A
:1010300030E08C010E94F50DA0FB1EF48C010E9493
:10104000303EE4E00C94273F0E94153FD8018D010B
:101050000E94C608005049F00A9541F00A9509F42B
:1010600063C00A9509F46BC08BC08AC0FD01818101
:10107000928106968D010E940B090E949938402E9C
:101080008D01FC01259134913197F9010995402694
:10109000442011F001E001C000E0002309F470C019
:1010A0000E941A09063021F1FD0181819281049686
:1010B0000E941A09402E8D01FC012591349131972F
:1010C000F9010995401610F001E001C000E000238D
:1010D00079F48D011196ED91FC911297349625913A
:1010E00034913597F90109950E9417090E94C53876
:1010F0008D011196ED91FC911297349625913491C2
:101100003597F9010995802F8D010E940E09182F3E
:101110000E9420398D010E940E090E94973A22E018
:101120008D010E94C3082CC00E941109002341F1C7
:101130000E94E43823E08D010E94C30821C0FD0114
:101140008181928106968D010E940B090E94993837
:10115000402E8D01FC01259134913197F9010995BB
:101160004026442011F401E001C000E0002341F0DA
:101170000E94ED380E94AB3121E08D010E94C3082E
:10118000E5E00C94263FF80120830895F8010081E2
:101190000895F80120830895980100E008959801CA
:1011A00000E00895F80105810895F801038108958C
:1011B0000C5F1F4F0895980100E00895980100E02A
:1011C0000895980102E00895980100E008959801BB
:1011D00002E00895980101E00895980103E0089560
:1011E000980100E00895980103E00895980101E056
:1011F0000895980101E00895980100E0089598018C
:1012000001E00895980101E00895980106E008952D
:10121000980100E00895F80104810895F801038120
:1012200008950091460C08950091470C089500938D
:10123000B50C08950091B50C089510E048E050E019
:101240000E94383E980101ED1DE0020F131F089522
:101250002AEE30E0F80126833783F80120E020836E
:10126000F80120E02183F80120E02283F80120E04A
:101270002383F80120E0248308959A938A93C80178
:10128000082F092B29F020FB1EF48C010E94303E10
:101290008991999108959A938A93C801082F092BEF
:1012A00029F020FB1EF48C010E94303E8991999117
:1012B00008950E947F090E947B090E9485090E946F
:1012C0008109089508EF12E00E94392F0E947D09DC
:1012D0000E94830908950AE81CE00E94392F0E94A9
:1012E0007D090E94830908950E947F090E94850953
:1012F0000E94642F0895149A08951C9A08951C98CA
:101300000895159A08951D9A08951D9808957B2FA4
:101310002A2ED8010FEF1FEF40E050E0421753078D
:1013200098F46C91502F65271196012F10E0E62F4D
:10133000F0E0EE0FFF1FE251FF4F05901490319740
:10134000002511254395E9CFA22DB72F0895F80167
:1013500000E010E0408150E0040F151F319621504D
:101360003040422F432BB1F708950E94163FF801F9
:10137000C90120E030E0008110E0200F311F3196DC
:101380000197082F092BB9F7DF01FD013196022FD4
:101390001C91011749F48901012F10E010810117F8
:1013A00019F401E010E002C000E010E0E4E00C9469
:1013B000273FF80140E00081400F31962150304036
:1013C000022F032BC1F70081401719F401E010E050
:1013D000089500E010E00895A895089510E048E011
:1013E00050E00E94383EF801E056F84F0681178120
:1013F00008950091270808950BE008950093480C84
:1014000008950E94163F0E94B90AB0E0A1E00A2F99
:10141000015039F00A9539F10A95A1F10A9581F147
:1014200033C00E94FC09B017E0F42B2F00E11AE052
:101430000E94A90DC801082F092B89F04B2F439555
:101440009C0100E11AE00E94000C002311F0A2E0D0
:101450001BC00E94F9090430B9F4A3E015C0A3E051
:1014600013C0A4E011C00E94F909033019F4B39528
:10147000A1E00AC00E94F909043031F4A3E004C0DD
:1014800001E00BC000E009C00E94A60C0AE010E0D9
:101490000E94F62E0E94EC09BACFE4E00C94273F9C
:1014A0000E94230C08950E94480C08950E94740C19
:1014B000089500E00E94FE090E94440D002399F067
:1014C000EFDF002351F0F2DF002311F001E0089577
:1014D00004E00E94FE0900E0089504E00E94FE0975
:1014E00090DF00E0089504E00E94FE098ADF00E03A
:1014F00008950E94173FC801A22F2A2F23958C011F
:101500000E94EF0AE3E00C94283F8A93802F0E9408
:10151000FC09801730F4082F03950E94EE0910E0B3
:1015200002C000E010E0899108950E94173FC801B1
:10153000A22F0A2FEADF98014A2F43958C010E94BF
:10154000000C10E0E3E00C94283F0EE118E00E944C
:101550003E3D00E417E00E94D43D08959A938A939B
:10156000C80122E030E08C010E94593D8991999197
:10157000089500E11AE0ECE1F8E00083118300E057
:101580000E94CB0D44E650E020E030E000EA17E096
:101590000E94423FE0EAF7E000E110E00483158397
:1015A000E0EAF7E004E610E00683178306E610E0C1
:1015B0000E947510E0EAF7E00087118706E610E068
:1015C0000E947510005F1F4FE0EAF7E0028313836B
:1015D000E0EAF7E000E0008300E0018308950E9464
:1015E0000C3FD1503801822E0CE0801618F000E03C
:1015F00010E077C0082D10E048E050E00E94383E2F
:10160000F801E056F84F06811781012B09F451C00B
:10161000082D10E048E050E00E94383EF801E05606
:10162000F84F00851185012B09F443C0082D10E007
:1016300048E050E00E94383EF801E056F84F04813F
:1016400015816801082D10E048E050E00E94383E06
:10165000F801E056F84F068117812801082D10E0A7
:1016600048E050E00E94383EF801E056F84F00850F
:1016700011855801A50196018E010E94C72DA50173
:101680009E018E010E942611FE01E40DF51D808150
:1016900090E0FE01E40DF51D118100E0802B912BFF
:1016A00092018E010E948709D8018A179B07A1F435
:1016B00003C000E010E015C0082D10E0000F111F5E
:1016C000F801EC5FF74F80839183A2019E018301B3
:1016D0000E94323F820105C004E00E94FE0900E042
:1016E00010E0DF5FEEE00C941D3F0E94103FD150F0
:1016F0002801C901642E0CE0601618F000E010E02B
:101700007BC0AC0192018E010E94323F9C0182019C
:101710000E948709D8010A2FFE01E80FF91F0083F4
:101720008D01012F10E0FE01E80FF91F0183062D46
:1017300010E048E050E00E94383EF801E056F84FD3
:10174000A287B387AC014E5F5F4F9E01ECE1F8E0EA
:10175000008111810E947F104801062D10E048E0B1
:1017600050E00E94383EF801E056F84F00851185A0
:10177000012B69F5E0EAF7E022813381062D10E0C4
:1017800048E050E00E94383EF801E056F84F2483CC
:101790003583E0EAF7E002811381080D191D028309
:1017A0001383062D10E048E050E00E94383EF80117
:1017B000E056F84F86839783062D10E048E050E00E
:1017C0000E94383EF801E056F84F80869186A401C9
:1017D000ECE1F8E020813181BA01062D10E048E00B
:1017E00050E00E94383EF801E056F84F0481158120
:1017F000AB010E94DA2D8401DF5FEAE00C94213F07
:101800000E94153FD801C901442E0E94CE0D00232D
:1018100099F4442D9C018D0168DF012B41F001E01A
:101820000E94D10D01E00E94CB0D01E009C004E04F
:101830000E94D10D00E004C002E00E94D10D00E042
:10184000E5E00C94263FBD01E1E0F0E0EB3000E084
:10185000F007D8F48F01000F111FD801AC5FB74F0C
:101860002D913C9111978F0148E050E00E94383E45
:10187000D801A655B84F0D911C911197201731072B
:1018800011F000E003C03196E1CF01E0DB010895E3
:10189000BA93AA936697E0E0F0E0EB3000E0F0073F
:1018A000B0F48F0148E050E00E94383ED801AE54B9
:1018B000B84F2D913C911197DE018F01000F111F40
:1018C000A00FB11F2D933C9311973196E6CF26E1DF
:1018D00030E08E010E948709E0EAF7E0008311837F
:1018E0006696A991B9910895BA93AA936697E0E094
:1018F000F0E0EB3000E0F007B0F48F0148E050E09A
:101900000E94383ED801AE54B84F2D913C911197AA
:10191000DE018F01000F111FA00FB11F2D933C930B
:1019200011973196E6CF26E130E08E010E948709BB
:10193000E0EAF7E0208131812017310711F401E05E
:1019400001C000E06696A991B99108950E94CE0D5C
:10195000005079F00A9571F00A95B1F00A9589F175
:101960000A9509F443C00A9509F459C00A9509F487
:1019700073C008950E94C80D28EC30E00E94673DB6
:1019800002E00E94CB0D08950E94B60D002361F085
:101990000E94C80D20E137E20E94673D0E94C20DFF
:1019A00003E00E94CB0D08950E94C80D0E94813D66
:1019B000002331F004E00E94D10D00E00E94CB0D25
:1019C00008950E94BF0D002321F004E00E94CB0D7A
:1019D00008950E94C80D0E94813D002331F004E06B
:1019E0000E94D10D00E00E94CB0D089540E024E656
:1019F00030E000EA17E079DE012B51F00E94C80DBB
:101A000028EC30E00E94673D05E00E94CB0D089570
:101A100004E00E94D10D00E00E94CB0D08950E94C9
:101A2000B60D002361F00E94C80D20E137E20E944C
:101A3000673D0E94C20D06E00E94CB0D08950E94F2
:101A4000C80D0E94813D0023F1F004E00E94D10DF9
:101A500000E00E94CB0D08950E94BF0D002339F0D5
:101A600003E00E94D10D00E00E94CB0D08950E947A
:101A7000C80D0E94813D002331F004E00E94D10D89
:101A800000E00E94CB0D08950E94163F72DD20E019
:101A900000EA17E0A4DD012B11F400E057C0B0E02C
:101AA000A1E000E00E94D40D0A2F015059F00A95E0
:101AB00009F10A9581F10A95D1F10A95E9F10A95A2
:101AC000C9F13CC0BC30A0F42B2FECE1F8E0008160
:101AD000118185DDC801082F092B41F00E94D70D27
:101AE000002311F0A2E02AC0A4E028C0A5E026C08F
:101AF000A6E024C04B2F9C01ECE1F8E000811181AD
:101B00007FDE002311F0A3E019C00E94F909043020
:101B1000A9F4A5E013C00E94F909033011F4A4E070
:101B20000DC00E94F909043049F4A5E007C0B3953F
:101B3000A1E004C001E00AC000E008C007DF0AE03D
:101B400010E00E94F62E0E94EC09AECFE4E00C9467
:101B5000273F0E94173FC801A22F2A2F8C010E9405
:101B60006C2EE3E00C94283FE39A0895E19B02C0B9
:101B700000E0089501E0089500937208089500912F
:101B80007208089500E00E94BC0D0E94B40D0895F3
:101B90000EE118E0089500932608089500912608A4
:101BA0000895009327080895009328080895009148
:101BB000280808952AE133E0F80121833283F801EF
:101BC00020E020830895AD01D8018D01F3DF0EE1FF
:101BD00013E0FD0101831283FD0100E00383FD0199
:101BE00000E004838D01DA0108959A938A93C80175
:101BF000082F092B29F020FB1EF48C010E94303E97
:101C000089919991089508959A938A93C801082F0C
:101C1000092B29F020FB1EF48C010E94303E899193
:101C20009991089500916100016000936100089509
:101C300000916200016000936200089500916200CB
:101C40000E7F00936200089500916100006400938C
:101C5000610008950091620000640093620008959D
:101C6000009162000F7B0093620008950091610073
:101C70000260009361000895009162000260009389
:101C800062000895009162000D7F00936200089544
:101C9000009161000460009361000895009162006A
:101CA0000B7F009362000895BC9A0895C49808952C
:101CB000009161000061009361000895009162004D
:101CC0000061009362000895009162000F7E00930E
:101CD0006200089500916100006200936100089520
:101CE0000091620000620093620008950E94540E09
:101CF00002E001BF09E103BF08950000000008955C
:101D0000000008950E94120E0E941E0E0E94240ED2
:101D10000E942A0E0E94360E0E94420E0E94480E19
:101D20000E944E0E0E94540E0E94560E0E94580EA3
:101D30000E94640E0E946A0E0E94700E0E94760E2F
:101D400008950E94300E0E947D0E0E942A0E089572
:101D50009A938A93902F0E94640E80E08630B0F4AC
:101D600000E210E0482F0E944C3E192F102311234F
:101D700019F00E94180E02C00E941E0E0E943C0E16
:101D80000E94800E0E94420E8395E8CF0E94640E4E
:101D90008991999108959A938A93902F0E945E0E4B
:101DA00080E08830B0F400E810E0482F0E944C3EFC
:101DB000192F1023112319F00E94180E02C00E943F
:101DC0001E0E0E943C0E0E94800E0E94420E8395C1
:101DD000E8CF0E94640E899199910895BA93AA93CD
:101DE000D8018D010E94E30D04E613E0FD0101839B
:101DF00012838D01A991B99108950E94163FD801CF
:101E0000C9018D01EBDF08E613E0FD0101831283B8
:101E10008D010B5F1F4F0E943E3DFD01838794871C
:101E200020E08D010E94C3088D01E4E00C94273F5F
:101E30000E94163FC801D901082F092B51F020E05C
:101E400030E08C010E94040EA0FB1EF48C010E9465
:101E5000303EE4E00C94273F0E94163FD801C901B0
:101E60000A2F0B2BA9F008E613E0FD010183128372
:101E700022E030E08D010B5F1F4F0E94593D20E0B2
:101E800030E08D01D5DF80FB1EF48D010E94303ED5
:101E9000E4E00C94273F0E94163FD801922F832F35
:101EA0008D010E94C608005029F00A9561F00A953C
:101EB00021F148C0FD0100E0058721E08D010E946D
:101EC000C30800E040C0992321F0FD0105850160B1
:101ED0000587882321F0FD01058502600587FD0146
:101EE000238534858D010B5F1F4F0E94673D22E0E3
:101EF0008D010E94C30800E026C08D010B5F1F4FBB
:101F00000E94813D002331F020E08D010E94C30832
:101F100000E019C0992321F0FD01058501600587C6
:101F2000882321F0FD01058502600587FD010585F7
:101F3000033031F420E08D010E94C30801E003C0AA
:101F400000E001C000E0E4E00C94273F202F30E0E7
:101F5000E0E0F0E0E83000E0F0074CF4022F10E0A1
:101F60004E2F0E944C3E017030273196F3CF332321
:101F700011F401E0089500E00895980150E0E0E0D8
:101F8000F0E0EC3000E0F00744F44E2F89010E94AD
:101F9000473E017050273196F4CF552311F401E0EC
:101FA000089500E00895502F60E070E000E1509F38
:101FB00000E000220FE01022B00108E0509F00E78F
:101FC000002200E0102260297129052F017014E021
:101FD000019F60297129052F007FB8DF10E8019F5C
:101FE00060297129052F0E78B1DF18E0019F602963
:101FF0007129052F0D76AADF12E0019F6029712952
:10200000052F0B75A3DF10E0602B712B8B0108955A
:10201000080160E0800100701F70AFDF102D17FB1A
:1020200010E010F9011711F061E001C060E0660FE7
:10203000660F660F8001007718709FDF102D13FB6D
:1020400010E010F9011711F001E001C000E0000FED
:10205000000F602B8001047616708FDF102D11FBAE
:1020600010E010F9011711F001E001C000E0000FCD
:10207000602B80010475157080DF102D1170011721
:1020800011F001E001C000E0602B062F0895B801B7
:10209000222311F48B010895209328082A9501E04A
:1020A00010E0422F0E94423E602771278B01089565
:1020B000B80120E044E08B010E94473E007F202FC2
:1020C000062F0695069506950E70202B062F02FB0F
:1020D00000E000F9202B022F08951801810198DFFC
:1020E000202F8101D4DFE4DF089500FB16F40F5F99
:1020F0001F4F980136952795020F131F08950E94D0
:102100000B3F380159016A01222433244424552409
:10211000EE240C2D0D2941F0C0FA36F40FEFC00E5D
:102120000FEFD01EEE24E394882499248C149D0490
:1021300008F04BC0F501E40DF51D008134DF20E00F
:1021400030E0C801D90101E0400E00E0501EF50169
:10215000E40DF51D008127DFA80160E070E0ECE0F0
:102160008A019B014E2F0E949E3E802B912BA22B19
:10217000B32B01E0400E00E0501E8C01F301E20D94
:10218000F31D008301E0200E00E0301E892F9A2FFE
:10219000AB2FB0E08C01F301E20DF31D008301E0F1
:1021A000200E00E0301E892F9A2FAB2FB0E08C015B
:1021B000F301E20DF31D008301E0200E00E0301E6C
:1021C00002E0800E00E0901EB1CFEE20D9F1F501C3
:1021D000E40DF51D0081E7DE20E030E0C801D90103
:1021E00000E0E1DEA80160E070E0ECE08A019B0124
:1021F0004E2F0E949E3E802B912BA22BB32B8C0145
:10220000F301E20DF31D008301E0200E00E0301E1B
:10221000892F9A2FAB2FB0E08C01F301E20DF31D53
:10222000008301E0200E00E0301E892F9A2FAB2F93
:10223000B0E08C01F301E20DF31D008301E0200EFC
:1022400000E0301E8101EFE00C941C3F0E940A3F29
:10225000580149017A0166247724442455240E2D1F
:102260000F2951F043E050E087010E944F3E452B7B
:1022700019F000E010E057C0CC24DD24CE14DF04B8
:1022800008F050C0F401E40DF51D008110E020E0DD
:1022900030E0C801D90101E0400E00E0501EF40119
:1022A000E40DF51D008110E020E030E0322F212FF9
:1022B000102F00E0802B912BA22BB32B01E0400EBE
:1022C00000E0501EF401E40DF51D208130E000E037
:1022D00010E0802B912BA22BB32B01E0400E00E0ED
:1022E000501E8C010F7F1F70F8DEF501E60DF71D03
:1022F000008301E0600E00E0701E4CE08C019D0147
:102300000E94A53E0F7F1F70E8DEF501E60DF71D68
:10231000008301E0600E00E0701E03E0C00E00E0EC
:10232000D01EACCF8301E0E10C941B3F0E94163F0E
:10233000D801C9018D010E94E30D0CE613E0FD01F7
:10234000018312838D01075F1F4F0E943E3DFD01F7
:1023500085839683FD0100E00087FD0100E007838F
:1023600020E08D010E94C3088D01E4E00C94273F1A
:102370000E94163FD801C9010A2F0B2BB1F00CE6C1
:1023800013E0FD010183128322E030E08D01075F3D
:102390001F4F0E94593D20E030E08D010E94040E45
:1023A00080FB1EF48D010E94303EE4E00C94273F38
:1023B000BA93AA93D8011596ED91FC9116970995B9
:1023C000002311F001E001C000E0A991B991089546
:1023D0000E94163FD801822F8D01FD01218132819B
:1023E000F9013296259134913397F9010995FD0150
:1023F0000781081741F4FD0100E00783FD0100E0BB
:10240000008701E001C000E0E4E00C94273FBA93AC
:10241000AA93D8018D010E94C608005089F00A9540
:10242000C1F00A9541F10A9509F44EC00A9509F4E4
:1024300074C00A9509F49AC0025009F4BCC0C3C024
:10244000FD010085FD01078321E08D010E94C30885
:10245000BAC08D01ADDF002369F08D010E94E61244
:1024600098018D01075F1F4F0E94673D22E08D019B
:102470000E94C308A8C08D019BDF0023E1F08D01FD
:10248000075F1F4F0E94813D0023E9F08D010E94EC
:10249000EA1298018D01075F1F4F0E94673DFD0101
:1024A00002E00087FD010085FD01078323E08D0127
:1024B0000E94C30888C0FD010085FD01078320E05C
:1024C0008D010E94C3087FC08D0172DF0023E1F0FF
:1024D0008D01075F1F4F0E94813D0023E9F08D01B0
:1024E0000E94EE1298018D01075F1F4F0E94673D09
:1024F000FD0103E00087FD010085FD01078324E065
:102500008D010E94C3085FC0FD010085FD010783A6
:1025100020E08D010E94C30856C08D0149DF0023D1
:10252000E1F08D01075F1F4F0E94813D0023E9F01C
:102530008D010E94F21298018D01075F1F4F0E94CA
:10254000673DFD0104E00087FD010085FD01078373
:1025500027E08D010E94C30836C0FD010085FD0102
:10256000078320E08D010E94C3082DC08D0120DF6C
:102570000023E1F08D01075F1F4F0E94813D002382
:1025800011F18D010E94F61298018D01075F1F4F16
:102590000E94673DFD0105E00087FD010085FD010A
:1025A000078327E08D010E94C3080DC020E08D0144
:1025B0000E94C30808C08D01FBDE002321F420E047
:1025C0008D010E94C308A991B9910895980104E66C
:1025D00010E0089598010CED15E00895980108EBBE
:1025E0001BE00895980108E813E10895980102E3BB
:1025F00010E00895F80100810895F801048108951C
:1026000000916200046000936200089500916200EE
:102610000F7D009362000895000008959A938A93B5
:10262000C8010E94820E8991999108950E94173FD6
:10263000C8010E94A10EA0E0A03338F406EB13E01D
:1026400020E00E94352BA395F7CFA0E0A03308F03F
:1026500050C0EA2FF0E0EA57FC4F049110E048E048
:1026600050E00E94383E98018C01020F131F0E9417
:10267000FA120023B9F1EA2FF0E0EA57FC4F049177
:1026800010E048E050E00E94383E98018C01020FB3
:10269000131F0E94FD12015039F00A9559F00A9556
:1026A00079F0035099F018C00FEB13E020E00E947E
:1026B000522B1DC005EC13E020E00E94522B17C0E6
:1026C0000CEB13E020E00E94522B11C008EC13E049
:1026D00020E00E94522B0BC009EB13E020E00E9487
:1026E000522B05C009EB13E020E00E94522BA3956A
:1026F000ADCF0E9400130E940C130E944E0E0E9448
:102700000613E3E00C94283FBA93AA93D8018D01F5
:102710000E94E30D0BEC13E0FD01018312838D0198
:102720000B5F1F4F0E943E3D8D01A991B991089505
:10273000BA93AA93D8018D01E7DF05EE13E0FD01FE
:102740000183128320E08D010E947E1421E08D011F
:102750000E94C3088D01A991B99108950E94163F66
:10276000D801C9010A2F0B2BB1F00BEC13E0FD01CE
:102770000183128322E030E08D010B5F1F4F0E9426
:10278000593D20E030E08D010E94040E80FB1EF4D4
:102790008D010E94303EE4E00C94273F0E94163FDA
:1027A000C801D901082F092B49F020E030E08C0145
:1027B000D5DFA0FB1EF48C010E94303EE4E00C94B7
:1027C000273F0E94163FC8018C010E94C608005096
:1027D00051F00A9549F00A9539F10A95F9F10A95EF
:1027E00009F45EC088C087C00E943B340023B9F062
:1027F0000E944B34002371F00E944334D8018C01B5
:102800000E9484149D010E94673D23E08C010E9478
:10281000C30871C022E08C010E94C3086CC020E094
:102820008C010E94C30867C08C010E948114013092
:10283000A1F420E08C010E947E1401E00E94543437
:102840000E944334D8018C010E9484149D010E948F
:10285000673D23E08C010E94C3084DC08C010E949B
:102860008114013071F420E08C010E947E140E94DA
:102870004334D8018C010E9484149D010E94673D5D
:102880003AC08C010E9484140E94813D002399F17A
:1028900005E00E94FE0924E08C010E94C3082BC0C1
:1028A0008C010E948114015019F00A95B1F023C0E7
:1028B00020E08C010E947E1402E10E9487140E9495
:1028C0004334D8018C010E9484149D010E94673D0D
:1028D00023E08C010E94C3080EC020E08C010E94FE
:1028E0007E1400E00E94543402E10E94871422E02A
:1028F0008C010E94C308E4E00C94273FF801248374
:102900000895F801048108950B5F1F4F0895009307
:10291000900B089500E00E9487140E94643BFDCF55
:10292000BA93AA93D8018D010E94E30D0FEF13E033
:10293000FD01018312838D01A991B99108950E942F
:10294000163FC801D901082F092B51F020E030E0D3
:102950008C010E94040EA0FB1EF48C010E94303EEC
:10296000E4E00C94273FF801258308959A938A9315
:10297000C8018C010E94C608002311F401E001C0C7
:1029800000E08991999108950E94143F2801C9019E
:10299000DA01AD019C018201F20161817281FB01CA
:1029A0003696659174913797FB010995D801AD0171
:1029B0009C018201F20161817281FB013C9665916B
:1029C00074913D97FB010995E6E00C94253F0E9428
:1029D000113FD801722E632E842ECB01AC01362D0F
:1029E0003068272D8D01FD0161817281FB013A96CE
:1029F000659174913B97FB0109952801FC01E40D59
:102A0000F51D808201E0400E00E0501E8201E9E0E9
:102A10000C94223F0E94103F28010A012A843B8423
:102A20008C859D8550E06624A0E0B0E0A015B1053E
:102A3000F0F4490194012F5F3F4FFB01E80DF91DB0
:102A40000081002331F001E010E0462D0E94423E5B
:102A5000502B07E0601641F4F101E80FF91F508395
:102A6000019650E0662401C063941196DFCF662082
:102A700029F0F101E80FF91F508301968C01EEE077
:102A80000C94213F0E940A3F280159014A01CB01C1
:102A90008201F20121813281F9013E962591349122
:102AA0003F97F90109953801F501E60DF71D3197BA
:102AB000F080F501E60DF71DE080F501E60DF71D4C
:102AC000D180CC24F501E60DF71D028110E0C02A6B
:102AD000D12AF501E60DF71DB381A0E0F501E60D61
:102AE000F71D048110E0A02BB12B0A2F0B2B21F036
:102AF000A13D07E0B00740F0B40143E03E2D2F2D8B
:102B0000820165DFC80144C0F201028D138D960178
:102B10002A0F3B1F0217130740F4B40142E03E2D79
:102B20002F2D820154DFC80133C0A4013E2D2F2D6B
:102B30008201F20161817281FB013A966591749183
:102B40003B97FB010995C8010A2F0770002359F034
:102B500043E08D010E94473E0395F401E80FF91F01
:102B60000083019609C043E08D010E94473EF401B5
:102B7000E80FF91F008301969A938A939A928A929A
:102B8000F20162897389AD019601820143DFC801B8
:102B90008C01E0E10C941B3F0E940A3F280159017F
:102BA0004A01CB018201F20121813281F9013E9675
:102BB000259134913F97F90109953801F501E60D0A
:102BC000F71D3197F080F501E60DF71DE080F50166
:102BD000E60DF71DD180CC24F501E60DF71D02812D
:102BE00010E0C02AD12AF501E60DF71DB381A0E05F
:102BF000F501E60DF71D048110E0A02BB12B0A2F83
:102C00000B2B21F0A13D07E0B00740F0B40143E0F9
:102C10003E2D2F2D8201DBDEC80144C0F201048D60
:102C2000158D96012A0F3B1F0217130740F4B401BC
:102C300042E03E2D2F2D8201CADEC80133C0A4011F
:102C40003E2D2F2D8201F20161817281FB013A96A6
:102C5000659174913B97FB010995C8010A2F077094
:102C6000002359F043E08D010E94473E0395F40193
:102C7000E80FF91F0083019609C043E08D010E940F
:102C8000473EF401E80FF91F008301969A938A9357
:102C90009A928A92F20164897589AD019601820146
:102CA000B9DEC8018C01E0E10C941B3F0E940A3F91
:102CB000280169014A01CB018201F201218132819F
:102CC000F9013E96259134913F97F90109955801F4
:102CD000F601EA0DFB1D3197F080F601EA0DFB1DB0
:102CE000E080F601EA0DFB1DB181A0E0F601EA0DDE
:102CF000FB1D028110E0A02BB12BF601EA0DFB1D9C
:102D000073806624F601EA0DFB1D048110E0602A41
:102D1000712A062D072929F00EE7601600E07006DB
:102D200040F0B40143E03E2D2F2D820150DEC8015A
:102D300052C0F201068D178D9D01260D371D021719
:102D4000130740F4B40142E03E2D2F2D82013FDEF7
:102D5000C80141C0A4013E2D2F2D8201F2016181E5
:102D60007281FB013A96659174913B97FB0109953D
:102D7000C801062D000FF401E80FF91F008301962A
:102D800000E010E00615170530F5F2014689578975
:102D90009D01220F331F420F531FFA012081318101
:102DA000232F30E0F401E80FF91F20830196F20190
:102DB000468957899D01220F331F420F531FFA0185
:102DC00020813181F401E80FF91F208301961196CB
:102DD0000F5F1F4FD7CF8C01E0E10C941B3F0E9487
:102DE0000A3F280169014A01CB018201F2012181D8
:102DF0003281F9013E96259134913F97F901099569
:102E00005801F601EA0DFB1D3197F080F601EA0D3D
:102E1000FB1DE080F601EA0DFB1DB181A0E0F6018B
:102E2000EA0DFB1D028110E0A02BB12BF601EA0D8B
:102E3000FB1D73806624F601EA0DFB1D048110E082
:102E4000602A712A062D072929F00EE7601600E096
:102E5000700640F0B40143E03E2D2F2D8201B7DD16
:102E6000C80152C0F20100A111A19D01260D371D1C
:102E70000217130740F4B40142E03E2D2F2D8201CA
:102E8000A6DDC80141C0A4013E2D2F2D8201F20113
:102E900061817281FB013A96659174913B97FB01C8
:102EA0000995C801062D000FF401E80FF91F0083F2
:102EB000019600E010E00615170530F5F201408D8F
:102EC000518D9D01220F331F420F531FFA012081A4
:102ED0003181232F30E0F401E80FF91F20830196A0
:102EE000F201408D518D9D01220F331F420F531F60
:102EF000FA0120813181F401E80FF91F2083019646
:102F000011960F5F1F4FD7CF8C01E0E10C941B3F50
:102F10000E940A3F580129016A01CB018501F50190
:102F200021813281F9013E96259134913F97F90133
:102F300009953801F201E60DF71D3197F080F20195
:102F4000E60DF71DE080F201E60DF71D9180882463
:102F5000F201E60DF71D028110E0802A912AF501A9
:102F6000028D138D8016910640F0B60142E03E2D91
:102F70002F2D85012CDDC8012EC0F201E60DF71DB5
:102F8000B381A0E0F201E60DF71D048110E0A02B53
:102F9000B12BA0300FEFB00751F4940101E00E9473
:102FA0002D34AC01920186010E94323F14C00A2FD9
:102FB0000B2B51F4940100E00E942D34AC019201DE
:102FC00086010E94323F07C0B60143E03E2D2F2DFF
:102FD0008501FDDCC8018C01E0E10C941B3F0E94DF
:102FE0000C3F2801C9015A014B018201F2012181E4
:102FF0003281F9013E96259134913F97F901099567
:10300000D801FC01EA0FFB1F3197D080FC01EA0FC9
:10301000FB1FC080FC01EA0FFB1F71806624FC01CE
:10302000EA0FFB1F028110E0602A712AF201068D6F
:10303000178D6016710640F0B50142E03C2D2D2D34
:103040008201C5DC48011CC0FC01EA0FFB1F538153
:1030500040E0FC01EA0FFB1F048110E0402B512BE4
:10306000F201268937898301000F111F200F311FBC
:10307000F90140835183A4019C0185010E94323FE4
:103080008401EEE00C941D3F0E940A3F28013901A3
:103090006A01CB018201F20121813281F9013E9660
:1030A000259134913F97F90109954801F301E80D05
:1030B000F91D3197F080F301E80DF91DE080F3016F
:1030C000E80DF91DB180AA24F301E80DF91D028174
:1030D00010E0A02AB12AF301E80DF91DB381A0E0A8
:1030E000F301E80DF91D048110E0A02BB12B0A2F8C
:1030F0000B2B21F0A13B07E0B00740F0B60143E005
:103100003E2D2F2D820163DCC80134C0F201028DF7
:10311000138D95012A0F3B1F0217130740F4B601C8
:1031200042E03E2D2F2D820152DCC80123C0A501B3
:103130009D018301080D191D0A5F1F4F0E94F43382
:10314000A6013E2D2F2D8201F20161817281FB01CA
:103150003A96659174913B97FB010995C80144E04B
:1031600050E09301280F391F8601080F191F0E9494
:10317000323F04968C01E0E10C941B3F0E940A3F11
:10318000480129016A013B018401F4012181328156
:10319000F9013E96259134913F97F9010995C801AF
:1031A000F201E80FF91F3197F080F201E80FF91FE3
:1031B000E080F201E80FF91FB181A0E0F201E80F11
:1031C000F91F028110E0A02BB12BF201E80FF91FCB
:1031D000B380AA24F201E80FF91F048110E0A02AAD
:1031E000B12A0A2D0B2929F00CE7A01600E0B00641
:1031F00040F0B60143E03E2D2F2D8401E8DB38017D
:103200004FC0F401068D178D9D012A0D3B1D02173D
:10321000130740F4B60142E03E2D2F2D8401D7DB89
:1032200038013EC020E030E02A153B05E0F4F20111
:10323000E80FF91F568140E0F201E80FF91F0781FE
:1032400010E0402B512BF401668977898D01000F26
:10325000111F600F711FFB0140835183119602966D
:103260002F5F3F4FE1CFA6013E2D2F2D8401F401AA
:1032700061817281FB013A96659174913B97FB01E4
:103280000995380144E050E09201260D371D860172
:10329000060D171D0E94323F04E0600E00E0701E14
:1032A0008301E0E10C941B3F08010FEF1FEF08952D
:1032B000080100E010E008950E940E3F2801490136
:1032C000DA01CB018201F20121813281F9013E96BE
:1032D000259134913F97F90109953801F401E60DE4
:1032E000F71D3197B080F401E60DF71DA080AD0108
:1032F0003A2D2B2D8201F20161817281FB013A96F8
:10330000659174913B97FB010995C801FD01E80F98
:10331000F91F03E000830196FD01E80FF91F00E2A9
:1033200000830196FD01E80FF91F07E00083019675
:10333000FD01E80FF91F02E3008301968C01ECE028
:103340000C941F3F0E940A3F38014901DA01CB016A
:103350008301F30121813281F9013E962591349157
:103360003F97F90109952801F401E40DF51D319706
:10337000B080F401E40DF51DA080F401E40DF51D0D
:10338000E280FF248C0106501040E016F10641F067
:10339000BD0142E03A2D2B2D830119DBC8012CC160
:1033A000AD013A2D2B2D8301F30161817281FB0167
:1033B0003A96659174913B97FB010995C801F40118
:1033C000E40DF51D0381005049F00A9579F10A9545
:1033D00009F49DC00A9509F4E0C007C1FD01E80F9A
:1033E000F91F00E000830196FD01E80FF91F04E0DA
:1033F00000830196F401E40DF51D0381FD01E80F42
:10340000F91F00830196FD01E80FF91F02E0008318
:103410000196FD01E80FF91F00E000830196FD0110
:10342000E80FF91F02E000830196E6C0F401E40D05
:10343000F51D0481C02E0E94FC090C1540F4BD014D
:1034400042E03A2D2B2D8301C2DAC801D5C0CC2031
:10345000B9F52C2D8D01040D151D0B5F1F4F0E941A
:10346000790A2091BF0CFD01E40DF51D2583209103
:10347000BE0CFD01E40DF51D2683FD01E40DF51DD7
:1034800020E32783FD01E80FF91F20E02083019648
:10349000202F2E5FFD01E80FF91F20830196F40114
:1034A000E40DF51D2381FD01E80FF91F208301962E
:1034B000FD01E80FF91FC0820196800F911F9CC08B
:1034C0002C2D8D01040D151D0B5F1F4F0E94790AD5
:1034D0009801FD01E80FF91F00E000830196022F1B
:1034E0000E5FFD01E80FF91F00830196F401E40D62
:1034F000F51D0381FD01E80FF91F00830196FD0111
:10350000E80FF91FC0820196820F931F75C0F40166
:10351000E40DF51D0481C02E0E94FC090C1540F439
:10352000BD0142E03A2D2B2D830151DAC80164C060
:103530000C2D0E94850A9801F401E40DF51D02810D
:1035400010E0025010400217130741F0BD0143E0A4
:103550003A2D2B2D83013BDAC8014EC02C2D84015E
:10356000040D151D0B5F1F4F0E94950A012B69F07A
:103570000E94530A03E10E948714BD0145E03A2DE1
:103580002B2D830124DAC80137C0BD0147E03A2D55
:103590002B2D83011CDAC8012FC00E94F9090330CA
:1035A00081F4AD013A2D2B2D8301F30161817281EC
:1035B000FB013A96659174913B97FB010995C8010F
:1035C0001BC00E94F909013041F4BD0146E03A2DCB
:1035D0002B2D8301FCD9C8010FC0BD0141E03A2D5C
:1035E0002B2D8301F4D9C80107C0BD0141E03A2D5C
:1035F0002B2D8301ECD9C8018C01E0E10C941B3F19
:103600000E940E3FD80149012A01CB018D01FD0125
:1036100021813281F9013E96259134913F97F9013C
:1036200009953801F401E60DF71D3197B080F401DA
:10363000E60DF71DA0800E94F909033081F4A20174
:103640003A2D2B2D8D01FD0161817281FB013A968E
:10365000659174913B97FB010995C80113C00E94C5
:10366000F909013041F4B20146E03A2D2B2D8D01CC
:10367000AED9C80107C0B20141E03A2D2B2D8D0112
:10368000A6D9C8018C01ECE00C941F3F0E940B3FAF
:10369000D80129013A015B018D01FD0121813281AF
:1036A000F9013E96259134913F97F901099548011A
:1036B000F201E80DF91D3197C080F201E80DF91D06
:1036C000E080C501DC2CDD0CDD08FD01058110E08A
:1036D000C016D10629F0CC2019F000E010E070C02F
:1036E0000E2D102F110F110BE0EAF0E0FBBFF8E0F8
:1036F0000C94CD3EBC01A30192018D01C3D9C80138
:103700005BC0BC01A30192018D0146DAC80154C01F
:10371000BC01A30192018D01C9DAC8014DC0BC01F1
:10372000A30192018D015BDBC80146C0BC01A3016E
:1037300092018D01EDDBC8013FC0BC01A3019201E4
:103740008D014DDCC80138C0BC01A30192018D017F
:10375000ABDDC80131C0BC01A30192018D0194DC35
:10376000C8012AC0BC01A30192018D0149DFC80133
:1037700023C0BC01A30192018D0100DDC8011CC062
:10378000BC01A30192018D0197DDC80115C0BC01E8
:10379000A30192018D018CDDC8010EC0BC01A30103
:1037A00092018D01CFDDC80107C0B30141E03E2D7C
:1037B0002C2D8D010CD9C801FD01848795878C01C2
:1037C000EFE00C941C3FB80101E010E008950E9466
:1037D0000E3FD80129013A018D01FD01218132817D
:1037E000F9013E96259134913F97F9010995C80159
:1037F000F201E80FF91F31979080F201E80FF91FED
:1038000080805301FD010681091591F4FD010781B6
:10381000081571F402E0801641F4A5019201280F09
:10382000391F2E5F3F4F8D01CEDF01E010E02DC02C
:103830008D01FD0121813281F9017096259134912C
:103840007197F901099598018C01020F131F0E5F02
:103850001F4FA016B10631F487FA16F401E003C039
:1038600000E001C000E0002371F0F201E80FF91F51
:1038700021812C302CF4022F102F110F110B05C0B9
:103880000EE010E002C001E010E0ECE00C941F3FFD
:10389000980101E010E00895980102E010E0089519
:1038A0000E94143FC801D9010A2F0B2B11F401E02B
:1038B00001C000E0002379F009E4402E04E0502E1E
:1038C000DC011F96FC01A587B6878C01015F1F4FA5
:1038D0000E94901406C0FC0143845484FC01A58717
:1038E000B68707E214E0FC0103871487F201059113
:1038F00014913197FD01018312838C01E6E00C9451
:10390000253F0E94163FC801D901082F092B79F0E5
:103910000A2F0B2B39F020E030E08C01015F1F4FA4
:103920000E949F14A0FB1EF48C010E94303EE4E034
:103930000C94273F0F501040E4CF0E940A3F22977B
:1039400028833983D8012A013B018D889E888F897D
:10395000988DED8CFE8CCF8CD8A0A9A0BAA0088140
:1039600019810D931C931197FD0142825382648249
:1039700075820A89FD0100870B89FD0106830C8988
:10398000FD010783FD0105851685F801868697866A
:10399000FD0105851685F801808B918B298D3A8D67
:1039A000FD0105851685F801228B338B2B8D3C8D0F
:1039B000FD0105851685F801248B358BFD010585F4
:1039C0001685F801E68AF78AFD0105851685F80156
:1039D000C08ED18EFD0105851685F801A28EB38EAD
:1039E0002BA13CA1FD0105851685F801248F358F9B
:1039F0002DA13EA1FD0105851685F801268F378F83
:103A00002FA138A5FD0105851685F80120A331A356
:103A1000FD01428153816481758100E412E42FE04D
:103A200030E00E94A83E40E250E060E070E00E947A
:103A30007A3E0801190148EE53E060E070E0800131
:103A400091010E94A83E0F5F1F4FFD010187128761
:103A5000FD0105851685F801428D538D20E030E08B
:103A6000FD0105851685F801028913890E94423FF0
:103A7000FD0105851685F801448D558D20E030E067
:103A8000FD0105851685F801048915890E94423FCC
:103A9000FD0105851685F801468D578D440F551F8C
:103AA00020E030E0FD0105851685F80106891789BB
:103AB0000E94423FFD0105851685F80140A151A1F4
:103AC000440F551F20E030E0FD0105851685F80103
:103AD000008D118D0E94423F9A938A939A928A9206
:103AE000FD0107810A93FD013681FD012085FD015D
:103AF00042815381648175810D911C9111970E94BF
:103B0000D92B2296E7E20C941B3FBA93AA93D801D3
:103B10000D911C9111970E940E2CA991B9910895B5
:103B2000BA93AA93D8010D911C9111970E941D2C54
:103B3000A991B9910895BA93AA93D8010D911C91B6
:103B400011970E942E2CA991B9910895BA93AA9326
:103B5000D8010D911C9111970E945C2CA991B991EB
:103B60000895BA93AA93D8010D911C9111970E94C0
:103B7000772CA991B99108950E94143F2801D90189
:103B8000CA019C018D010E9487099801022FFD0145
:103B9000E80FF91F008301968901012F10E0FD0154
:103BA000E80FF91F008301968C01E6E00C94253F95
:103BB0000F501040E1CF1D010801E881F9812083F9
:103BC00031838A01012F10E00283042F03838B01CC
:103BD000012F10E00483062F058306E010E0D101D9
:103BE000229608950F501040E6CFB801FA012083C5
:103BF000FA01318302E010E008950F501040F5CF34
:103C00000E94143FD8012901CA01AC0192010D9113
:103C10001C9111970E948B2CE6E00C94253F0F50CD
:103C20001040EECFBA93AA93D8010D911C91119731
:103C30000E941621A991B9910895BA93AA93D80127
:103C40000D911C9111970E941321A991B99108958A
:103C50000E94143FD8012901CA01AC0192010D91C3
:103C60001C9111970E94932CE6E00C94253F0E9432
:103C7000163FD801C9010E941921FD01258536850D
:103C8000F90122853385021B130B0817190710F061
:103C900001E001C000E0E4E00C94273FBA93AA934E
:103CA000D8010E941921FD0125853685F901028779
:103CB0001387A991B99108950E94103F4801D90135
:103CC000CA01843000E0900710F400E021C0FD013B
:103CD000E80FF91F319750804424FD01E80FF91FC8
:103CE0003297008110E0402A512A9C012250304036
:103CF0008D010E94870938019C01225030408D01BE
:103D00000E9487090415150511F401E001C000E0C7
:103D1000EAE00C94213F0E94163FD801FD01058581
:103D200016850E94C608E4EDF0E0FBBFF8E00C94B5
:103D3000CD3E8D01EADE8D01F3DE23E0FD01058538
:103D400016850E94C30859C28D01A8DFFD010585B3
:103D50001685F80100E0048700E0058724E0FD01F6
:103D6000058516850E94C30848C28D0166DF0023C1
:103D7000F1F140E051E0FD0105851685F80104856B
:103D80001585401B510BFD0105851685F80126851B
:103D90003785FD0105851685F80104851585200FF9
:103DA000311F8D0155DFC801813000E090079CF084
:103DB000FD0105851685F80104851585080F191F75
:103DC000048715878D016ADF25E0FD0105851685CD
:103DD0000E94C3080CC08F3F0FEF900741F48D0184
:103DE00094DE23E0FD01058516850E94C30828E9BD
:103DF0003AE38D013CDF002341F08D0186DE23E0B4
:103E0000FD01058516850E94C308F7C18D0115DFE8
:103E10000023C1F140E051E0FD0105851685F80160
:103E200004851585401B510BFD0105851685F8019C
:103E300026853785FD0105851685F80104851585DC
:103E4000200F311F8D0104DFC801813000E0900791
:103E50006CF0FD0105851685F80104851585080FB0
:103E6000191F048715878D0119DF0CC08F3F0FEFD5
:103E7000900741F48D0149DE23E0FD01058516859B
:103E80000E94C308FD01218532858D01F0DE0023EB
:103E9000F9F0FD0105851685F80144855585FD017C
:103EA00005851685F801268537858D0105DF0023F8
:103EB00039F026E0FD01058516850E94C3089DC1E5
:103EC0008D0123DE23E0FD01058516850E94C308D0
:103ED00094C1FD0105851685F80164857585FD0190
:103EE00005851685F80140895189FD0105851685EE
:103EF000F80126853785FD01058516850E94461B3C
:103F0000012B49F00E941E2127E0FD010585168541
:103F10000E94C30872C10E9420218D01F6DD23E0BA
:103F2000FD01058516850E94C30867C18D01B6DEB7
:103F30008D01EBDD28E0FD01058516850E94C30893
:103F40005CC125E030E08D0192DE0023C9F0FD0167
:103F500005851685F80144855585FD01058516857D
:103F6000F80120893189FD01058516850E94C41458
:103F70008D01ECDD29E0FD01058516850E94C30851
:103F80003CC18D014FDE002341F00E94202123E03F
:103F9000FD01058516850E94C3082FC18D01CBDD6B
:103FA00020E0FD01058516850E94C30826C18D010C
:103FB00075DE8D01AADDFD0105851685F80100E09D
:103FC000048700E005878D01ABDD2DE0FD0105854F
:103FD00016850E94C30811C18D012FDE0023E1F177
:103FE00040E051E0FD0105851685F8010485158541
:103FF000401B510BFD0105851685F8012685378587
:10400000FD0105851685F80104851585200F311FF2
:104010008D011EDEC801813000E090079CF08D010B
:104020003DDEFD0105851685F80104851585080F1F
:10403000191F048715872EE0FD01058516850E944E
:10404000C3080AC08F3F0FEF900731F423E1FD0151
:10405000058516850E94C30828EE33E08D0107DE32
:10406000002331F023E1FD01058516850E94C30878
:10407000C4C08D01E2DD0023B1F140E051E0FD015B
:1040800005851685F80104851585401B510BFD013A
:1040900005851685F80126853785FD010585168578
:1040A000F80104851585200F311F8D01D1DDC80170
:1040B000813000E090076CF08D01F0DDFD01058599
:1040C0001685F80104851585080F191F04871587C3
:1040D0000AC08F3F0FEF900731F423E1FD01058502
:1040E00016850E94C308FD01218532858D01BFDD43
:1040F0000023E9F0FD0105851685F8014485558505
:10410000FD0105851685F801268537858D01D4DDED
:10411000002339F02FE0FD01058516850E94C308B4
:104120006CC023E1FD01058516850E94C30865C0AA
:10413000FD0105851685F80144855585FD01058538
:104140001685F80126853785FD01058516850E94AF
:10415000E71B012B39F023E1FD01058516850E943F
:10416000C3084BC023E1FD01058516850E94C308E5
:1041700044C08D0193DD8D01C8DC0E941E2121E128
:10418000FD01058516850E94C30837C025E030E093
:104190008D016DDD002389F1FD0105851685F8018E
:1041A00044855585FD0105851685F80120893189ED
:1041B000FD01058516850E94C4148D01C7DC22E12E
:1041C000FD01058516850E94C30817C08D012ADDF3
:1041D000002399F08D01C5DC0E9420212CE0FD0117
:1041E000058516850E94C30808C08D01A4DC20E067
:1041F000FD01058516850E94C308E4E00C94273F65
:104200000F50104088CD980101E010E008950F5044
:1042100010400C940321980102E010E008950F5023
:1042200010400C940B21F80102A50895F80103A594
:104230000895E3E7F8E0008111810895DB9808957F
:10424000DB9A08950E94163FD801822F8D01055FE9
:104250001F4F0E94E30D01E614E0FD010187128764
:1042600007E614E0FD01048715878C9320E08D019B
:10427000055F1F4F0E94C3088D01E4E00C94273FA7
:104280000E94163FC801D901082F092B61F020E0D8
:1042900030E08C01055F1F4F0E94040EA0FB1EF44E
:1042A0008C010E94303EE4E00C94273F0B501040FC
:1042B000E7CF1D01D801F9010081FD01008BF90153
:1042C00001811281FD01018B128BF901038114819F
:1042D000FD01038B148BF90105811681FD01058316
:1042E0001683F90107811085FD01058B168BF901F5
:1042F00000891189FD01038F148FF901028513854F
:10430000FD01078B108FF90145855685F901078559
:1043100010E0000F111F400F511FFD01418F528F00
:10432000F9010785085F0787F90160897189F9013B
:10433000028910E048E150E00E94383E600F711F92
:10434000FD01638F748FF9010289085F028BF90107
:10435000038914890F5F1F4FFD0107831087FD013B
:1043600000E0058FD10108950E94143FD801FD019E
:10437000038914890E5F1F4FC80100E0083078F4EC
:10438000FD01238D348D10E0200F311FF9012081B4
:1043900010E0FC01E00FF11F20830395EFCF28E030
:1043A00030E08C010E94A7092801FD0103891489CE
:1043B000065F1F4FC801042DFC0100830196820196
:1043C000012F10E0FC010083FD0103891489F8012D
:1043D00001E80083FD0100890E94FC310AE613E038
:1043E00001501040E9F700C000004DE050E0FD0131
:1043F00023893489FD01018912890E94D72E0E94E8
:104400002132FD0101891289F8010181013849F445
:10441000FD0101891289F80104850E3711F401E0CC
:1044200001C000E0E6E00C94253F0E94103FD80157
:10443000992420E0283020F5FD01038D148D30E013
:10444000020F131FF80100850F3FC1F0FD01058920
:104450001689FD01438D548D30E0420F531FFA0140
:10446000408550E0040F151FF8010081002331F052
:1044700001E010E0422F0E94423E902A2395DACFBD
:10448000882420E0283020F5FD01038D148D30E0D4
:10449000020F131FF80100890F3FC1F0FD010589CC
:1044A0001689FD01438D548D30E0420F531FFA01F0
:1044B000408950E0040F151FF8010081002331F0FE
:1044C00001E010E0422F0E94423E802A2395DACF7D
:1044D0005524FD010381002329F0FD0100E0038341
:1044E000689450F8FD010481002329F0FD0100E0EB
:1044F0000483689451F8FD010181002329F0FD0136
:1045000000E00183689452F8FD010281002329F044
:10451000FD0100E00283689453F8FD0103891489CA
:10452000F80102E40083FD01038914890E5F1F4F27
:10453000C801442420E02830A8F4FD01018D128D2B
:10454000422F50E0440F551F040F151FF801018141
:10455000002331F001E010E0422F0E94423E402A49
:104560002395E9CFFC0140820196442420E02830C5
:10457000A8F4FD01018D128D422F50E0440F551F0C
:10458000040F151FF8010081002331F001E010E055
:10459000422F0E94423E402A2395E9CFFC014082EF
:1045A0000196FC0190820196FC0180820196FC013B
:1045B0005082019625E030E0FD01038914890E5FE9
:1045C0001F4F0E94A7093801062DFC0100830196A8
:1045D0008301012F10E0FC0100830196FC010EE72E
:1045E00000830196FD0100890E94FC310AE613E078
:1045F00001501040E9F700C000004AE050E0FD0122
:1046000023893489FD01018912890E94D72E0E94D5
:104610002132FD0101891289F8010181045209F456
:1046200047C00E5109F04EC025E030E0FD01018980
:1046300012890E5F1F4F0E94B50901301040BCF176
:10464000FD0101891289F80101850E37D9F5FD01B7
:1046500000E0058F20E08D010E949823FD01018973
:104660001289F8010281402E20E02830F0F401E0A8
:1046700010E0422F0E94423E142D1023112351F0CE
:10468000FD010789108D30E0020F131FF80101E0D2
:10469000008309C0FD010789108D30E0020F131F50
:1046A000F80100E000832395E0CF01E020C00AC0BC
:1046B000FD01058D043130F420E08D01055F1F4FB1
:1046C0000E94C308FD01058D043130F4FD01058D04
:1046D0000395058F00E00BC0FD0105811681F801EF
:1046E00002E0008321E08D010E94982300E0EAE0CF
:1046F0000C94213F0E94173FC8018C01055F1F4F9A
:104700000E94C608005019F00A9559F00DC08C019E
:104710002BDEA02F21E08C01055F1F4F0E94C308F4
:1047200003C08C0182DEA02F0A2FE3E00C94283F07
:10473000AD01F801A781B0852C93DA0108950E949C
:10474000163FD801822F8D01055F1F4F0E94E30D98
:1047500001E814E0FD010187128707E814E0FD017C
:10476000048715878C938D01E4E00C94273F0E9409
:10477000163FC801D901082F092B61F020E030E075
:104780008C01055F1F4F0E94040EA0FB1EF48C01DC
:104790000E94303EE4E00C94273F0B501040E7CFDE
:1047A000BD01D801F9010081FD01008BF9010181F2
:1047B0001281FD01018B128BF90103811481FD012E
:1047C000038B148BF90105811681FD010583168386
:1047D000F90147815085F901018510E0400F511F13
:1047E000FD01458B568BF9010185085E0187F901B2
:1047F00003891489FD0107831087FD0100E0078B01
:10480000DB0108950E94163FD8015396ED91FC916B
:10481000549702E40083FD0100890E94FC310AE6FE
:1048200013E001501040E9F700C0000049E050E0FB
:10483000FD0123893489FD01018912890E94D72E47
:104840000E9421325196ED91FC91529701810452C0
:1048500009F440C00E51F1F527E030E0FD01018977
:1048600012890F5F1F4F0E94D9090130104094F147
:10487000FD0100E0078B20E08D010E949823FD01DF
:104880008589968960E0663018F5FD0101891289F5
:1048900070E0060F171FF801328120E02830B0F4D5
:1048A00020FB96F001E010E0422F0E94423E132FC1
:1048B0001023112329F0FC0101E00083019604C0BC
:1048C000FC0100E0008301962395E8CF6395DBCFE0
:1048D00001E015C0FD010789043130F4FD010789AD
:1048E0000395078B00E00BC01596ED91FC91169790
:1048F00001E0008321E08D010E94982300E0E4E0C4
:104900000C94273FF80123830895BA93AA93D80102
:104910008D010E94E30D0BE814E0FD010183128379
:104920008D010A5F1F4F0E943E3D25E28D010E94CE
:10493000C30825E28D010E9482248D01A991B991BD
:104940000895BA93AA93D8018D01DFDF0FEA14E02E
:10495000FD010183128325E28D010E94C30825E237
:104960008D010E9482248D01A991B9910895BA9375
:10497000AA93D8018D01C9DF03ED14E0FD01018385
:10498000128325E28D010E94C30825E28D010E9459
:1049900082248D01A991B9910895BA93AA93D8015F
:1049A0008D01B3DF01E315E0FD010183128328E1EE
:1049B0008D010E94C30828E18D010E9482248D018F
:1049C000A991B9910895BA93AA93D8018D019DDF59
:1049D00005E515E0FD010183128325E28D010E94AA
:1049E000C30825E28D010E9482248D01A991B9910D
:1049F0000895BA93AA93D8018D0187DF07EF14E0D9
:104A0000FD010183128325E28D010E94C30825E286
:104A10008D010E9482248D01A991B99108950E946F
:104A2000163FD801C9010A2F0B2BB1F00BE814E097
:104A3000FD010183128322E030E08D010A5F1F4FE8
:104A40000E94593D20E030E08D010E94040E80FB61
:104A50001EF48D010E94303EE4E00C94273FBA938F
:104A6000AA93D8018D010E94C608E2E0F0E0FBBFE6
:104A7000F9E00C94CD3E8D011196ED91FC911297C9
:104A80007096259134917197F901099598018D01DE
:104A90000A5F1F4F0E94673D8D011196ED91FC91B9
:104AA00012973496259134913597F901099529E1AA
:104AB0008D010E94C3086AC28D010A5F1F4F0E94C8
:104AC000813D002301F18D011196ED91FC9112972A
:104AD0007296259134917397F901099598018D018A
:104AE0000A5F1F4F0E94673D8D011196ED91FC9169
:104AF00012973C96259134913D97F90109952AE149
:104B00008D010E94C30842C28D010A5F1F4F0E949F
:104B1000813D002301F18D011196ED91FC911297D9
:104B20007096259134917197F901099598018D013D
:104B30000A5F1F4F0E94673D8D011196ED91FC9118
:104B400012973496259134913597F901099529E109
:104B50008D010E94C3081AC28D011196ED91FC913E
:104B600012977096259134917197F90109959801E2
:104B70008D010A5F1F4F0E94673D8D011196ED91D7
:104B8000FC9112973696259134913797F901099542
:104B900022E08D010E94C308F9C18D010A5F1F4FF9
:104BA0000E94813D002321F021E08D010E94C30875
:104BB000EDC18D011196ED91FC911297749625919E
:104BC00034917597F901099598018D010A5F1F4F7E
:104BD0000E94673D8D011196ED91FC9112973896D8
:104BE000259134913997F901099528E08D010E94AA
:104BF000C308CCC18D010A5F1F4F0E94813D002375
:104C000001F18D011196ED91FC9112977696259107
:104C100034917797F901099598018D010A5F1F4F2B
:104C20000E94673D8D011196ED91FC9112973C9683
:104C3000259134913D97F901099529E08D010E9454
:104C4000C308A4C18D010A5F1F4F0E94813D00234C
:104C500001F18D011196ED91FC91129774962591B9
:104C600034917597F901099598018D010A5F1F4FDD
:104C70000E94673D8D011196ED91FC911297389637
:104C8000259134913997F901099528E08D010E9409
:104C9000C3087CC18D011196ED91FC911297789615
:104CA000259134917997F901099598018D010A5F51
:104CB0001F4F0E94673D8D011196ED91FC91129757
:104CC0003A96259134913B97F90109952EE08D0193
:104CD0000E94C3085BC18D010A5F1F4F0E94813D86
:104CE000002301F18D011196ED91FC9112977A96B6
:104CF000259134917B97F901099598018D010A5FFF
:104D00001F4F0E94673D8D011196ED91FC91129706
:104D10003C96259134913D97F90109952FE08D013D
:104D20000E94C30833C18D010A5F1F4F0E94813D5D
:104D3000002301F18D011196ED91FC911297789667
:104D4000259134917997F901099598018D010A5FB0
:104D50001F4F0E94673D8D011196ED91FC911297B6
:104D60003A96259134913B97F90109952EE08D01F2
:104D70000E94C3080BC18D011196ED91FC91129711
:104D80007C96259134917D97F901099598018D01C3
:104D90000A5F1F4F0E94673D8D011196ED91FC91B6
:104DA00012973A96259134913B97F901099524E1A0
:104DB0008D010E94C308EAC08D010A5F1F4F0E9447
:104DC000813D002301F18D011196ED91FC91129727
:104DD0007E96259134917F97F901099598018D016F
:104DE0000A5F1F4F0E94673D8D011196ED91FC9166
:104DF00012973C96259134913D97F901099525E14B
:104E00008D010E94C308C2C08D010A5F1F4F0E941E
:104E1000813D002301F18D011196ED91FC911297D6
:104E20007C96259134917D97F901099598018D0122
:104E30000A5F1F4F0E94673D8D011196ED91FC9115
:104E400012973A96259134913B97F901099526E1FD
:104E50008D010E94C3089AC08D010A5F1F4F0E94F6
:104E6000813D002301F18D011196ED91FC91129786
:104E7000B09625913491B197F901099598018D016A
:104E80000A5F1F4F0E94673D8D011196ED91FC91C5
:104E900012973C96259134913D97F901099527E1A8
:104EA0008D010E94C30872C08D010A5F1F4F0E94CE
:104EB000813D002301F18D011196ED91FC91129736
:104EC0007C96259134917D97F901099598018D0182
:104ED0000A5F1F4F0E94673D8D011196ED91FC9175
:104EE00012973A96259134913B97F901099524E15F
:104EF0008D010E94C3084AC08D011196ED91FC916D
:104F00001297B29625913491B397F90109959801BA
:104F10008D010A5F1F4F0E94673D8D011196ED9133
:104F2000FC9112973896259134913997F90109959A
:104F30002FE18D010E94C30829C08D010A5F1F4F18
:104F40000E94813D002311F18D011196ED91FC919C
:104F500012973C96259134913D97F90109958D0161
:104F60000E94BE2A202F8D010E94C3080FC08D0110
:104F70001196ED91FC9112973C96259134913D97B5
:104F8000F901099520E08D010E94C308A991B9910A
:104F900008950E94163FC801D901082F092B69F016
:104FA00025E28C010E94C30820E030E08C0137DD4F
:104FB000A0FB1EF48C010E94303EE4E00C94273FDD
:104FC0000E94173FC801A22F8C010E94C608202F03
:104FD0008C010E9482240A2FE2E4F0E0FBBFF9E09A
:104FE0000C94CD3E25E28C010E94C3080EC021E046
:104FF0008C010E94C30809C027E08C010E94C308ED
:1050000004C027E08C010E94C308E3E00C94283F11
:1050100008959A938A93C80101E00E94EE3989911C
:10502000999108959A938A93C80102E00E94EE39FB
:1050300089919991089508959A938A93C80102E0FD
:105040000E94183A0E94A6318991999108950E9470
:10505000163FC801D901082F092B69F025E28C0100
:105060000E94C30820E030E08C01D9DCA0FB1EF4D4
:105070008C010E94303EE4E00C94273F0E94173FD1
:10508000C801A22F8C010E94C608202F8C010E940B
:1050900082240A2FE8E5F0E0FBBFF9E00C94CD3E56
:1050A00025E28C010E94C3080EC021E08C010E9401
:1050B000C30809C025E28C010E94C30804C02DE08A
:1050C0008C010E94C308E3E00C94283F08959A9352
:1050D0008A93C80101E00E94EE398991999108955F
:1050E00008959A938A93C80103E00E94EE3989914A
:1050F000999108959A938A93C80103E00E94183AFF
:105100000E94A6318991999108950E94163FC80185
:10511000D901082F092B69F025E28C010E94C308F0
:1051200020E030E08C017BDCA0FB1EF48C010E94AF
:10513000303EE4E00C94273F0E94173FC801A22FA5
:105140008C010E94C608202F8C010E9482240A2F05
:10515000EEE6F0E0FBBFF9E00C94CD3E28E18C01D7
:105160000E94C30813C028E18C010E94C3080EC02E
:1051700027E08C010E94C30809C02DE08C010E9429
:10518000C30804C023E18C010E94C308E3E00C942F
:10519000283F9A938A93C8010E94312B8991999153
:1051A000089508959A938A93C8010E94312B89919A
:1051B000999108959A938A93C8010E94312B8991FD
:1051C000999108959A938A93C8010E94332B0E9463
:1051D000A6318991999108950E94163FC801D9017D
:1051E000082F092B69F025E28C010E94C30820E0FA
:1051F00030E08C0114DCA0FB1EF48C010E94303ED8
:10520000E4E00C94273F0E94173FC801A22F8C01B5
:105210000E94C608202F8C010E9482240A2FE4E8F5
:10522000F0E0FBBFF9E00C94CD3E25E28C010E943A
:10523000C30818C025E28C010E94C30813C027E0F0
:105240008C010E94C3080EC02DE08C010E94C3088F
:1052500009C023E18C010E94C30804C02EE18C0127
:105260000E94C308E3E00C94283F9A938A93C801F4
:105270000E9474098991999108959A938A93C8011B
:105280000E9474098991999108959A938A93C8010B
:105290000E9462098991999108959A938A93C8010D
:1052A0000E946B098991999108959A938A93C801F4
:1052B0000E9474090E94A6318991999108950E94D3
:1052C000163FC801D901082F092B69F025E28C018E
:1052D0000E94C30820E030E08C01A1DBA0FB1EF49B
:1052E0008C010E94303EE4E00C94273F08959A938D
:1052F0008A93C80101E00E94603A0E946209899184
:10530000999108959A938A93C80101E00E94603AA6
:105310000E9462098991999108959A938A93C8018C
:1053200002E00E94603A0E94620989919991089571
:105330009A938A93C80103E00E94603A0E9462092E
:105340008991999108959A938A93C8010E9474094A
:105350000E94AB310E94A631899199910895BA9328
:10536000AA93D8018D010E94C6080050E9F00A9561
:10537000E1F00A95D9F10A9509F460C0045009F4E6
:1053800069C00A9509F4F7C00A9509F484C004506D
:1053900009F48DC00A9509F4ABC00A9509F4D0C090
:1053A000065109F4D9C0E7C0E6C08D011196ED9110
:1053B000FC9112977096259134917197F901099596
:1053C00098018D010A5F1F4F0E94673D8D01119664
:1053D000ED91FC9112973696259134913797F9010A
:1053E000099522E08D010E94C308C5C08D010A5FA6
:1053F0001F4F0E94813D002301F18D011196ED9117
:10540000FC9112977296259134917397F901099541
:1054100098018D010A5F1F4F0E94673D8D01119613
:10542000ED91FC9112973C96259134913D97F901AD
:10543000099523E08D010E94C3089DC08D010A5F7C
:105440001F4F0E94813D002321F027E08D010E9423
:10545000C30891C08D011196ED91FC91129774963D
:10546000259134917597F901099598018D010A5F8D
:105470001F4F0E94673D8D011196ED91FC9112978F
:105480003896259134913997F901099528E08D01D5
:105490000E94C30870C08D010A5F1F4F0E94813DAA
:1054A000002321F02DE08D010E94C30864C08D010E
:1054B0001196ED91FC9112977896259134917997F8
:1054C000F901099598018D010A5F1F4F0E94673D00
:1054D0008D011196ED91FC9112973A962591349198
:1054E0003B97F90109952EE08D010E94C30843C046
:1054F0008D010A5F1F4F0E94813D0023E1F18D0164
:105500001196ED91FC9112977A96259134917B97A3
:10551000F901099598018D010A5F1F4F0E94673DAF
:105520008D011196ED91FC9112973C962591349145
:105530003D97F90109952FE08D010E94C3081BC01A
:105540008D010A5F1F4F0E94813D0023A1F025E2DB
:105550008D010E94C3080FC08D011196ED91FC9141
:1055600012973C96259134913D97F901099520E0D9
:105570008D010E94C308A991B9910895F801038192
:105580000895980100ED17E00895980100ED17E0E7
:105590000895980100E213E0089598010CE211E0EB
:1055A000089598010CE211E0089598010CE211E0D1
:1055B0000895980106E910E00895980106E910E0C1
:1055C0000895980102EC11E00895980102E310E0BB
:1055D0000895980100ED17E00895980100ED17E097
:1055E0000895980100E213E0089598010CE211E09B
:1055F000089598010CE211E0089598010CE211E081
:105600000895980100ED17E00895980100ED17E066
:105610000895980100E213E0089598010CE211E06A
:10562000089598010CE211E0089598010CE211E050
:105630000895980108EE13E00895980108EE13E02C
:105640000895980108EE13E00895980108EE13E01C
:105650000895980108EE13E00895980108EE13E00C
:105660000895DC980895DC9A08950E94163FD801A9
:10567000922FFD01392F3BBF06910E94A80EFD011C
:10568000392F31963BBF069131970E94A80EFD013C
:10569000392F32963BBF069132970E94A80EE4E064
:1056A0000C94273F0E94163FD801922FFD01392FFD
:1056B0003BBF06910E94CB0EFD01392F31963BBFB7
:1056C000069131970E94CB0EFD01392F32963BBFD8
:1056D000069132970E94CB0EE4E00C94273F0E9483
:1056E000103FD80149013A012B018A859B852C8402
:1056F0003D840E841F84688979892B893C8909E758
:1057000015E0FD0105A716A7FD0180829182FD012C
:1057100062827382FD0144825582FD0186839783F4
:10572000FD0120863186FD0102861386FD01648716
:1057300075870A89FD010687FD012787308B0D8952
:10574000FD01018BFD0104851585012B01F1FD0192
:10575000568501E010E0452F0E94423E402FFD019A
:1057600004851585F8010081042B0083FD01018962
:10577000502F01E010E0452F0E94423E402F4095FF
:10578000FD0107851089F8010081042300838D0144
:10579000E6E10C94213F9A938A93C801082F092BC4
:1057A00029F020FB1EF48C010E94303E89919991D2
:1057B00008950E94123F2801CA01DB01722E632E58
:1057C0008C019D0140E150E060E070E00E947A3E73
:1057D000A801B90100E010E820E730E00E94A83EEF
:1057E000980121503040422FF20102811381F801CB
:1057F00040838901012F10E0402FF20100811181C7
:10580000F80140834091DE0C48734660F201008548
:105810001185F8014083EDE00C94233FF80120E06E
:10582000208F20E0218FF80120E022A7F80120E05E
:1058300023A7F80120E024A708953B2F4A2FF80161
:10584000A481B5812C9120682C93F801A681B781A1
:105850002C9120692C93A42FB32F08953B2F4A2F0E
:10586000F801A681B7812C912F762C93A42FB32F0A
:1058700008953B2F6A2FF801218901E010E0422FA3
:105880000E94423EA785B0891C91102B1C93A62F25
:10589000B32F08953B2F6A2FF801218901E010E012
:1058A000422F0E94423E0095A785B0891C9110238B
:1058B0001C93A62FB32F08955B2F0A2ED801FD014C
:1058C00004851585012B11F08D01D3DF1496ED9120
:1058D000FC9115970081006600831696ED91FC916E
:1058E0001797008108620083A02DB52F08955B2FC4
:1058F0000A2ED8011696ED91FC9117970081077931
:105900000083FD0104851585012B11F08D01C2DF97
:10591000A02DB52F0895F801228B338B448B558B26
:1059200001E010E008950E94123FD801C9012A0148
:10593000FD0100E002A7FD0104A5002319F00FEF0F
:105940001FEF3AC0FD01008D118D0415150518F0EB
:105950000FEF1FEF31C0FD01008D118D012B11F1F3
:105960000E94EA2F00E010E0FD01208D318D02172A
:10597000130758F4FD01E00FF11F228DFC01E00F29
:10598000F11F20830F5F1F4FEFCFFD01608C718CE3
:10599000FD0100E0008F00E0018F0E94E82F062D3E
:1059A00010E00AC0FD01008D118D012B19F400E0FB
:1059B00010E002C000E010E0E8E00C94233FAD01ED
:1059C000F80124893589232B99F4F801A681B78140
:1059D0002C912F7D2C93F801A481B5812C9120640A
:1059E0002C93F801A681B7812C9120642C9315C0CB
:1059F000F801A289B3899D012F5F3F4FF801228BE7
:105A0000338B2C91F801A285B3852C93F80124895E
:105A1000358921503040248B358BDA0108957B2F56
:105A20002A2ED8011696ED91FC91179700810F7BD5
:105A300000838D015CDFFD0101E003A7A22DB72FDC
:105A400008950E94163F20916908239520936908C4
:105A5000F801808D918D409738F0F80121E024A75E
:105A6000F80121E022A713C0F801208D318DC90172
:105A70000196F801808F918FF801A285B3854C9132
:105A8000F801E20FF31F428FF80121E022A7E4E0C2
:105A90000C94273FFA93EA937A936A935A934A9322
:105AA0003A932A931A930A936FB77BB700917608BB
:105AB0001091770884DF7BBF6FBF099119912991FD
:105AC00039914991599169917991E991F991189593
:105AD000FA93EA933A922A921A920A927A936A93E2
