:100000000C94A5221895189518951895189518957B
:100010001895189518951895189518951895189578
:10002000189518950C941C1B1895189518951895EB
:100030001895189518951895189518951895189558
:100040001895189518951895189518951895189548
:1000500018951895189518950C941D1A18951895BB
:100060001895189518951895189518951895189528
:1000700018951895189518950C94A9190C949E1913
:100080000C94A31918951895189518950000000060
:10009000060507051E062006560507052206240646
:1000A0005705070526062806580507052A062C06C3
:1000B0005C0507052E063006650507053206340681
:1000C0006605670536063806AD0567053A063C063F
:1000D000C405CC053E0640060000000000000000FC
:1000E000000000000000000000004D065506000062
:1000F000C1C081C1400101C3C003800241C201C629
:10010000C006800741C70005C1C581C4400401CCB9
:10011000C00C800D41CD000FC1CF81CE400E000A32
:10012000C1CA81CB400B01C9C009800841C801D8B0
:10013000C018801941D9001BC1DB81DA401A001EAA
:10014000C1DE81DF401F01DDC01D801C41DC0014C9
:10015000C1D481D5401501D7C017801641D601D230
:10016000C012801341D30011C1D181D0401001F0E1
:10017000C030803141F10033C1F381F240320036AA
:10018000C1F681F7403701F5C035803441F4003CB9
:10019000C1FC81FD403D01FFC03F803E41FE01FAB0
:1001A000C03A803B41FB0039C1F981F84038002852
:1001B000C1E881E9402901EBC02B802A41EA01EE28
:1001C000C02E802F41EF002DC1ED81EC402C01E4C9
:1001D000C024802541E50027C1E781E640260022B2
:1001E000C1E281E3402301E1C021802041E001A080
:1001F000C060806141A10063C1A381A2406200662A
:10020000C1A681A7406701A5C065806441A4006CB8
:10021000C1AC81AD406D01AFC06F806E41AE01AA2F
:10022000C06A806B41AB0069C1A981A840680078B1
:10023000C1B881B9407901BBC07B807A41BA01BEA7
:10024000C07E807F41BF007DC1BD81BC407C01B4C8
:10025000C074807541B50077C1B781B64076007231
:10026000C1B281B3407301B1C071807041B0005020
:10027000C190819140510193C053805241920196A7
:10028000C056805741970055C19581944054019CB8
:10029000C05C805D419D005FC19F819E405E005AB1
:1002A000C19A819B405B0199C0598058419801884F
:1002B000C04880494189004BC18B818A404A004E29
:1002C000C18E818F404F018DC04D804C418C0044C8
:1002D000C184818540450187C047804641860182AF
:1002E000C042804341830041C18181804040000081
:1002F00000000000000000000000000000000000FE
:1003000000000000000000000000000000000000ED
:100310000000000000000000000035093609370920
:10032000360900000000000000000000000000008E
:1003300000000000000000000000000000000000BD
:1003400000000000000000000000000000000000AD
:10035000000000000000000000000000000000009D
:1003600000000000C5093609D8093609AE0BEE0BAE
:10037000000000000000000000000000000000007D
:10038000000000000000000000000000000001016B
:10039000010101010101010101010101010101014D
:1003A000010101010101010101010101010101013D
:1003B0000101010101013F3F3F000000FF0000007B
:1003C000FF00FFFF000000FFFFFFFFA90C36090040
:1003D000000000000000000000000000000000001D
:1003E0000000000000CC0CDE0C000000000000004B
:1003F00000000000000000000000000000000049B4
:100400000D36095F0DE024E024E024E0243C113F98
:1004100011000000000000000000000000000000CB
:10042000000000000000006D112F123F121C124945
:10043000129F12C513CC138811C3135F0D2D123DEB
:100440001244124C12C813CF1337040000000000EE
:10045000000000000000000000000000000000009C
:10046000001A149F1502141714360900000000002A
:10047000000000000000000000000000000000007C
:1004800000F1152016D915EE153609BD16D816E05F
:1004900024E024E024E024E024E024F717FA17FD08
:1004A0001700180318061809180C180F1812185EF0
:1004B00017D8166F1770177117761777175F1715FC
:1004C0001818181B181E182118241809180C180FB2
:1004D0001812187917D81689178A178B178C178E48
:1004E000177A1727182A182D1830183318361809B4
:1004F000180C180F1812180000000000000000006F
:10050000000000000000000000000000009017D86C
:1005100016C217C317C417CA17CB17AA17F717FAAB
:1005200017FD1700180318061809180C180F1812D1
:1005300018D517D816ED17EF17F017F217F417D6CE
:1005400017F717FA17FD1700180318061809180CE3
:10055000180F1812189718CA19CA1A0000000000BC
:10056000000000000000000000000000000000008B
:1005700000791A001400000107160002101F000382
:100580008031000440B3000518F50006800F010714
:100590005191010851E401095137020A088A020207
:1005A000013000000000000000000000000000001A
:1005B0000000006F0A012F0873060000171B0000DF
:1005C0000000000000000000000000000000BEF07D
:1005D000000102030405060708090A0B0C0D0E0FA3
:1005E000101112131415161718191A1B1C1D1E1F93
:1005F000202122232425262728292A2B2C2D2E2F83
:10060000FFFFFFFFFFFFFFFFFFFFFFFFFFFFFFFFFA
:10061000FFFFFFFFFFFFFFFFFFFFFFFFFFFFFFFFEA
:10062000FFFFFFFFFFFFFFFFFFFFFFFFFFFFFFFFDA
:10063000FFFFFFFFFFFFFFFFFFFFFFFFFFFFFFFFCA
:10064000FFFFFFFFFFFFFFFFFFFFFFFFFFFFFFFFBA
:10065000F95A03030303030303030303030303031D
:100660000303030303030303030302020202020260
:10067000020202020202020202020202020202025A
:10068000020202020202020202020202020202024A
:10069000020239413E3E3E3E3C3C3C3CFFFFFFFFF8
:1006A000FFFFFFFFFFFFFFFFFFFFFFFF4B6F010299
:1006B000040810204080000000000000000000003E
:1006C000000000000000000000000000000000002A
:1006D000000000000000000000000000000000001A
:1006E000000000000000000000000000000000000A
:1006F00000000000000000000000000000000000FA
:1007000000000000000000000000000000000000E9
:1007100000000000000000000000000000000000D9
:10072000000000000000000000000000000099E848
:100730000101021000200000000000000000000085
:1007400000000000000000000000000000000000A9
:100750000000000000000000000000000000000099
:100760000000000000000000000000000000000089
:100770000000000000000000000000000000000079
:100780000023E20101050000FF000000000000005E
:100790000000000000000000000000000000000059
:1007A0000000000000000000000000000000000049
:1007B0000000000000000000000000000000000039
:1007C0000000000000000000000000000000000029
:1007D000000000007B9C0101050100FF00000000FB
:1007E0000000000000000000000000000000000009
:1007F00000000000000000000000000000000000F9
:1008000000000000000000000000000000000000E8
:1008100000000000000000000000000000000000D8
:1008200000000000000000FB6C0000000000000061
:1008300000400B000000000000000000000000006D
:1008400000000000000000000001010101010101A1
:100850000101000000000000010100000000000094
:100860000101000000000000010100000000000084
:0B087000010101010101010101FC2157
:10087C000101EA10C21001C51001C81001CB100112
:10088C00CE1001D11001D41007DB1001D81001DEFD
:10089C001001E11006E4102AF11003F11001F1101F
:1008AC0001E710FB020057131000AC12AF12C2127A
:1008BC00D512E612EB12F7125313001303131B138A
:1008CC0030133B1342134B13531301013B17F21616
:1008DC0006001701F61601FE160410170107170182
:1008EC000E17042A17011517011C170121170128CF
:1008FC001701EB1601E01601E816042D170132174B
:10090C00063817FB0000B02114001521B0212F214F
:10091C003C2157215A215C2160218E2179217F2194
:10092C0089219021942196219B219D21A221A721EF
:10093C00AE212C072C1B5CD000E910E007D037C08F
:10094C0021D008E910E002D000E030C0FD010183A5
:10095C00128308951FD009F0F3CF19C013D000EA09
:10096C0010E022C017D009F0F9CF11C00BD008EA63
:10097C0010E01AC00FD009F0F9CF09C003D000EB7A
:10098C0010E012C029D0D7CF05D009F0F7CF00E086
:10099C0010E0089506E010E00E94BA23202F212BCE
:1009AC000895F0DF08EB10E0D1DF01E00C938D012E
:1009BC00A991B9910895EEDF09F0F3CFE8CFE2DF0A
:1009CC0000EC10E0F1CFE6DF09F0F9CFE0CF04D076
:1009DC00F6DF08EC10E0E8CFBA93AA93D80108959B
:1009EC00D9DF09F0F4CFD3CF03D000ED10E0DCCF8A
:1009FC00F3DF0C941F0905E0CEDF09F0F5CFC7CF6C
:100A0C0052C07CD08AD049F00A95B9F00A9501F110
:100A1C000A9541F10A9551F131C08FD079F175D019
:100A2C000091AB08033029F0E6D018F4D9D00E941D
:100A3C003E2070D029D002E020C02AD011F021D065
:100A4C000BC00091A7080023C9F01BD003E015C010
:100A5C000091A808002311F004E00FC06ED021F41F
:100A6C0005E00BC06AD021F04BD008C011D031F09A
:100A7C000E94502010E008D001E00C93E5E00C94AB
:100A8C0095230E944D2011E0FD0103810C946420FC
:100A9C0054D011F020E03AD00091A808002308951A
:100AAC0005C004C003C06BD00C94972301D0FCCFBD
:100ABC005FD019F053D0A4DF55D0E3E00895F6CF02
:100ACC00F5CF1CD02AD019F0055061F016C035D0E6
:100ADC00A1F01BD01FD025D001E000830E948920FB
:100AEC0006E00AC02AD011F00BD007C010E019D0D4
:100AFC0050830E94892001E00C93C0CF0C94842376
:100B0C0020E014968D010C94B61F21E08D010C5F32
:100B1C001F4FF9CF69D0102F0895D8010C910A9569
:100B2C000895B2DFFD01038110E046E050E00E9421
:100B3C00C722F801E354F24F089571D005810E9449
:100B4C002620402E8D01FC016FD04026089510D038
:100B5C0019F004D0B5DF06D0E3E0A6CF20E030E0FA
:100B6C00082F0895A0FB1EF48C010E94BF2208954B
:100B7C000E948623C801A22F012B089594CFF8DF81
:100B8C0021F0ECDF0E943509EDDF97CFB7DFC5DF31
:100B9C0029F00A95A1F00A95D1F021C037D0F9F0CF
:100BAC000091AB08063029F026D018F419D00E9419
:100BBC004320FD0103810E94BA2002E00FC0009186
:100BCC00A708002361F00E944D2003E007C01ED04F
:100BDC0031F40E9450200E94371C01E00C934ECF40
:100BEC0003D00093AB0808958D011196ED91FC9103
:100BFC001297349619C08091AB088D01FD012181AB
:100C0C00F281E22F349610D08017089508D0048119
:100C1C000E942C20402E8D01FC0106D096CFFD01A8
:100C2C0081819281069608952591F491E22F099481
:100C3C0000E0089500E0089500E0089500E00895B4
:100C4C0002E0089500E0089502E0089501E008959F
:100C5C0003E0089500E0089503E0089501E008958D
:100C6C0001E0089500E0089501E0089501E0089581
:100C7C0006E0089500E008952AEE30E0F8012483A0
:100C8C00358320E020832183228323830895402F02
:100C9C00412B21F020FB16F40E94BF220895402F17
:100CAC00412B21F020FB16F40E94BF2208951C98C2
:100CBC00149A1D98159A089508EF12E002C00AE8DC
:100CCC001CE00E94ED1A1C9A1D9A08951C981D9800
:100CDC000C94131B6FEF7FEF40E00FC0F8015191A4
:100CEC008F015627E2E05E9FF001E251FF4F059025
:100CFC0014907025672F712D439550E042175307C0
:100D0C0068F38B0108950DD0FCCF0BD030816317A5
:100D1C0029F40181701711F401E001C000E010E02A
:100D2C00089560E070E050E0F80141918F01640F8C
:100D3C00751F21503040C1F7089540E0F8015191E2
:100D4C008F01450F21503040C9F70081401711F435
:100D5C0001E001C000E0E3CF9A938A930E94380728
:100D6C0090E081E02AC000911908043099F409C080
:100D7C0000911908033019F4939581E00BC00430ED
:100D8C0049F483E007C001E089919991089500E04E
:100D9C00FBCF84E00E9471080AE010E00E94BA1AAE
:100DAC00A895082F0A9539F00A9511F30A9579F34D
:100DBC000A9549F3EFCF9B3060F7292F00ED1AE02D
:100DCC000E9418099801032BE1F2492F439500ED7D
:100DDC001AE00E940108002331F282E0DBCF0C9470
:100DEC00330800E00093A9080E94C108002371F0A9
:100DFC000E941708002351F00E943F08002311F0B5
:100E0C0001E0089504E00093A90804C004E00093F5
:100E1C00A908A2DF00E0089523950C9468070B3015
:100E2C0040F4039518E0019FF001E656F84F068157
:100E3C0001C000E010E00895B801022FF0DF239507
:100E4C00422F98018B010E940108F4CF0AE118E0AF
:100E5C000E94F02100E417E00C94632222E030E0C1
:100E6C000C94FC21BA93AA93E6E1F8E000ED1AE0A9
:100E7C00FDD000E0028344E650E020E030E00AE9D7
:100E8C0017E00E94B123AAE9B7E0FD0100E110E0F0
:100E9C000483158304E60683178306E60E94DF0AA3
:100EAC00FD010087118706E610E00E94DF0A005F53
:100EBC001F4FFD010283138300E00D930C93A99146
:100ECC00B99108950E948223DA952801622E2C3064
:100EDC00C8F508E0609EEAE9F7E0E00DF11D068137
:100EEC001781012B79F100851185012B59F1A68110
:100EFC00B7818085912F482F512F248135818E0108
:100F0C000E94D519AC019E018E010E94480BFE0176
:100F1C00EA0FFB1F808191819D01DAD08017910728
:100F2C0071F402E0609EF001E250F84F80839183EF
:100F3C00AD019E0182010E94A1238D0105C004E038
:100F4C000093A90800E010E0D395E7E00C949323FC
:100F5C000E948323DA95D801C901442E4C3018F035
:100F6C0000E010E03FC0A90198018E010E94A1236E
:100F7C009C018D010E947006FE01E80FF91F76D0CE
:100F8C0028E0429EAAE9B7E0A00DB11DFD01028741
:100F9C001387AC014E5F5F4F9E01E6E1F8E00081E4
:100FAC0011810E94E90A2801FD0100851185012BA0
:100FBC0071F41CD0FD010483158318D0040D151D8C
:100FCC0002831383FD018683978340865186A20199
:100FDC00E6E1F8E020813181FD01048115810E9458
:100FEC00E3198201D395E6E00C949423EAE9F7E047
:100FFC0002811381089550911808552349F4A8DFF4
:10100C00012B21F001E00093190804C004E001C099
:10101C0002E003C00093180808950093190800E03B
:10102C000895392F082E81E090E02AE08C01000F02
:10103C00111FF801E250F84F608171813BD002859D
:10104C0013856017710711F000E004C001962A9512
:10105C0069F701E0802D932F089518D01ED0F1F779
:10106C0031D004D0669689919991089500831183AB
:10107C0008950CD012D0F1F725D0208131812017A2
:10108C00310711F401E001C000E0ECCF9A938A9390
:10109C00669780E090E02BE008950CD002891389CC
:1010AC00FE01AC01440F551FE40FF51FDFDF019665
:1010BC002A95089543E08C010E94D122F801E6564E
:1010CC00F84F089526E130E003D0EAE9F7E00895FF
:1010DC008E010C947006009118080A9559F00A9527
:1010EC0061F00A9579F00A95C1F00A9509F10A9513
:1010FC0021F1089535D002E00FC0E19909C036D036
:10110C0003E00AC000916B08002311F004E004C056
:10111C0021D0F9F004E081DF7DCF40E024E630E01F
:10112C000AE917E015DF012BA9F31AD005E0F4CF7B
:10113C00E199EECF1BD006E0EFCF00916B080023B6
:10114C0011F003E0E8CF06D021F004E066DF009355
:10115C00180808950AE118E00E941222002308954D
:10116C0028EC30E00AE118E00C94042220E137E28C
:10117C00F9DF0C941A090E94832374DE20E00AE93B
:10118C0017E0A0DE012B21F1552450922208A6E194
:10119C00B8E03AC006E018C0452D9C010D911C9199
:1011AC00119729DF002311F003E00EC000911908FC
:1011BC00043099F408C000911908033011F404E0CC
:1011CC0003C0043051F405E0402E07C001E00BCF02
:1011DC0000E0FDCF5394442443947DDF0AE010E0FB
:1011EC000E94BA1AA895042D0A9559F00A95A1F2F5
:1011FC000A9509F30A9571F30A9551F30A9531F39F
:10120C00ECCF0CE0501630F6252D0D911C9111975A
:10121C0059DEC801012BB9F200912208002379F2A2
:10122C0002E0D2CF0C94451A00E000936B08E39ACD
:10123C0008952AE133E0F8012183328320E02083F2
:10124C000895AD01D801F5DF0EE113E0FD01018336
:10125C00128300E0038304838D01DA01089501C039
:10126C000895402F412B21F020FB16F40E94BF2241
:10127C0008950000089500916100016024D00E7F54
:10128C001ED0006420D000641AD002601CD00D7FE8
:10129C0016D0046018D00B7F4CD0BC9AC498009127
:1012AC006100006110D00F7E0AD000620CD0006289
:1012BC0040D0BC9A02E001BF09E103BF089539D0C8
:1012CC0000916100089500936100009162000895FF
:1012DC0010D086E000E213D0E9F708D00C949723E5
:1012EC0008D088E000E80BD0E9F7F7CF1FD0E3E097
:1012FC0008950E948623A02F19D090E0089510E045
:10130C00492F0E94DB221A2F1023DFDF11F001601E
:10131C0001C00E7F0ED0D9DF02600BD00E943F09B6
:10132C00D4DF0D7F06D093958A95089500916200C5
:10133C000F7E009362000895BA93AA93D8010E947D
:10134C00270904E613E0FD01018312838D01A991A5
:10135C00B991089541D0C90109D0FD0183879487C3
:10136C0000E00C938D01E4E00C949623E5DF2ED085
:10137C0002D00C94F0218D010B5F1F4F08950E9439
:10138C008623C801A22F012B51F020E030E0082F5A
:10139C000E943709A0FB1EF48C010E94BF22E3E0DF
:1013AC000C94972319D0822F0B2B79F00FD022E0BD
:1013BC0030E0E1DF0E94FC2120E030E08D01DFDF36
:1013CC0080FB1EF48D010E94BF22CDCF08E613E0F6
:1013DC00FD010183128308950E948523D80108958D
:1013EC00FBDF922F832F0C91002329F00A9541F0FB
:1013FC000A95E1F033C0FD0100E0058701E014C05F
:10140C00222321F0FD01058501600587332321F09E
:10141C00FD01058502600587FD01238534850A2FB2
:10142C00ABDF0E94042202E00C9318C00A2FA4DF49
:10143C000E941222002319F000E00C9310C0FD0151
:10144C000585992309F00160882309F0026005875E
:10145C00033000E021F40C9301E001C000E083CFE5
:10146C00302F50E0E0E0F0E028E0032F10E04E2FAA
:10147C000E94DB220170502731962A95B1F7552333
:10148C0009F401C002C001E0089500E00895B8011C
:10149C0030E0E0E0F0E02CE04E2F8B010E94D622F1
:1014AC000170302731962A95B9F7332309F4EBCF25
:1014BC00ECCF8A93802F007F29D0302E082F0E7806
:1014CC0025D0202E082F0D7621D0102F00E1809FE3
:1014DC00712D08E0809F00E70022602D082F01701D
:1014EC0024E0029F602900E8309E6029712908E001
:1014FC00209E6029712902E0109F602971298B754B
:10150C00082F04D0062B172F89910895A9CF080115
:10151C0000E01F7020D007FA10E010F9011711F04D
:10152C0058E001C050E080010077187014D003FA25
:10153C0013D0000F502B8001047616700CD001FADA
:10154C000BD0502B80010475157005D0102D117027
:10155C0008D0052B08959BCF10E010F902D0000F96
:10156C000895011709F08FCF90CFB801222351F0C5
:10157C00209322082A9501E010E0422F0E94D122EC
:10158C00062717270895202F44E00E94D622007FBB
:10159C00122F1695169516951E70012B22FB10E036
:1015AC0010F9012B08951801B2DF202F8101DDDF26
:1015BC00EACF00FB16F40F5F1F4F98013695279565
:1015CC00020F131F08950E947B23239738014901B2
:1015DC005A0180E090E04424552488834B2939F04B
:1015EC00A0FA2EF40FEFA00EB01E01E00883898341
:1015FC008A831AC091D039D0680101E0400E00E016
:10160C00501E8AD0008138D01D2941E0440E501E56
:10161C00CC922DD010832BD02083019609811A8176
:10162C000E5F1F4F09831A83D301A80FB91F0981BD
:10163C001A810A151B05F0F20881002389F0840C2D
:10164C00951CF40112D0480100E016D0912A8C921E
:10165C000ED090820196680E791EF30120830196BC
:10166C008C012396EEE00C948C23008122CF019602
:10167C00F301E80FF91F08951CDF20E030E04CE087
:10168C000C940D230E947923580149017A01662498
:10169C007724442455244F2951F043E050E087012E
:1016AC000E94DE22412919F000E010E032C0CC2467
:1016BC00DD242BC031D0808190E0A0E0B0E001E0CF
:1016CC00400E591E29D01081912F400E5A1E24D045
:1016DC00A081400E5B1E082F1F7065DFF501E60D23
:1016EC00F71D00834CE08C019D010E9414235BDFED
:1016FC00102F01E0600E7B1EF501E60DF71D108327
:10170C00600E7B1E03E0C00EDB1ECE14DF0490F2D5
:10171C008301E0E10C948A23F401E40DF51D089596
:10172C00A991B99108950E948523D801C9010AD0C5
:10173C00FD018583968300E0A1D00C938D01E4E03C
:10174C000C9496230E94270916D094D00C94F02167
:10175C003AD00B2B79F00FD022E08BD00E94FC21D9
:10176C0020E030E08D010E94370980FB1EF48D01D2
:10177C000E94BF22E4CF0CE613E0FD01018312832B
:10178C0008950AD01596ED91FC910995002311F05E
:10179C0001E001C000E0C4CFBA93AA93D801089528
:1017AC0012D0F8012181F281E22F32962591F49129
:1017BC00E22F0995FD010781081700E019F4078352
:1017CC00008701E0BCCF0E948523D801822F0895A9
:1017DC00E3DF0C91002369F00A9581F00A95B1F0D2
:1017EC000A95F9F00A9541F10A9599F10250E1F147
:1017FC003FC0FD010085078301E039C042D0C1F133
:10180C0024E637D00E94042202E031C03AD0E9F03D
:10181C003CD071F12CED35E03CD002E02FD003E050
:10182C0026C02FD091F031D019F128EB3BE031D00C
:10183C0003E024D004E01BC024D039F026D0C1F042
:10184C0028E833E126D004E00CC0FD0100850783B5
:10185C000DC017D059F019D059F022E330E019D04F
:10186C0005E00CD007E003C00CD011F400E00C93A1
:10187C0057CF30E08D01075F1F4F08950087078316
:10188C0008950A2F7EDF00230895F4DF0E941222B0
:10189C00FACFF0DF0E940422FD0108950C94410957
:1018AC000E948523C801A0E306EB13E020E00E9410
:1018BC003918AA95C9F7A0E0B0E3EA2FF0E0EA578F
:1018CC00FC4F049110E046E050E00E94C722FC015E
:1018DC00E00FF11F0081002389F002810A9529F0A5
:1018EC000A9531F00A9539F009C00FEB13E008C0E6
:1018FC0002EC13E005C00CEB13E002C009EB13E0A3
:10190C0020E00E944918A395BA95B9F6E4E00C942E
:10191C00962315D00E94270933D02ED00E94F02197
:10192C008D01A991B99108950AD0F3DF05EE13E06A
:10193C00FD010183128390D001E00C93F1CFBA9397
:10194C00AA93D80108950E948523D801822F0B2BCE
:10195C0081F016D022E030E00FD00E94FC2120E074
:10196C0030E08D010E94370980FB1EF48D010E942E
:10197C00BF22E4E00C9496238D010B5F1F4F08955A
:10198C000BEC13E0FD010183128308950E94862362
:10199C00C801A22F012B49F020E030E0082FD3DF43
:1019AC00A0FB1EF48C010E94BF22E3E00C94972351
:1019BC00C6DF0C910A9539F00A9581F00A95B9F0B9
:1019CC000A9571F148C00E94C31D002329F00E94A2
:1019DC00D41D002381F53DC000E03CC0FD01048115
:1019EC000130C9F539D001E00E94D91D24C0FD0198
:1019FC000481013049F430D00E94CD1D9801159618
:101A0C008D010E94042227C00A2F0B5F1F4F0E94DA
:101A1C001222002301F105E00093A90804E01AC08A
:101A2C00FD0104810A9519F00A9569F014C014D0CF
:101A3C0000E10093A0080E94CD1D98019DDF0E943B
:101A4C00042203E007C008D00E94D91D00E10093D6
:101A5C00A00802E00C9365CF00E00483089500E039
:101A6C000093A0080E940A21FDCFBA93AA93D80133
:101A7C000E9427090FEF13E0FD01018312838D01F2
:101A8C00A991B99108950E948623C801A22F012B18
:101A9C0051F020E030E0082F0E943709A0FB1EF423
:101AAC008C010E94BF22E3E00C949723F80125835C
:101ABC000895F8010081002309F401C002C001E07F
:101ACC00089500E008950E948523D801C901F8010A
:101ADC006181F281E62F369610D3A8019C018D010D
:101AEC001196ED91FC913C9608D3E4E00C9496236E
:101AFC000E948523F801842FDB01AB0130683CD2B6
:101B0C00A00FB11F8C9335D2F0CFF9D119010A0176
:101B1C0050E0662420E030E04A845B848C859D850F
:101B2C0002C06394E7D0F201EFD120153105C0F467
:101B3C00410101E0200E00E0301EDB01A80DB91DB3
:101B4C000C91002329F001E010E0462D50D3502BCE
:101B5C0007E0601631F75083019650E06624E2CF1F
:101B6C00662011F0508301968C01EEE0C6C1B5D011
:101B7C003DD021F0813D07E0900710F01AD106C04E
:101B8C00FD01028D138D28D018F410D145D104C05D
:101B9C0039D06289738926D005D002C08C01E8E067
:101BAC000C94922398018901E8E0089596D01ED0F8
:101BBC0021F0813D07E0900710F0FBD006C0FD013D
:101BCC00048D158D09D018F4F1D026D104C01AD08B
:101BDC006489758907D0E0CF572D480F591F04171A
:101BEC0015070895AC0193018D018FCFD801C90160
:101BFC002A01A4D071804281642E93810481802FAC
:101C0C00092B0895A2018BD011D043E08C010E94C6
:101C1C00D622402F082F077009F0439540836AD0D5
:101C2C003A932A935A924A92FD010895F201E00FD9
:101C3C00F11F089552D076D011F046D018F0B301B0
:101C4C0043E007C0FD01068D178D43D020F4B3018E
:101C5C0042E053D00CC058D007C0BC01660F771FB0
:101C6C0008D02CD006D03BD044155505B0F39BDFE3
:101C7C0097CFFD0106891789060F171FF8010895E4
:101C8C002CD050D011F020D018F0B30143E007C095
:101C9C00FD0100A111A11DD020F4B30142E02DD013
:101CAC000CC032D007C0BC01660F771F29D006D0FC
:101CBC0027D015D044155505B0F3D9CF0181F301C8
:101CCC00E20FF31F008308950EE7401600E0500664
:101CDC000895592F440D551D82CF0C9481230081FA
:101CEC0009D0F301E20FF31F04D001964F5F5F4F51
:101CFC00089500832F5F3F4F08958ED0980108956B
:101D0C00FD01008D118DB8CFA30109D0042D000F5A
:101D1C00F301E20FF11FEDDF40E050E008958D017B
:101D2C00EBD1ECCFD801C9013A0108D091814281A5
:101D3C00842F53800481402E05290895C1D1080FAA
:101D4C00191FF8012291F80130810895C6DFD801DE
:101D5C0039012A01CB015ED025D05291F8010080C7
:101D6C0031812281FD01628D738D2617370710F0AA
:101D7C001DD014C0F8017381648160300FEF7007BF
:101D8C0011F401E003C0672B41F400E00E94BA1D7E
:101D9C00AC01930182013CD004C00BD0302D252F17
:101DAC0069D0FCCE8301020F131F68CFB20142E051
:101DBC000895B20143E0089590DFD8012901CA01CA
:101DCC003B0128D08201EFDF31812281FD01468D5C
:101DDC00578D2417350758F0BC0142E0F8013081CB
:101DEC0001501040F801208117D038010FC0F801C4
:101DFC0053814481FD0106891789220F331FD3DFDC
:101E0C0040835183A30192018C0102D08301C7CE80
:101E1C000C94A12355D172CF8D016ACE5EDF77D0A1
:101E2C009801C0DF9291F8018081718162813381C8
:101E3C004481242F432B21F0213B47E0340710F041
:101E4C00B8DF0AC0FD01428D538D0B01020E131E2B
:101E5C004015510528F4AADF382F292F0BD009C0C3
:101E6C00AB010A5F1F4F0E948D1DA201382F292F35
:101E7C0052D094CED1DFC801089541D048D0C801CA
:101E8C00A301400F511FFA010290FA013081118118
:101E9C00028153814481242F252B21F04C3720E0E3
:101EAC00520710F086DF0AC0FD01668D778D180190
:101EBC00240E351E6215730520F478DF202DDADF31
:101ECC001AC060E070E011C01ED096808780FD01C2
:101EDC0026883788F801EE0FFF1FE20DF31D808274
:101EEC00918247D002966F5F7F4F6417750760F33E
:101EFC00A201202D10D08C01EAE00C9490230C94BC
:101F0C007F2300830196F301E80FF91F0895D80190
:101F1C0039012A01D5C0EED0C80144E050E0600E72
:101F2C00711E9301040D151D73DF0496089502D1E3
:101F3C00C8012901DA01C4D0400E511EAD01F201D5
:101F4C0030810FEF400E501EF20120818C01FC01FC
:101F5C0013D017D023E012D020E210D027E020833A
:101F6C0008D0A00FB11F22E32C9303D0E6E00C9411
:101F7C0094230F5F1F4F0895C4D0BFC020830F5F01
:101F8C001F4FFD0154CE0E947923D80129013A013B
:101F9C00CB0196D04801400E511EF201B290F201D5
:101FAC00A080028110E006970817190709F04EC0AF
:101FBC009ED0C8017301E00EF11EF20103810023D3
:101FCC0041F00A95C1F00A95E9F10A9509F463C04C
:101FDC006DC0F70100E095DF04E00083F20103819E
:101FEC0091DF8FDF02E08DDF00E0008375D002E02F
:101FFC000083019661C0C4800CE0C01638F5D30193
:10200C00A80DB91DCC2099F420E08D010B5F1F4F5A
:10201C000E9412072091590CFD0125832091580C28
:10202C00268320E327834FD020E0208307C02C2D6C
:10203C0015968D010E94120746D0C0829ADF800F40
:10204C00911F3AC0C4800CE0C01618F0B30142E0F6
:10205C002FC00C2D0E941507F201E281F0E032979F
:10206C00E017F10719F0B30143E022C02C2D05E075
:10207C00400E00E0501E82010E942207012B41F00D
:10208C000E94F50601E10093A008B30145E010C0E1
:10209C00B30147E00DC000911908033011F427D0AB
:1020AC000AC00130B30119F446E002C0B30141E0AB
:1020BC003A2D2B2DB1DEC8018C01E0E10C948A2362
:1020CC0098D03E96CBC0F70120E02083202F2E5FC6
:1020DC0008D0F201238105D00196680E791EF30118
:1020EC0008950196F301E80FF91F20830895A301C9
:1020FC003A2D2B2D8D01FD0104D06591F491E62F25
:10210C0009946181F281E62F3A96089513D0AAD0F2
:10211C00040D151D16DE00911908033019F4AC01DD
:10212C00E9DF07C00130BC0111F446E001C041E019
:10213C0073DE1CCF0C9483230E947D233801D901BC
:10214C00CA012B0167DE8D012EDEA290F801808082
:10215C00BA2CBB0CBB08F301058110E0A016B1062C
:10216C0021F0AA2011F000E03AC0082DECE7F0E0D5
:10217C00FBBFF8E00C943C2335D0F9DC2BC032D0FB
:10218C0015DD28C02FD056DD25C02CD079DD22C01E
:10219C0029D0DCDD1FC026D00FDE1CC044244A949D
:1021AC00542C19C01FD03ADE15C01CD0AFDF12C0A2
:1021BC0019D063DE0FC016D0BADE0CC044245524EF
:1021CC000AC010D0E0DE06C0BC0141E0382D2A2D3B
:1021DC0083018EDC2801F301448655868201ECE0F4
:1021EC000C948E23B201AC019D01830108950C94D3
:1021FC00D122F8012181F281E22F089580DE32D0C4
:10220C00400E511EF2016080FD012681F2013291D7
:10221C00231721F4FD0127812615E9F048018D01D2
:10222C00FD012181F281E22F709618D0800E911E53
:10223C0002E0800E00E0901E8815990561F467FAA3
:10224C0056F4F20101810C3024F4102F110F110BF4
:10225C0004C00EE001C001E010E04ECE2591F491D7
:10226C00E22F0994D8012901CA012ACF01E010E01C
:10227C00089502E010E008950E948323C801D9015B
:10228C002B2B31F0F80143845484A587B6870EC0FC
:10229C0009E4402E04E0502EDC011F96FC01A587BA
:1022AC00B687082F015F1F4F0E943B0D07E214E019
:1022BC00FC0103871487F20105911491FD01018340
:1022CC0012838C01E6E00C94942310E008950E9494
:1022DC008623C801A22F092B69F0232B31F00FD0D4
:1022EC00082F015F1F4F0E94490DA0FB1EF48C01AB
:1022FC000E94BF22E3E00C949723440F551F20E06B
:10230C0030E00895BDD0E3CF0E948123C801F801CD
:10231C0020833183428353836483758308850087CC
:10232C00098506830A850783A585B6856B847C841D
:10233C00FD01668677864D845E84408A518A0F85BE
:10234C001889028B138B09891A89048B158B0B89BD
:10235C001C89068B178B0D891E89008F118F0F8995
:10236C00188D028F138F098D1A8D048F158F0B8D7D
:10237C001C8D068F178F0D8D1E8D00A311A3FC01D4
:10238C003FD000E412E42FE030E00E94172345E038
:10239C000E940D2348EE53E060E070E00E9417238A
:1023AC000F5F1F4FE82F01871287FD01428D538D60
:1023BC00A6DF0289138929D0448D558DA0DF0489AD
:1023CC00158923D0468D578D98DF068917891DD026
:1023DC0040A151A192DF008D118D0E94B1235A9220
:1023EC004A927A926A92FC0107810A93368120857F
:1023FC0007D0008111810E949818EFE10C94922370
:10240C00428153816481758108950E94B123FC013E
:10241C000585F685E02F08950C94B9180C94DC18FA
:10242C00F8010081118108950C94FF1862D0D90134
:10243C00CA019A018D017BD0FD01E80FF91F0083C1
:10244C000196A80FB91F1C9301968C014FC018D090
:10245C00EDCF0D01E881F9812083318352834383D1
:10246C007483658306E010E0D0012296089508D0AD
:10247C00F0CFFA012083318302E027CF01D0F9CFCE
:10248C000F5010400895CCDF0C942619F9DFFBCFC8
:10249C00C7DF0C942D1910F001E001C000E0DB0146
:1024AC00089510F001E001C000E0DA010895BD01CB
:1024BC00ECE6F8E04081518105D0401B510B4217EE
:1024CC005307E9CF09D00D911C910895AD0103D0AC
:1024DC002D933C93EACF05D0F801A585B6851A96C5
:1024EC000895ECE6F8E0208131810895E4E00C9445
:1024FC0096230C9485230E948323C901443000E069
:10250C00500790F0F901E40FF51F3297B181A081CB
:10251C00425050402A019A0109D0920107D00A1763
:10252C001B0711F401E001C000E0CCCE8C010C942F
:10253C007006DFDFD801F80185859685FC010081E6
:10254C00E0EBF0E0FBBFF8E00C943C23F2D003E0AE
:10255C00A7C0C3D059F0FDD024F0DFD0B9D004E02F
:10256C0004C0019619F4B4D002E0008328E93AE3E0
:10257C00CAD009F496C03BC0B0D049F0EAD014F0F0
:10258C00CCD005C0019619F4A3D002E00083BED0D4
:10259C0009F487C0ABD0D9D059F105E081C0FC015A
:1025AC006485758540895189E5D08C010E94A21003
:1025BC00012B00916200C9F075D0C7D006E070C045
:1025CC009BD092D0C2D007E06BC09BD009F469C0FD
:1025DC00FD0105851685F80169D082D0B6D008E0DA
:1025EC005FC06FD009F45DC066D000645CD0ADD024
:1025FC0002E056C09ED00BE053C06FD081F0A9D042
:10260C004CF088D024853585280F391F24873587D1
:10261C000CE004C0019619F45BD001E1008328EEB4
:10262C0033E071D0F1F191D013C057D051F091D06B
:10263C001CF070D075D005C0019619F449D001E199
:10264C00008364D071F152D080D011F00DE028C01D
:10265C0001E126C0FC018CD08C010E940411012BDD
:10266C0074D001E10C93E9F41CC046D000916200D7
:10267C0019D06BD00FE014C044D099F029D016D0EB
:10268C008F012ED062D000E10BC01BD051F013D0C3
:10269C00006409D05AD00AE003C026D056D000E01E
:1026AC000C9324CF0F7B00936200089544855585CD
:1026BC002089318908958F010E941B1900916200B5
:1026CC00089502D003A516C0ED91FC9111970895C1
:1026DC001D96ED91FC911E970895F6DF02A50AC098
:1026EC000E94690D0CD0A0CE0AD098CEF1DF40D05C
:1026FC008D0101DF002308951AD001D08DCEE3DEC9
:10270C00E5CF25E030E08D01D2DEF4CFFD0121854F
:10271C003285F9CF0CD0FD017BCEFDDF01D007C097
:10272C0004851585080F191F0487158708958D01D9
:10273C00CDCEFDDFC8DE1C960E94B918CADF00E0C2
:10274C0004870587DCDF0E94CC18FD01A585B685C2
:10275C000895FC010485158540E051E0401B510BA8
:10276C0009D0200F311F8D0193DEC801013089CEB5
:10277C004485558526853785089582DEDACE01E0BD
:10278C0010E008950F5010400C94C51302E010E0B7
:10279C0008950F5010400C94CC130E948523D8013F
:1027AC00822F15D08C9300E003878D01E4E00C940C
:1027BC0096238A93802F19D019F0282FEEDF02C0B0
:1027CC0000E010E089910895A991B9910895055FF1
:1027DC001F4F0E94270901E614E0FD0101871287B3
:1027EC0007E614E00487158708950EE110E00E94B7
:1027FC00BA23202F212B08950E948623C801A22FD3
:10280C00092B61F020E030E0082F055F1F4F0E947C
:10281C003709A0FB1EF48C010E94BF22E3E00C944C
:10282C0097230B501040E8CF1D01D801F90100810E
:10283C00FD01008BF90101811281FD01018B128BCD
:10284C00F90103811481FD01038B148BF9010581BE
:10285C001681FD0105831683F90107811085FD01A1
:10286C00058B168BF90100891189FD01038F148FDB
:10287C00F90102851385FD01078B108FF901058580
:10288C001685478552E0459F000D111DFD01018FF6
:10289C00128FF9010785085F0787608971890289A2
:1028AC0010E048E150E00E94C722600F711FFD014B
:1028BC00638F748FF9010289085F028B0389148975
:1028CC000F5F1F4FFD0107831087558FD1010895AE
:1028DC0040D1F1D040E028E050E05B96F2D05C971C
:1028EC00E40FF51F3081F801E40FF51F3083439599
:1028FC002A9599F728E030E00E9489069801FD019D
:10290C0003891489065F1F4FF80121933083539676
:10291C00D8D0549701E800D14DE0F4D0D1D001814A
:10292C00013829F404850E3711F401E001C000E0F0
:10293C004BCF0E948523D80150E080E028E0F801BD
:10294C00638D748D90E0FB01E80FF91F40854F3FBC
:10295C0021F0CFD011F0BFD0502B83952A9599F749
:10296C0030E080E028E0FB01E80FF91F40894F3F81
:10297C0021F0BFD011F0AFD0302B83952A9599F769
:10298C0020E0FD010381002311F0938321E00481F9
:10299C00002311F0948322600181002311F09183B4
:1029AC0024600281002311F0928328600389F4894A
:1029BC00E02F02E40083FD0183899489029660E094
:1029CC00222478E08DD00181002309F07DD023945E
:1029DC007A95C1F7FC016193CF0160E0222478E085
:1029EC007FD00081002309F06FD023947A95C1F732
:1029FC00FC016193519331932193CF0125E030E099
:102A0C00FD0159D00E948906FC01019311930EE738
:102A1C0083D04AE077D0FD0101891289F801218128
:102A2C00245281F12E51A1F525E030E00E5F1F4FAD
:102A3C000E948B06013010405CF142D05297018508
:102A4C000E3731F5FD0100E0058F17963AD0199637
:102A5C00008337D05297628180E028E090E0FD013E
:102A6C000788108C080E191E36D0162F1023F00173
:102A7C0019F001E0008301C0908383952A9579F7C2
:102A8C0001E018C0FD01058D0A3010F400E0038749
:102A9C00FD01058D0A3018F40395058F0AC01596B3
:102AAC0010D0169702E00083FD01A781B08501E0EC
:102ABC000C9300E07BCE038914890E5F1F4F0895A1
:102ACC005196ED91FC91089501E010E0422D0E9489
:102ADC00D122602B089501E010E0482F0C94D122F4
:102AEC00FD01018D128D42E0249E000D111DF80197
:102AFC000895FD0105891689040F191FF80100813D
:102B0C000023089550E0FD0123893489018912893D
:102B1C000E949E1A0C946D1C0083FD0100890E947A
:102B2C00561C0AE613E001501040E9F700C0000003
:102B3C0008950FD01385112319F01A9539F008C098
:102B4C001B2FC6DEFD0111E0138702C01B2FF1DE27
:102B5C003BCEBA93AA93D801CACF0E948523D80141
:102B6C00822F055F1F4F0E94270901E814E0FD0129
:102B7C000187128707E814E0048715878C938D0171
:102B8C00E4E00C9496238A93802F08E110E00E94D5
:102B9C00BA23202F212B19F0282FDFDF02C000E0F1
:102BAC0010E0899108950E948623C801A22F092B59
:102BBC0061F020E030E0082F055F1F4F0E943709BD
:102BCC00A0FB1EF48C010E94BF22E3E00C9497231F
:102BDC000B501040E8CFBD01D801F9010081FD0177
:102BEC00008BF90101811281FD01018B128BF9011E
:102BFC0003811481FD01038B148BF901058116816E
:102C0C00FD0105831683F90147815085018510E08C
:102C1C00400F511FFD01458B568BF9010185085E54
:102C2C00018703891489FD010783108700E0078B56
:102C3C00DB0108950E948523D8015396ED91FC91F8
:102C4C00549702E40083FD0100890E94561C0AE699
:102C5C0013E001501040E9F700C0000049E050E0DB
:102C6C00FD0123893489018912890E949E1A0E94D0
:102C7C006D1CFD0101891289F80121812234C9F5ED
:102C8C0027E030E00F5F1F4F0E94A3060130104079
:102C9C0084F1FD0100E0078B1796ED91FC911897DC
:102CAC000083FD012589368980E076E0FD010189EC
:102CBC00128990E0080F191FF801028060E058E0BB
:102CCC0002C060FB76F001E010E0462F0E94D1229A
:102CDC00102D1023F90119F001E0019301C091931B
:102CEC009F0163955A9569F783957A95F9F601E0FA
:102CFC0012C0FD0107890A3018F40395078B0AC02E
:102D0C001596ED91FC91169701E00083FD01A781CA
:102D1C00B0850C9300E034CF22D00E9427093CD020
:102D2C0037D00E94F02105E20C93FD0111C015D0A3
:102D3C000FEA14E003C011D003ED14E02FD005E22C
:102D4C000C9306C00AD00DE015E028D008E1F8CFAE
:102D5C0003838D01A991B991089501D0DDCFBA9368
:102D6C00AA93D8010895F9DF01E315E0E7CFE1D08C
:102D7C000B2B61F011D022E030E00AD00E94FC2134
:102D8C0020E030E08D010E943709D8D0E4E0C3C0C8
:102D9C008D010A5F1F4F08950BE814E0FD010183BC
:102DAC0012830895DCDF0C91E6EDF0E0FBBFF8E058
:102DBC000C943C2371D009F458C059D0729671D040
:102DCC000AE152C069D009F450C051D070964ED06F
:102DDC0034966AD009E148C04DD0369665D045C0CE
:102DEC005BD009F442C043D076965BD009E03CC07E
:102DFC0053D0D9F13CD0749639D0389655D008E0E0
:102E0C0033C04AD091F133D07A964BD00FE02CC01E
:102E1C0043D059F12CD0789634D00EE025C03CD05C
:102E2C0021F125D07E963DD005E11EC035D0E9F0CC
:102E3C0026D006E119C030D0C1F019D0B09631D0EF
:102E4C0007E112C029D089F01AD004E10DC00FD0CF
:102E5C00B29617D00FE108C01FD039F023D0FD0176
:102E6C00038102C01FD000E00C9374CF0ED002D0AF
:102E7C00129708958D011196ED91FC910895F7DF4D
:102E8C007C9603D0F4DF3A960FC00ED098018D01DA
:102E9C000A5F1F4F0C9404227BDF0E941222002336
:102EAC000895F3DFE4DF3C962591F491E22F099429
:102EBC0031C05DD039F02A9539F02A9539F02A9530
:102ECC0029F0089505E203C001E001C007E000838A
:102EDC000895089502C002E001C001E00C948A201C
:102EEC00089502E058C016C042D049F02A9529F046
:102EFC002A9529F02A9529F0089501E001C005E2F0
:102F0C00E6CF0DE0FDCF0895E8CF089503E0E6CFBE
:102F1C0003E041C002D00C9496230BD0012B39F066
:102F2C0005E20C9320E030E00A2F21DF07D0E4E02B
:102F3C0008950E948523D801822F089580FB1EF4EA
:102F4C008D010E94BF22089512D049F02A9539F0C4
:102F5C002A9539F02A9539F0235039F0089508E173
:102F6C00B6CF07E0FDCF0DE0FBCF03E1F9CFF801C1
:102F7C00308133832223089501C0089500916200AB
:102F8C000F77009362000895F9CF009162000068FA
:102F9C000093620002C00E949C200C948920BACF3E
:102FAC00E6DF59F02A9549F02A9549F02A9549F01F
:102FBC00235049F02A9549F0089505E288CF07E09F
:102FCC00FDCF0DE0FBCF03E1F9CF0EE1F7CF0C9471
:102FDC006C06FDCF0C9462060C9465060E946C0680
:102FEC00DCCF00ED17E0089500ED17E0089500E246
:102FFC0013E008950CE211E008950CE211E008953D
:10300C000CE211E0089506E910E0089506E910E0DD
:10301C00089502EC11E0089502E310E0089500ED2C
:10302C0017E0089500ED17E0089500E213E008950D
:10303C000CE211E008950CE211E008950CE211E0AD
:10304C00089500ED17E0089500ED17E0089500E2F3
:10305C0013E008950CE211E008950CE211E00895DC
:10306C000CE211E008951DD00E946E09FD0131960D
:10307C0006D0FD01329603D0E4E00C9496239BBF5E
:10308C0006910C946E090DD00E947609FD013196C3
:10309C0004D0FD01329601D0EFCF9BBF06910C946A
:1030AC0076090E948523D801922FF8019BBF0691C7
:1030BC0008951B2E2A2EF80105E515E005A716A785
:1030CC002083318342835383648375830881198100
:1030DC00068317830A811B81008711870C811D8150
:1030EC00028713870E811F81048715870885068741
:1030FC0009851A850787108B0B85018BA485B585EF
:10310C000A2F0B2B31F0468563D01C91102B1C938E
:10311C0067D08F01A22DB12D2C96089500E010E000
:10312C000895E1C1BA93AA93D8018A019B0144E0A6
:10313C000E940D23A801B90167D21296ED91FC9162
:10314C0013970083FD010081F181E02F1083009122
:10315C00DC0C08730660FD01A085B1850C93A99168
:10316C00B99125960895F80120E0208F218F22A790
:10317C0023A724A708950C93A42FB32F08953B2FB6
:10318C004A2FF801A681B7812C91089509D02068A7
:10319C0002D00069F0CF2C93A681B7810C910895D1
:1031AC003B2F4A2FF801A481B581EECF9D01F80188
:1031BC0039D00C910F760C93D90108959D01F8012B
:1031CC00418906D0A785B0891C91102B1C93F4CF94
:1031DC0001E010E00C94D1229D01F80101D0ECCF5C
:1031EC004189F6DF0095A785B0891C9110231C93AB
:1031FC0008955B2F6A2FD801F80104851585012BE2
:10320C0011F08D01DBDF1496ED91FC911597008187
:10321C0000660083FD0106D00C9108620C93A62F6A
:10322C00B52F0895A681B78108955B2F6A2FA9DF6A
:10323C0027792C9324853585232B09F0CDDFEFCF0F
:10324C00F801228B338B448B558B01E068CF6ED009
:10325C00F80100E002A704A5002329F4008D118DCC
:10326C000417150718F00FEF1FEF1BC0012BC1F04F
:10327C00F89480E090E00AC0DF01A80FB91F5A96BD
:10328C000C91D901A80FB91F0C930196008D118DCB
:10329C008017910788F310E0108F118F789401C07C
:1032AC003DDFE4E00C949623AD01F80124893589C7
:1032BC00232B61F4B7DF2C912F7D2C93A481B58146
:1032CC002C91206468DF00640C930EC0A289B38932
:1032DC002D91A28BB38BA285B3852C930489158970
:1032EC0001501040048B158BDA01089548DF2F7BB9
:1032FC002C9301E003A740CF19D0F801208D318D1C
:10330C00203140E0340720F021E024A722A70DC093
:10331C00C9010196808F918FA285B3854C91E20FE4
:10332C00F31F428FF80101E002A7BBCF0C94852359
:10333C0088D01DD0B9DF7ED0189589D015D0D6DFB6
:10334C0009D07CD0189583D00A920ED0D5DF02D04C
:10335C000990F7CF6BBF5FBF0991199129913991F2
:10336C00499159916991089507D05FB76BB7009156
:10337C006F081091700808956A935A934A933A9380
:10338C002A931A930A930895AEC0A895E199FDCF9C
:10339C00F8941FBB0EBBE09A78940DB30895F80116
:1033AC0007C08901F2DF2F5F3F4F0193415050401E
:1033BC00042F052BB1F701E00895E3E6F8E0028352
:1033CC001383208331834683578300E00483058372
:1033DC000895AD01E3E6F8E024813581068117817B
:1033EC0020173107E8F4028113811FBB0EBB028149
:1033FC0013810F5F1F4F02831383E09AA081B18169
:10340C00A20FB31F0C911DB3101719F00DBBE29A4C
:10341C00E19A048115810F5F1F4F0483158306C049
:10342C00E39800E00FBB0EBB01E000875DCF09D035
:10343C00D0DF81CF7BBF6FBF8FDF7991E991F9919D
:10344C00089505D07A9398DF6FB77BB70895FA93F8
:10345C00EA930895792F282E022E80E090E008C080
:10346C00FA017FD06BBF2691F8017BD020830196A7
:10347C0080159307A8F301E0822D972F08950E94E1
:10348C008323C80104E0209FA3E7B5E0A00DB11D84
:10349C0025D02E5F3F4F4FE955E060E0FD0132969D
:1034AC0005911491400F511F8C01D4DF17D0FC01F2
:1034BC00E20FF31F408051808C010E947006401671
:1034CC00510621F4FD013196049104C004E00093EF
:1034DC00A90800E010E0E6E00C949423FD0131967D
:1034EC00249130E00895402F412B21F020FB16F45D
:1034FC000E94BF22089503E10DB907B3066007BB14
:10350C0008B3066008BB08956E9A08956E980895E6
:10351C000FB908EC01C00A95779904C0A89500234F
:10352C00D1F704C009EE0A95F1F700000FB1089528
:10353C00792F082E602F413400E0500780F480E092
:10354C0090E009C0F9010DD00081E2DFE62FF12FE8
:10355C0008D00083019684179507A0F301E0802D15
:10356C008CCFE80FF91F089507C025ED36E02150E8
:10357C003040E9F700C0000002D0B9F70895980177
:10358C0001501040232B0895AECF02E703BD0BE092
:10359C0005BD07B7006807BF0895F7DF009161000C
:1035AC000068009361000091610000640093610069
:1035BC0000916200006400936200A298A198A09808
:1035CC00009164000E7F0093640078940895A80124
:1035DC0060E070E0440F551F661F16D09801220F53
:1035EC00331F30938700209386001093850000933F
:1035FC00840010938300009382000FE200938B00F1
:10360C0009E100938A00089500E010E820E730E01B
:10361C000E94172301501040089500918B00007DEB
:10362C0000938B0000918A00067EEBCF10DFA8DEA2
:10363C002FB7ECE6F8E0008111810F5F1F4F00837C
:10364C0011832FBF0991199129917BCE07E00A9321
:10365C0005E310E0F8D007E00A9304E3F4D00CE99A
:10366C00F2D00DE9F0D00AE9EED06BE970E049E94F
:10367C0050E028E930E000E61CE00E945F1806E408
:10368C0017E063D081D101E91CE00E9442110CE4E7
:10369C0017E05BD027ED31E200EC18E058D002E5E2
:1036AC0017E053D02DED31E20FEC18E050D008E5C7
:1036BC0017E04BD023EE31E20EED18E048D00EE5CA
:1036CC0017E043D029EE31E20DEE18E040D004E6CD
:1036DC0017E03BD024EF31E00CEF18E00E94B0096A
:1036EC000AE617E032D024E630E048D60E94F621F4
:1036FC0000E717E02AD000E119E00E949D1606E7CA
:10370C0017E023D00CE119E00E94A1160CE717E09A
:10371C001CD008E219E00E94A81602E817E015D0A8
:10372C0004E319E00E94B91608E817E00ED005E88A
:10373C0018E00E949A0C0EE817E007D062E476E0DD
:10374C002ED00E947C2404E917E00C9463220C9484
:10375C00990B14D00C94971811D00C946D110ED0A9
:10376C000C94AE0B0BD00C94D80908D00C94FC2103
:10377C0005D00C945E1702D00C94791722E030E03F
:10378C000895FCDF0C949017F9DF0C94D517F6DF35
:10379C000C94CC0C6CED7BE102D00C94C52446E06F
:1037AC0050E020E330E00DEB1DE00895E7DF0C94D2
:1037BC004D06BA93AA9300E61CE0EFE6F8E000830E
:1037CC00118308E010E042D008E740D000EB18E08D
:1037DC003AD000E918E037D008E519E037D000ED11
:1037EC0019E034D001E00A9308E00A930EE40A933E
:1037FC004091DB0C50E04F5F5F4F652F660F660BFF
:10380C00762F00E010E820E730E00E94172344E018
:10381C000E941423A801B90120E63CE001E91CE058
:10382C000E948A112091DA0CE1E9FCE005851685ED
:10383C000E945C0DAEE9BCE0ED91FC9102E00083CE
:10384C00A991B99108951A930A9308951A930A931A
:10385C00FACFEAEDFCE062D40FE2018308E00283C8
:10386C00A8CF60D4022F93D456D4E1F767C49BDF62
:10387C000E94540C76D100E002AF03AF00AF42E0DF
:10388C0082D00DEA18E000D1ECCF8F9A8E9A8D9AE7
:10389C008C9A899A979A969A959A949A919808954F
:1038AC0000FB16F4979801C0979A01FB16F49698B2
:1038BC0001C0969A02FB16F4959801C0959A03FBE9
:1038CC0016F4949801C0949A919A0C948A1A0E94B6
:1038DC008C1A9198979896989598949808950E9418
:1038EC00842304EF11E00E94BA1AA89549E04BD04A
:1038FC0001E51CE0C9D080E090E1A1E5BCE005E069
:10390C00402EA89505E010E00E94BA1A01E9009338
:10391C00100C082FB0D044E0B9D00091D10B013974
:10392C00D1F42CDF01ED1BE00E94A306012B99F0D2
:10393C000091D20B1091510C22E0129F7DD3018388
:10394C000091510C029F78D382830C9103950C93B8
:10395C00033018F015C04A94A1F683959A9579F620
:10396C0000D1038100FF0CC000811091590C01178C
:10397C0029F401811091580C011711F003E000AFEC
:10398C00E5E00C94952350E020E0F9CE20ED3BE0EF
:10399C00F8012183328320E13CE02383348329EA3C
:1039AC0038E02583368320E0218728E639E0278319
:1039BC00308720E0248728EC39E02287338720E009
:1039CC0027872DEA3DE02587368720E0228B20E4EF
:1039DC0039E0208B318B20E0258B2DEA38E0238BCE
:1039EC00348B08950E94842366978E01CFDF442484
:1039FC000BC01091580C112331F40E94DF1327D007
:103A0C0007810395078343940091510C4016E8F409
:103A1C00A89502E0409EA1E5BCE0A00DB11DFD0102
:103A2C000181102F1A9529F0125019F31A9509F3E8
:103A3C00EACF0091590C023030F701E00E94C91511
:103A4C0006D0008503950087DECF669699CF402F70
:103A5C00FD0101871287028108839E01042FE42F48
:103A6C00F12F4185F285E42F4591F491E42F0995CE
:103A7C00E1E5FCE0089514DF0AE613E00150104084
:103A8C00E9F700C0000008950C94B12350E020E148
:103A9C003CE000ED1BE00E949E1A19CF96D2B801B3
:103AAC001A01A0E0B0E059D210C000E0FB01E80F11
:103ABC00F91F0083119648E050E08D010E94F1221D
:103ACC0043E081D2A01BB10B01968215930568F4DB
:103ADC0048E050E08C010E94F122F90142D3508160
:103AEC004A2F7AD211F301E0E1CF62C271D003C048
:103AFC0071D014967BD076D0D8F3D901089568D0C4
:103B0C0003C068D0139672D06DD0D8F373C0BA01CD
:103B1C00472B49F4F8010081002311F122D001E078
:103B2C0004AB06ABECCF613040E0540749F4F8012C
:103B3C0000810023A9F015D001E005AB07ABD6CF6F
:103B4C00E62FF52FE054F040F09750F4A9019801BE
:103B5C0008E519E0060F171FA1DF01E000938908A3
:103B6C000895E1E7F8E0089521970883A90121E081
:103B7C0030E08E01CCDF2196089500917608002369
:103B8C0009F001C002C001E0089500E00895009121
:103B9C00760810E048EE53E00C94C7220091E50C37
:103BAC0000FDF1CFF2CFEAEDFCE000FB038500F95C
:103BBC0003872AE005EE1CE00E9422070C94F50610
:103BCC0007D003C007D0119611D00CD0D8F312C077
:103BDC009D01DBCF12E0019FF001EF5AF34FA1855D
:103BEC00B28508951091510C0117089511E01C93A2
:103BFC000395089502E0009389087FCFE9DF03C0A5
:103C0C00E9DF1296F3DFEEDFD8F377CF8A9322E069
:103C1C0061D0002329F001E00093A10850D0E3D239
:103C2C0022E00FEC18E054D0002329F001E00093BF
:103C3C00A20841D0D8D223E046D019F006E037D004
:103C4C00D2D222E040D039F00091A008083019F40B
:103C5C0009E02DD0C8D20091740822E002FD08C002
:103C6C003CD029F001E00093A30829D0BCD223E07A
:103C7C0034D029F001E00093A4081DD0B4D224E084
:103C8C002CD019F00AE013D0AED225E01FD0802F33
:103C9C0025E020D0202F382F0CEF18E00E94F609D9
:103CAC00002319F0D6DD27E09ED289910895009368
:103CBC00A00827E008950093A808A0DFFACF00938E
:103CCC00A7087EDFF6CF02D0002308950EED18E092
:103CDC000C94D60B00EC18E0FBCF0DEE18E0F8DFDF
:103CEC00F3CF3FDF00E000AB02AB04AB01AB03ABA7
:103CFC0005AB0895BA93AA9375DF70F412E0019F97
:103D0C00E1E5FCE09AD1A185B2858D011996ED9182
:103D1C00FC918AD100E001C001E092CD56D1A0ED1A
:103D2C00BAE040E630DE00ED19E0AEDE20E0F2D085
:103D3C0044E150E09D0101E718E0E5D021E0EAD034
:103D4C0047E050E09D010AED1CE0DDD025E0E2D01B
:103D5C0048E150E09D0100E419E0D5D022E0DAD032
:103D6C0020E06D9150E038E010E0E0EDF9E0E20F7A
:103D7C00F11F062F452F0E94DB22017011F000E885
:103D8C0001C000E00083239553953A9569F72033E1
:103D9C0040F3BBD020E000E6E22FF0E0E053F54F1B
:103DAC0010811F77E22FF0E0E053F64F3081312B7A
:103DBC00308323950A9581F724E0A8D020E010E603
:103DCC0030E0E0EDF9E0E20FF31F3081032F0F77C5
:103DDC000033307830F4B0E00053A02FB54F0C9185
:103DEC00302B308323951A9559F780E090E602E04A
:103DFC00809FADEEBCE0A00DB11D10E0E0EDF9E050
:103E0C00E80FF11F0081037011F10A9529F00A9552
:103E1C0061F00A9599F01BC0008107FF03C00E9456
:103E2C00F60417C00E94E90414C0008107FF03C008
:103E3C000E94C0040EC00E94B8040BC0008107FF92
:103E4C0003C00E94E10405C00E94CA0402C00E9483
:103E5C00B0040D931C9383959A9549F656D040E087
:103E6C0020E660D0118158D03033F80110F4338340
:103E7C0002C000E0038343952A9599F726E046D0CB
:103E8C0040E020E649D04ED0F181E02F34834395B9
:103E9C002A95C1F710E000E322E0129F48D0A081E0
:103EAC00B18115961C9313950A95B9F710E000E3B0
:103EBC0032E0212F205D139FF001E35BF24FA081D4
:103ECC00B18115962C9313950A9599F72AE01ED07B
:103EDC0048E050E020ED3AE005EE1CE014D090E014
:103EEC0082E00E94010522E0929FA3D007831087F5
:103EFC00D80113969C930781F085E02F94839395BA
:103F0C008A9579F755C00C94A12323E000ED1AE0B3
:103F1C000C9412078D01FCCFF0E0E42FE053F54F29
:103F2C003081089502E0409F02D000810895F00195
:103F3C00E351F34F0895AC0110D008E010E09C0160
:103F4C00220F331FEDEAFDE0E20FF31F1083118304
:103F5C0001960A95A1F7CA01089580E090E00895B2
:103F6C0034D0B8012223A0E0B0E031E089F4F5DFD1
:103F7C0028E02DD031F01FD0F801E355F24F01E0CD
:103F8C00018301962A95A9F711963A9589F0EFCFFE
:103F9C00E4DF28E01CD031F00ED0EDEAFDE0E1D0FA
:103FAC00BDD0018301962A95A9F711963A9581F710
:103FBC00E4E00C94962343E08D0105D0080F191F03
:103FCC00000F111F08950C94D1220C948523FB0132
:103FDC00EA0FFB1F5081482F01E010E0F4DF502363
:103FEC0008959A938A9390E080E602E0909F9FDF79
:103FFC002081318110D0C9F78991999108959A93B4
:10400C008A9390E082E002E0909F13D02781308564
:10401C0002D0C9F7F1CF8901F9012181F281E22F98
:10402C0003D093958A95089532962591F491E22FB9
:10403C000994EAEDFCE001C0FD01E00DF11D0895CD
:10404C00F0E0E02FE85AF64F0089089501D06DCFCB
:10405C00F0E0E02FE355F74F08958A93802F202F3F
:10406C00CAD0282FC4D0282FACD0282FBCD01DCE1E
:10407C0009D011F003AF0DD0089504D011F003AFA7
:10408C00ABD00895E1E7F8E002AD13ADADCD01E0A2
:10409C0003D0E3CF00E0FCCF0093AB080093AC0857
:1040AC00089500E119E008D00CE119E005D008E210
:1040BC0019E002D004E319E00C94D816212F50D14A
:1040CC00F801E354F24F228308952CD045D002819D
:1040DC000383008101831FD0C9F708950091AB08B9
:1040EC00D8DF20D039D0038102830181008313D023
:1040FC00C9F7089520DF75DF82DF00E00093A70881
:10410C000093A80808951AC00CD01BD009F406D04F
:10411C0002D0D9F713C023953A95089501E0008396
:10412C000895602F20E030E346E00895FADF09D0CF
:10413C0011F0002309F45083EEDFC9F734DB0C9443
:10414C00560C0AD0028106170895EBDF05D0628366
:10415C00E5DFE1DFD9F7F2CF022F10E003D1EDEB71
:10416C00FDE0E00FF11F0895DCDFE22FF0E0E75BEC
:10417C00F74F0491002321F0EFDF01E0028300836D
:10418C00CADF99F7603310F4062F01D0D7CFE5DFE3
:10419C00528350830895F5D036D0A8950895E4D075
:1041AC0035DDDFDC00A9002331F402A9002319F46A
:1041BC0004A9002321F020E004D020E014D071DF0A
:1041CC00EBCF08E219E00C94AA170091A9080A9504
:1041DC00CBDF00E00093A90821E00DD021E007D04F
:1041EC0026E0EFDF26E004E319E00C94D6170CE18F
:1041FC0019E00C947A1700E119E00C945F17CAD0FF
:10420C0002D0A9D0CACF6DCDE0DEA1E7B8E0009115
:10421C00A008E0E1F0E0FBBFF9E00C943C23A8958A
:10422C0001B5086101BD01B5076001BD0E94D31A3B
:10423C001EDB0E945D060E94F706002371F16EDD05
:10424C00B8DA0E94811A21DB4ADBCCDB27E0CBDF1A
:10425C0070C097D08DD009F47DC090D00E940E22F2
:10426C00A89500E00093AA0803E064C093D073D033
:10427C000091AA083FDD002319F004E06ED004C0C1
:10428C00FD0101AD039501AF0091A908035029F080
:10429C000A9519F00A9519F05DC00CE04BC00EE0C0
:1042AC0049C028DF05E046C0AEDF43C000E0009304
:1042BC00AF081DC00091AF08802F90E00196FD0162
:1042CC00878F90A3003369F0CCDA0091AF0848D007
:1042DC0046DF01E00283008366DA0E94560C08E098
:1042EC0034C006E032C0DE960C9103950C9307E0C7
:1042FC002CC0EBDE02E0CDDE02E027DF28E833E164
:10430C0046D00BE022C036D019F03DD002E025D0CB
:10431C0042DF20C09EDA59DF0DE017C040DF1AC023
:10432C00D4DE53DFA8950FE005C069DF13C02BD096
:10433C00A89502E012D00EC028EE33E028D002E19E
:10434C0004C012D015D011F003E107D0A89502C01B
:10435C000BD001D02DCE0C9471080093A0080895B9
:10436C0010E046E050E018CC01E91CE00C949F12E0
:10437C000E94710803D00E941222A6CC0AE019E018
:10438C000895F2DF0CC06DDAA9DE24E630E0F6DF2A
:10439C000C940422E9DF05E818E00E94DE0C36DC00
:1043AC0080CE00E09A9901E011E00127089500E029
:1043BC00999901E011E00127089500E0989901E036
:1043CC0011E001270895109163001170012F11E085
:1043DC000127089529E738E0F801248335830895EF
:1043EC0049E758E0F8014483558308C0402F412B1E
:1043FC0021F020FB16F40E94BF220895ECE6F8E0B1
:10440C0040815181F8014283538320833183089585
:10441C0011D02283338308950DD042815381241B04
:10442C00350B008111812017310710F001E0089540
:10443C0000E00895ECE6F8E020813181F801089560
:10444C00802F912F0E948022082F192F0C94E22488
:10445C0001E010E00C94E2240E947E234801A22E7D
:10446C00DA01962F82E0782E24016A2C11C002E02A
:10447C00400E511E611E823031F4F2016BBE079169
:10448C00F691E02F099502E0400E00E0501E601EF0
:10449C004A165B06690659F0F2016BBE47915691BC
:1044AC0010E04030504019F3823039F7ECCF8A9548
:1044BC007A94D1F6EBE00C948F23BA93AA93D8019B
:1044CC00ED91FC91119700811181012B21F432D0D7
:1044DC00A017B10711F40E942E222CD0ED91FC9163
:1044EC00119700831183EFEDFEE0A083B183A991B6
:1044FC00B9910895BA93AA9301C009951BD0012BC9
:10450C00C1F00081E091DF0EF12FA081B1812D91DE
:10451C003C91EFEDFEE020833183D8011496ED91B0
:10452C00FC91D80112960D911C91202F212B29F76B
:10453C00E4CFDDCFEFEDFEE00081118108950FE3B4
:10454C000DBF07E00EBFC0E0D3E00E949F23002305
:10455C0011F00E94E6230EE319E020E042E459E05A
:10456C0060E00E9432220E94350D0E94C5220C94FC
:10457C002622202F212B11F00E94E32408950C9465
:10458C002622149F102D059F100D049F002D110D38
:10459C000895000F111F4A95E2F708951695079597
:1045AC004A95E2F70895159507954A95E2F708950F
:1045BC0000241124E0E1001F111FEA9542F0001CB9
:1045CC00111C04161506B8F3041A150AF4CFA00131
:1045DC00009510950895FF27552312F4F1600FD024
:1045EC00112312F4F09507D00E94DE22F0FD03D0C7
:1045FC00F1FD05C008951195019510400895519550
:10460C00419550400895000F111F221F331F4A95EA
:10461C00D2F7089536952795179507954A95D2F7B1
:10462C000895002411241001E0E2001F111F221F25
:10463C00331FEA9572F0001C111C221C331C04164B
:10464C0015062606370688F3041A150A260A370AB1
:10465C00ECCFA001B10100951095209530950895EF
:10466C004791179011FA279037900895F9DF041BA2
:10467C0010E000C020E030E000C0B8F010FC17C023
:10468C0047910790E00FF11F0417100540E0240735
:10469C00340758F436F406910024F101E01BF009BC
:1046AC000994E00FF11F27903790F101099411F450
:1046BC00D6F7F1CF31960EF0319650E060E070E015
:1046CC0047914B3F48F089F34F3F29F04E3F11F093
:1046DC007791679157914791041B150B260B370B5C
:1046EC0039F318F3E7CFFA92EA92DA92CA92BA92B5
:1046FC00AA929A928A927A926A925A924A92BA930D
:10470C00AA939A938A930895FF84EE84DD84CC84D3
:10471C00BB84AA84998488847F806E805D804C8061
:10472C00BB81AA8199818881F0E0EC0FFD1FEF011C
:10473C00089501E008957B2F0A2ED80106C0F901D7
:10474C0061919F016D9341505040642F652BB9F7D7
:10475C00A02DB72F0895F80103C02193415050406C
:10476C00342F352BD1F708959A938A93C80102C040
:10477C000E94D4238C010E949F25202F212B59F4B9
:10478C00E1EEFEE02081318100E02030300781F342
:10479C00F9010995EFCF8991999108950C942E22E6
:1047AC0020E02D9301501040E1F708953BBF269176
:1047BC002D93EF5FFF4F3F4F01501040B9F7089515
:1047CC0040EE5BE460E0FA01362F3BBF0791169197
:1047DC00FA01EE5FFF4F3F4F3BBFA791B691FA0135
:1047EC00362FEC5FFF4F3F4F3BBF07901790269043
:1047FC00202D2129222921F0F001322DD7DF01C0F3
:10480C00CFDF495F5F4F6F4F1BE420E04E3E5107F7
:10481C006207C8F2089504501040672B11F02C5F0A
:10482C003F4FFA0109949A938A93F80189013497BE
:10483C0080819181428153814095509554D080174D
:10484C00910711F00E942E228C0189919991089563
:10485C000E947B23D80169015A01CB010B2B21F05B
:10486C00088D198D012BE1F089013DD028010A2F0B
:10487C000B2B69F4042D0C5F1F4FEA89FB890995FA
:10488C00D801012B09F014960A2F0B2B29F1FD01ED
:10489C0034974082518286010095109502831383D0
:1048AC008E849F8400E080169006B1F04424552439
:1048BC003D010AC09C0114D08A0D9B1D01E0400EE5
:1048CC0000E0501E6A0C7B1C4C145D0428F4082F6D
:1048DC00092B81F705D0F2CF8D01EAE10C948C23E2
:1048EC008301F40109940C94C722B2CFE0E008D004
:1048FC0007D001D0FACF7A936A9360E070E0089504
:10490C0041D0EA9308950E947B235801C9013A01D2
:10491C006B0144245524012B81F12F3F3F4F41F46F
:10492C009A010A2D80DF2801A3010E94DE22C80112
:10493C0000E0C016D006B1F0A0E0B0E08C01015050
:10494C001040A301D0DF450108C08401F601099590
:10495C0011968301119501951040800E911EA81798
:10496C00B90798F34E855F8500E04030500729F079
:10497C0068897989920185014EDFE2E1AFCF01D0E0
:10498C00C2CFE0E000D0EA93BCCFE3EEFEE00081C2
:10499C001181012B19F000E010E0089500E013E004
:1049AC000083118300E014E0E0E0F3E00083118366
:1049BC008F0108950C942E22FFCF1D01202F212B47
:1049CC0009F464C002501040F80140815181443018
:1049DC0020E0520708F45AC025EE3EE0D9011296A9
:1049EC00ED91FC916E2F6F2B19F00E171F0738F4F9
:1049FC00D8011296ED93FC93F90124C0FB0148D029
:104A0C0019F060177107D0F300801180BF01600DA1
:104A1C00711D06171707D0F16017710739F4800163
:104A2C00040F151F008311838F010EC031D031F09C
:104A3C000801040E151E6015710540F1D80112967F
:104A4C006D937C9302831383F801A281B3814A2F67
:104A5C004B2BE1F040815181B801640F751F6A172F
:104A6C007B07A1F4F90120E020832183FD01208143
:104A7C003181F80140815181420F531F4083518392
:104A8C00FD0122813381F80122833383D101089502
:104A9C0062817381062E072A08950E948523C8011E
:104AAC0004C00E5F1F4F0E94E324E5EEFEE0A081E0
:104ABC00B1810A2F0B2B69F4A7EEBEE032D011F1B5
:104ACC002BD0F0F4DF011296F9CF26D0C8F4DF0119
:104ADC00129627D0D1F7E5EEFEE00081F181E02FB0
:104AEC0000811181A7EEBEE002C0DF0112961DD03D
:104AFC00E017F10739F02081318128173907A8F325
:104B0C008D0107C00E94CB24202F212B51F600E0F1
:104B1C0010E0E4E00C94962300811181081719072A
:104B2C00089503D00E2F0F2B0895ED91FC91119742
:104B3C0008950E948523C80102960817190758F496
:104B4C00843000E0900710F484E090E08C01A5DF45
:104B5C00D801012B19F400E010E03BC00D911C9121
:104B6C001197F80140815181FA013497E817F90740
:104B7C0038F4F801228133812D933C93119714C0A2
:104B8C009801280F391FFD0120833183F8016281C0
:104B9C007381F90162837383481B590BC6DF408311
:104BAC005183F801808391832D913C91422F432BAB
:104BBC0041F0F90142815381452B19F02E5F3F4F93
:104BCC0002C020E030E0E5EEFEE0208331830E5F92
:104BDC001F4F9FCF4F079A070000005A004007EE67
:104BEC004B0020081A0834078F0C600CAF1BC20C4A
:104BFC00910CB21BC40CC008B51BC60CCF08B51B5E
:104C0C00C80CDE08B51BCA0CED08B51BCC0CFC0897
:104C1C00B81BCE0C0A09BB1BD00C1009BE1BD20C46
:104C2C001C09C11BD40C2809C71BD60C3409CA1B80
:0C4C3C00D80C8508CD1BDD0E0000D01B3D
:00454A0170
:00000001FF
