:100000000C942540189518951895189518951895DD
:100010001895189518951895189518951895189578
:10002000189518950C945A31189518951895189597
:100030001895189518951895189518951895189558
:100040001895189518951895189518951895189548
:1000500018951895189518950C94183018951895AA
:100060001895189518951895189518951895189528
:1000700018951895189518950C94792F0C94352F80
:100080000C94532F1895189518951895000000009A
:100090009A05AE05040A070A0A0AB907AE05160A48
:1000A000190A1C0ACC07AE051F0A220A250ADF0717
:1000B000AE05280A2B0A2E0AF207AE05310A340AC9
:1000C000370A0508AE053A0A3D0A400A1808AE0587
:1000D000430A460A490A2B08AE054C0A4F0A520A3F
:1000E0003E08AE05550A580A5B0A5108AE055E0A7D
:1000F000610A640A64087708670A6A0A6D0A0F09C8
:100100007708700A730A760A22097708790A7C0A46
:100110007F0A35097708820A850A880A48095C0936
:100120008B0A8E0A000000000000000000000000A2
:10013000000000000000C30AD10A0000C1C081C154
:10014000400101C3C003800241C201C6C00680074E
:1001500041C70005C1C581C4400401CCC00C800D5D
:1001600041CD000FC1CF81CE400E000AC1CA81CB64
:10017000400B01C9C009800841C801D8C0188019C6
:1001800041D9001BC1DB81DA401A001EC1DE81DFCC
:10019000401F01DDC01D801C41DC0014C1D481D58D
:1001A000401501D7C017801641D601D2C012801366
:1001B00041D30011C1D181D0401001F0C030803155
:1001C00041F10033C1F381F240320036C1F681F7CC
:1001D000403701F5C035803441F4003CC1FC81FD5D
:1001E000403D01FFC03F803E41FE01FAC03A803BE6
:1001F00041FB0039C1F981F840380028C1E881E9A4
:10020000402901EBC02B802A41EA01EEC02E802F4D
:1002100041EF002DC1ED81EC402C01E4C02480258C
:1002200041E50027C1E781E640260022C1E281E3E3
:10023000402301E1C021802041E001A0C060806135
:1002400041A10063C1A381A240620066C1A681A74B
:10025000406701A5C065806441A4006CC1AC81AD5C
:10026000406D01AFC06F806E41AE01AAC06A806B65
:1002700041AB0069C1A981A840680078C1B881B9C3
:10028000407901BBC07B807A41BA01BEC07E807FCD
:1002900041BF007DC1BD81BC407C01B4C07480758C
:1002A00041B50077C1B781B640760072C1B281B363
:1002B000407301B1C071807041B00050C190819114
:1002C00040510193C053805241920196C0568057CD
:1002D00041970055C19581944054019CC05C805D5C
:1002E000419D005FC19F819E405E005AC19A819BE3
:1002F000405B0199C059805841980188C0488049A5
:100300004189004BC18B818A404A004EC18E818F4A
:10031000404F018DC04D804C418C0044C18481858B
:1003200040450187C047804641860182C0428043E4
:1003300041830041C18181804040000000000000F5
:1003400000000000000000000000000000000000AD
:10035000000000000000000000000000000000009D
:100360000000000000007B0F890F8A0F890F00003A
:10037000000000000000000000000000000000007D
:10038000000000000000000000000000000000006D
:10039000000000000000000000000000000000005D
:1003A000000000000000000000000000000000004D
:1003B0009E10890FB210890F3E138D1300000000AC
:1003C000000000000000000000000000000000002D
:1003D0000000262E2F271F170F07050D151D1E16AF
:1003E0000E06141C242C2D25040C222A2B231B134F
:1003F0000B03010911191A120A02101820282921C9
:1004000000083F3F3F0000000000FF00FF00FF002A
:100410000000FFFFFFFFFF3C15890F0000000000F8
:1004200000000000000000000000000000000000CC
:10043000005C156F150000000000000000000000C7
:1004400000000000000000000000002D16890F448D
:10045000168042804280428042D61DDA1D00000094
:10046000000000000000000000000000000000008C
:100470000000000F1E691F831F4A1F8E1F19209145
:10048000229922281E8E224416661F801F8B1F9DD4
:100490001F95229D22830400000000000000000040
:1004A00000000000000000000000000000E722083B
:1004B00025CE22E422890F00000000000000000089
:1004C000000000000000000000000000005E259F0A
:1004D0002545255B25890FA626C6268042804280B9
:1004E00042804280428042AC2CB02CB42CB82CBC50
:1004F0002CC02CC42CC82CCC2CD02C6029C626AAED
:1005000029AB29B429BD29BE297729D42CD82CDCC4
:100510002CE02CE42CE82CC42CC82CCC2CD02CC9DE
:1005200029C626132A142A1D2A1E2A272AE029EC66
:100530002CF02CF42CF82CFC2C002DC42CC82CCC2A
:100540002CD02C222B722B3A2B452B502B5B2B665D
:100550002B392B042D082D0C2D102D142D182DC4E6
:100560002CC82CCC2CD02C00000000000000000077
:1005700000000000000000000000000000322AC659
:1005800026812A892A8A2A922A9A2A492AAC2CB0B8
:100590002CB42CB82CBC2CC02CC42CC82CCC2CD0EB
:1005A0002CA42AC626F82A002B082B102B182BBBAC
:1005B0002AAC2CB02CB42CB82CBC2CC02CC42CC80D
:1005C0002CCC2CD02CB62D972FF030000000000042
:1005D000000000000000000000000000000000001B
:1005E0000090300201300000000000000000000018
:1005F000000000000000006F0A012F0873060000D1
:10060000171B0000000000000000000000000000B8
:100610000000BEF0000102030405060708090A0BEA
:100620000C0D0E0F101112131415161718191A1B92
:100630001C1D1E1F202122232425262728292A2B82
:100640002C2D2E2FFFFFFFFFFFFFFFFFFFFFFFFF00
:10065000FFFFFFFFFFFFFFFFFFFFFFFFFFFFFFFFAA
:10066000FFFFFFFFFFFFFFFFFFFFFFFFFFFFFFFF9A
:10067000FFFFFFFFFFFFFFFFFFFFFFFFFFFFFFFF8A
:10068000FFFFFFFFFFFFFFFFFFFFFFFFFFFFFFFF7A
:10069000FFFFFFFFF95A03030303030303030303ED
:1006A000030303030303030303030303030302021C
:1006B000020202020202020202020202020202021A
:1006C000020202020202020202020202020202020A
:1006D00002020202020239413E3E3E3E3C3C3C3CAC
:1006E000FFFFFFFFFFFFFFFFFFFFFFFFFFFFFFFF1A
:1006F0004B6F010204081020408000000000000041
:1007000000000000000000000000000000000000E9
:1007100000000000000000000000000000000000D9
:1007200000000000000000000000000000000000C9
:1007300000000000000000000000000000000000B9
:1007400000000000000000000000000000000000A9
:100750000000000000000000000000000000000099
:100760000000000000000000000000000000000089
:10077000000099E8010102100020000000000000C4
:100780000000000000000000000000000000000069
:100790000000000000000000000000000000000059
:1007A0000000000000000000000000000000000049
:1007B0000000000000000000000000000000000039
:1007C000000000000023E20101050000FF0000001E
:1007D0000000000000000000000000000000000019
:1007E0000000000000000000000000000000000009
:1007F00000000000000000000000000000000000F9
:1008000000000000000000000000000000000000E8
:1008100000000000000000007B9C0101050100FFBA
:1008200000000000000000000000000000000000C8
:1008300000000000000000000000000000000000B8
:1008400000000000000000000000000000000000A8
:100850000000000000000000000000000000000098
:100860000000000000000000000000FB6C00000021
:100870000000000000BEF00000000000000000408A
:100880000B001400000107160002101F0003803146
:10089000000440B3000518F50006800F01075191D0
:1008A000010851E401095137020A088A020B089431
:1008B0000200000000000000000000000000000036
:1008C000000000000000000101010101010101011F
:1008D0000000000000000101000000000000010114
:1008E0000000000000000101000000000000010104
:0908F00001010101010101683F51
:1008FA000101631D081D010F1D01161D011D1D01AA
:10090A00241D012B1D01321D07401D01391D014700
:10091A001D014E1D06551D2A6A1D036A1D016A1D09
:10092A00015C1DFB00008B2214008B228B222720E6
:10093A00322043209420F72024212F214F215C21AB
:10094A008B2265217A21C72126224722542274222A
:10095A00832200015D295D2901432701642705706F
:10096A002701912701B92704E127010228012A2832
:10097A00045228017328019B2801C32801EB28018E
:10098A00D22601F326011B27041329013429064E16
:10099A0029FB0000AB3E16009C3DAB3EBB3DD63D5D
:1009AA00013E063EAB3EAB3EAB3EAB3EAB3E0B3EE4
:1009BA00173E193E263E493E4B3E6D3E6F3E7E3EF9
:1009CA008E3EA53E2B0CEC31BA93AA93D8018D0129
:1009DA000E94600F00E910E0FD01018312838D017E
:1009EA00A991B9910895BA93AA93D8018D01ECDF20
:1009FA000AE910E0FD010183128320E08D010E94C3
:100A0A00FB098D01A991B9910895BA93AA93D801C6
:100A1A008D01DADF04EA10E0FD010183128321E08F
:100A2A008D010E94FB098D01A991B9910895BA938C
:100A3A00AA93D8018D01C8DF0EEA10E0FD010183F7
:100A4A00128321E08D010E94FB098D01A991B991C0
:100A5A000895BA93AA93D8018D01B6DF08EB10E086
:100A6A00FD010183128321E08D010E94FB098D01A2
:100A7A00A991B9910895BA93AA93D8018D01A4DFD7
:100A8A0002EC10E0FD010183128321E08D010E9436
:100A9A00FB098D01A991B9910895BA93AA93D80136
:100AAA008D0192DF04EF10E0FD010183128321E042
:100ABA008D010E94FB098D01A991B9910895BA93FC
:100ACA00AA93D8018D01E9DF0EEF10E0FD01018341
:100ADA00128321E08D010E94FB098D01A991B99130
:100AEA000895BA93AA93D8018D01D7DF08E011E0DF
:100AFA00FD010183128321E08D010E94FB098D0112
:100B0A00A991B9910895BA93AA93D8018D01C5DF25
:100B1A0002E111E0FD010183128321E08D010E94AF
:100B2A00FB098D01A991B99108950E942541C80137
:100B3A00D901082F092B51F020E030E08C010E94E6
:100B4A007B0FA0FB1EF48C010E943F40E4E00C9452
:100B5A0036410E942341D80144248D01FD0121819F
:100B6A003281F9013896259134913997F90109951D
:100B7A00002311F001E001C000E0002309F443C0A2
:100B8A008D010E940D0A0E94EA3A005039F00A9536
:100B9A0029F00A9581F10A9571F161C0FD018181FF
:100BAA00928106968D010E940D0A0E94EA3A502E01
:100BBA0050FA552450F88D01FC0125913491319752
:100BCA00F90109955026552011F001E001C000E015
:100BDA00002349F0442443948D010E940D0A11E038
:100BEA000E94CC3A3CC044248D010E940D0A10E0B8
:100BFA000E94CC3A34C044248D010E940D0A10E0B0
:100C0A000E94CC3A2CC0FD018181928106968D0109
:100C1A000E940D0A0E94EA3A502E51FA552450F8C1
:100C2A008D01FC01259134913197F90109955026DE
:100C3A00552011F001E001C000E0002349F04424EE
:100C4A0043948D010E940D0A11E00E94CC3A07C01C
:100C5A0044248D010E940D0A10E00E94CC3A8D01B5
:100C6A000E94FE090050A9F00A95A1F00A9509F41C
:100C7A00EBC00A9509F4B6C00A9509F40BC10A95A6
:100C8A0009F41FC10A9509F430C1025009F444C19C
:100C9A0068C167C18D01FD0121813281F901389650
:100CAA00259134913997F9010995002311F001E052
:100CBA0001C000E0002309F45AC08D010E940D0A08
:100CCA000E94EA3A005039F00A9529F00A95F1F1A2
:100CDA000A95E1F146C14420C1F18D010E94130A2F
:100CEA0021E00E94E5398D01FD0121813281F9015E
:100CFA003496259134913597F9010995802F8D0104
:100D0A000E94100A182F0E94443B8D01FD01218187
:100D1A003281F9013496259134913597F901099573
:100D2A00802F8D010E94100A182F0E94513BEAEC75
:100D3A00FCE0038103FF05C023E08D010E94FB094B
:100D4A0010C122E08D010E94FB090BC18D010E9496
:100D5A00100A11E00E94443B8D010E94100A12E021
:100D6A000E94513B28E08D010E94FB09FAC04420F1
:100D7A00C1F18D010E94130A21E00E94E5398D011B
:100D8A00FD0121813281F9013496259134913597FB
:100D9A00F9010995802F8D010E94100A182F0E94CF
:100DAA00443B8D01FD0121813281F901349625915F
:100DBA0034913597F9010995802F8D010E94100A07
:100DCA00182F0E94513BEAECFCE0038103FF05C0A7
:100DDA0023E08D010E94FB09C4C022E08D010E941C
:100DEA00FB09BFC0442059F08D010E94130A20E07C
:100DFA000E94E5390E949A0A002361F416C08D0107
:100E0A000E94100A10E00E94443B21E08D010E94DA
:100E1A00FB09A7C08D010E94100A11E00E94443B01
:100E2A0025E08D010E94FB099CC00E94970A0023BD
:100E3A0051F08D010E94100A11E00E94443B24E007
:100E4A008D010E94FB098DC0442031F08D010E9462
:100E5A00130A20E00E94E5390E949A0A002359F0F9
:100E6A008D010E94100A11E00E94443B25E08D0189
:100E7A000E94FB0976C00E94970A002351F08D0157
:100E8A000E94100A11E00E94443B24E08D010E9456
:100E9A00FB0967C00E949A0A002329F025E08D0108
:100EAA000E94FB095EC0442029F426E08D010E94BD
:100EBA00FB0957C08D010E94130A20E00E94E53900
:100ECA0050C0442059F48D010E94100A10E00E947B
:100EDA00443B21E08D010E94FB0943C08D010E9421
:100EEA00130A20E00E94E5393CC0442031F08D010C
:100EFA000E94130A20E00E94E5390E949A0A002300
:100F0A0081F18D010E94100A10E00E94443B21E009
:100F1A008D010E94FB0925C08D01FD0121813281CD
:100F2A00F9013896259134913997F90109950023E9
:100F3A0011F001E001C000E0002399F08D010E9448
:100F4A000D0A0E94EA3A005011F00A9551F48D01F7
:100F5A000E94100A10E00E94443B21E08D010E9489
:100F6A00FB09E6E00C9434410E942541C801D901ED
:100F7A00082F092B49F020E030E08C01D6DDA0FBD8
:100F8A001EF48C010E943F40E4E00C9436410E941A
:100F9A002541C801D901082F092B49F020E030E08A
:100FAA008C01C3DDA0FB1EF48C010E943F40E4E0EB
:100FBA000C9436410E942541C801D901082F092BFA
:100FCA0049F020E030E08C01B0DDA0FB1EF48C017A
:100FDA000E943F40E4E00C9436410E942541C8013A
:100FEA00D901082F092B49F020E030E08C019DDD62
:100FFA00A0FB1EF48C010E943F40E4E00C943641B1
:10100A000E942541C801D901082F092B49F020E087
:10101A0030E08C018ADDA0FB1EF48C010E943F4067
:10102A00E4E00C9436410E942541C801D901082FF9
:10103A00092B49F020E030E08C0177DDA0FB1EF49B
:10104A008C010E943F40E4E00C9436410E94254105
:10105A00C801D901082F092B49F020E030E08C01A2
:10106A0064DDA0FB1EF48C010E943F40E4E00C9476
:10107A0036410E942541C801D901082F092B49F0A0
:10108A0020E030E08C0151DDA0FB1EF48C010E94AF
:10109A003F40E4E00C9436410E942541C801D90141
:1010AA00082F092B49F020E030E08C013EDDA0FB3F
:1010BA001EF48C010E943F40E4E00C9436410E94E9
:1010CA002541C801D901082F092B49F020E030E059
:1010DA008C012BDDA0FB1EF48C010E943F40E4E052
:1010EA000C9436410E942441D8018D010E94FE09C8
:1010FA00005031F00A9529F0065009F454C087C00F
:10110A0086C0FD018181928106968D010E940D0A99
:10111A000E94DC3A402E8D01FC01259134913197D1
:10112A00F90109954026442011F001E001C000E0D0
:10113A000023C1F18D010E94130A21E00E94E539C2
:10114A008D011196ED91FC91129734962591349167
:10115A003597F9010995802F8D010E94100A182FE1
:10116A000E94443B8D011196ED91FC9112973496A1
:10117A00259134913597F9010995802F8D010E94A7
:10118A00100A182F0E94513B8D010E94100A0E94DA
:10119A00A30A21E00E94010A0E94913327E08D01EF
:1011AA000E94FB0934C0FD018181928106968D015E
:1011BA000E940D0A0E94DC3A402E8D01FC01259105
:1011CA0034913197F90109954026442011F401E040
:1011DA0001C000E00023A9F08D010E94100A10E06E
:1011EA000E94443B8D010E94100A0E94A30A20E03B
:1011FA000E94010A0E94913321E08D010E94FB099D
:10120A0006C08D010E94130A20E00E94E539E5E03C
:10121A000C9435410E942541C801D901082F092B98
:10122A0049F020E030E08C014ADFA0FB1EF48C017B
:10123A000E943F40E4E00C9436410E942541C801D7
:10124A00D901082F092B49F020E030E08C0137DF63
:10125A00A0FB1EF48C010E943F40E4E00C9436414E
:10126A000E942541C801D901082F092B49F020E025
:10127A0030E08C0124DFA0FB1EF48C010E943F4069
:10128A00E4E00C9436410E942541C801D901082F97
:10129A00092B51F020E030E08C010E947B0FA0FB6B
:1012AA001EF48C010E943F40E4E00C9436410E94F7
:1012BA002441D8018D010E94FE09005049F00A9587
:1012CA0041F00A9509F463C00A9509F46BC08BC012
:1012DA008AC0FD018181928106968D010E94910A40
:1012EA000E94F03A402E8D01FC01259134913197EC
:1012FA00F90109954026442011F001E001C000E0FF
:10130A00002309F470C00E94A00A073021F1FD01F0
:10131A008181928104960E94A00A402E8D01FC01CF
:10132A00259134913197F9010995401610F001E0A1
:10133A0001C000E0002379F48D011196ED91FC9132
:10134A0012973496259134913597F90109950E949F
:10135A009D0A0E94F63A8D011196ED91FC91129721
:10136A003496259134913597F9010995802F8D018D
:10137A000E94940A182F0E94513B8D010E94940AE0
:10138A000E94C73C22E08D010E94FB092CC00E94EA
:10139A00970A002341F10E94153B23E08D010E9428
:1013AA00FB0921C0FD018181928106968D010E946F
:1013BA00910A0E94F03A402E8D01FC012591349148
:1013CA003197F90109954026442011F401E001C042
:1013DA0000E0002341F00E941E3B0E94963321E068
:1013EA008D010E94FB09E5E00C943541F801208348
:1013FA000895F80100810895F8012083089598015D
:10140A0000E00895980100E00895980100E0089529
:10141A00F80105810895F801038108950C5F1F4FB3
:10142A000895980100E00895980100E00895980150
:10143A0000E00895980103E00895980100E00895F6
:10144A00980100E00895980103E00895980101E0E9
:10145A000895980100E00895980103E0089598011D
:10146A0000E00895980101E00895980103E00895C5
:10147A00980101E00895980101E00895980104E0B7
:10148A000895980100E00895980100E008959801F0
:10149A0004E00895980101E00895980100E0089594
:1014AA00980104E00895980100E00895980101E088
:1014BA000895980104E00895980101E008959801BB
:1014CA0001E00895980101E00895980100E0089567
:1014DA00980100E00895980101E00895980101E05B
:1014EA000895980100E00895980101E0089598018F
:1014FA0000E00895980101E00895980101E0089537
:10150A00980101E00895980101E00895980107E023
:10151A000895980100E00895F80104810895F801FA
:10152A00038108950091500C08950091510C08957B
:10153A000093BF0C08950091BF0C089510E048E095
:10154A0050E00E94474098010BED1DE0020F131F67
:10155A00089526E331E0F80126833783F80120E075
:10156A002083F80120E02183F80120E02283F8019A
:10157A0020E02383F80120E0248308959A938A9334
:10158A00C801082F092B29F020FB1EF48C010E94A8
:10159A003F408991999108959A938A93C801082F97
:1015AA00092B29F020FB1EF48C010E943F408991EF
:1015BA00999108950E94050B0E94010B0E940B0B42
:1015CA000E94070B089508EF12E00E9424310E943E
:1015DA00030B0E94090B08950AE81CE00E942431BB
:1015EA000E94030B0E94090B08950E94050B0E949A
:1015FA000B0B0E944F310895149A08951C9A08956E
:10160A001C980895159A08951D9A08951D9808958D
:10161A007B2F2A2ED8010FEF1FEF40E050E0421730
:10162A00530798F46C91502F65271196012F10E0FB
:10163A00E62FF0E0EE0FFF1FE65CFE4F05901490D8
:10164A003197002511254395E9CFA22DB72F08958B
:10165A00F80100E010E0408150E0040F151F3196B8
:10166A0021503040422F432BB1F708950E94254163
:10167A00F801C90120E030E0008110E0200F311F9D
:10168A0031960197082F092BB9F7DF01FD01319631
:10169A00022F1C91011749F48901012F10E01081D2
:1016AA00011719F401E010E002C000E010E0E4E0E4
:1016BA000C943641F80140E00081400F31962150E8
:1016CA003040022F032BC1F70081401719F401E0C3
:1016DA0010E0089500E010E00895A895089510E03C
:1016EA0048E050E00E944740F801E056F84F068172
:1016FA00178108950091310808950CE00895009328
:10170A00520C08950E9425410E943F0CB0E0A1E0CE
:10171A000A2F015039F00A9539F10A95A1F10A9573
:10172A0081F133C00E94820BB017E0F42B2F0AE13B
:10173A001AE00E942F0FC801082F092B89F04B2F9E
:10174A0043959C010AE11AE00E94860D002311F0DC
:10175A00A2E01BC00E947F0B0430B9F4A3E015C0BD
:10176A00A3E013C0A4E011C00E947F0B033019F458
:10177A00B395A1E00AC00E947F0B043031F4A3E0C4
:10178A0004C001E00BC000E009C00E942C0E0AE070
:10179A0010E00E94E1300E94720BBACFE4E00C9490
:1017AA0036410E94A90D08950E94CE0D08950E9407
:1017BA00FA0D089500E00E94840B0E94CA0E0023CD
:1017CA0099F0EFDF002351F0F2DF002311F001E07E
:1017DA00089504E00E94840B00E0089504E00E944A
:1017EA00840B90DF00E0089504E00E94840B8ADFF6
:1017FA0000E008950E942641C801A22F2A2F2395AE
:10180A008C010E94750CE3E00C9437418A93802F77
:10181A000E94820B801730F4082F03950E94740BE4
:10182A0010E002C000E010E0899108950E9426416C
:10183A00C801A22F0A2FEADF98014A2F43958C018B
:10184A000E94860D10E0E3E00C94374108E218E0AC
:10185A000E944D3F00E417E00E94E33F08959A93E7
:10186A008A93C80122E030E08C010E94683F899186
:10187A00999108950AE11AE0E6E2F8E000831183FB
:10188A0000E00E94510F4CE650E020E030E000EA10
:10189A0017E00E945141E0EAF7E000E110E004831A
:1018AA001583E0EAF7E00CE610E0068317830EE6FC
:1018BA0010E00E94FB11E0EAF7E0008711870EE6CC
:1018CA0010E00E94FB11005F1F4FE0EAF7E002837D
:1018DA001383E0EAF7E000E0008300E00183089563
:1018EA000E941B41D1503801822E0DE0801618F05B
:1018FA0000E010E077C0082D10E048E050E00E94B8
:10190A004740F801E056F84F06811781012B09F488
:10191A0051C0082D10E048E050E00E944740F8010D
:10192A00E056F84F00851185012B09F443C0082DB4
:10193A0010E048E050E00E944740F801E056F84FB6
:10194A00048115816801082D10E048E050E00E94EA
:10195A004740F801E056F84F068117812801082D03
:10196A0010E048E050E00E944740F801E056F84F86
:10197A00008511855801A50196018E010E94B22F9A
:10198A00A5019E018E010E94AC12FE01E40DF51D17
:10199A00808190E0FE01E40DF51D118100E0802BAD
:1019AA00912B92018E010E940D0BD8018A179B0779
:1019BA00A1F403C000E010E015C0082D10E0000FEC
:1019CA00111FF801E45FF74F80839183A2019E0102
:1019DA0083010E944141820105C004E00E94840BF8
:1019EA0000E010E0DF5FEEE00C942C410E941F4102
:1019FA00D1502801C901642E0DE0601618F000E0EC
:101A0A0010E07BC0AC0192018E010E9441419C0111
:101A1A0082010E940D0BD8010A2FFE01E80FF91F5F
:101A2A0000838D01012F10E0FE01E80FF91F0183E9
:101A3A00062D10E048E050E00E944740F801E056C9
:101A4A00F84FA287B387AC014E5F5F4F9E01E6E273
:101A5A00F8E0008111810E9405124801062D10E06C
:101A6A0048E050E00E944740F801E056F84F0085F0
:101A7A001185012B69F5E0EAF7E022813381062D11
:101A8A0010E048E050E00E944740F801E056F84F65
:101A9A0024833583E0EAF7E002811381080D191DDA
:101AAA0002831383062D10E048E050E00E9447406D
:101ABA00F801E056F84F86839783062D10E048E038
:101ACA0050E00E944740F801E056F84F8086918620
:101ADA00A401E6E2F8E020813181BA01062D10E086
:101AEA0048E050E00E944740F801E056F84F048170
:101AFA001581AB010E94C52F8401DF5FEAE00C94D7
:101B0A0030410E942441D801C901442E0E94540F39
:101B1A00002399F4442D9C018D0168DF012B41F0CB
:101B2A0001E00E94570F01E00E94510F01E009C035
:101B3A0004E00E94570F00E004C002E00E94570F21
:101B4A0000E0E5E00C943541BD01E1E0F0E0EC3065
:101B5A0000E0F007D8F48F01000F111FD801A45F2D
:101B6A00B74F2D913C9111978F0148E050E00E94A8
:101B7A004740D801A655B84F0D911C9111972017CF
:101B8A00310711F000E003C03196E1CF01E0DB013B
:101B9A000895BA93AA936897E0E0F0E0EC3000E089
:101BAA00F007B0F48F0148E050E00E944740D801A6
:101BBA00AE54B84F2D913C911197DE018F01000F61
:101BCA00111FA00FB11F2D933C9311973196E6CFA9
:101BDA0028E130E08E010E940D0BE0EAF7E0008375
:101BEA0011836896A991B9910895BA93AA936897AF
:101BFA00E0E0F0E0EC3000E0F007B0F48F0148E0FC
:101C0A0050E00E944740D801AE54B84F2D913C9104
:101C1A001197DE018F01000F111FA00FB11F2D9325
:101C2A003C9311973196E6CF28E130E08E010E946D
:101C3A000D0BE0EAF7E0208131812017310711F41A
:101C4A0001E001C000E06896A991B99108950E9447
:101C5A00540F005079F00A9571F00A95B1F00A957F
:101C6A0089F10A9509F443C00A9509F459C00A95FD
:101C7A0009F473C008950E944E0F28EC30E00E94C8
:101C8A00763F02E00E94510F08950E943C0F002304
:101C9A0061F00E944E0F20E137E20E94763F0E94D7
:101CAA00480F03E00E94510F08950E944E0F0E94B0
:101CBA00903F002331F004E00E94570F00E00E9499
:101CCA00510F08950E94450F002321F004E00E945D
:101CDA00510F08950E944E0F0E94903F002331F049
:101CEA0004E00E94570F00E00E94510F089540E05F
:101CFA002CE630E000EA17E079DE012B51F00E9471
:101D0A004E0F28EC30E00E94763F05E00E94510F0A
:101D1A00089504E00E94570F00E00E94510F0895B1
:101D2A000E943C0F002361F00E944E0F20E137E22F
:101D3A000E94763F0E94480F06E00E94510F0895C4
:101D4A000E944E0F0E94903F0023F1F004E00E948F
:101D5A00570F00E00E94510F08950E94450F00237B
:101D6A0039F003E00E94570F00E00E94510F0895D6
:101D7A000E944E0F0E94903F002331F004E00E941F
:101D8A00570F00E00E94510F08950E94254172DD0D
:101D9A0020E000EA17E0A4DD012B11F400E057C0AF
:101DAA00B0E0A1E000E00E945A0F0A2F015059F05A
:101DBA000A9509F10A9581F10A95D1F10A95E9F195
:101DCA000A95C9F13CC0BD30A0F42B2FE6E2F8E039
:101DDA000081118185DDC801082F092B41F00E947D
:101DEA005D0F002311F0A2E02AC0A4E028C0A5E0FC
:101DFA0026C0A6E024C04B2F9C01E6E2F8E0008151
:101E0A0011817FDE002311F0A3E019C00E947F0B2D
:101E1A000430A9F4A5E013C00E947F0B033011F42B
:101E2A00A4E00DC00E947F0B043049F4A5E007C06E
:101E3A00B395A1E004C001E00AC000E008C007DFD2
:101E4A000AE010E00E94E1300E94720BAECFE4E09B
:101E5A000C9436410E942641C801A22F2A2F8C01D8
:101E6A000E945730E3E00C943741E39A0895E19BCE
:101E7A0002C000E0089501E0089500937C080895E7
:101E8A0000917C08089500E00E94420F0E943A0FD8
:101E9A00089508E218E00895009330080895009123
:101EAA003008089500933108089500933208089580
:101EBA0000913208089526E633E0F801218332833F
:101ECA00F80120E020830895AD01D8018D01F3DFE8
:101EDA000AE613E0FD0101831283FD0100E003839A
:101EEA00FD0100E004838D01DA0108959A938A9333
:101EFA00C801082F092B29F020FB1EF48C010E942F
:101F0A003F4089919991089508959A938A93C801B7
:101F1A00082F092B29F020FB1EF48C010E943F4058
:101F2A00899199910895009161000160009361007F
:101F3A000895009162000160009362000895009183
:101F4A0062000E7F009362000895009161000064B0
:101F5A00009361000895009162000064009362009A
:101F6A000895009162000F7B00936200089500912A
:101F7A0061000260009361000895009162000260AE
:101F8A00009362000895009162000D7F0093620041
:101F9A000895009161000460009361000895009122
:101FAA0062000B7F009362000895BC9A0895C4985A
:101FBA000895009161000061009361000895009105
:101FCA0062000061009362000895009162000F7E32
:101FDA00009362000895009161000062009361001D
:101FEA0008950091620000620093620008950E94C1
:101FFA00DA0F02E001BF09E103BF08950000000003
:10200A000895000008950E94980F0E94A40F0E944C
:10201A00AA0F0E94B00F0E94BC0F0E94C80F0E9414
:10202A00CE0F0E94D40F0E94DA0F0E94DC0F0E948A
:10203A00DE0F0E94EA0F0E94F00F0E94F60F0E9424
:10204A00FC0F08950E94B60F0E9403100E94B00F61
:10205A0008959A938A93902F0E94EA0F80E086301F
:10206A00B0F400E210E0482F0E945B40192F1023C1
:10207A00112319F00E949E0F02C00E94A40F0E9411
:10208A00C20F0E9406100E94C80F8395E8CF0E94D3
:10209A00EA0F8991999108959A938A93902F0E94B1
:1020AA00E40F80E08830B0F400E810E0482F0E9486
:1020BA005B40192F1023112319F00E949E0F02C0B2
:1020CA000E94A40F0E94C20F0E9406100E94C80F0D
:1020DA008395E8CF0E94EA0F899199910895BA935E
:1020EA00AA93D8018D010E94690F00EB13E0FD014C
:1020FA00018312838D01A991B99108950E94254106
:10210A00D801C9018D01EBDF04EB13E0FD01018366
:10211A0012838D010B5F1F4F0E944D3FFD01838784
:10212A00948720E08D010E94FB098D01E4E00C9464
:10213A0036410E942541C801D901082F092B51F0C7
:10214A0020E030E08C010E948A0FA0FB1EF48C0173
:10215A000E943F40E4E00C9436410E942541D80198
:10216A00C9010A2F0B2BA9F004EB13E0FD0101832F
:10217A00128322E030E08D010B5F1F4F0E94683FFF
:10218A0020E030E08D01D5DF80FB1EF48D010E9436
:10219A003F40E4E00C9436410E942541D801922F39
:1021AA00832F8D010E94FE09005029F00A9561F0E3
:1021BA000A9521F148C0FD0100E0058721E08D0163
:1021CA000E94FB0900E040C0992321F0FD0105852A
:1021DA0001600587882321F0FD01058502600587D6
:1021EA00FD01238534858D010B5F1F4F0E94763FC9
:1021FA0022E08D010E94FB0900E026C08D010B5FE1
:10220A001F4F0E94903F002331F020E08D010E9471
:10221A00FB0900E019C0992321F0FD010585016041
:10222A000587882321F0FD01058502600587FD01E8
:10223A000585033031F420E08D010E94FB0901E09D
:10224A0003C000E001C000E0E4E00C943641202F16
:10225A0030E0E0E0F0E0E83000E0F0074CF4022F74
:10226A0010E04E2F0E945B40017030273196F3CF69
:10227A00332311F401E0089500E00895980150E035
:10228A00E0E0F0E0EC3000E0F00744F44E2F890182
:10229A000E945640017050273196F4CF552311F40D
:1022AA0001E0089500E00895502F60E070E000E139
:1022BA00509F00E000220FE01022B00108E0509F7A
:1022CA0000E7002200E0102260297129052F017021
:1022DA0014E0019F60297129052F007FB8DF10E8FB
:1022EA00019F60297129052F0E78B1DF18E0019F3F
:1022FA0060297129052F0D76AADF12E0019F602956
:10230A007129052F0B75A3DF10E0602B712B8B0150
:10231A000895080160E0800100701F70AFDF102D82
:10232A0017FB10E010F9011711F061E001C060E03D
:10233A00660F660F660F8001007718709FDF102DF9
:10234A0013FB10E010F9011711F001E001C000E0E1
:10235A00000F000F602B8001047616708FDF102D9E
:10236A0011FB10E010F9011711F001E001C000E0C3
:10237A00000F602B80010475157080DF102D11701D
:10238A00011711F001E001C000E0602B062F08954B
:10239A00B801222311F48B010895209332082A955B
:1023AA0001E010E0422F0E945140602771278B0103
:1023BA000895B80120E044E08B010E945640007F56
:1023CA00202F062F0695069506950E70202B062FB0
:1023DA0002FB00E000F9202B022F08951801810169
:1023EA0098DF202F8101D4DFE4DF089500FB16F483
:1023FA000F5F1F4F980136952795020F131F0895F7
:10240A000E941A41380159016A01222433244424C2
:10241A005524EE240C2D0D2941F0C0FA36F40FEFA5
:10242A00C00E0FEFD01EEE24E394882499248C1456
:10243A009D0408F04BC0F501E40DF51D008134DF61
:10244A0020E030E0C801D90101E0400E00E0501E52
:10245A00F501E40DF51D008127DFA80160E070E0B9
:10246A00ECE08A019B014E2F0E94AD40802B912BFC
:10247A00A22BB32B01E0400E00E0501E8C01F301A9
:10248A00E20DF31D008301E0200E00E0301E892FCB
:10249A009A2FAB2FB0E08C01F301E20DF31D0083FC
:1024AA0001E0200E00E0301E892F9A2FAB2FB0E0FA
:1024BA008C01F301E20DF31D008301E0200E00E020
:1024CA00301E02E0800E00E0901EB1CFEE20D9F15E
:1024DA00F501E40DF51D0081E7DE20E030E0C801DA
:1024EA00D90100E0E1DEA80160E070E0ECE08A01D9
:1024FA009B014E2F0E94AD40802B912BA22BB32B18
:10250A008C01F301E20DF31D008301E0200E00E0CF
:10251A00301E892F9A2FAB2FB0E08C01F301E20D08
:10252A00F31D008301E0200E00E0301E892F9A2F50
:10253A00AB2FB0E08C01F301E20DF31D008301E043
:10254A00200E00E0301E8101EFE00C942B410E9426
:10255A001941580149017A016624772444245524F3
:10256A000E2D0F2951F043E050E087010E945E4092
:10257A00452B19F000E010E057C0CC24DD24CE141E
:10258A00DF0408F050C0F401E40DF51D008110E0ED
:10259A0020E030E0C801D90101E0400E00E0501E01
:1025AA00F401E40DF51D008110E020E030E0322F47
:1025BA00212F102F00E0802B912BA22BB32B01E0AF
:1025CA00400E00E0501EF401E40DF51D208130E0BC
:1025DA0000E010E0802B912BA22BB32B01E0400EE0
:1025EA0000E0501E8C010F7F1F70F8DEF501E60D2A
:1025FA00F71D008301E0600E00E0701E4CE08C01C4
:10260A009D010E94B4400F7F1F70E8DEF501E60DC0
:10261A00F71D008301E0600E00E0701E03E0C00EAB
:10262A0000E0D01EACCF8301E0E10C942A410E9465
:10263A002541D801C9018D010E94690F08EB13E0F9
:10264A00FD01018312838D01075F1F4F0E944D3FD9
:10265A00FD0185839683FD0100E00087FD0100E00E
:10266A00078320E08D010E94FB098D01E4E00C94B0
:10267A0036410E942541D801C9010A2F0B2BB1F01E
:10268A0008EB13E0FD010183128322E030E08D01A3
:10269A00075F1F4F0E94683F20E030E08D010E94D3
:1026AA008A0F80FB1EF48D010E943F40E4E00C94E7
:1026BA003641BA93AA93D8011596ED91FC911697D3
:1026CA000995002311F001E001C000E0A991B99138
:1026DA0008950E942541D801822F8D01FD01218193
:1026EA003281F9013296259134913397F90109958E
:1026FA00FD010781081741F4FD0100E00783FD0190
:10270A0000E0008701E001C000E0E4E00C943641FB
:10271A00BA93AA93D8018D010E94FE09005089F04C
:10272A000A95C1F00A9541F10A9509F44EC00A9535
:10273A0009F474C00A9509F49AC0025009F4BCC09D
:10274A00C3C0FD010085FD01078321E08D010E94C0
:10275A00FB09BAC08D01ADDF002369F08D010E942B
:10276A006C1498018D01075F1F4F0E94763F22E08B
:10277A008D010E94FB09A8C08D019BDF0023E1F0B7
:10278A008D01075F1F4F0E94903F0023E9F08D01E2
:10279A000E94701498018D01075F1F4F0E94763FB7
:1027AA00FD0102E00087FD010085FD01078323E0AA
:1027BA008D010E94FB0988C0FD010085FD01078388
:1027CA0020E08D010E94FB097FC08D0172DF00238A
:1027DA00E1F08D01075F1F4F0E94903F0023E9F04F
:1027EA008D010E94741498018D01075F1F4F0E948A
:1027FA00763FFD0103E00087FD010085FD010783A7
:10280A0024E08D010E94FB095FC0FD010085FD01E6
:10281A00078320E08D010E94FB0956C08D0149DF24
:10282A000023E1F08D01075F1F4F0E94903F0023B4
:10283A00E9F08D010E94781498018D01075F1F4FFE
:10284A000E94763FFD0104E00087FD010085FD013D
:10285A00078327E08D010E94FB0936C0FD01008530
:10286A00FD01078320E08D010E94FB092DC08D0127
:10287A0020DF0023E1F08D01075F1F4F0E94903F88
:10288A00002311F18D010E947C1498018D01075FCC
:10289A001F4F0E94763FFD0105E00087FD0100857C
:1028AA00FD01078327E08D010E94FB090DC020E08E
:1028BA008D010E94FB0908C08D01FBDE002321F473
:1028CA0020E08D010E94FB09A991B9910895980110
:1028DA0004E610E0089598010CED15E008959801BA
:1028EA0008EB1BE00895980108E813E108959801A0
:1028FA0002E310E00895F80100810895F8010481C7
:10290A0008950091620004600093620008950091A6
:10291A0062000F7D009362000895000008959A9363
:10292A008A93C8010E9408108991999108950E947A
:10293A002641C8010E942710A0E0A03338F402E023
:10294A0014E020E00E94202DA395F7CFA0E0A03349
:10295A0008F058C0EA2FF0E0EE52FC4F049110E064
:10296A0048E050E00E94474098018C01020F131F73
:10297A000E9480140023F9F1EA2FF0E0EE52FC4F96
:10298A00049110E048E050E00E94474098018C0111
:10299A00020F131F0E948314015049F00A9569F02F
:1029AA000A9589F00A95A9F00350C9F01EC00BE0F8
:1029BA0014E020E00E943D2D23C00EE014E020E048
:1029CA000E943D2D1DC001E114E020E00E943D2D32
:1029DA0017C008E014E020E00E943D2D11C004E178
:1029EA0014E020E00E943D2D0BC005E014E020E039
:1029FA000E943D2D05C005E014E020E00E943D2D17
:102A0A00A395A5CF0E9486140E9492140E94D40F07
:102A1A000E948C14E3E00C943741BA93AA93D8012C
:102A2A008D010E94690F07E114E0FD010183128301
:102A3A008D010B5F1F4F0E944D3F8D01A991B991E6
:102A4A000895BA93AA93D8018D01E7DF01E314E050
:102A5A00FD010183128320E08D010E940C1621E002
:102A6A008D010E94FB098D01A991B99108950E94D7
:102A7A002541D801C9010A2F0B2BB1F007E114E057
:102A8A00FD010183128322E030E08D010B5F1F4FAD
:102A9A000E94683F20E030E08D010E948A0F80FB8F
:102AAA001EF48D010E943F40E4E00C9436410E94DE
:102ABA002541C801D901082F092B49F020E030E04F
:102ACA008C01D5DFA0FB1EF48C010E943F40E4E09C
:102ADA000C9436410E942541C8018C010E94FE09CE
:102AEA00005051F00A9549F00A9539F10A95F9F121
:102AFA000A9509F45EC088C087C00E942E3600235A
:102B0A00B9F00E943E36002371F00E943636D80191
:102B1A008C010E9412169D010E94763F23E08C01CF
:102B2A000E94FB0971C022E08C010E94FB096CC063
:102B3A0020E08C010E94FB0967C08C010E940F16DD
:102B4A000130A1F420E08C010E940C1601E00E94E1
:102B5A0047360E943636D8018C010E9412169D0112
:102B6A000E94763F23E08C010E94FB094DC08C0134
:102B7A000E940F16013071F420E08C010E940C169D
:102B8A000E943636D8018C010E9412169D010E94BD
:102B9A00763F3AC08C010E9412160E94903F002391
:102BAA0099F105E00E94840B24E08C010E94FB0944
:102BBA002BC08C010E940F16015019F00A95B1F032
:102BCA0023C020E08C010E940C1602E10E94151617
:102BDA000E943636D8018C010E9412169D010E946D
:102BEA00763F23E08C010E94FB090EC020E08C0195
:102BFA000E940C1600E00E94473602E10E94151658
:102C0A0022E08C010E94FB09E4E00C943641F801B1
:102C1A0024830895F801048108950B5F1F4F0895D6
:102C2A0000939A0B089500E00E9415160E94943DA5
:102C3A00FDCFBA93AA93D8018D010E94690F0BE4C4
:102C4A0014E0FD01018312838D01A991B9910895C0
:102C5A000E942541C801D901082F092B51F020E013
:102C6A0030E08C010E948A0FA0FB1EF48C010E94A6
:102C7A003F40E4E00C943641F801258308959A9385
:102C8A008A93C8018C010E94FE09002311F401E015
:102C9A0001C000E08991999108950E942341280179
:102CAA00C901DA01AD019C018201F20161817281DF
:102CBA00FB013696659174913797FB010995D80106
:102CCA00AD019C018201F20161817281FB013C9696
:102CDA00659174913D97FB010995E6E00C943441A6
:102CEA000E942041D801722E632E842ECB01AC01A2
:102CFA00362D3068272D8D01FD0161817281FB011E
:102D0A003A96659174913B97FB0109952801FC015C
:102D1A00E40DF51D808201E0400E00E0501E8201A4
:102D2A00E9E00C9431410E941F4128010A012A84DA
:102D3A003B848C859D8550E06624A0E0B0E0A01518
:102D4A00B105F0F4490194012F5F3F4FFB01E80DF3
:102D5A00F91D0081002331F001E010E0462D0E94A8
:102D6A005140502B07E0601641F4F101E80FF91FBA
:102D7A005083019650E0662401C063941196DFCF18
:102D8A00662029F0F101E80FF91F508301968C01A2
:102D9A00EEE00C9430410E941941280159014A0180
:102DAA00CB018201F20121813281F9013E962591FE
:102DBA0034913F97F90109953801F501E60DF71DA0
:102DCA003197F080F501E60DF71DE080F501E60D7B
:102DDA00F71DD180CC24F501E60DF71D028110E024
:102DEA00C02AD12AF501E60DF71DB381A0E0F5014D
:102DFA00E60DF71D048110E0A02BB12B0A2F0B2B37
:102E0A0021F0A13D07E0B00740F0B40143E03E2DB8
:102E1A002F2D820165DFC80144C0F201028D138D96
:102E2A0096012A0F3B1F0217130740F4B40142E030
:102E3A003E2D2F2D820154DFC80133C0A4013E2D3F
:102E4A002F2D8201F20161817281FB013A9665910F
:102E5A0074913B97FB010995C8010A2F077000235B
:102E6A0059F043E08D010E9456400395F401E80FA2
:102E7A00F91F0083019609C043E08D010E94564064
:102E8A00F401E80FF91F008301969A938A939A92A4
:102E9A008A92F20162897389AD019601820143DF48
:102EAA00C8018C01E0E10C942A410E9419412801D1
:102EBA0059014A01CB018201F20121813281F901D2
:102ECA003E96259134913F97F90109953801F5010C
:102EDA00E60DF71D3197F080F501E60DF71DE0804C
:102EEA00F501E60DF71DD180CC24F501E60DF71D9D
:102EFA00028110E0C02AD12AF501E60DF71DB3813F
:102F0A00A0E0F501E60DF71D048110E0A02BB12B1E
:102F1A000A2F0B2B21F0A13D07E0B00740F0B401C6
:102F2A0043E03E2D2F2D8201DBDEC80144C0F201B1
:102F3A00048D158D96012A0F3B1F0217130740F4C3
:102F4A00B40142E03E2D2F2D8201CADEC80133C0F2
:102F5A00A4013E2D2F2D8201F20161817281FB01B4
:102F6A003A96659174913B97FB010995C8010A2F1E
:102F7A000770002359F043E08D010E9456400395E3
:102F8A00F401E80FF91F0083019609C043E08D019F
:102F9A000E945640F401E80FF91F008301969A93A4
:102FAA008A939A928A92F20164897589AD0196018F
:102FBA008201B9DEC8018C01E0E10C942A410E9429
:102FCA001941280169014A01CB018201F2012181DB
:102FDA003281F9013E96259134913F97F90109957D
:102FEA005801F601EA0DFB1D3197F080F601EA0D52
:102FFA00FB1DE080F601EA0DFB1DB181A0E0F601A0
:10300A00EA0DFB1D028110E0A02BB12BF601EA0D9F
:10301A00FB1D73806624F601EA0DFB1D048110E096
:10302A00602A712A062D072929F00EE7601600E0AA
:10303A00700640F0B40143E03E2D2F2D820150DE90
:10304A00C80152C0F201068D178D9D01260D371D4C
:10305A000217130740F4B40142E03E2D2F2D8201DE
:10306A003FDEC80141C0A4013E2D2F2D8201F2018D
:10307A0061817281FB013A96659174913B97FB01DC
:10308A000995C801062D000FF401E80FF91F008306
:10309A00019600E010E00615170530F5F2014689A1
:1030AA0057899D01220F331F420F531FFA012081B6
:1030BA003181232F30E0F401E80FF91F20830196B4
:1030CA00F201468957899D01220F331F420F531F70
:1030DA00FA0120813181F401E80FF91F208301965A
:1030EA0011960F5F1F4FD7CF8C01E0E10C942A4154
:1030FA000E941941280169014A01CB018201F201AA
:10310A0021813281F9013E96259134913F97F90147
:10311A0009955801F601EA0DFB1D3197F080F60179
:10312A00EA0DFB1DE080F601EA0DFB1DB181A0E06E
:10313A00F601EA0DFB1D028110E0A02BB12BF6016E
:10314A00EA0DFB1D73806624F601EA0DFB1D04815E
:10315A0010E0602A712A062D072929F00EE7601669
:10316A0000E0700640F0B40143E03E2D2F2D8201AD
:10317A00B7DDC80152C0F20100A111A19D01260DBF
:10318A00371D0217130740F4B40142E03E2D2F2DDC
:10319A008201A6DDC80141C0A4013E2D2F2D820166
:1031AA00F20161817281FB013A96659174913B97B4
:1031BA00FB010995C801062D000FF401E80FF91F5C
:1031CA000083019600E010E00615170530F5F201BC
:1031DA00408D518D9D01220F331F420F531FFA015B
:1031EA0020813181232F30E0F401E80FF91F208379
:1031FA000196F201408D518D9D01220F331F420F1E
:10320A00531FFA0120813181F401E80FF91F20834D
:10321A00019611960F5F1F4FD7CF8C01E0E10C94F6
:10322A002A410E941941580129016A01CB018501ED
:10323A00F50121813281F9013E96259134913F971A
:10324A00F90109953801F201E60DF71D3197F08071
:10325A00F201E60DF71DE080F201E60DF71D9180FF
:10326A008824F201E60DF71D028110E0802A912AD6
:10327A00F501028D138D8016910640F0B60142E0E9
:10328A003E2D2F2D85012CDDC8012EC0F201E60D41
:10329A00F71DB381A0E0F201E60DF71D048110E0ED
:1032AA00A02BB12BA0300FEFB00751F4940101E02D
:1032BA000E942036AC01920186010E94414114C04D
:1032CA000A2F0B2B51F4940100E00E942036AC0126
:1032DA00920186010E94414107C0B60143E03E2D9A
:1032EA002F2D8501FDDCC8018C01E0E10C942A41F7
:1032FA000E941B412801C9015A014B018201F201B6
:10330A0021813281F9013E96259134913F97F90145
:10331A000995D801FC01EA0FFB1F3197D080FC0107
:10332A00EA0FFB1FC080FC01EA0FFB1F71806624B5
:10333A00FC01EA0FFB1F028110E0602A712AF201E8
:10334A00068D178D6016710640F0B50142E03C2DDE
:10335A002D2D8201C5DC48011CC0FC01EA0FFB1FB0
:10336A00538140E0FC01EA0FFB1F048110E0402B6F
:10337A00512BF201268937898301000F111F200F73
:10338A00311FF90140835183A4019C0185010E94E8
:10339A0041418401EEE00C942C410E94194128011C
:1033AA0039016A01CB018201F20121813281F901DD
:1033BA003E96259134913F97F90109954801F30109
:1033CA00E80DF91D3197F080F301E80DF91DE08051
:1033DA00F301E80DF91DB180AA24F301E80DF91DE6
:1033EA00028110E0A02AB12AF301E80DF91DB38188
:1033FA00A0E0F301E80DF91D048110E0A02BB12B28
:10340A000A2F0B2B21F0A13B07E0B00740F0B601D1
:10341A0043E03E2D2F2D820163DCC80134C0F20146
:10342A00028D138D95012A0F3B1F0217130740F4D3
:10343A00B60142E03E2D2F2D820152DCC80123C085
:10344A00A5019D018301080D191D0A5F1F4F0E94E6
:10345A00E735A6013E2D2F2D8201F201618172818D
:10346A00FB013A96659174913B97FB010995C80156
:10347A0044E050E09301280F391F8601080F191FF5
:10348A000E94414104968C01E0E10C942A410E9479
:10349A001941480129016A013B018401F401218192
:1034AA003281F9013E96259134913F97F9010995A8
:1034BA00C801F201E80FF91F3197F080F201E80F15
:1034CA00F91FE080F201E80FF91FB181A0E0F201D3
:1034DA00E80FF91F028110E0A02BB12BF201E80FCF
:1034EA00F91FB380AA24F201E80FF91F048110E042
:1034FA00A02AB12A0A2D0B2929F00CE7A01600E010
:10350A00B00640F0B60143E03E2D2F2D8401E8DBE2
:10351A0038014FC0F401068D178D9D012A0D3B1D00
:10352A000217130740F4B60142E03E2D2F2D840105
:10353A00D7DB38013EC020E030E02A153B05E0F435
:10354A00F201E80FF91F568140E0F201E80FF91F76
:10355A00078110E0402B512BF401668977898D0190
:10356A00000F111F600F711FFB01408351831196D9
:10357A0002962F5F3F4FE1CFA6013E2D2F2D8401EA
:10358A00F40161817281FB013A96659174913B97CE
:10359A00FB010995380144E050E09201260D371DE0
:1035AA008601060D171D0E94414104E0600E00E0ED
:1035BA00701E8301E0E10C942A4108010FEF1FEF0E
:1035CA000895080100E010E008950E941D412801B5
:1035DA004901DA01CB018201F20121813281F9012B
:1035EA003E96259134913F97F90109953801F401E6
:1035FA00E60DF71D3197B080F401E60DF71DA080A6
:10360A00AD013A2D2B2D8201F20161817281FB01FC
:10361A003A96659174913B97FB010995C801FD01A2
:10362A00E80FF91F03E000830196FD01E80FF91F77
:10363A0000E200830196FD01E80FF91F07E000830D
:10364A000196FD01E80FF91F02E3008301968C0140
:10365A00ECE00C942E410E94194138014901DA012B
:10366A00CB018301F30121813281F9013E96259133
:10367A0034913F97F90109952801F401E40DF51DEC
:10368A003197B080F401E40DF51DA080F401E40D3A
:10369A00F51DE280FF248C0106501040E016F10669
:1036AA0041F0BD0142E03A2D2B2D830119DBC801FF
:1036BA002CC1AD013A2D2B2D8301F3016181728159
:1036CA00FB013A96659174913B97FB010995C801F4
:1036DA00F401E40DF51D0381005049F00A9579F1D2
:1036EA000A9509F49DC00A9509F4E0C007C1FD01D5
:1036FA00E80FF91F00E000830196FD01E80FF91FAA
:10370A0004E000830196F401E40DF51D0381FD0137
:10371A00E80FF91F00830196FD01E80FF91F02E087
:10372A0000830196FD01E80FF91F00E0008301966E
:10373A00FD01E80FF91F02E000830196E6C0F401DB
:10374A00E40DF51D0481C02E0E94820B0C1540F475
:10375A00BD0142E03A2D2B2D8301C2DAC801D5C042
:10376A00CC20B9F52C2D8D01040D151D0B5F1F4FB3
:10377A000E94FF0B2091C90CFD01E40DF51D258364
:10378A002091C80CFD01E40DF51D2683FD01E40D11
:10379A00F51D20E32783FD01E80FF91F20E02083B0
:1037AA000196202F2E5FFD01E80FF91F2083019655
:1037BA00F401E40DF51D2381FD01E80FF91F2083B3
:1037CA000196FD01E80FF91FC0820196800F911F33
:1037DA009CC02C2D8D01040D151D0B5F1F4F0E94DF
:1037EA00FF0B9801FD01E80FF91F00E00083019625
:1037FA00022F0E5FFD01E80FF91F00830196F40105
:10380A00E40DF51D0381FD01E80FF91F0083019600
:10381A00FD01E80FF91FC0820196820F931F75C040
:10382A00F401E40DF51D0481C02E0E94820B0C15D3
:10383A0040F4BD0142E03A2D2B2D830151DAC80133
:10384A0064C00C2D0E940B0C9801F401E40DF51DC7
:10385A00028110E0025010400217130741F0BD0127
:10386A0043E03A2D2B2D83013BDAC8014EC02C2DA3
:10387A008401040D151D0B5F1F4F0E941B0C012BA9
:10388A0069F00E94D90B03E10E941516BD0145E0BB
:10389A003A2D2B2D830124DAC80137C0BD0147E038
:1038AA003A2D2B2D83011CDAC8012FC00E947F0BF1
:1038BA00033081F4AD013A2D2B2D8301F30161818F
:1038CA007281FB013A96659174913B97FB010995C8
:1038DA00C8011BC00E947F0B013041F4BD0146E0C4
:1038EA003A2D2B2D8301FCD9C8010FC0BD0141E03F
:1038FA003A2D2B2D8301F4D9C80107C0BD0141E03F
:10390A003A2D2B2D8301ECD9C8018C01E0E10C94EE
:10391A002A410E941D41D80149012A01CB018D018A
:10392A00FD0121813281F9013E96259134913F971B
:10393A00F90109953801F401E60DF71D3197B080B8
:10394A00F401E60DF71DA0800E947F0B033081F47D
:10395A00A2013A2D2B2D8D01FD0161817281FB019E
:10396A003A96659174913B97FB010995C80113C07A
:10397A000E947F0B013041F4B20146E03A2D2B2D13
:10398A008D01AED9C80107C0B20141E03A2D2B2DF5
:10399A008D01A6D9C8018C01ECE00C942E410E943D
:1039AA001A41D80129013A015B018D01FD012181EA
:1039BA003281F9013E96259134913F97F901099593
:1039CA004801F201E80DF91D3197C080F201E80DB6
:1039DA00F91DE080C501DC2CDD0CDD08FD01058147
:1039EA0010E0C016D10629F0CC2019F000E010E052
:1039FA0070C00E2D102F110F110BEAEFF0E0FBBF74
:103A0A00F8E00C94DC40BC01A30192018D01C3D9FA
:103A1A00C8015BC0BC01A30192018D0146DAC8014D
:103A2A0054C0BC01A30192018D01C9DAC8014DC07D
:103A3A00BC01A30192018D015BDBC80146C0BC0138
:103A4A00A30192018D01EDDBC8013FC0BC01A301B6
:103A5A0092018D014DDCC80138C0BC01A30192015D
:103A6A008D01ABDDC80131C0BC01A30192018D01FA
:103A7A0094DCC8012AC0BC01A30192018D0149DF6F
:103A8A00C80123C0BC01A30192018D0100DDC80158
:103A9A001CC0BC01A30192018D0197DDC80115C0AC
:103AAA00BC01A30192018D018CDDC8010EC0BC01CD
:103ABA00A30192018D01CFDDC80107C0B30141E026
:103ACA003E2D2C2D8D010CD9C801FD0184879587C7
:103ADA008C01EFE00C942B41B80101E010E008954D
:103AEA000E941D41D80129013A018D01FD01218160
:103AFA003281F9013E96259134913F97F901099552
:103B0A00C801F201E80FF91F31979080F201E80F1E
:103B1A00F91F80805301FD010681091591F4FD0109
:103B2A000781081571F402E0801641F4A50192019B
:103B3A00280F391F2E5F3F4F8D01CEDF01E010E0C5
:103B4A002DC08D01FD0121813281F90170962591E7
:103B5A0034917197F901099598018C01020F131F8D
:103B6A000E5F1F4FA016B10631F487FA16F401E072
:103B7A0003C000E001C000E0002371F0F201E80F89
:103B8A00F91F21812C302CF4022F102F110F110B49
:103B9A0005C00EE010E002C001E010E0ECE00C9479
:103BAA002E41980101E010E00895980102E010E02A
:103BBA0008950E942341C801D9010A2F0B2B11F441
:103BCA0001E001C000E0002379F005E9402E04E09D
:103BDA00502EDC011F96FC01A587B6878C01015F78
:103BEA001F4F0E941E1606C0FC0143845484FC0128
:103BFA00A587B68703E714E0FC0103871487F2015F
:103C0A00059114913197FD01018312838C01E6E03D
:103C1A000C9434410E942541C801D901082F092B6F
:103C2A0079F00A2F0B2B39F020E030E08C01015F8C
:103C3A001F4F0E942D16A0FB1EF48C010E943F40CC
:103C4A00E4E00C9436410F501040E4CF0E94194131
:103C5A00229728833983D8012A013B018D889E88BF
:103C6A008F89988DED8CFE8CCF8CD8A0A9A0BAA094
:103C7A00088119810D931C931197FD014282538289
:103C8A00648275820A89FD0100870B89FD0106831A
:103C9A000C89FD010783FD0105851685F8018686D5
:103CAA009786FD0105851685F801808B918B298DF4
:103CBA003A8DFD0105851685F801228B338B2B8DF4
:103CCA003C8DFD0105851685F801248B358BFD0198
:103CDA0005851685F801E68AF78AFD0105851685A8
:103CEA00F801C08ED18EFD0105851685F801A28ED8
:103CFA00B38E2BA13CA1FD0105851685F801248F01
:103D0A00358F2DA13EA1FD0105851685F801268F67
:103D1A00378F2FA138A5FD0105851685F80120A347
:103D2A0031A3FD01428153816481758100E412E46B
:103D3A002FE030E00E94B74040E250E060E070E0DF
:103D4A000E9489400801190148EE53E060E070E0E2
:103D5A00800191010E94B7400F5F1F4FFD0101874B
:103D6A001287FD0105851685F801428D538D20E0E5
:103D7A0030E0FD0105851685F801028913890E9444
:103D8A005141FD0105851685F801448D558D20E0C8
:103D9A0030E0FD0105851685F801048915890E9420
:103DAA005141FD0105851685F801468D578D440F51
:103DBA00551F20E030E0FD0105851685F8010689CA
:103DCA0017890E945141FD0105851685F80140A118
:103DDA0051A1440F551F20E030E0FD0105851685ED
:103DEA00F801008D118D0E9451419A938A939A92FB
:103DFA008A92FD0107810A93FD013681FD01208522
:103E0A00FD0142815381648175810D911C91119745
:103E1A000E94C42D2296E7E20C942A41BA93AA93EF
:103E2A00D8010D911C9111970E94F92DA991B99170
:103E3A000895BA93AA93D8010D911C9111970E94E3
:103E4A00082EA991B9910895BA93AA93D8010D9110
:103E5A001C9111970E94192EA991B9910895BA93AC
:103E6A00AA93D8010D911C9111970E94472EA991EE
:103E7A00B9910895BA93AA93D8010D911C911197FB
:103E8A000E94622EA991B99108950E9423412801A6
:103E9A00D901CA019C018D010E940D0B9801022FC4
:103EAA00FD01E80FF91F008301968901012F10E037
:103EBA00FD01E80FF91F008301968C01E6E00C94DE
:103ECA0034410F501040E1CF1D010801E881F9810A
:103EDA00208331838A01012F10E00283042F038398
:103EEA008B01012F10E00483062F058306E010E002
:103EFA00D101229608950F501040E6CFB801FA0179
:103F0A002083FA01318302E010E008950F50104037
:103F1A00F5CF0E942341D8012901CA01AC019201BF
:103F2A000D911C9111970E94762EE6E00C94344173
:103F3A000F501040EECFBA93AA93D8010D911C915D
:103F4A0011970E94A422A991B9910895BA93AA93AC
:103F5A00D8010D911C9111970E94A122A991B991A2
:103F6A0008950E942341D8012901CA01AC01920196
:103F7A000D911C9111970E947E2EE6E00C9434411B
:103F8A000E942541D801C9010E94A722FD01258569
:103F9A003685F90122853385021B130B0817190789
:103FAA0010F001E001C000E0E4E00C943641BA935D
:103FBA00AA93D8010E94A722FD0125853685F90119
:103FCA0002871387A991B99108950E941F41480158
:103FDA00D901CA01843000E0900710F400E021C042
:103FEA00FD01E80FF91F319750804424FD01E80FC5
:103FFA00F91F3297008110E0402A512A9C01225071
:10400A0030408D010E940D0B38019C012250304036
:10401A008D010E940D0B0415150511F401E001C074
:10402A0000E0EAE00C9430410E942541D801FD01EC
:10403A00058516850E94FE09EEE2F0E0FBBFF9E075
:10404A000C94DC408D01EADE8D01F3DE23E0FD01F4
:10405A00058516850E94FB0959C28D01A8DFFD015D
:10406A0005851685F80100E0048700E0058724E04D
:10407A00FD01058516850E94FB0948C28D0166DF90
:10408A000023F1F140E051E0FD0105851685F801B4
:10409A0004851585401B510BFD0105851685F80120
:1040AA0026853785FD0105851685F8010485158560
:1040BA00200F311F8D0155DFC801813000E09007C4
:1040CA009CF0FD0105851685F80104851585080F04
:1040DA00191F048715878D016ADF25E0FD01058513
:1040EA0016850E94FB090CC08F3F0FEF900741F421
:1040FA008D0194DE23E0FD01058516850E94FB09EA
:10410A0028E93AE38D013CDF002341F08D0186DE88
:10411A0023E0FD01058516850E94FB09F7C18D0183
:10412A0015DF0023C1F140E051E0FD010585168548
:10413A00F80104851585401B510BFD01058516857F
:10414A00F80126853785FD0105851685F801048560
:10415A001585200F311F8D0104DFC801813000E071
:10416A0090076CF0FD0105851685F8010485158513
:10417A00080F191F048715878D0119DF0CC08F3F9F
:10418A000FEF900741F48D0149DE23E0FD0105851B
:10419A0016850E94FB09FD01218532858D01F0DE1D
:1041AA000023F9F0FD0105851685F801448555853A
:1041BA00FD0105851685F801268537858D0105DF00
:1041CA00002339F026E0FD01058516850E94FB09CA
:1041DA009DC18D0123DE23E0FD01058516850E9420
:1041EA00FB0994C1FD0105851685F801648575856D
:1041FA00FD0105851685F80140895189FD0105856E
:10420A001685F80126853785FD01058516850E94E4
:10421A00D41C012B49F00E94AC2227E0FD01058540
:10422A0016850E94FB0972C10E94AE228D01F6DD3D
:10423A0023E0FD01058516850E94FB0967C18D01F2
:10424A00B6DE8D01EBDD28E0FD01058516850E94AD
:10425A00FB095CC125E030E08D0192DE0023C9F044
:10426A00FD0105851685F80144855585FD010585FD
:10427A001685F80120893189FD01058516850E9478
:10428A0052168D01ECDD29E0FD01058516850E9497
:10429A00FB093CC18D014FDE002341F00E94AE2292
:1042AA0023E0FD01058516850E94FB092FC18D01BA
:1042BA00CBDD20E0FD01058516850E94FB0926C19C
:1042CA008D0175DE8D01AADDFD0105851685F801D2
:1042DA0000E0048700E005878D01ABDD2DE0FD01DC
:1042EA00058516850E94FB0911C18D012FDE002369
:1042FA00E1F140E051E0FD0105851685F8010485EC
:10430A001585401B510BFD0105851685F80126858B
:10431A003785FD0105851685F80104851585200F69
:10432A00311F8D011EDEC801813000E090079CF02C
:10433A008D013DDEFD0105851685F801048515858B
:10434A00080F191F048715872EE0FD0105851685BC
:10435A000E94FB090AC08F3F0FEF900731F423E157
:10436A00FD01058516850E94FB0928EE33E08D01C3
:10437A0007DE002331F023E1FD01058516850E9441
:10438A00FB09C4C08D01E2DD0023B1F140E051E038
:10439A00FD0105851685F80104851585401B510B1D
:1043AA00FD0105851685F80126853785FD010585F8
:1043BA001685F80104851585200F311F8D01D1DD81
:1043CA00C801813000E090076CF08D01F0DDFD013D
:1043DA0005851685F80104851585080F191F0487B8
:1043EA0015870AC08F3F0FEF900731F423E1FD01D3
:1043FA00058516850E94FB09FD01218532858D01FF
:10440A00BFDD0023E9F0FD0105851685F801448525
:10441A005585FD0105851685F801268537858D01A7
:10442A00D4DD002339F02FE0FD01058516850E94B1
:10443A00FB096CC023E1FD01058516850E94FB0975
:10444A0065C0FD0105851685F80144855585FD0180
:10445A0005851685F80126853785FD0105851685AA
:10446A000E94751D012B39F023E1FD010585168592
:10447A000E94FB094BC023E1FD01058516850E94B8
:10448A00FB0944C08D0193DD8D01C8DC0E94AC227A
:10449A0021E1FD01058516850E94FB0937C025E04B
:1044AA0030E08D016DDD002389F1FD01058516855A
:1044BA00F80144855585FD0105851685F801208991
:1044CA003189FD01058516850E9452168D01C7DCCA
:1044DA0022E1FD01058516850E94FB0917C08D01A1
:1044EA002ADD002399F08D01C5DC0E94AE222CE062
:1044FA00FD01058516850E94FB0908C08D01A4DC13
:10450A0020E0FD01058516850E94FB09E4E00C9474
:10451A0036410F50104088CD980101E010E008950F
:10452A000F5010400C949122980102E010E0089577
:10453A000F5010400C949922F80102A50895F80131
:10454A0003A50895EDE7F8E0008111810895DB984D
:10455A000895DB9A08950E942541D801822F8D0182
:10456A00055F1F4F0E94690F0DEA14E0FD010187E4
:10457A00128703EB14E0FD01048715878C9320E072
:10458A008D01055F1F4F0E94FB098D01E4E00C9429
:10459A0036410E942541C801D901082F092B61F033
:1045AA0020E030E08C01055F1F4F0E948A0FA0FBBC
:1045BA001EF48C010E943F40E4E00C9436410B50FB
:1045CA001040E7CF1D01D801F9010081FD01008BE0
:1045DA00F90101811281FD01018B128BF90103811D
:1045EA001481FD01038B148BF90105811681FD01EC
:1045FA0005831683F90107811085FD01058B168B4A
:10460A00F90103891489FD01038F148FF9010585C6
:10461A001685FD01078B108FF90140895189F9012F
:10462A00028910E0000F111F400F511FFD01418F39
:10463A00528FF9010289085F028BF9016389748933
:10464A00F901058910E048E150E00E944740600FF7
:10465A00711FFD01638F748FF9010589085F058B4E
:10466A00F901068917890F5F1F4FFD01078310871C
:10467A00FD0100E0058FD10108950E942341D80170
:10468A00FD01038914890E5F1F4FC80100E008303D
:10469A0078F4FD01238D348D10E0200F311FF901CC
:1046AA00208110E0FC01E00FF11F20830395EFCF7A
:1046BA0028E030E08C010E942D0B2801FD010389BE
:1046CA001489065F1F4FC801042DFC01008301965F
:1046DA008201012F10E0FC010083FD010389148986
:1046EA00F80101E80083FD0100890E94E7330AE628
:1046FA0013E001501040E9F700C000004DE050E01F
:10470A00FD0123893489FD01018912890E94C23081
:10471A000E940C34FD0101891289F80101810138D6
:10472A0049F4FD0101891289F80104850E3711F453
:10473A0001E001C000E0E6E00C9434410E941F4110
:10474A00D801992420E0283020F5FD01038D148D2D
:10475A0030E0020F131FF80100850F3FC1F0FD0181
:10476A0005891689FD01438D548D30E0420F531F90
:10477A00FA01408550E0040F151FF801008100235B
:10478A0031F001E010E0422F0E945140902A239517
:10479A00DACF882420E0283020F5FD01038D148D1E
:1047AA0030E0020F131FF80100890F3FC1F0FD012D
:1047BA0005891689FD01438D548D30E0420F531F40
:1047CA00FA01408950E0040F151FF8010081002307
:1047DA0031F001E010E0422F0E945140802A2395D7
:1047EA00DACF5524FD010381002329F0FD0100E001
:1047FA000383689450F8FD010481002329F0FD0128
:10480A0000E00483689451F8FD010181002329F036
:10481A00FD0100E00183689452F8FD010281002342
:10482A0029F0FD0100E00283689453F8FD01038931
:10483A001489F80102E40083FD01038914890E5FDB
:10484A001F4FC801442420E02830A8F4FD01018D3F
:10485A00128D422F50E0440F551F040F151FF80107
:10486A000181002331F001E010E0422F0E94514003
:10487A00402A2395E9CFFC0140820196442420E096
:10488A002830A8F4FD01018D128D422F50E0440F0B
:10489A00551F040F151FF8010081002331F001E0B4
:1048AA0010E0422F0E945140402A2395E9CFFC0193
:1048BA0040820196FC0190820196FC018082019659
:1048CA00FC015082019625E030E0FD01038914893C
:1048DA000E5F1F4F0E942D0B3801062DFC0100832D
:1048EA0001968301012F10E0FC0100830196FC016F
:1048FA000EE700830196FD0100890E94E7330AE66C
:10490A0013E001501040E9F700C000004AE050E00F
:10491A00FD0123893489FD01018912890E94C2306F
:10492A000E940C34FD0101891289F80101810452A7
:10493A0009F447C00E5109F04EC025E030E0FD01F0
:10494A00018912890E5F1F4F0E943B0B01301040F4
:10495A00BCF1FD0101891289F80101850E37D9F5EB
:10496A00FD0100E0058F20E08D010E942625FD0152
:10497A0001891289F8010281402E20E02830F0F4E2
:10498A0001E010E0422F0E945140142D1023112300
:10499A0051F0FD010789108D30E0020F131FF80155
:1049AA0001E0008309C0FD010789108D30E0020F84
:1049BA00131FF80100E000832395E0CF01E020C037
:1049CA000AC0FD01058D043130F420E08D01055F38
:1049DA001F4F0E94FB09FD01058D043130F4FD01D2
:1049EA00058D0395058F00E00BC0FD010581168139
:1049FA00F80102E0008321E08D010E94262500E0F3
:104A0A00EAE00C9430410E942641C8018C01055FFE
:104A1A001F4F0E94FE09005019F00A9559F00DC067
:104A2A008C012BDEA02F21E08C01055F1F4F0E9415
:104A3A00FB0903C08C0182DEA02F0A2FE3E00C944D
:104A4A003741AD01F801A781B0852C93DA010895A9
:104A5A000E942541D801822F8D01055F1F4F0E94B8
:104A6A00690F0DEC14E0FD010187128703ED14E0D4
:104A7A00FD01048715878C938D01E4E00C9436417F
:104A8A000E942541C801D901082F092B61F020E0B5
:104A9A0030E08C01055F1F4F0E948A0FA0FB1EF4B5
:104AAA008C010E943F40E4E00C9436410B501040C8
:104ABA00E7CFBD01D801F9010081FD01008BF901A1
:104ACA0001811281FD01018B128BF901038114818D
:104ADA00FD01038B148BF90105811681FD01058304
:104AEA001683F90147815085F901018510E0400FCD
:104AFA00511FFD01458B568BF9010185085E01871F
:104B0A00F90142855385F901048510E0400F511FD0
:104B1A00FD01478B508FF9010485085E0487F9016E
:104B2A0006891789FD0107831087FD0100E0018FBF
:104B3A00DB0108950E942541D8015396ED91FC911D
:104B4A00549702E40083FD0100890E94E7330AE6D4
:104B5A0013E001501040E9F700C0000049E050E0BE
:104B6A00FD0123893489FD01018912890E94C2301D
:104B7A000E940C345196ED91FC9152970181045296
:104B8A00D9F10E51C9F527E030E0FD0101891289FA
:104B9A000F5F1F4F0E945F0B013010406CF1FD0147
:104BAA0000E0018F20E08D010E942625FD01658924
:104BBA007689FD018789908D222406E02016D0F49B
:104BCA00FD01018912893324020D131DF801528156
:104BDA0020E0243068F4052F10E032E0239F402DB6
:104BEA000E945B400370FC01008301962395F1CF7C
:104BFA002394E3CF01E015C0FD01018D043130F4A7
:104C0A00FD01018D0395018F00E00BC01596ED9112
:104C1A00FC91169701E0008321E08D010E94262570
:104C2A0000E0E4E00C943641F80123830895BA9336
:104C3A00AA93D8018D010E94690F07ED14E0FD01C6
:104C4A00018312838D010A5F1F4F0E944D3F25E2A7
:104C5A008D010E94FB0925E28D010E9419268D0112
:104C6A00A991B9910895BA93AA93D8018D01DFDF6A
:104C7A000BEF14E0FD010183128325E28D010E94EE
:104C8A00FB0925E28D010E9419268D01A991B9918E
:104C9A000895BA93AA93D8018D01C9DF0FE115E0EF
:104CAA00FD010183128325E28D010E94FB0925E2A1
:104CBA008D010E9419268D01A991B9910895BA937F
:104CCA00AA93D8018D01B3DF0DE715E0FD01018339
:104CDA00128328E18D010E94FB0928E18D010E94BF
:104CEA0019268D01A991B9910895BA93AA93D80169
:104CFA008D019DDF01EA15E0FD010183128325E2A2
:104D0A008D010E94FB0925E28D010E9419268D0161
:104D1A00A991B9910895BA93AA93D8018D0187DF11
:104D2A0003E415E0FD010183128325E28D010E944F
:104D3A00FB0925E28D010E9419268D01A991B991DD
:104D4A0008950E942541D801C9010A2F0B2BB1F001
:104D5A0007ED14E0FD010183128322E030E08D01AA
:104D6A000A5F1F4F0E94683F20E030E08D010E94D9
:104D7A008A0F80FB1EF48D010E943F40E4E00C94F0
:104D8A003641BA93AA93D8018D010E94FE09ECE537
:104D9A00F0E0FBBFF9E00C94DC408D011196ED9137
:104DAA00FC9112977096259134917197F9010995A2
:104DBA0098018D010A5F1F4F0E94763F8D0111965F
:104DCA00ED91FC9112973496259134913597F9011A
:104DDA00099529E18D010E94FB096AC28D010A5FCA
:104DEA001F4F0E94903F002301F18D011196ED9112
:104DFA00FC9112977296259134917397F90109954E
:104E0A0098018D010A5F1F4F0E94763F8D0111960E
:104E1A00ED91FC9112973C96259134913D97F901B9
:104E2A0009952AE18D010E94FB0942C28D010A5FA0
:104E3A001F4F0E94903F002301F18D011196ED91C1
:104E4A00FC9112977096259134917197F901099501
:104E5A0098018D010A5F1F4F0E94763F8D011196BE
:104E6A00ED91FC9112973496259134913597F90179
:104E7A00099529E18D010E94FB091AC28D0111963B
:104E8A00ED91FC9112977096259134917197F901E1
:104E9A00099598018D010A5F1F4F0E94763F8D0187
:104EAA001196ED91FC911297369625913491379788
:104EBA00F901099522E08D010E94FB09F9C18D01D2
:104ECA000A5F1F4F0E94903F002321F021E08D01CD
:104EDA000E94FB09EDC18D011196ED91FC9112978B
:104EEA007496259134917597F901099598018D0168
:104EFA000A5F1F4F0E94763F8D011196ED91FC913A
:104F0A0012973896259134913997F901099528E035
:104F1A008D010E94FB09CCC18D010A5F1F4F0E94BF
:104F2A00903F002301F18D011196ED91FC911297AA
:104F3A007696259134917797F901099598018D0113
:104F4A000A5F1F4F0E94763F8D011196ED91FC91E9
:104F5A0012973C96259134913D97F901099529E0DC
:104F6A008D010E94FB09A4C18D010A5F1F4F0E9497
:104F7A00903F002301F18D011196ED91FC9112975A
:104F8A007496259134917597F901099598018D01C7
:104F9A000A5F1F4F0E94763F8D011196ED91FC9199
:104FAA0012973896259134913997F901099528E095
:104FBA008D010E94FB097CC18D011196ED91FC9136
:104FCA0012977896259134917997F9010995980164
:104FDA008D010A5F1F4F0E94763F8D011196ED9158
:104FEA00FC9112973A96259134913B97F9010995CC
:104FFA002EE08D010E94FB095BC18D010A5F1F4FE4
:10500A000E94903F002301F18D011196ED91FC91D0
:10501A0012977A96259134917B97F901099598010F
:10502A008D010A5F1F4F0E94763F8D011196ED9107
:10503A00FC9112973C96259134913D97F901099577
:10504A002FE08D010E94FB0933C18D010A5F1F4FBA
:10505A000E94903F002301F18D011196ED91FC9180
:10506A0012977896259134917997F90109959801C3
:10507A008D010A5F1F4F0E94763F8D011196ED91B7
:10508A00FC9112973A96259134913B97F90109952B
:10509A002EE08D010E94FB090BC18D011196ED9145
:1050AA00FC9112977C96259134917D97F901099587
:1050BA0098018D010A5F1F4F0E94763F8D0111965C
:1050CA00ED91FC9112973A96259134913B97F9010B
:1050DA00099524E18D010E94FB09EAC08D010A5F4E
:1050EA001F4F0E94903F002301F18D011196ED910F
:1050FA00FC9112977E96259134917F97F901099533
:10510A0098018D010A5F1F4F0E94763F8D0111960B
:10511A00ED91FC9112973C96259134913D97F901B6
:10512A00099525E18D010E94FB09C2C08D010A5F24
:10513A001F4F0E94903F002301F18D011196ED91BE
:10514A00FC9112977C96259134917D97F9010995E6
:10515A0098018D010A5F1F4F0E94763F8D011196BB
:10516A00ED91FC9112973A96259134913B97F9016A
:10517A00099526E18D010E94FB099AC08D010A5FFB
:10518A001F4F0E94903F002301F18D011196ED916E
:10519A00FC911297B09625913491B197F90109952E
:1051AA0098018D010A5F1F4F0E94763F8D0111966B
:1051BA00ED91FC9112973C96259134913D97F90116
:1051CA00099527E18D010E94FB0972C08D010A5FD2
:1051DA001F4F0E94903F002301F18D011196ED911E
:1051EA00FC9112977C96259134917D97F901099546
:1051FA0098018D010A5F1F4F0E94763F8D0111961B
:10520A00ED91FC9112973A96259134913B97F901C9
:10521A00099524E18D010E94FB094AC08D0111966E
:10522A00ED91FC911297B29625913491B397F901B9
:10523A00099598018D010A5F1F4F0E94763F8D01E3
:10524A001196ED91FC9112973896259134913997E0
:10525A00F90109952FE18D010E94FB0929C08D01F1
:10526A000A5F1F4F0E94903F002311F18D01119692
:10527A00ED91FC9112973C96259134913D97F90155
:10528A0009958D010E94A92C202F8D010E94FB09EE
:10529A000FC08D011196ED91FC9112973C962591C4
:1052AA0034913D97F901099520E08D010E94FB098F
:1052BA00A991B99108950E942541C801D901082FE1
:1052CA00092B69F025E28C010E94FB0920E030E0FD
:1052DA008C0137DDA0FB1EF48C010E943F40E4E004
:1052EA000C9436410E942641C801A22F8C010E94CB
:1052FA00FE09202F8C010E9419260A2F005079F0EE
:10530A000A9591F00250A9F00A95C1F00A95D1F0D8
:10531A000A95C1F00A95B1F00A95A1F013C025E2E9
:10532A008C010E94FB090EC021E08C010E94FB093E
:10533A0009C027E08C010E94FB0904C027E08C0108
:10534A000E94FB09E3E00C94374108959A938A93EB
:10535A00C80101E00E941E3C8991999108959A938F
:10536A008A93C80103E00E941E3C8991999108958D
:10537A0008959A938A93C80103E00E94483C0E94C8
:10538A0091338991999108950E942541C801D901C3
:10539A00082F092B69F025E28C010E94FB0920E005
:1053AA0030E08C01CEDCA0FB1EF48C010E943F4051
:1053BA00E4E00C9436410E942641C801A22F8C01D8
:1053CA000E94FE09202F8C010E9419260A2F0050E4
:1053DA0079F00A9591F00250A9F00A95C1F00A9560
:1053EA00D1F00A95C1F00A95B1F00A95A1F013C05F
:1053FA0025E28C010E94FB090EC021E08C010E946B
:10540A00FB0909C025E28C010E94FB0904C02DE0BA
:10541A008C010E94FB09E3E00C94374108959A93AA
:10542A008A93C80101E00E941E3C899199910895CE
:10543A0008959A938A93C80104E00E941E3C8991B8
:10544A00999108959A938A93C80104E00E94483C6E
:10545A000E9491338991999108950E942541C8012A
:10546A00D901082F092B69F025E28C010E94FB095A
:10547A0020E030E08C0165DCA0FB1EF48C010E9468
:10548A003F40E4E00C9436410E942641C801A22F15
:10549A008C010E94FE09202F8C010E9419260A2FD6
:1054AA00005079F00A9591F00250A9F00A95C1F0DE
:1054BA000A95F9F00A95E9F00A95B9F00A95C9F042
:1054CA0018C028E18C010E94FB0913C028E18C0155
:1054DA000E94FB090EC027E08C010E94FB0909C04B
:1054EA002DE08C010E94FB0904C023E18C010E947B
:1054FA00FB09E3E00C9437419A938A93C8010E940E
:10550A001C2D89919991089508959A938A93C801B7
:10551A000E941C2D8991999108959A938A93C801A2
:10552A000E941C2D8991999108959A938A93C80192
:10553A000E941E2D0E9491338991999108950E948B
:10554A002541C801D901082F092B69F025E28C01F0
:10555A000E94FB0920E030E08C01F3DBA0FB1EF483
:10556A008C010E943F40E4E00C9436410E9426419F
:10557A00C801A22F8C010E94FE09202F8C010E94D3
:10558A0019260A2F005079F00A9591F00250A9F0D5
:10559A000A95C1F00A9521F10A9511F10A95B9F017
:1055AA000A95D1F01DC025E28C010E94FB0918C0A2
:1055BA0025E28C010E94FB0913C027E08C010E949E
:1055CA00FB090EC02DE08C010E94FB0909C023E1F2
:1055DA008C010E94FB0904C02EE18C010E94FB0988
:1055EA00E3E00C9437419A938A93C8010E94FA0A1D
:1055FA008991999108959A938A93C8010E94FA0A07
:10560A008991999108959A938A93C8010E94E80A08
:10561A008991999108959A938A93C8010E94F10AEF
:10562A008991999108959A938A93C8010E94FA0AD6
:10563A000E9491338991999108950E942541C80148
:10564A00D901082F092B69F025E28C010E94FB0978
:10565A0020E030E08C0175DBA0FB1EF48C010E9477
:10566A003F40E4E00C94364108959A938A93C80126
:10567A0001E00E94903C0E94E80A8991999108955C
:10568A009A938A93C80101E00E94903C0E94E80A1A
:10569A008991999108959A938A93C80103E00E9487
:1056AA00903C0E94E80A8991999108959A938A9365
:1056BA00C80104E00E94903C0E94E80A89919991ED
:1056CA0008959A938A93C8010E94FA0A0E9496330F
:1056DA000E949133899199910895BA93AA93D80116
:1056EA008D010E94FE090050E9F00A95E1F00A9541
:1056FA00D9F10A9509F460C0045009F469C00A9501
:10570A0009F487C00A9509F4ACC0045009F4B5C07D
:10571A000A9509F4D3C00A9509F4F8C0065109F4A8
:10572A0001C10FC10EC18D011196ED91FC91129725
:10573A007096259134917197F901099598018D0117
:10574A000A5F1F4F0E94763F8D011196ED91FC91E1
:10575A0012973696259134913797F901099522E0E7
:10576A008D010E94FB09EDC08D010A5F1F4F0E9447
:10577A00903F002301F18D011196ED91FC91129752
:10578A007296259134917397F901099598018D01C3
:10579A000A5F1F4F0E94763F8D011196ED91FC9191
:1057AA0012973C96259134913D97F901099523E08A
:1057BA008D010E94FB09C5C08D010A5F1F4F0E941F
:1057CA00903F002321F027E08D010E94FB09B9C018
:1057DA008D011196ED91FC91129774962591349151
:1057EA007597F901099598018D010A5F1F4F0E946B
:1057FA00763F8D011196ED91FC911297389625917D
:10580A0034913997F901099528E08D010E94FB0925
:10581A0098C08D010A5F1F4F0E94903F002301F13B
:10582A008D011196ED91FC911297769625913491FE
:10583A007797F901099598018D010A5F1F4F0E9418
:10584A00763F8D011196ED91FC9112973C96259128
:10585A0034913D97F901099529E08D010E94FB09D0
:10586A0070C08D010A5F1F4F0E94903F002321F0F4
:10587A002DE08D010E94FB0964C08D011196ED9106
:10588A00FC9112977896259134917997F9010995A7
:10589A0098018D010A5F1F4F0E94763F8D01119674
:1058AA00ED91FC9112973A96259134913B97F90123
:1058BA0009952EE08D010E94FB0943C08D010A5F04
:1058CA001F4F0E94903F0023E1F18D011196ED9147
:1058DA00FC9112977A96259134917B97F901099553
:1058EA0098018D010A5F1F4F0E94763F8D01119624
:1058FA00ED91FC9112973C96259134913D97F901CF
:10590A0009952FE08D010E94FB091BC08D010A5FDA
:10591A001F4F0E94903F0023A1F025E28D010E94B3
:10592A00FB090FC08D011196ED91FC9112973C96DF
:10593A00259134913D97F901099520E08D010E9446
:10594A00FB09A991B9910895F80103810895980175
:10595A0000ED17E00895980100ED17E00895980109
:10596A0000E213E0089598010CE211E0089598010D
:10597A000CE211E0089598010CE211E008959801F3
:10598A0006E910E00895980106E910E008959801E3
:10599A0002EC11E00895980102E310E008959801DD
:1059AA0000ED17E00895980100ED17E008959801B9
:1059BA0000E213E0089598010CE211E008959801BD
:1059CA000CE211E0089598010CE211E008959801A3
:1059DA0000ED17E00895980100ED17E00895980189
:1059EA0000E213E0089598010CE211E0089598018D
:1059FA000CE211E0089598010CE211E00895980173
:105A0A0008EE13E00895980108EE13E0089598014E
:105A1A0008EE13E00895980108EE13E0089598013E
:105A2A0008EE13E00895980108EE13E00895DC9853
:105A3A000895DC9A08950E942541D801922FFD010C
:105A4A00392F3BBF06910E942E10FD01392F319646
:105A5A003BBF069131970E942E10FD01392F3296D5
:105A6A003BBF069132970E942E10E4E00C94364117
:105A7A000E942541D801922FFD01392F3BBF069183
:105A8A000E945110FD01392F31963BBF0691319783
:105A9A000E945110FD01392F32963BBF0691329771
:105AAA000E945110E4E00C9436410E941F41D80133
:105ABA0049013A012B018A859B852C843D840E84F9
:105ACA001F84688979892B893C8905EC15E0FD01D9
