:100000000C94E7411895189518951895189518951A
:100010001895189518951895189518951895189578
:10002000189518950C945F32189518951895189591
:100030001895189518951895189518951895189558
:100040001895189518951895189518951895189548
:1000500018951895189518950C941D3118951895A4
:100060001895189518951895189518951895189528
:1000700018951895189518950C947E300C943A3074
:100080000C94583018951895189518950000000094
:10009000F205F306960B990B9C0B0606B008F306C7
:1000A000A80BAB0BAE0B0606C308F306B10BB40BE3
:1000B000B70B0606D608F306BA0BBD0BC00B060637
:1000C000E908F306C30BC60BC90B0606FC08F306CA
:1000D000CC0BCF0BD20B06060F09F306D50BD80BB2
:1000E000DB0B06062209F306DE0BE10BE40B06062A
:1000F0003509F306E70BEA0BED0B06064809F30694
:10010000F00BF30BF60B06065B096E09F90BFC0B03
:10011000FF0B0606A10A6E09020C050C080C060668
:10012000B40A6E090B0C0E0C110C0606C70A6E09F8
:10013000140C170C1A0C0606DA0AEE0A1D0C200C19
:1001400000000000000000000000000000000000AF
:100150000000550C630C0000C1C081C1400101C307
:10016000C003800241C201C6C006800741C7000526
:10017000C1C581C4400401CCC00C800D41CD000F2D
:10018000C1CF81CE400E000AC1CA81CB400B01C94C
:10019000C009800841C801D8C018801941D9001B86
:1001A000C1DB81DA401A001EC1DE81DF401F01DDA4
:1001B000C01D801C41DC0014C1D481D5401501D77D
:1001C000C017801641D601D2C012801341D300114E
:1001D000C1D181D0401001F0C030803141F10033F5
:1001E000C1F381F240320036C1F681F7403701F5A4
:1001F000C035803441F4003CC1FC81FD403D01FF2D
:10020000C03F803E41FE01FAC03A803B41FB0039CD
:10021000C1F981F840380028C1E881E9402901EBA3
:10022000C02B802A41EA01EEC02E802F41EF002D25
:10023000C1ED81EC402C01E4C024802541E500277C
:10024000C1E781E640260022C1E281E3402301E1CB
:10025000C021802041E001A0C060806141A1006315
:10026000C1A381A240620066C1A681A7406701A523
:10027000C065806441A4006CC1AC81AD406D01AF2C
:10028000C06F806E41AE01AAC06A806B41AB00694D
:10029000C1A981A840680078C1B881B9407901BB83
:1002A000C07B807A41BA01BEC07E807F41BF007DA5
:1002B000C1BD81BC407C01B4C074807541B500777C
:1002C000C1B781B640760072C1B281B3407301B14B
:1002D000C071807041B00050C19081914051019334
:1002E000C053805241920196C056805741970055A5
:1002F000C19581944054019CC05C805D419D005F2C
:10030000C19F819E405E005AC19A819B405B0199CA
:10031000C059805841980188C04880494189004BA4
:10032000C18B818A404A004EC18E818F404F018D22
:10033000C04D804C418C0044C1848185404501877B
:10034000C047804641860182C042804341830041CC
:10035000C1818180404000000000000000000000DA
:10036000000000000000000000000000000000008D
:10037000000000000000000000000000000000007D
:1003800000000D111B111C111B11000000000000CA
:10039000000000000000000000000000000000005D
:1003A000000000000000000000000000000000004D
:1003B000000000000000C1111B11D5111B116114B8
:1003C000B014000000000000000000000000000069
:1003D0000000000000000000303C202D101C000D2B
:1003E000313D212C111D010C343E242B141E040B15
:1003F000353F252A151F050A3639262916190609FB
:10040000373827281718070854161B11000000005A
:1004100000000000000000000000000000000000DC
:1004200000007416871600000000000000000000A5
:1004300000000000000000000000000045171B1134
:100440005C174244424442444244EE1EF21E000005
:10045000000000000000000000000000000000009C
:1004600000000000271F6F208920502094201921B0
:1004700093239B23401F90235C176C2086209120A0
:10048000A32097239F23000000000000000000002D
:1004900000000000000000000000000074040000E4
:1004A000000000000000000000000000000000004C
:1004B00000000000F5231626DC23F2231B110000A8
:1004C000000000000000000000000000000000002C
:1004D000000000006C26AD26532669261B11C72795
:1004E000E727424442444244424442444244CD2DE0
:1004F000D12DD52DD92DDD2DE12DE52DE92DED2D9C
:10050000F12D812AE727CB2ACC2AD52ADE2ADF2A19
:10051000982AF52DF92DFD2D012E052E092EE52DFC
:10052000E92DED2DF12DEA2AE727342B352B3E2B33
:100530003F2B482B012B0D2E112E152E192E1D2E63
:10054000212EE52DE92DED2DF12D432C932C5B2C47
:10055000662C712C7C2C872C5A2C252E292E2D2E86
:10056000312E352E392EE52DE92DED2DF12D000002
:10057000000000000000000000000000000000007B
:1005800000000000532BE727A22BAA2BAB2BB32B89
:10059000BB2B6A2BCD2DD12DD52DD92DDD2DE12DC8
:1005A000E52DE92DED2DF12DC52BE727192C212C5B
:1005B000292C312C392CDC2BCD2DD12DD52DD92D1D
:1005C000DD2DE12DE52DE92DED2DF12DA72E9C3012
:1005D000F5310000000000000000000000000000F5
:1005E0000000000000000000953102013000000012
:1005F00000000000000000000000000000006F0A82
:10060000012F0873060000171B0000000000000007
:10061000000000000000000000BEF0000102030422
:1006200005060708090A0B0C0D0E0F101112131402
:1006300015161718191A1B1C1D1E1F2021222324F2
:1006400025262728292A2B2C2D2E2FFFFFFFFFFFE1
:10065000FFFFFFFFFFFFFFFFFFFFFFFFFFFFFFFFAA
:10066000FFFFFFFFFFFFFFFFFFFFFFFFFFFFFFFF9A
:10067000FFFFFFFFFFFFFFFFFFFFFFFFFFFFFFFF8A
:10068000FFFFFFFFFFFFFFFFFFFFFFFFFFFFFFFF7A
:10069000FFFFFFFFFFFFFFFFFFFFFFF95A03030309
:1006A000030303030303030303030303030303031A
:1006B0000303030303020202020202020202020215
:1006C000020202020202020202020202020202020A
:1006D0000202020202020202020202020239413E48
:1006E0003E3E3E3C3C3C3CFFFFFFFFFFFFFFFFFF69
:1006F000FFFFFFFFFFFFFF4B6F01020408102040C8
:100700008000000000000000000000000000000069
:1007100000000000000000000000000000000000D9
:1007200000000000000000000000000000000000C9
:1007300000000000000000000000000000000000B9
:1007400000000000000000000000000000000000A9
:100750000000000000000000000000000000000099
:100760000000000000000000000000000000000089
:1007700000000000000000000099E80101021000E4
:100780002000000000000000000000000000000049
:100790000000000000000000000000000000000059
:1007A0000000000000000000000000000000000049
:1007B0000000000000000000000000000000000039
:1007C00000000000000000000000000023E2010122
:1007D000050000FF00000000000000000000000015
:1007E0000000000000000000000000000000000009
:1007F00000000000000000000000000000000000F9
:1008000000000000000000000000000000000000E8
:100810000000000000000000000000000000007B5D
:100820009C0101050100FF00000000000000000025
:1008300000000000000000000000000000000000B8
:1008400000000000000000000000000000000000A8
:100850000000000000000000000000000000000098
:100860000000000000000000000000000000000088
:100870000000FB6C0000000000000000400B0000C6
:10088000000000000000400B0014000001071600EB
:1008900002101F00038031000440B3000518F5006A
:1008A00006800F01075191010851E40109513702F7
:1008B0000A088A020B0894020000000000000000F1
:1008C0000000000000000000000000000000010126
:1008D000010101010101010000000000000101000F
:1008E0000000000000010100000000000001010004
:1008F00000000000000101010101010101012A4184
:100900000000AD080A00AD080B07EF07AD0715089A
:1009100035085A08AD088008990801017B1E201E81
:1009200001271E012E1E01351E013C1E01431E0122
:100930004A1E07581E01511E015F1E01661E066DEC
:100940001E2A821E03821E01821E01741EFB0000ED
:100950008D2314008D238D232721322143219421BF
:10096000F72124222F224F225E228D2367227C2210
:10097000C9222823492356237623852300017E2A72
:100980007E2A01642801852805912801B22801DA10
:1009900028040229012329014B29047329019429E0
:1009A00001BC2901E429010C2A01F32701142801C3
:1009B0003C2804342A01552A066F2AFB00006940AE
:1009C00016004A3F6940693F853FB13FBC3F6940DF
:1009D0006940694069406940C73FD33FD53FE23F26
:1009E0000540074029402B403A404C406340BD0D34
:1009F000FD32BA93AA93D8018D010E94F21000E94A
:100A000010E0FD01018312838D01A991B991089530
:100A1000BA93AA93D8018D01ECDF0CE910E0FD0137
:100A20000183128320E08D010E948D0B8D01A9911D
:100A3000B9910895BA93AA93D8018D01DADF08EA33
:100A400010E0FD010183128321E08D010E948D0BD6
:100A50008D01A991B9910895BA93AA93D8018D01F6
:100A6000C8DF04EB10E0FD010183128321E08D015A
:100A70000E948D0B8D01A991B9910895BA93AA9303
:100A8000D8018D01B6DF00EC10E0FD010183128377
:100A900021E08D010E948D0B8D01A991B9910895DE
:100AA000BA93AA93D8018D01A4DF0CEC10E0FD01EC
:100AB0000183128321E08D010E948D0B8D01A9918C
:100AC000B9910895BA93AA93D8018D0192DF08EDE8
:100AD00010E0FD010183128321E08D010E948D0B46
:100AE0008D01A991B9910895BA93AA93D8018D0166
:100AF00080DF04EE10E0FD010183128321E08D010F
:100B00000E948D0B8D01A991B9910895BA93AA9372
:100B1000D8018D016EDF00EF10E0FD01018312832B
:100B200021E08D010E948D0B8D01A991B99108954D
:100B3000BA93AA93D8018D015CDF0CEF10E0FD01A0
:100B40000183128321E08D010E948D0B8D01A991FB
:100B5000B9910895BA93AA93D8018D014ADF08E0AC
:100B600011E0FD010183128321E08D010E948D0BB4
:100B70008D01A991B9910895BA93AA93D8018D01D5
:100B8000E9DF04E111E0FD010183128321E08D0121
:100B90000E948D0B8D01A991B9910895BA93AA93E2
:100BA000D8018D01D7DF00E211E0FD01018312833E
:100BB00021E08D010E948D0B8D01A991B9910895BD
:100BC000BA93AA93D8018D01C5DF0CE211E0FD01B3
:100BD0000183128321E08D010E948D0B8D01A9916B
:100BE000B99108950E94E742C801D901082F092B45
:100BF00051F020E030E08C010E940D11A0FB1EF4AA
:100C00008C010E940142E4E00C94F8420E94E74209
:100C1000D80183E08D010E949F0B003308F0D5C0FE
:100C20008D010E949F0B0E948C3C0770043011F4D0
:100C300083E0D5C08D01FD0121813281F901389613
:100C4000259134913997F9010995002311F001E0BC
:100C500001C000E0002309F460C08D010E949F0BD9
:100C60000E948C3C005049F00A9539F00A9509F42D
:100C70004CC00A9509F449C0B2C08D010E949F0B77
:100C80000E948C3C03700023E1F48D010E949F0BB5
:100C900010E00E947C3C8D01FD0121813281F9012F
:100CA0003696259134913797F9010995002311F073
:100CB00001E001C000E0002311F081E090C080E07D
:100CC0008EC08D010E949F0B0E948C3C03700130EE
:100CD000D9F48D010E949F0B11E00E947C3C8D0194
:100CE000FD0121813281F9013696259134913797A2
:100CF000F9010995002311F001E001C000E0002393
:100D000011F080E06CC081E06AC082E08D010E9439
:100D10009F0B10E00E947C3C62C08D010E949F0BE3
:100D20000E948C3C0370023041F08D010E949F0BA9
:100D30000E948C3C03700130E1F48D010E949F0BF6
:100D400010E00E947C3C8D01FD0121813281F9017E
:100D50003696259134913797F9010995002311F0C2
:100D600001E001C000E0002311F081E038C080E024
:100D700036C08D010E949F0B0E948C3C0370033093
:100D800041F08D010E949F0B0E948C3C0370002358
:100D900031F58D010E949F0B11E00E947C3C8D017A
:100DA000FD0121813281F9013696259134913797E1
:100DB000F9010995002311F001E001C000E00023D2
:100DC00011F080E00CC081E00AC08D010E949F0BF1
:100DD0000E948C3C00FB16F481E001C080E0082FEB
:100DE000E4E00C94F8420E94E742D8018D0111968C
:100DF000ED91FC9112973A96259134913B97F90128
:100E00000995802F8D010E94900BE0E0F0E0FBBF80
:100E1000F9E00C949E428D01FD0121813281F9019E
:100E20003896259134913997F9010995002311F0ED
:100E300001E001C000E0002309F44BC0823029F436
:100E400028E08D010E948D0B88C1813009F085C199
:100E50008D010E94A50B21E00E946E3B8D01FD01DA
:100E600021813281F9013496259134913597F90128
:100E70000995902F8D010E94A20B192F0E94EE3C24
:100E80008D01FD0121813281F90134962591349142
:100E90003597F9010995902F8D010E94A20B192F0A
:100EA0000E94FB3C8D010E94A20B0E94350C21E0A8
:100EB0000E94930BEAE2FEE0038103FF05C023E0FA
:100EC0008D010E948D0B49C122E08D010E948D0B86
:100ED00044C1813009F040C08D010E94A50B21E082
:100EE0000E946E3B8D01FD0121813281F901349612
:100EF000259134913597F9010995902F8D010E9424
:100F0000A20B192F0E94EE3C8D01FD01218132813F
:100F1000F9013496259134913597F9010995902F6F
:100F20008D010E94A20B192F0E94FB3C8D010E9493
:100F3000A20B0E94350C21E00E94930BEAE2FEE036
:100F4000038103FF05C023E08D010E948D0B05C1C5
:100F500022E08D010E948D0B00C1813039F48D019A
:100F60000E94A50B20E00E946E3B1BC0882399F4D1
:100F70008D010E94A20B10E00E94EE3C8D010E94A8
:100F8000A20B0E94350C20E00E94930B21E08D0102
:100F90000E948D0BE2C0823021F428E08D010E9476
:100FA0008D0B0E942C0C002359F08D010E94A20B86
:100FB00011E00E94EE3C25E08D010E948D0BCDC01A
:100FC0000E94290C002351F08D010E94A20B11E018
:100FD0000E94EE3C24E08D010E948D0BBEC081304A
:100FE00031F48D010E94A50B20E00E946E3B0E940F
:100FF0002C0C002359F08D010E94A20B11E00E94DD
:10100000EE3C25E08D010E948D0BA7C00E94290CAB
:10101000002351F08D010E94A20B11E00E94EE3CD2
:1010200024E08D010E948D0B98C00E942C0C00239F
:1010300029F025E08D010E948D0B8FC0882329F4B3
:1010400026E08D010E948D0B88C0813039F48D011E
:101050000E94A50B20E00E946E3B7FC0823021F4ED
:1010600028E08D010E948D0B78C0882399F48D01B2
:101070000E94A20B10E00E94EE3C8D010E94A20B88
:101080000E94350C20E00E94930B21E08D010E940C
:101090008D0B63C0813039F48D010E94A50B20E0D7
:1010A0000E946E3B5AC0823021F428E08D010E94DC
:1010B0008D0B53C0813039F48D010E94A50B20E0C7
:1010C0000E946E3B06C0823021F428E08D010E9410
:1010D0008D0B0E942C0C002391F08D010E94A20B1D
:1010E00010E00E94EE3C8D010E94A20B0E94350C84
:1010F00020E00E94930B21E08D010E948D0B2DC0FA
:101100008D010E94A20B11E00E94EE3C8D010E9415
:10111000A20B16E00E94FB3C8D010E94A20B0E94D4
:10112000350C21E00E94930B29E08D010E948D0B6C
:1011300014C0823091F08D010E94A20B10E00E9439
:10114000EE3C8D010E94A20B0E94350C20E00E9413
:10115000930B21E08D010E948D0BE4E00C94F8428A
:101160000E94E742C801D901082F092B49F020E06D
:1011700030E08C0137DDA0FB1EF48C010E9401429F
:10118000E4E00C94F8420E94E742C801D901082F1C
:10119000092B49F020E030E08C0124DDA0FB1EF497
:1011A0008C010E940142E4E00C94F8420E94E74264
:1011B000C801D901082F092B49F020E030E08C014B
:1011C00011DDA0FB1EF48C010E940142E4E00C94AE
:1011D000F8420E94E742C801D901082F092B49F0C3
:1011E00020E030E08C01FEDCA0FB1EF48C010E94AC
:1011F0000142E4E00C94F8420E94E742C801D901A0
:10120000082F092B49F020E030E08C01EBDCA0FB3B
:101210001EF48C010E940142E4E00C94F8420E940A
:10122000E742C801D901082F092B49F020E030E03E
:101230008C01D8DCA0FB1EF48C010E940142E4E08A
:101240000C94F8420E94E742C801D901082F092BEB
:1012500049F020E030E08C01C5DCA0FB1EF48C01DD
:101260000E940142E4E00C94F8420E94E742C80167
:10127000D901082F092B49F020E030E08C01B2DCC5
:10128000A0FB1EF48C010E940142E4E00C94F842A1
:101290000E94E742C801D901082F092B49F020E03C
:1012A00030E08C019FDCA0FB1EF48C010E94014207
:1012B000E4E00C94F8420E94E742C801D901082FEB
:1012C000092B49F020E030E08C018CDCA0FB1EF4FF
:1012D0008C010E940142E4E00C94F8420E94E74233
:1012E000D8018D011196ED91FC9112973A962591B6
:1012F00034913B97F9010995802F8D010E94900B45
:10130000005061F00A9559F0065009F495C00A950D
:1013100009F4E7C00A9509F4FDC010C10FC18D01A1
:10132000FD0121813281F901389625913491399757
:10133000F9010995002311F001E001C000E000234C
:1013400009F441C0823029F428E08D010E948D0B00
:10135000F5C0813009F0F2C08D010E94A50B21E09B
:101360000E946E3B8D01FD0121813281F90134968D
:10137000259134913597F9010995902F8D010E949F
:10138000A20B192F0E94EE3C8D01FD0121813281BB
:10139000F9013496259134913597F9010995902FEB
:1013A0008D010E94A20B192F0E94FB3C8D010E940F
:1013B000A20B0E94350C21E00E94930B27E08D01C7
:1013C0000E948D0BBBC08130B1F58D010E94A50B31
:1013D00021E00E946E3B8D01FD0121813281F901E6
:1013E0003496259134913597F9010995902F8D0107
:1013F0000E94A20B192F0E94EE3C8D01FD0121815C
:101400003281F9013496259134913597F901099586
:10141000902F8D010E94A20B192F0E94FB3C8D0181
:101420000E94A20B0E94350C21E00E94930B27E042
:101430008D010E948D0B82C08D01FD0121813281C1
:10144000F9013896259134913997F90109950023CE
:1014500011F001E001C000E0002329F1823029F4FD
:1014600028E08D010E948D0B69C0882399F48D01BD
:101470000E94A20B10E00E94EE3C8D010E94A20B84
:101480000E94350C20E00E94930B21E08D010E9408
:101490008D0B54C0813021F58D010E94A50B20E0F9
:1014A0000E946E3B4BC0882399F48D010E94A20BD1
:1014B00010E00E94EE3C8D010E94A20B0E94350CB0
:1014C00020E00E94930B21E08D010E948D0B36C01D
:1014D0008130A1F58D010E94A50B20E00E946E3B9A
:1014E0002DC08D010E94A20B11E00E94EE3C8D01E7
:1014F0000E94A20B16E00E94FB3C8D010E94A20BF1
:101500000E94350C21E00E94930B29E08D010E947E
:101510008D0B14C0823091F08D010E94A20B10E05F
:101520000E94EE3C8D010E94A20B0E94350C20E02F
:101530000E94930B21E08D010E948D0BE4E00C943E
:10154000F8420E94E742C801D901082F092B49F04F
:1015500020E030E08C01AFDEA0FB1EF48C010E9485
:101560000142E4E00C94F8420E94E742C801D9012C
:10157000082F092B49F020E030E08C019CDEA0FB15
:101580001EF48C010E940142E4E00C94F8420E9497
:10159000E742C801D901082F092B49F020E030E0CB
:1015A0008C0189DEA0FB1EF48C010E940142E4E064
:1015B0000C94F8420E94E742C801D901082F092B78
:1015C00051F020E030E08C010E940D11A0FB1EF4D0
:1015D0008C010E940142E4E00C94F8420E94E64231
:1015E000D8018D010E94900B005049F00A9541F0FE
:1015F0000A9509F463C00A9509F46BC08BC08AC0D0
:10160000FD018181928106968D010E94230C0E942A
:101610009A3C402E8D01FC01259134913197F901BE
:1016200009954026442011F001E001C000E00023AC
:1016300009F470C00E94320C073021F1FD01818154
:10164000928104960E94320C402E8D01FC0125915E
:1016500034913197F9010995401610F001E001C06D
:1016600000E0002379F48D011196ED91FC91129721
:101670003496259134913597F90109950E942F0CE4
:101680000E94A03C8D011196ED91FC911297349629
:10169000259134913597F9010995802F8D010E948C
:1016A000260C182F0E94FB3C8D010E94260C0E94E4
:1016B000713E22E08D010E948D0B2CC00E94290CEE
:1016C000002341F10E94BF3C23E08D010E948D0B5D
:1016D00021C0FD018181928106968D010E94230C1B
:1016E0000E949A3C402E8D01FC0125913491319746
:1016F000F90109954026442011F401E001C000E001
:10170000002341F00E94C83C0E94A73421E08D01D3
:101710000E948D0BE5E00C94F742F80120830895B8
:10172000F80100810895F80120830895980100E0F0
:101730000895980100E00895980100E00895F801E7
:1017400005810895F801038108950C5F1F4F0895E6
:10175000980100E00895980100E00895980100E0E4
:101760000895980102E00895980100E00895980115
:1017700000E00895980102E00895980101E00895BD
:10178000980100E00895980102E00895980100E0B2
:101790000895980101E00895980102E008959801E4
:1017A00001E00895980101E00895980103E008958B
:1017B000980100E00895980100E00895980103E081
:1017C0000895980101E00895980100E008959801B6
:1017D00003E00895980100E00895980101E008955C
:1017E000980103E00895980101E00895980101E04F
:1017F0000895980101E00895980100E00895980186
:1018000000E00895980101E00895980101E008952D
:10181000980100E00895980101E00895980100E022
:101820000895980101E00895980101E00895980154
:1018300001E00895980101E00895980107E00895F6
:10184000980100E00895F80104810895F8010381EA
:1018500008950091B00D08950091B10D0895009381
:101860001F0E089500911F0E089510E048E050E00B
:101870000E94094298010BE31FE0020F131F089515
:1018800022E531E0F80126833783F80120E0208348
:10189000F80120E02183F80120E02283F80120E014
:1018A0002383F80120E0248308959A938A93C80142
:1018B000082F092B29F020FB1EF48C010E94014205
:1018C0008991999108959A938A93C801082F092BB9
:1018D00029F020FB1EF48C010E940142899199910C
:1018E00008950E94970C0E94930C0E949D0C0E94E8
:1018F000990C089508EF12E00E9429320E94950C7D
:101900000E949B0C08950AE81CE00E9429320E9464
:10191000950C0E949B0C08950E94970C0E949D0CB0
:101920000E9454320895139A08951B9A08951B98A3
:101930000895149A08951C9A08951C9808957B2F71
:101940002A2ED8010FEF1FEF40E050E04217530757
:1019500098F46C91502F65271196012F10E0E62F17
:10196000F0E0EE0FFF1FEA5AFE4F059014903197FA
:10197000002511254395E9CFA22DB72F0895F80131
:1019800000E010E0408150E0040F151F3196215017
:101990003040422F432BB1F708950E94E742F801EF
:1019A000C90120E030E0008110E0200F311F3196A6
:1019B0000197082F092BB9F7DF01FD013196022F9E
:1019C0001C91011749F48901012F10E010810117C2
:1019D00019F401E010E002C000E010E0E4E00C9433
:1019E000F842F80140E00081400F3196215030402C
:1019F000022F032BC1F70081401719F401E010E01A
:101A0000089500E010E00895A895089510E048E0DA
:101A100050E00E940942F801E056F84F0681178114
:101A200008950091310808950CE008950093B20DD7
:101A300008950E94E7420E94D10DB0E0A1E00A2F74
:101A4000015039F00A9539F10A95A1F10A9581F111
:101A500033C00E94140DB017E0F42B2F0AE01BE0F6
:101A60000E94C110C801082F092B89F04B2F439504
:101A70009C010AE01BE00E94180F002311F0A2E075
:101A80001BC00E94110D0430B9F4A3E015C0A3E0FF
:101A900013C0A4E011C00E94110D033019F4B395D6
:101AA000A1E00AC00E94110D043031F4A3E004C08B
:101AB00001E00BC000E009C00E94BE0F0AE010E088
:101AC0000E94E6310E94040DBACFE4E00C94F84283
:101AD0000E943B0F08950E94600F08950E948C0F92
:101AE000089500E00E94160D0E945C10002399F0FA
:101AF000EFDF002351F0F2DF002311F001E0089541
:101B000004E00E94160D00E0089504E00E94160D06
:101B100090DF00E0089504E00E94160D8ADF00E0E7
:101B200008950E94E842C801A22F2A2F23958C0114
:101B30000E94070EE3E00C94F9428A93802F0E94E2
:101B4000140D801730F4082F03950E94060D10E045
:101B500002C000E010E0899108950E94E842C801A7
:101B6000A22F0A2FEADF98014A2F43958C010E9489
:101B7000180F10E0E3E00C94F94208E218E00E942C
:101B80000F4100E417E00E94A54108959A938A93BB
:101B9000C80122E030E08C010E942A41899199918C
:101BA00008950AE01BE0E6E2F8E00083118300E01C
:101BB0000E94E3104CE650E020E030E000EA17E03D
:101BC0000E941343E0EAF7E000E110E0048315838C
:101BD000E0EAF7E00CE610E0068317830EE610E07B
:101BE0000E941E13E0EAF7E0008711870EE610E07E
:101BF0000E941E13005F1F4FE0EAF7E00283138389
:101C0000E0EAF7E000E0008300E0018308950E942D
:101C1000DD42D1503801822E0DE0801618F000E030
:101C200010E077C0082D10E048E050E00E94094223
:101C3000F801E056F84F06811781012B09F451C0D5
:101C4000082D10E048E050E00E940942F801E056FB
:101C5000F84F00851185012B09F443C0082D10E0D1
:101C600048E050E00E940942F801E056F84F048134
:101C700015816801082D10E048E050E00E940942FB
:101C8000F801E056F84F068117812801082D10E071
:101C900048E050E00E940942F801E056F84F008504
:101CA00011855801A50196018E010E94B730A5014A
:101CB0009E018E010E94CF13FE01E40DF51D80816F
:101CC00090E0FE01E40DF51D118100E0802B912BC9
:101CD00092018E010E949F0CD8018A179B07A1F4E4
:101CE00003C000E010E015C0082D10E0000F111F28
:101CF000F801E45FF74F80839183A2019E01830185
:101D00000E940343820105C004E00E94160D00E01A
:101D100010E0DF5FEEE00C94EE420E94E142D15011
:101D20002801C901642E0DE0601618F000E010E0F3
:101D30007BC0AC0192018E010E9403439C01820191
:101D40000E949F0CD8010A2FFE01E80FF91F0083A3
:101D50008D01012F10E0FE01E80FF91F0183062D10
:101D600010E048E050E00E940942F801E056F84FC8
:101D7000A287B387AC014E5F5F4F9E01E6E2F8E0B9
:101D8000008111810E9428134801062D10E048E0CF
:101D900050E00E940942F801E056F84F0085118595
:101DA000012B69F5E0EAF7E022813381062D10E08E
:101DB00048E050E00E940942F801E056F84F2483C1
:101DC0003583E0EAF7E002811381080D191D0283D3
:101DD0001383062D10E048E050E00E940942F8010C
:101DE000E056F84F86839783062D10E048E050E0D8
:101DF0000E940942F801E056F84F80869186A401BE
:101E0000E6E2F8E020813181BA01062D10E048E0D9
:101E100050E00E940942F801E056F84F0481158114
:101E2000AB010E94CA308401DF5FEAE00C94F24209
:101E30000E94E642D801C901442E0E94E610002308
:101E400099F4442D9C018D0168DF012B41F001E0E4
:101E50000E94E91001E00E94E31001E009C004E0E3
:101E60000E94E91000E004C002E00E94E91000E0D6
:101E7000E5E00C94F742BD01E1E0F0E0EC3000E079
:101E8000F007D8F48F01000F111FD801A45FB74FDE
:101E90002D913C9111978F0148E050E00E9409423A
:101EA000D801A655B84F0D911C91119720173107F5
:101EB00011F000E003C03196E1CF01E0DB010895AD
:101EC000BA93AA936897E0E0F0E0EC3000E0F00706
:101ED000B0F48F0148E050E00E940942D801AE54AE
:101EE000B84F2D913C911197DE018F01000F111F0A
:101EF000A00FB11F2D933C9311973196E6CF28E1A7
:101F000030E08E010E949F0CE0EAF7E0008311832D
:101F10006896A991B9910895BA93AA936897E0E059
:101F2000F0E0EC3000E0F007B0F48F0148E050E062
:101F30000E940942D801AE54B84F2D913C9111979F
:101F4000DE018F01000F111FA00FB11F2D933C93D5
:101F500011973196E6CF28E130E08E010E949F0C68
:101F6000E0EAF7E0208131812017310711F401E028
:101F700001C000E06896A991B99108950E94E61009
:101F8000005079F00A9571F00A95B1F00A9589F13F
:101F90000A9509F443C00A9509F459C00A9509F451
:101FA00073C008950E94E01028EC30E00E94384190
:101FB00002E00E94E31008950E94CE10002361F019
:101FC0000E94E01020E137E20E9438410E94DA10BE
:101FD00003E00E94E31008950E94E0100E94524125
:101FE000002331F004E00E94E91000E00E94E310B9
:101FF00008950E94D710002321F004E00E94E3100E
:1020000008950E94E0100E945241002331F004E044
:102010000E94E91000E00E94E310089540E02CE6E1
:1020200030E000EA17E079DE012B51F00E94E01069
:1020300028EC30E00E94384105E00E94E31008954A
:1020400004E00E94E91000E00E94E31008950E945D
:10205000CE10002361F00E94E01020E137E20E94E0
:1020600038410E94DA1006E00E94E31008950E94B1
:10207000E0100E9452410023F1F004E00E94E910B8
:1020800000E00E94E31008950E94D710002339F069
:1020900003E00E94E91000E00E94E31008950E940E
:1020A000E0100E945241002331F004E00E94E91048
:1020B00000E00E94E31008950E94E74272DD20E0F4
:1020C00000EA17E0A4DD012B11F400E057C0B0E0F6
:1020D000A1E000E00E94EC100A2F015059F00A958F
:1020E00009F10A9581F10A95D1F10A95E9F10A956C
:1020F000C9F13CC0BD30A0F42B2FE6E2F8E000812E
:10210000118185DDC801082F092B41F00E94EF10D5
:10211000002311F0A2E02AC0A4E028C0A5E026C058
:10212000A6E024C04B2F9C01E6E2F8E0008111817B
:102130007FDE002311F0A3E019C00E94110D0430CE
:10214000A9F4A5E013C00E94110D033011F4A4E01E
:102150000DC00E94110D043049F4A5E007C0B395ED
:10216000A1E004C001E00AC000E008C007DF0AE007
:1021700010E00E94E6310E94040DAECFE4E00C9422
:10218000F8420E94E842C801A22F2A2F8C010E9427
:102190005C31E3E00C94F942E39A0895E19B02C0BC
:1021A00000E0089501E0089500937C0808950091EF
:1021B0007C08089500E00E94D4100E94CC1008957D
:1021C00008E218E00895009330080895009130085F
:1021D00008950093310808950093320808950091FE
:1021E0003208089522E833E0F80121833283F801B0
:1021F00020E020830895AD01D8018D01F3DF06E8CA
:1022000013E0FD0101831283FD0100E00383FD0162
:1022100000E004838D01DA0108959A938A93C8013E
:10222000082F092B29F020FB1EF48C010E9401428B
:1022300089919991089508959A938A93C801082FD6
:10224000092B29F020FB1EF48C010E940142899188
:1022500099910895009161000460009361000895D0
:102260000091620004600093620008950091620092
:102270000B7F00936200089500916100006100935C
:10228000610008950091620000610093620008956A
:10229000009162000F7E009362000895009161003A
:1022A0000260009361000895009162000D7F009329
:1022B0006200089500916200026000936200089538
:1022C0000000089500C000C0000008950E9436116B
:1022D0000E9448110E945A110E942A110E943C112A
:1022E0000E944E1108950E94E642C801422EA0E0CD
:1022F000A415A0F4B0E0FC01EA0FFB1F008100234D
:1023000019F00E94421102C00E9448110E9430112F
:102310000E9460110E943611A395EACF0E945A11C3
:102320000E9462110E945411E5E00C94F742BA93A6
:10233000AA93D8018D010E94FB1006EB13E0FD016A
:10234000018312838D01A991B99108950E94E742FA
:10235000D801C9018D01EBDF0AEB13E0FD01018318
:1023600012838D010B5F1F4F0E940F41FD01838778
:10237000948720E08D010E948D0B8D01E4E00C9488
:10238000F8420E94E742C801D901082F092B51F0F9
:1023900020E030E08C010E941C11A0FB1EF48C0197
:1023A0000E940142E4E00C94F8420E94E742D80106
:1023B000C9010A2F0B2BA9F00AEB13E0FD010183E1
:1023C000128322E030E08D010B5F1F4F0E942A41F3
:1023D00020E030E08D01D5DF80FB1EF48D010E94EE
:1023E0000142E4E00C94F8420E94E742D801922FA7
:1023F000832F8D010E94900B005029F00A9561F007
:102400000A9521F148C0FD0100E0058721E08D011A
:102410000E948D0B00E040C0992321F0FD0105854D
:1024200001600587882321F0FD010585026005878D
:10243000FD01238534858D010B5F1F4F0E943841BC
:1024400022E08D010E948D0B00E026C08D010B5F04
:102450001F4F0E945241002331F020E08D010E9465
:102460008D0B00E019C0992321F0FD010585016065
:102470000587882321F0FD01058502600587FD01A0
:102480000585033031F420E08D010E948D0B01E0C1
:1024900003C000E001C000E0E4E00C94F842202F0B
:1024A00030E0E0E0F0E0E83000E0F0074CF4022F2C
:1024B00010E04E2F0E941D42017030273196F3CF5D
:1024C000332311F401E0089500E00895980150E0ED
:1024D000E0E0F0E0EC3000E0F00744F44E2F89013A
:1024E0000E941842017050273196F4CF552311F401
:1024F00001E0089500E00895502F60E070E000E1F1
:10250000509F00E000220FE01022B00108E0509F31
:1025100000E7002200E0102260297129052F0170D8
:1025200014E0019F60297129052F007FB8DF10E8B2
:10253000019F60297129052F0E78B1DF18E0019FF6
:1025400060297129052F0D76AADF12E0019F60290D
:102550007129052F0B75A3DF10E0602B712B8B0108
:102560000895080160E0800100701F70AFDF102D3A
:1025700017FB10E010F9011711F061E001C060E0F5
:10258000660F660F660F8001007718709FDF102DB1
:1025900013FB10E010F9011711F001E001C000E099
:1025A000000F000F602B8001047616708FDF102D56
:1025B00011FB10E010F9011711F001E001C000E07B
:1025C000000F602B80010475157080DF102D1170D5
:1025D000011711F001E001C000E0602B062F089503
:1025E000B801222311F48B010895209332082A9513
:1025F00001E010E0422F0E941342602771278B01F7
:102600000895B80120E044E08B010E941842007F49
:10261000202F062F0695069506950E70202B062F67
:1026200002FB00E000F9202B022F08951801810120
:1026300098DF202F8101D4DFE4DF089500FB16F43A
:102640000F5F1F4F980136952795020F131F0895AE
:102650000E94DC42380159016A01222433244424B7
:102660005524EE240C2D0D2941F0C0FA36F40FEF5D
:10267000C00E0FEFD01EEE24E394882499248C140E
:102680009D0408F04BC0F501E40DF51D008134DF19
:1026900020E030E0C801D90101E0400E00E0501E0A
:1026A000F501E40DF51D008127DFA80160E070E071
:1026B000ECE08A019B014E2F0E946F42802B912BF0
:1026C000A22BB32B01E0400E00E0501E8C01F30161
:1026D000E20DF31D008301E0200E00E0301E892F83
:1026E0009A2FAB2FB0E08C01F301E20DF31D0083B4
:1026F00001E0200E00E0301E892F9A2FAB2FB0E0B2
:102700008C01F301E20DF31D008301E0200E00E0D7
:10271000301E02E0800E00E0901EB1CFEE20D9F115
:10272000F501E40DF51D0081E7DE20E030E0C80191
:10273000D90100E0E1DEA80160E070E0ECE08A0190
:102740009B014E2F0E946F42802B912BA22BB32B0B
:102750008C01F301E20DF31D008301E0200E00E087
:10276000301E892F9A2FAB2FB0E08C01F301E20DC0
:10277000F31D008301E0200E00E0301E892F9A2F08
:10278000AB2FB0E08C01F301E20DF31D008301E0FB
:10279000200E00E0301E8101EFE00C94ED420E941B
:1027A000DB42580149017A016624772444245524E8
:1027B0000E2D0F2951F043E050E087010E94204286
:1027C000452B19F000E010E057C0CC24DD24CE14D6
:1027D000DF0408F050C0F401E40DF51D008110E0A5
:1027E00020E030E0C801D90101E0400E00E0501EB9
:1027F000F401E40DF51D008110E020E030E0322FFF
:10280000212F102F00E0802B912BA22BB32B01E066
:10281000400E00E0501EF401E40DF51D208130E073
:1028200000E010E0802B912BA22BB32B01E0400E97
:1028300000E0501E8C010F7F1F70F8DEF501E60DE1
:10284000F71D008301E0600E00E0701E4CE08C017B
:102850009D010E9476420F7F1F70E8DEF501E60DB4
:10286000F71D008301E0600E00E0701E03E0C00E63
:1028700000E0D01EACCF8301E0E10C94EC420E945A
:10288000E742D801C9018D010E94FB100EEB13E055
:10289000FD01018312838D01075F1F4F0E940F41CD
:1028A000FD0185839683FD0100E00087FD0100E0C6
:1028B000078320E08D010E948D0B8D01E4E00C94D4
:1028C000F8420E94E742D801C9010A2F0B2BB1F050
:1028D0000EEB13E0FD010183128322E030E08D0155
:1028E000075F1F4F0E942A4120E030E08D010E94C7
:1028F0001C1180FB1EF48D010E940142E4E00C9447
:10290000F842BA93AA93D8011596ED91FC911697C7
:102910000995002311F001E001C000E0A991B991EF
:1029200008950E94E742D801822F8D01FD01218187
:102930003281F9013296259134913397F901099545
:10294000FD010781081741F4FD0100E00783FD0147
:1029500000E0008701E001C000E0E4E00C94F842F0
:10296000BA93AA93D8018D010E94900B005089F070
:102970000A95C1F00A9541F10A9509F44EC00A95ED
:1029800009F474C00A9509F49AC0025009F4BCC055
:10299000C3C0FD010085FD01078321E08D010E9478
:1029A0008D0BBAC08D01ADDF002369F08D010E944F
:1029B0008F1598018D01075F1F4F0E94384122E05B
:1029C0008D010E948D0BA8C08D019BDF0023E1F0DB
:1029D0008D01075F1F4F0E9452410023E9F08D01D6
:1029E0000E94931598018D01075F1F4F0E94384187
:1029F000FD0102E00087FD010085FD01078323E062
:102A00008D010E948D0B88C0FD010085FD010783AB
:102A100020E08D010E948D0B7FC08D0172DF0023AD
:102A2000E1F08D01075F1F4F0E9452410023E9F042
:102A30008D010E94971598018D01075F1F4F0E941D
:102A40003841FD0103E00087FD010085FD0107839A
:102A500024E08D010E948D0B5FC0FD010085FD010A
:102A6000078320E08D010E948D0B56C08D0149DF48
:102A70000023E1F08D01075F1F4F0E9452410023A8
:102A8000E9F08D010E949B1598018D01075F1F4F92
:102A90000E943841FD0104E00087FD010085FD0131
:102AA000078327E08D010E948D0B36C0FD01008554
:102AB000FD01078320E08D010E948D0B2DC08D014B
:102AC00020DF0023E1F08D01075F1F4F0E9452417C
:102AD000002311F18D010E949F1598018D01075F60
:102AE0001F4F0E943841FD0105E00087FD01008570
:102AF000FD01078327E08D010E948D0B0DC020E0B2
:102B00008D010E948D0B08C08D01FBDE002321F496
:102B100020E08D010E948D0BA991B9910895980133
:102B200004E610E0089598010CED15E00895980171
:102B300008EB1BE00895980108E813E10895980157
:102B400002E310E00895F80100810895009161000A
:102B50000160009361000895009162000E7F009370
:102B60006200089500916100006200936100089581
:102B7000009162000F7D009362000895169A0895F7
:102B80001E980895179A08951F9808959A938A9306
:102B9000C8010E94AC150E94B8150E94C0150E9481
:102BA000C4150E94A6150E94B2150E94BE150E946F
:102BB000C2150E9466118991999108950E94E84278
:102BC000C801A0E0A033F0F50A2F10E048E050E083
:102BD0000E94094298018C01020F131F0E94A31545
:102BE000002361F0EA2FF0E0E852FC4F049110E07E
:102BF000F801ED5CF74F01E000830BC0EA2FF0E035
:102C0000E852FC4F049110E0F801ED5CF74F00E052
:102C100000830A2F10E048E050E00E94094298012A
:102C20008C01020F131F0E94A315202F30E00A2FE2
:102C300010E0000F111FF801EE57F74F208331838A
:102C4000A395C0CF20E403E318E00E947311E3E0F2
:102C50000C94F942BA93AA93D8018D010E94FB10FB
:102C600008E014E0FD01018312838D010B5F1F4F0B
:102C70000E940F418D01A991B9910895BA93AA9329
:102C8000D8018D01E7DF02E214E0FD010183128328
:102C900020E08D010E94241721E08D010E948D0B00
:102CA0008D01A991B99108950E94E742D801C90107
:102CB0000A2F0B2BB1F008E014E0FD010183128311
:102CC00022E030E08D010B5F1F4F0E942A4120E07F
:102CD00030E08D010E941C1180FB1EF48D010E94CA
:102CE0000142E4E00C94F8420E94E742C801D90195
:102CF000082F092B49F020E030E08C01D5DFA0FB44
:102D00001EF48C010E940142E4E00C94F8420E94FF
:102D1000E742C8018C010E94900B005051F00A95C7
:102D200049F00A9539F10A95F9F10A9509F45EC05E
:102D300088C087C00E943F370023B9F00E944F37F8
:102D4000002371F00E944737D8018C010E942A1796
:102D50009D010E94384123E08C010E948D0B71C0BF
:102D600022E08C010E948D0B6CC020E08C010E943F
:102D70008D0B67C08C010E9427170130A1F420E061
:102D80008C010E94241701E00E9458370E944737A7
:102D9000D8018C010E942A179D010E94384123E02E
:102DA0008C010E948D0B4DC08C010E9427170130B1
:102DB00071F420E08C010E9424170E944737D8014B
:102DC0008C010E942A179D010E9438413AC08C0153
:102DD0000E942A170E945241002399F105E00E94A7
:102DE000160D24E08C010E948D0B2BC08C010E94DB
:102DF0002717015019F00A95B1F023C020E08C018B
:102E00000E94241702E10E942D170E944737D80123
:102E10008C010E942A179D010E94384123E08C01F9
:102E20000E948D0B0EC020E08C010E94241700E050
:102E30000E94583702E10E942D1722E08C010E9467
:102E40008D0BE4E00C94F842F80124830895F80116
:102E5000048108950B5F1F4F089500938A0C089515
:102E600000E00E942D170E94423FFDCFBA93AA9323
:102E7000D8018D010E94FB100CE314E0FD010183D9
:102E800012838D01A991B99108950E94E742C8016A
:102E9000D901082F092B51F020E030E08C010E946D
:102EA0001C11A0FB1EF48C010E940142E4E00C9472
:102EB000F842F801258308959A938A93C8018C01FA
:102EC0000E94900B002311F401E001C000E0899101
:102ED000999108950E94E5422801C901DA01AD01E6
:102EE0009C018201F20161817281FB01369665913C
:102EF00074913797FB010995D801AD019C018201BE
:102F0000F20161817281FB013C96659174913D975C
:102F1000FB010995E6E00C94F6420E94E242D801DA
:102F2000722E632E842ECB01AC01362D3068272DF6
:102F30008D01FD0161817281FB013A966591749169
:102F40003B97FB0109952801FC01E40DF51D8082EA
:102F500001E0400E00E0501E8201E9E00C94F342D3
:102F60000E94E14228010A012A843B848C859D85C8
:102F700050E06624A0E0B0E0A015B105F0F44901EE
:102F800094012F5F3F4FFB01E80DF91D00810023E5
:102F900031F001E010E0462D0E941342502B07E073
:102FA000601641F4F101E80FF91F5083019650E0DB
:102FB000662401C063941196DFCF662029F0F101E9
:102FC000E80FF91F508301968C01EEE00C94F24259
:102FD0000E94DB42280159014A01CB018201F20122
:102FE00021813281F9013E96259134913F97F90173
:102FF00009953801F501E60DF71D3197F080F501CF
:10300000E60DF71DE080F501E60DF71DD180CC241B
:10301000F501E60DF71D028110E0C02AD12AF50165
:10302000E60DF71DB381A0E0F501E60DF71D048163
:1030300010E0A02BB12B0A2F0B2B21F0A13D07E0B4
:10304000B00740F0B40143E03E2D2F2D820165DF33
:10305000C80144C0F201028D138D96012A0F3B1F57
:103060000217130740F4B40142E03E2D2F2D8201D8
:1030700054DFC80133C0A4013E2D2F2D8201F2017F
:1030800061817281FB013A96659174913B97FB01D6
:103090000995C8010A2F0770002359F043E08D01FC
:1030A0000E9418420395F401E80FF91F008301966E
:1030B00009C043E08D010E941842F401E80FF91F96
:1030C000008301969A938A939A928A92F201628976
:1030D0007389AD019601820143DFC8018C01E0E1F3
:1030E0000C94EC420E94DB42280159014A01CB01B9
:1030F0008201F20121813281F9013E9625913491BC
:103100003F97F90109953801F501E60DF71D319753
:10311000F080F501E60DF71DE080F501E60DF71DE5
:10312000D180CC24F501E60DF71D028110E0C02A04
:10313000D12AF501E60DF71DB381A0E0F501E60DFA
:10314000F71D048110E0A02BB12B0A2F0B2B21F0CF
:10315000A13D07E0B00740F0B40143E03E2D2F2D24
:103160008201DBDEC80144C0F201048D158D960199
:103170002A0F3B1F0217130740F4B40142E03E2D13
:103180002F2D8201CADEC80133C0A4013E2D2F2D90
:103190008201F20161817281FB013A96659174911D
:1031A0003B97FB010995C8010A2F0770002359F0CE
:1031B00043E08D010E9418420395F401E80FF91FC6
:1031C0000083019609C043E08D010E941842F4017A
:1031D000E80FF91F008301969A938A939A928A9234
:1031E000F20164897589AD0196018201B9DEC801D9
:1031F0008C01E0E10C94EC420E94DB422801690161
:103200004A01CB018201F20121813281F9013E960E
:10321000259134913F97F90109955801F601EA0D7E
:10322000FB1D3197F080F601EA0DFB1DE080F601F1
:10323000EA0DFB1DB181A0E0F601EA0DFB1D028144
:1032400010E0A02BB12BF601EA0DFB1D7380662464
:10325000F601EA0DFB1D048110E0602A712A062D9B
:10326000072929F00EE7601600E0700640F0B4016F
:1032700043E03E2D2F2D820150DEC80152C0F201E5
:10328000068D178D9D01260D371D0217130740F47B
:10329000B40142E03E2D2F2D82013FDEC80141C026
:1032A000A4013E2D2F2D8201F20161817281FB016B
:1032B0003A96659174913B97FB010995C801062DDB
:1032C000000FF401E80FF91F0083019600E010E001
:1032D0000615170530F5F201468957899D01220F21
:1032E000331F420F531FFA0120813181232F30E019
:1032F000F401E80FF91F20830196F20146895789EE
:103300009D01220F331F420F531FFA01208131818B
:10331000F401E80FF91F2083019611960F5F1F4FEC
:10332000D7CF8C01E0E10C94EC420E94DB422801F3
:1033300069014A01CB018201F20121813281F90147
:103340003E96259134913F97F90109955801F60170
:10335000EA0DFB1D3197F080F601EA0DFB1DE080C0
:10336000F601EA0DFB1DB181A0E0F601EA0DFB1D9F
:10337000028110E0A02BB12BF601EA0DFB1D73803A
:103380006624F601EA0DFB1D048110E0602A712A13
:10339000062D072929F00EE7601600E0700640F0C0
:1033A000B40143E03E2D2F2D8201B7DDC80152C08C
:1033B000F20100A111A19D01260D371D021713076F
:1033C00040F4B40142E03E2D2F2D8201A6DDC8015C
:1033D00041C0A4013E2D2F2D8201F2016181728135
:1033E000FB013A96659174913B97FB010995C801E1
:1033F000062D000FF401E80FF91F0083019600E08D
:1034000010E00615170530F5F201408D518D9D0134
:10341000220F331F420F531FFA0120813181232FC6
:1034200030E0F401E80FF91F20830196F201408D8E
:10343000518D9D01220F331F420F531FFA0120812E
:103440003181F401E80FF91F2083019611960F5F77
:103450001F4FD7CF8C01E0E10C94EC420E94DB427D
:10346000580129016A01CB018501F50121813281D1
:10347000F9013E96259134913F97F901099538015C
:10348000F201E60DF71D3197F080F201E60DF71D10
:10349000E080F201E60DF71D91808824F201E60D2F
:1034A000F71D028110E0802A912AF501028D138D0B
:1034B0008016910640F0B60142E03E2D2F2D850189
:1034C0002CDDC8012EC0F201E60DF71DB381A0E08E
:1034D000F201E60DF71D048110E0A02BB12BA03006
:1034E0000FEFB00751F4940101E00E943137AC01B5
:1034F000920186010E94034314C00A2F0B2B51F442
:10350000940100E00E943137AC01920186010E94D3
:10351000034307C0B60143E03E2D2F2D8501FDDC9E
:10352000C8018C01E0E10C94EC420E94DD422801CC
:10353000C9015A014B018201F20121813281F90155
:103540003E96259134913F97F9010995D801FC01E8
:10355000EA0FFB1F3197D080FC01EA0FFB1FC080F0
:10356000FC01EA0FFB1F71806624FC01EA0FFB1FC0
:10357000028110E0602A712AF201068D178D601613
:10358000710640F0B50142E03C2D2D2D8201C5DCD5
:1035900048011CC0FC01EA0FFB1F538140E0FC0105
:1035A000EA0FFB1F048110E0402B512BF20126890A
:1035B00037898301000F111F200F311FF90140834C
:1035C0005183A4019C0185010E9403438401EEE024
:1035D0000C94EE420E94DB42280139016A01CB01C2
:1035E0008201F20121813281F9013E9625913491C7
:1035F0003F97F90109954801F301E80DF91D31974D
:10360000F080F301E80DF91DE080F301E80DF91DEC
:10361000B180AA24F301E80DF91D028110E0A02A6F
:10362000B12AF301E80DF91DB381A0E0F301E80D23
:10363000F91D048110E0A02BB12B0A2F0B2B21F0D8
:10364000A13B07E0B00740F0B60143E03E2D2F2D2F
:10365000820163DCC80134C0F201028D138D950133
:103660002A0F3B1F0217130740F4B60142E03E2D1C
:103670002F2D820152DCC80123C0A5019D018301C9
:10368000080D191D0A5F1F4F0E94F836A6013E2D36
:103690002F2D8201F20161817281FB013A966591C1
:1036A00074913B97FB010995C80144E050E09301F8
:1036B000280F391F8601080F191F0E940343049623
:1036C0008C01E0E10C94EC420E94DB4248012901AC
:1036D0006A013B018401F40121813281F9013E96A6
:1036E000259134913F97F9010995C801F201E80F3E
:1036F000F91F3197F080F201E80FF91FE080F20125
:10370000E80FF91FB181A0E0F201E80FF91F028173
:1037100010E0A02BB12BF201E80FF91FB380AA240F
:10372000F201E80FF91F048110E0A02AB12A0A2D46
:103730000B2929F00CE7A01600E0B00640F0B60116
:1037400043E03E2D2F2D8401E8DB38014FC0F4010A
:10375000068D178D9D012A0D3B1D0217130740F49E
:10376000B60142E03E2D2F2D8401D7DB38013EC04B
:1037700020E030E02A153B05E0F4F201E80FF91FE4
:10378000568140E0F201E80FF91F078110E0402B5D
:10379000512BF401668977898D01000F111F600F8D
:1037A000711FFB0140835183119602962F5F3F4F9B
:1037B000E1CFA6013E2D2F2D8401F401618172819C
:1037C000FB013A96659174913B97FB01099538018D
:1037D00044E050E09201260D371D8601060D171DAD
:1037E0000E94034304E0600E00E0701E8301E0E1EC
:1037F0000C94EC4208010FEF1FEF0895080100E060
:1038000010E008950E94DF4228014901DA01CB014E
:103810008201F20121813281F9013E962591349194
:103820003F97F90109953801F401E60DF71D31972D
:10383000B080F401E60DF71DA080AD013A2D2B2DCF
:103840008201F20161817281FB013A966591749166
:103850003B97FB010995C801FD01E80FF91F03E043
:1038600000830196FD01E80FF91F00E20083019635
:10387000FD01E80FF91F07E000830196FD01E80F45
:10388000F91F02E3008301968C01ECE00C94F042F6
:103890000E94DB4238014901DA01CB018301F301C7
:1038A00021813281F9013E96259134913F97F901AA
:1038B00009952801F401E40DF51D3197B080F4015C
:1038C000E40DF51DA080F401E40DF51DE280FF2458
:1038D0008C0106501040E016F10641F0BD0142E0B7
:1038E0003A2D2B2D830119DBC8012CC1AD013A2DD6
:1038F0002B2D8301F30161817281FB013A96659161
:1039000074913B97FB010995C801F401E40DF51D85
:103910000381005049F00A9579F10A9509F49DC098
:103920000A9509F4E0C007C1FD01E80FF91F00E0A6
:1039300000830196FD01E80FF91F04E00083019662
:10394000F401E40DF51D0381FD01E80FF91F00836B
:103950000196FD01E80FF91F02E000830196FD01C9
:10396000E80FF91F00E000830196FD01E80FF91F41
:1039700002E000830196E6C0F401E40DF51D048128
:10398000C02E0E94140D0C1540F4BD0142E03A2DEA
:103990002B2D8301C2DAC801D5C0CC20B9F52C2D5E
:1039A0008D01040D151D0B5F1F4F0E94910D20917D
:1039B000290EFD01E40DF51D25832091280EFD0142
:1039C000E40DF51D2683FD01E40DF51D20E327839D
:1039D000FD01E80FF91F20E020830196202F2E5FC4
:1039E000FD01E80FF91F20830196F401E40DF51D98
:1039F0002381FD01E80FF91F20830196FD01E80FE7
:103A0000F91FC0820196800F911F9CC02C2D8D0143
:103A1000040D151D0B5F1F4F0E94910D9801FD01B4
:103A2000E80FF91F00E000830196022F0E5FFD01F1
:103A3000E80FF91F00830196F401E40DF51D0381E1
:103A4000FD01E80FF91F00830196FD01E80FF91F42
:103A5000C0820196820F931F75C0F401E40DF51D1D
:103A60000481C02E0E94140D0C1540F4BD0142E0EB
:103A70003A2D2B2D830151DAC80164C00C2D0E9410
:103A80009D0D9801F401E40DF51D028110E0025036
:103A900010400217130741F0BD0143E03A2D2B2DD2
:103AA00083013BDAC8014EC02C2D8401040D151D85
:103AB0000B5F1F4F0E94AD0D012B69F00E946B0D33
:103AC00003E10E942D17BD0145E03A2D2B2D830106
:103AD00024DAC80137C0BD0147E03A2D2B2D830100
:103AE0001CDAC8012FC00E94110D033081F4AD0112
:103AF0003A2D2B2D8301F30161817281FB013A96EE
:103B0000659174913B97FB010995C8011BC00E9408
:103B1000110D013041F4BD0146E03A2D2B2D8301FA
:103B2000FCD9C8010FC0BD0141E03A2D2B2D830106
:103B3000F4D9C80107C0BD0141E03A2D2B2D830106
:103B4000ECD9C8018C01E0E10C94EC420E94DF4208
:103B5000D80149012A01CB018D01FD01218132816A
:103B6000F9013E96259134913F97F9010995380165
:103B7000F401E60DF71D3197B080F401E60DF71D55
:103B8000A0800E94110D033081F4A2013A2D2B2D4B
:103B90008D01FD0161817281FB013A9665917491FD
:103BA0003B97FB010995C80113C00E94110D01301C
:103BB00041F4B20146E03A2D2B2D8D01AED9C8015A
:103BC00007C0B20141E03A2D2B2D8D01A6D9C801C5
:103BD0008C01ECE00C94F0420E94DC42D8012901F7
:103BE0003A015B018D01FD0121813281F9013E968F
:103BF000259134913F97F90109954801F201E80DAB
:103C0000F91D3197C080F201E80DF91DE080C50172
:103C1000DC2CDD0CDD08FD01058110E0C016D106AD
:103C200029F0CC2019F000E010E070C00E2D102F0C
:103C3000110F110BEAE1F0E0FBBFF9E00C949E429A
:103C4000BC01A30192018D01C3D9C8015BC0BC01B5
:103C5000A30192018D0146DAC80154C0BC01A30141
:103C600092018D01C9DAC8014DC0BC01A3019201C6
:103C70008D015BDBC80146C0BC01A30192018D012F
:103C8000EDDBC8013FC0BC01A30192018D014DDCF9
:103C9000C80138C0BC01A30192018D01ABDDC80190
:103CA00031C0BC01A30192018D0194DCC8012AC07E
:103CB000BC01A30192018D0149DFC80123C0BC01F1
:103CC000A30192018D0100DDC8011CC0BC01A3014C
:103CD00092018D0197DDC80115C0BC01A3019201BD
:103CE0008D018CDDC8010EC0BC01A30192018D01C4
:103CF000CFDDC80107C0B30141E03E2D2C2D8D0161
:103D00000CD9C801FD01848795878C01EFE00C94E4
:103D1000ED42B80101E010E008950E94DF42D801B1
:103D200029013A018D01FD0121813281F9013E967F
:103D3000259134913F97F9010995C801F201E80FE7
:103D4000F91F31979080F201E80FF91F808053012D
:103D5000FD010681091591F4FD010781081571F433
:103D600002E0801641F4A5019201280F391F2E5F51
:103D70003F4F8D01CEDF01E010E02DC08D01FD0130
:103D800021813281F9017096259134917197F90161
:103D9000099598018C01020F131F0E5F1F4FA0168B
:103DA000B10631F487FA16F401E003C000E001C067
:103DB00000E0002371F0F201E80FF91F21812C309F
:103DC0002CF4022F102F110F110B05C00EE010E084
:103DD00002C001E010E0ECE00C94F042980101E038
:103DE00010E00895980102E010E008950E94E54275
:103DF000C801D9010A2F0B2B11F401E001C000E02A
:103E0000002379F00CE9402E04E0502EDC011F96CF
:103E1000FC01A587B6878C01015F1F4F0E943617F2
:103E200006C0FC0143845484FC01A587B68704E6E0
:103E300014E0FC0103871487F20105911491319776
:103E4000FD01018312838C01E6E00C94F6420E948E
:103E5000E742C801D901082F092B79F00A2F0B2B53
:103E600039F020E030E08C01015F1F4F0E944517C0
:103E7000A0FB1EF48C010E940142E4E00C94F84285
:103E80000F501040E4CF0E94DB42229728833983F1
:103E9000D8012A013B018D889E888F89988DED8CF1
:103EA000FE8CCF8CD8A0A9A0BAA0088119810D934F
:103EB0001C931197FD0142825382648275820A89A4
:103EC000FD0100870B89FD0106830C89FD01078335
:103ED000FD0105851685F80186869786FD01058515
:103EE0001685F801808B918B298D3A8DFD01058512
:103EF0001685F801228B338B2B8D3C8DFD010585BA
:103F00001685F801248B358BFD0105851685F80192
:103F1000E68AF78AFD0105851685F801C08ED18EE7
:103F2000FD0105851685F801A28EB38E2BA13CA15B
:103F3000FD0105851685F801248F358F2DA13EA141
:103F4000FD0105851685F801268F378F2FA138A52D
:103F5000FD0105851685F80120A331A3FD014281ED
:103F600053816481758100E412E42FE030E00E9407
:103F7000794240E250E060E070E00E944B4208016C
:103F8000190148EE53E060E070E0800191010E9469
:103F900079420F5F1F4FFD0101871287FD010585E3
:103FA0001685F801428D538D20E030E0FD01058536
:103FB0001685F801028913890E941343FD010585C6
:103FC0001685F801448D558D20E030E0FD01058512
:103FD0001685F801048915890E941343FD010585A2
:103FE0001685F80140A151A1440F551F20E030E093
:103FF000FD0105851685F801008D118D0E94134382
:104000009A938A939A928A92FD0107810A93FD01FD
:104010003681FD012085FD014281538164817581D6
:104020000D911C9111970E94B52E2296E7E20C94F7
:10403000EC42BA93AA93D8010D911C9111970E945A
:10404000EA2EA991B9910895BA93AA93D8010D9136
:104050001C9111970E94FF2EA991B9910895BA93CE
:10406000AA93D8010D911C9111970E94102FA9912C
:10407000B9910895BA93AA93D8010D911C91119703
:104080000E943E2FA991B9910895BA93AA93D8019D
:104090000D911C9111970E94592FA991B9910895E2
:1040A0000E94E5422801D901CA019C018D010E94AC
:1040B0009F0C9801022FFD01E80FF91F0083019664
:1040C0008901012F10E0FD01E80FF91F008301961F
:1040D0008C01E6E00C94F6420F501040E1CF1D0138
:1040E0000801E881F981208331838A01012F10E0E2
:1040F0000283042F03838B01012F10E00483062F1A
:10410000058306E010E0D101229608950F5010407B
:10411000E6CFB801FA012083FA01318302E010E012
:1041200008950F501040F5CF0E94E542D8012901B3
:10413000CA01AC0192010D911C9111970E946D2F43
:10414000E6E00C94F6420F501040EECFBA93AA93DB
:10415000D8010D911C9111970E94A823A991B991A2
:104160000895BA93AA93D8010D911C9111970E94BA
:10417000A323A991B99108950E94E542D80129018C
:10418000CA01AC0192010D911C9111970E94752FEB
:10419000E6E00C94F6420E94E742D801C9010E9471
:1041A000AD23FD0125853685F90122853385021B66
:1041B000130B0817190710F001E001C000E0E4E05C
:1041C0000C94F842BA93AA93D8010E94AD23FD0142
:1041D00025853685F90102871387A991B99108953C
:1041E0000E94E34238012901CA01843000E09007AF
:1041F00010F400E01BC0F201E80FF91F3197B08105
:10420000A0E0F201E80FF91F3297008110E0A02B27
:10421000B12B9C012250304082010E949F0C9801DA
:104220002A173B0711F401E001C000E0E8E00C941C
:10423000F4420E94E742D801FD01058516850E94DF
:10424000900BEEE4F0E0FBBFF9E00C949E428D0190
:10425000F0DE8D01F9DE23E0FD01058516850E9463
:104260008D0B5BC28D01AEDFFD0105851685F80162
:1042700000E0048700E0058724E0FD010585168540
:104280000E948D0B4AC28D016CDF0023F1F140E0EA
:1042900051E0FD0105851685F80104851585401B53
:1042A000510BFD0105851685F80126853785FD0131
:1042B00005851685F80104851585200F311F8D01B0
:1042C0005BDFC801813000E090079CF0FD010585AF
:1042D0001685F80104851585080F191F04871587B1
:1042E0008D0170DF25E0FD01058516850E948D0B8F
:1042F0000CC08F3F0FEF900741F48D019ADE23E051
:10430000FD01058516850E948D0B28E93AE38D0194
:1043100042DF002341F08D018CDE23E0FD010585A5
:1043200016850E948D0BF9C18D011BDF0023C1F1A1
:1043300040E051E0FD0105851685F80104851585ED
:10434000401B510BFD0105851685F8012685378533
:10435000FD0105851685F80104851585200F311F9F
:104360008D010ADFC801813000E090076CF0FD018B
:1043700005851685F80104851585080F191F048722
:1043800015878D011FDF0CC08F3F0FEF900741F4A1
:104390008D014FDE23E0FD01058516850E948D0B02
:1043A000FD01218532858D01F6DE0023F9F0FD0146
:1043B00005851685F80144855585FD010585168519
:1043C000F801268537858D010BDF002339F026E0C3
:1043D000FD01058516850E948D0B9FC18D0129DE8B
:1043E00023E0FD01058516850E948D0B96C1FD0118
:1043F00005851685F80164857585FD010585168599
:10440000F80140895189FD0105851685F801268549
:104410003785FD01058516850E94EC1D012B49F0AD
:104420000E94B22327E0FD01058516850E948D0BB1
:1044300074C10E94B8238D01FCDD23E0FD010585D8
:1044400016850E948D0B69C18D01BCDE8D01F1DDE9
:1044500028E0FD01058516850E948D0B5EC12AE0CE
:1044600030E08D0198DE0023C9F0FD010585168539
:10447000F80144855585FD0105851685F8012089DB
:104480003189FD01058516850E946A178D01F2DDCF
:1044900029E0FD01058516850E948D0B3EC18D0129
:1044A00055DE002351F00E94B8238D01C2DD23E0C8
:1044B000FD01058516850E948D0B2FC18D01CFDD75
:1044C00020E0FD01058516850E948D0B26C18D011A
:1044D00079DE8D01AEDDFD0105851685F80100E070
:1044E000048700E005878D01AFDD2DE0FD01058526
:1044F00016850E948D0B11C18D0133DE0023E1F181
:1045000040E051E0FD0105851685F801048515851B
:10451000401B510BFD0105851685F8012685378561
:10452000FD0105851685F80104851585200F311FCD
:104530008D0122DEC801813000E090079CF08D01E2
:1045400041DEFD0105851685F80104851585080FF6
:10455000191F048715872EE0FD01058516850E9429
:104560008D0B0AC08F3F0FEF900731F423E1FD015F
:10457000058516850E948D0B28EE33E08D010BDE3C
:10458000002331F023E1FD01058516850E948D0B86
:10459000C4C08D01E6DD0023B1F140E051E0FD0132
:1045A00005851685F80104851585401B510BFD0115
:1045B00005851685F80126853785FD010585168553
:1045C000F80104851585200F311F8D01D5DDC80147
:1045D000813000E090076CF08D01F4DDFD01058570
:1045E0001685F80104851585080F191F048715879E
:1045F0000AC08F3F0FEF900731F423E1FD010585DD
:1046000016850E948D0BFD01218532858D01C3DD4C
:104610000023E9F0FD0105851685F80144855585DF
:10462000FD0105851685F801268537858D01D8DDC4
:10463000002339F02FE0FD01058516850E948D0BC2
:104640006CC023E1FD01058516850E948D0B65C0B8
:10465000FD0105851685F80144855585FD01058513
:104660001685F80126853785FD01058516850E948A
:104670008D1E012B39F023E1FD01058516850E9471
:104680008D0B4BC023E1FD01058516850E948D0B26
:1046900044C08D0197DD8D01CCDC0E94B22321E165
:1046A000FD01058516850E948D0B37C02AE030E09C
:1046B0008D0171DD002389F1FD0105851685F80165
:1046C00044855585FD0105851685F80120893189C8
:1046D000FD01058516850E946A178D01CBDC22E15C
:1046E000FD01058516850E948D0B17C08D012EDDFD
:1046F000002399F08D01C9DC0E94B8232CE0FD0154
:10470000058516850E948D0B08C08D01A8DC20E070
:10471000FD01058516850E948D0BE4E00C94F8429E
:104720000F50104086CD980101E010E008950F5021
:1047300010400C949323980102E010E008950F506C
:1047400010400C949B2306561F4FF80100810895DA
:1047500005561F4FF80100810895EDE7F8E000814C
:1047600011810895009162000F7B0093620008950B
:104770000091620000640093620008950E94E74285
:10478000D801822F8D01055F1F4F0E94FB1004EBA3
:1047900014E0FD01018712870AEB14E0FD01048794
:1047A00015878C9320E08D01055F1F4F0E948D0BB4
:1047B0008D01E4E00C94F8420E94E742C801D9015F
:1047C000082F092B61F020E030E08C01055F1F4FBE
:1047D0000E941C11A0FB1EF48C010E940142E4E027
:1047E0000C94F8420B501040E7CF1D01D801F9019D
:1047F0000081FD01008BF90101811281FD01018B16
:10480000128BF90103811481FD01038B148BF901D3
:1048100005811681FD0105831683F9010781108545
:10482000FD01058B168BF90103891489FD01038FA6
:10483000148FF90105851685FD01078B108FF9018D
:1048400040895189F901028910E0000F111F400FC2
:10485000511FFD01418F528FF9010289085F028BC0
:10486000F90163897489F901058910E048E150E094
:104870000E940942600F711FFD01638F748FF9015F
:104880000589085F058BF901068917890F5F1F4F9E
:10489000FD0107831087FD0100E0058FD101089518
:1048A0000E94E542D801FD01038914890E5F1F4F64
:1048B000C80100E0083078F4FD01238D348D10E04C
:1048C000200F311FF901208110E0FC01E00FF11FE2
:1048D00020830395EFCF28E030E08C010E94BF0CCD
:1048E0002801FD0103891489065F1F4FC801042DAB
:1048F000FC01008301968201012F10E0FC0100837E
:10490000FD0103891489F80101E80083FD01008994
:104910000E94F8340AE613E001501040E9F700C0A5
:1049200000004DE050E0FD0123893489FD0101893B
:1049300012890E94C7310E941D35FD01018912892B
:10494000F8010181013849F4FD0101891289F8015A
:1049500004850E3711F401E001C000E0E6E00C949C
:10496000F6420E94E142D801992420E0283020F547
:10497000FD01038D148D30E0020F131FF801008537
:104980000F3FC1F0FD0105891689FD01438D548D4E
:1049900030E0420F531FFA01408550E0040F151F0D
:1049A000F8010081002331F001E010E0422F0E9465
:1049B0001342902A2395DACF882420E0283020F56E
:1049C000FD01038D148D30E0020F131FF8010089E3
:1049D0000F3FC1F0FD0105891689FD01438D548DFE
:1049E00030E0420F531FFA01408950E0040F151FB9
:1049F000F8010081002331F001E010E0422F0E9415
:104A00001342802A2395DACF5524FD010381002328
:104A100029F0FD0100E00383689450F8FD01048152
:104A2000002329F0FD0100E00483689451F8FD01A2
:104A30000181002329F0FD0100E00183689452F810
:104A4000FD010281002329F0FD0100E0028368944A
:104A500053F8FD0103891489F80102E40083FD0184
:104A6000038914890E5F1F4FC801442420E02830B9
:104A7000A8F4FD01018D128D422F50E0440F551F07
:104A8000040F151FF8010181002331F001E010E04F
:104A9000422F0E941342402A2395E9CFFC01408215
:104AA0000196442420E02830A8F4FD01018D128DE8
:104AB000422F50E0440F551F040F151FF8010081CD
:104AC000002331F001E010E0422F0E941342402AFF
:104AD0002395E9CFFC0140820196FC01908201966A
:104AE000FC0180820196FC015082019625E030E0B5
:104AF000FD01038914890E5F1F4F0E94BF0C38010E
:104B0000062DFC01008301968301012F10E0FC01BA
:104B100000830196FC010EE700830196FD010089E8
:104B20000E94F8340AE613E001501040E9F700C093
:104B300000004AE050E0FD0123893489FD0101892C
:104B400012890E94C7310E941D35FD010189128919
:104B5000F8010181045209F447C00E5109F04EC01A
:104B600025E030E0FD01018912890E5F1F4F0E9490
:104B7000CD0C01301040BCF1FD0101891289F80112
:104B800001850E37D9F5FD0100E0058F20E08D018C
:104B90000E943426FD0101891289F8010281402E0C
:104BA00020E02830F0F401E010E0422F0E94134290
:104BB000142D1023112351F0FD010789108D30E0D1
:104BC000020F131FF80101E0008309C0FD010789EE
:104BD000108D30E0020F131FF80100E000832395D1
:104BE000E0CF01E020C00AC0FD01058D043130F4A2
:104BF00020E08D01055F1F4F0E948D0BFD01058D8B
:104C0000043130F4FD01058D0395058F00E00BC0E4
:104C1000FD0105811681F80102E0008321E08D018C
:104C20000E94342600E0EAE00C94F2420E94E8423E
:104C3000C8018C01055F1F4F0E94900B005019F0B6
:104C40000A9559F00DC08C012BDEA02F21E08C01BC
:104C5000055F1F4F0E948D0B03C08C0182DEA02FC9
:104C60000A2FE3E00C94F942AD01F801A781B08569
:104C70002C93DA0108950E94E742D801822F8D011A
:104C8000055F1F4F0E94FB1004ED14E0FD0101873A
:104C900012870AED14E0FD01048715878C938D01BE
:104CA000E4E00C94F8420E94E742C801D901082FC1
:104CB000092B61F020E030E08C01055F1F4F0E945E
:104CC0001C11A0FB1EF48C010E940142E4E00C9434
:104CD000F8420B501040E7CFBD01D801F901008127
:104CE000FD01008BF90101811281FD01018B128B05
:104CF000F90103811481FD01038B148BF9010581F6
:104D00001681FD0105831683F90147815085F9015C
:104D1000018510E0400F511FFD01458B568BF901B5
:104D20000185085E0187F90142855385F9010485F3
:104D300010E0400F511FFD01478B508FF901048592
:104D4000085E0487F90106891789FD01078310872A
:104D5000FD0100E0018FDB0108950E94E542C801DA
:104D6000DC015396ED91FC91549702E40083FC0121
:104D700000890E94F8340AE613E001501040E9F778
:104D800000C0000049E050E0FC0123893489FC01A7
:104D9000018912890E94C7310E941D35FC01458896
:104DA0005688FC01A789B08DFC0101891289F801A0
:104DB0000181045279F10E51A9F527E030E0FC01A0
:104DC000018912890F5F1F4F0E94F10C01301040C2
:104DD0008CF1FC0100E0018F20E08C010E94342660
:104DE00020E02630A8F4FC010189128930E0020F8E
:104DF000131FF801328100E0043040F4132F1370C8
:104E0000369536951C9311960395F6CF2395E9CFE9
:104E100001E02DC000E0083168F414E01C93119605
:104E20000395F9CF00E0083128F414E01C931196A3
:104E30000395F9CFFC01018D043130F4FC01018DA3
:104E40000395018F00E013C000E0083128F414E05E
:104E50001C9311960395F9CFFC0105811681F80189
:104E600001E0008321E08C010E94342600E0E6E0AE
:104E70000C94F642F80123830895BA93AA93D801BB
:104E80008D010E94FB100EED14E0FD0101831283E1
:104E90008D010A5F1F4F0E940F4125E28D010E9484
:104EA0008D0B25E28D010E943A278D01A991B991C0
:104EB0000895BA93AA93D8018D01DFDF02E015E0CF
:104EC000FD010183128325E28D010E948D0B25E2F5
:104ED0008D010E943A278D01A991B9910895BA9345
:104EE000AA93D8018D01C9DF06E215E0FD01018317
:104EF000128325E28D010E948D0B25E28D010E9417
:104F00003A278D01A991B9910895BA93AA93D8012E
:104F10008D01B3DF04E815E0FD010183128328E170
:104F20008D010E948D0B28E18D010E943A278D0191
:104F3000A991B9910895BA93AA93D8018D019DDFE3
:104F400008EA15E0FD010183128325E28D010E942C
:104F50008D0B25E28D010E943A278D01A991B9910F
:104F60000895BA93AA93D8018D0187DF0AE415E06A
:104F7000FD010183128325E28D010E948D0B25E244
:104F80008D010E943A278D01A991B99108950E943F
:104F9000E742D801C9010A2F0B2BB1F00EED14E046
:104FA000FD010183128322E030E08D010A5F1F4F73
:104FB0000E942A4120E030E08D010E941C1180FBFC
:104FC0001EF48D010E940142E4E00C94F842BA9371
:104FD000AA93D8018D010E94900BECE7F0E0FBBF93
:104FE000F9E00C949E428D011196ED91FC9112977F
:104FF0007096259134917197F901099598018D0169
:105000000A5F1F4F0E9438418D011196ED91FC916E
:1050100012973496259134913597F901099529E134
:105020008D010E948D0B6AC28D010A5F1F4F0E9485
:105030005241002301F18D011196ED91FC911297DF
:105040007296259134917397F901099598018D0114
:105050000A5F1F4F0E9438418D011196ED91FC911E
:1050600012973C96259134913D97F90109952AE1D3
:105070008D010E948D0B42C28D010A5F1F4F0E945D
:105080005241002301F18D011196ED91FC9112978F
:105090007096259134917197F901099598018D01C8
:1050A0000A5F1F4F0E9438418D011196ED91FC91CE
:1050B00012973496259134913597F901099529E194
:1050C0008D010E948D0B1AC28D011196ED91FC91FC
:1050D00012977096259134917197F901099598016D
:1050E0008D010A5F1F4F0E9438418D011196ED918D
:1050F000FC9112973696259134913797F9010995CD
:1051000022E08D010E948D0BF9C18D010A5F1F4FB6
:105110000E945241002321F021E08D010E948D0B5D
:10512000EDC18D011196ED91FC9112977496259128
:1051300034917597F901099598018D010A5F1F4F08
:105140000E9438418D011196ED91FC91129738968D
:10515000259134913997F901099528E08D010E9434
:105160008D0BCCC18D010A5F1F4F0E94524100235D
:1051700001F18D011196ED91FC9112977696259192
:1051800034917797F901099598018D010A5F1F4FB6
:105190000E9438418D011196ED91FC9112973C9639
:1051A000259134913D97F901099529E08D010E94DF
:1051B0008D0BA4C18D010A5F1F4F0E945241002335
:1051C00001F18D011196ED91FC9112977496259144
:1051D00034917597F901099598018D010A5F1F4F68
:1051E0000E9438418D011196ED91FC9112973896ED
:1051F000259134913997F901099528E08D010E9494
:105200008D0B7CC18D011196ED91FC9112977896D2
:10521000259134917997F901099598018D010A5FDB
:105220001F4F0E9438418D011196ED91FC9112970C
:105230003A96259134913B97F90109952EE08D011D
:105240000E948D0B5BC18D010A5F1F4F0E9452416E
:10525000002301F18D011196ED91FC9112977A9640
:10526000259134917B97F901099598018D010A5F89
:105270001F4F0E9438418D011196ED91FC911297BC
:105280003C96259134913D97F90109952FE08D01C8
:105290000E948D0B33C18D010A5F1F4F0E94524146
:1052A000002301F18D011196ED91FC9112977896F2
:1052B000259134917997F901099598018D010A5F3B
:1052C0001F4F0E9438418D011196ED91FC9112976C
:1052D0003A96259134913B97F90109952EE08D017D
:1052E0000E948D0B0BC18D011196ED91FC911297CF
:1052F0007C96259134917D97F901099598018D014E
:105300000A5F1F4F0E9438418D011196ED91FC916B
:1053100012973A96259134913B97F901099524E12A
:105320008D010E948D0BEAC08D010A5F1F4F0E9404
:105330005241002301F18D011196ED91FC911297DC
:105340007E96259134917F97F901099598018D01F9
:105350000A5F1F4F0E9438418D011196ED91FC911B
:1053600012973C96259134913D97F901099525E1D5
:105370008D010E948D0BC2C08D010A5F1F4F0E94DC
:105380005241002301F18D011196ED91FC9112978C
:105390007C96259134917D97F901099598018D01AD
:1053A0000A5F1F4F0E9438418D011196ED91FC91CB
:1053B00012973A96259134913B97F901099526E188
:1053C0008D010E948D0B9AC08D010A5F1F4F0E94B4
:1053D0005241002301F18D011196ED91FC9112973C
:1053E000B09625913491B197F901099598018D01F5
:1053F0000A5F1F4F0E9438418D011196ED91FC917B
:1054000012973C96259134913D97F901099527E132
:105410008D010E948D0B72C08D010A5F1F4F0E948B
:105420005241002301F18D011196ED91FC911297EB
:105430007C96259134917D97F901099598018D010C
:105440000A5F1F4F0E9438418D011196ED91FC912A
:1054500012973A96259134913B97F901099524E1E9
:105460008D010E948D0B4AC08D011196ED91FC912A
:105470001297B29625913491B397F9010995980145
:105480008D010A5F1F4F0E9438418D011196ED91E9
:10549000FC9112973896259134913997F901099525
:1054A0002FE18D010E948D0B29C08D010A5F1F4FD6
:1054B0000E945241002311F18D011196ED91FC9152
:1054C00012973C96259134913D97F90109958D01EC
:1054D0000E94CA2D202F8D010E948D0B0FC08D01BF
:1054E0001196ED91FC9112973C96259134913D9740
:1054F000F901099520E08D010E948D0BA991B991C8
:1055000008950E94E742C801D901082F092B69F0CC
:1055100025E28C010E948D0B20E030E08C0137DD0C
:10552000A0FB1EF48C010E940142E4E00C94F842BE
:105530000E94E842C801A22F8C010E94900B202FEC
:105540008C010E943A270A2F005079F00A9591F0B9
:105550000A95A9F00A95C1F00A95D1F00A95C1F013
:105560000250B1F00A95A1F013C025E28C010E940F
:105570008D0B0EC021E08C010E948D0B09C027E02D
:105580008C010E948D0B04C027E08C010E948D0BC2
:10559000E3E00C94F94208959A938A93C80101E0DC
:1055A0000E94C83D8991999108959A938A93C80160
:1055B00002E00E94C83D89919991089508959A93B7
:1055C0008A93C80102E00E94F23D0E94A2348991B0
:1055D000999108950E94E742C801D901082F092B2B
:1055E00069F025E28C010E948D0B20E030E08C01F7
:1055F000CEDCA0FB1EF48C010E940142E4E00C947E
:10560000F8420E94E842C801A22F8C010E94900B30
:10561000202F8C010E943A270A2F005079F00A951A
:1056200091F00A95A9F00A95C1F00A95D1F00A9572
:10563000C1F00250B1F00A95A1F013C025E28C012F
:105640000E948D0B0EC021E08C010E948D0B09C0C1
:1056500025E28C010E948D0B04C02DE08C010E947C
:105660008D0BE3E00C94F94208959A938A93C80154
:1056700001E00E94C83D89919991089508959A93F7
:105680008A93C80103E00E94C83D899199910895C9
:105690009A938A93C80103E00E94F23D0E94A234CB
:1056A0008991999108950E94E742C801D901082F74
:1056B000092B69F025E28C010E948D0B20E030E07F
:1056C0008C0165DCA0FB1EF48C010E940142E4E029
:1056D0000C94F8420E94E842C801A22F8C010E945B
:1056E000900B202F8C010E943A270A2F005079F04E
:1056F0000A9591F00A95A9F00A95C1F00A95F9F07A
:105700000A95E9F00250B9F00A95C9F018C028E1ED
:105710008C010E948D0B13C028E18C010E948D0B1F
:105720000EC027E08C010E948D0B09C02DE08C017A
:105730000E948D0B04C023E18C010E948D0BE3E0DD
:105740000C94F9429A938A93C8010E943D2E899144
:105750009991089508959A938A93C8010E943D2EC5
:105760008991999108959A938A93C8010E943D2E38
:105770008991999108959A938A93C8010E94432E22
:105780000E94A2348991999108950E94E742C8012C
:10579000D901082F092B69F025E28C010E948D0B9D
:1057A00020E030E08C01F3DBA0FB1EF48C010E94B2
:1057B0000142E4E00C94F8420E94E842C801A22FA2
:1057C0008C010E94900B202F8C010E943A270A2FF7
:1057D000005079F00A9591F00A95A9F00A95C1F068
:1057E0000A9521F10A9511F10250B9F00A95D1F00C
:1057F0001DC025E28C010E948D0B18C025E28C0192
:105800000E948D0B13C027E08C010E948D0B0EC0EF
:105810002DE08C010E948D0B09C023E18C010E94B8
:105820008D0B04C02EE18C010E948D0BE3E00C94E3
:10583000F9429A938A93C8010E948C0C899199919C
:1058400008959A938A93C8010E948C0C899199912A
:1058500008959A938A93C8010E947A0C899199912C
:1058600008959A938A93C8010E94830C8991999113
:1058700008959A938A93C8010E948C0C0E94A234C6
:105880008991999108950E94E742C801D901082F92
:10589000092B69F025E28C010E948D0B20E030E09D
:1058A0008C0175DBA0FB1EF48C010E940142E4E038
:1058B0000C94F84208959A938A93C80101E00E94DB
:1058C0003A3E0E947A0C8991999108959A938A930D
:1058D000C80101E00E943A3E0E947A0C8991999198
:1058E00008959A938A93C80102E00E943A3E0E946A
:1058F0007A0C8991999108959A938A93C80103E04B
:105900000E943A3E0E947A0C8991999108959A9347
:105910008A93C8010E948C0C0E94A7340E94A23472
:10592000899199910895BA93AA93D8018D010E9403
:10593000900B0050E9F00A95E1F00A95D9F10A952B
:1059400009F460C0045009F469C00A9509F487C0DD
:105950000A9509F4ACC0045009F4B5C00A9509F4DD
:10596000D3C00A9509F4F8C0065109F401C10FC16A
:105970000EC18D011196ED91FC91129770962591B3
:1059800034917197F901099598018D010A5F1F4FB4
:105990000E9438418D011196ED91FC911297369637
:1059A000259134913797F901099522E08D010E94E4
:1059B0008D0BEDC08D010A5F1F4F0E9452410023E5
:1059C00001F18D011196ED91FC911297729625913E
:1059D00034917397F901099598018D010A5F1F4F62
:1059E0000E9438418D011196ED91FC9112973C96E1
:1059F000259134913D97F901099523E08D010E948D
:105A00008D0BC5C08D010A5F1F4F0E9452410023BC
:105A100021F027E08D010E948D0BB9C08D011196F8
:105A2000ED91FC9112977496259134917597F90137
:105A3000099598018D010A5F1F4F0E9438418D0121
:105A40001196ED91FC9112973896259134913997E2
:105A5000F901099528E08D010E948D0B98C08D01F8
:105A60000A5F1F4F0E945241002301F18D011196E0
:105A7000ED91FC9112977696259134917797F901E3
:105A8000099598018D010A5F1F4F0E9438418D01D1
:105A90001196ED91FC9112973C96259134913D978A
:105AA000F901099529E08D010E948D0B70C08D01CF
:105AB0000A5F1F4F0E945241002321F02DE08D010B
:105AC0000E948D0B64C08D011196ED91FC9112978F
:105AD0007896259134917997F901099598018D016E
