:100000000C94A04218951895189518951895189560
:100010001895189518951895189518951895189578
:10002000189518950C9418331895189518951895D7
:100030001895189518951895189518951895189558
:100040001895189518951895189518951895189548
:1000500018951895189518950C94D63118951895EB
:100060001895189518951895189518951895189528
:1000700018951895189518950C9437310C94F33001
:100080000C941131189518951895189500000000DA
:10009000E405F8054F0C520C550C8F08F805610C5F
:1000A000640C670CA208F8056A0C6D0C700CB5089E
:1000B000F805730C760C790CC808F8057C0C7F0CDD
:1000C000820CDB08F805850C880C8B0CEE08F80513
:1000D0008E0C910C940C0109F805970C9A0C9D0C50
:1000E0001409F805A00CA30CA60C2709F805A90C07
:1000F000AC0CAF0C3A094D09B20CB50CB80C5A0B4C
:100100004D09BB0CBE0CC10C6D0B4D09C40CC70CCA
:10011000CA0C800B4D09CD0CD00CD30C930BA70B44
:10012000D60CD90C00000000000000000000000008
:100130000000000000000E0D1C0D0000C1C081C1B8
:10014000400101C3C003800241C201C6C00680074E
:1001500041C70005C1C581C4400401CCC00C800D5D
:1001600041CD000FC1CF81CE400E000AC1CA81CB64
:10017000400B01C9C009800841C801D8C0188019C6
:1001800041D9001BC1DB81DA401A001EC1DE81DFCC
:10019000401F01DDC01D801C41DC0014C1D481D58D
:1001A000401501D7C017801641D601D2C012801366
:1001B00041D30011C1D181D0401001F0C030803155
:1001C00041F10033C1F381F240320036C1F681F7CC
:1001D000403701F5C035803441F4003CC1FC81FD5D
:1001E000403D01FFC03F803E41FE01FAC03A803BE6
:1001F00041FB0039C1F981F840380028C1E881E9A4
:10020000402901EBC02B802A41EA01EEC02E802F4D
:1002100041EF002DC1ED81EC402C01E4C02480258C
:1002200041E50027C1E781E640260022C1E281E3E3
:10023000402301E1C021802041E001A0C060806135
:1002400041A10063C1A381A240620066C1A681A74B
:10025000406701A5C065806441A4006CC1AC81AD5C
:10026000406D01AFC06F806E41AE01AAC06A806B65
:1002700041AB0069C1A981A840680078C1B881B9C3
:10028000407901BBC07B807A41BA01BEC07E807FCD
:1002900041BF007DC1BD81BC407C01B4C07480758C
:1002A00041B50077C1B781B640760072C1B281B363
:1002B000407301B1C071807041B00050C190819114
:1002C00040510193C053805241920196C0568057CD
:1002D00041970055C19581944054019CC05C805D5C
:1002E000419D005FC19F819E405E005AC19A819BE3
:1002F000405B0199C059805841980188C0488049A5
:100300004189004BC18B818A404A004EC18E818F4A
:10031000404F018DC04D804C418C0044C18481858B
:1003200040450187C047804641860182C0428043E4
:1003300041830041C18181804040000000000000F5
:1003400000000000000000000000000000000000AD
:10035000000000000000000000000000000000009D
:10036000000000000000C611D411D511D411000006
:10037000000000000000000000000000000000007D
:10038000000000000000000000000000000000006D
:10039000000000000000000000007A12D4118E124C
:1003A000D4111A15691500000000000000000000BB
:1003B000000000000000000000000000303C202D84
:1003C000101C000D313D212C111D010C343E242B3D
:1003D000141E040B353F252A151F050A3639262918
:1003E0001619060937382728171807080D17D411CA
:1003F00000000000000000000000000000000000FD
:100400000000000000002D17401700000000000051
:1004100000000000000000000000000000000000DC
:10042000FE17D4111518FB44FB44FB44FB44A71FE3
:10043000AB1F0000000000000000000000000000F2
:100440000000000000000000E01F282142210921D7
:100450004D21D2214C245424F91F4924151825215B
:100460003F214A215C215024582400000000000054
:10047000000000000000000000000000000000007C
:100480005804000000000000000000000000000010
:100490000000000000000000AE24CF269524AB240D
:1004A000D411000000000000000000000000000067
:1004B0000000000000000000252766270C272227E7
:1004C000D4118028A028FB44FB44FB44FB44FB449C
:1004D000FB44862E8A2E8E2E922E962E9A2E9E2E9D
:1004E000A22EA62EAA2E3A2BA028842B852B8E2B4B
:1004F000972B982B512BAE2EB22EB62EBA2EBE2E87
:10050000C22E9E2EA22EA62EAA2EA32BA028ED2B05
:10051000EE2BF72BF82B012CBA2BC62ECA2ECE2E83
:10052000D22ED62EDA2E9E2EA22EA62EAA2EFC2C4F
:100530004C2D142D1F2D2A2D352D402D132DDE2E43
:10054000E22EE62EEA2EEE2EF22E9E2EA22EA62EC3
:10055000AA2E0000000000000000000000000000C3
:1005600000000000000000000C2CA0285B2C632C75
:10057000642C6C2C742C232C862E8A2E8E2E922E7C
:10058000962E9A2E9E2EA22EA62EAA2E7E2CA02825
:10059000D22CDA2CE22CEA2CF22C952C862E8A2EE8
:1005A0008E2E922E962E9A2E9E2EA22EA62EAA2EFB
:1005B000602F5531AE320000000000000000000046
:1005C0000000000000000000000000004E320201A8
:1005D00030000000000000000000000000000000EB
:1005E00000006F0A012F0873060000171B000000AF
:1005F00000000000000000000000000000BEF0004D
:100600000102030405060708090A0B0C0D0E0F1062
:100610001112131415161718191A1B1C1D1E1F2052
:100620002122232425262728292A2B2C2D2E2FFF73
:10063000FFFFFFFFFFFFFFFFFFFFFFFFFFFFFFFFCA
:10064000FFFFFFFFFFFFFFFFFFFFFFFFFFFFFFFFBA
:10065000FFFFFFFFFFFFFFFFFFFFFFFFFFFFFFFFAA
:10066000FFFFFFFFFFFFFFFFFFFFFFFFFFFFFFFF9A
:10067000FFFFFFFFFFFFFFFFFFFFFFFFFFFFFFF990
:100680005A030303030303030303030303030303E3
:100690000303030303030303030202020202020231
:1006A000020202020202020202020202020202022A
:1006B000020202020202020202020202020202021A
:1006C0000239413E3E3E3E3C3C3C3CFFFFFFFFFFCB
:1006D000FFFFFFFFFFFFFFFFFFFFFF4B6F01020464
:1006E0000810204080000000000000000000000012
:1006F00000000000000000000000000000000000FA
:1007000000000000000000000000000000000000E9
:1007100000000000000000000000000000000000D9
:1007200000000000000000000000000000000000C9
:1007300000000000000000000000000000000000B9
:1007400000000000000000000000000000000000A9
:100750000000000000000000000000000099E80117
:100760000102100020000000000000000000000056
:100770000000000000000000000000000000000079
:100780000000000000000000000000000000000069
:100790000000000000000000000000000000000059
:1007A0000000000000000000000000000000000049
:1007B00023E20101050000FF00000000000000002E
:1007C0000000000000000000000000000000000029
:1007D0000000000000000000000000000000000019
:1007E0000000000000000000000000000000000009
:1007F00000000000000000000000000000000000F9
:100800000000007B9C0101050100FF0000000000CA
:1008100000000000000000000000000000000000D8
:1008200000000000000000000000000000000000C8
:1008300000000000000000000000000000000000B8
:1008400000000000000000000000000000000000A8
:10085000000000000000FB6C000000000000000031
:10086000400B0000000000000000400B00140000DE
:100870000107160002101F00038031000440B3007E
:100880000518F50006800F01075191010851E40198
:10089000095137020A088A020B089402000000007E
:1008A0000000000000000000000000000000000048
:1008B000000001010101010101010100000000002F
:1008C0000001010000000000000101000000000024
:1008D000000101000000000000010101010101010F
:1008E0000101E34100008C080A008C08EA06CE07EB
:1008F0008C07F407140839088C085F087808010190
:10090000341FD91E01E01E01E71E01EE1E01F51E77
:1009100001FC1E01031F07111F010A1F01181F01FF
:100920001F1F06261F2A3B1F033B1F013B1F012DD4
:100930001FFB00004624140046244624E021EB213E
:10094000FC214D22B022DD22E82208231723462471
:10095000202335238223E12302240F242F243E2445
:100960000001372B372B011D29013E29054A29019A
:100970006B2901932904BB2901DC2901042A042CD9
:100980002A014D2A01752A019D2A01C52A01AC2898
:1009900001CD2801F52804ED2A010E2B06282BFB9A
:1009A0000000224116000340224122403E406A409E
:1009B00075402241224122412241224180408C4007
:1009C0008E409B40BE40C040E240E440F3400541C1
:1009D0001C41760EB633BA93AA93D8018D010E94BA
:1009E000AB1100E910E0FD01018312838D01A99193
:1009F000B9910895BA93AA93D8018D01ECDF0AE961
:100A000010E0FD010183128320E08D010E94460C5D
:100A10008D01A991B9910895BA93AA93D8018D0136
:100A2000DADF04EA10E0FD010183128321E08D0189
:100A30000E94460C8D01A991B9910895BA93AA9389
:100A4000D8018D01C8DF0EEA10E0FD010183128399
:100A500021E08D010E94460C8D01A991B991089564
:100A6000BA93AA93D8018D01B6DF08EB10E0FD011F
:100A70000183128321E08D010E94460C8D01A99112
:100A8000B9910895BA93AA93D8018D01A4DF02EC1D
:100A900010E0FD010183128321E08D010E94460CCC
:100AA0008D01A991B9910895BA93AA93D8018D01A6
:100AB00092DF0CEC10E0FD010183128321E08D0137
:100AC0000E94460C8D01A991B9910895BA93AA93F9
:100AD000D8018D0180DF06ED10E0FD010183128356
:100AE00021E08D010E94460C8D01A991B9910895D4
:100AF000BA93AA93D8018D016EDF00EE10E0FD01DC
:100B00000183128321E08D010E94460C8D01A99181
:100B1000B9910895BA93AA93D8018D015CDF0AEECA
:100B200010E0FD010183128321E08D010E94460C3B
:100B30008D01A991B9910895BA93AA93D8018D0115
:100B40004ADF04EF10E0FD010183128321E08D01F3
:100B50000E94460C8D01A991B9910895BA93AA9368
:100B6000D8018D01E9DF0EEF10E0FD010183128352
:100B700021E08D010E94460C8D01A991B991089543
:100B8000BA93AA93D8018D01D7DF08E011E0FD01E7
:100B90000183128321E08D010E94460C8D01A991F1
:100BA000B9910895BA93AA93D8018D01C5DF02E1E6
:100BB00011E0FD010183128321E08D010E94460CAA
:100BC0008D01A991B99108950E94A043C801D9014E
:100BD000082F092B51F020E030E08C010E94C61153
:100BE000A0FB1EF48C010E94BA42E4E00C94B143D5
:100BF0000E94A043D80183E08D010E94580C00336D
:100C000008F0D5C08D010E94580C0E94453D077028
:100C1000043011F483E0D5C08D01FD0121813281C2
:100C2000F9013896259134913997F90109950023F6
:100C300011F001E001C000E0002309F460C08D0163
:100C40000E94580C0E94453D005049F00A9539F029
:100C50000A9509F44CC00A9509F449C0B2C08D0147
:100C60000E94580C0E94453D03700023E1F48D0161
:100C70000E94580C10E00E94353D8D01FD0121813C
:100C80003281F9013696259134913797F90109950A
:100C9000002311F001E001C000E0002311F081E029
:100CA00090C080E08EC08D010E94580C0E94453D8E
:100CB00003700130D9F48D010E94580C11E00E949C
:100CC000353D8D01FD0121813281F9013696259155
:100CD00034913797F9010995002311F001E001C023
:100CE00000E0002311F080E06CC081E06AC082E087
:100CF0008D010E94580C10E00E94353D62C08D01AC
:100D00000E94580C0E94453D0370023041F08D0155
:100D10000E94580C0E94453D03700130E1F48D01A2
:100D20000E94580C10E00E94353D8D01FD0121818B
:100D30003281F9013696259134913797F901099559
:100D4000002311F001E001C000E0002311F081E078
:100D500038C080E036C08D010E94580C0E94453D8D
:100D60000370033041F08D010E94580C0E94453DF4
:100D70000370002331F58D010E94580C11E00E9490
:100D8000353D8D01FD0121813281F9013696259194
:100D900034913797F9010995002311F001E001C062
:100DA00000E0002311F080E00CC081E00AC08D015A
:100DB0000E94580C0E94453D00FB16F481E001C0E2
:100DC00080E08D010E94490CE4EEF0E0FBBFF8E00A
:100DD0000C9457438D01FD0121813281F901389630
:100DE000259134913997F9010995002311F001E01B
:100DF00001C000E0002309F44BC0823029F428E050
:100E00008D010E94460C88C1813009F085C18D0199
:100E10000E945E0C21E00E94273C8D01FD01218192
:100E20003281F9013496259134913597F90109956C
:100E3000902F8D010E945B0C192F0E94A73D8D0100
:100E4000FD0121813281F901349625913491359744
:100E5000F9010995902F8D010E945B0C192F0E94BA
:100E6000B43D8D010E945B0C0E94EE0C21E00E94BB
:100E70004C0CEAE2FEE0038103FF05C023E08D0194
:100E80000E94460C49C122E08D010E94460C44C1DB
:100E9000813009F040C08D010E945E0C21E00E946B
:100EA000273C8D01FD0121813281F9013496259184
:100EB00034913597F9010995902F8D010E945B0CB3
:100EC000192F0E94A73D8D01FD0121813281F90179
:100ED0003496259134913597F9010995902F8D011C
:100EE0000E945B0C192F0E94B43D8D010E945B0C87
:100EF0000E94EE0C21E00E944C0CEAE2FEE003812D
:100F000003FF05C023E08D010E94460C05C122E0CD
:100F10008D010E94460C00C1813039F48D010E9480
:100F20005E0C20E00E94273C1BC0882399F48D01B1
:100F30000E945B0C10E00E94A73D8D010E945B0C9B
:100F40000E94EE0C20E00E944C0C21E08D010E94DA
:100F5000460CE2C0823021F428E08D010E94460C4C
:100F60000E94E50C002359F08D010E945B0C11E0FA
:100F70000E94A73D25E08D010E94460CCDC00E9435
:100F8000E20C002351F08D010E945B0C11E00E94E5
:100F9000A73D24E08D010E94460CBEC0813031F493
:100FA0008D010E945E0C20E00E94273C0E94E50C0F
:100FB000002359F08D010E945B0C11E00E94A73DB7
:100FC00025E08D010E94460CA7C00E94E20C002380
:100FD00051F08D010E945B0C11E00E94A73D24E0BE
:100FE0008D010E94460C98C00E94E50C002329F058
:100FF00025E08D010E94460C8FC0882329F426E04D
:101000008D010E94460C88C0813039F48D010E9408
:101010005E0C20E00E94273C7FC0823021F428E053
:101020008D010E94460C78C0882399F48D010E949E
:101030005B0C10E00E94A73D8D010E945B0C0E949A
:10104000EE0C20E00E944C0C21E08D010E94460C29
:1010500063C0813039F48D010E945E0C20E00E9453
:10106000273C5AC0823021F428E08D010E94460CB2
:1010700053C0813039F48D010E945E0C20E00E9443
:10108000273C06C0823021F428E08D010E94460CE6
:101090000E94E50C002391F08D010E945B0C10E092
:1010A0000E94A73D8D010E945B0C0E94EE0C20E087
:1010B0000E944C0C21E08D010E94460C2DC08D0138
:1010C0000E945B0C11E00E94A73D8D010E945B0C09
:1010D00016E00E94B43D8D010E945B0C0E94EE0C54
:1010E00021E00E944C0C29E08D010E94460C14C0A6
:1010F000823091F08D010E945B0C10E00E94A73DB0
:101100008D010E945B0C0E94EE0C20E00E944C0CB2
:1011100021E08D010E94460CE4E00C94B1430E9452
:10112000A043C801D901082F092B49F020E030E085
:101130008C014ADDA0FB1EF48C010E94BA42E4E05F
:101140000C94B1430E94A043C801D901082F092B78
:1011500049F020E030E08C0137DDA0FB1EF48C016B
:101160000E94BA42E4E00C94B1430E94A043C8013B
:10117000D901082F092B49F020E030E08C0124DD53
:10118000A0FB1EF48C010E94BA42E4E00C94B1432F
:101190000E94A043C801D901082F092B49F020E083
:1011A00030E08C0111DDA0FB1EF48C010E94BA42DC
:1011B000E4E00C94B1430E94A043C801D901082F78
:1011C000092B49F020E030E08C01FEDCA0FB1EF48E
:1011D0008C010E94BA42E4E00C94B1430E94A04307
:1011E000C801D901082F092B49F020E030E08C011B
:1011F000EBDCA0FB1EF48C010E94BA42E4E00C94EC
:10120000B1430E94A043C801D901082F092B49F01E
:1012100020E030E08C01D8DCA0FB1EF48C010E94A1
:10122000BA42E4E00C94B1430E94A043C801D90142
:10123000082F092B49F020E030E08C01C5DCA0FB31
:101240001EF48C010E94BA42E4E00C94B1430E9467
:10125000A043C801D901082F092B49F020E030E054
:101260008C01B2DCA0FB1EF48C010E94BA42E4E0C7
:101270000C94B1430E94A043C801D901082F092B47
:1012800049F020E030E08C019FDCA0FB1EF48C01D3
:101290000E94BA42E4E00C94B1430E94A043D801FA
:1012A00083E08D010E94580C003308F0D5C08D01F9
:1012B0000E94580C0E94453D0770043011F483E0F1
:1012C000D5C08D01FD0121813281F901389625912A
:1012D00034913997F9010995002311F001E001C01B
:1012E00000E0002309F460C08D010E94580C0E94A8
:1012F000453D005049F00A9539F00A9509F44CC073
:101300000A9509F449C0B2C08D010E94580C0E9490
:10131000453D03700023E1F48D010E94580C10E05C
:101320000E94353D8D01FD0121813281F901369602
:10133000259134913797F9010995002311F001E0C7
:1013400001C000E0002311F081E090C080E08EC079
:101350008D010E94580C0E94453D03700130D9F464
:101360008D010E94580C11E00E94353D8D01FD0158
:1013700021813281F9013696259134913797F9010F
:101380000995002311F001E001C000E0002311F0F5
:1013900080E06CC081E06AC082E08D010E94580C40
:1013A00010E00E94353D62C08D010E94580C0E94E1
:1013B000453D0370023041F08D010E94580C0E949F
:1013C000453D03700130E1F48D010E94580C10E09E
:1013D0000E94353D8D01FD0121813281F901369652
:1013E000259134913797F9010995002311F001E017
:1013F00001C000E0002311F081E038C080E036C079
:101400008D010E94580C0E94453D0370033041F04D
:101410008D010E94580C0E94453D0370002331F558
:101420008D010E94580C11E00E94353D8D01FD0197
:1014300021813281F9013696259134913797F9014E
:101440000995002311F001E001C000E0002311F034
:1014500080E00CC081E00AC08D010E94580C0E94FF
:10146000453D00FB16F481E001C080E08D010E9443
:10147000490C005061F00A9559F0065009F495C0E6
:101480000A9509F4E7C00A9509F4FDC010C10FC11F
:101490008D01FD0121813281F90138962591349128
:1014A0003997F9010995002311F001E001C000E02E
:1014B000002309F441C0823029F428E08D010E9404
:1014C000460CF5C0813009F0F2C08D010E945E0C1F
:1014D00021E00E94273C8D01FD0121813281F9012B
:1014E0003496259134913597F9010995902F8D0106
:1014F0000E945B0C192F0E94A73D8D01FD012181E7
:101500003281F9013496259134913597F901099585
:10151000902F8D010E945B0C192F0E94B43D8D010C
:101520000E945B0C0E94EE0C21E00E944C0C27E014
:101530008D010E94460CBBC08130B1F58D010E9427
:101540005E0C21E00E94273C8D01FD01218132814A
:10155000F9013496259134913597F9010995902F29
:101560008D010E945B0C192F0E94A73D8D01FD018A
:1015700021813281F9013496259134913597F90111
:101580000995902F8D010E945B0C192F0E94B43D8C
:101590008D010E945B0C0E94EE0C21E00E944C0C1D
:1015A00027E08D010E94460C82C08D01FD01218142
:1015B0003281F9013896259134913997F9010995CD
:1015C000002311F001E001C000E0002329F1823086
:1015D00029F428E08D010E94460C69C0882399F403
:1015E0008D010E945B0C10E00E94A73D8D010E94BE
:1015F0005B0C0E94EE0C20E00E944C0C21E08D015F
:101600000E94460C54C0813021F58D010E945E0C71
:1016100020E00E94273C4BC0882399F48D010E9452
:101620005B0C10E00E94A73D8D010E945B0C0E94A4
:10163000EE0C20E00E944C0C21E08D010E94460C33
:1016400036C08130A1F58D010E945E0C20E00E9421
:10165000273C2DC08D010E945B0C11E00E94A73D2C
:101660008D010E945B0C16E00E94B43D8D010E942A
:101670005B0C0E94EE0C21E00E944C0C29E08D01D5
:101680000E94460C14C0823091F08D010E945B0CC8
:1016900010E00E94A73D8D010E945B0C0E94EE0CA1
:1016A00020E00E944C0C21E08D010E94460CE4E0F9
:1016B0000C94B1430E94A043C801D901082F092B03
:1016C00049F020E030E08C01D5DDA0FB1EF48C0158
:1016D0000E94BA42E4E00C94B1430E94A043C801C6
:1016E000D901082F092B49F020E030E08C01C2DD40
:1016F000A0FB1EF48C010E94BA42E4E00C94B143BA
:101700000E94A043C801D901082F092B49F020E00D
:1017100030E08C01AFDDA0FB1EF48C010E94BA42C8
:10172000E4E00C94B1430E94A043C801D901082F02
:10173000092B51F020E030E08C010E94C611A0FB83
:101740001EF48C010E94BA42E4E00C94B1430E9462
:101750009F43D8018D010E94490C005049F00A9521
:1017600041F00A9509F463C00A9509F46BC08BC077
:101770008AC0FD018181928106968D010E94DC0C58
:101780000E94533D402E8D01FC01259134913197EB
:10179000F90109954026442011F001E001C000E064
:1017A000002309F470C00E94EB0C073021F1FD0109
:1017B0008181928104960E94EB0C402E8D01FC01E8
:1017C000259134913197F9010995401610F001E007
:1017D00001C000E0002379F48D011196ED91FC9198
:1017E00012973496259134913597F90109950E9405
:1017F000E80C0E94593D8D011196ED91FC911297D4
:101800003496259134913597F9010995802F8D01F2
:101810000E94DF0C182F0E94B43D8D010E94DF0C46
:101820000E942A3F22E08D010E94460C2CC00E949B
:10183000E20C002341F10E94783D23E08D010E94DB
:10184000460C21C0FD018181928106968D010E9486
:10185000DC0C0E94533D402E8D01FC0125913491FA
:101860003197F90109954026442011F401E001C0A7
:1018700000E0002341F00E94813D0E94603521E09C
:101880008D010E94460CE5E00C94B043F8012083E2
:101890000895F80100810895F801208308959801C2
:1018A00000E00895980100E00895980100E008958F
:1018B000F80105810895F801038108950C5F1F4F19
:1018C0000895980100E00895980100E008959801B6
:1018D00000E00895980102E00895980100E008955D
:1018E000980100E00895980102E00895980101E050
:1018F0000895980100E00895980102E00895980184
:1019000000E00895980101E00895980102E008952B
:10191000980101E00895980101E00895980103E01D
:101920000895980100E00895980100E00895980155
:1019300003E00895980101E00895980100E00895FA
:10194000980103E00895980100E00895980101E0EE
:101950000895980103E00895980101E00895980121
:1019600001E00895980101E00895980100E00895CC
:10197000980100E00895980101E00895980101E0C0
:101980000895980100E00895980101E008959801F4
:1019900000E00895980101E00895980101E008959C
:1019A000980101E00895980101E00895980107E089
:1019B0000895980100E00895F80104810895F80160
:1019C000038108950091B00D08950091B10D08951F
:1019D00000931F0E089500911F0E089510E048E037
:1019E00050E00E94C24298010BE31FE0020F131F58
:1019F000089526E331E0F80126833783F80120E0DB
:101A00002083F80120E02183F80120E02283F801FF
:101A100020E02383F80120E0248308959A938A9399
:101A2000C801082F092B29F020FB1EF48C010E940D
:101A3000BA428991999108959A938A93C801082F7F
:101A4000092B29F020FB1EF48C010E94BA428991D7
:101A5000999108950E94500D0E944C0D0E94560DC0
:101A60000E94520D089508EF12E00E94E2320E9497
:101A70004E0D0E94540D08950AE81CE00E94E232C7
:101A80000E944E0D0E94540D08950E94500D0E9418
:101A9000560D0E940D330895139A08951B9A0895C8
:101AA0001B980895149A08951C9A08951C980895F7
:101AB0007B2F2A2ED8010FEF1FEF40E050E0421796
:101AC000530798F46C91502F65271196012F10E061
:101AD000E62FF0E0EE0FFF1FE65CFE4F059014903E
:101AE0003197002511254395E9CFA22DB72F0895F1
:101AF000F80100E010E0408150E0040F151F31961E
:101B000021503040422F432BB1F708950E94A0434B
:101B1000F801C90120E030E0008110E0200F311F02
:101B200031960197082F092BB9F7DF01FD01319696
:101B3000022F1C91011749F48901012F10E0108137
:101B4000011719F401E010E002C000E010E0E4E049
:101B50000C94B143F80140E00081400F31962150D0
:101B60003040022F032BC1F70081401719F401E028
:101B700010E0089500E010E00895A895089510E0A1
:101B800048E050E00E94C242F801E056F84F06815A
:101B9000178108950091310808950CE0089500938D
:101BA000B20D08950E94A0430E948A0EB0E0A1E009
:101BB0000A2F015039F00A9539F10A95A1F10A95D9
:101BC00081F133C00E94CD0DB017E0F42B2F0AE055
:101BD0001BE00E947A11C801082F092B89F04B2FB6
:101BE00043959C010AE01BE00E94D10F002311F0F5
:101BF000A2E01BC00E94CA0D0430B9F4A3E015C0D6
:101C0000A3E013C0A4E011C00E94CA0D033019F470
:101C1000B395A1E00AC00E94CA0D043031F4A3E0DC
:101C200004C001E00BC000E009C00E9477100AE088
:101C300010E00E949F320E94BD0DBACFE4E00C94E8
:101C4000B1430E94F40F08950E94191008950E9454
:101C50004510089500E00E94CF0D0E941511002349
:101C600099F0EFDF002351F0F2DF002311F001E0E3
:101C7000089504E00E94CF0D00E0089504E00E9462
:101C8000CF0D90DF00E0089504E00E94CF0D8ADFC1
:101C900000E008950E94A143C801A22F2A2F239596
:101CA0008C010E94C00EE3E00C94B2438A93802F13
:101CB0000E94CD0D801730F4082F03950E94BF0DB0
:101CC00010E002C000E010E0899108950E94A14355
:101CD000C801A22F0A2FEADF98014A2F43958C01F1
:101CE0000E94D10F10E0E3E00C94B24308E218E048
:101CF0000E94C84100E417E00E945E4208959A9352
:101D00008A93C80122E030E08C010E94E34189916E
:101D1000999108950AE01BE0E6E2F8E00083118360
:101D200000E00E949C114CE650E020E030E000EA28
:101D300017E00E94CC43E0EAF7E000E110E0048302
:101D40001583E0EAF7E00CE610E0068317830EE661
:101D500010E00E94D713E0EAF7E0008711870EE653
:101D600010E00E94D713005F1F4FE0EAF7E0028304
:101D70001383E0EAF7E000E0008300E001830895C8
:101D80000E949643D1503801822E0DE0801618F043
:101D900000E010E077C0082D10E048E050E00E941D
:101DA000C242F801E056F84F06811781012B09F471
:101DB00051C0082D10E048E050E00E94C242F801F6
:101DC000E056F84F00851185012B09F443C0082D1A
:101DD00010E048E050E00E94C242F801E056F84F9F
:101DE000048115816801082D10E048E050E00E9450
:101DF000C242F801E056F84F068117812801082DEC
:101E000010E048E050E00E94C242F801E056F84F6E
:101E1000008511855801A50196018E010E9470313F
:101E2000A5019E018E010E948814FE01E40DF51D9E
:101E3000808190E0FE01E40DF51D118100E0802B12
:101E4000912B92018E010E94580DD8018A179B0791
:101E5000A1F403C000E010E015C0082D10E0000F51
:101E6000111FF801E45FF74F80839183A2019E0167
:101E700083010E94BC43820105C004E00E94CF0D93
:101E800000E010E0DF5FEEE00C94A7430E949A436D
:101E9000D1502801C901642E0DE0601618F000E051
:101EA00010E07BC0AC0192018E010E94BC439C01FA
:101EB00082010E94580DD8010A2FFE01E80FF91F78
:101EC00000838D01012F10E0FE01E80FF91F01834F
:101ED000062D10E048E050E00E94C242F801E056B2
:101EE000F84FA287B387AC014E5F5F4F9E01E6E2D9
:101EF000F8E0008111810E94E1134801062D10E0F5
:101F000048E050E00E94C242F801E056F84F0085D8
:101F10001185012B69F5E0EAF7E022813381062D76
:101F200010E048E050E00E94C242F801E056F84F4D
:101F300024833583E0EAF7E002811381080D191D3F
:101F400002831383062D10E048E050E00E94C24255
:101F5000F801E056F84F86839783062D10E048E09D
:101F600050E00E94C242F801E056F84F8086918608
:101F7000A401E6E2F8E020813181BA01062D10E0EB
:101F800048E050E00E94C242F801E056F84F048158
:101F90001581AB010E9483318401DF5FEAE00C947C
:101FA000AB430E949F43D801C901442E0E949F1158
:101FB000002399F4442D9C018D0168DF012B41F031
:101FC00001E00E94A21101E00E949C1101E009C001
:101FD00004E00E94A21100E004C002E00E94A211ED
:101FE00000E0E5E00C94B043BD01E1E0F0E0EC304E
:101FF00000E0F007D8F48F01000F111FD801A45F93
:10200000B74F2D913C9111978F0148E050E00E940D
:10201000C242D801A655B84F0D911C9111972017B7
:10202000310711F000E003C03196E1CF01E0DB01A0
:102030000895BA93AA936897E0E0F0E0EC3000E0EE
:10204000F007B0F48F0148E050E00E94C242D8018E
:10205000AE54B84F2D913C911197DE018F01000FC6
:10206000111FA00FB11F2D933C9311973196E6CF0E
:1020700028E130E08E010E94580DE0EAF7E000838D
:1020800011836896A991B9910895BA93AA93689714
:10209000E0E0F0E0EC3000E0F007B0F48F0148E061
:1020A00050E00E94C242D801AE54B84F2D913C91ED
:1020B0001197DE018F01000F111FA00FB11F2D938B
:1020C0003C9311973196E6CF28E130E08E010E94D3
:1020D000580DE0EAF7E0208131812017310711F433
:1020E00001E001C000E06896A991B99108950E94AD
:1020F0009F11005079F00A9571F00A95B1F00A9598
:1021000089F10A9509F443C00A9509F459C00A9562
:1021100009F473C008950E94991128EC30E00E94E0
:10212000F14102E00E949C1108950E948711002352
:1021300061F00E94991120E137E20E94F1410E9472
:10214000931103E00E949C1108950E9499110E942E
:102150000B42002331F004E00E94A21100E00E9433
:102160009C1108950E949011002321F004E00E9428
:102170009C1108950E9499110E940B42002331F096
:1021800004E00E94A21100E00E949C11089540E02A
:102190002CE630E000EA17E079DE012B51F00E94D6
:1021A000991128EC30E00E94F14105E00E949C1159
:1021B000089504E00E94A21100E00E949C1108957D
:1021C0000E948711002361F00E94991120E137E2FB
:1021D0000E94F1410E94931106E00E949C11089513
:1021E0000E9499110E940B420023F1F004E00E942A
:1021F000A21100E00E949C1108950E9490110023FA
:1022000039F003E00E94A21100E00E949C110895A1
:102210000E9499110E940B42002331F004E00E94B9
:10222000A21100E00E949C1108950E94A04372DD5B
:1022300020E000EA17E0A4DD012B11F400E057C014
:10224000B0E0A1E000E00E94A5110A2F015059F072
:102250000A9509F10A9581F10A95D1F10A95E9F1FA
:102260000A95C9F13CC0BD30A0F42B2FE6E2F8E09E
:102270000081118185DDC801082F092B41F00E94E2
:10228000A811002311F0A2E02AC0A4E028C0A5E014
:1022900026C0A6E024C04B2F9C01E6E2F8E00081B6
:1022A00011817FDE002311F0A3E019C00E94CA0D46
:1022B0000430A9F4A5E013C00E94CA0D033011F444
:1022C000A4E00DC00E94CA0D043049F4A5E007C087
:1022D000B395A1E004C001E00AC000E008C007DF38
:1022E0000AE010E00E949F320E94BD0DAECFE4E0F4
:1022F0000C94B1430E94A143C801A22F2A2F8C0144
:102300000E941532E3E00C94B243E39A0895E19BF6
:1023100002C000E0089501E0089500937C0808954C
:1023200000917C08089500E00E948D110E948511A3
:10233000089508E218E00895009330080895009188
:1023400030080895009331080895009332080895E5
:1023500000913208089526E633E0F80121833283A4
:10236000F80120E020830895AD01D8018D01F3DF4D
:102370000AE613E0FD0101831283FD0100E00383FF
:10238000FD0100E004838D01DA0108959A938A9398
:10239000C801082F092B29F020FB1EF48C010E9494
:1023A000BA4289919991089508959A938A93C801A0
:1023B000082F092B29F020FB1EF48C010E94BA4241
:1023C00089919991089500916100046000936100E2
:1023D00008950091620004600093620008950091E6
:1023E00062000B7F0093620008950091610000611C
:1023F0000093610008950091620000610093620003
:102400000895009162000F7E00936200089500918C
:1024100061000260009361000895009162000D7FE9
:1024200000936200089500916200026000936200D0
:1024300008950000089500C000C0000008950E94A3
:10244000EF110E9401120E9413120E94E3110E94D8
:10245000F5110E94071208950E949F43C801422E61
:10246000A0E0A415A0F4B0E0FC01EA0FFB1F00817E
:10247000002319F00E94FB1102C00E9401120E9469
:10248000E9110E9419120E94EF11A395EACF0E9450
:1024900013120E941B120E940D12E5E00C94B0432F
:1024A000BA93AA93D8018D010E94B4110AE913E0EE
:1024B000FD01018312838D01A991B99108950E94B4
:1024C000A043D801C9018D01EBDF0EE913E0FD0146
:1024D000018312838D010B5F1F4F0E94C841FD01D4
:1024E0008387948720E08D010E94460C8D01E4E0F3
:1024F0000C94B1430E94A043C801D901082F092BB5
:1025000051F020E030E08C010E94D511A0FB1EF4B8
:102510008C010E94BA42E4E00C94B1430E94A043B3
:10252000D801C9010A2F0B2BA9F00EE913E0FD0118
:102530000183128322E030E08D010B5F1F4F0E9468
:10254000E34120E030E08D01D5DF80FB1EF48D01FA
:102550000E94BA42E4E00C94B1430E94A043D80127
:10256000922F832F8D010E94490C005029F00A956B
:1025700061F00A9521F148C0FD0100E0058721E0E6
:102580008D010E94460C00E040C0992321F0FD011E
:10259000058501600587882321F0FD01058502601E
:1025A0000587FD01238534858D010B5F1F4F0E9438
:1025B000F14122E08D010E94460C00E026C08D0111
:1025C0000B5F1F4F0E940B42002331F020E08D0172
:1025D0000E94460C00E019C0992321F0FD010585F9
:1025E00001600587882321F0FD01058502600587CC
:1025F000FD010585033031F420E08D010E94460C79
:1026000001E003C000E001C000E0E4E00C94B1434D
:10261000202F30E0E0E0F0E0E83000E0F0074CF49C
:10262000022F10E04E2F0E94D642017030273196C3
:10263000F3CF332311F401E0089500E008959801E9
:1026400050E0E0E0F0E0EC3000E0F00744F44E2F22
:1026500089010E94D142017050273196F4CF552351
:1026600011F401E0089500E00895502F60E070E05B
:1026700000E1509F00E000220FE01022B00108E0CE
:10268000509F00E7002200E0102260297129052FE9
:10269000017014E0019F60297129052F007FB8DFC8
:1026A00010E8019F60297129052F0E78B1DF18E02D
:1026B000019F60297129052F0D76AADF12E0019F85
:1026C00060297129052F0B75A3DF10E0602B712B9A
:1026D0008B010895080160E0800100701F70AFDF7A
:1026E000102D17FB10E010F9011711F061E001C087
:1026F00060E0660F660F660F8001007718709FDF3D
:10270000102D13FB10E010F9011711F001E001C0CA
:1027100000E0000F000F602B8001047616708FDF41
:10272000102D11FB10E010F9011711F001E001C0AC
:1027300000E0000F602B80010475157080DF102D04
:102740001170011711F001E001C000E0602B062FAD
:102750000895B801222311F48B01089520933208C3
:102760002A9501E010E0422F0E94CC426027712799
:102770008B010895B80120E044E08B010E94D14212
:10278000007F202F062F0695069506950E70202BAC
:10279000062F02FB00E000F9202B022F08951801FC
:1027A000810198DF202F8101D4DFE4DF089500FB51
:1027B00016F40F5F1F4F980136952795020F131FD0
:1027C00008950E949543380159016A012224332457
:1027D00044245524EE240C2D0D2941F0C0FA36F482
:1027E0000FEFC00E0FEFD01EEE24E394882499243F
:1027F0008C149D0408F04BC0F501E40DF51D00811B
:1028000034DF20E030E0C801D90101E0400E00E0F3
:10281000501EF501E40DF51D008127DFA80160E0E1
:1028200070E0ECE08A019B014E2F0E942843802B30
:10283000912BA22BB32B01E0400E00E0501E8C0127
:10284000F301E20DF31D008301E0200E00E0301ED5
:10285000892F9A2FAB2FB0E08C01F301E20DF31D0D
:10286000008301E0200E00E0301E892F9A2FAB2F4D
:10287000B0E08C01F301E20DF31D008301E0200EB6
:1028800000E0301E02E0800E00E0901EB1CFEE208E
:10289000D9F1F501E40DF51D0081E7DE20E030E01F
:1028A000C801D90100E0E1DEA80160E070E0ECE0E1
:1028B0008A019B014E2F0E942843802B912BA22B33
:1028C000B32B8C01F301E20DF31D008301E0200E18
:1028D00000E0301E892F9A2FAB2FB0E08C01F3015E
:1028E000E20DF31D008301E0200E00E0301E892F71
:1028F0009A2FAB2FB0E08C01F301E20DF31D0083A2
:1029000001E0200E00E0301E8101EFE00C94A643B0
:102910000E949443580149017A0166247724442493
:1029200055240E2D0F2951F043E050E087010E94FD
:10293000D942452B19F000E010E057C0CC24DD242B
:10294000CE14DF0408F050C0F401E40DF51D008141
:1029500010E020E030E0C801D90101E0400E00E0C5
:10296000501EF401E40DF51D008110E020E030E080
:10297000322F212F102F00E0802B912BA22BB32B75
:1029800001E0400E00E0501EF401E40DF51D208131
:1029900030E000E010E0802B912BA22BB32B01E064
:1029A000400E00E0501E8C010F7F1F70F8DEF50115
:1029B000E60DF71D008301E0600E00E0701E4CE0A4
:1029C0008C019D010E942F430F7F1F70E8DEF501EF
:1029D000E60DF71D008301E0600E00E0701E03E0CD
:1029E000C00E00E0D01EACCF8301E0E10C94A54303
:1029F0000E94A043D801C9018D010E94B41102EACE
:102A000013E0FD01018312838D01075F1F4F0E94B8
:102A1000C841FD0185839683FD0100E00087FD012B
:102A200000E0078320E08D010E94460C8D01E4E068
:102A30000C94B1430E94A043D801C9010A2F0B2B6B
:102A4000B1F002EA13E0FD010183128322E030E0DD
:102A50008D01075F1F4F0E94E34120E030E08D01B0
:102A60000E94D51180FB1EF48D010E94BA42E4E061
:102A70000C94B143BA93AA93D8011596ED91FC91A9
:102A800016970995002311F001E001C000E0A9911B
:102A9000B99108950E94A043D801822F8D01FD01B4
:102AA00021813281F9013296259134913397F901D0
:102AB0000995FD010781081741F4FD0100E0078336
:102AC000FD0100E0008701E001C000E0E4E00C94BB
:102AD000B143BA93AA93D8018D010E94490C0050CA
:102AE00089F00A95C1F00A9541F10A9509F44EC0A2
:102AF0000A9509F474C00A9509F49AC0025009F4C1
:102B0000BCC0C3C0FD010085FD01078321E08D012C
:102B10000E94460CBAC08D01ADDF002369F08D0123
:102B20000E94481698018D01075F1F4F0E94F141D6
:102B300022E08D010E94460CA8C08D019BDF00237E
:102B4000E1F08D01075F1F4F0E940B420023E9F067
:102B50008D010E944C1698018D01075F1F4F0E9446
:102B6000F141FD0102E00087FD010085FD010783C1
:102B700023E08D010E94460C88C0FD010085FD0107
:102B8000078320E08D010E94460C7FC08D0172DF1B
:102B90000023E1F08D01075F1F4F0E940B420023CD
:102BA000E9F08D010E94501698018D01075F1F4FBB
:102BB0000E94F141FD0103E00087FD010085FD0158
:102BC000078324E08D010E94460C5FC0FD01008553
:102BD000FD01078320E08D010E94460C56C08D0147
:102BE00049DF0023E1F08D01075F1F4F0E940B4278
:102BF0000023E9F08D010E94541698018D01075FB2
:102C00001F4F0E94F141FD0104E00087FD01008596
:102C1000FD01078327E08D010E94460C36C0FD01AF
:102C20000085FD01078320E08D010E94460C2DC028
:102C30008D0120DF0023E1F08D01075F1F4F0E940F
:102C40000B42002311F18D010E94581698018D014D
:102C5000075F1F4F0E94F141FD0105E00087FD0164
:102C60000085FD01078327E08D010E94460C0DC001
:102C700020E08D010E94460C08C08D01FBDE002380
:102C800021F420E08D010E94460CA991B99108958C
:102C9000980104E610E0089598010CED15E0089500
:102CA000980108EB1BE00895980108E813E10895E6
:102CB000980102E310E00895F80100810895009161
:102CC00061000160009361000895009162000E7F31
:102CD000009362000895009161000062009361001A
:102CE0000895009162000F7D009362000895169A86
:102CF00008951E980895179A08951F9808959A9315
:102D00008A93C8010E9465160E9471160E94791666
:102D10000E947D160E945F160E946B160E94771615
:102D20000E947B160E941F128991999108950E941A
:102D3000A143C801A0E0A033F0F50A2F10E048E05D
:102D400050E00E94C24298018C01020F131F0E94A2
:102D50005C16002361F0EA2FF0E0E454FC4F04918C
:102D600010E0F801ED5CF74F01E000830BC0EA2FA3
:102D7000F0E0E454FC4F049110E0F801ED5CF74FF3
:102D800000E000830A2F10E048E050E00E94C242B9
:102D900098018C01020F131F0E945C16202F30E057
:102DA0000A2F10E0000F111FF801EE57F74F208394
:102DB0003183A395C0CF20E403E318E00E942C12D6
:102DC000E3E00C94B243BA93AA93D8018D010E9418
:102DD000B4110CEE13E0FD01018312838D010B5F32
:102DE0001F4F0E94C8418D01A991B9910895BA93CE
:102DF000AA93D8018D01E7DF06E014E0FD0101830D
:102E0000128320E08D010E94DD1721E08D010E94D8
:102E1000460C8D01A991B99108950E94A043D80153
:102E2000C9010A2F0B2BB1F00CEE13E0FD01018359
:102E3000128322E030E08D010B5F1F4F0E94E341BF
:102E400020E030E08D010E94D51180FB1EF48D0141
:102E50000E94BA42E4E00C94B1430E94A043C8012E
:102E6000D901082F092B49F020E030E08C01D5DF93
:102E7000A0FB1EF48C010E94BA42E4E00C94B14322
:102E80000E94A043C8018C010E94490C005051F0DF
:102E90000A9549F00A9539F10A95F9F10A9509F46C
:102EA0005EC088C087C00E94F8370023B9F00E9436
:102EB0000838002371F00E940038D8018C010E946C
:102EC000E3179D010E94F14123E08C010E94460C12
:102ED00071C022E08C010E94460C6CC020E08C0185
:102EE0000E94460C67C08C010E94E0170130A1F4DB
:102EF00020E08C010E94DD1701E00E9411380E9441
:102F00000038D8018C010E94E3179D010E94F14115
:102F100023E08C010E94460C4DC08C010E94E017FA
:102F2000013071F420E08C010E94DD170E9400380E
:102F3000D8018C010E94E3179D010E94F1413AC023
:102F40008C010E94E3170E940B42002399F105E0D7
:102F50000E94CF0D24E08C010E94460C2BC08C01F6
:102F60000E94E017015019F00A95B1F023C020E04B
:102F70008C010E94DD1702E10E94E6170E940038D2
:102F8000D8018C010E94E3179D010E94F14123E0CA
:102F90008C010E94460C0EC020E08C010E94DD17BF
:102FA00000E00E94113802E10E94E61722E08C0145
:102FB0000E94460CE4E00C94B143F8012483089588
:102FC000F801048108950B5F1F4F089500938A0C48
:102FD000089500E00E94E6170E94FB3FFDCFBA93E0
:102FE000AA93D8018D010E94B41100E214E0FD0102
:102FF000018312838D01A991B99108950E94A04384
:10300000C801D901082F092B51F020E030E08C01D4
:103010000E94D511A0FB1EF48C010E94BA42E4E08C
:103020000C94B143F801258308959A938A93C801BB
:103030008C010E94490C002311F401E001C000E062
:103040008991999108950E949E432801C901DA014E
:10305000AD019C018201F20161817281FB01369612
:10306000659174913797FB010995D801AD019C01D9
:103070008201F20161817281FB013C96659174913C
:103080003D97FB010995E6E00C94AF430E949B43FA
:10309000D801722E632E842ECB01AC01362D306800
:1030A000272D8D01FD0161817281FB013A966591A9
:1030B00074913B97FB0109952801FC01E40DF51D76
:1030C000808201E0400E00E0501E8201E9E00C9495
:1030D000AC430E949A4328010A012A843B848C85D0
:1030E0009D8550E06624A0E0B0E0A015B105F0F4A5
:1030F000490194012F5F3F4FFB01E80DF91D00814D
:10310000002331F001E010E0462D0E94CC42502B0C
:1031100007E0601641F4F101E80FF91F50830196B2
:1031200050E0662401C063941196DFCF662029F039
:10313000F101E80FF91F508301968C01EEE00C9429
:10314000AB430E949443280159014A01CB018201FB
:10315000F20121813281F9013E96259134913F9708
:10316000F90109953801F501E60DF71D3197F08059
:10317000F501E60DF71DE080F501E60DF71DD180A4
:10318000CC24F501E60DF71D028110E0C02AD12AFA
:10319000F501E60DF71DB381A0E0F501E60DF71D81
:1031A000048110E0A02BB12B0A2F0B2B21F0A13DA5
:1031B00007E0B00740F0B40143E03E2D2F2D82011F
:1031C00065DFC80144C0F201028D138D96012A0FFC
:1031D0003B1F0217130740F4B40142E03E2D2F2D90
:1031E000820154DFC80133C0A4013E2D2F2D82017E
:1031F000F20161817281FB013A96659174913B976E
:10320000FB010995C8010A2F0770002359F043E01C
:103210008D010E94D1420395F401E80FF91F00834C
:10322000019609C043E08D010E94D142F401E80FEC
:10323000F91F008301969A938A939A928A92F201D7
:1032400062897389AD019601820143DFC8018C0157
:10325000E0E10C94A5430E949443280159014A01DE
:10326000CB018201F20121813281F9013E96259143
:1032700034913F97F90109953801F501E60DF71DE5
:103280003197F080F501E60DF71DE080F501E60DC0
:10329000F71DD180CC24F501E60DF71D028110E069
:1032A000C02AD12AF501E60DF71DB381A0E0F50192
:1032B000E60DF71D048110E0A02BB12B0A2F0B2B7C
:1032C00021F0A13D07E0B00740F0B40143E03E2DFE
:1032D0002F2D8201DBDEC80144C0F201048D158D63
:1032E00096012A0F3B1F0217130740F4B40142E076
:1032F0003E2D2F2D8201CADEC80133C0A4013E2D10
:103300002F2D8201F20161817281FB013A96659154
:1033100074913B97FB010995C8010A2F07700023A0
:1033200059F043E08D010E94D1420395F401E80F6A
:10333000F91F0083019609C043E08D010E94D1422C
:10334000F401E80FF91F008301969A938A939A92E9
:103350008A92F20164897589AD0196018201B9DE14
:10336000C8018C01E0E10C94A5430E94944328011C
:1033700069014A01CB018201F20121813281F90107
:103380003E96259134913F97F90109955801F60130
:10339000EA0DFB1D3197F080F601EA0DFB1DE08080
:1033A000F601EA0DFB1DB181A0E0F601EA0DFB1D5F
:1033B000028110E0A02BB12BF601EA0DFB1D7380FA
:1033C0006624F601EA0DFB1D048110E0602A712AD3
:1033D000062D072929F00EE7601600E0700640F080
:1033E000B40143E03E2D2F2D820150DEC80152C0B2
:1033F000F201068D178D9D01260D371D021713074B
:1034000040F4B40142E03E2D2F2D82013FDEC80181
:1034100041C0A4013E2D2F2D8201F20161817281F4
:10342000FB013A96659174913B97FB010995C801A0
:10343000062D000FF401E80FF91F0083019600E04C
:1034400010E00615170530F5F201468957899D01F0
:10345000220F331F420F531FFA0120813181232F86
:1034600030E0F401E80FF91F20830196F20146894C
:1034700057899D01220F331F420F531FFA012081EC
:103480003181F401E80FF91F2083019611960F5F37
:103490001F4FD7CF8C01E0E10C94A5430E949443C9
:1034A000280169014A01CB018201F20121813281A7
:1034B000F9013E96259134913F97F90109955801FC
:1034C000F601EA0DFB1D3197F080F601EA0DFB1DB8
:1034D000E080F601EA0DFB1DB181A0E0F601EA0DE6
:1034E000FB1D028110E0A02BB12BF601EA0DFB1DA4
:1034F00073806624F601EA0DFB1D048110E0602A4A
:10350000712A062D072929F00EE7601600E07006E3
:1035100040F0B40143E03E2D2F2D8201B7DDC801FC
:1035200052C0F20100A111A19D01260D371D021705
:10353000130740F4B40142E03E2D2F2D8201A6DD99
:10354000C80141C0A4013E2D2F2D8201F2016181ED
:103550007281FB013A96659174913B97FB01099545
:10356000C801062D000FF401E80FF91F0083019632
:1035700000E010E00615170530F5F201408D518D81
:103580009D01220F331F420F531FFA012081318109
:10359000232F30E0F401E80FF91F20830196F20198
:1035A000408D518D9D01220F331F420F531FFA0191
:1035B00020813181F401E80FF91F208301961196D3
:1035C0000F5F1F4FD7CF8C01E0E10C94A5430E9401
:1035D0009443580129016A01CB018501F50121813C
:1035E0003281F9013E96259134913F97F901099571
:1035F0003801F201E60DF71D3197F080F201E60D7A
:10360000F71DE080F201E60DF71D91808824F2019C
:10361000E60DF71D028110E0802A912AF501028D46
:10362000138D8016910640F0B60142E03E2D2F2DFD
:1036300085012CDDC8012EC0F201E60DF71DB38116
:10364000A0E0F201E60DF71D048110E0A02BB12BE4
:10365000A0300FEFB00751F4940101E00E94EA3767
:10366000AC01920186010E94BC4314C00A2F0B2BAF
:1036700051F4940100E00E94EA37AC019201860106
:103680000E94BC4307C0B60143E03E2D2F2D8501AB
:10369000FDDCC8018C01E0E10C94A5430E94964337
:1036A0002801C9015A014B018201F20121813281B5
:1036B000F9013E96259134913F97F9010995D8017A
:1036C000FC01EA0FFB1F3197D080FC01EA0FFB1FC2
:1036D000C080FC01EA0FFB1F71806624FC01EA0F29
:1036E000FB1F028110E0602A712AF201068D178DFE
:1036F0006016710640F0B50142E03C2D2D2D82018F
:10370000C5DC48011CC0FC01EA0FFB1F538140E0EF
:10371000FC01EA0FFB1F048110E0402B512BF2014A
:10372000268937898301000F111F200F311FF901EE
:1037300040835183A4019C0185010E94BC43840104
:10374000EEE00C94A7430E949443280139016A01DA
:10375000CB018201F20121813281F9013E9625914E
:1037600034913F97F90109954801F301E80DF91DDE
:103770003197F080F301E80DF91DE080F301E80DC9
:10378000F91DB180AA24F301E80DF91D028110E0B2
:10379000A02AB12AF301E80DF91DB381A0E0F301DD
:1037A000E80DF91D048110E0A02BB12B0A2F0B2B83
:1037B00021F0A13B07E0B00740F0B60143E03E2D09
:1037C0002F2D820163DCC80134C0F201028D138DFC
:1037D00095012A0F3B1F0217130740F4B60142E080
:1037E0003E2D2F2D820152DCC80123C0A5019D0171
:1037F0008301080D191D0A5F1F4F0E94B137A601F2
:103800003E2D2F2D8201F20161817281FB013A96DA
:10381000659174913B97FB010995C80144E050E024
:103820009301280F391F8601080F191F0E94BC43FE
:1038300004968C01E0E10C94A5430E949443480156
:1038400029016A013B018401F40121813281F901DE
:103850003E96259134913F97F9010995C801F201EF
:10386000E80FF91F3197F080F201E80FF91FE080AF
:10387000F201E80FF91FB181A0E0F201E80FF91F92
:10388000028110E0A02BB12BF201E80FF91FB380E9
:10389000AA24F201E80FF91F048110E0A02AB12A3E
:1038A0000A2D0B2929F00CE7A01600E0B00640F025
:1038B000B60143E03E2D2F2D8401E8DB38014FC0D7
:1038C000F401068D178D9D012A0D3B1D021713076C
:1038D00040F4B60142E03E2D2F2D8401D7DB3801A4
:1038E0003EC020E030E02A153B05E0F4F201E80F8D
:1038F000F91F568140E0F201E80FF91F078110E03F
:10390000402B512BF401668977898D01000F111F1F
:10391000600F711FFB0140835183119602962F5F48
:103920003F4FE1CFA6013E2D2F2D8401F40161818F
:103930007281FB013A96659174913B97FB01099561
:10394000380144E050E09201260D371D8601060D36
:10395000171D0E94BC4304E0600E00E0701E83014E
:10396000E0E10C94A54308010FEF1FEF0895080153
:1039700000E010E008950E94984328014901DA010F
:10398000CB018201F20121813281F9013E9625911C
:1039900034913F97F90109953801F401E60DF71DBF
:1039A0003197B080F401E60DF71DA080AD013A2DEE
:1039B0002B2D8201F20161817281FB013A966591A2
:1039C00074913B97FB010995C801FD01E80FF91FB0
:1039D00003E000830196FD01E80FF91F00E2008378
:1039E0000196FD01E80FF91F07E000830196FD0134
:1039F000E80FF91F02E3008301968C01ECE00C94C0
:103A0000A9430E94944338014901DA01CB018301A3
:103A1000F30121813281F9013E96259134913F973E
:103A2000F90109952801F401E40DF51D3197B080E5
:103A3000F401E40DF51DA080F401E40DF51DE28014
:103A4000FF248C0106501040E016F10641F0BD0144
:103A500042E03A2D2B2D830119DBC8012CC1AD01A9
:103A60003A2D2B2D8301F30161817281FB013A967E
:103A7000659174913B97FB010995C801F401E40D30
:103A8000F51D0381005049F00A9579F10A9509F472
:103A90009DC00A9509F4E0C007C1FD01E80FF91FB8
:103AA00000E000830196FD01E80FF91F04E00083A8
:103AB0000196F401E40DF51D0381FD01E80FF91FE6
:103AC00000830196FD01E80FF91F02E000830196D3
:103AD000FD01E80FF91F00E000830196FD01E80FEA
:103AE000F91F02E000830196E6C0F401E40DF51D24
:103AF0000481C02E0E94CD0D0C1540F4BD0142E0A2
:103B00003A2D2B2D8301C2DAC801D5C0CC20B9F5DE
:103B10002C2D8D01040D151D0B5F1F4F0E944A0EA9
:103B20002091290EFD01E40DF51D25832091280E1D
:103B3000FD01E40DF51D2683FD01E40DF51D20E3D7
:103B40002783FD01E80FF91F20E020830196202F35
:103B50002E5FFD01E80FF91F20830196F401E40DAB
:103B6000F51D2381FD01E80FF91F20830196FD015A
:103B7000E80FF91FC0820196800F911F9CC02C2D69
:103B80008D01040D151D0B5F1F4F0E944A0E9801F9
:103B9000FD01E80FF91F00E000830196022F0E5F80
:103BA000FD01E80FF91F00830196F401E40DF51DF6
:103BB0000381FD01E80FF91F00830196FD01E80F65
:103BC000F91FC0820196820F931F75C0F401E40DA6
:103BD000F51D0481C02E0E94CD0D0C1540F4BD01D1
:103BE00042E03A2D2B2D830151DAC80164C00C2D1F
:103BF0000E94560E9801F401E40DF51D028110E0BB
:103C0000025010400217130741F0BD0143E03A2D66
:103C10002B2D83013BDAC8014EC02C2D8401040DED
:103C2000151D0B5F1F4F0E94660E012B69F00E944D
:103C3000240E03E10E94E617BD0145E03A2D2B2D2D
:103C4000830124DAC80137C0BD0147E03A2D2B2D8E
:103C500083011CDAC8012FC00E94CA0D033081F411
:103C6000AD013A2D2B2D8301F30161817281FB019E
:103C70003A96659174913B97FB010995C8011BC069
:103C80000E94CA0D013041F4BD0146E03A2D2B2DB2
:103C90008301FCD9C8010FC0BD0141E03A2D2B2D95
:103CA0008301F4D9C80107C0BD0141E03A2D2B2D95
:103CB0008301ECD9C8018C01E0E10C94A5430E947A
:103CC0009843D80149012A01CB018D01FD012181D1
:103CD0003281F9013E96259134913F97F90109957A
:103CE0003801F401E60DF71D3197B080F401E60DBF
:103CF000F71DA0800E94CA0D033081F4A2013A2D65
:103D00002B2D8D01FD0161817281FB013A96659138
:103D100074913B97FB010995C80113C00E94CA0D1D
:103D2000013041F4B20146E03A2D2B2D8D01AED980
:103D3000C80107C0B20141E03A2D2B2D8D01A6D953
:103D4000C8018C01ECE00C94A9430E949543D80172
:103D500029013A015B018D01FD0121813281F901C7
:103D60003E96259134913F97F90109954801F2015A
:103D7000E80DF91D3197C080F201E80DF91DE080D2
:103D8000C501DC2CDD0CDD08FD01058110E0C0164D
:103D9000D10629F0CC2019F000E010E070C00E2D03
:103DA000102F110F110BEEEFF0E0FBBFF8E00C94B9
:103DB0005743BC01A30192018D01C3D9C8015BC067
:103DC000BC01A30192018D0146DAC80154C0BC01B7
:103DD000A30192018D01C9DAC8014DC0BC01A30144
:103DE00092018D015BDBC80146C0BC01A3019201B9
:103DF0008D01EDDBC8013FC0BC01A30192018D0123
:103E00004DDCC80138C0BC01A30192018D01ABDDBE
:103E1000C80131C0BC01A30192018D0194DCC8012D
:103E20002AC0BC01A30192018D0149DFC80123C052
:103E3000BC01A30192018D0100DDC8011CC0BC01C1
:103E4000A30192018D0197DDC80115C0BC01A3013A
:103E500092018D018CDDC8010EC0BC01A30192014D
:103E60008D01CFDDC80107C0B30141E03E2D2C2DEF
:103E70008D010CD9C801FD01848795878C01EFE085
:103E80000C94A643B80101E010E008950E94984305
:103E9000D80129013A018D01FD0121813281F90109
:103EA0003E96259134913F97F9010995C801F20199
:103EB000E80FF91F31979080F201E80FF91F808019
:103EC0005301FD010681091591F4FD0107810815D3
:103ED00071F402E0801641F4A5019201280F391F08
:103EE0002E5F3F4F8D01CEDF01E010E02DC08D0130
:103EF000FD0121813281F9017096259134917197EC
:103F0000F901099598018C01020F131F0E5F1F4FD5
:103F1000A016B10631F487FA16F401E003C000E000
:103F200001C000E0002371F0F201E80FF91F2181C8
:103F30002C302CF4022F102F110F110B05C00EE0A6
:103F400010E002C001E010E0ECE00C94A9439801FD
:103F500001E010E00895980102E010E008950E9449
:103F60009E43C801D9010A2F0B2B11F401E001C0B7
:103F700000E0002379F000E8402E04E0502EDC0140
:103F80001F96FC01A587B6878C01015F1F4F0E9419
:103F9000EF1706C0FC0143845484FC01A587B68753
:103FA00008E414E0FC0103871487F20105911491E1
:103FB0003197FD01018312838C01E6E00C94AF433D
:103FC0000E94A043C801D901082F092B79F00A2FBC
:103FD0000B2B39F020E030E08C01015F1F4F0E9475
:103FE000FE17A0FB1EF48C010E94BA42E4E00C9480
:103FF000B1430F501040E4CF0E949443229728838E
:104000003983D8012A013B018D889E888F89988D3C
:10401000ED8CFE8CCF8CD8A0A9A0BAA00881198104
:104020000D931C931197FD01428253826482758225
:104030000A89FD0100870B89FD0106830C89FD01BA
:104040000783FD0105851685F80186869786FD01A3
:1040500005851685F801808B918B298D3A8DFD01A0
:1040600005851685F801228B338B2B8D3C8DFD0148
:1040700005851685F801248B358BFD010585168590
:10408000F801E68AF78AFD0105851685F801C08EDC
:10409000D18EFD0105851685F801A28EB38E2BA168
:1040A0003CA1FD0105851685F801248F358F2DA1D2
:1040B0003EA1FD0105851685F801268F378F2FA1BA
:1040C00038A5FD0105851685F80120A331A3FD0162
:1040D000428153816481758100E412E42FE030E075
:1040E0000E94324340E250E060E070E00E940443EE
:1040F0000801190148EE53E060E070E08001910191
:104100000E9432430F5F1F4FFD0101871287FD019F
:1041100005851685F801428D538D20E030E0FD01C4
:1041200005851685F801028913890E94CC43FD019B
:1041300005851685F801448D558D20E030E0FD01A0
:1041400005851685F801048915890E94CC43FD0177
:1041500005851685F80140A151A1440F551F20E0A7
:1041600030E0FD0105851685F801008D118D0E9456
:10417000CC439A938A939A928A92FD0107810A937B
:10418000FD013681FD012085FD014281538164815D
:1041900075810D911C9111970E946E2F2296E7E276
:1041A0000C94A543BA93AA93D8010D911C91119731
:1041B0000E94A32FA991B9910895BA93AA93D80107
:1041C0000D911C9111970E94B82FA991B991089552
:1041D000BA93AA93D8010D911C9111970E94C92FEF
:1041E000A991B9910895BA93AA93D8010D911C9100
:1041F00011970E94F72FA991B9910895BA93AA93A4
:10420000D8010D911C9111970E941230A991B9917A
:1042100008950E949E432801D901CA019C018D0185
:104220000E94580D9801022FFD01E80FF91F00832D
:1042300001968901012F10E0FD01E80FF91F0083AD
:1042400001968C01E6E00C94AF430F501040E1CF93
:104250001D010801E881F981208331838A01012F42
:1042600010E00283042F03838B01012F10E00483ED
:10427000062F058306E010E0D101229608950F5025
:104280001040E6CFB801FA012083FA01318302E041
:1042900010E008950F501040F5CF0E949E43D801C2
:1042A0002901CA01AC0192010D911C9111970E9444
:1042B0002630E6E00C94AF430F501040EECFBA9397
:1042C000AA93D8010D911C9111970E946124A99184
:1042D000B9910895BA93AA93D8010D911C911197A1
:1042E0000E945C24A991B99108950E949E43D8012F
:1042F0002901CA01AC0192010D911C9111970E94F4
:104300002E30E6E00C94AF430E94A043D801C901CF
:104310000E946624FD0125853685F90122853385B5
:10432000021B130B0817190710F001E001C000E091
:10433000E4E00C94B143BA93AA93D8010E94662496
:10434000FD0125853685F90102871387A991B99169
:1043500008950E949C4338012901CA01843000E07D
:10436000900710F400E01BC0F201E80FF91F31972D
:10437000B081A0E0F201E80FF91F3297008110E050
:10438000A02BB12B9C012250304082010E94580D7D
:1043900098012A173B0711F401E001C000E0E8E0B2
:1043A0000C94AD430E94A043D801FD0105851685FC
:1043B0000E94490CE2E3F0E0FBBFF9E00C945743A4
:1043C0008D01F0DE8D01F9DE23E0FD010585168506
:1043D0000E94460C5BC28D01AEDFFD01058516858E
:1043E000F80100E0048700E0058724E0FD01058571
:1043F00016850E94460C4AC28D016CDF0023F1F144
:1044000040E051E0FD0105851685F801048515851C
:10441000401B510BFD0105851685F8012685378562
:10442000FD0105851685F80104851585200F311FCE
:104430008D015BDFC801813000E090079CF0FD0139
:1044400005851685F80104851585080F191F048751
:1044500015878D0170DF25E0FD01058516850E9419
:10446000460C0CC08F3F0FEF900741F48D019ADE90
:1044700023E0FD01058516850E94460C28E93AE3F4
:104480008D0142DF002341F08D018CDE23E0FD0130
:10449000058516850E94460CF9C18D011BDF00239E
:1044A000C1F140E051E0FD0105851685F801048564
:1044B0001585401B510BFD0105851685F8012685E4
:1044C0003785FD0105851685F80104851585200FC2
:1044D000311F8D010ADFC801813000E090076CF0C8
:1044E000FD0105851685F80104851585080F191F3E
:1044F000048715878D011FDF0CC08F3F0FEF9007DA
:1045000041F48D014FDE23E0FD01058516850E94F3
:10451000460CFD01218532858D01F6DE0023F9F080
:10452000FD0105851685F80144855585FD01058544
:104530001685F801268537858D010BDF002339F0BC
:1045400026E0FD01058516850E94460C9FC18D0160
:1045500029DE23E0FD01058516850E94460C96C1E3
:10456000FD0105851685F80164857585FD010585C4
:104570001685F80140895189FD0105851685F801E8
:1045800026853785FD01058516850E94A51E012B10
:1045900049F00E946B2427E0FD01058516850E94E5
:1045A000460C74C10E9471248D01FCDD23E0FD01E5
:1045B000058516850E94460C69C18D01BCDE8D0102
:1045C000F1DD28E0FD01058516850E94460C5EC1DF
:1045D0002AE030E08D0198DE0023C9F0FD01058559
:1045E0001685F80144855585FD0105851685F80178
:1045F00020893189FD01058516850E9423188D01CA
:10460000F2DD29E0FD01058516850E94460C3EC1BC
:104610008D0155DE002351F00E9471248D01C2DD11
:1046200023E0FD01058516850E94460C2FC18D01F2
:10463000CFDD20E0FD01058516850E94460C26C1D0
:104640008D0179DE8D01AEDDFD0105851685F80150
:1046500000E0048700E005878D01AFDD2DE0FD015E
:10466000058516850E94460C11C18D0133DE00239D
:10467000E1F140E051E0FD0105851685F801048572
:104680001585401B510BFD0105851685F801268512
:104690003785FD0105851685F80104851585200FF0
:1046A000311F8D0122DEC801813000E090079CF0AF
:1046B0008D0141DEFD0105851685F801048515850E
:1046C000080F191F048715872EE0FD010585168543
:1046D0000E94460C0AC08F3F0FEF900731F423E190
:1046E000FD01058516850E94460C28EE33E08D01FC
:1046F0000BDE002331F023E1FD01058516850E94C4
:10470000460CC4C08D01E6DD0023B1F140E051E06C
:10471000FD0105851685F80104851585401B510BA3
:10472000FD0105851685F80126853785FD0105857E
:104730001685F80104851585200F311F8D01D5DD03
:10474000C801813000E090076CF08D01F4DDFD01BF
:1047500005851685F80104851585080F191F04873E
:1047600015870AC08F3F0FEF900731F423E1FD0159
:10477000058516850E94460CFD01218532858D0137
:10478000C3DD0023E9F0FD0105851685F8014485A8
:104790005585FD0105851685F801268537858D012E
:1047A000D8DD002339F02FE0FD01058516850E9434
:1047B000460C6CC023E1FD01058516850E94460C60
:1047C00065C0FD0105851685F80144855585FD0107
:1047D00005851685F80126853785FD010585168531
:1047E0000E94461F012B39F023E1FD010585168546
:1047F0000E94460C4BC023E1FD01058516850E94F1
:10480000460C44C08D0197DD8D01CCDC0E946B24E9
:1048100021E1FD01058516850E94460C37C02AE07E
:1048200030E08D0171DD002389F1FD0105851685DC
:10483000F80144855585FD0105851685F801208917
:104840003189FD01058516850E9423188D01CBDC79
:1048500022E1FD01058516850E94460C17C08D01D9
:104860002EDD002399F08D01C9DC0E9471242CE01B
:10487000FD01058516850E94460C08C08D01A8DC47
:1048800020E0FD01058516850E94460CE4E00C94AD
:10489000B1430F50104086CD980101E010E008951B
:1048A0000F5010400C944C24980102E010E0089541
:1048B0000F5010400C94542406561F4FF8010081ED
:1048C000089505561F4FF80100810895EDE7F8E0BF
:1048D000008111810895009162000F7B00936200B6
:1048E00008950091620000640093620008950E94A0
:1048F000A043D801822F8D01055F1F4F0E94B41184
:1049000008E914E0FD01018712870EE914E0FD01BA
:10491000048715878C9320E08D01055F1F4F0E944F
:10492000460C8D01E4E00C94B1430E94A043C80101
:10493000D901082F092B61F020E030E08C01055FE0
:104940001F4F0E94D511A0FB1EF48C010E94BA4299
:10495000E4E00C94B1430B501040E7CF1D01D801A7
:10496000F9010081FD01008BF90101811281FD0136
:10497000018B128BF90103811481FD01038B148BD0
:10498000F90105811681FD0105831683F90107816F
:104990001085FD01058B168BF90103891489FD0132
:1049A000038F148FF90105851685FD01078B108F84
:1049B000F90140895189F901028910E0000F111FA6
:1049C000400F511FFD01418F528FF9010289085F8D
:1049D000028BF90163897489F901058910E048E1C6
:1049E00050E00E94C242600F711FFD01638F748FFF
:1049F000F9010589085F058BF901068917890F5FA1
:104A00001F4FFD0107831087FD0100E0058FD101D5
:104A100008950E949E43D801FD01038914890E5F09
:104A20001F4FC80100E0083078F4FD01238D348D5C
:104A300010E0200F311FF901208110E0FC01E00F90
:104A4000F11F20830395EFCF28E030E08C010E9416
:104A5000780D2801FD0103891489065F1F4FC801E5
:104A6000042DFC01008301968201012F10E0FC015E
:104A70000083FD0103891489F80101E80083FD0129
:104A800000890E94B1350AE613E001501040E9F7B1
:104A900000C000004DE050E0FD0123893489FD0194
:104AA000018912890E9480320E94D635FD01018958
:104AB0001289F8010181013849F4FD010189128947
:104AC000F80104850E3711F401E001C000E0E6E0D2
:104AD0000C94AF430E949A43D801992420E02830D7
:104AE00020F5FD01038D148D30E0020F131FF80136
:104AF00000850F3FC1F0FD0105891689FD01438D39
:104B0000548D30E0420F531FFA01408550E0040FEE
:104B1000151FF8010081002331F001E010E0422F61
:104B20000E94CC42902A2395DACF882420E02830B6
:104B300020F5FD01038D148D30E0020F131FF801E5
:104B400000890F3FC1F0FD0105891689FD01438DE4
:104B5000548D30E0420F531FFA01408950E0040F9A
:104B6000151FF8010081002331F001E010E0422F11
:104B70000E94CC42802A2395DACF5524FD0103817F
:104B8000002329F0FD0100E00383689450F8FD0143
:104B90000481002329F0FD0100E00483689451F8AA
:104BA000FD010181002329F0FD0100E001836894EB
:104BB00052F8FD010281002329F0FD0100E002838B
:104BC000689453F8FD0103891489F80102E4008315
:104BD000FD01038914890E5F1F4FC801442420E0A2
:104BE0002830A8F4FD01018D128D422F50E0440FB2
:104BF000551F040F151FF8010181002331F001E05A
:104C000010E0422F0E94CC42402A2395E9CFFC01BC
:104C100040820196442420E02830A8F4FD01018D53
:104C2000128D422F50E0440F551F040F151FF8013D
:104C30000081002331F001E010E0422F0E94CC42BD
:104C4000402A2395E9CFFC0140820196FC01908225
:104C50000196FC0180820196FC015082019625E0BC
:104C600030E0FD01038914890E5F1F4F0E94780D0B
:104C70003801062DFC01008301968301012F10E00D
:104C8000FC0100830196FC010EE700830196FD0103
:104C900000890E94B1350AE613E001501040E9F79F
:104CA00000C000004AE050E0FD0123893489FD0185
:104CB000018912890E9480320E94D635FD01018946
:104CC0001289F8010181045209F447C00E5109F01C
:104CD0004EC025E030E0FD01018912890E5F1F4FB3
:104CE0000E94860D01301040BCF1FD01018912893E
:104CF000F80101850E37D9F5FD0100E0058F20E0B0
:104D00008D010E94ED26FD0101891289F8010281C1
:104D1000402E20E02830F0F401E010E0422F0E9405
:104D2000CC42142D1023112351F0FD010789108D61
:104D300030E0020F131FF80101E0008309C0FD01FC
:104D40000789108D30E0020F131FF80100E0008387
:104D50002395E0CF01E020C00AC0FD01058D04319C
:104D600030F420E08D01055F1F4F0E94460CFD01CD
:104D7000058D043130F4FD01058D0395058F00E0AC
:104D80000BC0FD0105811681F80102E0008321E0DE
:104D90008D010E94ED2600E0EAE00C94AB430E94F6
:104DA000A143C8018C01055F1F4F0E94490C0050B0
:104DB00019F00A9559F00DC08C012BDEA02F21E0CF
:104DC0008C01055F1F4F0E94460C03C08C0182DEE0
:104DD000A02F0A2FE3E00C94B243AD01F801A781A4
:104DE000B0852C93DA0108950E94A043D801822F48
:104DF0008D01055F1F4F0E94B41108EB14E0FD0107
:104E0000018712870EEB14E0FD01048715878C9350
:104E10008D01E4E00C94B1430E94A043C801D90184
:104E2000082F092B61F020E030E08C01055F1F4F57
:104E30000E94D511A0FB1EF48C010E94BA42E4E04E
:104E40000C94B1430B501040E7CFBD01D801F901DC
:104E50000081FD01008BF90101811281FD01018BAF
:104E6000128BF90103811481FD01038B148BF9016D
:104E700005811681FD0105831683F901478150855F
:104E8000F901018510E0400F511FFD01458B568B44
:104E9000F9010185085E0187F90142855385F90111
:104EA000048510E0400F511FFD01478B508FF90121
:104EB0000485085E0487F90106891789FD010783C7
:104EC0001087FD0100E0018FDB0108950E949E43E1
:104ED000C801DC015396ED91FC91549702E40083E4
:104EE000FC0100890E94B1350AE613E00150104030
:104EF000E9F700C0000049E050E0FC012389348953
:104F0000FC01018912890E9480320E94D635FC0181
:104F100045885688FC01A789B08DFC01018912895A
:104F2000F8010181045279F10E51A9F527E030E032
:104F3000FC01018912890F5F1F4F0E94AA0D0130E9
:104F400010408CF1FC0100E0018F20E08C010E94F8
:104F5000ED2620E02630A8F4FC010189128930E01A
:104F6000020F131FF801328100E0043040F4132FC8
:104F70001370369536951C9311960395F6CF2395AD
:104F8000E9CF01E02DC000E0083168F414E01C9383
:104F900011960395F9CF00E0083128F414E01C9332
:104FA00011960395F9CFFC01018D043130F4FC0119
:104FB000018D0395018F00E013C000E0083128F453
:104FC00014E01C9311960395F9CFFC01058116811D
:104FD000F80101E0008321E08C010E94ED2600E051
:104FE000E6E00C94AF43F80123830895BA93AA93A3
:104FF000D8018D010E94B41102EC14E0FD0101837F
:1050000012838D010A5F1F4F0E94C84125E28D0166
:105010000E94460C25E28D010E94F3278D01A99183
:10502000B9910895BA93AA93D8018D01DFDF06EEF6
:1050300014E0FD010183128325E28D010E94460CDC
:1050400025E28D010E94F3278D01A991B991089560
:10505000BA93AA93D8018D01C9DF0AE015E0FD01DA
:105060000183128325E28D010E94460C25E28D0109
:105070000E94F3278D01A991B9910895BA93AA933B
:10508000D8018D01B3DF08E615E0FD01018312832D
:1050900028E18D010E94460C28E18D010E94F32732
:1050A0008D01A991B9910895BA93AA93D8018D0160
:1050B0009DDF0CE815E0FD010183128325E28D01DF
:1050C0000E94460C25E28D010E94F3278D01A991D3
:1050D000B9910895BA93AA93D8018D0187DF0EE2A2
:1050E00015E0FD010183128325E28D010E94460C2B
:1050F00025E28D010E94F3278D01A991B9910895B0
:105100000E94A043D801C9010A2F0B2BB1F002EC79
:1051100014E0FD010183128322E030E08D010A5F7B
:105120001F4F0E94E34120E030E08D010E94D51125
:1051300080FB1EF48D010E94BA42E4E00C94B1435E
:10514000BA93AA93D8018D010E94490CE0E6F0E0E1
:10515000FBBFF9E00C9457438D011196ED91FC9142
:1051600012977096259134917197F90109959801DC
:105170008D010A5F1F4F0E94F1418D011196ED9143
:10518000FC9112973496259134913597F901099540
:1051900029E18D010E94460C6AC28D010A5F1F4FF2
:1051A0000E940B42002301F18D011196ED91FC91BB
:1051B00012977296259134917397F9010995980188
:1051C0008D010A5F1F4F0E94F1418D011196ED91F3
:1051D000FC9112973C96259134913D97F9010995E0
:1051E0002AE18D010E94460C42C28D010A5F1F4FC9
:1051F0000E940B42002301F18D011196ED91FC916B
:1052000012977096259134917197F901099598013B
:105210008D010A5F1F4F0E94F1418D011196ED91A2
:10522000FC9112973496259134913597F90109959F
:1052300029E18D010E94460C1AC28D011196ED9153
:10524000FC9112977096259134917197F901099507
:1052500098018D010A5F1F4F0E94F1418D01119647
:10526000ED91FC9112973696259134913797F9017B
:10527000099522E08D010E94460CF9C18D010A5F5B
:105280001F4F0E940B42002321F021E08D010E945C
:10529000460CEDC18D011196ED91FC91129774961B
:1052A000259134917597F901099598018D010A5F4F
:1052B0001F4F0E94F1418D011196ED91FC911297C3
:1052C0003896259134913997F901099528E08D0197
:1052D0000E94460CCCC18D010A5F1F4F0E940B42F9
:1052E000002301F18D011196ED91FC9112977696B4
:1052F000259134917797F901099598018D010A5FFD
:105300001F4F0E94F1418D011196ED91FC91129772
:105310003C96259134913D97F901099529E08D013D
:105320000E94460CA4C18D010A5F1F4F0E940B42D0
:10533000002301F18D011196ED91FC911297749665
:10534000259134917597F901099598018D010A5FAE
:105350001F4F0E94F1418D011196ED91FC91129722
:105360003896259134913997F901099528E08D01F6
:105370000E94460C7CC18D011196ED91FC91129713
:105380007896259134917997F901099598018D01C5
:105390000A5F1F4F0E94F1418D011196ED91FC9122
:1053A00012973A96259134913B97F90109952EE091
:1053B0008D010E94460C5BC18D010A5F1F4F0E9448
:1053C0000B42002301F18D011196ED91FC91129792
:1053D0007A96259134917B97F901099598018D0171
:1053E0000A5F1F4F0E94F1418D011196ED91FC91D2
:1053F00012973C96259134913D97F90109952FE03C
:105400008D010E94460C33C18D010A5F1F4F0E941F
:105410000B42002301F18D011196ED91FC91129741
:105420007896259134917997F901099598018D0124
:105430000A5F1F4F0E94F1418D011196ED91FC9181
:1054400012973A96259134913B97F90109952EE0F0
:105450008D010E94460C0BC18D011196ED91FC91BE
:1054600012977C96259134917D97F90109959801C1
:105470008D010A5F1F4F0E94F1418D011196ED9140
:10548000FC9112973A96259134913B97F901099531
:1054900024E18D010E94460CEAC08D010A5F1F4F76
:1054A0000E940B42002301F18D011196ED91FC91B8
:1054B00012977E96259134917F97F901099598016D
:1054C0008D010A5F1F4F0E94F1418D011196ED91F0
:1054D000FC9112973C96259134913D97F9010995DD
:1054E00025E18D010E94460CC2C08D010A5F1F4F4D
:1054F0000E940B42002301F18D011196ED91FC9168
:1055000012977C96259134917D97F9010995980120
:105510008D010A5F1F4F0E94F1418D011196ED919F
:10552000FC9112973A96259134913B97F901099590
:1055300026E18D010E94460C9AC08D010A5F1F4F23
:105540000E940B42002301F18D011196ED91FC9117
:105550001297B09625913491B197F9010995980168
:105560008D010A5F1F4F0E94F1418D011196ED914F
:10557000FC9112973C96259134913D97F90109953C
:1055800027E18D010E94460C72C08D010A5F1F4FFA
:105590000E940B42002301F18D011196ED91FC91C7
:1055A00012977C96259134917D97F9010995980180
:1055B0008D010A5F1F4F0E94F1418D011196ED91FF
:1055C000FC9112973A96259134913B97F9010995F0
:1055D00024E18D010E94460C4AC08D011196ED9187
:1055E000FC911297B29625913491B397F9010995E0
:1055F00098018D010A5F1F4F0E94F1418D011196A4
:10560000ED91FC9112973896259134913997F901D3
:1056100009952FE18D010E94460C29C08D010A5F7A
:105620001F4F0E940B42002311F18D011196ED9145
:10563000FC9112973C96259134913D97F90109957B
:105640008D010E94832E202F8D010E94460C0FC0D9
:105650008D011196ED91FC9112973C962591349114
:105660003D97F901099520E08D010E94460CA99112
:10567000B99108950E94A043C801D901082F092BB0
:1056800069F025E28C010E94460C20E030E08C019C
:1056900037DDA0FB1EF48C010E94BA42E4E00C94BA
:1056A000B1430E94A143C801A22F8C010E94490C62
:1056B000202F8C010E94F3270A2F005079F00A95C1
:1056C00091F00A95A9F00A95C1F00A95D1F00A95D2
:1056D000C1F00250B1F00A95A1F013C025E28C018F
:1056E0000E94460C0EC021E08C010E94460C09C0AD
:1056F00027E08C010E94460C04C027E08C010E9428
:10570000460CE3E00C94B24308959A938A93C8013F
:1057100001E00E94813E8991999108959A938A931C
:10572000C80102E00E94813E8991999108950895EF
:105730009A938A93C80102E00E94AB3E0E945B35B7
:105740008991999108950E94A043C801D901082F19
:10575000092B69F025E28C010E94460C20E030E024
:105760008C01CEDCA0FB1EF48C010E94BA42E4E066
:105770000C94B1430E94A143C801A22F8C010E9446
:10578000490C202F8C010E94F3270A2F005079F03A
:105790000A9591F00A95A9F00A95C1F00A95D1F001
:1057A0000A95C1F00250B1F00A95A1F013C025E2AC
:1057B0008C010E94460C0EC021E08C010E94460C18
:1057C00009C025E28C010E94460C04C02DE08C012A
:1057D0000E94460CE3E00C94B24308959A938A9396
:1057E000C80101E00E94813E899199910895089530
:1057F0009A938A93C80103E00E94813E899199910E
:1058000008959A938A93C80103E00E94AB3E0E94D8
:105810005B358991999108950E94A043C801D901EF
:10582000082F092B69F025E28C010E94460C20E02C
:1058300030E08C0165DCA0FB1EF48C010E94BA42B2
:10584000E4E00C94B1430E94A143C801A22F8C0153
:105850000E94490C202F8C010E94F3270A2F005030
:1058600079F00A9591F00A95A9F00A95C1F00A9588
:10587000F9F00A95E9F00250B9F00A95C9F018C09C
:1058800028E18C010E94460C13C028E18C010E9483
:10589000460C0EC027E08C010E94460C09C02DE08A
:1058A0008C010E94460C04C023E18C010E94460C2E
:1058B000E3E00C94B2439A938A93C8010E94F62EB7
:1058C00089919991089508959A938A93C8010E94A5
:1058D000F62E8991999108959A938A93C8010E940E
:1058E000F62E8991999108959A938A93C8010E94FE
:1058F000FC2E0E945B358991999108950E94A043E6
:10590000C801D901082F092B69F025E28C010E94FA
:10591000460C20E030E08C01F3DBA0FB1EF48C0190
:105920000E94BA42E4E00C94B1430E94A143C80132
:10593000A22F8C010E94490C202F8C010E94F3277A
:105940000A2F005079F00A9591F00A95A9F00A956E
:10595000C1F00A9521F10A9511F10250B9F00A95AA
:10596000D1F01DC025E28C010E94460C18C025E232
:105970008C010E94460C13C027E08C010E94460C4B
:105980000EC02DE08C010E94460C09C023E18C0161
:105990000E94460C04C02EE18C010E94460CE3E0FC
:1059A0000C94B2439A938A93C8010E94450D899141
:1059B000999108959A938A93C8010E94450D8991FF
:1059C000999108959A938A93C8010E94330D899101
:1059D000999108959A938A93C8010E943C0D8991E8
:1059E000999108959A938A93C8010E94450D0E9447
:1059F0005B358991999108950E94A043C801D9010E
:105A0000082F092B69F025E28C010E94460C20E04A
:105A100030E08C0175DBA0FB1EF48C010E94BA42C1
:105A2000E4E00C94B14308959A938A93C80101E08D
:105A30000E94F33E0E94330D8991999108959A93A3
:105A40008A93C80101E00E94F33E0E94330D8991C0
:105A5000999108959A938A93C80102E00E94F33EB7
:105A60000E94330D8991999108959A938A93C80160
:105A700003E00E94F33E0E94330D899199910895AD
:105A80009A938A93C8010E94450D0E9460350E9436
:105A90005B35899199910895BA93AA93D8018D01A4
:105AA0000E94490C0050E9F00A95E1F00A95D9F1FD
:105AB0000A9509F460C0045009F469C00A9509F414
:105AC00087C00A9509F4ACC0045009F4B5C00A9522
:105AD00009F4D3C00A9509F4F8C0065109F401C1CC
