:100000000C94F4421895189518951895189518950C
:100010001895189518951895189518951895189578
:10002000189518950C949633189518951895189559
:100030001895189518951895189518951895189558
:100040001895189518951895189518951895189548
:1000500018951895189518950C945432189518956C
:100060001895189518951895189518951895189528
:1000700018951895189518950C94B5310C94713104
:100080000C948F311895189518951895000000005C
:10009000FA050E063F0C420C450C94080E06510C56
:1000A000540C570CA7080E065A0C5D0C600CBA08CD
:1000B0000E06630C660C690CCD080E066C0C6F0CFA
:1000C000720CE0080E06750C780C7B0CF3080E061B
:1000D0007E0C810C840C06090E06870C8A0C8D0C94
:1000E00019090E06900C930C960C2C090E06990C0F
:1000F0009C0C9F0C3F095209A20CA50CA80C4A0BA2
:100100005209AB0CAE0CB10C5D0B5209B40CB70C20
:10011000BA0C700B5209BD0CC00CC30C830B970BAF
:10012000C60CC90C00000000000000000000000028
:10013000000000000000FE0C0C0D0000C1C081C1D9
:10014000400101C3C003800241C201C6C00680074E
:1001500041C70005C1C581C4400401CCC00C800D5D
:1001600041CD000FC1CF81CE400E000AC1CA81CB64
:10017000400B01C9C009800841C801D8C0188019C6
:1001800041D9001BC1DB81DA401A001EC1DE81DFCC
:10019000401F01DDC01D801C41DC0014C1D481D58D
:1001A000401501D7C017801641D601D2C012801366
:1001B00041D30011C1D181D0401001F0C030803155
:1001C00041F10033C1F381F240320036C1F681F7CC
:1001D000403701F5C035803441F4003CC1FC81FD5D
:1001E000403D01FFC03F803E41FE01FAC03A803BE6
:1001F00041FB0039C1F981F840380028C1E881E9A4
:10020000402901EBC02B802A41EA01EEC02E802F4D
:1002100041EF002DC1ED81EC402C01E4C02480258C
:1002200041E50027C1E781E640260022C1E281E3E3
:10023000402301E1C021802041E001A0C060806135
:1002400041A10063C1A381A240620066C1A681A74B
:10025000406701A5C065806441A4006CC1AC81AD5C
:10026000406D01AFC06F806E41AE01AAC06A806B65
:1002700041AB0069C1A981A840680078C1B881B9C3
:10028000407901BBC07B807A41BA01BEC07E807FCD
:1002900041BF007DC1BD81BC407C01B4C07480758C
:1002A00041B50077C1B781B640760072C1B281B363
:1002B000407301B1C071807041B00050C190819114
:1002C00040510193C053805241920196C0568057CD
:1002D00041970055C19581944054019CC05C805D5C
:1002E000419D005FC19F819E405E005AC19A819BE3
:1002F000405B0199C059805841980188C0488049A5
:100300004189004BC18B818A404A004EC18E818F4A
:10031000404F018DC04D804C418C0044C18481858B
:1003200040450187C047804641860182C0428043E4
:1003300041830041C18181804040000000000000F5
:1003400000000000000000000000000000000000AD
:10035000000000000000000000000000000000009D
:10036000000000000000B611C411C511C411000046
:10037000000000000000000000000000000000007D
:10038000000000000000000000000000000000006D
:10039000000000000000000000000000000000005D
:1003A000000000000000000000000000000000004D
:1003B000D912C411ED12C4117915C815000000003E
:1003C000000000000000000000000000000000002D
:1003D0000000262E2F271F170F07050D151D1E16AF
:1003E0000E06141C242C2D25040C222A2B231B134F
:1003F0000B03010911191A120A02101820282921C9
:1004000000083F3F3F0000000000FF00FF00FF002A
:100410000000FFFFFFFFFF7717C41100000000007E
:1004200000000000000000000000000000000000CC
:10043000009717AA1700000000000000000000004D
:1004400000000000000000000000006818C4117FD8
:10045000184F454F454F454F4511201520000000CE
:10046000000000000000000000000000000000008C
:100470000000004A209221AC217321B7214222BA08
:1004800024C2246320B7247F188F21A921B421C658
:1004900021BE24C62400000000000000000000006F
:1004A00000000000000000000000008304000000C5
:1004B000000000000000000000000000000000003C
:1004C00000000010253127F7240D25C4110000007D
:1004D000000000000000000000000000000000001C
:1004E0000000008727C8276E278427C411E228024E
:1004F000294F454F454F454F454F454F45E82EEC59
:100500002EF02EF42EF82EFC2E002F042F082F0C88
:100510002F9C2B0229E62BE72BF02BF92BFA2BB380
:100520002B102F142F182F1C2F202F242F002F04B7
:100530002F082F0C2F052C02294F2C502C592C5AE8
:100540002C632C1C2C282F2C2F302F342F382F3C91
:100550002F002F042F082F0C2F5E2DAE2D762D810E
:100560002D8C2D972DA22D752D402F442F482F4CCB
:100570002F502F542F002F042F082F0C2F00000076
:10058000000000000000000000000000000000006B
:100590000000006E2C0229BD2CC52CC62CCE2CD6FA
:1005A0002C852CE82EEC2EF02EF42EF82EFC2E00AE
:1005B0002F042F082F0C2FE02C0229342D3C2D4422
:1005C0002D4C2D542DF72CE82EEC2EF02EF42EF879
:1005D0002EFC2E002F042F082F0C2FF22FD3312C9E
:1005E00033000000000000000000000000000000D8
:1005F00000000000000000CC3202013000000000CA
:10060000000000000000000000000000006F0A0170
:100610002F0873060000171B0000000000000000F8
:100620000000000000000000BEF00001020304050D
:10063000060708090A0B0C0D0E0F101112131415E2
:10064000161718191A1B1C1D1E1F202122232425D2
:10065000262728292A2B2C2D2E2FFFFFFFFFFFFFF7
:10066000FFFFFFFFFFFFFFFFFFFFFFFFFFFFFFFF9A
:10067000FFFFFFFFFFFFFFFFFFFFFFFFFFFFFFFF8A
:10068000FFFFFFFFFFFFFFFFFFFFFFFFFFFFFFFF7A
:10069000FFFFFFFFFFFFFFFFFFFFFFFFFFFFFFFF6A
:1006A000FFFFFFFFFFFFFFFFFFFFF95A03030303F5
:1006B000030303030303030303030303030303030A
:1006C0000303030302020202020202020202020206
:1006D00002020202020202020202020202020202FA
:1006E00002020202020202020202020239413E3EFC
:1006F0003E3E3C3C3C3CFFFFFFFFFFFFFFFFFFFF98
:10070000FFFFFFFFFFFF4B6F010204081020408036
:1007100000000000000000000000000000000000D9
:1007200000000000000000000000000000000000C9
:1007300000000000000000000000000000000000B9
:1007400000000000000000000000000000000000A9
:100750000000000000000000000000000000000099
:100760000000000000000000000000000000000089
:100770000000000000000000000000000000000079
:10078000000000000000000099E8010102100020B4
:100790000000000000000000000000000000000059
:1007A0000000000000000000000000000000000049
:1007B0000000000000000000000000000000000039
:1007C0000000000000000000000000000000000029
:1007D000000000000000000000000023E20101050D
:1007E0000000FF000000000000000000000000000A
:1007F00000000000000000000000000000000000F9
:1008000000000000000000000000000000000000E8
:1008100000000000000000000000000000000000D8
:1008200000000000000000000000000000007B9CB1
:100830000101050100FF00000000000000000000B1
:1008400000000000000000000000000000000000A8
:100850000000000000000000000000000000000098
:100860000000000000000000000000000000000088
:100870000000000000000000000000000000000078
:1008800000FB6C0000000000000000400B000000B6
:100890000000000000400B001400000107160002D9
:1008A000101F00038031000440B3000518F5000656
:1008B000800F01075191010851E401095137020AE3
:1008C000088A020B089402000000000000000000EB
:1008D0000000000000000000000000000001010115
:1008E0000101010101010000000000000101000000
:1008F00000000000010100000000000001010000F4
:0F09000000000000010101010101010101374266
:10091000000091080A009108EF06D3079107F90734
:1009200019083E08910864087D0801019E1F431FB5
:10093000014A1F01511F01581F015F1F01661F015E
:100940006D1F077B1F01741F01821F01891F069005
:100950001F2AA51F03A51F01A51F01971FFB00004C
:10096000B4241400B424B42450225B226C22BD228F
:1009700020234D23582378238523B4248E23A323B7
:10098000F0234F2470247D249D24AC240001992B56
:10099000992B017F2901A02905AC2901CD2901F559
:1009A00029041D2A013E2A01662A048E2A01AF2A43
:1009B00001D72A01FF2A01272B010E29012F290126
:1009C0005729044F2B01702B068A2BFB00007A411C
:1009D000160069407A418840A440D040D5407A4111
:1009E0007A417A417A417A41DA40E640E840F5407E
:1009F00018411A413C413E414D415D417441660EF2
:100A00002834BA93AA93D8018D010E949B1100E962
:100A100010E0FD01018312838D01A991B991089520
:100A2000BA93AA93D8018D01ECDF0AE910E0FD0129
:100A30000183128320E08D010E94360C8D01A99163
:100A4000B9910895BA93AA93D8018D01DADF04EA27
:100A500010E0FD010183128321E08D010E94360C1C
:100A60008D01A991B9910895BA93AA93D8018D01E6
:100A7000C8DF0EEA10E0FD010183128321E08D0141
:100A80000E94360C8D01A991B9910895BA93AA9349
:100A9000D8018D01B6DF08EB10E0FD010183128360
:100AA00021E08D010E94360C8D01A991B991089524
:100AB000BA93AA93D8018D01A4DF02EC10E0FD01E6
:100AC0000183128321E08D010E94360C8D01A991D2
:100AD000B9910895BA93AA93D8018D0192DF0CECD5
:100AE00010E0FD010183128321E08D010E94360C8C
:100AF0008D01A991B9910895BA93AA93D8018D0156
:100B000080DF06ED10E0FD010183128321E08D01FD
:100B10000E94360C8D01A991B9910895BA93AA93B8
:100B2000D8018D016EDF00EE10E0FD01018312831C
:100B300021E08D010E94360C8D01A991B991089593
:100B4000BA93AA93D8018D015CDF0AEE10E0FD0193
:100B50000183128321E08D010E94360C8D01A99141
:100B6000B9910895BA93AA93D8018D014ADF04EF91
:100B700010E0FD010183128321E08D010E94360CFB
:100B80008D01A991B9910895BA93AA93D8018D01C5
:100B9000E9DF0EEF10E0FD010183128321E08D01FA
:100BA0000E94360C8D01A991B9910895BA93AA9328
:100BB000D8018D01D7DF08E011E0FD010183128328
:100BC00021E08D010E94360C8D01A991B991089503
:100BD000BA93AA93D8018D01C5DF02E111E0FD01AE
:100BE0000183128321E08D010E94360C8D01A991B1
:100BF000B99108950E94F443C801D901082F092B27
:100C000051F020E030E08C010E94B611A0FB1EF4F0
:100C10008C010E940E43E4E00C9405440E94F443CE
:100C2000D80183E08D010E94480C0E94B73D0770F7
:100C3000043011F483E0CAC08D01FD0121813281AD
:100C4000F9013896259134913997F90109950023D6
:100C500011F001E001C000E0002309F460C08D0143
:100C60000E94480C0E94B73D005049F00A9539F0A7
:100C70000A9509F44CC00A9509F449C0A7C08D0132
:100C80000E94480C0E94B73D03700023E1F48D01DF
:100C90000E94480C10E00E94A73D8D01FD012181BA
:100CA0003281F9013696259134913797F9010995EA
:100CB000002311F001E001C000E0002311F081E009
:100CC00085C080E083C08D010E94480C0E94B73D22
:100CD00003700130D9F48D010E94480C11E00E948C
:100CE000A73D8D01FD0121813281F90136962591C3
:100CF00034913797F9010995002311F001E001C003
:100D000000E0002311F080E061C081E05FC082E07C
:100D10008D010E94480C10E00E94A73D57C08D0134
:100D20000E94480C0E94B73D0370023041F08D01D3
:100D30000E94480C0E94B73D03700130E1F48D0120
:100D40000E94480C10E00E94A73D8D01FD01218109
:100D50003281F9013696259134913797F901099539
:100D6000002311F001E001C000E0002311F081E058
:100D70002DC080E02BC08D010E94480C0E94B73D21
:100D80000370033041F08D010E94480C0E94B73D72
:100D900003700023D9F48D010E94480C11E00E94D9
:100DA000A73D8D01FD0121813281F9013696259102
:100DB00034913797F9010995002311F001E001C042
:100DC00000E0002311F080E001C081E08D010E946D
:100DD000390CE0E1F0E0FBBFF9E00C94AB438D018E
:100DE000FD0121813281F90138962591349139979D
:100DF000F9010995002311F001E001C000E0002392
:100E000009F44BC0823029F428E08D010E94360C91
:100E100088C1813009F085C18D010E944E0C21E00E
:100E20000E94993C8D01FD0121813281F9013496A6
:100E3000259134913597F9010995902F8D010E94E4
:100E40004B0C192F0E94113E8D01FD012181328131
:100E5000F9013496259134913597F9010995902F30
:100E60008D010E944B0C192F0E941E3E8D010E9485
:100E70004B0C0E94DE0C21E00E943C0CEAECFCE0F2
:100E8000038103FF05C023E08D010E94360C49C198
:100E900022E08D010E94360C44C1813009F040C02F
:100EA0008D010E944E0C21E00E94993C8D01FD01B4
:100EB00021813281F9013496259134913597F901D8
:100EC0000995902F8D010E944B0C192F0E94113E05
:100ED0008D01FD0121813281F901349625913491F2
:100EE0003597F9010995902F8D010E944B0C192F10
:100EF0000E941E3E8D010E944B0C0E94DE0C21E0E0
:100F00000E943C0CEAECFCE0038103FF05C023E0F7
:100F10008D010E94360C05C122E08D010E94360C25
:100F200000C1813039F48D010E944E0C20E00E94F6
:100F3000993C1BC0882399F48D010E944B0C10E052
:100F40000E94113E8D010E944B0C0E94DE0C20E09D
:100F50000E943C0C21E08D010E94360CE2C08230E0
:100F600021F428E08D010E94360C0E94D50C00234C
:100F700059F08D010E944B0C11E00E94113E25E0BA
:100F80008D010E94360CCDC00E94D20C002351F07E
:100F90008D010E944B0C11E00E94113E24E08D0156
:100FA0000E94360CBEC0813031F48D010E944E0C7F
:100FB00020E00E94993C0E94D50C002359F08D013D
:100FC0000E944B0C11E00E94113E25E08D010E9411
:100FD000360CA7C00E94D20C002351F08D010E9454
:100FE0004B0C11E00E94113E24E08D010E94360C52
:100FF00098C00E94D50C002329F025E08D010E94A5
:10100000360C8FC0882329F426E08D010E94360C0F
:1010100088C0813039F48D010E944E0C20E00E947E
:10102000993C7FC0823021F428E08D010E94360C6B
:1010300078C0882399F48D010E944B0C10E00E9427
:10104000113E8D010E944B0C0E94DE0C20E00E949C
:101050003C0C21E08D010E94360C63C0813039F4D4
:101060008D010E944E0C20E00E94993C5AC08230B3
:1010700021F428E08D010E94360C53C0813039F4F0
:101080008D010E944E0C20E00E94993C06C08230E7
:1010900021F428E08D010E94360C0E94D50C00231B
:1010A00091F08D010E944B0C10E00E94113E8D01C9
:1010B0000E944B0C0E94DE0C20E00E943C0C21E0C0
:1010C0008D010E94360C2DC08D010E944B0C11E049
:1010D0000E94113E8D010E944B0C16E00E941E3EA4
:1010E0008D010E944B0C0E94DE0C21E00E943C0C02
:1010F00029E08D010E94360C14C0823091F08D01E0
:101100000E944B0C10E00E94113E8D010E944B0C7E
:101110000E94DE0C20E00E943C0C21E08D010E9428
:10112000360CE4E00C9405440E94F443C801D90154
:10113000082F092B49F020E030E08C015BDDA0FB9B
:101140001EF48C010E940E43E4E00C9405440E94BE
:10115000F443C801D901082F092B49F020E030E001
:101160008C0148DDA0FB1EF48C010E940E43E4E0DC
:101170000C9405440E94F443C801D901082F092B9F
:1011800049F020E030E08C0135DDA0FB1EF48C013D
:101190000E940E43E4E00C9405440E94F443C8010D
:1011A000D901082F092B49F020E030E08C0122DD25
:1011B000A0FB1EF48C010E940E43E4E00C94054455
:1011C0000E94F443C801D901082F092B49F020E0FF
:1011D00030E08C010FDDA0FB1EF48C010E940E4359
:1011E000E4E00C9405440E94F443C801D901082F9F
:1011F000092B49F020E030E08C01FCDCA0FB1EF460
:101200008C010E940E43E4E00C9405440E94F443D8
:10121000C801D901082F092B49F020E030E08C01EA
:10122000E9DCA0FB1EF48C010E940E43E4E00C9468
:1012300005440E94F443C801D901082F092B49F045
:1012400020E030E08C01D6DCA0FB1EF48C010E9473
:101250000E43E4E00C9405440E94F443C801D90114
:10126000082F092B49F020E030E08C01C3DCA0FB03
:101270001EF48C010E940E43E4E00C9405440E948D
:10128000F443C801D901082F092B49F020E030E0D0
:101290008C01B0DCA0FB1EF48C010E940E43E4E044
:1012A0000C9405440E94F443D80183E08D010E9410
:1012B000480C0E94B73D902F8D01FD0121813281A4
:1012C000F9013896259134913997F9010995002350
:1012D00011F001E001C000E0002309F460C08D01BD
:1012E0000E94480C0E94B73D005049F00A9539F021
:1012F0000A9509F44CC00A9509F449C0A7C08D01AC
:101300000E94480C0E94B73D03700023E1F48D0158
:101310000E94480C10E00E94A73D8D01FD01218133
:101320003281F9013696259134913797F901099563
:10133000002311F001E001C000E0002311F081E082
:1013400085C080E083C08D010E94480C0E94B73D9B
:1013500003700130D9F48D010E94480C11E00E9405
:10136000A73D8D01FD0121813281F901369625913C
:1013700034913797F9010995002311F001E001C07C
:1013800000E0002311F080E061C081E05FC082E0F6
:101390008D010E94480C10E00E94A73D57C08D01AE
:1013A0000E94480C0E94B73D0370023041F08D014D
:1013B0000E94480C0E94B73D03700130E1F48D019A
:1013C0000E94480C10E00E94A73D8D01FD01218183
:1013D0003281F9013696259134913797F9010995B3
:1013E000002311F001E001C000E0002311F081E0D2
:1013F0002DC080E02BC08D010E94480C0E94B73D9B
:101400000370033041F08D010E94480C0E94B73DEB
:1014100003700023D9F48D010E94480C11E00E9452
:10142000A73D8D01FD0121813281F901369625917B
:1014300034913797F9010995002311F001E001C0BB
:1014400000E0002311F080E001C081E08D010E94E6
:10145000390C005061F00A9559F0065009F495C016
:101460000A9509F4E7C00A9509F4FDC010C10FC13F
:101470008D01FD0121813281F90138962591349148
:101480003997F9010995002311F001E001C000E04E
:10149000002309F441C0823029F428E08D010E9424
:1014A000360CF5C0813009F0F2C08D010E944E0C5F
:1014B00021E00E94993C8D01FD0121813281F901D9
:1014C0003496259134913597F9010995902F8D0126
:1014D0000E944B0C192F0E94113E8D01FD012181AC
:1014E0003281F9013496259134913597F9010995A6
:1014F000902F8D010E944B0C192F0E941E3E8D01D2
:101500000E944B0C0E94DE0C21E00E943C0C27E064
:101510008D010E94360CBBC08130B1F58D010E9457
:101520004E0C21E00E94993C8D01FD012181328108
:10153000F9013496259134913597F9010995902F49
:101540008D010E944B0C192F0E94113E8D01FD014F
:1015500021813281F9013496259134913597F90131
:101560000995902F8D010E944B0C192F0E941E3E51
:101570008D010E944B0C0E94DE0C21E00E943C0C6D
:1015800027E08D010E94360C82C08D01FD01218172
:101590003281F9013896259134913997F9010995ED
:1015A000002311F001E001C000E0002329F18230A6
:1015B00029F428E08D010E94360C69C0882399F433
:1015C0008D010E944B0C10E00E94113E8D010E9483
:1015D0004B0C0E94DE0C20E00E943C0C21E08D01AF
:1015E0000E94360C54C0813021F58D010E944E0CB2
:1015F00020E00E94993C4BC0882399F48D010E9401
:101600004B0C10E00E94113E8D010E944B0C0E9479
:10161000DE0C20E00E943C0C21E08D010E94360C83
:1016200036C08130A1F58D010E944E0C20E00E9451
:10163000993C2DC08D010E944B0C11E00E94113E7F
:101640008D010E944B0C16E00E941E3E8D010E94EF
:101650004B0C0E94DE0C21E00E943C0C29E08D0125
:101660000E94360C14C0823091F08D010E944B0C08
:1016700010E00E94113E8D010E944B0C0E94DE0C76
:1016800020E00E943C0C21E08D010E94360CE4E039
:101690000C9405440E94F443C801D901082F092B7A
:1016A00049F020E030E08C01EADDA0FB1EF48C0163
:1016B0000E940E43E4E00C9405440E94F443C801E8
:1016C000D901082F092B49F020E030E08C01D7DD4B
:1016D000A0FB1EF48C010E940E43E4E00C94054430
:1016E0000E94F443C801D901082F092B49F020E0DA
:1016F00030E08C01C4DDA0FB1EF48C010E940E437F
:10170000E4E00C9405440E94F443C801D901082F79
:10171000092B51F020E030E08C010E94B611A0FBB3
:101720001EF48C010E940E43E4E00C9405440E94D8
:10173000F343D8018D010E94390C005049F00A95FD
:1017400041F00A9509F463C00A9509F46BC08BC097
:101750008AC0FD018181928106968D010E94CC0C88
:101760000E94BD3D402E8D01FC01259134913197A1
:10177000F90109954026442011F001E001C000E084
:10178000002309F470C00E94DB0C073021F1FD0139
:101790008181928104960E94DB0C402E8D01FC0118
:1017A000259134913197F9010995401610F001E027
:1017B00001C000E0002379F48D011196ED91FC91B8
:1017C00012973496259134913597F90109950E9425
:1017D000D80C0E94C33D8D011196ED91FC9112979A
:1017E0003496259134913597F9010995802F8D0113
:1017F0000E94CF0C182F0E941E3E8D010E94CF0C1C
:101800000E94943F22E08D010E94360C2CC00E9461
:10181000D20C002341F10E94E23D23E08D010E94A1
:10182000360C21C0FD018181928106968D010E94B6
:10183000CC0C0E94BD3D402E8D01FC0125913491C0
:101840003197F90109954026442011F401E001C0C7
:1018500000E0002341F00E94EB3D0E94D23521E0E0
:101860008D010E94360CE5E00C940444F8012083BD
:101870000895F80100810895F801208308959801E2
:1018800000E00895980100E00895980100E00895AF
:10189000F80105810895F801038108950C5F1F4F39
:1018A0000895980100E00895980100E008959801D6
:1018B00000E00895980102E00895980100E008957D
:1018C000980100E00895980102E00895980101E070
:1018D0000895980100E00895980102E008959801A4
:1018E00000E00895980101E00895980102E008954C
:1018F000980101E00895980101E00895980103E03E
:101900000895980100E00895980100E00895980175
:1019100003E00895980101E00895980100E008951A
:10192000980103E00895980100E00895980101E00E
:101930000895980103E00895980101E00895980141
:1019400001E00895980101E00895980100E00895EC
:10195000980100E00895980101E00895980101E0E0
:101960000895980100E00895980101E00895980114
:1019700000E00895980101E00895980101E00895BC
:10198000980101E00895980101E00895980107E0A9
:101990000895980100E00895F80104810895F80180
:1019A000038108950091500C08950091510C089501
:1019B0000093BF0C08950091BF0C089510E048E01B
:1019C00050E00E94164398010BED1DE0020F131F1B
:1019D000089526E331E0F80126833783F80120E0FB
:1019E0002083F80120E02183F80120E02283F80120
:1019F00020E02383F80120E0248308959A938A93BA
:101A0000C801082F092B29F020FB1EF48C010E942D
:101A10000E438991999108959A938A93C801082F4A
:101A2000092B29F020FB1EF48C010E940E438991A2
:101A3000999108950E94400D0E943C0D0E94460D10
:101A40000E94420D089508EF12E00E9460330E9448
:101A50003E0D0E94440D08950AE81CE00E94603388
:101A60000E943E0D0E94440D08950E94400D0E9468
:101A7000460D0E948B330895149A08951C9A089578
:101A80001C980895159A08951D9A08951D98089513
:101A90007B2F2A2ED8010FEF1FEF40E050E04217B6
:101AA000530798F46C91502F65271196012F10E081
:101AB000E62FF0E0EE0FFF1FE65CFE4F059014905E
:101AC0003197002511254395E9CFA22DB72F089511
:101AD000F80100E010E0408150E0040F151F31963E
:101AE00021503040422F432BB1F708950E94F44318
:101AF000F801C90120E030E0008110E0200F311F23
:101B000031960197082F092BB9F7DF01FD013196B6
:101B1000022F1C91011749F48901012F10E0108157
:101B2000011719F401E010E002C000E010E0E4E069
:101B30000C940544F80140E00081400F319621509B
:101B40003040022F032BC1F70081401719F401E048
:101B500010E0089500E010E00895A895089510E0C1
:101B600048E050E00E941643F801E056F84F068125
:101B7000178108950091310808950CE008950093AD
:101B8000520C08950E94F4430E947A0EB0E0A1E046
:101B90000A2F015039F00A9539F10A95A1F10A95F9
:101BA00081F133C00E94BD0DB017E0F42B2F0AE184
:101BB0001AE00E946A11C801082F092B89F04B2FE7
:101BC00043959C010AE11AE00E94C10F002311F025
:101BD000A2E01BC00E94BA0D0430B9F4A3E015C006
:101BE000A3E013C0A4E011C00E94BA0D033019F4A1
:101BF000B395A1E00AC00E94BA0D043031F4A3E00D
:101C000004C001E00BC000E009C00E9467100AE0B8
:101C100010E00E941D330E94AD0DBACFE4E00C9499
:101C200005440E94E40F08950E94091008950E943F
:101C30003510089500E00E94BF0D0E940511002399
:101C400099F0EFDF002351F0F2DF002311F001E003
:101C5000089504E00E94BF0D00E0089504E00E9492
:101C6000BF0D90DF00E0089504E00E94BF0D8ADF01
:101C700000E008950E94F543C801A22F2A2F239562
:101C80008C010E94B00EE3E00C9406448A93802FEE
:101C90000E94BD0D801730F4082F03950E94AF0DF0
:101CA00010E002C000E010E0899108950E94F54321
:101CB000C801A22F0A2FEADF98014A2F43958C0111
:101CC0000E94C10F10E0E3E00C94064408E218E023
:101CD0000E941C4200E417E00E94B24208959A93C9
:101CE0008A93C80122E030E08C010E94374289913A
:101CF000999108950AE11AE0E6E2F8E00083118381
:101D000000E00E948C114CE650E020E030E000EA58
:101D100017E00E942044E0EAF7E000E110E00483CD
:101D20001583E0EAF7E00CE610E0068317830EE681
:101D300010E00E943614E0EAF7E0008711870EE613
:101D400010E00E943614005F1F4FE0EAF7E00283C4
:101D50001383E0EAF7E000E0008300E001830895E8
:101D60000E94EA43D1503801822E0DE0801618F00F
:101D700000E010E077C0082D10E048E050E00E943D
:101D80001643F801E056F84F06811781012B09F43C
:101D900051C0082D10E048E050E00E941643F801C1
:101DA000E056F84F00851185012B09F443C0082D3A
:101DB00010E048E050E00E941643F801E056F84F6A
:101DC000048115816801082D10E048E050E00E9470
:101DD0001643F801E056F84F068117812801082DB7
:101DE00010E048E050E00E941643F801E056F84F3A
:101DF000008511855801A50196018E010E94EE31E2
:101E0000A5019E018E010E94E714FE01E40DF51D5F
:101E1000808190E0FE01E40DF51D118100E0802B32
:101E2000912B92018E010E94480DD8018A179B07C1
:101E3000A1F403C000E010E015C0082D10E0000F71
:101E4000111FF801E45FF74F80839183A2019E0187
:101E500083010E941044820105C004E00E94BF0D6E
:101E600000E010E0DF5FEEE00C94FB430E94EE43E5
:101E7000D1502801C901642E0DE0601618F000E071
:101E800010E07BC0AC0192018E010E9410449C01C5
:101E900082010E94480DD8010A2FFE01E80FF91FA8
:101EA00000838D01012F10E0FE01E80FF91F01836F
:101EB000062D10E048E050E00E941643F801E0567D
:101EC000F84FA287B387AC014E5F5F4F9E01E6E2F9
:101ED000F8E0008111810E9440144801062D10E0B5
:101EE00048E050E00E941643F801E056F84F0085A4
:101EF0001185012B69F5E0EAF7E022813381062D97
:101F000010E048E050E00E941643F801E056F84F18
:101F100024833583E0EAF7E002811381080D191D5F
:101F200002831383062D10E048E050E00E94164320
:101F3000F801E056F84F86839783062D10E048E0BD
:101F400050E00E941643F801E056F84F80869186D3
:101F5000A401E6E2F8E020813181BA01062D10E00B
:101F600048E050E00E941643F801E056F84F048123
:101F70001581AB010E9401328401DF5FEAE00C941D
:101F8000FF430E94F343D801C901442E0E948F11E0
:101F9000002399F4442D9C018D0168DF012B41F051
:101FA00001E00E94921101E00E948C1101E009C041
:101FB00004E00E94921100E004C002E00E9492112D
:101FC00000E0E5E00C940444BD01E1E0F0E0EC3019
:101FD00000E0F007D8F48F01000F111FD801A45FB3
:101FE000B74F2D913C9111978F0148E050E00E942E
:101FF0001643D801A655B84F0D911C911197201783
:10200000310711F000E003C03196E1CF01E0DB01C0
:102010000895BA93AA936897E0E0F0E0EC3000E00E
:10202000F007B0F48F0148E050E00E941643D80159
:10203000AE54B84F2D913C911197DE018F01000FE6
:10204000111FA00FB11F2D933C9311973196E6CF2E
:1020500028E130E08E010E94480DE0EAF7E00083BD
:1020600011836896A991B9910895BA93AA93689734
:10207000E0E0F0E0EC3000E0F007B0F48F0148E081
:1020800050E00E941643D801AE54B84F2D913C91B8
:102090001197DE018F01000F111FA00FB11F2D93AB
:1020A0003C9311973196E6CF28E130E08E010E94F3
:1020B000480DE0EAF7E0208131812017310711F463
:1020C00001E001C000E06896A991B99108950E94CD
:1020D0008F11005079F00A9571F00A95B1F00A95C8
:1020E00089F10A9509F443C00A9509F459C00A9583
:1020F00009F473C008950E94891128EC30E00E9411
:10210000454202E00E948C1108950E94771100233D
:1021100061F00E94891120E137E20E9445420E944D
:10212000831103E00E948C1108950E9489110E947E
:102130005F42002331F004E00E94921100E00E940F
:102140008C1108950E948011002321F004E00E9468
:102150008C1108950E9489110E945F42002331F082
:1021600004E00E94921100E00E948C11089540E06A
:102170002CE630E000EA17E079DE012B51F00E94F6
:10218000891128EC30E00E94454205E00E948C1144
:10219000089504E00E94921100E00E948C110895BD
:1021A0000E947711002361F00E94891120E137E23B
:1021B0000E9445420E94831106E00E948C110895FE
:1021C0000E9489110E945F420023F1F004E00E9406
:1021D000921100E00E948C1108950E94801100234A
:1021E00039F003E00E94921100E00E948C110895E2
:1021F0000E9489110E945F42002331F004E00E9496
:10220000921100E00E948C1108950E94F44372DD47
:1022100020E000EA17E0A4DD012B11F400E057C034
:10222000B0E0A1E000E00E9495110A2F015059F0A2
:102230000A9509F10A9581F10A95D1F10A95E9F11A
:102240000A95C9F13CC0BD30A0F42B2FE6E2F8E0BE
:102250000081118185DDC801082F092B41F00E9402
:102260009811002311F0A2E02AC0A4E028C0A5E044
:1022700026C0A6E024C04B2F9C01E6E2F8E00081D6
:1022800011817FDE002311F0A3E019C00E94BA0D76
:102290000430A9F4A5E013C00E94BA0D033011F474
:1022A000A4E00DC00E94BA0D043049F4A5E007C0B7
:1022B000B395A1E004C001E00AC000E008C007DF58
:1022C0000AE010E00E941D330E94AD0DAECFE4E0A5
:1022D0000C9405440E94F543C801A22F2A2F8C01BB
:1022E0000E949332E3E00C940644E39A0895E19B44
:1022F00002C000E0089501E0089500937C0808956D
:1023000000917C08089500E00E947D110E947511E3
:10231000089508E218E008950093300808950091A8
:102320003008089500933108089500933208089505
:1023300000913208089526E633E0F80121833283C4
:10234000F80120E020830895AD01D8018D01F3DF6D
:102350000AE613E0FD0101831283FD0100E003831F
:10236000FD0100E004838D01DA0108959A938A93B8
:10237000C801082F092B29F020FB1EF48C010E94B4
:102380000E4389919991089508959A938A93C8016B
:10239000082F092B29F020FB1EF48C010E940E430C
:1023A0008991999108950091610001600093610005
:1023B0000895009162000160009362000895009109
:1023C00062000E7F00936200089500916100006436
:1023D0000093610008950091620000640093620020
:1023E0000895009162000F7B0093620008950091B0
:1023F0006100026000936100089500916200026034
:10240000009362000895009162000D7F00936200C6
:1024100008950091610004600093610008950091A7
:1024200062000B7F009362000895BC9A0895C498DF
:10243000089500916100006100936100089500918A
:1024400062000061009362000895009162000F7EB7
:1024500000936200089500916100006200936100A2
:1024600008950091620000620093620008950E9446
:10247000151202E001BF09E103BF0895000000004A
:102480000895000008950E94D3110E94DF110E9458
:10249000E5110E94EB110E94F7110E9403120E94A5
:1024A00009120E940F120E9415120E9417120E9418
:1024B00019120E9425120E942B120E9431120E94B2
:1024C000371208950E94F1110E943E120E94EB11F2
:1024D00008959A938A93902F0E94251280E0863067
:1024E000B0F400E210E0482F0E942A43192F102375
:1024F000112319F00E94D91102C00E94DF110E941D
:10250000FD110E9441120E9403128395E8CF0E94A0
:1025100025128991999108959A938A93902F0E94F8
:102520001F1280E08830B0F400E810E0482F0E94CD
:102530002A43192F1023112319F00E94D91102C028
:102540000E94DF110E94FD110E9441120E9403129D
:102550008395E8CF0E942512899199910895BA93A5
:10256000AA93D8018D010E94A41100EB13E0FD0194
:10257000018312838D01A991B99108950E94F443BA
:10258000D801C9018D01EBDF04EB13E0FD010183EC
:1025900012838D010B5F1F4F0E941C42FD01838738
:1025A000948720E08D010E94360C8D01E4E00C94AC
:1025B00005440E94F443C801D901082F092B51F0AA
:1025C00020E030E08C010E94C511A0FB1EF48C01BC
:1025D0000E940E43E4E00C9405440E94F443D801A9
:1025E000C9010A2F0B2BA9F004EB13E0FD010183B5
:1025F000128322E030E08D010B5F1F4F0E943742B3
:1026000020E030E08D01D5DF80FB1EF48D010E94BB
:102610000E43E4E00C9405440E94F443D801922F49
:10262000832F8D010E94390C005029F00A9561F02A
:102630000A9521F148C0FD0100E0058721E08D01E8
:102640000E94360C00E040C0992321F0FD01058571
:1026500001600587882321F0FD010585026005875B
:10266000FD01238534858D010B5F1F4F0E9445427C
:1026700022E08D010E94360C00E026C08D010B5F28
:102680001F4F0E945F42002331F020E08D010E9425
:10269000360C00E019C0992321F0FD010585016089
:1026A0000587882321F0FD01058502600587FD016E
:1026B0000585033031F420E08D010E94360C01E0E5
:1026C00003C000E001C000E0E4E00C940544202FCA
:1026D00030E0E0E0F0E0E83000E0F0074CF4022FFA
:1026E00010E04E2F0E942A43017030273196F3CF1D
:1026F000332311F401E0089500E00895980150E0BB
:10270000E0E0F0E0EC3000E0F00744F44E2F890107
:102710000E942543017050273196F4CF552311F4C0
:1027200001E0089500E00895502F60E070E000E1BE
:10273000509F00E000220FE01022B00108E0509FFF
:1027400000E7002200E0102260297129052F0170A6
:1027500014E0019F60297129052F007FB8DF10E880
:10276000019F60297129052F0E78B1DF18E0019FC4
:1027700060297129052F0D76AADF12E0019F6029DB
:102780007129052F0B75A3DF10E0602B712B8B01D6
:102790000895080160E0800100701F70AFDF102D08
:1027A00017FB10E010F9011711F061E001C060E0C3
:1027B000660F660F660F8001007718709FDF102D7F
:1027C00013FB10E010F9011711F001E001C000E067
:1027D000000F000F602B8001047616708FDF102D24
:1027E00011FB10E010F9011711F001E001C000E049
:1027F000000F602B80010475157080DF102D1170A3
:10280000011711F001E001C000E0602B062F0895D0
:10281000B801222311F48B010895209332082A95E0
:1028200001E010E0422F0E942043602771278B01B6
:102830000895B80120E044E08B010E942543007F09
:10284000202F062F0695069506950E70202B062F35
:1028500002FB00E000F9202B022F089518018101EE
:1028600098DF202F8101D4DFE4DF089500FB16F408
:102870000F5F1F4F980136952795020F131F08957C
:102880000E94E943380159016A0122243324442477
:102890005524EE240C2D0D2941F0C0FA36F40FEF2B
:1028A000C00E0FEFD01EEE24E394882499248C14DC
:1028B0009D0408F04BC0F501E40DF51D008134DFE7
:1028C00020E030E0C801D90101E0400E00E0501ED8
:1028D000F501E40DF51D008127DFA80160E070E03F
:1028E000ECE08A019B014E2F0E947C43802B912BB0
:1028F000A22BB32B01E0400E00E0501E8C01F3012F
:10290000E20DF31D008301E0200E00E0301E892F50
:102910009A2FAB2FB0E08C01F301E20DF31D008381
:1029200001E0200E00E0301E892F9A2FAB2FB0E07F
:102930008C01F301E20DF31D008301E0200E00E0A5
:10294000301E02E0800E00E0901EB1CFEE20D9F1E3
:10295000F501E40DF51D0081E7DE20E030E0C8015F
:10296000D90100E0E1DEA80160E070E0ECE08A015E
:102970009B014E2F0E947C43802B912BA22BB32BCB
:102980008C01F301E20DF31D008301E0200E00E055
:10299000301E892F9A2FAB2FB0E08C01F301E20D8E
:1029A000F31D008301E0200E00E0301E892F9A2FD6
:1029B000AB2FB0E08C01F301E20DF31D008301E0C9
:1029C000200E00E0301E8101EFE00C94FA430E94DB
:1029D000E843580149017A016624772444245524A8
:1029E0000E2D0F2951F043E050E087010E942D4346
:1029F000452B19F000E010E057C0CC24DD24CE14A4
:102A0000DF0408F050C0F401E40DF51D008110E072
:102A100020E030E0C801D90101E0400E00E0501E86
:102A2000F401E40DF51D008110E020E030E0322FCC
:102A3000212F102F00E0802B912BA22BB32B01E034
:102A4000400E00E0501EF401E40DF51D208130E041
:102A500000E010E0802B912BA22BB32B01E0400E65
:102A600000E0501E8C010F7F1F70F8DEF501E60DAF
:102A7000F71D008301E0600E00E0701E4CE08C0149
:102A80009D010E9483430F7F1F70E8DEF501E60D74
:102A9000F71D008301E0600E00E0701E03E0C00E31
:102AA00000E0D01EACCF8301E0E10C94F9430E941A
:102AB000F443D801C9018D010E94A41108EB13E071
:102AC000FD01018312838D01075F1F4F0E941C428D
:102AD000FD0185839683FD0100E00087FD0100E094
:102AE000078320E08D010E94360C8D01E4E00C94F8
:102AF00005440E94F443D801C9010A2F0B2BB1F001
:102B000008EB13E0FD010183128322E030E08D0128
:102B1000075F1F4F0E94374220E030E08D010E9486
:102B2000C51180FB1EF48D010E940E43E4E00C945D
:102B30000544BA93AA93D8011596ED91FC91169786
:102B40000995002311F001E001C000E0A991B991BD
:102B500008950E94F443D801822F8D01FD01218147
:102B60003281F9013296259134913397F901099513
:102B7000FD010781081741F4FD0100E00783FD0115
:102B800000E0008701E001C000E0E4E00C940544AF
:102B9000BA93AA93D8018D010E94390C005089F094
:102BA0000A95C1F00A9541F10A9509F44EC00A95BB
:102BB00009F474C00A9509F49AC0025009F4BCC023
:102BC000C3C0FD010085FD01078321E08D010E9446
:102BD000360CBAC08D01ADDF002369F08D010E9473
:102BE000A71698018D01075F1F4F0E94454222E002
:102BF0008D010E94360CA8C08D019BDF0023E1F0FF
:102C00008D01075F1F4F0E945F420023E9F08D0195
:102C10000E94AB1698018D01075F1F4F0E9445422D
:102C2000FD0102E00087FD010085FD01078323E02F
:102C30008D010E94360C88C0FD010085FD010783CF
:102C400020E08D010E94360C7FC08D0172DF0023D1
:102C5000E1F08D01075F1F4F0E945F420023E9F002
:102C60008D010E94AF1698018D01075F1F4F0E94D2
:102C70004542FD0103E00087FD010085FD0107835A
:102C800024E08D010E94360C5FC0FD010085FD012E
:102C9000078320E08D010E94360C56C08D0149DF6C
:102CA0000023E1F08D01075F1F4F0E945F42002368
:102CB000E9F08D010E94B31698018D01075F1F4F47
:102CC0000E944542FD0104E00087FD010085FD01F1
:102CD000078327E08D010E94360C36C0FD01008578
:102CE000FD01078320E08D010E94360C2DC08D016F
:102CF00020DF0023E1F08D01075F1F4F0E945F423C
:102D0000002311F18D010E94B71698018D01075F14
:102D10001F4F0E944542FD0105E00087FD0100852F
:102D2000FD01078327E08D010E94360C0DC020E0D5
:102D30008D010E94360C08C08D01FBDE002321F4BA
:102D400020E08D010E94360CA991B9910895980157
:102D500004E610E0089598010CED15E0089598013F
:102D600008EB1BE00895980108E813E10895980125
:102D700002E310E00895F80100810895F80104814C
:102D8000089500916200046000936200089500912C
:102D900062000F7D009362000895000008959A93E9
:102DA0008A93C8010E9443128991999108950E94C3
:102DB000F543C8010E946212A0E0A03338F402E09B
:102DC00014E020E00E945C2FA395F7CFA0E0A03391
:102DD00008F058C0EA2FF0E0EE52FC4F049110E0EA
:102DE00048E050E00E94164398018C01020F131F27
:102DF0000E94BB160023F9F1EA2FF0E0EE52FC4FDF
:102E0000049110E048E050E00E94164398018C01C4
:102E1000020F131F0E94BE16015049F00A9569F077
:102E20000A9589F00350A9F00A95C9F01EC00BE07D
:102E300014E020E00E94792F23C001E114E020E09B
:102E40000E94792F1DC008E014E020E00E94792F35
:102E500017C00EE014E020E00E94792F11C004E1B9
:102E600014E020E00E94792F0BC005E014E020E080
:102E70000E94792F05C005E014E020E00E94792F20
:102E8000A395A5CF0E94C1160E94CD160E940F12D5
:102E90000E94C716E3E00C940644BA93AA93D801A3
:102EA0008D010E94A41107E114E0FD01018312834A
:102EB0008D010B5F1F4F0E941C428D01A991B9919A
:102EC0000895BA93AA93D8018D01E7DF01E314E0D6
:102ED000FD010183128320E08D010E94471821E04B
:102EE0008D010E94360C8D01A991B99108950E941F
:102EF000F443D801C9010A2F0B2BB1F007E114E00C
:102F0000FD010183128322E030E08D010B5F1F4F32
:102F10000E94374220E030E08D010E94C51180FB05
:102F20001EF48D010E940E43E4E00C9405440E94BF
:102F3000F443C801D901082F092B49F020E030E003
:102F40008C01D5DFA0FB1EF48C010E940E43E4E04F
:102F50000C9405440E94F443C8018C010E94390C72
:102F6000005051F00A9549F00A9539F10A95F9F1A6
:102F70000A9509F45EC088C087C00E946A380023A1
:102F8000B9F00E947A38002371F00E947238D8019B
:102F90008C010E944D189D010E94454223E08C0146
:102FA0000E94360C71C022E08C010E94360C6CC06D
:102FB00020E08C010E94360C67C08C010E944A18E8
:102FC0000130A1F420E08C010E94471801E00E942A
:102FD00083380E947238D8018C010E944D189D01DF
:102FE0000E94454223E08C010E94360C4DC08C01AA
:102FF0000E944A18013071F420E08C010E944718A9
:103000000E947238D8018C010E944D189D010E94C7
:1030100045423AC08C010E944D180E945F42002335
:1030200099F105E00E94BF0D24E08C010E94360C4E
:103030002BC08C010E944A18015019F00A95B1F07A
:1030400023C020E08C010E94471802E10E94501822
:103050000E947238D8018C010E944D189D010E9477
:10306000454223E08C010E94360C0EC020E08C010A
:103070000E94471800E00E94833802E10E94501825
:1030800022E08C010E94360CE4E00C940544F80127
:1030900024830895F801048108950B5F1F4F08955C
:1030A00000939A0B089500E00E9450180E9461401E
:1030B000FDCFBA93AA93D8018D010E94A4110BE40D
:1030C00014E0FD01018312838D01A991B991089546
:1030D0000E94F443C801D901082F092B51F020E0C8
:1030E00030E08C010E94C511A0FB1EF48C010E94EF
:1030F0000E43E4E00C940544F801258308959A9367
:103100008A93C8018C010E94390C002311F401E05C
:1031100001C000E08991999108950E94F24328012D
:10312000C901DA01AD019C018201F2016181728164
:10313000FB013696659174913797FB010995D8018B
:10314000AD019C018201F20161817281FB013C961B
:10315000659174913D97FB010995E6E00C94034459
:103160000E94EF43D801722E632E842ECB01AC0156
:10317000362D3068272D8D01FD0161817281FB01A3
:103180003A96659174913B97FB0109952801FC01E2
:10319000E40DF51D808201E0400E00E0501E82012A
:1031A000E9E00C9400440E94EE4328010A012A84BD
:1031B0003B848C859D8550E06624A0E0B0E0A0159E
:1031C000B105F0F4490194012F5F3F4FFB01E80D79
:1031D000F91D0081002331F001E010E0462D0E942E
:1031E0002043502B07E0601641F4F101E80FF91F6E
:1031F0005083019650E0662401C063941196DFCF9E
:10320000662029F0F101E80FF91F508301968C0127
:10321000EEE00C94FF430E94E843280159014A0163
:10322000CB018201F20121813281F9013E96259183
:1032300034913F97F90109953801F501E60DF71D25
:103240003197F080F501E60DF71DE080F501E60D00
:10325000F71DD180CC24F501E60DF71D028110E0A9
:10326000C02AD12AF501E60DF71DB381A0E0F501D2
:10327000E60DF71D048110E0A02BB12B0A2F0B2BBC
:1032800021F0A13D07E0B00740F0B40143E03E2D3E
:103290002F2D820165DFC80144C0F201028D138D1C
:1032A00096012A0F3B1F0217130740F4B40142E0B6
:1032B0003E2D2F2D820154DFC80133C0A4013E2DC5
:1032C0002F2D8201F20161817281FB013A96659195
:1032D00074913B97FB010995C8010A2F07700023E1
:1032E00059F043E08D010E9425430395F401E80F56
:1032F000F91F0083019609C043E08D010E94254318
:10330000F401E80FF91F008301969A938A939A9229
:103310008A92F20162897389AD019601820143DFCD
:10332000C8018C01E0E10C94F9430E94E8432801B4
:1033300059014A01CB018201F20121813281F90157
:103340003E96259134913F97F90109953801F50191
:10335000E60DF71D3197F080F501E60DF71DE080D1
:10336000F501E60DF71DD180CC24F501E60DF71D22
:10337000028110E0C02AD12AF501E60DF71DB381C4
:10338000A0E0F501E60DF71D048110E0A02BB12BA4
:103390000A2F0B2B21F0A13D07E0B00740F0B4014C
:1033A00043E03E2D2F2D8201DBDEC80144C0F20137
:1033B000048D158D96012A0F3B1F0217130740F449
:1033C000B40142E03E2D2F2D8201CADEC80133C078
:1033D000A4013E2D2F2D8201F20161817281FB013A
:1033E0003A96659174913B97FB010995C8010A2FA4
:1033F0000770002359F043E08D010E942543039597
:10340000F401E80FF91F0083019609C043E08D0124
:103410000E942543F401E80FF91F008301969A9357
:103420008A939A928A92F20164897589AD01960114
:103430008201B9DEC8018C01E0E10C94F9430E94DD
:10344000E843280169014A01CB018201F20121818F
:103450003281F9013E96259134913F97F901099502
:103460005801F601EA0DFB1D3197F080F601EA0DD7
:10347000FB1DE080F601EA0DFB1DB181A0E0F60125
:10348000EA0DFB1D028110E0A02BB12BF601EA0D25
:10349000FB1D73806624F601EA0DFB1D048110E01C
:1034A000602A712A062D072929F00EE7601600E030
:1034B000700640F0B40143E03E2D2F2D820150DE16
:1034C000C80152C0F201068D178D9D01260D371DD2
:1034D0000217130740F4B40142E03E2D2F2D820164
:1034E0003FDEC80141C0A4013E2D2F2D8201F20113
:1034F00061817281FB013A96659174913B97FB0162
:103500000995C801062D000FF401E80FF91F00838B
:10351000019600E010E00615170530F5F201468926
:1035200057899D01220F331F420F531FFA0120813B
:103530003181232F30E0F401E80FF91F2083019639
:10354000F201468957899D01220F331F420F531FF5
:10355000FA0120813181F401E80FF91F20830196DF
:1035600011960F5F1F4FD7CF8C01E0E10C94F94308
:103570000E94E843280169014A01CB018201F2015E
:1035800021813281F9013E96259134913F97F901CD
:1035900009955801F601EA0DFB1D3197F080F601FF
:1035A000EA0DFB1DE080F601EA0DFB1DB181A0E0F4
:1035B000F601EA0DFB1D028110E0A02BB12BF601F4
:1035C000EA0DFB1D73806624F601EA0DFB1D0481E4
:1035D00010E0602A712A062D072929F00EE76016EF
:1035E00000E0700640F0B40143E03E2D2F2D820133
:1035F000B7DDC80152C0F20100A111A19D01260D45
:10360000371D0217130740F4B40142E03E2D2F2D61
:103610008201A6DDC80141C0A4013E2D2F2D8201EB
:10362000F20161817281FB013A96659174913B9739
:10363000FB010995C801062D000FF401E80FF91FE1
:103640000083019600E010E00615170530F5F20141
:10365000408D518D9D01220F331F420F531FFA01E0
:1036600020813181232F30E0F401E80FF91F2083FE
:103670000196F201408D518D9D01220F331F420FA3
:10368000531FFA0120813181F401E80FF91F2083D3
:10369000019611960F5F1F4FD7CF8C01E0E10C947C
:1036A000F9430E94E843580129016A01CB018501D1
:1036B000F50121813281F9013E96259134913F97A0
:1036C000F90109953801F201E60DF71D3197F080F7
:1036D000F201E60DF71DE080F201E60DF71D918085
:1036E0008824F201E60DF71D028110E0802A912A5C
:1036F000F501028D138D8016910640F0B60142E06F
:103700003E2D2F2D85012CDDC8012EC0F201E60DC6
:10371000F71DB381A0E0F201E60DF71D048110E072
:10372000A02BB12BA0300FEFB00751F4940101E0B2
:103730000E945C38AC01920186010E94104414C0C2
:103740000A2F0B2B51F4940100E00E945C38AC016D
:10375000920186010E94104407C0B60143E03E2D4D
:103760002F2D8501FDDCC8018C01E0E10C94F943AB
:103770000E94EA432801C9015A014B018201F2016A
:1037800021813281F9013E96259134913F97F901CB
:103790000995D801FC01EA0FFB1F3197D080FC018D
:1037A000EA0FFB1FC080FC01EA0FFB1F718066243B
:1037B000FC01EA0FFB1F028110E0602A712AF2016E
:1037C000068D178D6016710640F0B50142E03C2D64
:1037D0002D2D8201C5DC48011CC0FC01EA0FFB1F36
:1037E000538140E0FC01EA0FFB1F048110E0402BF5
:1037F000512BF201268937898301000F111F200FF9
:10380000311FF90140835183A4019C0185010E946D
:1038100010448401EEE00C94FB430E94E84328012D
:1038200039016A01CB018201F20121813281F90162
:103830003E96259134913F97F90109954801F3018E
:10384000E80DF91D3197F080F301E80DF91DE080D6
:10385000F301E80DF91DB180AA24F301E80DF91D6B
:10386000028110E0A02AB12AF301E80DF91DB3810D
:10387000A0E0F301E80DF91D048110E0A02BB12BAD
:103880000A2F0B2B21F0A13B07E0B00740F0B60157
:1038900043E03E2D2F2D820163DCC80134C0F201CC
:1038A000028D138D95012A0F3B1F0217130740F459
:1038B000B60142E03E2D2F2D820152DCC80123C00B
:1038C000A5019D018301080D191D0A5F1F4F0E946C
:1038D0002338A6013E2D2F2D8201F20161817281D4
:1038E000FB013A96659174913B97FB010995C801DC
:1038F00044E050E09301280F391F8601080F191F7B
:103900000E94104404968C01E0E10C94F9430E945B
:10391000E843480129016A013B018401F401218146
:103920003281F9013E96259134913F97F90109952D
:10393000C801F201E80FF91F3197F080F201E80F9A
:10394000F91FE080F201E80FF91FB181A0E0F20158
:10395000E80FF91F028110E0A02BB12BF201E80F54
:10396000F91FB380AA24F201E80FF91F048110E0C7
:10397000A02AB12A0A2D0B2929F00CE7A01600E095
:10398000B00640F0B60143E03E2D2F2D8401E8DB68
:1039900038014FC0F401068D178D9D012A0D3B1D86
:1039A0000217130740F4B60142E03E2D2F2D84018B
:1039B000D7DB38013EC020E030E02A153B05E0F4BB
:1039C000F201E80FF91F568140E0F201E80FF91FFC
:1039D000078110E0402B512BF401668977898D0116
:1039E000000F111F600F711FFB014083518311965F
:1039F00002962F5F3F4FE1CFA6013E2D2F2D840170
:103A0000F40161817281FB013A96659174913B9753
:103A1000FB010995380144E050E09201260D371D65
:103A20008601060D171D0E94104404E0600E00E0A0
:103A3000701E8301E0E10C94F94308010FEF1FEFC2
:103A40000895080100E010E008950E94EC43280169
:103A50004901DA01CB018201F20121813281F901B0
:103A60003E96259134913F97F90109953801F4016B
:103A7000E60DF71D3197B080F401E60DF71DA0802B
:103A8000AD013A2D2B2D8201F20161817281FB0182
:103A90003A96659174913B97FB010995C801FD0128
:103AA000E80FF91F03E000830196FD01E80FF91FFD
:103AB00000E200830196FD01E80FF91F07E0008393
:103AC0000196FD01E80FF91F02E3008301968C01C6
:103AD000ECE00C94FD430E94E84338014901DA010F
:103AE000CB018301F30121813281F9013E962591B9
:103AF00034913F97F90109952801F401E40DF51D72
:103B00003197B080F401E40DF51DA080F401E40DBF
:103B1000F51DE280FF248C0106501040E016F106EE
:103B200041F0BD0142E03A2D2B2D830119DBC80184
:103B30002CC1AD013A2D2B2D8301F30161817281DE
:103B4000FB013A96659174913B97FB010995C80179
:103B5000F401E40DF51D0381005049F00A9579F157
:103B60000A9509F49DC00A9509F4E0C007C1FD015A
:103B7000E80FF91F00E000830196FD01E80FF91F2F
:103B800004E000830196F401E40DF51D0381FD01BD
:103B9000E80FF91F00830196FD01E80FF91F02E00D
:103BA00000830196FD01E80FF91F00E000830196F4
:103BB000FD01E80FF91F02E000830196E6C0F40161
:103BC000E40DF51D0481C02E0E94BD0D0C1540F4BE
:103BD000BD0142E03A2D2B2D8301C2DAC801D5C0C8
:103BE000CC20B9F52C2D8D01040D151D0B5F1F4F39
:103BF0000E943A0E2091C90CFD01E40DF51D2583AC
:103C00002091C80CFD01E40DF51D2683FD01E40D96
:103C1000F51D20E32783FD01E80FF91F20E0208335
:103C20000196202F2E5FFD01E80FF91F20830196DA
:103C3000F401E40DF51D2381FD01E80FF91F208338
:103C40000196FD01E80FF91FC0820196800F911FB8
:103C50009CC02C2D8D01040D151D0B5F1F4F0E9464
:103C60003A0E9801FD01E80FF91F00E0008301966C
:103C7000022F0E5FFD01E80FF91F00830196F4018A
:103C8000E40DF51D0381FD01E80FF91F0083019686
:103C9000FD01E80FF91FC0820196820F931F75C0C6
:103CA000F401E40DF51D0481C02E0E94BD0D0C151C
:103CB00040F4BD0142E03A2D2B2D830151DAC801B9
:103CC00064C00C2D0E94460E9801F401E40DF51D10
:103CD000028110E0025010400217130741F0BD01AD
:103CE00043E03A2D2B2D83013BDAC8014EC02C2D29
:103CF0008401040D151D0B5F1F4F0E94560E012BF2
:103D000069F00E94140E03E10E945018BD0145E0C5
:103D10003A2D2B2D830124DAC80137C0BD0147E0BD
:103D20003A2D2B2D83011CDAC8012FC00E94BA0D39
:103D3000033081F4AD013A2D2B2D8301F301618114
:103D40007281FB013A96659174913B97FB0109954D
:103D5000C8011BC00E94BA0D013041F4BD0146E00C
:103D60003A2D2B2D8301FCD9C8010FC0BD0141E0C4
:103D70003A2D2B2D8301F4D9C80107C0BD0141E0C4
:103D80003A2D2B2D8301ECD9C8018C01E0E10C9474
:103D9000F9430E94EC43D80149012A01CB018D016E
:103DA000FD0121813281F9013E96259134913F97A1
:103DB000F90109953801F401E60DF71D3197B0803E
:103DC000F401E60DF71DA0800E94BA0D033081F4C6
:103DD000A2013A2D2B2D8D01FD0161817281FB0124
:103DE0003A96659174913B97FB010995C80113C000
:103DF0000E94BA0D013041F4B20146E03A2D2B2D5C
:103E00008D01AED9C80107C0B20141E03A2D2B2D7A
:103E10008D01A6D9C8018C01ECE00C94FD430E94F1
:103E2000E943D80129013A015B018D01FD0121819E
:103E30003281F9013E96259134913F97F901099518
:103E40004801F201E80DF91D3197C080F201E80D3B
:103E5000F91DE080C501DC2CDD0CDD08FD010581CC
:103E600010E0C016D10629F0CC2019F000E010E0D7
:103E700070C00E2D102F110F110BEAE2F0E0FBBF06
:103E8000F9E00C94AB43BC01A30192018D01C3D9AD
:103E9000C8015BC0BC01A30192018D0146DAC801D3
:103EA00054C0BC01A30192018D01C9DAC8014DC003
:103EB000BC01A30192018D015BDBC80146C0BC01BE
:103EC000A30192018D01EDDBC8013FC0BC01A3013C
:103ED00092018D014DDCC80138C0BC01A3019201E3
:103EE0008D01ABDDC80131C0BC01A30192018D0180
:103EF00094DCC8012AC0BC01A30192018D0149DFF5
:103F0000C80123C0BC01A30192018D0100DDC801DD
:103F10001CC0BC01A30192018D0197DDC80115C031
:103F2000BC01A30192018D018CDDC8010EC0BC0152
:103F3000A30192018D01CFDDC80107C0B30141E0AB
:103F40003E2D2C2D8D010CD9C801FD01848795874C
:103F50008C01EFE00C94FA43B80101E010E0089501
:103F60000E94EC43D80129013A018D01FD01218114
:103F70003281F9013E96259134913F97F9010995D7
:103F8000C801F201E80FF91F31979080F201E80FA4
:103F9000F91F80805301FD010681091591F4FD018F
:103FA0000781081571F402E0801641F4A501920121
:103FB000280F391F2E5F3F4F8D01CEDF01E010E04B
:103FC0002DC08D01FD0121813281F901709625916D
:103FD00034917197F901099598018C01020F131F13
:103FE0000E5F1F4FA016B10631F487FA16F401E0F8
:103FF00003C000E001C000E0002371F0F201E80F0F
:10400000F91F21812C302CF4022F102F110F110BCE
:1040100005C00EE010E002C001E010E0ECE00C94FE
:10402000FD43980101E010E00895980102E010E0DE
:1040300008950E94F243C801D9010A2F0B2B11F4F5
:1040400001E001C000E0002379F00BEA402E04E01B
:10405000502EDC011F96FC01A587B6878C01015FFD
:104060001F4F0E94591806C0FC0143845484FC0170
:10407000A587B68703E714E0FC0103871487F201E4
:10408000059114913197FD01018312838C01E6E0C3
:104090000C9403440E94F443C801D901082F092B52
:1040A00079F00A2F0B2B39F020E030E08C01015F12
:1040B0001F4F0E946818A0FB1EF48C010E940E4343
:1040C000E4E00C9405440F501040E4CF0E94E84314
:1040D000229728833983D8012A013B018D889E8845
:1040E0008F89988DED8CFE8CCF8CD8A0A9A0BAA01A
:1040F000088119810D931C931197FD01428253820F
:10410000648275820A89FD0100870B89FD0106839F
:104110000C89FD010783FD0105851685F80186865A
:104120009786FD0105851685F801808B918B298D79
:104130003A8DFD0105851685F801228B338B2B8D79
:104140003C8DFD0105851685F801248B358BFD011D
:1041500005851685F801E68AF78AFD01058516852D
:10416000F801C08ED18EFD0105851685F801A28E5D
:10417000B38E2BA13CA1FD0105851685F801248F86
:10418000358F2DA13EA1FD0105851685F801268FED
:10419000378F2FA138A5FD0105851685F80120A3CD
:1041A00031A3FD01428153816481758100E412E4F1
:1041B0002FE030E00E94864340E250E060E070E093
:1041C0000E9458430801190148EE53E060E070E096
:1041D000800191010E9486430F5F1F4FFD010187FF
:1041E0001287FD0105851685F801428D538D20E06B
:1041F00030E0FD0105851685F801028913890E94CA
:104200002044FD0105851685F801448D558D20E07B
:1042100030E0FD0105851685F801048915890E94A5
:104220002044FD0105851685F80140A151A1440FE8
:10423000551F20E030E0FD0105851685F801008D51
:10424000118D0E9420449A938A939A928A92FD013A
:1042500007810A93FD013681FD012085FD01428120
:104260005381648175810D911C9111970E940030DA
:104270002296E7E20C94F943BA93AA93D8010D91E0
:104280001C9111970E943530A991B9910895BA9364
:10429000AA93D8010D911C9111970E944430A991C5
:1042A000B9910895BA93AA93D8010D911C911197D1
:1042B0000E945530A991B9910895BA93AA93D80153
:1042C0000D911C9111970E948330A991B991089585
:1042D000BA93AA93D8010D911C9111970E949E3018
:1042E000A991B99108950E94F2432801D901CA0108
:1042F0009C018D010E94480D9801022FFD01E80FDD
:10430000F91F008301968901012F10E0FD01E80FDC
:10431000F91F008301968C01E6E00C9403440F50D2
:104320001040E1CF1D010801E881F981208331832C
:104330008A01012F10E00283042F03838B01012FD8
:1043400010E00483062F058306E010E0D1012296D9
:1043500008950F501040E6CFB801FA012083FA010A
:10436000318302E010E008950F501040F5CF0E9415
:10437000F243D8012901CA01AC0192010D911C91AF
:1043800011970E94B230E6E00C9403440F501040A5
:10439000EECFBA93AA93D8010D911C9111970E9468
:1043A000CD24A991B9910895BA93AA93D8010D91FA
:1043B0001C9111970E94CA24A991B99108950E9455
:1043C000F243D8012901CA01AC0192010D911C915F
:1043D00011970E94BA30E6E00C9403440E94F44323
:1043E000D801C9010E94D024FD0125853685F90137
:1043F00022853385021B130B0817190710F001E003
:1044000001C000E0E4E00C940544BA93AA93D801FB
:104410000E94D024FD0125853685F9010287138786
:10442000A991B99108950E94EE434801D901CA01AA
:10443000843000E0900710F400E021C0FD01E80F97
:10444000F91F319750804424FD01E80FF91F32977E
:10445000008110E0402A512A9C01225030408D01F9
:104460000E94480D38019C01225030408D010E946D
:10447000480D0415150511F401E001C000E0EAE063
:104480000C94FF430E94F443D801FD010585168575
:104490000E94390CEEE5F0E0FBBFF9E00C94AB4371
:1044A0008D01EADE8D01F3DE23E0FD010585168531
:1044B0000E94360C59C28D01A8DFFD0105851685C5
:1044C000F80100E0048700E0058724E0FD01058590
:1044D00016850E94360C48C28D0166DF0023F1F17B
:1044E00040E051E0FD0105851685F801048515853C
:1044F000401B510BFD0105851685F8012685378582
:10450000FD0105851685F80104851585200F311FED
:104510008D0155DFC801813000E090079CF0FD015E
:1045200005851685F80104851585080F191F048770
:1045300015878D016ADF25E0FD01058516850E943E
:10454000360C0CC08F3F0FEF900741F48D0194DEC5
:1045500023E0FD01058516850E94360C28E93AE323
:104560008D013CDF002341F08D0186DE23E0FD015B
:10457000058516850E94360CF7C18D0115DF0023D5
:10458000C1F140E051E0FD0105851685F801048583
:104590001585401B510BFD0105851685F801268503
:1045A0003785FD0105851685F80104851585200FE1
:1045B000311F8D0104DFC801813000E090076CF0ED
:1045C000FD0105851685F80104851585080F191F5D
:1045D000048715878D0119DF0CC08F3F0FEF9007FF
:1045E00041F48D0149DE23E0FD01058516850E9419
:1045F000360CFD01218532858D01F0DE0023F9F0B6
:10460000FD0105851685F80144855585FD01058563
:104610001685F801268537858D0105DF002339F0E1
:1046200026E0FD01058516850E94360C9DC18D0191
:1046300023DE23E0FD01058516850E94360C94C11A
:10464000FD0105851685F80164857585FD010585E3
:104650001685F80140895189FD0105851685F80107
:1046600026853785FD01058516850E940F1F012BC4
:1046700049F00E94D52427E0FD01058516850E949A
:10468000360C72C10E94D7248D01F6DD23E0FD01B6
:10469000058516850E94360C67C18D01B6DE8D0139
:1046A000EBDD28E0FD01058516850E94360C5CC116
:1046B00024E630E08D0192DE0023C9F0FD0105857E
:1046C0001685F80144855585FD0105851685F80197
:1046D00020893189FD01058516850E948D188D017F
:1046E000ECDD29E0FD01058516850E94360C3CC1F4
:1046F0008D014FDE002341F00E94D72423E0FD010D
:10470000058516850E94360C2FC18D01CBDD20E07A
:10471000FD01058516850E94360C26C18D0175DECA
:104720008D01AADDFD0105851685F80100E00487ED
:1047300000E005878D01ABDD2DE0FD0105851685C7
:104740000E94360C11C18D012FDE0023E1F140E003
:1047500051E0FD0105851685F80104851585401B8E
:10476000510BFD0105851685F80126853785FD016C
:1047700005851685F80104851585200F311F8D01EB
:104780001EDEC801813000E090079CF08D013DDE07
:10479000FD0105851685F80104851585080F191F8B
:1047A000048715872EE0FD01058516850E94360CCD
:1047B0000AC08F3F0FEF900731F423E1FD0105851B
:1047C00016850E94360C28EE33E08D0107DE0023AB
:1047D00031F023E1FD01058516850E94360CC4C029
:1047E0008D01E2DD0023B1F140E051E0FD010585DE
:1047F0001685F80104851585401B510BFD010585C3
:104800001685F80126853785FD0105851685F80191
:1048100004851585200F311F8D01D1DDC801813040
:1048200000E090076CF08D01F0DDFD010585168537
:10483000F80104851585080F191F048715870AC01C
:104840008F3F0FEF900731F423E1FD0105851685B9
:104850000E94360CFD01218532858D01BFDD0023CC
:10486000E9F0FD0105851685F80144855585FD01B2
:1048700005851685F801268537858D01D4DD002351
:1048800039F02FE0FD01058516850E94360C6CC0BD
:1048900023E1FD01058516850E94360C65C0FD01EA
:1048A00005851685F80144855585FD010585168524
:1048B000F80126853785FD01058516850E94B01F04
:1048C000012B39F023E1FD01058516850E94360C88
:1048D0004BC023E1FD01058516850E94360C44C0BE
:1048E0008D0193DD8D01C8DC0E94D52421E1FD01FD
:1048F000058516850E94360C37C024E630E08D0110
:104900006DDD002389F1FD0105851685F8014485DB
:104910005585FD0105851685F80120893189FD0140
:10492000058516850E948D188D01C7DC22E1FD01E9
:10493000058516850E94360C17C08D012ADD0023DF
:1049400099F08D01C5DC0E94D7242CE0FD0105857E
:1049500016850E94360C08C08D01A4DC20E0FD0104
:10496000058516850E94360CE4E00C9405440F5032
:10497000104088CD980101E010E008950F501040DC
:104980000C94BA24980102E010E008950F501040F2
:104990000C94C224F80102A50895F80103A5089516
:1049A000EDE7F8E0008111810895DB980895DB9A26
:1049B00008950E94F443D801822F8D01055F1F4F97
:1049C0000E94A41103EC14E0FD010187128709EC99
:1049D00014E0FD01048715878C9320E08D01055FAD
:1049E0001F4F0E94360C8D01E4E00C9405440E9498
:1049F000F443C801D901082F092B61F020E030E011
:104A00008C01055F1F4F0E94C511A0FB1EF48C0195
:104A10000E940E43E4E00C9405440B501040E7CF95
:104A20001D01D801F9010081FD01008BF90101810F
:104A30001281FD01018B128BF90103811481FD01AB
:104A4000038B148BF90105811681FD010583168303
:104A5000F90107811085FD01058B168BF90103898A
:104A60001489FD01038F148FF90105851685FD0159
:104A7000078B108FF90140895189F901028910E0F3
:104A8000000F111F400F511FFD01418F528FF9017F
:104A90000289085F028BF90163897489F90105892C
:104AA00010E048E150E00E941643600F711FFD01C5
:104AB000638F748FF9010589085F058BF9010689F9
:104AC00017890F5F1F4FFD0107831087FD0100E06D
:104AD000058FD10108950E94F243D801FD01038999
:104AE00014890E5F1F4FC80100E0083078F4FD0103
:104AF000238D348D10E0200F311FF901208110E04B
:104B0000FC01E00FF11F20830395EFCF28E030E098
:104B10008C010E94680D2801FD0103891489065F3C
:104B20001F4FC801042DFC01008301968201012F53
:104B300010E0FC010083FD0103891489F80101E8FC
:104B40000083FD0100890E9423360AE613E001502C
:104B50001040E9F700C000004DE050E0FD0123895E
:104B60003489FD01018912890E94FE320E94483673
:104B7000FD0101891289F8010181013849F4FD0123
:104B800001891289F80104850E3711F401E001C092
:104B900000E0E6E00C9403440E94EE43D80199241F
:104BA00020E0283020F5FD01038D148D30E0020F48
:104BB000131FF80100850F3FC1F0FD01058916891B
:104BC000FD01438D548D30E0420F531FFA014085A3
:104BD00050E0040F151FF8010081002331F001E0BF
:104BE00010E0422F0E942043902A2395DACF882498
:104BF00020E0283020F5FD01038D148D30E0020FF8
:104C0000131FF80100890F3FC1F0FD0105891689C6
:104C1000FD01438D548D30E0420F531FFA0140894E
:104C200050E0040F151FF8010081002331F001E06E
:104C300010E0422F0E942043802A2395DACF55248A
:104C4000FD010381002329F0FD0100E00383689446
:104C500050F8FD010481002329F0FD0100E00483E8
:104C6000689451F8FD010181002329F0FD0100E065
:104C70000183689452F8FD010281002329F0FD01AF
:104C800000E00283689453F8FD0103891489F80158
:104C900002E40083FD01038914890E5F1F4FC801E0
:104CA000442420E02830A8F4FD01018D128D422F0C
:104CB00050E0440F551F040F151FF8010181002318
:104CC00031F001E010E0422F0E942043402A23955A
:104CD000E9CFFC0140820196442420E02830A8F46A
:104CE000FD01018D128D422F50E0440F551F040F1E
:104CF000151FF8010081002331F001E010E0422F80
:104D00000E942043402A2395E9CFFC01408201966E
:104D1000FC0190820196FC0180820196FC01508288
:104D2000019625E030E0FD01038914890E5F1F4FD5
:104D30000E94680D3801062DFC0100830196830155
:104D4000012F10E0FC0100830196FC010EE70083B7
:104D50000196FD0100890E9423360AE613E0015006
:104D60001040E9F700C000004AE050E0FD0123894F
:104D70003489FD01018912890E94FE320E94483661
:104D8000FD0101891289F8010181045209F447C02B
:104D90000E5109F04EC025E030E0FD010189128975
:104DA0000E5F1F4F0E94760D01301040BCF1FD01D7
:104DB00001891289F80101850E37D9F5FD0100E05E
:104DC000058F20E08D010E944F27FD010189128986
:104DD000F8010281402E20E02830F0F401E010E0DC
:104DE000422F0E942043142D1023112351F0FD0166
:104DF0000789108D30E0020F131FF80101E00083D6
:104E000009C0FD010789108D30E0020F131FF80162
:104E100000E000832395E0CF01E020C00AC0FD013F
:104E2000058D043130F420E08D01055F1F4F0E9495
:104E3000360CFD01058D043130F4FD01058D03951F
:104E4000058F00E00BC0FD0105811681F80102E02D
:104E5000008321E08D010E944F2700E0EAE00C94DE
:104E6000FF430E94F543C8018C01055F1F4F0E945C
:104E7000390C005019F00A9559F00DC08C012BDE49
:104E8000A02F21E08C01055F1F4F0E94360C03C04C
:104E90008C0182DEA02F0A2FE3E00C940644AD01C2
:104EA000F801A781B0852C93DA0108950E94F4439C
:104EB000D801822F8D01055F1F4F0E94A41103EEC0
:104EC00014E0FD010187128709EE14E0FD0104875B
:104ED00015878C938D01E4E00C9405440E94F44303
:104EE000C801D901082F092B61F020E030E08C01C6
:104EF000055F1F4F0E94C511A0FB1EF48C010E948C
:104F00000E43E4E00C9405440B501040E7CFBD0184
:104F1000D801F9010081FD01008BF90101811281A5
:104F2000FD01018B128BF90103811481FD01038BBB
:104F3000148BF90105811681FD0105831683F901A2
:104F400047815085F901018510E0400F511FFD0197
:104F5000458B568BF9010185085E0187F901428571
:104F60005385F901048510E0400F511FFD01478B67
:104F7000508FF9010485085E0487F90106891789B5
:104F8000FD0107831087FD0100E0018FDB0108951B
:104F90000E94F243C801DC015396ED91FC915497B5
:104FA00002E40083FC0100890E9423360AE613E034
:104FB00001501040E9F700C0000049E050E0FC015A
:104FC00023893489FC01018912890E94FE320E94E2
:104FD0004836FC0145885688FC01A789B08DFC0144
:104FE00001891289F8010181045279F10E51A9F564
:104FF00027E030E0FC01018912890F5F1F4F0E94FA
:105000009A0D013010408CF1FC0100E0018F20E08E
:105010008C010E944F2720E02630A8F4FC01018972
:10502000128930E0020F131FF801328100E00430D2
:1050300040F4132F1370369536951C9311960395F3
:10504000F6CF2395E9CF01E02DC000E0083168F4E8
:1050500014E01C9311960395F9CF00E0083128F471
:1050600014E01C9311960395F9CFFC01018D0431D6
:1050700030F4FC01018D0395018F00E013C000E0C6
:10508000083128F414E01C9311960395F9CFFC0124
:1050900005811681F80101E0008321E08C010E9466
:1050A0004F2700E0E6E00C940344F80123830895C1
:1050B000BA93AA93D8018D010E94A4110DEE14E0B9
:1050C000FD01018312838D010A5F1F4F0E941C4264
:1050D00025E28D010E94360C25E28D010E945528A3
:1050E0008D01A991B9910895BA93AA93D8018D0120
:1050F000DFDF01E115E0FD010183128325E28D016F
:105100000E94360C25E28D010E9455288D01A9913F
:10511000B9910895BA93AA93D8018D01C9DF05E327
:1051200015E0FD010183128325E28D010E94360CFA
:1051300025E28D010E9455288D01A991B99108950C
:10514000BA93AA93D8018D01B3DF03E915E0FD01FD
:105150000183128328E18D010E94360C28E18D0124
:105160000E9455288D01A991B9910895BA93AA93E7
:10517000D8018D019DDF07EB15E0FD01018312834E
:1051800025E28D010E94360C25E28D010E945528F2
:105190008D01A991B9910895BA93AA93D8018D016F
:1051A00087DF09E515E0FD010183128325E28D010A
:1051B0000E94360C25E28D010E9455288D01A9918F
:1051C000B99108950E94F443D801C9010A2F0B2B0D
:1051D000B1F00DEE14E0FD010183128322E030E016
:1051E0008D010A5F1F4F0E94374220E030E08D01A1
:1051F0000E94C51180FB1EF48D010E940E43E4E065
:105200000C940544BA93AA93D8018D010E94390CDD
:10521000ECE8F0E0FBBFF9E00C94AB438D01119694
:10522000ED91FC9112977096259134917197F90147
:10523000099598018D010A5F1F4F0E9445428D011B
:105240001196ED91FC9112973496259134913597F2
:10525000F901099529E18D010E94360C6AC28D0180
:105260000A5F1F4F0E945F42002301F18D011196DA
:10527000ED91FC9112977296259134917397F901F3
:10528000099598018D010A5F1F4F0E9445428D01CB
:105290001196ED91FC9112973C96259134913D9792
:1052A000F90109952AE18D010E94360C42C28D0157
:1052B0000A5F1F4F0E945F42002301F18D0111968A
:1052C000ED91FC9112977096259134917197F901A7
:1052D000099598018D010A5F1F4F0E9445428D017B
:1052E0001196ED91FC911297349625913491359752
:1052F000F901099529E18D010E94360C1AC28D0130
:105300001196ED91FC9112977096259134917197B9
:10531000F901099598018D010A5F1F4F0E944542CE
:105320008D011196ED91FC9112973696259134914D
:105330003797F901099522E08D010E94360CF9C1D9
:105340008D010A5F1F4F0E945F42002321F021E080
:105350008D010E94360CEDC18D011196ED91FC91ED
:1053600012977496259134917597F90109959801D2
:105370008D010A5F1F4F0E9445428D011196ED91EC
:10538000FC9112973896259134913997F901099536
:1053900028E08D010E94360CCCC18D010A5F1F4FA1
:1053A0000E945F42002301F18D011196ED91FC9165
:1053B00012977696259134917797F901099598017E
:1053C0008D010A5F1F4F0E9445428D011196ED919C
:1053D000FC9112973C96259134913D97F9010995DE
:1053E00029E08D010E94360CA4C18D010A5F1F4F78
:1053F0000E945F42002301F18D011196ED91FC9115
:1054000012977496259134917597F9010995980131
:105410008D010A5F1F4F0E9445428D011196ED914B
:10542000FC9112973896259134913997F901099595
:1054300028E08D010E94360C7CC18D011196ED9102
:10544000FC9112977896259134917997F9010995F5
:1054500098018D010A5F1F4F0E9445428D011196F0
:10546000ED91FC9112973A96259134913B97F90171
:1054700009952EE08D010E94360C5BC18D010A5FFB
:105480001F4F0E945F42002301F18D011196ED91A3
:10549000FC9112977A96259134917B97F9010995A1
:1054A00098018D010A5F1F4F0E9445428D011196A0
:1054B000ED91FC9112973C96259134913D97F9011D
:1054C00009952FE08D010E94360C33C18D010A5FD2
:1054D0001F4F0E945F42002301F18D011196ED9153
:1054E000FC9112977896259134917997F901099555
:1054F00098018D010A5F1F4F0E9445428D01119650
:10550000ED91FC9112973A96259134913B97F901D0
:1055100009952EE08D010E94360C0BC18D0111966C
:10552000ED91FC9112977C96259134917D97F9012C
:10553000099598018D010A5F1F4F0E9445428D0118
:105540001196ED91FC9112973A96259134913B97E3
:10555000F901099524E18D010E94360CEAC08D0104
:105560000A5F1F4F0E945F42002301F18D011196D7
:10557000ED91FC9112977E96259134917F97F901D8
:10558000099598018D010A5F1F4F0E9445428D01C8
:105590001196ED91FC9112973C96259134913D978F
:1055A000F901099525E18D010E94360CC2C08D01DB
:1055B0000A5F1F4F0E945F42002301F18D01119687
:1055C000ED91FC9112977C96259134917D97F9018C
:1055D000099598018D010A5F1F4F0E9445428D0178
:1055E0001196ED91FC9112973A96259134913B9743
:1055F000F901099526E18D010E94360C9AC08D01B2
:105600000A5F1F4F0E945F42002301F18D01119636
:10561000ED91FC911297B09625913491B197F901D3
:10562000099598018D010A5F1F4F0E9445428D0127
:105630001196ED91FC9112973C96259134913D97EE
:10564000F901099527E18D010E94360C72C08D0188
:105650000A5F1F4F0E945F42002301F18D011196E6
:10566000ED91FC9112977C96259134917D97F901EB
:10567000099598018D010A5F1F4F0E9445428D01D7
:105680001196ED91FC9112973A96259134913B97A2
:10569000F901099524E18D010E94360C4AC08D0163
:1056A0001196ED91FC911297B29625913491B39792
:1056B000F901099598018D010A5F1F4F0E9445422B
:1056C0008D011196ED91FC911297389625913491A8
:1056D0003997F90109952FE18D010E94360C29C0F7
:1056E0008D010A5F1F4F0E945F42002311F18D015F
:1056F0001196ED91FC9112973C96259134913D972E
:10570000F90109958D010E94E52E202F8D010E943F
:10571000360C0FC08D011196ED91FC9112973C96BD
:10572000259134913D97F901099520E08D010E9462
:10573000360CA991B99108950E94F443C801D9018A
:10574000082F092B69F025E28C010E94360C20E01D
:1057500030E08C0137DDA0FB1EF48C010E940E436B
:10576000E4E00C9405440E94F543C801A22F8C018B
:105770000E94390C202F8C010E9455280A2F0050BE
:1057800079F00A9591F00A95A9F00A95C1F00A9569
:10579000D1F00A95C1F00250B1F00A95A1F013C002
:1057A00025E28C010E94360C0EC021E08C010E9483
:1057B000360C09C027E08C010E94360C04C027E09B
:1057C0008C010E94360CE3E00C94064408959A93F1
:1057D0008A93C80101E00E94EB3E89919991089556
:1057E0009A938A93C80102E00E94EB3E89919991B5
:1057F000089508959A938A93C80102E00E94153F84
:105800000E94CD358991999108950E94F443C80171
:10581000D901082F092B69F025E28C010E94360C72
:1058200020E030E08C01CEDCA0FB1EF48C010E9455
:105830000E43E4E00C9405440E94F543C801A22FF6
:105840008C010E94390C202F8C010E9455280A2FB0
:10585000005079F00A9591F00A95A9F00A95C1F0E7
:105860000A95D1F00A95C1F00250B1F00A95A1F065
:1058700013C025E28C010E94360C0EC021E08C0181
:105880000E94360C09C025E28C010E94360C04C02F
:105890002DE08C010E94360CE3E00C940644089540
:1058A0009A938A93C80101E00E94EB3E89919991F5
:1058B000089508959A938A93C80103E00E94EB3EED
:1058C0008991999108959A938A93C80103E00E945F
:1058D000153F0E94CD358991999108950E94F44316
:1058E000C801D901082F092B69F025E28C010E941B
:1058F000360C20E030E08C0165DCA0FB1EF48C014E
:105900000E940E43E4E00C9405440E94F543C80154
:10591000A22F8C010E94390C202F8C010E94552847
:105920000A2F005079F00A9591F00A95A9F00A958E
:10593000C1F00A95F9F00A95E9F00250B9F00A951C
:10594000C9F018C028E18C010E94360C13C028E170
:105950008C010E94360C0EC027E08C010E94360C90
:1059600009C02DE08C010E94360C04C023E18C019B
:105970000E94360CE3E00C9406449A938A93C80183
:105980000E94582F89919991089508959A938A9326
:10599000C8010E94582F8991999108959A938A93EA
:1059A000C8010E94582F8991999108959A938A93DA
:1059B000C8010E945A2F0E94CD358991999108956E
:1059C0000E94F443C801D901082F092B69F025E290
:1059D0008C010E94360C20E030E08C01F3DBA0FB50
:1059E0001EF48C010E940E43E4E00C9405440E94D6
:1059F000F543C801A22F8C010E94390C202F8C0185
:105A00000E9455280A2F005079F00A9591F00A95C6
:105A1000A9F00A95C1F00A9521F10A9511F10250F9
:105A2000B9F00A95D1F01DC025E28C010E94360C18
:105A300018C025E28C010E94360C13C027E08C01AF
:105A40000E94360C0EC02DE08C010E94360C09C05D
:105A500023E18C010E94360C04C02EE18C010E94CF
:105A6000360CE3E00C9406449A938A93C8010E9492
:105A7000350D8991999108959A938A93C8010E944E
:105A8000350D8991999108959A938A93C8010E943E
:105A9000230D8991999108959A938A93C8010E9440
:105AA0002C0D8991999108959A938A93C8010E9427
:105AB000350D0E94CD358991999108950E94F44346
:105AC000C801D901082F092B69F025E28C010E9439
:105AD000360C20E030E08C0175DBA0FB1EF48C015D
