:100000000C9463421895189518951895189518959D
:100010001895189518951895189518951895189578
:10002000189518950C94DF32189518951895189511
:100030001895189518951895189518951895189558
:100040001895189518951895189518951895189548
:1000500018951895189518950C949D311895189524
:100060001895189518951895189518951895189528
:1000700018951895189518950C94FE300C94BA3074
:100080000C94D83018951895189518950000000014
:10009000E405F8052D0C300C330C7E08F8053F0CF8
:1000A000420C450C9108F805480C4B0C4E0CA4086A
:1000B000F805510C540C570CB708F8055A0C5D0C98
:1000C000600CCA08F805630C660C690CDD08F805BD
:1000D0006C0C6F0C720CF008F805750C780C7B0C2E
:1000E0000309F8057E0C810C840C1609F805870CB1
:1000F0008A0C8D0C29093C09900C930C960C380B3A
:100100003C09990C9C0C9F0C4B0B3C09A20CA50CB8
:10011000A80C5E0B3C09AB0CAE0CB10C710B850B43
:10012000B40CB70C0000000000000000000000004C
:10013000000000000000EC0CFA0C0000C1C081C1FE
:10014000400101C3C003800241C201C6C00680074E
:1001500041C70005C1C581C4400401CCC00C800D5D
:1001600041CD000FC1CF81CE400E000AC1CA81CB64
:10017000400B01C9C009800841C801D8C0188019C6
:1001800041D9001BC1DB81DA401A001EC1DE81DFCC
:10019000401F01DDC01D801C41DC0014C1D481D58D
:1001A000401501D7C017801641D601D2C012801366
:1001B00041D30011C1D181D0401001F0C030803155
:1001C00041F10033C1F381F240320036C1F681F7CC
:1001D000403701F5C035803441F4003CC1FC81FD5D
:1001E000403D01FFC03F803E41FE01FAC03A803BE6
:1001F00041FB0039C1F981F840380028C1E881E9A4
:10020000402901EBC02B802A41EA01EEC02E802F4D
:1002100041EF002DC1ED81EC402C01E4C02480258C
:1002200041E50027C1E781E640260022C1E281E3E3
:10023000402301E1C021802041E001A0C060806135
:1002400041A10063C1A381A240620066C1A681A74B
:10025000406701A5C065806441A4006CC1AC81AD5C
:10026000406D01AFC06F806E41AE01AAC06A806B65
:1002700041AB0069C1A981A840680078C1B881B9C3
:10028000407901BBC07B807A41BA01BEC07E807FCD
:1002900041BF007DC1BD81BC407C01B4C07480758C
:1002A00041B50077C1B781B640760072C1B281B363
:1002B000407301B1C071807041B00050C190819114
:1002C00040510193C053805241920196C0568057CD
:1002D00041970055C19581944054019CC05C805D5C
:1002E000419D005FC19F819E405E005AC19A819BE3
:1002F000405B0199C059805841980188C0488049A5
:100300004189004BC18B818A404A004EC18E818F4A
:10031000404F018DC04D804C418C0044C18481858B
:1003200040450187C047804641860182C0428043E4
:1003300041830041C18181804040000000000000F5
:1003400000000000000000000000000000000000AD
:10035000000000000000000000000000000000009D
:10036000000000000000A411B211B311B21100008E
:10037000000000000000000000000000000000007D
:10038000000000000000000000000000000000006D
:10039000000000000000000000005812B2116C12B2
:1003A000B211F81447150000000000000000000022
:1003B000000000000000000000000000303C202D84
:1003C000101C000D313D212C111D010C343E242B3D
:1003D000141E040B353F252A151F050A3639262918
:1003E000161906093738272817180708D416B21126
:1003F00000000000000000000000000000000000FD
:10040000000000000000F4160717000000000000C4
:1004100000000000000000000000000000000000DC
:10042000C517B211DC17BE44BE44BE44BE446E1FA5
:10043000721F00000000000000000000000000002B
:100440000000000000000000A71FEF200921D020BD
:100450001421992113241B24C01F1024DC17EC2025
:1004600006211121232117241F2400000000000071
:10047000000000000000000000000000000000007C
:100480005804000000000000000000000000000010
:100490000000000000000000752496265C247224F1
:1004A000B211000000000000000000000000000089
:1004B0000000000000000000EC262D27D326E926CE
:1004C000B21147286728BE44BE44BE44BE44BE4461
:1004D000BE444D2E512E552E592E5D2E612E652E69
:1004E000692E6D2E712E012B67284B2B4C2B552B13
:1004F0005E2B5F2B182B752E792E7D2E812E852E4F
:10050000892E652E692E6D2E712E6A2B6728B42BCD
:10051000B52BBE2BBF2BC82B812B8D2E912E952E4C
:10052000992E9D2EA12E652E692E6D2E712EC32C17
:10053000132DDB2CE62CF12CFC2C072DDA2CA52E10
:10054000A92EAD2EB12EB52EB92E652E692E6D2E8B
:10055000712E0000000000000000000000000000FC
:100560000000000000000000D32B6728222C2A2C5A
:100570002B2C332C3B2CEA2B4D2E512E552E592E45
:100580005D2E612E652E692E6D2E712E452C6728ED
:10059000992CA12CA92CB12CB92C5C2C4D2E512EB0
:1005A000552E592E5D2E612E652E692E6D2E712EC3
:1005B000272F1C31753200000000000000000000F1
:1005C00000000000000000000000000015320201E1
:1005D00030000000000000000000000000000000EB
:1005E00000006F0A012F0873060000171B000000AF
:1005F00000000000000000000000000000BEF0004D
:100600000102030405060708090A0B0C0D0E0F1062
:100610001112131415161718191A1B1C1D1E1F2052
:100620002122232425262728292A2B2C2D2E2FFF73
:10063000FFFFFFFFFFFFFFFFFFFFFFFFFFFFFFFFCA
:10064000FFFFFFFFFFFFFFFFFFFFFFFFFFFFFFFFBA
:10065000FFFFFFFFFFFFFFFFFFFFFFFFFFFFFFFFAA
:10066000FFFFFFFFFFFFFFFFFFFFFFFFFFFFFFFF9A
:10067000FFFFFFFFFFFFFFFFFFFFFFFFFFFFFFF990
:100680005A030303030303030303030303030303E3
:100690000303030303030303030202020202020231
:1006A000020202020202020202020202020202022A
:1006B000020202020202020202020202020202021A
:1006C0000239413E3E3E3E3C3C3C3CFFFFFFFFFFCB
:1006D000FFFFFFFFFFFFFFFFFFFFFF4B6F01020464
:1006E0000810204080000000000000000000000012
:1006F00000000000000000000000000000000000FA
:1007000000000000000000000000000000000000E9
:1007100000000000000000000000000000000000D9
:1007200000000000000000000000000000000000C9
:1007300000000000000000000000000000000000B9
:1007400000000000000000000000000000000000A9
:100750000000000000000000000000000099E80117
:100760000102100020000000000000000000000056
:100770000000000000000000000000000000000079
:100780000000000000000000000000000000000069
:100790000000000000000000000000000000000059
:1007A0000000000000000000000000000000000049
:1007B00023E20101050000FF00000000000000002E
:1007C0000000000000000000000000000000000029
:1007D0000000000000000000000000000000000019
:1007E0000000000000000000000000000000000009
:1007F00000000000000000000000000000000000F9
:100800000000007B9C0101050100FF0000000000CA
:1008100000000000000000000000000000000000D8
:1008200000000000000000000000000000000000C8
:1008300000000000000000000000000000000000B8
:1008400000000000000000000000000000000000A8
:10085000000000000000FB6C000000000000000031
:10086000400B0000000000000000400B00140000DE
:100870000107160002101F00038031000440B3007E
:100880000518F50006800F01075191010851E40198
:10089000095137020A088A020B089402000000007E
:1008A0000000000000000000000000000000000048
:1008B000000001010101010101010100000000002F
:1008C0000001010000000000000101000000000024
:1008D000000101000000000000010101010101010F
:1008E0000101A64100007B080A007B08D906BD076C
:1008F0007B07E307030828087B084E086708010107
:10090000FB1EA01E01A71E01AE1E01B51E01BC1ECE
:1009100001C31E01CA1E07D81E01D11E01DF1E0120
:10092000E61E06ED1E2A021F03021F01021F01F42C
:100930001EFB00000D2414000D240D24A721B2215C
:10094000C32114227722A422AF22CF22DE220D243B
:10095000E722FC224923A823C923D623F623052412
:100960000001FE2AFE2A01E42801052905112901BA
:100970003229015A2904822901A32901CB2904F330
:100980002901142A013C2A01642A018C2A017328B6
:1009900001942801BC2804B42A01D52A06EF2AFBB9
:1009A0000000E5401600C63FE540E53F01402D4010
:1009B0003840E540E540E540E540E54043404F40F4
:1009C00051405E4081408340A540A740B640C840AA
:1009D000DF40540E7D33BA93AA93D8018D010E9453
:1009E000891100E910E0FD01018312838D01A991B5
:1009F000B9910895BA93AA93D8018D01ECDF0AE961
:100A000010E0FD010183128320E08D010E94240C7F
:100A10008D01A991B9910895BA93AA93D8018D0136
:100A2000DADF04EA10E0FD010183128321E08D0189
:100A30000E94240C8D01A991B9910895BA93AA93AB
:100A4000D8018D01C8DF0EEA10E0FD010183128399
:100A500021E08D010E94240C8D01A991B991089586
:100A6000BA93AA93D8018D01B6DF08EB10E0FD011F
:100A70000183128321E08D010E94240C8D01A99134
:100A8000B9910895BA93AA93D8018D01A4DF02EC1D
:100A900010E0FD010183128321E08D010E94240CEE
:100AA0008D01A991B9910895BA93AA93D8018D01A6
:100AB00092DF0CEC10E0FD010183128321E08D0137
:100AC0000E94240C8D01A991B9910895BA93AA931B
:100AD000D8018D0180DF06ED10E0FD010183128356
:100AE00021E08D010E94240C8D01A991B9910895F6
:100AF000BA93AA93D8018D016EDF00EE10E0FD01DC
:100B00000183128321E08D010E94240C8D01A991A3
:100B1000B9910895BA93AA93D8018D015CDF0AEECA
:100B200010E0FD010183128321E08D010E94240C5D
:100B30008D01A991B9910895BA93AA93D8018D0115
:100B40004ADF04EF10E0FD010183128321E08D01F3
:100B50000E94240C8D01A991B9910895BA93AA938A
:100B6000D8018D01E9DF0EEF10E0FD010183128352
:100B700021E08D010E94240C8D01A991B991089565
:100B8000BA93AA93D8018D01D7DF08E011E0FD01E7
:100B90000183128321E08D010E94240C8D01A99113
:100BA000B9910895BA93AA93D8018D01C5DF02E1E6
:100BB00011E0FD010183128321E08D010E94240CCC
:100BC0008D01A991B99108950E946343C801D9018B
:100BD000082F092B51F020E030E08C010E94A41175
:100BE000A0FB1EF48C010E947D42E4E00C9474434F
:100BF0000E946343D80183E08D010E94360C0E945D
:100C00000C3D0770043011F483E0CAC08D01FD0172
:100C100021813281F9013896259134913997F90172
:100C20000995002311F001E001C000E0002309F460
:100C300060C08D010E94360C0E940C3D005049F0AE
:100C40000A9539F00A9509F44CC00A9509F449C08F
:100C5000A7C08D010E94360C0E940C3D037000233A
:100C6000E1F48D010E94360C10E00E94FC3C8D01E5
:100C7000FD0121813281F901369625913491379712
:100C8000F9010995002311F001E001C000E0002303
:100C900011F081E085C080E083C08D010E94360C98
:100CA0000E940C3D03700130D9F48D010E94360C76
:100CB00011E00E94FC3C8D01FD0121813281F9018E
:100CC0003696259134913797F9010995002311F053
:100CD00001E001C000E0002311F080E061C081E08C
:100CE0005FC082E08D010E94360C10E00E94FC3C47
:100CF00057C08D010E94360C0E940C3D03700230DB
:100D000041F08D010E94360C0E940C3D03700130B1
:100D1000E1F48D010E94360C10E00E94FC3C8D0134
:100D2000FD0121813281F901369625913491379761
:100D3000F9010995002311F001E001C000E0002352
:100D400011F081E02DC080E02BC08D010E94360C97
:100D50000E940C3D0370033041F08D010E94360C5F
:100D60000E940C3D03700023D9F48D010E94360CC3
:100D700011E00E94FC3C8D01FD0121813281F901CD
:100D80003696259134913797F9010995002311F092
:100D900001E001C000E0002311F080E001C081E02B
:100DA0008D010E94270CE4EEF0E0FBBFF8E00C940C
:100DB0001A438D01FD0121813281F9013896259177
:100DC00034913997F9010995002311F001E001C030
:100DD00000E0002309F44BC0823029F428E08D01A3
:100DE0000E94240C88C1813009F085C18D010E94C8
:100DF0003C0C21E00E94EE3B8D01FD0121813281FE
:100E0000F9013496259134913597F9010995902F80
:100E10008D010E94390C192F0E946E3D8D01FD013C
:100E200021813281F9013496259134913597F90168
:100E30000995902F8D010E94390C192F0E947B3D3E
:100E40008D010E94390C0E94CC0C21E00E942A0CDA
:100E5000EAE3FDE0038103FF05C023E08D010E946A
:100E6000240C49C122E08D010E94240C44C1813030
:100E700009F040C08D010E943C0C21E00E94EE3B35
:100E80008D01FD0121813281F90134962591349142
:100E90003597F9010995902F8D010E94390C192F72
:100EA0000E946E3D8D01FD0121813281F901349650
:100EB000259134913597F9010995902F8D010E9464
:100EC000390C192F0E947B3D8D010E94390C0E9424
:100ED000CC0C21E00E942A0CEAE3FDE0038103FF31
:100EE00005C023E08D010E94240C05C122E08D0184
:100EF0000E94240C00C1813039F48D010E943C0C09
:100F000020E00E94EE3B1BC0882399F48D010E94D3
:100F1000390C10E00E946E3D8D010E94390C0E9438
:100F2000CC0C20E00E942A0C21E08D010E94240CB0
:100F3000E2C0823021F428E08D010E94240C0E943E
:100F4000C30C002359F08D010E94390C11E00E945E
:100F50006E3D25E08D010E94240CCDC00E94C00C86
:100F6000002351F08D010E94390C11E00E946E3D6A
:100F700024E08D010E94240CBEC0813031F48D012B
:100F80000E943C0C20E00E94EE3B0E94C30C002318
:100F900059F08D010E94390C11E00E946E3D25E050
:100FA0008D010E94240CA7C00E94C00C002351F0A8
:100FB0008D010E94390C11E00E946E3D24E08D01EC
:100FC0000E94240C98C00E94C30C002329F025E045
:100FD0008D010E94240C8FC0882329F426E08D0106
:100FE0000E94240C88C0813039F48D010E943C0C91
:100FF00020E00E94EE3B7FC0823021F428E08D018A
:101000000E94240C78C0882399F48D010E94390C29
:1010100010E00E946E3D8D010E94390C0E94CC0CA4
:1010200020E00E942A0C21E08D010E94240C63C064
:10103000813039F48D010E943C0C20E00E94EE3B8F
:101040005AC0823021F428E08D010E94240C53C044
:10105000813039F48D010E943C0C20E00E94EE3B6F
:1010600006C0823021F428E08D010E94240C0E94E9
:10107000C30C002391F08D010E94390C10E00E94F6
:101080006E3D8D010E94390C0E94CC0C20E00E9424
:101090002A0C21E08D010E94240C2DC08D010E949C
:1010A000390C11E00E946E3D8D010E94390C16E052
:1010B0000E947B3D8D010E94390C0E94CC0C21E0E6
:1010C0000E942A0C29E08D010E94240C14C0823059
:1010D00091F08D010E94390C10E00E946E3D8D014F
:1010E0000E94390C0E94CC0C20E00E942A0C21E0C6
:1010F0008D010E94240CE4E00C9474430E9463432D
:10110000C801D901082F092B49F020E030E08C01FB
:101110005BDDA0FB1EF48C010E947D42E4E00C9498
:1011200074430E946343C801D901082F092B49F079
:1011300020E030E08C0148DDA0FB1EF48C010E9411
:101140007D42E4E00C9474430E946343C801D901DA
:10115000082F092B49F020E030E08C0135DDA0FBA1
:101160001EF48C010E947D42E4E00C9474430E94C2
:101170006343C801D901082F092B49F020E030E072
:101180008C0122DDA0FB1EF48C010E947D42E4E074
:101190000C9474430E946343C801D901082F092BA2
:1011A00049F020E030E08C010FDDA0FB1EF48C0143
:1011B0000E947D42E4E00C9474430E946343C801A2
:1011C000D901082F092B49F020E030E08C01FCDC2C
:1011D000A0FB1EF48C010E947D42E4E00C94744359
:1011E0000E946343C801D901082F092B49F020E070
:1011F00030E08C01E9DCA0FB1EF48C010E947D42F2
:10120000E4E00C9474430E946343C801D901082FA1
:10121000092B49F020E030E08C01D6DCA0FB1EF465
:101220008C010E947D42E4E00C9474430E9463436D
:10123000C801D901082F092B49F020E030E08C01CA
:10124000C3DCA0FB1EF48C010E947D42E4E00C9400
:1012500074430E946343C801D901082F092B49F048
:1012600020E030E08C01B0DCA0FB1EF48C010E9479
:101270007D42E4E00C9474430E946343D80183E010
:101280008D010E94360C0E940C3D0770043011F451
:1012900083E0CAC08D01FD0121813281F9013896B8
:1012A000259134913997F9010995002311F001E056
:1012B00001C000E0002309F460C08D010E94360CDB
:1012C0000E940C3D005049F00A9539F00A9509F446
:1012D0004CC00A9509F449C0A7C08D010E94360C84
:1012E0000E940C3D03700023E1F48D010E94360C36
:1012F00010E00E94FC3C8D01FD0121813281F90149
:101300003696259134913797F9010995002311F00C
:1013100001E001C000E0002311F081E085C080E021
:1013200083C08D010E94360C0E940C3D0370013079
:10133000D9F48D010E94360C11E00E94FC3C8D0115
:10134000FD0121813281F90136962591349137973B
:10135000F9010995002311F001E001C000E000232C
:1013600011F080E061C081E05FC082E08D010E94E9
:10137000360C10E00E94FC3C57C08D010E94360CD8
:101380000E940C3D0370023041F08D010E94360C2A
:101390000E940C3D03700130E1F48D010E94360C77
:1013A00010E00E94FC3C8D01FD0121813281F90198
:1013B0003696259134913797F9010995002311F05C
:1013C00001E001C000E0002311F081E02DC080E0C9
:1013D0002BC08D010E94360C0E940C3D037003301F
:1013E00041F08D010E94360C0E940C3D03700023D9
:1013F000D9F48D010E94360C11E00E94FC3C8D0155
:10140000FD0121813281F90136962591349137977A
:10141000F9010995002311F001E001C000E000236B
:1014200011F080E001C081E08D010E94270C005086
:1014300061F00A9559F0065009F495C00A9509F42F
:10144000E7C00A9509F4FDC010C10FC18D01FD016F
:1014500021813281F9013896259134913997F9012A
:101460000995002311F001E001C000E0002309F418
:1014700041C0823029F428E08D010E94240CF5C07F
:10148000813009F0F2C08D010E943C0C21E00E94E5
:10149000EE3B8D01FD0121813281F90134962591C8
:1014A00034913597F9010995902F8D010E94390CDF
:1014B000192F0E946E3D8D01FD0121813281F901BC
:1014C0003496259134913597F9010995902F8D0126
:1014D0000E94390C192F0E947B3D8D010E94390C0E
:1014E0000E94CC0C21E00E942A0C27E08D010E9472
:1014F000240CBBC08130B1F58D010E943C0C21E071
:101500000E94EE3B8D01FD0121813281F90134966B
:10151000259134913597F9010995902F8D010E94FD
:10152000390C192F0E946E3D8D01FD012181328100
:10153000F9013496259134913597F9010995902F49
:101540008D010E94390C192F0E947B3D8D010E9454
:10155000390C0E94CC0C21E00E942A0C27E08D015E
:101560000E94240C82C08D01FD0121813281F9018C
:101570003896259134913997F9010995002311F096
:1015800001E001C000E0002329F1823029F428E0C5
:101590008D010E94240C69C0882399F48D010E945A
:1015A000390C10E00E946E3D8D010E94390C0E94A2
:1015B000CC0C20E00E942A0C21E08D010E94240C1A
:1015C00054C0813021F58D010E943C0C20E00E9426
:1015D000EE3B4BC0882399F48D010E94390C10E03A
:1015E0000E946E3D8D010E94390C0E94CC0C20E0BF
:1015F0000E942A0C21E08D010E94240C36C081300B
:10160000A1F58D010E943C0C20E00E94EE3B2DC014
:101610008D010E94390C11E00E946E3D8D010E94E7
:10162000390C16E00E947B3D8D010E94390C0E940E
:10163000CC0C21E00E942A0C29E08D010E94240C90
:1016400014C0823091F08D010E94390C10E00E948C
:101650006E3D8D010E94390C0E94CC0C20E00E944E
:101660002A0C21E08D010E94240CE4E00C947443C8
:101670000E946343C801D901082F092B49F020E0DB
:1016800030E08C01E6DDA0FB1EF48C010E947D425F
:10169000E4E00C9474430E946343C801D901082F0D
:1016A000092B49F020E030E08C01D3DDA0FB1EF4D3
:1016B0008C010E947D42E4E00C9474430E946343D9
:1016C000C801D901082F092B49F020E030E08C0136
:1016D000C0DDA0FB1EF48C010E947D42E4E00C946E
:1016E00074430E946343C801D901082F092B51F0AC
:1016F00020E030E08C010E94A411A0FB1EF48C01BC
:101700000E947D42E4E00C9474430E946243D8013D
:101710008D010E94270C005049F00A9541F00A956E
:1017200009F463C00A9509F46BC08BC08AC0FD013F
:101730008181928106968D010E94BA0C0E941A3D09
:10174000402E8D01FC01259134913197F9010995C5
:101750004026442011F001E001C000E0002309F41C
:1017600070C00E94C90C073021F1FD018181928176
:1017700004960E94C90C402E8D01FC0125913491E4
:101780003197F9010995401610F001E001C000E021
:10179000002379F48D011196ED91FC911297349606
:1017A000259134913597F90109950E94C60C0E9444
:1017B000203D8D011196ED91FC9112973496259163
:1017C00034913597F9010995802F8D010E94BD0C48
:1017D000182F0E947B3D8D010E94BD0C0E94F13E9E
:1017E00022E08D010E94240C2CC00E94C00C00231A
:1017F00041F10E943F3D23E08D010E94240C21C055
:10180000FD018181928106968D010E94BA0C0E9491
:101810001A3D402E8D01FC01259134913197F9013B
:1018200009954026442011F401E001C000E00023A6
:1018300041F00E94483D0E94273521E08D010E9421
:10184000240CE5E00C947343F80120830895F8011B
:1018500000810895F80120830895980100E008951B
:10186000980100E00895980100E00895F8010581CD
:101870000895F801038108950C5F1F4F08959801A2
:1018800000E00895980100E00895980100E00895AF
:10189000980102E00895980100E00895980100E0A1
:1018A0000895980102E00895980101E008959801D3
:1018B00000E00895980102E00895980100E008957D
:1018C000980101E00895980102E00895980101E06F
:1018D0000895980101E00895980103E008959801A2
:1018E00000E00895980100E00895980103E008954C
:1018F000980101E00895980100E00895980103E03F
:101900000895980100E00895980101E00895980174
:1019100003E00895980101E00895980101E0089519
:10192000980101E00895980100E00895980100E011
:101930000895980101E00895980101E00895980143
:1019400000E00895980101E00895980100E00895ED
:10195000980101E00895980101E00895980101E0DF
:101960000895980101E00895980107E0089598010D
:1019700000E00895F80104810895F80103810895B5
:101980000091C00C08950091C10C089500932F0D93
:10199000089500912F0D089510E048E050E00E9456
:1019A000854298010BE41EE0020F131F089526E301
:1019B00031E0F80126833783F80120E02083F80125
:1019C00020E02183F80120E02283F80120E0238336
:1019D000F80120E0248308959A938A93C801082F80
:1019E000092B29F020FB1EF48C010E947D42899175
:1019F000999108959A938A93C801082F092B29F089
:101A000020FB1EF48C010E947D42899199910895DA
:101A10000E942E0D0E942A0D0E94340D0E94300D4E
:101A2000089508EF12E00E94A9320E942C0D0E9436
:101A3000320D08950AE81CE00E94A9320E942C0D84
:101A40000E94320D08950E942E0D0E94340D0E94B6
:101A5000D4320895139A08951B9A08951B980895F7
:101A6000149A08951C9A08951C9808957B2F2A2E85
:101A7000D8010FEF1FEF40E050E04217530798F4F2
:101A80006C91502F65271196012F10E0E62FF0E0A2
:101A9000EE0FFF1FE65CFE4F059014903197002576
:101AA00011254395E9CFA22DB72F0895F80100E045
:101AB00010E0408150E0040F151F31962150304056
:101AC000422F432BB1F708950E946343F801C901E7
:101AD00020E030E0008110E0200F311F31960197A7
:101AE000082F092BB9F7DF01FD013196022F1C9158
:101AF000011749F48901012F10E01081011719F431
:101B000001E010E002C000E010E0E4E00C94744357
:101B1000F80140E00081400F319621503040022F03
:101B2000032BC1F70081401719F401E010E008957C
:101B300000E010E00895A895089510E048E050E016
:101B40000E948542F801E056F84F068117810895FA
:101B50000091310808950CE008950093C20C089597
:101B60000E9463430E94680EB0E0A1E00A2F01507A
:101B700039F00A9539F10A95A1F10A9581F133C03E
:101B80000E94AB0DB017E0F42B2F0AE11AE00E947F
:101B90005811C801082F092B89F04B2F43959C0140
:101BA0000AE11AE00E94AF0F002311F0A2E01BC06F
:101BB0000E94A80D0430B9F4A3E015C0A3E013C03F
:101BC000A4E011C00E94A80D033019F4B395A1E060
:101BD0000AC00E94A80D043031F4A3E004C001E063
:101BE0000BC000E009C00E9455100AE010E00E94FE
:101BF00066320E949B0DBACFE4E00C9474430E94BD
:101C0000D20F08950E94F70F08950E94231008959F
:101C100000E00E94AD0D0E94F310002399F0EFDF69
:101C2000002351F0F2DF002311F001E0089504E0F9
:101C30000E94AD0D00E0089504E00E94AD0D90DF1C
:101C400000E0089504E00E94AD0D8ADF00E00895F1
:101C50000E946443C801A22F2A2F23958C010E9461
:101C60009E0EE3E00C9475438A93802F0E94AB0D87
:101C7000801730F4082F03950E949D0D10E002C0DC
:101C800000E010E0899108950E946443C801A22FEA
:101C90000A2FEADF98014A2F43958C010E94AF0F6B
:101CA00010E0E3E00C94754308E218E00E948B41D9
:101CB00000E417E00E94214208959A938A93C80194
:101CC00022E030E08C010E94A6418991999108950B
:101CD0000AE11AE0E6E2F8E00083118300E00E94E6
:101CE0007A114CE650E020E030E000EA17E00E9474
:101CF0008F43E0EAF7E000E110E004831583E0EAB7
:101D0000F7E00CE610E0068317830EE610E00E9471
:101D1000B513E0EAF7E0008711870EE610E00E94B5
:101D2000B513005F1F4FE0EAF7E002831383E0EA98
:101D3000F7E000E0008300E0018308950E9459432A
:101D4000D1503801822E0DE0801618F000E010E02E
:101D500077C0082D10E048E050E00E948542F8016D
:101D6000E056F84F06811781012B09F451C0082D68
:101D700010E048E050E00E948542F801E056F84F3C
:101D800000851185012B09F443C0082D10E048E0BF
:101D900050E00E948542F801E056F84F0481158119
:101DA0006801082D10E048E050E00E948542F801EB
:101DB000E056F84F068117812801082D10E048E011
:101DC00050E00E948542F801E056F84F00851185E9
:101DD0005801A50196018E010E943731A5019E018F
:101DE0008E010E946614FE01E40DF51D808190E0D5
:101DF000FE01E40DF51D118100E0802B912B920175
:101E00008E010E94360DD8018A179B07A1F403C0EA
:101E100000E010E015C0082D10E0000F111FF801C0
:101E2000E45FF74F80839183A2019E0183010E94AA
:101E30007F43820105C004E00E94AD0D00E010E088
:101E4000DF5FEEE00C946A430E945D43D1502801AD
:101E5000C901642E0DE0601618F000E010E07BC0B0
:101E6000AC0192018E010E947F439C0182010E947D
:101E7000360DD8010A2FFE01E80FF91F00838D01EE
:101E8000012F10E0FE01E80FF91F0183062D10E07D
:101E900048E050E00E948542F801E056F84FA287E2
:101EA000B387AC014E5F5F4F9E01E6E2F8E0008130
:101EB00011810E94BF134801062D10E048E050E058
:101EC0000E948542F801E056F84F00851185012BEC
:101ED00069F5E0EAF7E022813381062D10E048E061
:101EE00050E00E948542F801E056F84F2483358384
:101EF000E0EAF7E002811381080D191D02831383C4
:101F0000062D10E048E050E00E948542F801E056BE
:101F1000F84F86839783062D10E048E050E00E943A
:101F20008542F801E056F84F80869186A401E6E2EA
:101F3000F8E020813181BA01062D10E048E050E040
:101F40000E948542F801E056F84F04811581AB01EB
:101F50000E944A318401DF5FEAE00C946E430E94E4
:101F60006243D801C901442E0E947D11002399F4D7
:101F7000442D9C018D0168DF012B41F001E00E949E
:101F8000801101E00E947A1101E009C004E00E9482
:101F9000801100E004C002E00E94801100E0E5E052
:101FA0000C947343BD01E1E0F0E0EC3000E0F00799
:101FB000D8F48F01000F111FD801A45FB74F2D91E6
:101FC0003C9111978F0148E050E00E948542D80172
:101FD000A655B84F0D911C9111972017310711F09C
:101FE00000E003C03196E1CF01E0DB010895BA9330
:101FF000AA936897E0E0F0E0EC3000E0F007B0F47E
:102000008F0148E050E00E948542D801AE54B84F9D
:102010002D913C911197DE018F01000F111FA00F30
:10202000B11F2D933C9311973196E6CF28E130E014
:102030008E010E94360DE0EAF7E000831183689676
:10204000A991B9910895BA93AA936897E0E0F0E056
:10205000EC3000E0F007B0F48F0148E050E00E945F
:102060008542D801AE54B84F2D913C911197DE01B5
:102070008F01000F111FA00FB11F2D933C931197DB
:102080003196E6CF28E130E08E010E94360DE0EA7D
:10209000F7E0208131812017310711F401E001C000
:1020A00000E06896A991B99108950E947D110050B1
:1020B00079F00A9571F00A95B1F00A9589F10A95BF
:1020C00009F443C00A9509F459C00A9509F473C08C
:1020D00008950E94771128EC30E00E94B44102E09C
:1020E0000E947A1108950E946511002361F00E94F8
:1020F000771120E137E20E94B4410E94711103E0A0
:102100000E947A1108950E9477110E94CE41002307
:1021100031F004E00E94801100E00E947A110895DD
:102120000E946E11002321F004E00E947A110895AC
:102130000E9477110E94CE41002331F004E00E94FA
:10214000801100E00E947A11089540E02CE630E012
:1021500000EA17E079DE012B51F00E94771128EC9C
:1021600030E00E94B44105E00E947A11089504E035
:102170000E94801100E00E947A1108950E9465116A
:10218000002361F00E94771120E137E20E94B44100
:102190000E94711106E00E947A1108950E94771141
:1021A0000E94CE410023F1F004E00E94801100E083
:1021B0000E947A1108950E946E11002339F003E005
:1021C0000E94801100E00E947A1108950E94771108
:1021D0000E94CE41002331F004E00E94801100E013
:1021E0000E947A1108950E94634372DD20E000EAA4
:1021F00017E0A4DD012B11F400E057C0B0E0A1E02E
:1022000000E00E9483110A2F015059F00A9509F14C
:102210000A9581F10A95D1F10A95E9F10A95C9F17A
:102220003CC0BD30A0F42B2FE6E2F8E00081118124
:1022300085DDC801082F092B41F00E94861100237B
:1022400011F0A2E02AC0A4E028C0A5E026C0A6E0C4
:1022500024C04B2F9C01E6E2F8E0008111817FDE73
:10226000002311F0A3E019C00E94A80D0430A9F4C6
:10227000A5E013C00E94A80D033011F4A4E00DC026
:102280000E94A80D043049F4A5E007C0B395A1E071
:1022900004C001E00AC000E008C007DF0AE010E067
:1022A0000E9466320E949B0DAECFE4E00C94744312
:1022B0000E946443C801A22F2A2F8C010E94DC31A6
:1022C000E3E00C947543E39A0895E19B02C000E0BB
:1022D000089501E0089500937C08089500917C081A
:1022E000089500E00E946B110E946311089508E2B6
:1022F00018E008950093300808950091300808957B
:10230000009331080895009332080895009132082F
:10231000089526E633E0F80121833283F80120E0B6
:1023200020830895AD01D8018D01F3DF0AE613E0A3
:10233000FD0101831283FD0100E00383FD0100E044
:1023400004838D01DA0108959A938A93C801082FB6
:10235000092B29F020FB1EF48C010E947D428991FB
:102360009991089508959A938A93C801082F092B8B
:1023700029F020FB1EF48C010E947D4289919991E5
:102380000895009161000460009361000895009138
:1023900062000460009362000895009162000B7F68
:1023A0000093620008950091610000610093610054
:1023B0000895009162000061009362000895009109
:1023C00062000F7E00936200089500916100026038
:1023D000009361000895009162000D7F00936200F8
:1023E0000895009162000260009362000895000069
:1023F000089500C000C0000008950E94CD110E9401
:10240000DF110E94F1110E94C1110E94D3110E949C
:10241000E51108950E946243C801422EA0E0A41570
:10242000A0F4B0E0FC01EA0FFB1F0081002319F0CB
:102430000E94D91102C00E94DF110E94C7110E94A0
:10244000F7110E94CD11A395EACF0E94F1110E94CD
:10245000F9110E94EB11E5E00C947343BA93AA932F
:10246000D8018D010E9492110AE913E0FD01018358
:1024700012838D01A991B99108950E946343D801F7
:10248000C9018D01EBDF0EE913E0FD010183128329
:102490008D010B5F1F4F0E948B41FD018387948745
:1024A00020E08D010E94240C8D01E4E00C94744323
:1024B0000E946343C801D901082F092B51F020E085
:1024C00030E08C010E94B311A0FB1EF48C010E942D
:1024D0007D42E4E00C9474430E946343D801C90137
:1024E0000A2F0B2BA9F00EE913E0FD0101831283E3
:1024F00022E030E08D010B5F1F4F0E94A64120E0DB
:1025000030E08D01D5DF80FB1EF48D010E947D42FD
:10251000E4E00C9474430E946343D801922F832F0C
:102520008D010E94270C005029F00A9561F00A9550
:1025300021F148C0FD0100E0058721E08D010E94E6
:10254000240C00E040C0992321F0FD0105850160C5
:102550000587882321F0FD01058502600587FD01BF
:10256000238534858D010B5F1F4F0E94B44122E00B
:102570008D010E94240C00E026C08D010B5F1F4FCF
:102580000E94CE41002331F020E08D010E94240CF6
:1025900000E019C0992321F0FD0105850160058740
:1025A000882321F0FD01058502600587FD01058571
:1025B000033031F420E08D010E94240C01E003C0BF
:1025C00000E001C000E0E4E00C947443202F30E010
:1025D000E0E0F0E0E83000E0F0074CF4022F10E01B
:1025E0004E2F0E949942017030273196F3CF33234A
:1025F00011F401E0089500E00895980150E0E0E052
:10260000F0E0EC3000E0F00744F44E2F89010E9426
:102610009442017050273196F4CF552311F401E014
:10262000089500E00895502F60E070E000E1509FB1
:1026300000E000220FE01022B00108E0509F00E708
:10264000002200E0102260297129052F017014E09A
:10265000019F60297129052F007FB8DF10E8019FD5
:1026600060297129052F0E78B1DF18E0019F6029DC
:102670007129052F0D76AADF12E0019F60297129CB
:10268000052F0B75A3DF10E0602B712B8B010895D4
:10269000080160E0800100701F70AFDF102D17FB94
:1026A00010E010F9011711F061E001C060E0660F61
:1026B000660F660F8001007718709FDF102D13FBE7
:1026C00010E010F9011711F001E001C000E0000F67
:1026D000000F602B8001047616708FDF102D11FB28
:1026E00010E010F9011711F001E001C000E0000F47
:1026F000602B80010475157080DF102D117001179B
:1027000011F001E001C000E0602B062F0895B80130
:10271000222311F48B010895209332082A9501E0B9
:1027200010E0422F0E948F42602771278B0108958D
:10273000B80120E044E08B010E949442007F202FEA
:10274000062F0695069506950E70202B062F02FB88
:1027500000E000F9202B022F08951801810198DF75
:10276000202F8101D4DFE4DF089500FB16F40F5F12
:102770001F4F980136952795020F131F08950E9449
:102780005843380159016A01222433244424552432
:10279000EE240C2D0D2941F0C0FA36F40FEFC00ED7
:1027A0000FEFD01EEE24E394882499248C149D040A
:1027B00008F04BC0F501E40DF51D008134DF20E089
:1027C00030E0C801D90101E0400E00E0501EF501E3
:1027D000E40DF51D008127DFA80160E070E0ECE06A
:1027E0008A019B014E2F0E94EB42802B912BA22B42
:1027F000B32B01E0400E00E0501E8C01F301E20D0E
:10280000F31D008301E0200E00E0301E892F9A2F77
:10281000AB2FB0E08C01F301E20DF31D008301E06A
:10282000200E00E0301E892F9A2FAB2FB0E08C01D4
:10283000F301E20DF31D008301E0200E00E0301EE5
:1028400002E0800E00E0901EB1CFEE20D9F1F5013C
:10285000E40DF51D0081E7DE20E030E0C801D9017C
:1028600000E0E1DEA80160E070E0ECE08A019B019D
:102870004E2F0E94EB42802B912BA22BB32B8C016D
:10288000F301E20DF31D008301E0200E00E0301E95
:10289000892F9A2FAB2FB0E08C01F301E20DF31DCD
:1028A000008301E0200E00E0301E892F9A2FAB2F0D
:1028B000B0E08C01F301E20DF31D008301E0200E76
:1028C00000E0301E8101EFE00C9469430E94574301
:1028D000580149017A0166247724442455240E2D99
:1028E0000F2951F043E050E087010E949C42452BA4
:1028F00019F000E010E057C0CC24DD24CE14DF0432
:1029000008F050C0F401E40DF51D008110E020E056
:1029100030E0C801D90101E0400E00E0501EF40192
:10292000E40DF51D008110E020E030E0322F212F72
:10293000102F00E0802B912BA22BB32B01E0400E37
:1029400000E0501EF401E40DF51D208130E000E0B0
:1029500010E0802B912BA22BB32B01E0400E00E066
:10296000501E8C010F7F1F70F8DEF501E60DF71D7C
:10297000008301E0600E00E0701E4CE08C019D01C0
:102980000E94F2420F7F1F70E8DEF501E60DF71D91
:10299000008301E0600E00E0701E03E0C00E00E066
:1029A000D01EACCF8301E0E10C9468430E946343E6
:1029B000D801C9018D010E94921102EA13E0FD01C4
:1029C000018312838D01075F1F4F0E948B41FD0120
:1029D00085839683FD0100E00087FD0100E0078309
:1029E00020E08D010E94240C8D01E4E00C947443DE
:1029F0000E946343D801C9010A2F0B2BB1F002EAF0
:102A000013E0FD010183128322E030E08D01075FB6
:102A10001F4F0E94A64120E030E08D010E94B311BB
:102A200080FB1EF48D010E947D42E4E00C9474430F
:102A3000BA93AA93D8011596ED91FC911697099532
:102A4000002311F001E001C000E0A991B9910895BF
:102A50000E946343D801822F8D01FD0121813281C3
:102A6000F9013296259134913397F9010995FD01C9
:102A70000781081741F4FD0100E00783FD0100E034
:102A8000008701E001C000E0E4E00C947443BA93D5
:102A9000AA93D8018D010E94270C005089F00A9555
:102AA000C1F00A9541F10A9509F44EC00A9509F45E
:102AB00074C00A9509F49AC0025009F4BCC0C3C09E
:102AC000FD010085FD01078321E08D010E94240C9A
:102AD000BAC08D01ADDF002369F08D010E9426167A
:102AE00098018D01075F1F4F0E94B44122E08D01C4
:102AF0000E94240CA8C08D019BDF0023E1F08D0112
:102B0000075F1F4F0E94CE410023E9F08D010E9414
:102B10002A1698018D01075F1F4F0E94B441FD01E5
:102B200002E00087FD010085FD01078323E08D01A0
:102B30000E94240C88C0FD010085FD01078320E070
:102B40008D010E94240C7FC08D0172DF0023E1F013
:102B50008D01075F1F4F0E94CE410023E9F08D01D8
:102B60000E942E1698018D01075F1F4F0E94B441ED
:102B7000FD0103E00087FD010085FD01078324E0DE
:102B80008D010E94240C5FC0FD010085FD010783BB
:102B900020E08D010E94240C56C08D0149DF0023E6
:102BA000E1F08D01075F1F4F0E94CE410023E9F045
:102BB0008D010E94321698018D01075F1F4F0E9400
:102BC000B441FD0104E00087FD010085FD0107839C
:102BD00027E08D010E94240C36C0FD010085FD0117
:102BE000078320E08D010E94240C2DC08D0120DF81
:102BF0000023E1F08D01075F1F4F0E94CE410023AB
:102C000011F18D010E94361698018D01075F1F4F4B
:102C10000E94B441FD0105E00087FD010085FD0132
:102C2000078327E08D010E94240C0DC020E08D0158
:102C30000E94240C08C08D01FBDE002321F420E05B
:102C40008D010E94240CA991B9910895980104E680
:102C500010E0089598010CED15E00895980108EB37
:102C60001BE00895980108E813E10895980102E334
:102C700010E00895F801008108950091610001605D
:102C8000009361000895009162000E7F009362003E
:102C90000895009161000062009361000895009121
:102CA00062000F7D009362000895169A08951E98A1
:102CB0000895179A08951F9808959A938A93C801C2
:102CC0000E9443160E944F160E9457160E945B16E0
:102CD0000E943D160E9449160E9455160E945916E0
:102CE0000E94FD118991999108950E946343D80132
:102CF00080E0803338F5082F10E048E050E00E9473
:102D0000854298018D01020F131F0E943A1600237D
:102D100061F0E82FF0E0E454FC4F049110E0F8017A
:102D2000ED5CF74F01E000830BC0E82FF0E0E454C6
:102D3000FC4F049110E0F801ED5CF74F00E00083D8
:102D40008395D7CF20E403E318E00E940A12E4E061
:102D50000C947443BA93AA93D8018D010E949211E6
:102D60000CEE13E0FD01018312838D010B5F1F4FF9
:102D70000E948B418D01A991B9910895BA93AA93AC
:102D8000D8018D01E7DF06E014E0FD010183128325
:102D900020E08D010E94A41721E08D010E94240CE7
:102DA0008D01A991B99108950E946343D801C90189
:102DB0000A2F0B2BB1F00CEE13E0FD0101831283FF
:102DC00022E030E08D010B5F1F4F0E94A64120E002
:102DD00030E08D010E94B31180FB1EF48D010E9432
:102DE0007D42E4E00C9474430E946343C801D9011E
:102DF000082F092B49F020E030E08C01D5DFA0FB43
:102E00001EF48C010E947D42E4E00C9474430E9405
:102E10006343C8018C010E94270C005051F00A95B1
:102E200049F00A9539F10A95F9F10A9509F45EC05D
:102E300088C087C00E94BF370023B9F00E94CF37F7
:102E4000002371F00E94C737D8018C010E94AA1795
:102E50009D010E94B44123E08C010E94240C71C0AA
:102E600022E08C010E94240C6CC020E08C010E94A6
:102E7000240C67C08C010E94A7170130A1F420E048
:102E80008C010E94A41701E00E94D8370E94C73726
:102E9000D8018C010E94AA179D010E94B44123E031
:102EA0008C010E94240C4DC08C010E94A717013098
:102EB00071F420E08C010E94A4170E94C737D8014A
:102EC0008C010E94AA179D010E94B4413AC08C0156
:102ED0000E94AA170E94CE41002399F105E00E94AA
:102EE000AD0D24E08C010E94240C2BC08C010E94AB
:102EF000A717015019F00A95B1F023C020E08C010A
:102F00000E94A41702E10E94AD170E94C737D801A2
:102F10008C010E94AA179D010E94B44123E08C01FC
:102F20000E94240C0EC020E08C010E94A41700E037
:102F30000E94D83702E10E94AD1722E08C010E9466
:102F4000240CE4E00C947443F80124830895F80100
:102F5000048108950B5F1F4F089500939A0B089505
:102F600000E00E94AD170E94BE3FFDCFBA93AA9326
:102F7000D8018D010E94921100E214E0FD0101834D
:102F800012838D01A991B99108950E946343C801EC
:102F9000D901082F092B51F020E030E08C010E946C
:102FA000B311A0FB1EF48C010E947D42E4E00C945E
:102FB0007443F801258308959A938A93C8018C017C
:102FC0000E94270C002311F401E001C000E0899168
:102FD000999108950E9461432801C901DA01AD0168
:102FE0009C018201F20161817281FB01369665913B
:102FF00074913797FB010995D801AD019C018201BD
:10300000F20161817281FB013C96659174913D975B
:10301000FB010995E6E00C9472430E945E43D801DF
:10302000722E632E842ECB01AC01362D3068272DF5
:103030008D01FD0161817281FB013A966591749168
:103040003B97FB0109952801FC01E40DF51D8082E9
:1030500001E0400E00E0501E8201E9E00C946F4355
:103060000E945D4328010A012A843B848C859D854A
:1030700050E06624A0E0B0E0A015B105F0F44901ED
:1030800094012F5F3F4FFB01E80DF91D00810023E4
:1030900031F001E010E0462D0E948F42502B07E0F6
:1030A000601641F4F101E80FF91F5083019650E0DA
:1030B000662401C063941196DFCF662029F0F101E8
:1030C000E80FF91F508301968C01EEE00C946E43DB
:1030D0000E945743280159014A01CB018201F201A4
:1030E00021813281F9013E96259134913F97F90172
:1030F00009953801F501E60DF71D3197F080F501CE
:10310000E60DF71DE080F501E60DF71DD180CC241A
:10311000F501E60DF71D028110E0C02AD12AF50164
:10312000E60DF71DB381A0E0F501E60DF71D048162
:1031300010E0A02BB12B0A2F0B2B21F0A13D07E0B3
:10314000B00740F0B40143E03E2D2F2D820165DF32
:10315000C80144C0F201028D138D96012A0F3B1F56
:103160000217130740F4B40142E03E2D2F2D8201D7
:1031700054DFC80133C0A4013E2D2F2D8201F2017E
:1031800061817281FB013A96659174913B97FB01D5
:103190000995C8010A2F0770002359F043E08D01FB
:1031A0000E9494420395F401E80FF91F00830196F1
:1031B00009C043E08D010E949442F401E80FF91F19
:1031C000008301969A938A939A928A92F201628975
:1031D0007389AD019601820143DFC8018C01E0E1F2
:1031E0000C9468430E945743280159014A01CB01BE
:1031F0008201F20121813281F9013E9625913491BB
:103200003F97F90109953801F501E60DF71D319752
:10321000F080F501E60DF71DE080F501E60DF71DE4
:10322000D180CC24F501E60DF71D028110E0C02A03
:10323000D12AF501E60DF71DB381A0E0F501E60DF9
:10324000F71D048110E0A02BB12B0A2F0B2B21F0CE
:10325000A13D07E0B00740F0B40143E03E2D2F2D23
:103260008201DBDEC80144C0F201048D158D960198
:103270002A0F3B1F0217130740F4B40142E03E2D12
:103280002F2D8201CADEC80133C0A4013E2D2F2D8F
:103290008201F20161817281FB013A96659174911C
:1032A0003B97FB010995C8010A2F0770002359F0CD
:1032B00043E08D010E9494420395F401E80FF91F49
:1032C0000083019609C043E08D010E949442F401FD
:1032D000E80FF91F008301969A938A939A928A9233
:1032E000F20164897589AD0196018201B9DEC801D8
:1032F0008C01E0E10C9468430E9457432801690166
:103300004A01CB018201F20121813281F9013E960D
:10331000259134913F97F90109955801F601EA0D7D
:10332000FB1D3197F080F601EA0DFB1DE080F601F0
:10333000EA0DFB1DB181A0E0F601EA0DFB1D028143
:1033400010E0A02BB12BF601EA0DFB1D7380662463
:10335000F601EA0DFB1D048110E0602A712A062D9A
:10336000072929F00EE7601600E0700640F0B4016E
:1033700043E03E2D2F2D820150DEC80152C0F201E4
:10338000068D178D9D01260D371D0217130740F47A
:10339000B40142E03E2D2F2D82013FDEC80141C025
:1033A000A4013E2D2F2D8201F20161817281FB016A
:1033B0003A96659174913B97FB010995C801062DDA
:1033C000000FF401E80FF91F0083019600E010E000
:1033D0000615170530F5F201468957899D01220F20
:1033E000331F420F531FFA0120813181232F30E018
:1033F000F401E80FF91F20830196F20146895789ED
:103400009D01220F331F420F531FFA01208131818A
:10341000F401E80FF91F2083019611960F5F1F4FEB
:10342000D7CF8C01E0E10C9468430E9457432801F8
:1034300069014A01CB018201F20121813281F90146
:103440003E96259134913F97F90109955801F6016F
:10345000EA0DFB1D3197F080F601EA0DFB1DE080BF
:10346000F601EA0DFB1DB181A0E0F601EA0DFB1D9E
:10347000028110E0A02BB12BF601EA0DFB1D738039
:103480006624F601EA0DFB1D048110E0602A712A12
:10349000062D072929F00EE7601600E0700640F0BF
:1034A000B40143E03E2D2F2D8201B7DDC80152C08B
:1034B000F20100A111A19D01260D371D021713076E
:1034C00040F4B40142E03E2D2F2D8201A6DDC8015B
:1034D00041C0A4013E2D2F2D8201F2016181728134
:1034E000FB013A96659174913B97FB010995C801E0
:1034F000062D000FF401E80FF91F0083019600E08C
:1035000010E00615170530F5F201408D518D9D0133
:10351000220F331F420F531FFA0120813181232FC5
:1035200030E0F401E80FF91F20830196F201408D8D
:10353000518D9D01220F331F420F531FFA0120812D
:103540003181F401E80FF91F2083019611960F5F76
:103550001F4FD7CF8C01E0E10C9468430E94574382
:10356000580129016A01CB018501F50121813281D0
:10357000F9013E96259134913F97F901099538015B
:10358000F201E60DF71D3197F080F201E60DF71D0F
:10359000E080F201E60DF71D91808824F201E60D2E
:1035A000F71D028110E0802A912AF501028D138D0A
:1035B0008016910640F0B60142E03E2D2F2D850188
:1035C0002CDDC8012EC0F201E60DF71DB381A0E08D
:1035D000F201E60DF71D048110E0A02BB12BA03005
:1035E0000FEFB00751F4940101E00E94B137AC0134
:1035F000920186010E947F4314C00A2F0B2B51F4C5
:10360000940100E00E94B137AC01920186010E9452
:103610007F4307C0B60143E03E2D2F2D8501FDDC21
:10362000C8018C01E0E10C9468430E9459432801D1
:10363000C9015A014B018201F20121813281F90154
:103640003E96259134913F97F9010995D801FC01E7
:10365000EA0FFB1F3197D080FC01EA0FFB1FC080EF
:10366000FC01EA0FFB1F71806624FC01EA0FFB1FBF
:10367000028110E0602A712AF201068D178D601612
:10368000710640F0B50142E03C2D2D2D8201C5DCD4
:1036900048011CC0FC01EA0FFB1F538140E0FC0104
:1036A000EA0FFB1F048110E0402B512BF201268909
:1036B00037898301000F111F200F311FF90140834B
:1036C0005183A4019C0185010E947F438401EEE0A7
:1036D0000C946A430E945743280139016A01CB01C7
:1036E0008201F20121813281F9013E9625913491C6
:1036F0003F97F90109954801F301E80DF91D31974C
:10370000F080F301E80DF91DE080F301E80DF91DEB
:10371000B180AA24F301E80DF91D028110E0A02A6E
:10372000B12AF301E80DF91DB381A0E0F301E80D22
:10373000F91D048110E0A02BB12B0A2F0B2B21F0D7
:10374000A13B07E0B00740F0B60143E03E2D2F2D2E
:10375000820163DCC80134C0F201028D138D950132
:103760002A0F3B1F0217130740F4B60142E03E2D1B
:103770002F2D820152DCC80123C0A5019D018301C8
:10378000080D191D0A5F1F4F0E947837A6013E2DB4
:103790002F2D8201F20161817281FB013A966591C0
:1037A00074913B97FB010995C80144E050E09301F7
:1037B000280F391F8601080F191F0E947F430496A6
:1037C0008C01E0E10C9468430E94574348012901B1
:1037D0006A013B018401F40121813281F9013E96A5
:1037E000259134913F97F9010995C801F201E80F3D
:1037F000F91F3197F080F201E80FF91FE080F20124
:10380000E80FF91FB181A0E0F201E80FF91F028172
:1038100010E0A02BB12BF201E80FF91FB380AA240E
:10382000F201E80FF91F048110E0A02AB12A0A2D45
:103830000B2929F00CE7A01600E0B00640F0B60115
:1038400043E03E2D2F2D8401E8DB38014FC0F40109
:10385000068D178D9D012A0D3B1D0217130740F49D
:10386000B60142E03E2D2F2D8401D7DB38013EC04A
:1038700020E030E02A153B05E0F4F201E80FF91FE3
:10388000568140E0F201E80FF91F078110E0402B5C
:10389000512BF401668977898D01000F111F600F8C
:1038A000711FFB0140835183119602962F5F3F4F9A
:1038B000E1CFA6013E2D2F2D8401F401618172819B
:1038C000FB013A96659174913B97FB01099538018C
:1038D00044E050E09201260D371D8601060D171DAC
:1038E0000E947F4304E0600E00E0701E8301E0E16F
:1038F0000C94684308010FEF1FEF0895080100E0E2
:1039000010E008950E945B4328014901DA01CB01D0
:103910008201F20121813281F9013E962591349193
:103920003F97F90109953801F401E60DF71D31972C
:10393000B080F401E60DF71DA080AD013A2D2B2DCE
:103940008201F20161817281FB013A966591749165
:103950003B97FB010995C801FD01E80FF91F03E042
:1039600000830196FD01E80FF91F00E20083019634
:10397000FD01E80FF91F07E000830196FD01E80F44
:10398000F91F02E3008301968C01ECE00C946C4378
:103990000E94574338014901DA01CB018301F30149
:1039A00021813281F9013E96259134913F97F901A9
:1039B00009952801F401E40DF51D3197B080F4015B
:1039C000E40DF51DA080F401E40DF51DE280FF2457
:1039D0008C0106501040E016F10641F0BD0142E0B6
:1039E0003A2D2B2D830119DBC8012CC1AD013A2DD5
:1039F0002B2D8301F30161817281FB013A96659160
:103A000074913B97FB010995C801F401E40DF51D84
:103A10000381005049F00A9579F10A9509F49DC097
:103A20000A9509F4E0C007C1FD01E80FF91F00E0A5
:103A300000830196FD01E80FF91F04E00083019661
:103A4000F401E40DF51D0381FD01E80FF91F00836A
:103A50000196FD01E80FF91F02E000830196FD01C8
:103A6000E80FF91F00E000830196FD01E80FF91F40
:103A700002E000830196E6C0F401E40DF51D048127
:103A8000C02E0E94AB0D0C1540F4BD0142E03A2D52
:103A90002B2D8301C2DAC801D5C0CC20B9F52C2D5D
:103AA0008D01040D151D0B5F1F4F0E94280E2091E4
:103AB000390DFD01E40DF51D25832091380DFD0123
:103AC000E40DF51D2683FD01E40DF51D20E327839C
:103AD000FD01E80FF91F20E020830196202F2E5FC3
:103AE000FD01E80FF91F20830196F401E40DF51D97
:103AF0002381FD01E80FF91F20830196FD01E80FE6
:103B0000F91FC0820196800F911F9CC02C2D8D0142
:103B1000040D151D0B5F1F4F0E94280E9801FD011B
:103B2000E80FF91F00E000830196022F0E5FFD01F0
:103B3000E80FF91F00830196F401E40DF51D0381E0
:103B4000FD01E80FF91F00830196FD01E80FF91F41
:103B5000C0820196820F931F75C0F401E40DF51D1C
:103B60000481C02E0E94AB0D0C1540F4BD0142E053
:103B70003A2D2B2D830151DAC80164C00C2D0E940F
:103B8000340E9801F401E40DF51D028110E002509D
:103B900010400217130741F0BD0143E03A2D2B2DD1
:103BA00083013BDAC8014EC02C2D8401040D151D84
:103BB0000B5F1F4F0E94440E012B69F00E94020E02
:103BC00003E10E94AD17BD0145E03A2D2B2D830185
:103BD00024DAC80137C0BD0147E03A2D2B2D8301FF
:103BE0001CDAC8012FC00E94A80D033081F4AD017A
:103BF0003A2D2B2D8301F30161817281FB013A96ED
:103C0000659174913B97FB010995C8011BC00E9407
:103C1000A80D013041F4BD0146E03A2D2B2D830162
:103C2000FCD9C8010FC0BD0141E03A2D2B2D830105
:103C3000F4D9C80107C0BD0141E03A2D2B2D830105
:103C4000ECD9C8018C01E0E10C9468430E945B430D
:103C5000D80149012A01CB018D01FD012181328169
:103C6000F9013E96259134913F97F9010995380164
:103C7000F401E60DF71D3197B080F401E60DF71D54
:103C8000A0800E94A80D033081F4A2013A2D2B2DB3
:103C90008D01FD0161817281FB013A9665917491FC
:103CA0003B97FB010995C80113C00E94A80D013084
:103CB00041F4B20146E03A2D2B2D8D01AED9C80159
:103CC00007C0B20141E03A2D2B2D8D01A6D9C801C4
:103CD0008C01ECE00C946C430E945843D8012901FC
:103CE0003A015B018D01FD0121813281F9013E968E
:103CF000259134913F97F90109954801F201E80DAA
:103D0000F91D3197C080F201E80DF91DE080C50171
:103D1000DC2CDD0CDD08FD01058110E0C016D106AC
:103D200029F0CC2019F000E010E070C00E2D102F0B
:103D3000110F110BEEEFF0E0FBBFF8E00C941A430B
:103D4000BC01A30192018D01C3D9C8015BC0BC01B4
:103D5000A30192018D0146DAC80154C0BC01A30140
:103D600092018D01C9DAC8014DC0BC01A3019201C5
:103D70008D015BDBC80146C0BC01A30192018D012E
:103D8000EDDBC8013FC0BC01A30192018D014DDCF8
:103D9000C80138C0BC01A30192018D01ABDDC8018F
:103DA00031C0BC01A30192018D0194DCC8012AC07D
:103DB000BC01A30192018D0149DFC80123C0BC01F0
:103DC000A30192018D0100DDC8011CC0BC01A3014B
:103DD00092018D0197DDC80115C0BC01A3019201BC
:103DE0008D018CDDC8010EC0BC01A30192018D01C3
:103DF000CFDDC80107C0B30141E03E2D2C2D8D0160
:103E00000CD9C801FD01848795878C01EFE00C94E3
:103E10006943B80101E010E008950E945B43D801B6
:103E200029013A018D01FD0121813281F9013E967E
:103E3000259134913F97F9010995C801F201E80FE6
:103E4000F91F31979080F201E80FF91F808053012C
:103E5000FD010681091591F4FD010781081571F432
:103E600002E0801641F4A5019201280F391F2E5F50
:103E70003F4F8D01CEDF01E010E02DC08D01FD012F
:103E800021813281F9017096259134917197F90160
:103E9000099598018C01020F131F0E5F1F4FA0168A
:103EA000B10631F487FA16F401E003C000E001C066
:103EB00000E0002371F0F201E80FF91F21812C309E
:103EC0002CF4022F102F110F110B05C00EE010E083
:103ED00002C001E010E0ECE00C946C43980101E0BA
:103EE00010E00895980102E010E008950E946143F7
:103EF000C801D9010A2F0B2B11F401E001C000E029
:103F0000002379F000E8402E04E0502EDC011F96DB
:103F1000FC01A587B6878C01015F1F4F0E94B61771
:103F200006C0FC0143845484FC01A587B68708E4DD
:103F300014E0FC0103871487F20105911491319775
:103F4000FD01018312838C01E6E00C9472430E9410
:103F50006343C801D901082F092B79F00A2F0B2BD5
:103F600039F020E030E08C01015F1F4F0E94C5173F
:103F7000A0FB1EF48C010E947D42E4E00C9474438B
:103F80000F501040E4CF0E94574322972883398373
:103F9000D8012A013B018D889E888F89988DED8CF0
:103FA000FE8CCF8CD8A0A9A0BAA0088119810D934E
:103FB0001C931197FD0142825382648275820A89A3
:103FC000FD0100870B89FD0106830C89FD01078334
:103FD000FD0105851685F80186869786FD01058514
:103FE0001685F801808B918B298D3A8DFD01058511
:103FF0001685F801228B338B2B8D3C8DFD010585B9
:104000001685F801248B358BFD0105851685F80191
:10401000E68AF78AFD0105851685F801C08ED18EE6
:10402000FD0105851685F801A28EB38E2BA13CA15A
:10403000FD0105851685F801248F358F2DA13EA140
:10404000FD0105851685F801268F378F2FA138A52C
:10405000FD0105851685F80120A331A3FD014281EC
:1040600053816481758100E412E42FE030E00E9406
:10407000F54240E250E060E070E00E94C742080173
:10408000190148EE53E060E070E0800191010E9468
:10409000F5420F5F1F4FFD0101871287FD01058566
:1040A0001685F801428D538D20E030E0FD01058535
:1040B0001685F801028913890E948F43FD01058549
:1040C0001685F801448D558D20E030E0FD01058511
:1040D0001685F801048915890E948F43FD01058525
:1040E0001685F80140A151A1440F551F20E030E092
:1040F000FD0105851685F801008D118D0E948F4305
:104100009A938A939A928A92FD0107810A93FD01FC
:104110003681FD012085FD014281538164817581D5
:104120000D911C9111970E94352F2296E7E20C9475
:104130006843BA93AA93D8010D911C9111970E94DC
:104140006A2FA991B9910895BA93AA93D8010D91B4
:104150001C9111970E947F2FA991B9910895BA934C
:10416000AA93D8010D911C9111970E94902FA991AB
:10417000B9910895BA93AA93D8010D911C91119702
:104180000E94BE2FA991B9910895BA93AA93D8011C
:104190000D911C9111970E94D92FA991B991089561
:1041A0000E9461432801D901CA019C018D010E942E
:1041B000360D9801022FFD01E80FF91F00830196CB
:1041C0008901012F10E0FD01E80FF91F008301961E
:1041D0008C01E6E00C9472430F501040E1CF1D01BA
:1041E0000801E881F981208331838A01012F10E0E1
:1041F0000283042F03838B01012F10E00483062F19
:10420000058306E010E0D101229608950F5010407A
:10421000E6CFB801FA012083FA01318302E010E011
:1042200008950F501040F5CF0E946143D801290135
:10423000CA01AC0192010D911C9111970E94ED2FC2
:10424000E6E00C9472430F501040EECFBA93AA935D
:10425000D8010D911C9111970E942824A991B99120
:104260000895BA93AA93D8010D911C9111970E94B9
:104270002324A991B99108950E946143D80129018D
:10428000CA01AC0192010D911C9111970E94F52F6A
:10429000E6E00C9472430E946343D801C9010E9476
:1042A0002D24FD0125853685F90122853385021BE4
:1042B000130B0817190710F001E001C000E0E4E05B
:1042C0000C947443BA93AA93D8010E942D24FD0143
:1042D00025853685F90102871387A991B99108953B
:1042E0000E945F4338012901CA01843000E0900731
:1042F00010F400E01BC0F201E80FF91F3197B08104
:10430000A0E0F201E80FF91F3297008110E0A02B26
:10431000B12B9C012250304082010E94360D980141
:104320002A173B0711F401E001C000E0E8E00C941B
:1043300070430E946343D801FD01058516850E94E4
:10434000270CE2E3F0E0FBBFF9E00C941A438D0187
:10435000F0DE8D01F9DE23E0FD01058516850E9462
:10436000240C5BC28D01AEDFFD0105851685F801C9
:1043700000E0048700E0058724E0FD01058516853F
:104380000E94240C4AC28D016CDF0023F1F140E051
:1043900051E0FD0105851685F80104851585401B52
:1043A000510BFD0105851685F80126853785FD0130
:1043B00005851685F80104851585200F311F8D01AF
:1043C0005BDFC801813000E090079CF0FD010585AE
:1043D0001685F80104851585080F191F04871587B0
:1043E0008D0170DF25E0FD01058516850E94240CF6
:1043F0000CC08F3F0FEF900741F48D019ADE23E050
:10440000FD01058516850E94240C28E93AE38D01FB
:1044100042DF002341F08D018CDE23E0FD010585A4
:1044200016850E94240CF9C18D011BDF0023C1F108
:1044300040E051E0FD0105851685F80104851585EC
:10444000401B510BFD0105851685F8012685378532
:10445000FD0105851685F80104851585200F311F9E
:104460008D010ADFC801813000E090076CF0FD018A
:1044700005851685F80104851585080F191F048721
:1044800015878D011FDF0CC08F3F0FEF900741F4A0
:104490008D014FDE23E0FD01058516850E94240C69
:1044A000FD01218532858D01F6DE0023F9F0FD0145
:1044B00005851685F80144855585FD010585168518
:1044C000F801268537858D010BDF002339F026E0C2
:1044D000FD01058516850E94240C9FC18D0129DEF2
:1044E00023E0FD01058516850E94240C96C1FD017F
:1044F00005851685F80164857585FD010585168598
:10450000F80140895189FD0105851685F801268548
:104510003785FD01058516850E946C1E012B49F02B
:104520000E94322427E0FD01058516850E94240C97
:1045300074C10E9438248D01FCDD23E0FD01058556
:1045400016850E94240C69C18D01BCDE8D01F1DD50
:1045500028E0FD01058516850E94240C5EC12AE035
:1045600030E08D0198DE0023C9F0FD010585168538
:10457000F80144855585FD0105851685F8012089DA
:104580003189FD01058516850E94EA178D01F2DD4E
:1045900029E0FD01058516850E94240C3EC18D0190
:1045A00055DE002351F00E9438248D01C2DD23E046
:1045B000FD01058516850E94240C2FC18D01CFDDDC
:1045C00020E0FD01058516850E94240C26C18D0181
:1045D00079DE8D01AEDDFD0105851685F80100E06F
:1045E000048700E005878D01AFDD2DE0FD01058525
:1045F00016850E94240C11C18D0133DE0023E1F1E8
:1046000040E051E0FD0105851685F801048515851A
:10461000401B510BFD0105851685F8012685378560
:10462000FD0105851685F80104851585200F311FCC
:104630008D0122DEC801813000E090079CF08D01E1
:1046400041DEFD0105851685F80104851585080FF5
:10465000191F048715872EE0FD01058516850E9428
:10466000240C0AC08F3F0FEF900731F423E1FD01C6
:10467000058516850E94240C28EE33E08D010BDEA3
:10468000002331F023E1FD01058516850E94240CED
:10469000C4C08D01E6DD0023B1F140E051E0FD0131
:1046A00005851685F80104851585401B510BFD0114
:1046B00005851685F80126853785FD010585168552
:1046C000F80104851585200F311F8D01D5DDC80146
:1046D000813000E090076CF08D01F4DDFD0105856F
:1046E0001685F80104851585080F191F048715879D
:1046F0000AC08F3F0FEF900731F423E1FD010585DC
:1047000016850E94240CFD01218532858D01C3DDB3
:104710000023E9F0FD0105851685F80144855585DE
:10472000FD0105851685F801268537858D01D8DDC3
:10473000002339F02FE0FD01058516850E94240C29
:104740006CC023E1FD01058516850E94240C65C01F
:10475000FD0105851685F80144855585FD01058512
:104760001685F80126853785FD01058516850E9489
:104770000D1F012B39F023E1FD01058516850E94EF
:10478000240C4BC023E1FD01058516850E94240CF5
:1047900044C08D0197DD8D01CCDC0E94322421E1E3
:1047A000FD01058516850E94240C37C02AE030E003
:1047B0008D0171DD002389F1FD0105851685F80164
:1047C00044855585FD0105851685F80120893189C7
:1047D000FD01058516850E94EA178D01CBDC22E1DB
:1047E000FD01058516850E94240C17C08D012EDD64
:1047F000002399F08D01C9DC0E9438242CE0FD01D2
:10480000058516850E94240C08C08D01A8DC20E0D7
:10481000FD01058516850E94240CE4E00C94744388
:104820000F50104086CD980101E010E008950F5020
:1048300010400C941324980102E010E008950F50EA
:1048400010400C941B2406561F4FF8010081089558
:1048500005561F4FF80100810895EDE7F8E000814B
:1048600011810895009162000F7B0093620008950A
:104870000091620000640093620008950E94634307
:10488000D801822F8D01055F1F4F0E94921108E908
:1048900014E0FD01018712870EE914E0FD01048791
:1048A00015878C9320E08D01055F1F4F0E94240C1B
:1048B0008D01E4E00C9474430E946343C801D90164
:1048C000082F092B61F020E030E08C01055F1F4FBD
:1048D0000E94B311A0FB1EF48C010E947D42E4E013
:1048E0000C9474430B501040E7CF1D01D801F9011F
:1048F0000081FD01008BF90101811281FD01018B15
:10490000128BF90103811481FD01038B148BF901D2
:1049100005811681FD0105831683F9010781108544
:10492000FD01058B168BF90103891489FD01038FA5
:10493000148FF90105851685FD01078B108FF9018C
:1049400040895189F901028910E0000F111F400FC1
:10495000511FFD01418F528FF9010289085F028BBF
:10496000F90163897489F901058910E048E150E093
:104970000E948542600F711FFD01638F748FF901E2
:104980000589085F058BF901068917890F5F1F4F9D
:10499000FD0107831087FD0100E0058FD101089517
:1049A0000E946143D801FD01038914890E5F1F4FE6
:1049B000C80100E0083078F4FD01238D348D10E04B
:1049C000200F311FF901208110E0FC01E00FF11FE1
:1049D00020830395EFCF28E030E08C010E94560D34
:1049E0002801FD0103891489065F1F4FC801042DAA
:1049F000FC01008301968201012F10E0FC0100837D
:104A0000FD0103891489F80101E80083FD01008993
:104A10000E9478350AE613E001501040E9F700C023
:104A200000004DE050E0FD0123893489FD0101893A
:104A300012890E9447320E949D35FD010189128929
:104A4000F8010181013849F4FD0101891289F80159
:104A500004850E3711F401E001C000E0E6E00C949B
:104A600072430E945D43D801992420E0283020F54C
:104A7000FD01038D148D30E0020F131FF801008536
:104A80000F3FC1F0FD0105891689FD01438D548D4D
:104A900030E0420F531FFA01408550E0040F151F0C
:104AA000F8010081002331F001E010E0422F0E9464
:104AB0008F42902A2395DACF882420E0283020F5F1
:104AC000FD01038D148D30E0020F131FF8010089E2
:104AD0000F3FC1F0FD0105891689FD01438D548DFD
:104AE00030E0420F531FFA01408950E0040F151FB8
:104AF000F8010081002331F001E010E0422F0E9414
:104B00008F42802A2395DACF5524FD0103810023AB
:104B100029F0FD0100E00383689450F8FD01048151
:104B2000002329F0FD0100E00483689451F8FD01A1
:104B30000181002329F0FD0100E00183689452F80F
:104B4000FD010281002329F0FD0100E00283689449
:104B500053F8FD0103891489F80102E40083FD0183
:104B6000038914890E5F1F4FC801442420E02830B8
:104B7000A8F4FD01018D128D422F50E0440F551F06
:104B8000040F151FF8010181002331F001E010E04E
:104B9000422F0E948F42402A2395E9CFFC01408298
:104BA0000196442420E02830A8F4FD01018D128DE7
:104BB000422F50E0440F551F040F151FF8010081CC
:104BC000002331F001E010E0422F0E948F42402A82
:104BD0002395E9CFFC0140820196FC019082019669
:104BE000FC0180820196FC015082019625E030E0B4
:104BF000FD01038914890E5F1F4F0E94560D380175
:104C0000062DFC01008301968301012F10E0FC01B9
:104C100000830196FC010EE700830196FD010089E7
:104C20000E9478350AE613E001501040E9F700C011
:104C300000004AE050E0FD0123893489FD0101892B
:104C400012890E9447320E949D35FD010189128917
:104C5000F8010181045209F447C00E5109F04EC019
:104C600025E030E0FD01018912890E5F1F4F0E948F
:104C7000640D01301040BCF1FD0101891289F80179
:104C800001850E37D9F5FD0100E0058F20E08D018B
:104C90000E94B426FD0101891289F8010281402E8B
:104CA00020E02830F0F401E010E0422F0E948F4213
:104CB000142D1023112351F0FD010789108D30E0D0
:104CC000020F131FF80101E0008309C0FD010789ED
:104CD000108D30E0020F131FF80100E000832395D0
:104CE000E0CF01E020C00AC0FD01058D043130F4A1
:104CF00020E08D01055F1F4F0E94240CFD01058DF2
:104D0000043130F4FD01058D0395058F00E00BC0E3
:104D1000FD0105811681F80102E0008321E08D018B
:104D20000E94B42600E0EAE00C946E430E946443C3
:104D3000C8018C01055F1F4F0E94270C005019F01D
:104D40000A9559F00DC08C012BDEA02F21E08C01BB
:104D5000055F1F4F0E94240C03C08C0182DEA02F30
:104D60000A2FE3E00C947543AD01F801A781B085EB
:104D70002C93DA0108950E946343D801822F8D019C
:104D8000055F1F4F0E94921108EB14E0FD0101879F
:104D900012870EEB14E0FD01048715878C938D01BB
:104DA000E4E00C9474430E946343C801D901082FC6
:104DB000092B61F020E030E08C01055F1F4F0E945D
:104DC000B311A0FB1EF48C010E947D42E4E00C9420
:104DD00074430B501040E7CFBD01D801F9010081A9
:104DE000FD01008BF90101811281FD01018B128B04
:104DF000F90103811481FD01038B148BF9010581F5
:104E00001681FD0105831683F90147815085F9015B
:104E1000018510E0400F511FFD01458B568BF901B4
:104E20000185085E0187F90142855385F9010485F2
:104E300010E0400F511FFD01478B508FF901048591
:104E4000085E0487F90106891789FD010783108729
:104E5000FD0100E0018FDB0108950E946143C8015C
:104E6000DC015396ED91FC91549702E40083FC0120
:104E700000890E9478350AE613E001501040E9F7F6
:104E800000C0000049E050E0FC0123893489FC01A6
:104E9000018912890E9447320E949D35FC01458894
:104EA0005688FC01A789B08DFC0101891289F8019F
:104EB0000181045279F10E51A9F527E030E0FC019F
:104EC000018912890F5F1F4F0E94880D0130104029
:104ED0008CF1FC0100E0018F20E08C010E94B426DF
:104EE00020E02630A8F4FC010189128930E0020F8D
:104EF000131FF801328100E0043040F4132F1370C7
:104F0000369536951C9311960395F6CF2395E9CFE8
:104F100001E02DC000E0083168F414E01C93119604
:104F20000395F9CF00E0083128F414E01C931196A2
:104F30000395F9CFFC01018D043130F4FC01018DA2
:104F40000395018F00E013C000E0083128F414E05D
:104F50001C9311960395F9CFFC0105811681F80188
:104F600001E0008321E08C010E94B42600E0E6E02D
:104F70000C947243F80123830895BA93AA93D8013D
:104F80008D010E94921102EC14E0FD010183128355
:104F90008D010A5F1F4F0E948B4125E28D010E9407
:104FA000240C25E28D010E94BA278D01A991B991A7
:104FB0000895BA93AA93D8018D01DFDF06EE14E0BD
:104FC000FD010183128325E28D010E94240C25E25C
:104FD0008D010E94BA278D01A991B9910895BA93C4
:104FE000AA93D8018D01C9DF0AE015E0FD01018314
:104FF000128325E28D010E94240C25E28D010E947E
:10500000BA278D01A991B9910895BA93AA93D801AD
:105010008D01B3DF08E615E0FD010183128328E16D
:105020008D010E94240C28E18D010E94BA278D0178
:10503000A991B9910895BA93AA93D8018D019DDFE2
:105040000CE815E0FD010183128325E28D010E9429
:10505000240C25E28D010E94BA278D01A991B991F6
:105060000895BA93AA93D8018D0187DF0EE215E067
:10507000FD010183128325E28D010E94240C25E2AB
:105080008D010E94BA278D01A991B99108950E94BE
:105090006343D801C9010A2F0B2BB1F002EC14E0D5
:1050A000FD010183128322E030E08D010A5F1F4F72
:1050B0000E94A64120E030E08D010E94B31180FBE8
:1050C0001EF48D010E947D42E4E00C947443BA9377
:1050D000AA93D8018D010E94270CE0E6F0E0FBBF07
:1050E000F9E00C941A438D011196ED91FC91129701
:1050F0007096259134917197F901099598018D0168
:105100000A5F1F4F0E94B4418D011196ED91FC91F1
:1051100012973496259134913597F901099529E133
:105120008D010E94240C6AC28D010A5F1F4F0E94EC
:10513000CE41002301F18D011196ED91FC91129762
:105140007296259134917397F901099598018D0113
:105150000A5F1F4F0E94B4418D011196ED91FC91A1
:1051600012973C96259134913D97F90109952AE1D2
:105170008D010E94240C42C28D010A5F1F4F0E94C4
:10518000CE41002301F18D011196ED91FC91129712
:105190007096259134917197F901099598018D01C7
:1051A0000A5F1F4F0E94B4418D011196ED91FC9151
:1051B00012973496259134913597F901099529E193
:1051C0008D010E94240C1AC28D011196ED91FC9163
:1051D00012977096259134917197F901099598016C
:1051E0008D010A5F1F4F0E94B4418D011196ED9110
:1051F000FC9112973696259134913797F9010995CC
:1052000022E08D010E94240CF9C18D010A5F1F4F1D
:105210000E94CE41002321F021E08D010E94240C48
:10522000EDC18D011196ED91FC9112977496259127
:1052300034917597F901099598018D010A5F1F4F07
:105240000E94B4418D011196ED91FC911297389610
:10525000259134913997F901099528E08D010E9433
:10526000240CCCC18D010A5F1F4F0E94CE41002348
:1052700001F18D011196ED91FC9112977696259191
:1052800034917797F901099598018D010A5F1F4FB5
:105290000E94B4418D011196ED91FC9112973C96BC
:1052A000259134913D97F901099529E08D010E94DE
:1052B000240CA4C18D010A5F1F4F0E94CE41002320
:1052C00001F18D011196ED91FC9112977496259143
:1052D00034917597F901099598018D010A5F1F4F67
:1052E0000E94B4418D011196ED91FC911297389670
:1052F000259134913997F901099528E08D010E9493
:10530000240C7CC18D011196ED91FC911297789639
:10531000259134917997F901099598018D010A5FDA
:105320001F4F0E94B4418D011196ED91FC9112978F
:105330003A96259134913B97F90109952EE08D011C
:105340000E94240C5BC18D010A5F1F4F0E94CE4159
:10535000002301F18D011196ED91FC9112977A963F
:10536000259134917B97F901099598018D010A5F88
:105370001F4F0E94B4418D011196ED91FC9112973F
:105380003C96259134913D97F90109952FE08D01C7
:105390000E94240C33C18D010A5F1F4F0E94CE4131
:1053A000002301F18D011196ED91FC9112977896F1
:1053B000259134917997F901099598018D010A5F3A
:1053C0001F4F0E94B4418D011196ED91FC911297EF
:1053D0003A96259134913B97F90109952EE08D017C
:1053E0000E94240C0BC18D011196ED91FC91129736
:1053F0007C96259134917D97F901099598018D014D
:105400000A5F1F4F0E94B4418D011196ED91FC91EE
:1054100012973A96259134913B97F901099524E129
:105420008D010E94240CEAC08D010A5F1F4F0E946B
:10543000CE41002301F18D011196ED91FC9112975F
:105440007E96259134917F97F901099598018D01F8
:105450000A5F1F4F0E94B4418D011196ED91FC919E
:1054600012973C96259134913D97F901099525E1D4
:105470008D010E94240CC2C08D010A5F1F4F0E9443
:10548000CE41002301F18D011196ED91FC9112970F
:105490007C96259134917D97F901099598018D01AC
:1054A0000A5F1F4F0E94B4418D011196ED91FC914E
:1054B00012973A96259134913B97F901099526E187
:1054C0008D010E94240C9AC08D010A5F1F4F0E941B
:1054D000CE41002301F18D011196ED91FC911297BF
:1054E000B09625913491B197F901099598018D01F4
:1054F0000A5F1F4F0E94B4418D011196ED91FC91FE
:1055000012973C96259134913D97F901099527E131
:105510008D010E94240C72C08D010A5F1F4F0E94F2
:10552000CE41002301F18D011196ED91FC9112976E
:105530007C96259134917D97F901099598018D010B
:105540000A5F1F4F0E94B4418D011196ED91FC91AD
:1055500012973A96259134913B97F901099524E1E8
:105560008D010E94240C4AC08D011196ED91FC9191
:105570001297B29625913491B397F9010995980144
:105580008D010A5F1F4F0E94B4418D011196ED916C
:10559000FC9112973896259134913997F901099524
:1055A0002FE18D010E94240C29C08D010A5F1F4F3D
:1055B0000E94CE41002311F18D011196ED91FC91D5
:1055C00012973C96259134913D97F90109958D01EB
:1055D0000E944A2E202F8D010E94240C0FC08D01A5
:1055E0001196ED91FC9112973C96259134913D973F
:1055F000F901099520E08D010E94240CA991B9912F
:1056000008950E946343C801D901082F092B69F04E
:1056100025E28C010E94240C20E030E08C0137DD73
:10562000A0FB1EF48C010E947D42E4E00C947443C4
:105630000E946443C801A22F8C010E94270C202FD6
:105640008C010E94BA270A2F005079F00A9591F038
:105650000A95A9F00A95C1F00A95D1F00A95C1F012
:105660000250B1F00A95A1F013C025E28C010E940E
:10567000240C0EC021E08C010E94240C09C027E0FC
:105680008C010E94240C04C027E08C010E94240C91
:10569000E3E00C94754308959A938A93C80101E05E
:1056A0000E94483E8991999108959A938A93C801DE
:1056B00002E00E94483E89919991089508959A9335
:1056C0008A93C80102E00E94723E0E9422358991AD
:1056D000999108950E946343C801D901082F092BAD
:1056E00069F025E28C010E94240C20E030E08C015E
:1056F000CEDCA0FB1EF48C010E947D42E4E00C9401
:1057000074430E946443C801A22F8C010E94270C9D
:10571000202F8C010E94BA270A2F005079F00A9599
:1057200091F00A95A9F00A95C1F00A95D1F00A9571
:10573000C1F00250B1F00A95A1F013C025E28C012E
:105740000E94240C0EC021E08C010E94240C09C090
:1057500025E28C010E94240C04C02DE08C010E94E3
:10576000240CE3E00C94754308959A938A93C8013E
:1057700001E00E94483E89919991089508959A9375
:105780008A93C80103E00E94483E89919991089547
:105790009A938A93C80103E00E94723E0E942235C8
:1057A0008991999108950E946343C801D901082FF6
:1057B000092B69F025E28C010E94240C20E030E0E6
:1057C0008C0165DCA0FB1EF48C010E947D42E4E0AC
:1057D0000C9474430E946443C801A22F8C010E9460
:1057E000270C202F8C010E94BA270A2F005079F035
:1057F0000A9591F00A95A9F00A95C1F00A95F9F079
:105800000A95E9F00250B9F00A95C9F018C028E1EC
:105810008C010E94240C13C028E18C010E94240CEE
:105820000EC027E08C010E94240C09C02DE08C01E1
:105830000E94240C04C023E18C010E94240CE3E0AC
:105840000C9475439A938A93C8010E94BD2E899146
:105850009991089508959A938A93C8010E94BD2E44
:105860008991999108959A938A93C8010E94BD2EB7
:105870008991999108959A938A93C8010E94C32EA1
:105880000E9422358991999108950E946343C8012D
:10589000D901082F092B69F025E28C010E94240C04
:1058A00020E030E08C01F3DBA0FB1EF48C010E94B1
:1058B0007D42E4E00C9474430E946443C801A22F2B
:1058C0008C010E94270C202F8C010E94BA270A2FDE
:1058D000005079F00A9591F00A95A9F00A95C1F067
:1058E0000A9521F10A9511F10250B9F00A95D1F00B
:1058F0001DC025E28C010E94240C18C025E28C01F9
:105900000E94240C13C027E08C010E94240C0EC0BE
:105910002DE08C010E94240C09C023E18C010E941F
:10592000240C04C02EE18C010E94240CE3E00C94B2
:1059300075439A938A93C8010E94230D8991999186
:1059400008959A938A93C8010E94230D8991999191
:1059500008959A938A93C8010E94110D8991999193
:1059600008959A938A93C8010E941A0D899199917A
:1059700008959A938A93C8010E94230D0E942235AC
:105980008991999108950E946343C801D901082F14
:10599000092B69F025E28C010E94240C20E030E004
:1059A0008C0175DBA0FB1EF48C010E947D42E4E0BB
:1059B0000C94744308959A938A93C80101E00E945D
:1059C000BA3E0E94110D8991999108959A938A93F4
:1059D000C80101E00E94BA3E0E94110D899199917F
:1059E00008959A938A93C80102E00E94BA3E0E94E9
:1059F000110D8991999108959A938A93C80103E0B2
:105A00000E94BA3E0E94110D8991999108959A932E
:105A10008A93C8010E94230D0E9427350E942235D7
:105A2000899199910895BA93AA93D8018D010E9402
:105A3000270C0050E9F00A95E1F00A95D9F10A9592
:105A400009F460C0045009F469C00A9509F487C0DC
:105A50000A9509F4ACC0045009F4B5C00A9509F4DC
:105A6000D3C00A9509F4F8C0065109F401C10FC169
:105A70000EC18D011196ED91FC91129770962591B2
:105A800034917197F901099598018D010A5F1F4FB3
:105A90000E94B4418D011196ED91FC9112973696BA
:105AA000259134913797F901099522E08D010E94E3
:105AB000240CEDC08D010A5F1F4F0E94CE410023D0
:105AC00001F18D011196ED91FC911297729625913D
:105AD00034917397F901099598018D010A5F1F4F61
