:100000000C94D1421895189518951895189518952F
:100010001895189518951895189518951895189578
:10002000189518950C94733318951895189518957C
:100030001895189518951895189518951895189558
:100040001895189518951895189518951895189548
:1000500018951895189518950C943132189518958F
:100060001895189518951895189518951895189528
:1000700018951895189518950C9492310C944E314A
:100080000C946C311895189518951895000000007F
:10009000EF0503061C0C1F0C220C710803062E0C26
:1000A000310C340C84080306370C3A0C3D0C9708CD
:1000B0000306400C430C460CAA080306490C4C0CE2
:1000C0004F0CBD080306520C550C580CD008030603
:1000D0005B0C5E0C610CE3080306640C670C6A0C95
:1000E000F60803066D0C700C730C09090306760CF8
:1000F000790C7C0C1C092F097F0C820C850C270BBA
:100100002F09880C8B0C8E0C3A0B2F09910C940C38
:10011000970C4D0B2F099A0C9D0CA00C600B740BC7
:10012000A30CA60C0000000000000000000000006E
:10013000000000000000DB0CE90C0000C1C081C120
:10014000400101C3C003800241C201C6C00680074E
:1001500041C70005C1C581C4400401CCC00C800D5D
:1001600041CD000FC1CF81CE400E000AC1CA81CB64
:10017000400B01C9C009800841C801D8C0188019C6
:1001800041D9001BC1DB81DA401A001EC1DE81DFCC
:10019000401F01DDC01D801C41DC0014C1D481D58D
:1001A000401501D7C017801641D601D2C012801366
:1001B00041D30011C1D181D0401001F0C030803155
:1001C00041F10033C1F381F240320036C1F681F7CC
:1001D000403701F5C035803441F4003CC1FC81FD5D
:1001E000403D01FFC03F803E41FE01FAC03A803BE6
:1001F00041FB0039C1F981F840380028C1E881E9A4
:10020000402901EBC02B802A41EA01EEC02E802F4D
:1002100041EF002DC1ED81EC402C01E4C02480258C
:1002200041E50027C1E781E640260022C1E281E3E3
:10023000402301E1C021802041E001A0C060806135
:1002400041A10063C1A381A240620066C1A681A74B
:10025000406701A5C065806441A4006CC1AC81AD5C
:10026000406D01AFC06F806E41AE01AAC06A806B65
:1002700041AB0069C1A981A840680078C1B881B9C3
:10028000407901BBC07B807A41BA01BEC07E807FCD
:1002900041BF007DC1BD81BC407C01B4C07480758C
:1002A00041B50077C1B781B640760072C1B281B363
:1002B000407301B1C071807041B00050C190819114
:1002C00040510193C053805241920196C0568057CD
:1002D00041970055C19581944054019CC05C805D5C
:1002E000419D005FC19F819E405E005AC19A819BE3
:1002F000405B0199C059805841980188C0488049A5
:100300004189004BC18B818A404A004EC18E818F4A
:10031000404F018DC04D804C418C0044C18481858B
:1003200040450187C047804641860182C0428043E4
:1003300041830041C18181804040000000000000F5
:1003400000000000000000000000000000000000AD
:10035000000000000000000000000000000000009D
:100360000000000000009311A111A211A1110000D2
:10037000000000000000000000000000000000007D
:10038000000000000000000000000000000000006D
:10039000000000000000000000000000000000005D
:1003A000000000000000000000000000000000004D
:1003B000B612A111CA12A1115615A5150000000010
:1003C000000000000000000000000000000000002D
:1003D0000000262E2F271F170F07050D151D1E16AF
:1003E0000E06141C242C2D25040C222A2B231B134F
:1003F0000B03010911191A120A02101820282921C9
:1004000000083F3F3F0000000000FF00FF00FF002A
:100410000000FFFFFFFFFF5417A1110000000000C4
:1004200000000000000000000000000000000000CC
:100430000074178717000000000000000000000093
:1004400000000000000000000000004518A1115C41
:10045000182C452C452C452C45EE1FF21F000000A2
:10046000000000000000000000000000000000008C
:1004700000000027206F218921502194211F2297FD
:10048000249F24402094245C186C2186219121A370
:10049000219B24A32483040000000000000000002E
:1004A00000000000000000000000000000ED240E2D
:1004B00027D424EA24A1110000000000000000005D
:1004C000000000000000000000000000006427A5FC
:1004D000274B276127A111BF28DF282C452C452C4D
:1004E000452C452C452C45C52EC92ECD2ED12ED5BB
:1004F0002ED92EDD2EE12EE52EE92E792BDF28C315
:100500002BC42BCD2BD62BD72B902BED2EF12EF5EC
:100510002EF92EFD2E012FDD2EE12EE52EE92EE205
:100520002BDF282C2C2D2C362C372C402CF92B058E
:100530002F092F0D2F112F152F192FDD2EE12EE54D
:100540002EE92E3B2D8B2D532D5E2D692D742D7F85
:100550002D522D1D2F212F252F292F2D2F312FDD0E
:100560002EE12EE52EE92E00000000000000000024
:10057000000000000000000000000000004B2CDF25
:10058000289A2CA22CA32CAB2CB32C622CC52EC9E0
:100590002ECD2ED12ED52ED92EDD2EE12EE52EE913
:1005A0002EBD2CDF28112D192D212D292D312DD4D3
:1005B0002CC52EC92ECD2ED12ED52ED92EDD2EE135
:1005C0002EE52EE92ECF2FB03109330000000000B8
:1005D000000000000000000000000000000000001B
:1005E00000A93202013000000000000000000000FD
:1005F000000000000000006F0A012F0873060000D1
:10060000171B0000000000000000000000000000B8
:100610000000BEF0000102030405060708090A0BEA
:100620000C0D0E0F101112131415161718191A1B92
:100630001C1D1E1F202122232425262728292A2B82
:100640002C2D2E2FFFFFFFFFFFFFFFFFFFFFFFFF00
:10065000FFFFFFFFFFFFFFFFFFFFFFFFFFFFFFFFAA
:10066000FFFFFFFFFFFFFFFFFFFFFFFFFFFFFFFF9A
:10067000FFFFFFFFFFFFFFFFFFFFFFFFFFFFFFFF8A
:10068000FFFFFFFFFFFFFFFFFFFFFFFFFFFFFFFF7A
:10069000FFFFFFFFF95A03030303030303030303ED
:1006A000030303030303030303030303030302021C
:1006B000020202020202020202020202020202021A
:1006C000020202020202020202020202020202020A
:1006D00002020202020239413E3E3E3E3C3C3C3CAC
:1006E000FFFFFFFFFFFFFFFFFFFFFFFFFFFFFFFF1A
:1006F0004B6F010204081020408000000000000041
:1007000000000000000000000000000000000000E9
:1007100000000000000000000000000000000000D9
:1007200000000000000000000000000000000000C9
:1007300000000000000000000000000000000000B9
:1007400000000000000000000000000000000000A9
:100750000000000000000000000000000000000099
:100760000000000000000000000000000000000089
:10077000000099E8010102100020000000000000C4
:100780000000000000000000000000000000000069
:100790000000000000000000000000000000000059
:1007A0000000000000000000000000000000000049
:1007B0000000000000000000000000000000000039
:1007C000000000000023E20101050000FF0000001E
:1007D0000000000000000000000000000000000019
:1007E0000000000000000000000000000000000009
:1007F00000000000000000000000000000000000F9
:1008000000000000000000000000000000000000E8
:1008100000000000000000007B9C0101050100FFBA
:1008200000000000000000000000000000000000C8
:1008300000000000000000000000000000000000B8
:1008400000000000000000000000000000000000A8
:100850000000000000000000000000000000000098
:100860000000000000000000000000FB6C00000021
:100870000000000000400B000000000000000040ED
:100880000B001400000107160002101F0003803146
:10089000000440B3000518F50006800F01075191D0
:1008A000010851E401095137020A088A020B089431
:1008B0000200000000000000000000000000000036
:1008C000000000000000000101010101010101011F
:1008D0000000000000000101000000000000010114
:1008E0000000000000000101000000000000010104
:0908F000010101010101011442A2
:1008FA0000006E080A006E08E006BE078207E407D9
:10090A00FD071B086E0841085A0801017B1F201FBA
:10091A0001271F012E1F01351F013C1F01431F0123
:10092A004A1F07581F01511F015F1F01661F066DED
:10093A001F2A821F03821F01821F01741FFB0000EE
:10094A0091241400912491242D22382249229A229A
:10095A00FD222A2335235523622391246B238023E6
:10096A00CD232C244D245A247A2489240001762B61
:10097A00762B015C29017D2905892901AA2901D241
:10098A002904FA29011B2A01432A046B2A018C2A09
:10099A0001B42A01DC2A01042B01EB28010C2901EC
:1009AA003429042C2B014D2B06672BFB00005741E1
:1009BA0016004640574165408140AD40B24057411C
:1009CA005741574157415741B740C340C540D240AC
:1009DA00F540F74019411B412A413A415141430E22
:1009EA000534BA93AA93D8018D010E94781100E9BF
:1009FA0010E0FD01018312838D01A991B991089537
:100A0A00BA93AA93D8018D01ECDF0AE910E0FD013F
:100A1A000183128320E08D010E94130C8D01A9919C
:100A2A00B9910895BA93AA93D8018D01DADF04EA3D
:100A3A0010E0FD010183128321E08D010E94130C55
:100A4A008D01A991B9910895BA93AA93D8018D01FC
:100A5A00C8DF0EEA10E0FD010183128321E08D0157
:100A6A000E94130C8D01A991B9910895BA93AA9382
:100A7A00D8018D01B6DF08EB10E0FD010183128376
:100A8A0021E08D010E94130C8D01A991B99108955D
:100A9A00BA93AA93D8018D01A4DF02EC10E0FD01FC
:100AAA000183128321E08D010E94130C8D01A9910B
:100ABA00B9910895BA93AA93D8018D0192DF0CECEB
:100ACA0010E0FD010183128321E08D010E94130CC5
:100ADA008D01A991B9910895BA93AA93D8018D016C
:100AEA0080DF06ED10E0FD010183128321E08D0114
:100AFA000E94130C8D01A991B9910895BA93AA93F2
:100B0A00D8018D016EDF00EE10E0FD010183128332
:100B1A0021E08D010E94130C8D01A991B9910895CC
:100B2A00BA93AA93D8018D015CDF0AEE10E0FD01A9
:100B3A000183128321E08D010E94130C8D01A9917A
:100B4A00B9910895BA93AA93D8018D014ADF04EFA7
:100B5A0010E0FD010183128321E08D010E94130C34
:100B6A008D01A991B9910895BA93AA93D8018D01DB
:100B7A00E9DF0EEF10E0FD010183128321E08D0110
:100B8A000E94130C8D01A991B9910895BA93AA9361
:100B9A00D8018D01D7DF08E011E0FD01018312833E
:100BAA0021E08D010E94130C8D01A991B99108953C
:100BBA00BA93AA93D8018D01C5DF02E111E0FD01C4
:100BCA000183128321E08D010E94130C8D01A991EA
:100BDA00B99108950E94D143C801D901082F092B60
:100BEA0051F020E030E08C010E949311A0FB1EF42A
:100BFA008C010E94EB42E4E00C94E2430E94D14350
:100C0A00D80183E08D010E94250C0E94943D902F0B
:100C1A008D01FD0121813281F901389625913491A6
:100C2A003997F9010995002311F001E001C000E0AC
:100C3A00002309F460C08D010E94250C0E94943D96
:100C4A00005049F00A9539F00A9509F44CC00A9502
:100C5A0009F449C0A7C08D010E94250C0E94943D49
:100C6A0003700023E1F48D010E94250C10E00E941C
:100C7A00843D8D01FD0121813281F901369625914C
:100C8A0034913797F9010995002311F001E001C069
:100C9A0000E0002311F081E085C080E083C08D016F
:100CAA000E94250C0E94943D03700130D9F48D01F5
:100CBA000E94250C11E00E94843D8D01FD012181D5
:100CCA003281F9013696259134913797F9010995C0
:100CDA00002311F001E001C000E0002311F080E0E0
:100CEA0061C081E05FC082E08D010E94250C10E0A6
:100CFA000E94843D57C08D010E94250C0E94943D9C
:100D0A000370023041F08D010E94250C0E94943D2F
:100D1A0003700130E1F48D010E94250C10E00E945D
:100D2A00843D8D01FD0121813281F901369625919B
:100D3A0034913797F9010995002311F001E001C0B8
:100D4A0000E0002311F081E02DC080E02BC08D016E
:100D5A000E94250C0E94943D0370033041F08D01DE
:100D6A000E94250C0E94943D03700023D9F48D0142
:100D7A000E94250C11E00E94843D8D01FD01218114
:100D8A003281F9013696259134913797F9010995FF
:100D9A00002311F001E001C000E0002311F080E01F
:100DAA0001C081E08D010E94160CEAEFF0E0FBBF62
:100DBA00F8E00C9488438D01FD0121813281F9010B
:100DCA003896259134913997F9010995002311F044
:100DDA0001E001C000E0002309F44BC0823029F48D
:100DEA0028E08D010E94130C74C1813009F071C191
:100DFA008D010E942B0C21E00E94763C8D01FD01A1
:100E0A0021813281F9013496259134913597F9017E
:100E1A000995902F8D010E94280C192F0E94EE3DF2
:100E2A008D01FD0121813281F90134962591349198
:100E3A003597F9010995902F8D010E94280C192FD9
:100E4A000E94FB3D8D010E94280C0E94BB0C21E0F0
:100E5A000E94190CEAECFCE0038103FF05C023E0C1
:100E6A008D010E94130C35C122E08D010E94130CE2
:100E7A0030C1813009F040C08D010E942B0C21E065
:100E8A000E94763C8D01FD0121813281F90134965F
:100E9A00259134913597F9010995902F8D010E947A
:100EAA00280C192F0E94EE3D8D01FD01218132810E
:100EBA00F9013496259134913597F9010995902FC6
:100ECA008D010E94280C192F0E94FB3D8D010E9462
:100EDA00280C0E94BB0C21E00E94190CEAECFCE0F1
:100EEA00038103FF05C023E08D010E94130CF1C0AA
:100EFA0022E08D010E94130CECC0813039F48D017F
:100F0A000E942B0C20E00E94763C15C0882399F49D
:100F1A008D010E94280C10E00E94EE3D8D010E9476
:100F2A00280C0E94BB0C20E00E94190C21E08D01C4
:100F3A000E94130CCEC00E94B20C002359F08D01FE
:100F4A000E94280C11E00E94EE3D25E08D010E94CE
:100F5A00130CBFC00E94AF0C002351F08D010E94F8
:100F6A00280C11E00E94EE3D24E08D010E94130C32
:100F7A00B0C0813031F48D010E942B0C20E00E9418
:100F8A00763C0E94B20C002359F08D010E94280C75
:100F9A0011E00E94EE3D25E08D010E94130C99C0DC
:100FAA000E94AF0C002351F08D010E94280C11E021
:100FBA000E94EE3D24E08D010E94130C8AC00E941B
:100FCA00B20C002329F025E08D010E94130C81C088
:100FDA00882329F426E08D010E94130C7AC08130FF
:100FEA0031F48D010E942B0C20E00E94763C71C0E6
:100FFA00882399F48D010E94280C10E00E94EE3D8E
:10100A008D010E94280C0E94BB0C20E00E94190C42
:10101A0021E08D010E94130C5CC0813031F48D01F6
:10102A000E942B0C20E00E94763C53C0813039F498
:10103A008D010E942B0C20E00E94763C06C0823073
:10104A0021F428E08D010E94130C0E94B20C0023A7
:10105A0091F08D010E94280C10E00E94EE3D8D0156
:10106A000E94280C0E94BB0C20E00E94190C21E06F
:10107A008D010E94130C2DC08D010E94280C11E0D5
:10108A000E94EE3D8D010E94280C16E00E94FB3D55
:10109A008D010E94280C0E94BB0C21E00E94190CB1
:1010AA0029E08D010E94130C14C0823091F08D0149
:1010BA000E94280C10E00E94EE3D8D010E94280C2F
:1010CA000E94BB0C20E00E94190C21E08D010E94B5
:1010DA00130CE4E00C94E2430E94D143C801D90105
:1010EA00082F092B49F020E030E08C0173DDA0FBCA
:1010FA001EF48C010E94EB42E4E00C94E2430E944D
:10110A00D143C801D901082F092B49F020E030E06A
:10111A008C0160DDA0FB1EF48C010E94EB42E4E02E
:10112A000C94E2430E94D143C801D901082F092B2C
:10113A0049F020E030E08C014DDDA0FB1EF48C016B
:10114A000E94EB42E4E00C94E2430E94D143C801BE
:10115A00D901082F092B49F020E030E08C013ADD53
:10116A00A0FB1EF48C010E94EB42E4E00C94E243E3
:10117A000E94D143C801D901082F092B49F020E068
:10118A0030E08C0127DDA0FB1EF48C010E94EB42AB
:10119A00E4E00C94E2430E94D143C801D901082F2C
:1011AA00092B49F020E030E08C0114DDA0FB1EF48D
:1011BA008C010E94EB42E4E00C94E2430E94D1438A
:1011CA00C801D901082F092B49F020E030E08C0131
:1011DA0001DDA0FB1EF48C010E94EB42E4E00C94BA
:1011EA00E2430E94D143C801D901082F092B49F0D3
:1011FA0020E030E08C01EEDCA0FB1EF48C010E94A2
:10120A00EB42E4E00C94E2430E94D143C801D901C5
:10121A00082F092B49F020E030E08C01DBDCA0FB31
:10122A001EF48C010E94EB42E4E00C94E2430E941B
:10123A00D143C801D901082F092B49F020E030E039
:10124A008C01C8DCA0FB1EF48C010E94EB42E4E096
:10125A000C94E2430E94D143D80183E08D010E949D
:10126A00250C0E94943D902F8D01FD012181328130
:10127A00F9013896259134913997F9010995002396
:10128A0011F001E001C000E0002309F460C08D0103
:10129A000E94250C0E94943D005049F00A9539F0AD
:1012AA000A9509F44CC00A9509F449C0A7C08D01F2
:1012BA000E94250C0E94943D03700023E1F48D01E5
:1012CA000E94250C10E00E94843D8D01FD012181C0
:1012DA003281F9013696259134913797F9010995AA
:1012EA00002311F001E001C000E0002311F081E0C9
:1012FA0085C080E083C08D010E94250C0E94943D28
:10130A0003700130D9F48D010E94250C11E00E946E
:10131A00843D8D01FD0121813281F90136962591A5
:10132A0034913797F9010995002311F001E001C0C2
:10133A0000E0002311F080E061C081E05FC082E03C
:10134A008D010E94250C10E00E94843D57C08D013A
:10135A000E94250C0E94943D0370023041F08D01D9
:10136A000E94250C0E94943D03700130E1F48D0126
:10137A000E94250C10E00E94843D8D01FD0121810F
:10138A003281F9013696259134913797F9010995F9
:10139A00002311F001E001C000E0002311F081E018
:1013AA002DC080E02BC08D010E94250C0E94943D27
:1013BA000370033041F08D010E94250C0E94943D78
:1013CA0003700023D9F48D010E94250C11E00E94BC
:1013DA00843D8D01FD0121813281F90136962591E5
:1013EA0034913797F9010995002311F001E001C002
:1013FA0000E0002311F080E001C081E08D010E942D
:10140A00160C005061F00A9559F0065009F495C07F
:10141A000A9509F4E7C00A9509F4FDC010C10FC185
:10142A008D01FD0121813281F9013896259134918E
:10143A003997F9010995002311F001E001C000E094
:10144A00002309F441C0823029F428E08D010E946A
:10145A00130CF5C0813009F0F2C08D010E942B0CEB
:10146A0021E00E94763C8D01FD0121813281F90142
:10147A003496259134913597F9010995902F8D016C
:10148A000E94280C192F0E94EE3D8D01FD01218139
:10149A003281F9013496259134913597F9010995EC
:1014AA00902F8D010E94280C192F0E94FB3D8D015F
:1014BA000E94280C0E94BB0C21E00E94190C27E014
:1014CA008D010E94130CBBC08130B1F58D010E94C1
:1014DA002B0C21E00E94763C8D01FD012181328195
:1014EA00F9013496259134913597F9010995902F90
:1014FA008D010E94280C192F0E94EE3D8D01FD01DD
:10150A0021813281F9013496259134913597F90177
:10151A000995902F8D010E94280C192F0E94FB3DDE
:10152A008D010E94280C0E94BB0C21E00E94190C1C
:10153A0027E08D010E94130C82C08D01FD012181DB
:10154A003281F9013896259134913997F901099533
:10155A00002311F001E001C000E0002329F18230EC
:10156A0029F428E08D010E94130C69C0882399F49C
:10157A008D010E94280C10E00E94EE3D8D010E9410
:10158A00280C0E94BB0C20E00E94190C21E08D015E
:10159A000E94130C54C0813021F58D010E942B0C3E
:1015AA0020E00E94763C4BC0882399F48D010E946A
:1015BA00280C10E00E94EE3D8D010E94280C0E942A
:1015CA00BB0C20E00E94190C21E08D010E94130C33
:1015DA0036C08130A1F58D010E942B0C20E00E94BB
:1015EA00763C2DC08D010E94280C11E00E94EE3D30
:1015FA008D010E94280C16E00E94FB3D8D010E947D
:10160A00280C0E94BB0C21E00E94190C29E08D01D4
:10161A000E94130C14C0823091F08D010E94280C94
:10162A0010E00E94EE3D8D010E94280C0E94BB0C26
:10163A0020E00E94190C21E08D010E94130CE4E0C5
:10164A000C94E2430E94D143C801D901082F092B07
:10165A0049F020E030E08C01EADDA0FB1EF48C01A9
:10166A000E94EB42E4E00C94E2430E94D143C80199
:10167A00D901082F092B49F020E030E08C01D7DD91
:10168A00A0FB1EF48C010E94EB42E4E00C94E243BE
:10169A000E94D143C801D901082F092B49F020E043
:1016AA0030E08C01C4DDA0FB1EF48C010E94EB42E9
:1016BA00E4E00C94E2430E94D143C801D901082F07
:1016CA00092B51F020E030E08C010E949311A0FB1D
:1016DA001EF48C010E94EB42E4E00C94E2430E9467
:1016EA00D043D8018D010E94160C005049F00A958A
:1016FA0041F00A9509F463C00A9509F46BC08BC0DE
:10170A008AC0FD018181928106968D010E94A90CF1
:10171A000E949A3D402E8D01FC012591349131970A
:10172A00F90109954026442011F001E001C000E0CA
:10173A00002309F470C00E94B80C073021F1FD01A2
:10174A008181928104960E94B80C402E8D01FC0181
:10175A00259134913197F9010995401610F001E06D
:10176A0001C000E0002379F48D011196ED91FC91FE
:10177A0012973496259134913597F90109950E946B
:10178A00B50C0E94A03D8D011196ED91FC91129726
:10179A003496259134913597F9010995802F8D0159
:1017AA000E94AC0C182F0E94FB3D8D010E94AC0CCC
:1017BA000E94713F22E08D010E94130C2CC00E94EE
:1017CA00AF0C002341F10E94BF3D23E08D010E942E
:1017DA00130C21C0FD018181928106968D010E9420
:1017EA00A90C0E949A3D402E8D01FC01259134914D
:1017FA003197F90109954026442011F401E001C00E
:10180A0000E0002341F00E94C83D0E94AF3521E06C
:10181A008D010E94130CE5E00C94E143F80120834A
:10182A000895F80100810895F80120830895980128
:10183A0000E00895980100E00895980100E00895F5
:10184A00F80105810895F801038108950C5F1F4F7F
:10185A000895980100E00895980100E0089598011C
:10186A0000E00895980102E00895980100E00895C3
:10187A00980100E00895980102E00895980101E0B6
:10188A000895980100E00895980102E008959801EA
:10189A0000E00895980101E00895980102E0089592
:1018AA00980101E00895980101E00895980103E084
:1018BA000895980100E00895980100E008959801BC
:1018CA0003E00895980101E00895980100E0089561
:1018DA00980103E00895980100E00895980101E055
:1018EA000895980103E00895980101E00895980188
:1018FA0001E00895980101E00895980100E0089533
:10190A00980100E00895980101E00895980101E026
:10191A000895980100E00895980101E0089598015A
:10192A0000E00895980101E00895980101E0089502
:10193A00980101E00895980101E00895980107E0EF
:10194A000895980100E00895F80104810895F801C6
:10195A00038108950091500C08950091510C089547
:10196A000093BF0C08950091BF0C089510E048E061
:10197A0050E00E94F34298010BED1DE0020F131F85
:10198A00089526E331E0F80126833783F80120E041
:10199A002083F80120E02183F80120E02283F80166
:1019AA0020E02383F80120E0248308959A938A9300
:1019BA00C801082F092B29F020FB1EF48C010E9474
:1019CA00EB428991999108959A938A93C801082FB5
:1019DA00092B29F020FB1EF48C010E94EB4289910D
:1019EA00999108950E941D0D0E94190D0E94230DC0
:1019FA000E941F0D089508EF12E00E943D330E94D5
:101A0A001B0D0E94210D08950AE81CE00E943D3337
:101A1A000E941B0D0E94210D08950E941D0D0E9417
:101A2A00230D0E9468330895149A08951C9A089504
:101A3A001C980895159A08951D9A08951D98089559
:101A4A007B2F2A2ED8010FEF1FEF40E050E04217FC
:101A5A00530798F46C91502F65271196012F10E0C7
:101A6A00E62FF0E0EE0FFF1FE65CFE4F05901490A4
:101A7A003197002511254395E9CFA22DB72F089557
:101A8A00F80100E010E0408150E0040F151F319684
:101A9A0021503040422F432BB1F708950E94D14381
:101AAA00F801C90120E030E0008110E0200F311F69
:101ABA0031960197082F092BB9F7DF01FD013196FD
:101ACA00022F1C91011749F48901012F10E010819E
:101ADA00011719F401E010E002C000E010E0E4E0B0
:101AEA000C94E243F80140E00081400F3196215006
:101AFA003040022F032BC1F70081401719F401E08F
:101B0A0010E0089500E010E00895A895089510E007
:101B1A0048E050E00E94F342F801E056F84F06818F
:101B2A00178108950091310808950CE008950093F3
:101B3A00520C08950E94D1430E94570EB0E0A1E0D2
:101B4A000A2F015039F00A9539F10A95A1F10A953F
:101B5A0081F133C00E949A0DB017E0F42B2F0AE1ED
:101B6A001AE00E944711C801082F092B89F04B2F50
:101B7A0043959C010AE11AE00E949E0F002311F08E
:101B8A00A2E01BC00E94970D0430B9F4A3E015C06F
:101B9A00A3E013C0A4E011C00E94970D033019F40A
:101BAA00B395A1E00AC00E94970D043031F4A3E076
:101BBA0004C001E00BC000E009C00E9444100AE022
:101BCA0010E00E94FA320E948A0DBACFE4E00C9427
:101BDA00E2430E94C10F08950E94E60F08950E94F1
:101BEA001210089500E00E949C0D0E94E21000234A
:101BFA0099F0EFDF002351F0F2DF002311F001E04A
:101C0A00089504E00E949C0D00E0089504E00E94FB
:101C1A009C0D90DF00E0089504E00E949C0D8ADF8D
:101C2A0000E008950E94D243C801A22F2A2F2395CB
:101C3A008C010E948D0EE3E00C94E3438A93802F7B
:101C4A000E949A0D801730F4082F03950E948C0D7C
:101C5A0010E002C000E010E0899108950E94D2438A
:101C6A00C801A22F0A2FEADF98014A2F43958C0157
:101C7A000E949E0F10E0E3E00C94E34308E218E0B0
:101C8A000E94F94100E417E00E948F4208959A9356
:101C9A008A93C80122E030E08C010E9414428991A3
:101CAA00999108950AE11AE0E6E2F8E000831183C7
:101CBA0000E00E9469114CE650E020E030E000EAC2
:101CCA0017E00E94FD43E0EAF7E000E110E0048338
:101CDA001583E0EAF7E00CE610E0068317830EE6C8
:101CEA0010E00E941314E0EAF7E0008711870EE67D
:101CFA0010E00E941314005F1F4FE0EAF7E002832E
:101D0A001383E0EAF7E000E0008300E0018308952E
:101D1A000E94C743D1503801822E0DE0801618F078
:101D2A0000E010E077C0082D10E048E050E00E9483
:101D3A00F342F801E056F84F06811781012B09F4A6
:101D4A0051C0082D10E048E050E00E94F342F8012B
:101D5A00E056F84F00851185012B09F443C0082D80
:101D6A0010E048E050E00E94F342F801E056F84FD4
:101D7A00048115816801082D10E048E050E00E94B6
:101D8A00F342F801E056F84F068117812801082D21
:101D9A0010E048E050E00E94F342F801E056F84FA4
:101DAA00008511855801A50196018E010E94CB314B
:101DBA00A5019E018E010E94C414FE01E40DF51DC9
:101DCA00808190E0FE01E40DF51D118100E0802B79
:101DDA00912B92018E010E94250DD8018A179B072B
:101DEA00A1F403C000E010E015C0082D10E0000FB8
:101DFA00111FF801E45FF74F80839183A2019E01CE
:101E0A0083010E94ED43820105C004E00E949C0DFB
:101E1A0000E010E0DF5FEEE00C94D8430E94CB4371
:101E2A00D1502801C901642E0DE0601618F000E0B7
:101E3A0010E07BC0AC0192018E010E94ED439C012F
:101E4A0082010E94250DD8010A2FFE01E80FF91F11
:101E5A0000838D01012F10E0FE01E80FF91F0183B5
:101E6A00062D10E048E050E00E94F342F801E056E7
:101E7A00F84FA287B387AC014E5F5F4F9E01E6E23F
:101E8A00F8E0008111810E941D144801062D10E01E
:101E9A0048E050E00E94F342F801E056F84F00850E
:101EAA001185012B69F5E0EAF7E022813381062DDD
:101EBA0010E048E050E00E94F342F801E056F84F83
:101ECA0024833583E0EAF7E002811381080D191DA6
:101EDA0002831383062D10E048E050E00E94F3428B
:101EEA00F801E056F84F86839783062D10E048E004
:101EFA0050E00E94F342F801E056F84F808691863E
:101F0A00A401E6E2F8E020813181BA01062D10E051
:101F1A0048E050E00E94F342F801E056F84F04818D
:101F2A001581AB010E94DE318401DF5FEAE00C9487
:101F3A00DC430E94D043D801C901442E0E946C118F
:101F4A00002399F4442D9C018D0168DF012B41F097
:101F5A0001E00E946F1101E00E94691101E009C0CD
:101F6A0004E00E946F1100E004C002E00E946F11B9
:101F7A0000E0E5E00C94E143BD01E1E0F0E0EC3083
:101F8A0000E0F007D8F48F01000F111FD801A45FF9
:101F9A00B74F2D913C9111978F0148E050E00E9474
:101FAA00F342D801A655B84F0D911C9111972017ED
:101FBA00310711F000E003C03196E1CF01E0DB0107
:101FCA000895BA93AA936897E0E0F0E0EC3000E055
:101FDA00F007B0F48F0148E050E00E94F342D801C4
:101FEA00AE54B84F2D913C911197DE018F01000F2D
:101FFA00111FA00FB11F2D933C9311973196E6CF75
:10200A0028E130E08E010E94250DE0EAF7E0008326
:10201A0011836896A991B9910895BA93AA9368977A
:10202A00E0E0F0E0EC3000E0F007B0F48F0148E0C7
:10203A0050E00E94F342D801AE54B84F2D913C9122
:10204A001197DE018F01000F111FA00FB11F2D93F1
:10205A003C9311973196E6CF28E130E08E010E9439
:10206A00250DE0EAF7E0208131812017310711F4CC
:10207A0001E001C000E06896A991B99108950E9413
:10208A006C11005079F00A9571F00A95B1F00A9531
:10209A0089F10A9509F443C00A9509F459C00A95C9
:1020AA0009F473C008950E94661128EC30E00E947A
:1020BA00224202E00E94691108950E9454110023ED
:1020CA0061F00E94661120E137E20E9422420E94DA
:1020DA00601103E00E94691108950E9466110E942E
:1020EA003C42002331F004E00E946F1100E00E949C
:1020FA00691108950E945D11002321F004E00E94F5
:10210A00691108950E9466110E943C42002331F031
:10211A0004E00E946F1100E00E946911089540E0F6
:10212A002CE630E000EA17E079DE012B51F00E943C
:10213A00661128EC30E00E94224205E00E946911F3
:10214A00089504E00E946F1100E00E946911089549
:10215A000E945411002361F00E94661120E137E2C7
:10216A000E9422420E94601106E00E9469110895AD
:10217A000E9466110E943C420023F1F004E00E9492
:10218A006F1100E00E94691108950E945D110023F9
:10219A0039F003E00E946F1100E00E94691108956E
:1021AA000E9466110E943C42002331F004E00E9422
:1021BA006F1100E00E94691108950E94D14372DDF7
:1021CA0020E000EA17E0A4DD012B11F400E057C07B
:1021DA00B0E0A1E000E00E9472110A2F015059F00C
:1021EA000A9509F10A9581F10A95D1F10A95E9F161
:1021FA000A95C9F13CC0BD30A0F42B2FE6E2F8E005
:10220A000081118185DDC801082F092B41F00E9448
:10221A007511002311F0A2E02AC0A4E028C0A5E0AD
:10222A0026C0A6E024C04B2F9C01E6E2F8E000811C
:10223A0011817FDE002311F0A3E019C00E94970DDF
:10224A000430A9F4A5E013C00E94970D033011F4DD
:10225A00A4E00DC00E94970D043049F4A5E007C020
:10226A00B395A1E004C001E00AC000E008C007DF9E
:10227A000AE010E00E94FA320E948A0DAECFE4E032
:10228A000C94E2430E94D243C801A22F2A2F8C0148
:10229A000E947032E3E00C94E343E39A0895E19BD1
:1022AA0002C000E0089501E0089500937C080895B3
:1022BA0000917C08089500E00E945A110E94521170
:1022CA00089508E218E008950093300808950091EF
:1022DA00300808950093310808950093320808954C
:1022EA0000913208089526E633E0F801218332830B
:1022FA00F80120E020830895AD01D8018D01F3DFB4
:10230A000AE613E0FD0101831283FD0100E0038365
:10231A00FD0100E004838D01DA0108959A938A93FE
:10232A00C801082F092B29F020FB1EF48C010E94FA
:10233A00EB4289919991089508959A938A93C801D5
:10234A00082F092B29F020FB1EF48C010E94EB4276
:10235A00899199910895009161000160009361004B
:10236A00089500916200016000936200089500914F
:10237A0062000E7F0093620008950091610000647C
:10238A000093610008950091620000640093620066
:10239A000895009162000F7B0093620008950091F6
:1023AA00610002600093610008950091620002607A
:1023BA00009362000895009162000D7F009362000D
:1023CA0008950091610004600093610008950091EE
:1023DA0062000B7F009362000895BC9A0895C49826
:1023EA0008950091610000610093610008950091D1
:1023FA0062000061009362000895009162000F7EFE
:10240A0000936200089500916100006200936100E8
:10241A0008950091620000620093620008950E948C
:10242A00F21102E001BF09E103BF089500000000B4
:10243A000895000008950E94B0110E94BC110E94E4
:10244A00C2110E94C8110E94D4110E94E0110E9478
:10245A00E6110E94EC110E94F2110E94F4110E94EE
:10246A00F6110E9402120E9408120E940E120E9485
:10247A00141208950E94CE110E941B120E94C811C4
:10248A0008959A938A93902F0E94021280E08630D0
:10249A00B0F400E210E0482F0E940743192F1023DE
:1024AA00112319F00E94B61102C00E94BC110E94A9
:1024BA00DA110E941E120E94E0118395E8CF0E9451
:1024CA0002128991999108959A938A93902F0E9462
:1024DA00FC1180E08830B0F400E810E0482F0E9438
:1024EA000743192F1023112319F00E94B61102C0B5
:1024FA000E94BC110E94DA110E941E120E94E01171
:10250A008395E8CF0E940212899199910895BA930E
:10251A00AA93D8018D010E94811100EB13E0FD01FD
:10252A00018312838D01A991B99108950E94D14323
:10253A00D801C9018D01EBDF04EB13E0FD01018332
:10254A0012838D010B5F1F4F0E94F941FD018387A2
:10255A00948720E08D010E94130C8D01E4E00C9415
:10256A00E2430E94D143C801D901082F092B51F037
:10257A0020E030E08C010E94A211A0FB1EF48C0125
:10258A000E94EB42E4E00C94E2430E94D143D8015A
:10259A00C9010A2F0B2BA9F004EB13E0FD010183FB
:1025AA00128322E030E08D010B5F1F4F0E9414421C
:1025BA0020E030E08D01D5DF80FB1EF48D010E9402
:1025CA00EB42E4E00C94E2430E94D143D801922FFB
:1025DA00832F8D010E94160C005029F00A9561F094
:1025EA000A9521F148C0FD0100E0058721E08D012F
:1025FA000E94130C00E040C0992321F0FD010585DB
:10260A0001600587882321F0FD01058502600587A1
:10261A00FD01238534858D010B5F1F4F0E942242E5
:10262A0022E08D010E94130C00E026C08D010B5F91
:10263A001F4F0E943C42002331F020E08D010E948E
:10264A00130C00E019C0992321F0FD0105850160F2
:10265A000587882321F0FD01058502600587FD01B4
:10266A000585033031F420E08D010E94130C01E04E
:10267A0003C000E001C000E0E4E00C94E243202F34
:10268A0030E0E0E0F0E0E83000E0F0074CF4022F40
:10269A0010E04E2F0E940743017030273196F3CF86
:1026AA00332311F401E0089500E00895980150E001
:1026BA00E0E0F0E0EC3000E0F00744F44E2F89014E
:1026CA000E940243017050273196F4CF552311F42A
:1026DA0001E0089500E00895502F60E070E000E105
:1026EA00509F00E000220FE01022B00108E0509F46
:1026FA0000E7002200E0102260297129052F0170ED
:10270A0014E0019F60297129052F007FB8DF10E8C6
:10271A00019F60297129052F0E78B1DF18E0019F0A
:10272A0060297129052F0D76AADF12E0019F602921
:10273A007129052F0B75A3DF10E0602B712B8B011C
:10274A000895080160E0800100701F70AFDF102D4E
:10275A0017FB10E010F9011711F061E001C060E009
:10276A00660F660F660F8001007718709FDF102DC5
:10277A0013FB10E010F9011711F001E001C000E0AD
:10278A00000F000F602B8001047616708FDF102D6A
:10279A0011FB10E010F9011711F001E001C000E08F
:1027AA00000F602B80010475157080DF102D1170E9
:1027BA00011711F001E001C000E0602B062F089517
:1027CA00B801222311F48B010895209332082A9527
:1027DA0001E010E0422F0E94FD42602771278B0121
:1027EA000895B80120E044E08B010E940243007F73
:1027FA00202F062F0695069506950E70202B062F7C
:10280A0002FB00E000F9202B022F08951801810134
:10281A0098DF202F8101D4DFE4DF089500FB16F44E
:10282A000F5F1F4F980136952795020F131F0895C2
:10283A000E94C643380159016A01222433244424E0
:10284A005524EE240C2D0D2941F0C0FA36F40FEF71
:10285A00C00E0FEFD01EEE24E394882499248C1422
:10286A009D0408F04BC0F501E40DF51D008134DF2D
:10287A0020E030E0C801D90101E0400E00E0501E1E
:10288A00F501E40DF51D008127DFA80160E070E085
:10289A00ECE08A019B014E2F0E945943802B912B19
:1028AA00A22BB32B01E0400E00E0501E8C01F30175
:1028BA00E20DF31D008301E0200E00E0301E892F97
:1028CA009A2FAB2FB0E08C01F301E20DF31D0083C8
:1028DA0001E0200E00E0301E892F9A2FAB2FB0E0C6
:1028EA008C01F301E20DF31D008301E0200E00E0EC
:1028FA00301E02E0800E00E0901EB1CFEE20D9F12A
:10290A00F501E40DF51D0081E7DE20E030E0C801A5
:10291A00D90100E0E1DEA80160E070E0ECE08A01A4
:10292A009B014E2F0E945943802B912BA22BB32B34
:10293A008C01F301E20DF31D008301E0200E00E09B
:10294A00301E892F9A2FAB2FB0E08C01F301E20DD4
:10295A00F31D008301E0200E00E0301E892F9A2F1C
:10296A00AB2FB0E08C01F301E20DF31D008301E00F
:10297A00200E00E0301E8101EFE00C94D7430E9444
:10298A00C543580149017A01662477244424552411
:10299A000E2D0F2951F043E050E087010E940A43AF
:1029AA00452B19F000E010E057C0CC24DD24CE14EA
:1029BA00DF0408F050C0F401E40DF51D008110E0B9
:1029CA0020E030E0C801D90101E0400E00E0501ECD
:1029DA00F401E40DF51D008110E020E030E0322F13
:1029EA00212F102F00E0802B912BA22BB32B01E07B
:1029FA00400E00E0501EF401E40DF51D208130E088
:102A0A0000E010E0802B912BA22BB32B01E0400EAB
:102A1A0000E0501E8C010F7F1F70F8DEF501E60DF5
:102A2A00F71D008301E0600E00E0701E4CE08C018F
:102A3A009D010E9460430F7F1F70E8DEF501E60DDD
:102A4A00F71D008301E0600E00E0701E03E0C00E77
:102A5A0000E0D01EACCF8301E0E10C94D6430E9483
:102A6A00D143D801C9018D010E94811108EB13E0FD
:102A7A00FD01018312838D01075F1F4F0E94F941F7
:102A8A00FD0185839683FD0100E00087FD0100E0DA
:102A9A00078320E08D010E94130C8D01E4E00C9461
:102AAA00E2430E94D143D801C9010A2F0B2BB1F08E
:102ABA0008EB13E0FD010183128322E030E08D016F
:102ACA00075F1F4F0E94144220E030E08D010E94F0
:102ADA00A21180FB1EF48D010E94EB42E4E00C94EB
:102AEA00E243BA93AA93D8011596ED91FC911697F1
:102AFA000995002311F001E001C000E0A991B99104
:102B0A0008950E94D143D801822F8D01FD012181B0
:102B1A003281F9013296259134913397F901099559
:102B2A00FD010781081741F4FD0100E00783FD015B
:102B3A0000E0008701E001C000E0E4E00C94E24319
:102B4A00BA93AA93D8018D010E94160C005089F0FD
:102B5A000A95C1F00A9541F10A9509F44EC00A9501
:102B6A0009F474C00A9509F49AC0025009F4BCC069
:102B7A00C3C0FD010085FD01078321E08D010E948C
:102B8A00130CBAC08D01ADDF002369F08D010E94DC
:102B9A00841698018D01075F1F4F0E94224222E08E
:102BAA008D010E94130CA8C08D019BDF0023E1F068
:102BBA008D01075F1F4F0E943C420023E9F08D01FF
:102BCA000E94881698018D01075F1F4F0E942242BA
:102BDA00FD0102E00087FD010085FD01078323E076
:102BEA008D010E94130C88C0FD010085FD01078339
:102BFA0020E08D010E94130C7FC08D0172DF00233B
:102C0A00E1F08D01075F1F4F0E943C420023E9F06B
:102C1A008D010E948C1698018D01075F1F4F0E943B
:102C2A002242FD0103E00087FD010085FD010783C3
:102C3A0024E08D010E94130C5FC0FD010085FD0197
:102C4A00078320E08D010E94130C56C08D0149DFD5
:102C5A000023E1F08D01075F1F4F0E943C420023D1
:102C6A00E9F08D010E94901698018D01075F1F4FB0
:102C7A000E942242FD0104E00087FD010085FD015A
:102C8A00078327E08D010E94130C36C0FD010085E1
:102C9A00FD01078320E08D010E94130C2DC08D01D8
:102CAA0020DF0023E1F08D01075F1F4F0E943C42A5
:102CBA00002311F18D010E94941698018D01075F7E
:102CCA001F4F0E942242FD0105E00087FD01008599
:102CDA00FD01078327E08D010E94130C0DC020E03F
:102CEA008D010E94130C08C08D01FBDE002321F424
:102CFA0020E08D010E94130CA991B99108959801C1
:102D0A0004E610E0089598010CED15E00895980185
:102D1A0008EB1BE00895980108E813E1089598016B
:102D2A0002E310E00895F80100810895F801048192
:102D3A000895009162000460009362000895009172
:102D4A0062000F7D009362000895000008959A932F
:102D5A008A93C8010E9420128991999108950E942C
:102D6A00D243C8010E943F12A0E0A03338F402E027
:102D7A0014E020E00E94392FA395F7CFA0E0A033FA
:102D8A0008F058C0EA2FF0E0EE52FC4F049110E030
:102D9A0048E050E00E94F34298018C01020F131F91
:102DAA000E9498160023F9F1EA2FF0E0EE52FC4F48
:102DBA00049110E048E050E00E94F34298018C012F
:102DCA00020F131F0E949B16015049F00A9569F0E1
:102DDA000A9589F00350A9F00A95C9F01EC00BE0C4
:102DEA0014E020E00E94562F23C001E114E020E005
:102DFA000E94562F1DC008E014E020E00E94562FC2
:102E0A0017C00EE014E020E00E94562F11C004E122
:102E1A0014E020E00E94562F0BC005E014E020E0E9
:102E2A000E94562F05C005E014E020E00E94562FAC
:102E3A00A395A5CF0E949E160E94AA160E94EC1185
:102E4A000E94A416E3E00C94E343BA93AA93D80130
:102E5A008D010E94811107E114E0FD0101831283B3
:102E6A008D010B5F1F4F0E94F9418D01A991B99104
:102E7A000895BA93AA93D8018D01E7DF01E314E01C
:102E8A00FD010183128320E08D010E94241821E0B4
:102E9A008D010E94130C8D01A991B99108950E9488
:102EAA00D143D801C9010A2F0B2BB1F007E114E075
:102EBA00FD010183128322E030E08D010B5F1F4F79
:102ECA000E94144220E030E08D010E94A21180FB92
:102EDA001EF48D010E94EB42E4E00C94E2430E944E
:102EEA00D143C801D901082F092B49F020E030E06D
:102EFA008C01D5DFA0FB1EF48C010E94EB42E4E0BA
:102F0A000C94E2430E94D143C8018C010E94160C22
:102F1A00005051F00A9549F00A9539F10A95F9F1EC
:102F2A000A9509F45EC088C087C00E94473800230A
:102F3A00B9F00E945738002371F00E944F38D80127
:102F4A008C010E942A189D010E94224223E08C01D2
:102F5A000E94130C71C022E08C010E94130C6CC0F9
:102F6A0020E08C010E94130C67C08C010E94271874
:102F7A000130A1F420E08C010E94241801E00E9493
:102F8A0060380E944F38D8018C010E942A189D018E
:102F9A000E94224223E08C010E94130C4DC08C0136
:102FAA000E942718013071F420E08C010E94241835
:102FBA000E944F38D8018C010E942A189D010E9454
:102FCA0022423AC08C010E942A180E943C420023E5
:102FDA0099F105E00E949C0D24E08C010E94130CDB
:102FEA002BC08C010E942718015019F00A95B1F0E4
:102FFA0023C020E08C010E94241802E10E942D18AF
:10300A000E944F38D8018C010E942A189D010E9403
:10301A00224223E08C010E94130C0EC020E08C0196
:10302A000E94241800E00E94603802E10E942D18D4
:10303A0022E08C010E94130CE4E00C94E243F801B4
:10304A0024830895F801048108950B5F1F4F0895A2
:10305A0000939A0B089500E00E942D180E943E40AA
:10306A00FDCFBA93AA93D8018D010E9481110BE476
:10307A0014E0FD01018312838D01A991B99108958C
:10308A000E94D143C801D901082F092B51F020E031
:10309A0030E08C010E94A211A0FB1EF48C010E9458
:1030AA00EB42E4E00C94E243F801258308959A93F5
:1030BA008A93C8018C010E94160C002311F401E0C6
:1030CA0001C000E08991999108950E94CF43280197
:1030DA00C901DA01AD019C018201F20161817281AB
:1030EA00FB013696659174913797FB010995D801D2
:1030FA00AD019C018201F20161817281FB013C9662
:10310A00659174913D97FB010995E6E00C94E043C3
:10311A000E94CC43D801722E632E842ECB01AC01BF
:10312A00362D3068272D8D01FD0161817281FB01E9
:10313A003A96659174913B97FB0109952801FC0128
:10314A00E40DF51D808201E0400E00E0501E820170
:10315A00E9E00C94DD430E94CB4328010A012A844A
:10316A003B848C859D8550E06624A0E0B0E0A015E4
:10317A00B105F0F4490194012F5F3F4FFB01E80DBF
:10318A00F91D0081002331F001E010E0462D0E9474
:10319A00FD42502B07E0601641F4F101E80FF91FD8
:1031AA005083019650E0662401C063941196DFCFE4
:1031BA00662029F0F101E80FF91F508301968C016E
:1031CA00EEE00C94DC430E94C543280159014A01F0
:1031DA00CB018201F20121813281F9013E962591CA
:1031EA0034913F97F90109953801F501E60DF71D6C
:1031FA003197F080F501E60DF71DE080F501E60D47
:10320A00F71DD180CC24F501E60DF71D028110E0EF
:10321A00C02AD12AF501E60DF71DB381A0E0F50118
:10322A00E60DF71D048110E0A02BB12B0A2F0B2B02
:10323A0021F0A13D07E0B00740F0B40143E03E2D84
:10324A002F2D820165DFC80144C0F201028D138D62
:10325A0096012A0F3B1F0217130740F4B40142E0FC
:10326A003E2D2F2D820154DFC80133C0A4013E2D0B
:10327A002F2D8201F20161817281FB013A966591DB
:10328A0074913B97FB010995C8010A2F0770002327
:10329A0059F043E08D010E9402430395F401E80FBF
:1032AA00F91F0083019609C043E08D010E94024381
:1032BA00F401E80FF91F008301969A938A939A9270
:1032CA008A92F20162897389AD019601820143DF14
:1032DA00C8018C01E0E10C94D6430E94C543280141
:1032EA0059014A01CB018201F20121813281F9019E
:1032FA003E96259134913F97F90109953801F501D8
:10330A00E60DF71D3197F080F501E60DF71DE08017
:10331A00F501E60DF71DD180CC24F501E60DF71D68
:10332A00028110E0C02AD12AF501E60DF71DB3810A
:10333A00A0E0F501E60DF71D048110E0A02BB12BEA
:10334A000A2F0B2B21F0A13D07E0B00740F0B40192
:10335A0043E03E2D2F2D8201DBDEC80144C0F2017D
:10336A00048D158D96012A0F3B1F0217130740F48F
:10337A00B40142E03E2D2F2D8201CADEC80133C0BE
:10338A00A4013E2D2F2D8201F20161817281FB0180
:10339A003A96659174913B97FB010995C8010A2FEA
:1033AA000770002359F043E08D010E940243039500
:1033BA00F401E80FF91F0083019609C043E08D016B
:1033CA000E940243F401E80FF91F008301969A93C1
:1033DA008A939A928A92F20164897589AD0196015B
:1033EA008201B9DEC8018C01E0E10C94D6430E9447
:1033FA00C543280169014A01CB018201F2012181F9
:10340A003281F9013E96259134913F97F901099548
:10341A005801F601EA0DFB1D3197F080F601EA0D1D
:10342A00FB1DE080F601EA0DFB1DB181A0E0F6016B
:10343A00EA0DFB1D028110E0A02BB12BF601EA0D6B
:10344A00FB1D73806624F601EA0DFB1D048110E062
:10345A00602A712A062D072929F00EE7601600E076
:10346A00700640F0B40143E03E2D2F2D820150DE5C
:10347A00C80152C0F201068D178D9D01260D371D18
:10348A000217130740F4B40142E03E2D2F2D8201AA
:10349A003FDEC80141C0A4013E2D2F2D8201F20159
:1034AA0061817281FB013A96659174913B97FB01A8
:1034BA000995C801062D000FF401E80FF91F0083D2
:1034CA00019600E010E00615170530F5F20146896D
:1034DA0057899D01220F331F420F531FFA01208182
:1034EA003181232F30E0F401E80FF91F2083019680
:1034FA00F201468957899D01220F331F420F531F3C
:10350A00FA0120813181F401E80FF91F2083019625
:10351A0011960F5F1F4FD7CF8C01E0E10C94D64371
:10352A000E94C543280169014A01CB018201F201C7
:10353A0021813281F9013E96259134913F97F90113
:10354A0009955801F601EA0DFB1D3197F080F60145
:10355A00EA0DFB1DE080F601EA0DFB1DB181A0E03A
:10356A00F601EA0DFB1D028110E0A02BB12BF6013A
:10357A00EA0DFB1D73806624F601EA0DFB1D04812A
:10358A0010E0602A712A062D072929F00EE7601635
:10359A0000E0700640F0B40143E03E2D2F2D820179
:1035AA00B7DDC80152C0F20100A111A19D01260D8B
:1035BA00371D0217130740F4B40142E03E2D2F2DA8
:1035CA008201A6DDC80141C0A4013E2D2F2D820132
:1035DA00F20161817281FB013A96659174913B9780
:1035EA00FB010995C801062D000FF401E80FF91F28
:1035FA000083019600E010E00615170530F5F20188
:10360A00408D518D9D01220F331F420F531FFA0126
:10361A0020813181232F30E0F401E80FF91F208344
:10362A000196F201408D518D9D01220F331F420FE9
:10363A00531FFA0120813181F401E80FF91F208319
:10364A00019611960F5F1F4FD7CF8C01E0E10C94C2
:10365A00D6430E94C543580129016A01CB0185015D
:10366A00F50121813281F9013E96259134913F97E6
:10367A00F90109953801F201E60DF71D3197F0803D
:10368A00F201E60DF71DE080F201E60DF71D9180CB
:10369A008824F201E60DF71D028110E0802A912AA2
:1036AA00F501028D138D8016910640F0B60142E0B5
:1036BA003E2D2F2D85012CDDC8012EC0F201E60D0D
:1036CA00F71DB381A0E0F201E60DF71D048110E0B9
:1036DA00A02BB12BA0300FEFB00751F4940101E0F9
:1036EA000E943938AC01920186010E94ED4314C050
:1036FA000A2F0B2B51F4940100E00E943938AC01D7
:10370A00920186010E94ED4307C0B60143E03E2DB7
:10371A002F2D8501FDDCC8018C01E0E10C94D64314
:10372A000E94C7432801C9015A014B018201F201D3
:10373A0021813281F9013E96259134913F97F90111
:10374A000995D801FC01EA0FFB1F3197D080FC01D3
:10375A00EA0FFB1FC080FC01EA0FFB1F7180662481
:10376A00FC01EA0FFB1F028110E0602A712AF201B4
:10377A00068D178D6016710640F0B50142E03C2DAA
:10378A002D2D8201C5DC48011CC0FC01EA0FFB1F7C
:10379A00538140E0FC01EA0FFB1F048110E0402B3B
:1037AA00512BF201268937898301000F111F200F3F
:1037BA00311FF90140835183A4019C0185010E94B4
:1037CA00ED438401EEE00C94D8430E94C5432801DE
:1037DA0039016A01CB018201F20121813281F901A9
:1037EA003E96259134913F97F90109954801F301D5
:1037FA00E80DF91D3197F080F301E80DF91DE0801D
:10380A00F301E80DF91DB180AA24F301E80DF91DB1
:10381A00028110E0A02AB12AF301E80DF91DB38153
:10382A00A0E0F301E80DF91D048110E0A02BB12BF3
:10383A000A2F0B2B21F0A13B07E0B00740F0B6019D
:10384A0043E03E2D2F2D820163DCC80134C0F20112
:10385A00028D138D95012A0F3B1F0217130740F49F
:10386A00B60142E03E2D2F2D820152DCC80123C051
:10387A00A5019D018301080D191D0A5F1F4F0E94B2
:10388A000038A6013E2D2F2D8201F201618172813D
:10389A00FB013A96659174913B97FB010995C80122
:1038AA0044E050E09301280F391F8601080F191FC1
:1038BA000E94ED4304968C01E0E10C94D6430E94E9
:1038CA00C543480129016A013B018401F4012181B0
:1038DA003281F9013E96259134913F97F901099574
:1038EA00C801F201E80FF91F3197F080F201E80FE1
:1038FA00F91FE080F201E80FF91FB181A0E0F2019F
:10390A00E80FF91F028110E0A02BB12BF201E80F9A
:10391A00F91FB380AA24F201E80FF91F048110E00D
:10392A00A02AB12A0A2D0B2929F00CE7A01600E0DB
:10393A00B00640F0B60143E03E2D2F2D8401E8DBAE
:10394A0038014FC0F401068D178D9D012A0D3B1DCC
:10395A000217130740F4B60142E03E2D2F2D8401D1
:10396A00D7DB38013EC020E030E02A153B05E0F401
:10397A00F201E80FF91F568140E0F201E80FF91F42
:10398A00078110E0402B512BF401668977898D015C
:10399A00000F111F600F711FFB01408351831196A5
:1039AA0002962F5F3F4FE1CFA6013E2D2F2D8401B6
:1039BA00F40161817281FB013A96659174913B979A
:1039CA00FB010995380144E050E09201260D371DAC
:1039DA008601060D171D0E94ED4304E0600E00E00B
:1039EA00701E8301E0E10C94D64308010FEF1FEF2C
:1039FA000895080100E010E008950E94C9432801D3
:103A0A004901DA01CB018201F20121813281F901F6
:103A1A003E96259134913F97F90109953801F401B1
:103A2A00E60DF71D3197B080F401E60DF71DA08071
:103A3A00AD013A2D2B2D8201F20161817281FB01C8
:103A4A003A96659174913B97FB010995C801FD016E
:103A5A00E80FF91F03E000830196FD01E80FF91F43
:103A6A0000E200830196FD01E80FF91F07E00083D9
:103A7A000196FD01E80FF91F02E3008301968C010C
:103A8A00ECE00C94DA430E94C54338014901DA019B
:103A9A00CB018301F30121813281F9013E962591FF
:103AAA0034913F97F90109952801F401E40DF51DB8
:103ABA003197B080F401E40DF51DA080F401E40D06
:103ACA00F51DE280FF248C0106501040E016F10635
:103ADA0041F0BD0142E03A2D2B2D830119DBC801CB
:103AEA002CC1AD013A2D2B2D8301F3016181728125
:103AFA00FB013A96659174913B97FB010995C801C0
:103B0A00F401E40DF51D0381005049F00A9579F19D
:103B1A000A9509F49DC00A9509F4E0C007C1FD01A0
:103B2A00E80FF91F00E000830196FD01E80FF91F75
:103B3A0004E000830196F401E40DF51D0381FD0103
:103B4A00E80FF91F00830196FD01E80FF91F02E053
:103B5A0000830196FD01E80FF91F00E0008301963A
:103B6A00FD01E80FF91F02E000830196E6C0F401A7
:103B7A00E40DF51D0481C02E0E949A0D0C1540F427
:103B8A00BD0142E03A2D2B2D8301C2DAC801D5C00E
:103B9A00CC20B9F52C2D8D01040D151D0B5F1F4F7F
:103BAA000E94170E2091C90CFD01E40DF51D258315
:103BBA002091C80CFD01E40DF51D2683FD01E40DDD
:103BCA00F51D20E32783FD01E80FF91F20E020837C
:103BDA000196202F2E5FFD01E80FF91F2083019621
:103BEA00F401E40DF51D2381FD01E80FF91F20837F
:103BFA000196FD01E80FF91FC0820196800F911FFF
:103C0A009CC02C2D8D01040D151D0B5F1F4F0E94AA
:103C1A00170E9801FD01E80FF91F00E000830196D5
:103C2A00022F0E5FFD01E80FF91F00830196F401D0
:103C3A00E40DF51D0381FD01E80FF91F00830196CC
:103C4A00FD01E80FF91FC0820196820F931F75C00C
:103C5A00F401E40DF51D0481C02E0E949A0D0C1585
:103C6A0040F4BD0142E03A2D2B2D830151DAC801FF
:103C7A0064C00C2D0E94230E9801F401E40DF51D79
:103C8A00028110E0025010400217130741F0BD01F3
:103C9A0043E03A2D2B2D83013BDAC8014EC02C2D6F
:103CAA008401040D151D0B5F1F4F0E94330E012B5B
:103CBA0069F00E94F10D03E10E942D18BD0145E053
:103CCA003A2D2B2D830124DAC80137C0BD0147E004
:103CDA003A2D2B2D83011CDAC8012FC00E94970DA3
:103CEA00033081F4AD013A2D2B2D8301F30161815B
:103CFA007281FB013A96659174913B97FB01099594
:103D0A00C8011BC00E94970D013041F4BD0146E075
:103D1A003A2D2B2D8301FCD9C8010FC0BD0141E00A
:103D2A003A2D2B2D8301F4D9C80107C0BD0141E00A
:103D3A003A2D2B2D8301ECD9C8018C01E0E10C94BA
:103D4A00D6430E94C943D80149012A01CB018D01FA
:103D5A00FD0121813281F9013E96259134913F97E7
:103D6A00F90109953801F401E60DF71D3197B08084
:103D7A00F401E60DF71DA0800E94970D033081F42F
:103D8A00A2013A2D2B2D8D01FD0161817281FB016A
:103D9A003A96659174913B97FB010995C80113C046
:103DAA000E94970D013041F4B20146E03A2D2B2DC5
:103DBA008D01AED9C80107C0B20141E03A2D2B2DC1
:103DCA008D01A6D9C8018C01ECE00C94DA430E945B
:103DDA00C643D80129013A015B018D01FD01218108
:103DEA003281F9013E96259134913F97F90109955F
:103DFA004801F201E80DF91D3197C080F201E80D82
:103E0A00F91DE080C501DC2CDD0CDD08FD01058112
:103E1A0010E0C016D10629F0CC2019F000E010E01D
:103E2A0070C00E2D102F110F110BE4E1F0E0FBBF53
:103E3A00F9E00C948843BC01A30192018D01C3D916
:103E4A00C8015BC0BC01A30192018D0146DAC80119
:103E5A0054C0BC01A30192018D01C9DAC8014DC049
:103E6A00BC01A30192018D015BDBC80146C0BC0104
:103E7A00A30192018D01EDDBC8013FC0BC01A30182
:103E8A0092018D014DDCC80138C0BC01A301920129
:103E9A008D01ABDDC80131C0BC01A30192018D01C6
:103EAA0094DCC8012AC0BC01A30192018D0149DF3B
:103EBA00C80123C0BC01A30192018D0100DDC80124
:103ECA001CC0BC01A30192018D0197DDC80115C078
:103EDA00BC01A30192018D018CDDC8010EC0BC0199
:103EEA00A30192018D01CFDDC80107C0B30141E0F2
:103EFA003E2D2C2D8D010CD9C801FD018487958793
:103F0A008C01EFE00C94D743B80101E010E008956A
:103F1A000E94C943D80129013A018D01FD0121817D
:103F2A003281F9013E96259134913F97F90109951D
:103F3A00C801F201E80FF91F31979080F201E80FEA
:103F4A00F91F80805301FD010681091591F4FD01D5
:103F5A000781081571F402E0801641F4A501920167
:103F6A00280F391F2E5F3F4F8D01CEDF01E010E091
:103F7A002DC08D01FD0121813281F90170962591B3
:103F8A0034917197F901099598018C01020F131F59
:103F9A000E5F1F4FA016B10631F487FA16F401E03E
:103FAA0003C000E001C000E0002371F0F201E80F55
:103FBA00F91F21812C302CF4022F102F110F110B15
:103FCA0005C00EE010E002C001E010E0ECE00C9445
:103FDA00DA43980101E010E00895980102E010E048
:103FEA0008950E94CF43C801D9010A2F0B2B11F45F
:103FFA0001E001C000E0002379F005E9402E04E069
:10400A00502EDC011F96FC01A587B6878C01015F43
:10401A001F4F0E94361806C0FC0143845484FC01D9
:10402A00A587B68703E714E0FC0103871487F2012A
:10403A00059114913197FD01018312838C01E6E009
:10404A000C94E0430E94D143C801D901082F092BDF
:10405A0079F00A2F0B2B39F020E030E08C01015F58
:10406A001F4F0E944518A0FB1EF48C010E94EB42D0
:10407A00E4E00C94E2430F501040E4CF0E94C543A1
:10408A00229728833983D8012A013B018D889E888B
:10409A008F89988DED8CFE8CCF8CD8A0A9A0BAA060
:1040AA00088119810D931C931197FD014282538255
:1040BA00648275820A89FD0100870B89FD010683E6
:1040CA000C89FD010783FD0105851685F8018686A1
:1040DA009786FD0105851685F801808B918B298DC0
:1040EA003A8DFD0105851685F801228B338B2B8DC0
:1040FA003C8DFD0105851685F801248B358BFD0164
:10410A0005851685F801E68AF78AFD010585168573
:10411A00F801C08ED18EFD0105851685F801A28EA3
:10412A00B38E2BA13CA1FD0105851685F801248FCC
:10413A00358F2DA13EA1FD0105851685F801268F33
:10414A00378F2FA138A5FD0105851685F80120A313
:10415A0031A3FD01428153816481758100E412E437
:10416A002FE030E00E94634340E250E060E070E0FC
:10417A000E9435430801190148EE53E060E070E0FF
:10418A00800191010E9463430F5F1F4FFD01018768
:10419A001287FD0105851685F801428D538D20E0B1
:1041AA0030E0FD0105851685F801028913890E9410
:1041BA00FD43FD0105851685F801448D558D20E0E6
:1041CA0030E0FD0105851685F801048915890E94EC
:1041DA00FD43FD0105851685F80140A151A1440F53
:1041EA00551F20E030E0FD0105851685F801008D98
:1041FA00118D0E94FD439A938A939A928A92FD01A5
:10420A0007810A93FD013681FD012085FD01428166
:10421A005381648175810D911C9111970E94DD2F44
:10422A002296E7E20C94D643BA93AA93D8010D9149
:10423A001C9111970E941230A991B9910895BA93CD
:10424A00AA93D8010D911C9111970E942130A9912E
:10425A00B9910895BA93AA93D8010D911C91119717
:10426A000E943230A991B9910895BA93AA93D801BC
:10427A000D911C9111970E946030A991B9910895EE
:10428A00BA93AA93D8010D911C9111970E947B3081
:10429A00A991B99108950E94CF432801D901CA0171
:1042AA009C018D010E94250D9801022FFD01E80F46
:1042BA00F91F008301968901012F10E0FD01E80F23
:1042CA00F91F008301968C01E6E00C94E0430F503D
:1042DA001040E1CF1D010801E881F9812083318373
:1042EA008A01012F10E00283042F03838B01012F1F
:1042FA0010E00483062F058306E010E0D101229620
:10430A0008950F501040E6CFB801FA012083FA0150
:10431A00318302E010E008950F501040F5CF0E945B
:10432A00CF43D8012901CA01AC0192010D911C9118
:10433A0011970E948F30E6E00C94E0430F50104032
:10434A00EECFBA93AA93D8010D911C9111970E94AE
:10435A00AA24A991B9910895BA93AA93D8010D9163
:10436A001C9111970E94A724A991B99108950E94BE
:10437A00CF43D8012901CA01AC0192010D911C91C8
:10438A0011970E949730E6E00C94E0430E94D143D3
:10439A00D801C9010E94AD24FD0125853685F901A0
:1043AA0022853385021B130B0817190710F001E049
:1043BA0001C000E0E4E00C94E243BA93AA93D80166
:1043CA000E94AD24FD0125853685F90102871387F0
:1043DA00A991B99108950E94CB434801D901CA0114
:1043EA00843000E0900710F400E021C0FD01E80FDE
:1043FA00F91F319750804424FD01E80FF91F3297C5
:10440A00008110E0402A512A9C01225030408D013F
:10441A000E94250D38019C01225030408D010E94D6
:10442A00250D0415150511F401E001C000E0EAE0CC
:10443A000C94DC430E94D143D801FD010585168501
:10444A000E94160CE8E4F0E0FBBFF9E00C94884304
:10445A008D01EADE8D01F3DE23E0FD010585168577
:10446A000E94130C59C28D01A8DFFD01058516852E
:10447A00F80100E0048700E0058724E0FD010585D6
:10448A0016850E94130C48C28D0166DF0023F1F1E4
:10449A0040E051E0FD0105851685F8010485158582
:1044AA00401B510BFD0105851685F80126853785C8
:1044BA00FD0105851685F80104851585200F311F34
:1044CA008D0155DFC801813000E090079CF0FD01A5
:1044DA0005851685F80104851585080F191F0487B7
:1044EA0015878D016ADF25E0FD01058516850E9485
:1044FA00130C0CC08F3F0FEF900741F48D0194DE2F
:10450A0023E0FD01058516850E94130C28E93AE38C
:10451A008D013CDF002341F08D0186DE23E0FD01A1
:10452A00058516850E94130CF7C18D0115DF00233E
:10453A00C1F140E051E0FD0105851685F8010485C9
:10454A001585401B510BFD0105851685F801268549
:10455A003785FD0105851685F80104851585200F27
:10456A00311F8D0104DFC801813000E090076CF033
:10457A00FD0105851685F80104851585080F191FA3
:10458A00048715878D0119DF0CC08F3F0FEF900745
:10459A0041F48D0149DE23E0FD01058516850E945F
:1045AA00130CFD01218532858D01F0DE0023F9F01F
:1045BA00FD0105851685F80144855585FD010585AA
:1045CA001685F801268537858D0105DF002339F028
:1045DA0026E0FD01058516850E94130C9DC18D01FB
:1045EA0023DE23E0FD01058516850E94130C94C184
:1045FA00FD0105851685F80164857585FD0105852A
:10460A001685F80140895189FD0105851685F8014D
:10461A0026853785FD01058516850E94EC1E012B2E
:10462A0049F00E94B22427E0FD01058516850E9403
:10463A00130C72C10E94B4248D01F6DD23E0FD0142
:10464A00058516850E94130C67C18D01B6DE8D01A2
:10465A00EBDD28E0FD01058516850E94130C5CC17F
:10466A0025E030E08D0192DE0023C9F0FD010585C9
:10467A001685F80144855585FD0105851685F801DD
:10468A0020893189FD01058516850E946A188D01E8
:10469A00ECDD29E0FD01058516850E94130C3CC15D
:1046AA008D014FDE002341F00E94B42423E0FD0176
:1046BA00058516850E94130C2FC18D01CBDD20E0E4
:1046CA00FD01058516850E94130C26C18D0175DE34
:1046DA008D01AADDFD0105851685F80100E0048734
:1046EA0000E005878D01ABDD2DE0FD01058516850E
:1046FA000E94130C11C18D012FDE0023E1F140E06D
:10470A0051E0FD0105851685F80104851585401BD4
:10471A00510BFD0105851685F80126853785FD01B2
:10472A0005851685F80104851585200F311F8D0131
:10473A001EDEC801813000E090079CF08D013DDE4D
:10474A00FD0105851685F80104851585080F191FD1
:10475A00048715872EE0FD01058516850E94130C36
:10476A000AC08F3F0FEF900731F423E1FD01058561
:10477A0016850E94130C28EE33E08D0107DE002314
:10478A0031F023E1FD01058516850E94130CC4C092
:10479A008D01E2DD0023B1F140E051E0FD01058524
:1047AA001685F80104851585401B510BFD01058509
:1047BA001685F80126853785FD0105851685F801D8
:1047CA0004851585200F311F8D01D1DDC801813087
:1047DA0000E090076CF08D01F0DDFD01058516857E
:1047EA00F80104851585080F191F048715870AC063
:1047FA008F3F0FEF900731F423E1FD010585168500
:10480A000E94130CFD01218532858D01BFDD002335
:10481A00E9F0FD0105851685F80144855585FD01F8
:10482A0005851685F801268537858D01D4DD002397
:10483A0039F02FE0FD01058516850E94130C6CC026
:10484A0023E1FD01058516850E94130C65C0FD0153
:10485A0005851685F80144855585FD01058516856A
:10486A00F80126853785FD01058516850E948D1F6D
:10487A00012B39F023E1FD01058516850E94130CF1
:10488A004BC023E1FD01058516850E94130C44C027
:10489A008D0193DD8D01C8DC0E94B22421E1FD0166
:1048AA00058516850E94130C37C025E030E08D017E
:1048BA006DDD002389F1FD0105851685F801448522
:1048CA005585FD0105851685F80120893189FD0187
:1048DA00058516850E946A188D01C7DC22E1FD0153
:1048EA00058516850E94130C17C08D012ADD002349
:1048FA0099F08D01C5DC0E94B4242CE0FD010585E8
:10490A0016850E94130C08C08D01A4DC20E0FD016D
:10491A00058516850E94130CE4E00C94E2430F50BF
:10492A00104088CD980101E010E008950F50104022
:10493A000C949724980102E010E008950F5010405B
:10494A000C949F24F80102A50895F80103A508957F
:10495A00EDE7F8E0008111810895DB980895DB9A6C
:10496A0008950E94D143D801822F8D01055F1F4F00
:10497A000E9481110DEA14E0FD010187128703EB01
:10498A0014E0FD01048715878C9320E08D01055FF3
:10499A001F4F0E94130C8D01E4E00C94E2430E9425
:1049AA00D143C801D901082F092B61F020E030E07A
:1049BA008C01055F1F4F0E94A211A0FB1EF48C01FF
:1049CA000E94EB42E4E00C94E2430B501040E7CF24
:1049DA001D01D801F9010081FD01008BF901018156
:1049EA001281FD01018B128BF90103811481FD01F2
:1049FA00038B148BF90105811681FD01058316834A
:104A0A00F90107811085FD01058B168BF9010389D0
:104A1A001489FD01038F148FF90105851685FD019F
:104A2A00078B108FF90140895189F901028910E039
:104A3A00000F111F400F511FFD01418F528FF901C5
:104A4A000289085F028BF90163897489F901058972
:104A5A0010E048E150E00E94F342600F711FFD012F
:104A6A00638F748FF9010589085F058BF90106893F
:104A7A0017890F5F1F4FFD0107831087FD0100E0B3
:104A8A00058FD10108950E94CF43D801FD01038902
:104A9A0014890E5F1F4FC80100E0083078F4FD0149
:104AAA00238D348D10E0200F311FF901208110E091
:104ABA00FC01E00FF11F20830395EFCF28E030E0DF
:104ACA008C010E94450D2801FD0103891489065FA6
:104ADA001F4FC801042DFC01008301968201012F9A
:104AEA0010E0FC010083FD0103891489F80101E843
:104AFA000083FD0100890E9400360AE613E0015096
:104B0A001040E9F700C000004DE050E0FD012389A4
:104B1A003489FD01018912890E94DB320E942536FF
:104B2A00FD0101891289F8010181013849F4FD0169
:104B3A0001891289F80104850E3711F401E001C0D8
:104B4A0000E0E6E00C94E0430E94CB43D8019924AC
:104B5A0020E0283020F5FD01038D148D30E0020F8E
:104B6A00131FF80100850F3FC1F0FD010589168961
:104B7A00FD01438D548D30E0420F531FFA014085E9
:104B8A0050E0040F151FF8010081002331F001E005
:104B9A0010E0422F0E94FD42902A2395DACF882402
:104BAA0020E0283020F5FD01038D148D30E0020F3E
:104BBA00131FF80100890F3FC1F0FD01058916890D
:104BCA00FD01438D548D30E0420F531FFA01408995
:104BDA0050E0040F151FF8010081002331F001E0B5
:104BEA0010E0422F0E94FD42802A2395DACF5524F5
:104BFA00FD010381002329F0FD0100E0038368948D
:104C0A0050F8FD010481002329F0FD0100E004832E
:104C1A00689451F8FD010181002329F0FD0100E0AB
:104C2A000183689452F8FD010281002329F0FD01F5
:104C3A0000E00283689453F8FD0103891489F8019E
:104C4A0002E40083FD01038914890E5F1F4FC80126
:104C5A00442420E02830A8F4FD01018D128D422F52
:104C6A0050E0440F551F040F151FF801018100235E
:104C7A0031F001E010E0422F0E94FD42402A2395C4
:104C8A00E9CFFC0140820196442420E02830A8F4B0
:104C9A00FD01018D128D422F50E0440F551F040F64
:104CAA00151FF8010081002331F001E010E0422FC6
:104CBA000E94FD42402A2395E9CFFC0140820196D9
:104CCA00FC0190820196FC0180820196FC015082CF
:104CDA00019625E030E0FD01038914890E5F1F4F1C
:104CEA000E94450D3801062DFC01008301968301BF
:104CFA00012F10E0FC0100830196FC010EE70083FE
:104D0A000196FD0100890E9400360AE613E001506F
:104D1A001040E9F700C000004AE050E0FD01238995
:104D2A003489FD01018912890E94DB320E942536ED
:104D3A00FD0101891289F8010181045209F447C071
:104D4A000E5109F04EC025E030E0FD0101891289BB
:104D5A000E5F1F4F0E94530D01301040BCF1FD0140
:104D6A0001891289F80101850E37D9F5FD0100E0A4
:104D7A00058F20E08D010E942C27FD0101891289EF
:104D8A00F8010281402E20E02830F0F401E010E022
:104D9A00422F0E94FD42142D1023112351F0FD01D0
:104DAA000789108D30E0020F131FF80101E000831C
:104DBA0009C0FD010789108D30E0020F131FF801A9
:104DCA0000E000832395E0CF01E020C00AC0FD0186
:104DDA00058D043130F420E08D01055F1F4F0E94DC
:104DEA00130CFD01058D043130F4FD01058D039589
:104DFA00058F00E00BC0FD0105811681F80102E074
:104E0A00008321E08D010E942C2700E0EAE00C9447
:104E1A00DC430E94D243C8018C01055F1F4F0E94E8
:104E2A00160C005019F00A9559F00DC08C012BDEB2
:104E3A00A02F21E08C01055F1F4F0E94130C03C0B5
:104E4A008C0182DEA02F0A2FE3E00C94E343AD012C
:104E5A00F801A781B0852C93DA0108950E94D14305
:104E6A00D801822F8D01055F1F4F0E9481110DEC21
:104E7A0014E0FD010187128703ED14E0FD010487A8
:104E8A0015878C938D01E4E00C94E2430E94D14390
:104E9A00C801D901082F092B61F020E030E08C010C
:104EAA00055F1F4F0E94A211A0FB1EF48C010E94F5
:104EBA00EB42E4E00C94E2430B501040E7CFBD0113
:104ECA00D801F9010081FD01008BF90101811281EC
:104EDA00FD01018B128BF90103811481FD01038B02
:104EEA00148BF90105811681FD0105831683F901E9
:104EFA0047815085F901018510E0400F511FFD01DE
:104F0A00458B568BF9010185085E0187F9014285B7
:104F1A005385F901048510E0400F511FFD01478BAD
:104F2A00508FF9010485085E0487F90106891789FB
:104F3A00FD0107831087FD0100E0018FDB01089561
:104F4A000E94CF43C801DC015396ED91FC9154971E
:104F5A0002E40083FC0100890E9400360AE613E09D
:104F6A0001501040E9F700C0000049E050E0FC01A0
:104F7A0023893489FC01018912890E94DB320E944B
:104F8A002536FC0145885688FC01A789B08DFC01AD
:104F9A0001891289F8010181045279F10E51A9F5AA
:104FAA0027E030E0FC01018912890F5F1F4F0E9440
:104FBA00770D013010408CF1FC0100E0018F20E0F8
:104FCA008C010E942C2720E02630A8F4FC010189DC
:104FDA00128930E0020F131FF801328100E0043019
:104FEA0040F4132F1370369536951C93119603953A
:104FFA00F6CF2395E9CF01E02DC000E0083168F42F
:10500A0014E01C9311960395F9CF00E0083128F4B7
:10501A0014E01C9311960395F9CFFC01018D04311C
:10502A0030F4FC01018D0395018F00E013C000E00C
:10503A00083128F414E01C9311960395F9CFFC016A
:10504A0005811681F80101E0008321E08C010E94AC
:10505A002C2700E0E6E00C94E043F801238308954E
:10506A00BA93AA93D8018D010E94811107ED14E029
:10507A00FD01018312838D010A5F1F4F0E94F941CE
:10508A0025E28D010E94130C25E28D010E9432282F
:10509A008D01A991B9910895BA93AA93D8018D0166
:1050AA00DFDF0BEF14E0FD010183128325E28D019E
:1050BA000E94130C25E28D010E9432288D01A991CC
:1050CA00B9910895BA93AA93D8018D01C9DF0FE166
:1050DA0015E0FD010183128325E28D010E94130C64
:1050EA0025E28D010E9432288D01A991B991089576
:1050FA00BA93AA93D8018D01B3DF0DE715E0FD013C
:10510A000183128328E18D010E94130C28E18D018D
:10511A000E9432288D01A991B9910895BA93AA9350
:10512A00D8018D019DDF01EA15E0FD01018312839B
:10513A0025E28D010E94130C25E28D010E9432287E
:10514A008D01A991B9910895BA93AA93D8018D01B5
:10515A0087DF03E415E0FD010183128325E28D0157
:10516A000E94130C25E28D010E9432288D01A9911B
:10517A00B99108950E94D143D801C9010A2F0B2B76
:10518A00B1F007ED14E0FD010183128322E030E063
:10519A008D010A5F1F4F0E94144220E030E08D010A
:1051AA000E94A21180FB1EF48D010E94EB42E4E0F2
:1051BA000C94E243BA93AA93D8018D010E94160C6B
:1051CA00E6E7F0E0FBBFF9E00C9488438D01119605
:1051DA00ED91FC9112977096259134917197F9018E
:1051EA00099598018D010A5F1F4F0E9422428D0185
:1051FA001196ED91FC911297349625913491359739
:10520A00F901099529E18D010E94130C6AC28D01E9
:10521A000A5F1F4F0E943C42002301F18D01119643
:10522A00ED91FC9112977296259134917397F90139
:10523A00099598018D010A5F1F4F0E9422428D0134
:10524A001196ED91FC9112973C96259134913D97D8
:10525A00F90109952AE18D010E94130C42C28D01C0
:10526A000A5F1F4F0E943C42002301F18D011196F3
:10527A00ED91FC9112977096259134917197F901ED
:10528A00099598018D010A5F1F4F0E9422428D01E4
:10529A001196ED91FC911297349625913491359798
:1052AA00F901099529E18D010E94130C1AC28D0199
:1052BA001196ED91FC911297709625913491719700
:1052CA00F901099598018D010A5F1F4F0E94224238
:1052DA008D011196ED91FC91129736962591349194
:1052EA003797F901099522E08D010E94130CF9C143
:1052FA008D010A5F1F4F0E943C42002321F021E0EA
:10530A008D010E94130CEDC18D011196ED91FC9156
:10531A0012977496259134917597F9010995980118
:10532A008D010A5F1F4F0E9422428D011196ED9155
:10533A00FC9112973896259134913997F90109957C
:10534A0028E08D010E94130CCCC18D010A5F1F4F0A
:10535A000E943C42002301F18D011196ED91FC91CE
:10536A0012977696259134917797F90109959801C4
:10537A008D010A5F1F4F0E9422428D011196ED9105
:10538A00FC9112973C96259134913D97F901099524
:10539A0029E08D010E94130CA4C18D010A5F1F4FE1
:1053AA000E943C42002301F18D011196ED91FC917E
:1053BA0012977496259134917597F9010995980178
:1053CA008D010A5F1F4F0E9422428D011196ED91B5
:1053DA00FC9112973896259134913997F9010995DC
:1053EA0028E08D010E94130C7CC18D011196ED916C
:1053FA00FC9112977896259134917997F90109953C
:10540A0098018D010A5F1F4F0E9422428D01119659
:10541A00ED91FC9112973A96259134913B97F901B7
:10542A0009952EE08D010E94130C5BC18D010A5F64
:10543A001F4F0E943C42002301F18D011196ED910C
:10544A00FC9112977A96259134917B97F9010995E7
:10545A0098018D010A5F1F4F0E9422428D01119609
:10546A00ED91FC9112973C96259134913D97F90163
:10547A0009952FE08D010E94130C33C18D010A5F3B
:10548A001F4F0E943C42002301F18D011196ED91BC
:10549A00FC9112977896259134917997F90109959B
:1054AA0098018D010A5F1F4F0E9422428D011196B9
:1054BA00ED91FC9112973A96259134913B97F90117
:1054CA0009952EE08D010E94130C0BC18D011196D6
:1054DA00ED91FC9112977C96259134917D97F90173
:1054EA00099598018D010A5F1F4F0E9422428D0182
:1054FA001196ED91FC9112973A96259134913B972A
:10550A00F901099524E18D010E94130CEAC08D016D
:10551A000A5F1F4F0E943C42002301F18D01119640
:10552A00ED91FC9112977E96259134917F97F9011E
:10553A00099598018D010A5F1F4F0E9422428D0131
:10554A001196ED91FC9112973C96259134913D97D5
:10555A00F901099525E18D010E94130CC2C08D0144
:10556A000A5F1F4F0E943C42002301F18D011196F0
:10557A00ED91FC9112977C96259134917D97F901D2
:10558A00099598018D010A5F1F4F0E9422428D01E1
:10559A001196ED91FC9112973A96259134913B9789
:1055AA00F901099526E18D010E94130C9AC08D011B
:1055BA000A5F1F4F0E943C42002301F18D011196A0
:1055CA00ED91FC911297B09625913491B197F9011A
:1055DA00099598018D010A5F1F4F0E9422428D0191
:1055EA001196ED91FC9112973C96259134913D9735
:1055FA00F901099527E18D010E94130C72C08D01F2
:10560A000A5F1F4F0E943C42002301F18D0111964F
:10561A00ED91FC9112977C96259134917D97F90131
:10562A00099598018D010A5F1F4F0E9422428D0140
:10563A001196ED91FC9112973A96259134913B97E8
:10564A00F901099524E18D010E94130C4AC08D01CC
:10565A001196ED91FC911297B29625913491B397D8
:10566A00F901099598018D010A5F1F4F0E94224294
:10567A008D011196ED91FC911297389625913491EE
:10568A003997F90109952FE18D010E94130C29C060
:10569A008D010A5F1F4F0E943C42002311F18D01C8
:1056AA001196ED91FC9112973C96259134913D9774
:1056BA00F90109958D010E94C22E202F8D010E94A9
:1056CA00130C0FC08D011196ED91FC9112973C9627
:1056DA00259134913D97F901099520E08D010E94A9
:1056EA00130CA991B99108950E94D143C801D90117
:1056FA00082F092B69F025E28C010E94130C20E087
:10570A0030E08C0137DDA0FB1EF48C010E94EB42D5
:10571A00E4E00C94E2430E94D243C801A22F8C0118
:10572A000E94160C202F8C010E9432280A2F00504A
:10573A0079F00A9591F00A95A9F00A95C1F00A95AF
:10574A00D1F00A95C1F00250B1F00A95A1F013C048
:10575A0025E28C010E94130C0EC021E08C010E94EC
:10576A00130C09C027E08C010E94130C04C027E027
:10577A008C010E94130CE3E00C94E34308959A937E
:10578A008A93C80101E00E94C83E899199910895BF
:10579A009A938A93C80102E00E94C83E899199911E
:1057AA00089508959A938A93C80102E00E94F23EEE
:1057BA000E94AA358991999108950E94D143C801FE
:1057CA00D901082F092B69F025E28C010E94130CDC
:1057DA0020E030E08C01CEDCA0FB1EF48C010E949C
:1057EA00EB42E4E00C94E2430E94D243C801A22FA8
:1057FA008C010E94160C202F8C010E9432280A2F3D
:10580A00005079F00A9591F00A95A9F00A95C1F02D
:10581A000A95D1F00A95C1F00250B1F00A95A1F0AB
:10582A0013C025E28C010E94130C0EC021E08C01EA
:10583A000E94130C09C025E28C010E94130C04C0BB
:10584A002DE08C010E94130CE3E00C94E3430895CD
:10585A009A938A93C80101E00E94C83E899199915E
:10586A00089508959A938A93C80103E00E94C83E56
:10587A008991999108959A938A93C80103E00E94A5
:10588A00F23E0E94AA358991999108950E94D143C6
:10589A00C801D901082F092B69F025E28C010E9461
:1058AA00130C20E030E08C0165DCA0FB1EF48C01B7
:1058BA000E94EB42E4E00C94E2430E94D243C80106
:1058CA00A22F8C010E94160C202F8C010E943228D4
:1058DA000A2F005079F00A9591F00A95A9F00A95D5
:1058EA00C1F00A95F9F00A95E9F00250B9F00A9563
:1058FA00C9F018C028E18C010E94130C13C028E1DA
:10590A008C010E94130C0EC027E08C010E94130C1C
:10591A0009C02DE08C010E94130C04C023E18C0104
:10592A000E94130CE3E00C94E3439A938A93C80110
:10593A000E94352F89919991089508959A938A938F
:10594A00C8010E94352F8991999108959A938A9353
:10595A00C8010E94352F8991999108959A938A9343
:10596A00C8010E94372F0E94AA35899199910895FA
:10597A000E94D143C801D901082F092B69F025E2F9
:10598A008C010E94130C20E030E08C01F3DBA0FBB9
:10599A001EF48C010E94EB42E4E00C94E2430E9464
:1059AA00D243C801A22F8C010E94160C202F8C0111
:1059BA000E9432280A2F005079F00A9591F00A9530
:1059CA00A9F00A95C1F00A9521F10A9511F1025040
:1059DA00B9F00A95D1F01DC025E28C010E94130C82
:1059EA0018C025E28C010E94130C13C027E08C0119
:1059FA000E94130C0EC02DE08C010E94130C09C0EA
:105A0A0023E18C010E94130C04C02EE18C010E9438
:105A1A00130CE3E00C94E3439A938A93C8010E941F
:105A2A00120D8991999108959A938A93C8010E94B7
:105A3A00120D8991999108959A938A93C8010E94A7
:105A4A00000D8991999108959A938A93C8010E94A9
:105A5A00090D8991999108959A938A93C8010E9490
:105A6A00120D0E94AA358991999108950E94D143F5
:105A7A00C801D901082F092B69F025E28C010E947F
:105A8A00130C20E030E08C0175DBA0FB1EF48C01C6
:105A9A000E94EB42E4E00C94E24308959A938A93BD
:105AAA00C80101E00E943A3F0E94000D8991999134
:105ABA0008959A938A93C80101E00E943A3F0E948E
:105ACA00000D8991999108959A938A93C80102E0E9
