:100000000C94363C189518951895189518951895D0
:100010001895189518951895189518951895189578
:10002000189518950C94CF2D189518951895189526
:100030001895189518951895189518951895189558
:100040001895189518951895189518951895189548
:1000500018951895189518950C948D2C1895189539
:100060001895189518951895189518951895189528
:1000700018951895189518950C94EE2B0C94AA2B9E
:100080000C94C82B18951895189518950000000029
:1000900075058905B908BC08E0068905C808CB08BC
:1000A000F3068905CE08D10806078905D408D708C4
:1000B00019078905DA08DD082C078905E008E30837
:1000C0003F075207E608E908EA075207EC08EF087D
:1000D000FD071108F208F50800000000000000000C
:1000E000000000000000000000002A09380900009C
:1000F000C1C081C1400101C3C003800241C201C629
:10010000C006800741C70005C1C581C4400401CCB9
:10011000C00C800D41CD000FC1CF81CE400E000A32
:10012000C1CA81CB400B01C9C009800841C801D8B0
:10013000C018801941D9001BC1DB81DA401A001EAA
:10014000C1DE81DF401F01DDC01D801C41DC0014C9
:10015000C1D481D5401501D7C017801641D601D230
:10016000C012801341D30011C1D181D0401001F0E1
:10017000C030803141F10033C1F381F240320036AA
:10018000C1F681F7403701F5C035803441F4003CB9
:10019000C1FC81FD403D01FFC03F803E41FE01FAB0
:1001A000C03A803B41FB0039C1F981F84038002852
:1001B000C1E881E9402901EBC02B802A41EA01EE28
:1001C000C02E802F41EF002DC1ED81EC402C01E4C9
:1001D000C024802541E50027C1E781E640260022B2
:1001E000C1E281E3402301E1C021802041E001A080
:1001F000C060806141A10063C1A381A2406200662A
:10020000C1A681A7406701A5C065806441A4006CB8
:10021000C1AC81AD406D01AFC06F806E41AE01AA2F
:10022000C06A806B41AB0069C1A981A840680078B1
:10023000C1B881B9407901BBC07B807A41BA01BEA7
:10024000C07E807F41BF007DC1BD81BC407C01B4C8
:10025000C074807541B50077C1B781B64076007231
:10026000C1B281B3407301B1C071807041B0005020
:10027000C190819140510193C053805241920196A7
:10028000C056805741970055C19581944054019CB8
:10029000C05C805D419D005FC19F819E405E005AB1
:1002A000C19A819B405B0199C0598058419801884F
:1002B000C04880494189004BC18B818A404A004E29
:1002C000C18E818F404F018DC04D804C418C0044C8
:1002D000C184818540450187C047804641860182AF
:1002E000C042804341830041C18181804040000081
:1002F00000000000000000000000000000000000FE
:1003000000000000000000000000000000000000ED
:1003100000000000000000000000E20DF00DF10DF3
:10032000F00D0000000000000000000000000000D0
:1003300000000000000000000000000000000000BD
:1003400000000000000000000000000000000000AD
:10035000000000000000000000000000000000009D
:1003600000000000050FF00D190FF00DA511F4119C
:10037000000000000000000000000000000000007D
:10038000000000000000262E2F271F170F07050D65
:10039000151D1E160E06141C242C2D25040C222AB5
:1003A0002B231B130B03010911191A120A0210182F
:1003B0002028292100083F3F3F00000000FF0000E7
:1003C00000FFFF000000FFFFFFFFFF9B13F00D0089
:1003D000000000000000000000000000000000001D
:1003E0000000000000BB13CE13000000000000005E
:1003F0000000000000000000000000000000008C71
:1004000014F00DA314913E913E913E913E351C395E
:100410001C000000000000000000000000000000C0
:10042000000000000000006E1CC81DE21DA91DEDAB
:100430001D781EF020F820871CED20A314C51DDFB9
:100440001DEA1DFC1DF420FC203704000000000004
:10045000000000000000000000000000000000009C
:1004600000462167232D214321F00D0000000000EC
:10047000000000000000000000000000000000007C
:1004800000BD23EF23A423BA23F00DE62406259113
:100490003E913E913E913E913E913E39293D29410A
:1004A00029452949294D295129552959295D29A02D
:1004B000270625DF27E027E927F227F327B727615B
:1004C00029652969296D29712975295129552959C4
:1004D000295D29FE2706253D283E28472848285122
:1004E00028152879297D298129852989298D29514E
:1004F00029552959295D290000000000000000004D
:10050000000000000000000000000000005C280661
:1005100025A028A828A928B128B928732839293D59
:10052000294129452949294D295129552959295D0B
:1005300029C32806250C2914291C2924292C29DA49
:100540002839293D294129452949294D295129552C
:100550002959295D292B2A0C2C652D00000000004B
:10056000000000000000000000000000000000008B
:1005700000052D0201300000000000000000000016
:10058000000000000000006F0A012F087306000041
:10059000171B000000000000000000000000000029
:1005A0000000BEF0000102030405060708090A0B5B
:1005B0000C0D0E0F101112131415161718191A1B03
:1005C0001C1D1E1F202122232425262728292A2BF3
:1005D0002C2D2E2FFFFFFFFFFFFFFFFFFFFFFFFF71
:1005E000FFFFFFFFFFFFFFFFFFFFFFFFFFFFFFFF1B
:1005F000FFFFFFFFFFFFFFFFFFFFFFFFFFFFFFFF0B
:10060000FFFFFFFFFFFFFFFFFFFFFFFFFFFFFFFFFA
:10061000FFFFFFFFFFFFFFFFFFFFFFFFFFFFFFFFEA
:10062000FFFFFFFFF95A030303030303030303035D
:10063000030303030303030303030303030302028C
:10064000020202020202020202020202020202028A
:10065000020202020202020202020202020202027A
:1006600002020202020239413E3E3E3E3C3C3C3C1C
:10067000FFFFFFFFFFFFFFFFFFFFFFFFFFFFFFFF8A
:100680004B6F0102040810204080000000000000B1
:10069000000000000000000000000000000000005A
:1006A000000000000000000000000000000000004A
:1006B000000000000000000000000000000000003A
:1006C000000000000000000000000000000000002A
:1006D000000000000000000000000000000000001A
:1006E000000000000000000000000000000000000A
:1006F00000000000000000000000000000000000FA
:10070000000099E801010210002000000000000034
:1007100000000000000000000000000000000000D9
:1007200000000000000000000000000000000000C9
:1007300000000000000000000000000000000000B9
:1007400000000000000000000000000000000000A9
:10075000000000000023E20101050000FF0000008E
:100760000000000000000000000000000000000089
:100770000000000000000000000000000000000079
:100780000000000000000000000000000000000069
:100790000000000000000000000000000000000059
:1007A00000000000000000007B9C0101050100FF2B
:1007B0000000000000000000000000000000000039
:1007C0000000000000000000000000000000000029
:1007D0000000000000000000000000000000000019
:1007E0000000000000000000000000000000000009
:1007F0000000000000000000000000FB6C00000092
:100800000000000000400B00140000010716000269
:10081000101F00038031000440B3000518F50006E6
:10082000800F01075191010851E401095137020A73
:10083000088A020000000000000000000000000024
:1008400000000000000000000001010101010101A1
:100850000101000000000000010100000000000094
:100860000101000000000000010100000000000084
:0B087000010101010101010101793BC0
:10087C000101C21B671B016E1B01751B017C1B0157
:10088C00831B018A1B01911B079F1B01981B01A64F
:10089C001B01AD1B06B41B2AC91B03C91B01C91BB9
:1008AC0001BB1BFB0000EA201400EA20EA20861E94
:1008BC00911EA21EF31E561F831F8E1FAE1FBB1F41
:1008CC00EA20C41FD91F26208520A620B320D320C0
:1008DC00E22000019D279D2701832501A42505B059
:1008EC002501D12501F925042126014226016A267C
:1008FC0004922601B32601DB26010327012B2701D5
:10090C001225013325015B25045327017427068E1C
:10091C0027FB0000DC270800C927CE27D327D827C0
:10092C00DC27DC27DC27DC2700003A2808002728F6
:10093C002C28312836283A283A283A283A28000018
:10094C009D28080085288A288F2894289D289D2872
:10095C0099289D28000009290800EC28F128F62880
:10096C00FB2809290929002905290000BC3A150092
:10097C00A239BC3AC639E1390C3A113ABC3ABC3A04
:10098C00BC3ABC3ABC3A163A283A3C3A5F3A613A1D
:10099C00833A853A943AA43AB63A920A612EBA93BB
:1009AC00AA93D8018D010E94C70D00E910E0FD014A
:1009BC00018312838D01A991B9910895BA93AA93D9
:1009CC00D8018D01ECDF08E910E0FD0101831283F1
:1009DC0020E08D010E94B0088D01A991B991089574
:1009EC00BA93AA93D8018D01DADF00EA10E0FD0179
:1009FC000183128321E08D010E94B0088D01A99121
:100A0C00B9910895BA93AA93D8018D01C8DF08EA69
:100A1C0010E0FD010183128321E08D010E94B008DA
:100A2C008D01A991B9910895BA93AA93D8018D011A
:100A3C00B6DF00EB10E0FD010183128321E08D0194
:100A4C000E94B0088D01A991B9910895BA93AA9307
:100A5C00D8018D01A4DF08EB10E0FD0101831283A6
:100A6C0021E08D010E94B0088D01A991B9910895E2
:100A7C00BA93AA93D8018D0192DF00EC10E0FD012E
:100A8C000183128321E08D010E94B0088D01A99190
:100A9C00B9910895BA93AA93D8018D01E9DF08ECB6
:100AAC0010E0FD010183128321E08D010E94B0084A
:100ABC008D01A991B9910895BA93AA93D8018D018A
:100ACC000E94C70D00ED10E0FD010183128321E0AF
:100ADC008D010E94B0088D01A991B99108950E94D1
:100AEC00363DC801D901082F092B51F020E030E028
:100AFC008C010E94E20DA0FB1EF48C010E94503C64
:100B0C00E4E00C94473D0E94353DD8018D010E94D4
:100B1C00B308005079F00A9571F00A9509F47CC07D
:100B2C000A9509F4BAC00A9509F4E5C00A9509F4C6
:100B3C000FC13DC13CC1FD018181928106968D01A1
:100B4C000E94BF080E94EA36402E8D01FC012591BF
:100B5C0034913197F90109954026442011F001E0B8
:100B6C0001C000E0002309F422C18D010E94C508D8
:100B7C0021E00E9437360E940709033021F1FD0164
:100B8C008181928104960E940709402E8D01FC01FF
:100B9C00259134913197F9010995401610F001E037
:100BAC0001C000E0002379F48D011196ED91FC91C8
:100BBC0012973496259134913597F90109950E9435
:100BCC0004090E9416378D011196ED91FC91129734
:100BDC003496259134913597F9010995802F8D0123
:100BEC000E94C208182F0E9472378D011196ED9148
:100BFC00FC9112973496259134913597F90109950A
:100C0C00802F8D010E94C208182F0E947F3722E08E
:100C1C008D010E94B008CBC0FD01818192810696A6
:100C2C008D010E94BF080E94EA36402E8D01FC0106
:100C3C00259134913197F90109954026442011F002
:100C4C0001E001C000E0002331F08D010E94C508D5
:100C5C0020E00E9437360E940109002369F00E94AF
:100C6C0043378D010E94C20811E00E94723724E0C4
:100C7C008D010E94B0089BC00E94FE08002361F009
:100C8C000E9443378D010E94C20811E00E94723706
:100C9C0023E08D010E94B0088AC00E940109002344
:100CAC0029F024E08D010E94B00881C0FD018181F2
:100CBC00928106968D010E94BF080E94EA36402E52
:100CCC008D01FC01259134913197F901099540264C
:100CDC00442011F401E001C000E0002329F025E0DC
:100CEC008D010E94B00863C08D010E94C50820E0F0
:100CFC000E9437365CC0FD018181928106968D0180
:100D0C000E94BF080E94EA36402E8D01FC012591FD
:100D1C0034913197F90109954026442011F401E0F2
:100D2C0001C000E0002369F00E944C378D010E9445
:100D3C00C20810E00E94723721E08D010E94B008B9
:100D4C0036C08D010E94C50820E00E9437362FC0A6
:100D5C00FD018181928106968D010E94BF080E943F
:100D6C00EA36402E8D01FC01259134913197F90121
:100D7C0009954026442011F001E001C000E0002359
:100D8C0031F08D010E94C50820E00E9437360E9488
:100D9C000109002361F00E944C378D010E94C208AA
:100DAC0010E00E94723721E08D010E94B008E5E04E
:100DBC000C94463D0E94363DC801D901082F092BE1
:100DCC0049F020E030E08C018ADEA0FB1EF48C019F
:100DDC000E94503CE4E00C94473D0E94363DC80113
:100DEC00D901082F092B49F020E030E08C0177DE87
:100DFC00A0FB1EF48C010E94503CE4E00C94473D97
:100E0C000E94363DC801D901082F092B49F020E07A
:100E1C0030E08C0164DEA0FB1EF48C010E94503C7F
:100E2C00E4E00C94473D0E94363DC801D901082FDF
:100E3C00092B49F020E030E08C0151DEA0FB1EF4C0
:100E4C008C010E94503CE4E00C94473D0E94363DDE
:100E5C00C801D901082F092B49F020E030E08C01A2
:100E6C003EDEA0FB1EF48C010E94503CE4E00C948E
:100E7C00473D0E94363DC801D901082F092B49F086
:100E8C0020E030E08C012BDEA0FB1EF48C010E94D4
:100E9C00503CE4E00C94473D0E94353DD8018D0157
:100EAC000E94B308005031F00A9529F0055009F45E
:100EBC0054C087C086C0FD018181928106968D0148
:100ECC000E94BF080E94EA36402E8D01FC0125913C
:100EDC0034913197F90109954026442011F001E035
:100EEC0001C000E00023C1F18D010E94C50821E082
:100EFC000E9437368D011196ED91FC911297349624
:100F0C00259134913597F9010995802F8D010E9417
:100F1C00C208182F0E9472378D011196ED91FC9129
:100F2C0012973496259134913597F9010995802FB4
:100F3C008D010E94C208182F0E947F378D010E94DC
:100F4C00C2080E940A0921E00E94B6080E94F32FF1
:100F5C0026E08D010E94B00834C0FD018181928190
:100F6C0006968D010E94BF080E94EA36402E8D0124
:100F7C00FC01259134913197F901099540264420C3
:100F8C0011F401E001C000E00023A9F08D010E94E2
:100F9C00C20810E00E9472378D010E94C2080E94A4
:100FAC000A0920E00E94B6080E94F32F21E08D016F
:100FBC000E94B00806C08D010E94C50820E00E9466
:100FCC003736E5E00C94463D0E94363DC801D90108
:100FDC00082F092B49F020E030E08C014ADFA0FB00
:100FEC001EF48C010E94503CE4E00C94473D0E949E
:100FFC00363DC801D901082F092B51F020E030E013
:10100C008C010E94E20DA0FB1EF48C010E94503C4E
:10101C00E4E00C94473D0E94353DD8018D010E94BF
:10102C00B308005049F00A9541F00A9509F463C0E1
:10103C000A9509F46BC08BC08AC0FD018181928135
:10104C0006968D010E94F8080E94F836402E8D01FC
:10105C00FC01259134913197F901099540264420E2
:10106C0011F001E001C000E0002309F470C00E94FF
:10107C000709063021F1FD018181928104960E94BD
:10108C000709402E8D01FC01259134913197F9010E
:10109C000995401610F001E001C000E0002379F43E
:1010AC008D011196ED91FC91129734962591349106
:1010BC003597F90109950E9404090E9424378D0186
:1010CC001196ED91FC9112973496259134913597A8
:1010DC00F9010995802F8D010E94FB08182F0E94A1
:1010EC007F378D010E94FB080E94F63822E08D01AB
:1010FC000E94B0082CC00E94FE08002341F10E94FF
:10110C00433723E08D010E94B00821C0FD0181818D
:10111C00928106968D010E94F8080E94F836402EA6
:10112C008D01FC01259134913197F90109954026E7
:10113C00442011F401E001C000E0002341F00E94C2
:10114C004C370E94F82F21E08D010E94B008E5E099
:10115C000C94463DF80120830895F8010081089510
:10116C00F80120830895980100E00895980100E0AB
:10117C000895F80105810895F801038108950C5F25
:10118C001F4F0895980100E00895980100E008951C
:10119C00980102E00895980100E00895980102E09A
:1011AC000895980101E00895980103E008959801CD
:1011BC0000E00895980103E00895980101E0089576
:1011CC00980101E00895980100E00895980101E06C
:1011DC000895980101E00895980106E0089598019A
:1011EC0000E00895F80104810895F8010381089541
:1011FC000091400C08950091410C08950093A10CAE
:10120C0008950091A10C089510E048E050E00E9470
:10121C00583C98010DEB1DE0020F131F08952AEEA8
:10122C0030E0F80126833783F80120E02083F801B1
:10123C0020E02183F80120E02283F80120E02383C1
:10124C00F80120E0248308959A938A93C801082F0B
:10125C00092B29F020FB1EF48C010E94503C899133
:10126C00999108959A938A93C801082F092B29F014
:10127C0020FB1EF48C010E94503C89919991089599
:10128C000E946C090E9468090E9472090E946E09F2
:10129C00089508EF12E00E94992D0E946A090E949D
:1012AC00700908950AE81CE00E94992D0E946A09B1
:1012BC000E94700908950E946C090E9472090E9494
:1012CC00C42D0895149A08951C9A08951C98089595
:1012DC00159A08951D9A08951D9808957B2F2A2E0E
:1012EC00D8010FEF1FEF40E050E04217530798F47E
:1012FC006C91502F65271196012F10E0E62FF0E02E
:10130C00EE0FFF1FE251FF4F05901490319700250F
:10131C0011254395E9CFA22DB72F0895F80100E0D0
:10132C0010E0408150E0040F151F319621503040E1
:10133C00422F432BB1F708950E94363DF801C901A5
:10134C0020E030E0008110E0200F311F3196019732
:10135C00082F092BB9F7DF01FD013196022F1C91E3
:10136C00011749F48901012F10E01081011719F4BC
:10137C0001E010E002C000E010E0E4E00C94473D16
:10138C00F80140E00081400F319621503040022F8F
:10139C00032BC1F70081401719F401E010E0089508
:1013AC0000E010E00895A895089510E048E050E0A2
:1013BC000E94583CF801E656F84F068117810895B3
:1013CC000091210808950BE008950093420C0895B4
:1013DC000E94363D0E94A60AB0E0A1E00A2F0150FF
:1013EC0039F00A9539F10A95A1F10A9581F133C0CA
:1013FC000E94E909B017E0F42B2F0AE01AE00E94D2
:10140C00960DC801082F092B89F04B2F43959C0191
:10141C000AE01AE00E94ED0B002311F0A2E01BC0C1
:10142C000E94E6090430B9F4A3E015C0A3E013C090
:10143C00A4E011C00E94E609033019F4B395A1E0B1
:10144C000AC00E94E609043031F4A3E004C001E0B4
:10145C000BC000E009C00E94930C0AE010E00E944F
:10146C00562D0E94D909BACFE4E00C94473D0E9456
:10147C00100C08950E94350C08950E94610C08957B
:10148C0000E00E94EB090E94310D002399F0EFDF80
:10149C00002351F0F2DF002311F001E0089504E085
:1014AC000E94EB0900E0089504E00E94EB0990DF34
:1014BC0000E0089504E00E94EB098ADF00E0089543
:1014CC000E94373DC801A22F2A2F23958C010E9420
:1014DC00DC0AE3E00C94483D8A93802F0E94E909D2
:1014EC00801730F4082F03950E94DB0910E002C02E
:1014FC0000E010E0899108950E94373DC801A22FA9
:10150C000A2FEADF98014A2F43958C010E94ED0BBC
:10151C0010E0E3E00C94483D08E118E00E945E3BCB
:10152C0000E417E00E94F43B08959A938A93C80153
:10153C0022E030E08C010E94793B899199910895C9
:10154C000AE01AE0E6E1F8E00083118300E00E9473
:10155C00B80D44E650E020E030E00AE917E00E94C4
:10156C00623DEAE9F7E000E110E004831583EAE963
:10157C00F7E004E610E00683178306E610E00E940D
:10158C006210EAE9F7E00087118706E610E00E9496
:10159C006210005F1F4FEAE9F7E002831383EAE968
:1015AC00F7E000E0008300E0018308950E942C3DE9
:1015BC00D1503801822E0CE0801618F000E010E0BB
:1015CC0077C0082D10E048E050E00E94583CF8012C
:1015DC00E656F84F06811781012B09F451C0082DEE
:1015EC0010E048E050E00E94583CF801E656F84FF5
:1015FC0000851185012B09F443C0082D10E048E04B
:10160C0050E00E94583CF801E656F84F04811581D1
:10161C006801082D10E048E050E00E94583CF801A9
:10162C00E656F84F068117812801082D10E048E096
:10163C0050E00E94583CF801E656F84F00851185A1
:10164C005801A50196018E010E94272CA5019E012F
:10165C008E010E941311FE01E40DF51D808190E0B6
:10166C00FE01E40DF51D118100E0802B912B920100
:10167C008E010E947409D8018A179B07A1F403C03C
:10168C0000E010E015C0082D10E0000F111FF8014C
:10169C00E250F84F80839183A2019E0183010E9446
:1016AC00523D820105C004E00E94EB0900E010E00D
:1016BC00DF5FEEE00C943D3D0E94303DD15028019F
:1016CC00C901642E0CE0601618F000E010E07BC03D
:1016DC00AC0192018E010E94523D9C0182010E943C
:1016EC007409D8010A2FFE01E80FF91F00838D0140
:1016FC00012F10E0FE01E80FF91F0183062D10E009
:10170C0048E050E00E94583CF801E656F84FA2879A
:10171C00B387AC014E5F5F4F9E01E6E1F8E00081BC
:10172C0011810E946C104801062D10E048E050E039
:10173C000E94583CF801E656F84F00851185012BA4
:10174C0069F5EAE9F7E022813381062D10E048E0E3
:10175C0050E00E94583CF801E656F84F248335833C
:10176C00EAE9F7E002811381080D191D0283138346
:10177C00062D10E048E050E00E94583CF801E65677
:10178C00F84F86839783062D10E048E050E00E94C6
:10179C00583CF801E656F84F80869186A401E6E1A4
:1017AC00F8E020813181BA01062D10E048E050E0CC
:1017BC000E94583CF801E656F84F04811581AB01A4
:1017CC000E943A2C8401DF5FEAE00C94413D0E94B8
:1017DC00353DD801C901442E0E94BB0D002399F45C
:1017EC00442D9C018D0168DF012B41F001E00E942A
:1017FC00BE0D01E00E94B80D01E009C004E00E949A
:10180C00BE0D00E004C002E00E94BE0D00E0E5E069
:10181C000C94463DBD01E1E0F0E0EB3000E0F00758
:10182C00D8F48F01000F111FD801A250B84F2D9181
:10183C003C9111978F0148E050E00E94583CD80130
:10184C00AC55B84F0D911C9111972017310711F021
:10185C0000E003C03196E1CF01E0DB010895BA93BB
:10186C00AA936697E0E0F0E0EB3000E0F007B0F40C
:10187C008F0148E050E00E94583CD801A455B84F65
:10188C002D913C911197DE018F01000F111FA00FBC
:10189C00B11F2D933C9311973196E6CF26E130E0A2
:1018AC008E010E947409EAE9F7E0008311836696C1
:1018BC00A991B9910895BA93AA936697E0E0F0E0E4
:1018CC00EB3000E0F007B0F48F0148E050E00E94EC
:1018DC00583CD801A455B84F2D913C911197DE017D
:1018EC008F01000F111FA00FB11F2D933C93119767
:1018FC003196E6CF26E130E08E010E947409EAE9C8
:10190C00F7E0208131812017310711F401E001C08B
:10191C0000E06696A991B99108950E94BB0D005004
:10192C0079F00A9571F00A95B1F00A9589F10A954A
:10193C0009F443C00A9509F459C00A9509F473C017
:10194C0008950E94B50D28EC30E00E94873B02E020
:10195C000E94B80D08950E94A30D002361F00E940F
:10196C00B50D20E137E20E94873B0E94AF0D03E0EA
:10197C000E94B80D08950E94B50D0E94A13B002352
:10198C0031F004E00E94BE0D00E00E94B80D0895F5
:10199C000E94AC0D002321F004E00E94B80D0895C4
:1019AC000E94B50D0E94A13B002331F004E00E947F
:1019BC00BE0D00E00E94B80D089540E024E630E032
:1019CC000AE917E079DE012B51F00E94B50D28ECE5
:1019DC0030E00E94873B05E00E94B80D089504E0BA
:1019EC000E94BE0D00E00E94B80D08950E94A30D48
:1019FC00002361F00E94B50D20E137E20E94873B85
:101A0C000E94AF0D06E00E94B80D08950E94B50D1E
:101A1C000E94A13B0023F1F004E00E94BE0D00E007
:101A2C000E94B80D08950E94AC0D002339F003E01C
:101A3C000E94BE0D00E00E94B80D08950E94B50DE5
:101A4C000E94A13B002331F004E00E94BE0D00E097
:101A5C000E94B80D08950E94363D72DD20E00AE91F
:101A6C0017E0A4DD012B11F400E057C0B0E0A1E0B9
:101A7C0000E00E94C10D0A2F015059F00A9509F19E
:101A8C000A9581F10A95D1F10A95E9F10A95C9F106
:101A9C003CC0BC30A0F42B2FE6E1F8E000811181B2
:101AAC0085DDC801082F092B41F00E94C40D0023CD
:101ABC0011F0A2E02AC0A4E028C0A5E026C0A6E050
:101ACC0024C04B2F9C01E6E1F8E0008111817FDE00
:101ADC00002311F0A3E019C00E94E6090430A9F418
:101AEC00A5E013C00E94E609033011F4A4E00DC078
:101AFC000E94E609043049F4A5E007C0B395A1E0C3
:101B0C0004C001E00AC000E008C007DF0AE010E0F2
:101B1C000E94562D0E94D909AECFE4E00C94473DAB
:101B2C000E94373DC801A22F2A2F8C010E94CC2C79
:101B3C00E3E00C94483DE39A0895E19B02C000E079
:101B4C00089501E0089500936C08089500916C08C5
:101B5C00089500E00E94A90D0E94A10D089508E1CE
:101B6C0018E0089500932008089500912008089526
:101B7C0000932108089500932208089500912208EB
:101B8C0008952AE133E0F80121833283F80120E043
:101B9C0020830895AD01D8018D01F3DF0EE113E030
:101BAC00FD0101831283FD0100E00383FD0100E0D0
:101BBC0004838D01DA0108959A938A93C801082F42
:101BCC00092B29F020FB1EF48C010E94503C8991BA
:101BDC009991089508959A938A93C801082F092B17
:101BEC0029F020FB1EF48C010E94503C89919991A4
:101BFC0008950091610001600093610008950091C7
:101C0C0062000160009362000895009162000E7FF3
:101C1C0000936200089500916100006400936100DC
:101C2C000895009162000064009362000895009191
:101C3C0062000F7B009362000895009161000260C6
:101C4C0000936100089500916200026000936200AD
:101C5C000895009162000D7F009362000895009139
:101C6C0061000460009361000895009162000B7F95
:101C7C00009362000895BC9A0895C4980895009149
:101C8C0061000061009361000895009162000061A1
:101C9C00009362000895009162000F7E0093620031
:101CAC000895009161000062009361000895009115
:101CBC00620000620093620008950E94410E02E0EF
:101CCC0001BF09E103BF0895000000000895000062
:101CDC0008950E94FF0D0E940B0E0E94110E0E948F
:101CEC00170E0E94230E0E942F0E0E94350E0E948A
:101CFC003B0E0E94410E0E94430E0E94450E0E9414
:101D0C00510E0E94570E0E945D0E0E94630E0895A4
:101D1C000E941D0E0E946A0E0E94170E08959A933F
:101D2C008A93902F0E94510E80E08630B0F400E22E
:101D3C0010E0482F0E946C3C192F1023112319F02E
:101D4C000E94050E02C00E940B0E0E94290E0E94DA
:101D5C006D0E0E942F0E8395E8CF0E94510E899133
:101D6C00999108959A938A93902F0E944B0E80E03C
:101D7C008830B0F400E810E0482F0E946C3C192F1A
:101D8C001023112319F00E94050E02C00E940B0EA5
:101D9C000E94290E0E946D0E0E942F0E8395E8CF93
:101DAC000E94510E899199910895BA93AA93D801E2
:101DBC008D010E94D00D04E613E0FD010183128316
:101DCC008D01A991B99108950E94363DD801C901A0
:101DDC008D01EBDF08E613E0FD01018312838D0119
:101DEC000B5F1F4F0E945E3BFD018387948720E0B1
:101DFC008D010E94B0088D01E4E00C94473D0E94D7
:101E0C00363DC801D901082F092B51F020E030E0F4
:101E1C008C010E94F10DA0FB1EF48C010E94503C21
:101E2C00E4E00C94473D0E94363DD801C9010A2FCD
:101E3C000B2BA9F008E613E0FD010183128322E0CD
:101E4C0030E08D010B5F1F4F0E94793B20E030E0AA
:101E5C008D01D5DF80FB1EF48D010E94503CE4E027
:101E6C000C94473D0E94363DD801922F832F8D0153
:101E7C000E94B308005029F00A9561F00A9521F1EF
:101E8C0048C0FD0100E0058721E08D010E94B008EB
:101E9C0000E040C0992321F0FD0105850160058714
:101EAC00882321F0FD01058502600587FD0123854E
:101EBC0034858D010B5F1F4F0E94873B22E08D0103
:101ECC000E94B00800E026C08D010B5F1F4F0E94DE
:101EDC00A13B002331F020E08D010E94B00800E00E
:101EEC0019C0992321F0FD01058501600587882320
:101EFC0021F0FD01058502600587FD010585033094
:101F0C0031F420E08D010E94B00801E003C000E034
:101F1C0001C000E0E4E00C94473D202F30E0E0E00D
:101F2C00F0E0E83000E0F0074CF4022F10E04E2F08
:101F3C000E946C3C017030273196F3CF332311F49F
:101F4C0001E0089500E00895980150E0E0E0F0E031
:101F5C00EC3000E0F00744F44E2F89010E94673CFE
:101F6C00017050273196F4CF552311F401E00895F8
:101F7C0000E00895502F60E070E000E1509F00E019
:101F8C0000220FE01022B00108E0509F00E7002271
:101F9C0000E0102260297129052F017014E0019FC7
:101FAC0060297129052F007FB8DF10E8019F602997
:101FBC007129052F0E78B1DF18E0019F6029712976
:101FCC00052F0D76AADF12E0019F60297129052FDC
:101FDC000B75A3DF10E0602B712B8B0108950801AA
:101FEC0060E0800100701F70AFDF102D17FB10E058
:101FFC0010F9011711F061E001C060E0660F660F87
:10200C00660F8001007718709FDF102D13FB10E016
:10201C0010F9011711F001E001C000E0000F000FF2
:10202C00602B8001047616708FDF102D11FB10E0F1
:10203C0010F9011711F001E001C000E0000F602B56
:10204C0080010475157080DF102D1170011711F0CF
:10205C0001E001C000E0602B062F0895B801222397
:10206C0011F48B010895209322082A9501E010E0C9
:10207C00422F0E94623C602771278B010895B801A2
:10208C0020E044E08B010E94673C007F202F062F4C
:10209C000695069506950E70202B062F02FB00E088
:1020AC0000F9202B022F08951801810198DF202FB1
:1020BC008101D4DFE4DF089500FB16F40F5F1F4F9E
:1020CC00980136952795020F131F08950E942B3DFA
:1020DC00380159016A012224332444245524EE2466
:1020EC000C2D0D2941F0C0FA36F40FEFC00E0FEF96
:1020FC00D01EEE24E394882499248C149D0408F0BB
:10210C004BC0F501E40DF51D008134DF20E030E01B
:10211C00C801D90101E0400E00E0501EF501E40DAC
:10212C00F51D008127DFA80160E070E0ECE08A017A
:10213C009B014E2F0E94BE3C802B912BA22BB32BCC
:10214C0001E0400E00E0501E8C01F301E20DF31D86
:10215C00008301E0200E00E0301E892F9A2FAB2F58
:10216C00B0E08C01F301E20DF31D008301E0200EC1
:10217C0000E0301E892F9A2FAB2FB0E08C01F301B9
:10218C00E20DF31D008301E0200E00E0301E02E0A2
:10219C00800E00E0901EB1CFEE20D9F1F501E40DD8
:1021AC00F51D0081E7DE20E030E0C801D90100E038
:1021BC00E1DEA80160E070E0ECE08A019B014E2FAB
:1021CC000E94BE3C802B912BA22BB32B8C01F301D4
:1021DC00E20DF31D008301E0200E00E0301E892F7C
:1021EC009A2FAB2FB0E08C01F301E20DF31D0083AD
:1021FC0001E0200E00E0301E892F9A2FAB2FB0E0AB
:10220C008C01F301E20DF31D008301E0200E00E0D0
:10221C00301E8101EFE00C943C3D0E942A3D580198
:10222C0049017A0166247724442455240E2D0F2964
:10223C0051F043E050E087010E946F3C452B19F0B0
:10224C0000E010E057C0CC24DD24CE14DF0408F0ED
:10225C0050C0F401E40DF51D008110E020E030E0E9
:10226C00C801D90101E0400E00E0501EF401E40D5C
:10227C00F51D008110E020E030E0322F212F102FCF
:10228C0000E0802B912BA22BB32B01E0400E00E041
:10229C00501EF401E40DF51D208130E000E010E04B
:1022AC00802B912BA22BB32B01E0400E00E0501E93
:1022BC008C010F7F1F70F8DEF501E60DF71D008312
:1022CC0001E0600E00E0701E4CE08C019D010E944C
:1022DC00C53C0F7F1F70E8DEF501E60DF71D00838E
:1022EC0001E0600E00E0701E03E0C00E00E0D01EA6
:1022FC00ACCF8301E0E10C943B3D0E94363DD8010C
:10230C00C9018D010E94D00D0CE613E0FD01018383
:10231C0012838D01075F1F4F0E945E3BFD01858379
:10232C009683FD0100E00087FD0100E0078320E0BB
:10233C008D010E94B0088D01E4E00C94473D0E9491
:10234C00363DD801C9010A2F0B2BB1F00CE613E076
:10235C00FD010183128322E030E08D01075F1F4FE6
:10236C000E94793B20E030E08D010E94F10D80FB52
:10237C001EF48D010E94503CE4E00C94473DBA934E
:10238C00AA93D8011596ED91FC9116970995002307
:10239C0011F001E001C000E0A991B99108950E94EB
:1023AC00363DD801822F8D01FD0121813281F90149
:1023BC003296259134913397F9010995FD010781E6
:1023CC00081741F4FD0100E00783FD0100E00087E0
:1023DC0001E001C000E0E4E00C94473DBA93AA93FD
:1023EC00D8018D010E94B308005089F00A95C1F004
:1023FC000A9541F10A9509F44EC00A9509F474C086
:10240C000A9509F49AC0025009F4BCC0C3C0FD017E
:10241C000085FD01078321E08D010E94B008BAC040
:10242C008D01ADDF002369F08D010E94D31298015C
:10243C008D01075F1F4F0E94873B22E08D010E9498
:10244C00B008A8C08D019BDF0023E1F08D01075F70
:10245C001F4F0E94A13B0023E9F08D010E94D7126F
:10246C0098018D01075F1F4F0E94873BFD0102E021
:10247C000087FD010085FD01078323E08D010E948B
:10248C00B00888C0FD010085FD01078320E08D01A7
:10249C000E94B0087FC08D0172DF0023E1F08D0136
:1024AC00075F1F4F0E94A13B0023E9F08D010E94A2
:1024BC00DB1298018D01075F1F4F0E94873BFD01C6
:1024CC0003E00087FD010085FD01078324E08D01F9
:1024DC000E94B0085FC0FD010085FD01078320E06C
:1024EC008D010E94B00856C08D0149DF0023E1F038
:1024FC008D01075F1F4F0E94A13B0023E9F08D0166
:10250C000E94DF1298018D01075F1F4F0E94873BCD
:10251C00FD0104E00087FD010085FD01078327E034
:10252C008D010E94B00836C0FD010085FD010783B6
:10253C0020E08D010E94B0082DC08D0120DF00230A
:10254C00E1F08D01075F1F4F0E94A13B002311F1A9
:10255C008D010E94E31298018D01075F1F4F0E94AD
:10256C00873BFD0105E00087FD010085FD01078328
:10257C0027E08D010E94B0080DC020E08D010E9463
:10258C00B00808C08D01FBDE002321F420E08D0192
:10259C000E94B008A991B9910895980104E610E041
:1025AC00089598010CED15E00895980108EB1BE0D7
:1025BC000895980108E813E10895980102E310E0EA
:1025CC000895F80100810895F8010481089500919F
:1025DC0062000460009362000895009162000F7D18
:1025EC00009362000895000008959A938A93C8019D
:1025FC000E946F0E8991999108950E94373DC801F0
:10260C000E948E0EA0E0A03338F406EB13E020E01D
:10261C000E949529A395F7CFA0E0A03308F050C0F5
:10262C00EA2FF0E0EA57FC4F049110E048E050E04C
:10263C000E94583C98018C01020F131F0E94E71254
:10264C000023B9F1EA2FF0E0EA57FC4F049110E0B7
:10265C0048E050E00E94583C98018C01020F131F77
:10266C000E94EA12015039F00A9559F00A9579F056
:10267C00035099F018C00FEB13E020E00E94B22930
:10268C001DC005EC13E020E00E94B22917C00CEB32
:10269C0013E020E00E94B22911C008EC13E020E006
:1026AC000E94B2290BC009EB13E020E00E94B22972
:1026BC0005C009EB13E020E00E94B229A395ADCF31
:1026CC000E94ED120E94F9120E943B0E0E94F3121E
:1026DC00E3E00C94483DBA93AA93D8018D010E9473
:1026EC00D00D0BEC13E0FD01018312838D010B5F08
:1026FC001F4F0E945E3B8D01A991B9910895BA9329
:10270C00AA93D8018D01E7DF05EE13E0FD010183EB
:10271C00128320E08D010E946B1421E08D010E9438
:10272C00B0088D01A991B99108950E94363DD80148
:10273C00C9010A2F0B2BB1F00BEC13E0FD01018347
:10274C00128322E030E08D010B5F1F4F0E94793B1A
:10275C0020E030E08D010E94F10D80FB1EF48D0114
:10276C000E94503CE4E00C94473D0E94363DC80169
:10277C00D901082F092B49F020E030E08C01D5DF7E
:10278C00A0FB1EF48C010E94503CE4E00C94473DED
:10279C000E94363DC8018C010E94B308005051F0D4
:1027AC000A9549F00A9539F10A95F9F10A9509F457
:1027BC005EC088C087C00E9493320023B9F00E948B
:1027CC00A332002371F00E949B32D8018C010E942D
:1027DC0071149D010E94873B23E08C010E94B0087C
:1027EC0071C022E08C010E94B0086CC020E08C010A
:1027FC000E94B00867C08C010E946E140130A1F4D5
:10280C0020E08C010E946B1401E00E94AC320E940B
:10281C009B32D8018C010E9471149D010E94873B50
:10282C0023E08C010E94B0084DC08C010E946E14F4
:10283C00013071F420E08C010E946B140E949B32D9
:10284C00D8018C010E9471149D010E94873B3AC0F3
:10285C008C010E9471140E94A13B002399F105E0A8
:10286C000E94EB0924E08C010E94B0082BC08C0163
:10287C000E946E14015019F00A95B1F023C020E0AB
:10288C008C010E946B1401E10E9474140E949B3213
:10289C00D8018C010E9471149D010E94873B23E09A
:1028AC008C010E94B0080EC020E08C010E946B14B9
:1028BC0000E00E94AC3201E10E94741422E08C0111
:1028CC000E94B008E4E00C94473DF801248308957D
:1028DC00F801048108950B5F1F4F089500938A0B34
:1028EC00089500E00E9474140E949A39FDCFBA93A7
:1028FC00AA93D8018D010E94D00D0FEF13E0FD01BA
:10290C00018312838D01A991B99108950E94363DDE
:10291C00C801D901082F092B51F020E030E08C01BF
:10292C000E94F10DA0FB1EF48C010E94503CE4E0CF
:10293C000C94473DF801258308959A938A93C80116
:10294C008C010E94B308002311F401E001C000E0E7
:10295C008991999108950E94343D2801C901DA01A9
:10296C00AD019C018201F20161817281FB013696FD
:10297C00659174913797FB010995D801AD019C01C4
:10298C008201F20161817281FB013C966591749127
:10299C003D97FB010995E6E00C94453D0E94313DC5
:1029AC00D801722E632E842ECB01AC01362D3068EB
:1029BC00272D8D01FD0161817281FB013A96659194
:1029CC0074913B97FB0109952801FC01E40DF51D61
:1029DC00808201E0400E00E0501E8201E9E00C9480
:1029EC00423D0E94303D28010A012A843B848C859B
:1029FC009D8550E06624A0E0B0E0A015B105F0F490
:102A0C00490194012F5F3F4FFB01E80DF91D008137
:102A1C00002331F001E010E0462D0E94623C502B67
:102A2C0007E0601641F4F101E80FF91F508301969D
:102A3C0050E0662401C063941196DFCF662029F024
:102A4C00F101E80FF91F508301968C01EEE00C9414
:102A5C00413D0E942A3D280159014A01CB018201C6
:102A6C00F20121813281F9013E96259134913F97F3
:102A7C00F90109953801F501E60DF71D3197F08044
:102A8C00F501E60DF71DE080F501E60DF71DD1808F
:102A9C00CC24F501E60DF71D028110E0C02AD12AE5
:102AAC00F501E60DF71DB381A0E0F501E60DF71D6C
:102ABC00048110E0A02BB12B0A2F0B2B21F0A13D90
:102ACC0007E0B00740F0B40143E03E2D2F2D82010A
:102ADC0065DFC80144C0F201028D138D96012A0FE7
:102AEC003B1F0217130740F4B40142E03E2D2F2D7B
:102AFC00820154DFC80133C0A4013E2D2F2D820169
:102B0C00F20161817281FB013A96659174913B9758
:102B1C00FB010995C8010A2F0770002359F043E007
:102B2C008D010E94673C0395F401E80FF91F0083A7
:102B3C00019609C043E08D010E94673CF401E80F47
:102B4C00F91F008301969A938A939A928A92F201C2
:102B5C0062897389AD019601820143DFC8018C0142
:102B6C00E0E10C943B3D0E942A3D280159014A01A9
:102B7C00CB018201F20121813281F9013E9625912E
:102B8C0034913F97F90109953801F501E60DF71DD0
:102B9C003197F080F501E60DF71DE080F501E60DAB
:102BAC00F71DD180CC24F501E60DF71D028110E054
:102BBC00C02AD12AF501E60DF71DB381A0E0F5017D
:102BCC00E60DF71D048110E0A02BB12B0A2F0B2B67
:102BDC0021F0A13D07E0B00740F0B40143E03E2DE9
:102BEC002F2D8201DBDEC80144C0F201048D158D4E
:102BFC0096012A0F3B1F0217130740F4B40142E061
:102C0C003E2D2F2D8201CADEC80133C0A4013E2DFA
:102C1C002F2D8201F20161817281FB013A9665913F
:102C2C0074913B97FB010995C8010A2F077000238B
:102C3C0059F043E08D010E94673C0395F401E80FC5
:102C4C00F91F0083019609C043E08D010E94673C87
:102C5C00F401E80FF91F008301969A938A939A92D4
:102C6C008A92F20164897589AD0196018201B9DEFF
:102C7C00C8018C01E0E10C943B3D0E942A3D2801E7
:102C8C0069014A01CB018201F20121813281F901F2
:102C9C003E96259134913F97F90109955801F6011B
:102CAC00EA0DFB1D3197F080F601EA0DFB1DE0806B
:102CBC00F601EA0DFB1DB181A0E0F601EA0DFB1D4A
:102CCC00028110E0A02BB12BF601EA0DFB1D7380E5
:102CDC006624F601EA0DFB1D048110E0602A712ABE
:102CEC00062D072929F00EE7601600E0700640F06B
:102CFC00B40143E03E2D2F2D820150DEC80152C09D
:102D0C00F201068D178D9D01260D371D0217130735
:102D1C0040F4B40142E03E2D2F2D82013FDEC8016C
:102D2C0041C0A4013E2D2F2D8201F20161817281DF
:102D3C00FB013A96659174913B97FB010995C8018B
:102D4C00062D000FF401E80FF91F0083019600E037
:102D5C0010E00615170530F5F201468957899D01DB
:102D6C00220F331F420F531FFA0120813181232F71
:102D7C0030E0F401E80FF91F20830196F201468937
:102D8C0057899D01220F331F420F531FFA012081D7
:102D9C003181F401E80FF91F2083019611960F5F22
:102DAC001F4FD7CF8C01E0E10C943B3D0E942A3D94
:102DBC00280169014A01CB018201F2012181328192
:102DCC00F9013E96259134913F97F90109955801E7
:102DDC00F601EA0DFB1D3197F080F601EA0DFB1DA3
:102DEC00E080F601EA0DFB1DB181A0E0F601EA0DD1
:102DFC00FB1D028110E0A02BB12BF601EA0DFB1D8F
:102E0C0073806624F601EA0DFB1D048110E0602A34
:102E1C00712A062D072929F00EE7601600E07006CE
:102E2C0040F0B40143E03E2D2F2D8201B7DDC801E7
:102E3C0052C0F20100A111A19D01260D371D0217F0
:102E4C00130740F4B40142E03E2D2F2D8201A6DD84
:102E5C00C80141C0A4013E2D2F2D8201F2016181D8
:102E6C007281FB013A96659174913B97FB01099530
:102E7C00C801062D000FF401E80FF91F008301961D
:102E8C0000E010E00615170530F5F201408D518D6C
:102E9C009D01220F331F420F531FFA0120813181F4
:102EAC00232F30E0F401E80FF91F20830196F20183
:102EBC00408D518D9D01220F331F420F531FFA017C
:102ECC0020813181F401E80FF91F208301961196BE
:102EDC000F5F1F4FD7CF8C01E0E10C943B3D0E945C
:102EEC002A3D580129016A01CB018501F501218197
:102EFC003281F9013E96259134913F97F90109955C
:102F0C003801F201E60DF71D3197F080F201E60D64
:102F1C00F71DE080F201E60DF71D91808824F20187
:102F2C00E60DF71D028110E0802A912AF501028D31
:102F3C00138D8016910640F0B60142E03E2D2F2DE8
:102F4C0085012CDDC8012EC0F201E60DF71DB38101
:102F5C00A0E0F201E60DF71D048110E0A02BB12BCF
:102F6C00A0300FEFB00751F4940101E00E948532BC
:102F7C00AC01920186010E94523D14C00A2F0B2B0A
:102F8C0051F4940100E00E948532AC01920186015B
:102F9C000E94523D07C0B60143E03E2D2F2D850106
:102FAC00FDDCC8018C01E0E10C943B3D0E942C3D02
:102FBC002801C9015A014B018201F20121813281A0
:102FCC00F9013E96259134913F97F9010995D80165
:102FDC00FC01EA0FFB1F3197D080FC01EA0FFB1FAD
:102FEC00C080FC01EA0FFB1F71806624FC01EA0F14
:102FFC00FB1F028110E0602A712AF201068D178DE9
:10300C006016710640F0B50142E03C2D2D2D820179
:10301C00C5DC48011CC0FC01EA0FFB1F538140E0DA
:10302C00FC01EA0FFB1F048110E0402B512BF20135
:10303C00268937898301000F111F200F311FF901D9
:10304C0040835183A4019C0185010E94523D84015F
:10305C00EEE00C943D3D0E942A3D280139016A01A5
:10306C00CB018201F20121813281F9013E96259139
:10307C0034913F97F90109954801F301E80DF91DC9
:10308C003197F080F301E80DF91DE080F301E80DB4
:10309C00F91DB180AA24F301E80DF91D028110E09D
:1030AC00A02AB12AF301E80DF91DB381A0E0F301C8
:1030BC00E80DF91D048110E0A02BB12B0A2F0B2B6E
:1030CC0021F0A13B07E0B00740F0B60143E03E2DF4
:1030DC002F2D820163DCC80134C0F201028D138DE7
:1030EC0095012A0F3B1F0217130740F4B60142E06B
:1030FC003E2D2F2D820152DCC80123C0A5019D015C
:10310C008301080D191D0A5F1F4F0E944C32A60146
:10311C003E2D2F2D8201F20161817281FB013A96C5
:10312C00659174913B97FB010995C80144E050E00F
:10313C009301280F391F8601080F191F0E94523D59
:10314C0004968C01E0E10C943B3D0E942A3D480121
:10315C0029016A013B018401F40121813281F901C9
:10316C003E96259134913F97F9010995C801F201DA
:10317C00E80FF91F3197F080F201E80FF91FE0809A
:10318C00F201E80FF91FB181A0E0F201E80FF91F7D
:10319C00028110E0A02BB12BF201E80FF91FB380D4
:1031AC00AA24F201E80FF91F048110E0A02AB12A29
:1031BC000A2D0B2929F00CE7A01600E0B00640F010
:1031CC00B60143E03E2D2F2D8401E8DB38014FC0C2
:1031DC00F401068D178D9D012A0D3B1D0217130757
:1031EC0040F4B60142E03E2D2F2D8401D7DB38018F
:1031FC003EC020E030E02A153B05E0F4F201E80F78
:10320C00F91F568140E0F201E80FF91F078110E029
:10321C00402B512BF401668977898D01000F111F0A
:10322C00600F711FFB0140835183119602962F5F33
:10323C003F4FE1CFA6013E2D2F2D8401F40161817A
:10324C007281FB013A96659174913B97FB0109954C
:10325C00380144E050E09201260D371D8601060D21
:10326C00171D0E94523D04E0600E00E0701E8301A9
:10327C00E0E10C943B3D08010FEF1FEF08950801AE
:10328C0000E010E008950E942E3D28014901DA016A
:10329C00CB018201F20121813281F9013E96259107
:1032AC0034913F97F90109953801F401E60DF71DAA
:1032BC003197B080F401E60DF71DA080AD013A2DD9
:1032CC002B2D8201F20161817281FB013A9665918D
:1032DC0074913B97FB010995C801FD01E80FF91F9B
:1032EC0003E000830196FD01E80FF91F00E2008363
:1032FC000196FD01E80FF91F07E000830196FD011F
:10330C00E80FF91F02E3008301968C01ECE00C94AA
:10331C003F3D0E942A3D38014901DA01CB0183016E
:10332C00F30121813281F9013E96259134913F9729
:10333C00F90109952801F401E40DF51D3197B080D0
:10334C00F401E40DF51DA080F401E40DF51DE280FF
:10335C00FF248C0106501040E016F10641F0BD012F
:10336C0042E03A2D2B2D830119DBC8012CC1AD0194
:10337C003A2D2B2D8301F30161817281FB013A9669
:10338C00659174913B97FB010995C801F401E40D1B
:10339C00F51D0381005049F00A9579F10A9509F45D
:1033AC009DC00A9509F4E0C007C1FD01E80FF91FA3
:1033BC0000E000830196FD01E80FF91F04E0008393
:1033CC000196F401E40DF51D0381FD01E80FF91FD1
:1033DC0000830196FD01E80FF91F02E000830196BE
:1033EC00FD01E80FF91F00E000830196FD01E80FD5
:1033FC00F91F02E000830196E6C0F401E40DF51D0F
:10340C000481C02E0E94E9090C1540F4BD0142E074
:10341C003A2D2B2D8301C2DAC801D5C0CC20B9F5C9
:10342C002C2D8D01040D151D0B5F1F4F0E94660A7C
:10343C002091AB0CFD01E40DF51D25832091AA0C08
:10344C00FD01E40DF51D2683FD01E40DF51D20E3C2
:10345C002783FD01E80FF91F20E020830196202F20
:10346C002E5FFD01E80FF91F20830196F401E40D96
:10347C00F51D2381FD01E80FF91F20830196FD0145
:10348C00E80FF91FC0820196800F911F9CC02C2D54
:10349C008D01040D151D0B5F1F4F0E94660A9801CC
:1034AC00FD01E80FF91F00E000830196022F0E5F6B
:1034BC00FD01E80FF91F00830196F401E40DF51DE1
:1034CC000381FD01E80FF91F00830196FD01E80F50
:1034DC00F91FC0820196820F931F75C0F401E40D91
:1034EC00F51D0481C02E0E94E9090C1540F4BD01A4
:1034FC0042E03A2D2B2D830151DAC80164C00C2D0A
:10350C000E94720A9801F401E40DF51D028110E08D
:10351C00025010400217130741F0BD0143E03A2D51
:10352C002B2D83013BDAC8014EC02C2D8401040DD8
:10353C00151D0B5F1F4F0E94820A012B69F00E9420
:10354C00400A02E10E947414BD0145E03A2D2B2D76
:10355C00830124DAC80137C0BD0147E03A2D2B2D79
:10356C0083011CDAC8012FC00E94E609033081F4E4
:10357C00AD013A2D2B2D8301F30161817281FB0189
:10358C003A96659174913B97FB010995C8011BC054
:10359C000E94E609013041F4BD0146E03A2D2B2D85
:1035AC008301FCD9C8010FC0BD0141E03A2D2B2D80
:1035BC008301F4D9C80107C0BD0141E03A2D2B2D80
:1035CC008301ECD9C8018C01E0E10C943B3D0E94D5
:1035DC002E3DD80149012A01CB018D01FD0121812C
:1035EC003281F9013E96259134913F97F901099565
:1035FC003801F401E60DF71D3197B080F401E60DAA
:10360C00F71DA0800E94E609033081F4A2013A2D37
:10361C002B2D8D01FD0161817281FB013A96659123
:10362C0074913B97FB010995C80113C00E94E609F0
:10363C00013041F4B20146E03A2D2B2D8D01AED96B
:10364C00C80107C0B20141E03A2D2B2D8D01A6D93E
:10365C00C8018C01ECE00C943F3D0E942B3DD8013D
:10366C0029013A015B018D01FD0121813281F901B2
:10367C003E96259134913F97F90109954801F20145
:10368C00E80DF91D3197C080F201E80DF91DE080BD
:10369C00C501DC2CDD0CDD08FD01058110E0C01638
:1036AC00D10629F0CC2019F000E010E070C00E2DEE
:1036BC00102F110F110BECE7F0E0FBBFF8E00C94AE
:1036CC00ED3CBC01A30192018D01C3D9C8015BC0C3
:1036DC00BC01A30192018D0146DAC80154C0BC01A2
:1036EC00A30192018D01C9DAC8014DC0BC01A3012F
:1036FC0092018D015BDBC80146C0BC01A3019201A4
:10370C008D01EDDBC8013FC0BC01A30192018D010D
:10371C004DDCC80138C0BC01A30192018D01ABDDA9
:10372C00C80131C0BC01A30192018D0194DCC80118
:10373C002AC0BC01A30192018D0149DFC80123C03D
:10374C00BC01A30192018D0100DDC8011CC0BC01AC
:10375C00A30192018D0197DDC80115C0BC01A30125
:10376C0092018D018CDDC8010EC0BC01A301920138
:10377C008D01CFDDC80107C0B30141E03E2D2C2DDA
:10378C008D010CD9C801FD01848795878C01EFE070
:10379C000C943C3DB80101E010E008950E942E3DD0
:1037AC00D80129013A018D01FD0121813281F901F4
:1037BC003E96259134913F97F9010995C801F20184
:1037CC00E80FF91F31979080F201E80FF91F808004
:1037DC005301FD010681091591F4FD0107810815BE
:1037EC0071F402E0801641F4A5019201280F391FF3
:1037FC002E5F3F4F8D01CEDF01E010E02DC08D011B
:10380C00FD0121813281F9017096259134917197D6
:10381C00F901099598018C01020F131F0E5F1F4FC0
:10382C00A016B10631F487FA16F401E003C000E0EB
:10383C0001C000E0002371F0F201E80FF91F2181B3
:10384C002C302CF4022F102F110F110B05C00EE091
:10385C0010E002C001E010E0ECE00C943F3D980158
:10386C0001E010E00895980102E010E008950E9434
:10387C00343DC801D9010A2F0B2B11F401E001C012
:10388C0000E0002379F009E4402E04E0502EDC0126
:10389C001F96FC01A587B6878C01015F1F4F0E9404
:1038AC007D1406C0FC0143845484FC01A587B687B3
:1038BC0007E214E0FC0103871487F20105911491CF
:1038CC003197FD01018312838C01E6E00C94453D98
:1038DC000E94363DC801D901082F092B79F00A2F17
:1038EC000B2B39F020E030E08C01015F1F4F0E9460
:1038FC008C14A0FB1EF48C010E94503CE4E00C9450
:10390C00473D0F501040E4CF0E942A3D2297288358
:10391C003983D8012A013B018D889E888F89988D27
:10392C00ED8CFE8CCF8CD8A0A9A0BAA008811981EF
:10393C000D931C931197FD01428253826482758210
:10394C000A89FD0100870B89FD0106830C89FD01A5
:10395C000783FD0105851685F80186869786FD018E
:10396C0005851685F801808B918B298D3A8DFD018B
:10397C0005851685F801228B338B2B8D3C8DFD0133
:10398C0005851685F801248B358BFD01058516857B
:10399C00F801E68AF78AFD0105851685F801C08EC7
:1039AC00D18EFD0105851685F801A28EB38E2BA153
:1039BC003CA1FD0105851685F801248F358F2DA1BD
:1039CC003EA1FD0105851685F801268F378F2FA1A5
:1039DC0038A5FD0105851685F80120A331A3FD014D
:1039EC00428153816481758100E412E42FE030E060
:1039FC000E94C83C40E250E060E070E00E949A3CBB
:103A0C000801190148EE53E060E070E0800191017B
:103A1C000E94C83C0F5F1F4FFD0101871287FD01FB
:103A2C0005851685F801428D538D20E030E0FD01AF
:103A3C0005851685F801028913890E94623DFD01F6
:103A4C0005851685F801448D558D20E030E0FD018B
:103A5C0005851685F801048915890E94623DFD01D2
:103A6C0005851685F801468D578D440F551F20E0AE
:103A7C0030E0FD0105851685F801068917890E943D
:103A8C00623DFD0105851685F80140A151A1440F49
:103A9C00551F20E030E0FD0105851685F801008DED
:103AAC00118D0E94623D9A938A939A928A92FD019B
:103ABC0007810A93FD013681FD012085FD014281BC
:103ACC005381648175810D911C9111970E94392A43
:103ADC002296E7E20C943B3DBA93AA93D8010D9140
:103AEC001C9111970E946E2AA991B9910895BA93CD
:103AFC00AA93D8010D911C9111970E947D2AA9912E
:103B0C00B9910895BA93AA93D8010D911C9111976C
:103B1C000E948E2AA991B9910895BA93AA93D801BB
:103B2C000D911C9111970E94BC2AA991B9910895ED
:103B3C00BA93AA93D8010D911C9111970E94D72A80
:103B4C00A991B99108950E94343D2801D901CA0167
:103B5C009C018D010E9474099801022FFD01E80F50
:103B6C00F91F008301968901012F10E0FD01E80F78
:103B7C00F91F008301968C01E6E00C94453D0F5033
:103B8C001040E1CF1D010801E881F98120833183C8
:103B9C008A01012F10E00283042F03838B01012F74
:103BAC0010E00483062F058306E010E0D101229675
:103BBC0008950F501040E6CFB801FA012083FA01A6
:103BCC00318302E010E008950F501040F5CF0E94B1
:103BDC00343DD8012901CA01AC0192010D911C910F
:103BEC0011970E94EB2AE6E00C94453D0F501040D3
:103BFC00EECFBA93AA93D8010D911C9111970E9404
:103C0C000321A991B9910895BA93AA93D8010D9162
:103C1C001C9111970E940021A991B99108950E94BD
:103C2C00343DD8012901CA01AC0192010D911C91BE
:103C3C0011970E94F32AE6E00C94453D0E94363D14
:103C4C00D801C9010E940621FD0125853685F9019F
:103C5C0022853385021B130B0817190710F001E09E
:103C6C0001C000E0E4E00C94473DBA93AA93D8015C
:103C7C000E940621FD0125853685F90102871387EF
:103C8C00A991B99108950E94303D4801D901CA010A
:103C9C00843000E0900710F400E021C0FD01E80F33
:103CAC00F91F319750804424FD01E80FF91F32971A
:103CBC00008110E0402A512A9C01225030408D0195
:103CCC000E94740938019C01225030408D010E94E1
:103CDC0074090415150511F401E001C000E0EAE0D7
:103CEC000C94413D0E94363DD801FD010585168599
:103CFC000E94B308E0EBF0E0FBBFF8E00C94ED3C65
:103D0C008D01EADE8D01F3DE23E0FD0105851685CC
:103D1C000E94B00859C28D01A8DFFD0105851685EA
:103D2C00F80100E0048700E0058724E0FD0105852B
:103D3C0016850E94B00848C28D0166DF0023F1F1A0
:103D4C0040E051E0FD0105851685F80104851585D7
:103D5C00401B510BFD0105851685F801268537851D
:103D6C00FD0105851685F80104851585200F311F89
:103D7C008D0155DFC801813000E090079CF0FD01FA
:103D8C0005851685F80104851585080F191F04870C
:103D9C0015878D016ADF25E0FD01058516850E94DA
:103DAC00B0080CC08F3F0FEF900741F48D0194DEEB
:103DBC0023E0FD01058516850E94B00828E93AE349
:103DCC008D013CDF002341F08D0186DE23E0FD01F7
:103DDC00058516850E94B008F7C18D0115DF0023FB
:103DEC00C1F140E051E0FD0105851685F80104851F
:103DFC001585401B510BFD0105851685F80126859F
:103E0C003785FD0105851685F80104851585200F7C
:103E1C00311F8D0104DFC801813000E090076CF088
:103E2C00FD0105851685F80104851585080F191FF8
:103E3C00048715878D0119DF0CC08F3F0FEF90079A
:103E4C0041F48D0149DE23E0FD01058516850E94B4
:103E5C00B008FD01218532858D01F0DE0023F9F0DB
:103E6C00FD0105851685F80144855585FD010585FF
:103E7C001685F801268537858D0105DF002339F07D
:103E8C0026E0FD01058516850E94B0089DC18D01B7
:103E9C0023DE23E0FD01058516850E94B00894C140
:103EAC00FD0105851685F80164857585FD0105857F
:103EBC001685F80140895189FD0105851685F801A3
:103ECC0026853785FD01058516850E94331B012B40
:103EDC0049F00E940B2127E0FD01058516850E9403
:103EEC00B00872C10E940D218D01F6DD23E0FD01A9
:103EFC00058516850E94B00867C18D01B6DE8D015F
:103F0C00EBDD28E0FD01058516850E94B0085CC13B
:103F1C0025E030E08D0192DE0023C9F0FD0105851E
:103F2C001685F80144855585FD0105851685F80132
:103F3C0020893189FD01058516850E94B1148D01FA
:103F4C00ECDD29E0FD01058516850E94B0083CC119
:103F5C008D014FDE002341F00E940D2123E0FD0175
:103F6C00058516850E94B0082FC18D01CBDD20E0A0
:103F7C00FD01058516850E94B00826C18D0175DEF0
:103F8C008D01AADDFD0105851685F80100E0048789
:103F9C0000E005878D01ABDD2DE0FD010585168563
:103FAC000E94B00811C18D012FDE0023E1F140E029
:103FBC0051E0FD0105851685F80104851585401B2A
:103FCC00510BFD0105851685F80126853785FD0108
:103FDC0005851685F80104851585200F311F8D0187
:103FEC001EDEC801813000E090079CF08D013DDEA3
:103FFC00FD0105851685F80104851585080F191F27
:10400C00048715872EE0FD01058516850E94B008F2
:10401C000AC08F3F0FEF900731F423E1FD010585B6
:10402C0016850E94B00828EE33E08D0107DE0023D0
:10403C0031F023E1FD01058516850E94B008C4C04E
:10404C008D01E2DD0023B1F140E051E0FD01058579
:10405C001685F80104851585401B510BFD0105855E
:10406C001685F80126853785FD0105851685F8012D
:10407C0004851585200F311F8D01D1DDC8018130DC
:10408C0000E090076CF08D01F0DDFD0105851685D3
:10409C00F80104851585080F191F048715870AC0B8
:1040AC008F3F0FEF900731F423E1FD010585168555
:1040BC000E94B008FD01218532858D01BFDD0023F2
:1040CC00E9F0FD0105851685F80144855585FD014E
:1040DC0005851685F801268537858D01D4DD0023ED
:1040EC0039F02FE0FD01058516850E94B0086CC0E3
:1040FC0023E1FD01058516850E94B00865C0FD0110
:10410C0005851685F80144855585FD0105851685BF
:10411C00F80126853785FD01058516850E94D41B7F
:10412C00012B39F023E1FD01058516850E94B008AD
:10413C004BC023E1FD01058516850E94B00844C0E3
:10414C008D0193DD8D01C8DC0E940B2121E1FD0165
:10415C00058516850E94B00837C025E030E08D013A
:10416C006DDD002389F1FD0105851685F801448577
:10417C005585FD0105851685F80120893189FD01DC
:10418C00058516850E94B1148D01C7DC22E1FD0165
:10419C00058516850E94B00817C08D012ADD002305
:1041AC0099F08D01C5DC0E940D212CE0FD010585E7
:1041BC0016850E94B00808C08D01A4DC20E0FD012A
:1041CC00058516850E94B008E4E00C94473D0F501D
:1041DC00104088CD980101E010E008950F50104078
:1041EC000C94F020980102E010E008950F5010405C
:1041FC000C94F820F80102A50895F80103A5089580
:10420C00EDE6F8E0008111810895DB980895DB9AC2
:10421C0008950E94363DD801822F8D01055F1F4FF6
:10422C000E94D00D01E614E0FD010187128707E61C
:10423C0014E0FD01048715878C9320E08D01055F48
:10424C001F4F0E94B0088D01E4E00C94473D0E9482
:10425C00363DC801D901082F092B61F020E030E070
:10426C008C01055F1F4F0E94F10DA0FB1EF48C0109
:10427C000E94503CE4E00C94473D0B501040E7CFBB
:10428C001D01D801F9010081FD01008BF9010181AB
:10429C001281FD01018B128BF90103811481FD0147
:1042AC00038B148BF90105811681FD01058316839F
:1042BC00F90107811085FD01058B168BF901008929
:1042CC001189FD01038F148FF90102851385FD01FE
:1042DC00078B108FF90145855685F901078510E08C
:1042EC00000F111F400F511FFD01418F528FF9011B
:1042FC000785085F0787F90160897189F9010289CF
:10430C0010E048E150E00E94583C600F711FFD0125
:10431C00638F748FF9010289085F028BF90103899D
:10432C0014890F5F1F4FFD0107831087FD0100E00B
:10433C00058FD10108950E94343DD801FD010389F8
:10434C0014890E5F1F4FC80100E0083078F4FD019E
:10435C00238D348D10E0200F311FF901208110E0E6
:10436C00FC01E00FF11F20830395EFCF28E030E034
:10437C008C010E9494092801FD0103891489065FB0
:10438C001F4FC801042DFC01008301968201012FEF
:10439C0010E0FC010083FD0103891489F80101E898
:1043AC000083FD0100890E9454300AE613E001509D
:1043BC001040E9F700C000004DE050E0FD012389FA
:1043CC003489FD01018912890E94372D0E947930B0
:1043DC00FD0101891289F8010181013849F4FD01BF
:1043EC0001891289F80104850E3711F401E001C02E
:1043FC0000E0E6E00C94453D0E94303DD801992444
:10440C0020E0283020F5FD01038D148D30E0020FE3
:10441C00131FF80100850F3FC1F0FD0105891689B6
:10442C00FD01438D548D30E0420F531FFA0140853E
:10443C0050E0040F151FF8010081002331F001E05A
:10444C0010E0422F0E94623C902A2395DACF8824F8
:10445C0020E0283020F5FD01038D148D30E0020F93
:10446C00131FF80100890F3FC1F0FD010589168962
:10447C00FD01438D548D30E0420F531FFA014089EA
:10448C0050E0040F151FF8010081002331F001E00A
:10449C0010E0422F0E94623C802A2395DACF5524EB
:1044AC00FD010381002329F0FD0100E003836894E2
:1044BC0050F8FD010481002329F0FD0100E0048384
:1044CC00689451F8FD010181002329F0FD0100E001
:1044DC000183689452F8FD010281002329F0FD014B
:1044EC0000E00283689453F8FD0103891489F801F4
:1044FC0002E40083FD01038914890E5F1F4FC8017C
:10450C00442420E02830A8F4FD01018D128D422FA7
:10451C0050E0440F551F040F151FF80101810023B3
:10452C0031F001E010E0422F0E94623C402A2395BA
:10453C00E9CFFC0140820196442420E02830A8F405
:10454C00FD01018D128D422F50E0440F551F040FB9
:10455C00151FF8010081002331F001E010E0422F1B
:10456C000E94623C402A2395E9CFFC0140820196CF
:10457C00FC0190820196FC0180820196FC01508224
:10458C00019625E030E0FD01038914890E5F1F4F71
:10459C000E9494093801062DFC01008301968301C9
:1045AC00012F10E0FC0100830196FC010EE7008353
:1045BC000196FD0100890E9454300AE613E0015077
:1045CC001040E9F700C000004AE050E0FD012389EB
:1045DC003489FD01018912890E94372D0E9479309E
:1045EC00FD0101891289F8010181045209F447C0C7
:1045FC000E5109F04EC025E030E0FD010189128911
:10460C000E5F1F4F0E94A20901301040BCF1FD014A
:10461C0001891289F80101850E37D9F5FD0100E0F9
:10462C00058F20E08D010E948523FD0101891289EF
:10463C00F8010281402E20E02830F0F401E010E077
:10464C00422F0E94623C142D1023112351F0FD01C6
:10465C000789108D30E0020F131FF80101E0008371
:10466C0009C0FD010789108D30E0020F131FF801FE
:10467C0000E000832395E0CF01E020C00AC0FD01DB
:10468C00058D0A3030F420E08D01055F1F4F0E942C
:10469C00B008FD01058D0A3030F4FD01058D039540
:1046AC00058F00E00BC0FD0105811681F80102E0C9
:1046BC00008321E08D010E94852300E0EAE00C9448
:1046CC00413D0E94373DC8018C01055F1F4F0E9480
:1046DC00B308005019F00A9559F00DC08C012BDE6F
:1046EC00A02F21E08C01055F1F4F0E94B00803C072
:1046FC008C0182DEA02F0A2FE3E00C94483DAD0123
:10470C00F801A781B0852C93DA0108950E94363DFB
:10471C00D801822F8D01055F1F4F0E94D00D01E83B
:10472C0014E0FD010187128707E814E0FD010487FE
:10473C0015878C938D01E4E00C94473D0E94363D27
:10474C00C801D901082F092B61F020E030E08C0161
:10475C00055F1F4F0E94F10DA0FB1EF48C010E94FF
:10476C00503CE4E00C94473D0B501040E7CFBD01AA
:10477C00D801F9010081FD01008BF9010181128141
:10478C00FD01018B128BF90103811481FD01038B57
:10479C00148BF90105811681FD0105831683F9013E
:1047AC0047815085F901018510E0400F511FFD0133
:1047BC00458B568BF9010185085E0187F901038948
:1047CC001489FD0107831087FD0100E0078BDB01D5
:1047DC0008950E94363DD8015396ED91FC91549763
:1047EC0002E40083FD0100890E9454300AE613E0C4
:1047FC0001501040E9F700C0000049E050E0FD0115
:10480C0023893489FD01018912890E94372D0E9468
:10481C0079305196ED91FC9152970181045209F433
:10482C0040C00E51F1F527E030E0FD0101891289FD
:10483C000F5F1F4F0E94C6090130104094F1FD011B
:10484C0000E0078B20E08D010E948523FD01858906
:10485C00968960E0663018F5FD010189128970E0D7
:10486C00060F171FF801328120E02830B0F420FB2E
:10487C0096F001E010E0422F0E94623C132F1023AF
:10488C00112329F0FC0101E00083019604C0FC0116
:10489C0000E0008301962395E8CF6395DBCF01E020
:1048AC0015C0FD0107890A3030F4FD010789039515
:1048BC00078B00E00BC01596ED91FC91169701E06B
:1048CC00008321E08D010E94852300E0E4E00C943C
:1048DC00473DF80123830895BA93AA93D8018D011B
:1048EC000E94D00D0BE814E0FD01018312838D01B1
:1048FC000A5F1F4F0E945E3B25E28D010E94B008AB
:10490C0025E28D010E946F248D01A991B991089522
:10491C00BA93AA93D8018D01DFDF0FEA14E0FD01F1
:10492C000183128325E28D010E94B00825E28D01DE
:10493C000E946F248D01A991B9910895BA93AA93FD
:10494C00D8018D01C9DF03ED14E0FD010183128351
:10495C0025E28D010E94B00825E28D010E946F2492
:10496C008D01A991B9910895BA93AA93D8018D019B
:10497C00B3DF0DE015E0FD010183128328E18D0109
:10498C000E94B00828E18D010E946F248D01A9912D
:10499C00B9910895BA93AA93D8018D019DDF01E3D3
:1049AC0015E0FD010183128325E28D010E94B00800
:1049BC0025E28D010E946F248D01A991B991089572
:1049CC000E94363DD801C9010A2F0B2BB1F00BE820
:1049DC0014E0FD010183128322E030E08D010A5FB7
:1049EC001F4F0E94793B20E030E08D010E94F10DB9
:1049FC0080FB1EF48D010E94503CE4E00C94473D7A
:104A0C00BA93AA93D8018D010E94B308EEEDF0E0A1
:104A1C00FBBFF8E00C94ED3C8D011196ED91FC91EF
:104A2C0012977096259134917197F9010995980117
:104A3C008D010A5F1F4F0E94873B8D011196ED91EE
:104A4C00FC9112973496259134913597F90109957B
:104A5C0029E18D010E94B0086AC28D010A5F1F4FC7
:104A6C000E94A13B002301F18D011196ED91FC9167
:104A7C0012977296259134917397F90109959801C3
:104A8C008D010A5F1F4F0E94873B8D011196ED919E
:104A9C00FC9112973C96259134913D97F90109951B
:104AAC002AE18D010E94B00842C28D010A5F1F4F9E
:104ABC000E94A13B002301F18D011196ED91FC9117
:104ACC0012977096259134917197F9010995980177
:104ADC008D010A5F1F4F0E94873B8D011196ED914E
:104AEC00FC9112973496259134913597F9010995DB
:104AFC0029E18D010E94B0081AC28D011196ED9129
:104B0C00FC9112977096259134917197F901099542
:104B1C0098018D010A5F1F4F0E94873B8D011196F2
:104B2C00ED91FC9112973696259134913797F901B6
:104B3C00099522E08D010E94B008F9C18D010A5F30
:104B4C001F4F0E94A13B002321F021E08D010E9408
:104B5C00B008EDC18D011196ED91FC9112977496F0
:104B6C00259134917597F901099598018D010A5F8A
:104B7C001F4F0E94873B8D011196ED91FC9112976E
:104B8C003896259134913997F901099528E08D01D2
:104B9C000E94B008CCC18D010A5F1F4F0E94A13B3F
:104BAC00002301F18D011196ED91FC9112977696EF
:104BBC00259134917797F901099598018D010A5F38
:104BCC001F4F0E94873B8D011196ED91FC9112971E
:104BDC003C96259134913D97F901099529E08D0179
:104BEC000E94B008A4C18D010A5F1F4F0E94A13B17
:104BFC00002301F18D011196ED91FC9112977496A1
:104C0C00259134917597F901099598018D010A5FE9
:104C1C001F4F0E94873B8D011196ED91FC911297CD
:104C2C003896259134913997F901099528E08D0131
:104C3C000E94B0087CC18D011196ED91FC911297E8
:104C4C007896259134917997F901099598018D0100
:104C5C000A5F1F4F0E94873B8D011196ED91FC91CD
:104C6C0012973A96259134913B97F90109952EE0CC
:104C7C008D010E94B0085BC18D010A5F1F4F0E941D
:104C8C00A13B002301F18D011196ED91FC9112973E
:104C9C007A96259134917B97F901099598018D01AC
:104CAC000A5F1F4F0E94873B8D011196ED91FC917D
:104CBC0012973C96259134913D97F90109952FE077
:104CCC008D010E94B00833C18D010A5F1F4F0E94F5
:104CDC00A13B002301F18D011196ED91FC911297EE
:104CEC007896259134917997F901099598018D0160
:104CFC000A5F1F4F0E94873B8D011196ED91FC912D
:104D0C0012973A96259134913B97F90109952EE02B
:104D1C008D010E94B0080BC18D011196ED91FC9193
:104D2C0012977C96259134917D97F90109959801FC
:104D3C008D010A5F1F4F0E94873B8D011196ED91EB
:104D4C00FC9112973A96259134913B97F90109956C
:104D5C0024E18D010E94B008EAC08D010A5F1F4F4B
:104D6C000E94A13B002301F18D011196ED91FC9164
:104D7C0012977E96259134917F97F90109959801A8
:104D8C008D010A5F1F4F0E94873B8D011196ED919B
:104D9C00FC9112973C96259134913D97F901099518
:104DAC0025E18D010E94B008C2C08D010A5F1F4F22
:104DBC000E94A13B002301F18D011196ED91FC9114
:104DCC0012977C96259134917D97F901099598015C
:104DDC008D010A5F1F4F0E94873B8D011196ED914B
:104DEC00FC9112973A96259134913B97F9010995CC
:104DFC0026E18D010E94B0089AC08D010A5F1F4FF9
:104E0C000E94A13B002301F18D011196ED91FC91C3
:104E1C001297B09625913491B197F90109959801A3
:104E2C008D010A5F1F4F0E94873B8D011196ED91FA
:104E3C00FC9112973C96259134913D97F901099577
:104E4C0027E18D010E94B00872C08D010A5F1F4FCF
:104E5C000E94A13B002301F18D011196ED91FC9173
:104E6C0012977C96259134917D97F90109959801BB
:104E7C008D010A5F1F4F0E94873B8D011196ED91AA
:104E8C00FC9112973A96259134913B97F90109952B
:104E9C0024E18D010E94B0084AC08D011196ED915C
:104EAC00FC911297B29625913491B397F90109951B
:104EBC0098018D010A5F1F4F0E94873B8D0111964F
:104ECC00ED91FC9112973A96259134913B97F9010B
:104EDC0009952FE18D010E94B00829C08D010A5F50
:104EEC001F4F0E94A13B002311F18D011196ED91F2
:104EFC00FC9112973C96259134913D97F9010995B7
:104F0C008D010E943629202F8D010E94B0080FC000
:104F1C008D011196ED91FC9112973C96259134914F
:104F2C003D97F901099520E08D010E94B008A991E7
:104F3C00B99108950E94363DC801D901082F092B5B
:104F4C0069F025E28C010E94B00820E030E08C0171
:104F5C0037DDA0FB1EF48C010E94503CE4E00C9465
:104F6C00473D0E94373DC801A22F8C010E94B30817
:104F7C00202F8C010E946F240A2FEEE1F0E0FBBF82
:104F8C00F9E00C94ED3C25E28C010E94B0080EC0B7
:104F9C0021E08C010E94B00809C027E08C010E941E
:104FAC00B00804C027E08C010E94B008E3E00C9428
:104FBC00483D08959A938A93C80101E00E944D38A8
:104FCC008991999108959A938A93C80102E00E945D
:104FDC004D3889919991089508959A938A93C801AF
:104FEC0002E00E9477380E94F32F899199910895DD
:104FFC000E94363DC801D901082F092B69F025E222
:10500C008C010E94B00820E030E08C01D9DCA0FBC0
:10501C001EF48C010E94503CE4E00C94473D0E942D
:10502C00373DC801A22F8C010E94B308202F8C01A0
:10503C000E946F240A2FE4E3F0E0FBBFF9E00C942C
:10504C00ED3C25E28C010E94B0080EC021E08C01E1
:10505C000E94B00809C025E28C010E94B00804C06F
:10506C002DE08C010E94B008E3E00C94483D0895BB
:10507C009A938A93C80101E00E944D3889919991C5
:10508C00089508959A938A93C80103E00E944D38BD
:10509C008991999108959A938A93C80103E00E948B
:1050AC0077380E94F32F8991999108950E94363D8B
:1050BC00C801D901082F092B69F025E28C010E9447
:1050CC00B00820E030E08C017BDCA0FB1EF48C01EE
:1050DC000E94503CE4E00C94473D0E94373DC801CF
:1050EC00A22F8C010E94B308202F8C010E946F24E8
:1050FC000A2FEAE4F0E0FBBFF9E00C94ED3C28E168
:10510C008C010E94B00813C028E18C010E94B008E9
:10511C000EC027E08C010E94B00809C02DE08C0164
:10512C000E94B00804C023E18C010E94B008E3E0A7
:10513C000C94483D9A938A93C8010E9491298991B5
:10514C009991089508959A938A93C8010E94912980
:10515C008991999108959A938A93C8010E949129F3
:10516C008991999108959A938A93C8010E949329E1
:10517C000E94F32F8991999108950E94363DC801A0
:10518C00D901082F092B69F025E28C010E94B00887
:10519C0020E030E08C0114DCA0FB1EF48C010E949A
:1051AC00503CE4E00C94473D0E94373DC801A22FCF
:1051BC008C010E94B308202F8C010E946F240A2FAF
:1051CC00E0E6F0E0FBBFF9E00C94ED3C25E28C014D
:1051DC000E94B00818C025E28C010E94B00813C0D0
:1051EC0027E08C010E94B0080EC02DE08C010E94BB
:1051FC00B00809C023E18C010E94B00804C02EE164
:10520C008C010E94B008E3E00C94483D9A938A9379
:10521C00C8010E9461098991999108959A938A9382
:10522C00C8010E9461098991999108959A938A9372
:10523C00C8010E944F098991999108959A938A9374
:10524C00C8010E9458098991999108959A938A935B
:10525C00C8010E9461090E94F32F899199910895C8
:10526C00F80103810895980100ED17E00895980165
:10527C0000ED17E00895980100E213E008959801FD
:10528C000CE211E0089598010CE211E008959801E8
:10529C000CE211E00895980106E910E008959801D8
:1052AC0006E910E00895980102EC11E008959801C8
:1052BC0002E310E00895980100ED17E008959801BD
:1052CC0000ED17E00895980100E213E008959801AD
:1052DC000CE211E0089598010CE211E00895980198
:1052EC000CE211E00895980100ED17E00895980183
:1052FC0000ED17E00895980100E213E0089598017D
:10530C000CE211E0089598010CE211E00895980167
:10531C000CE211E00895DC980895DC9A08950E943F
:10532C00363DD801922FFD01392F3BBF06910E94CB
:10533C00950EFD01392F31963BBF069131970E9496
:10534C00950EFD01392F32963BBF069132970E9484
:10535C00950EE4E00C94473D0E94363DD801922F07
:10536C00FD01392F3BBF06910E94B80EFD01392F6C
:10537C0031963BBF069131970E94B80EFD01392F33
:10538C0032963BBF069132970E94B80EE4E00C9423
:10539C00473D0E94303DD80149013A012B018A85D5
:1053AC009B852C843D840E841F84688979892B8984
:1053BC003C8905E515E0FD0105A716A7FD018082D6
:1053CC009182FD0162827382FD0144825582FD014E
:1053DC0086839783FD0120863186FD010286138624
:1053EC00FD01648775870A89FD010687FD01278702
:1053FC00308B0D89FD01018BFD0104851585012B79
:10540C0001F1FD01568501E010E0452F0E94623C40
:10541C00402FFD0104851585F8010081042B0083C4
:10542C00FD010189502F01E010E0452F0E94623CE4
:10543C00402F4095FD0107851089F8010081042358
:10544C0000838D01E6E10C94413D9A938A93C80147
:10545C00082F092B29F020FB1EF48C010E94503CD4
:10546C008991999108950E94323D2801CA01DB016E
:10547C00722E632E8C019D0140E150E060E070E0E3
:10548C000E949A3CA801B90100E010E820E730E046
:10549C000E94C83C980121503040422FF2010281F9
:1054AC001381F80140838901012F10E0402FF20194
:1054BC0000811181F80140834091CA0C4873466009
:1054CC00F20100851185F8014083EDE00C94433D19
:1054DC00F80120E0208F20E0218FF80120E022A7A6
:1054EC00F80120E023A7F80120E024A708953B2F22
:1054FC004A2FF801A481B5812C9120682C93F801D6
:10550C00A681B7812C9120692C93A42FB32F0895D9
:10551C003B2F4A2FF801A681B7812C912F762C9323
:10552C00A42FB32F08953B2F6A2FF801218901E096
:10553C0010E0422F0E94623CA785B0891C91102B71
:10554C001C93A62FB32F08953B2F6A2FF8012189A6
:10555C0001E010E0422F0E94623C0095A785B089C3
:10556C001C9110231C93A62FB32F08955B2F0A2E8A
:10557C00D801FD0104851585012B11F08D01D3DFB8
:10558C001496ED91FC911597008100660083169698
:10559C00ED91FC911797008108620083A02DB52F27
:1055AC0008955B2F0A2ED8011696ED91FC91179752
:1055BC00008107790083FD0104851585012B11F00D
:1055CC008D01C2DFA02DB52F0895F801228B338BEE
:1055DC00448B558B01E010E008950E94323DD801B8
:1055EC00C9012A01FD0100E002A7FD0104A5002369
:1055FC0019F00FEF1FEF3AC0FD01008D118D04154E
:10560C00150518F00FEF1FEF31C0FD01008D118D46
:10561C00012B11F10E944A2E00E010E0FD01208DBB
:10562C00318D0217130758F4FD01E00FF11F228D85
:10563C00FC01E00FF11F20830F5F1F4FEFCFFD0127
:10564C00608C718CFD0100E0008F00E0018F0E94E6
:10565C00482E062D10E00AC0FD01008D118D012B86
:10566C0019F400E010E002C000E010E0E8E00C9457
:10567C00433DAD01F80124893589232B99F4F801B8
:10568C00A681B7812C912F7D2C93F801A481B58133
:10569C002C9120642C93F801A681B7812C91206465
:1056AC002C9315C0F801A289B3899D012F5F3F4F40
:1056BC00F801228B338B2C91F801A285B3852C93A6
:1056CC00F8012489358921503040248B358BDA013F
:1056DC0008957B2F2A2ED8011696ED91FC911797E1
:1056EC0000810F7B00838D015CDFFD0101E003A7CE
:1056FC00A22DB72F08950E94363D20916308239563
:10570C0020936308F801808D918D409738F0F80153
:10571C0021E024A7F80121E022A713C0F801208D75
:10572C00318DC9010196F801808F918FF801A28506
:10573C00B3854C91F801E20FF31F428FF80121E081
:10574C0022A7E4E00C94473DFA93EA937A936A9388
:10575C005A934A933A932A931A930A936FB77BB747
:10576C00009170081091710884DF7BBF6FBF0991A5
:10577C001991299139914991599169917991E991AD
:10578C00F9911895FA93EA933A922A921A920A92FC
:10579C007A936A935A934A933A932A931A930A9355
:1057AC001FB63BB6009170081091710892DF3BBE9A
:1057BC001FBE09911991299139914991599169917A
:1057CC0079910990199029903990E991F99118954E
:1057DC00FA93EA930A926A935A934A933A932A93C6
:1057EC001A930A935FB76BB7009170081091710808
:1057FC0082DF6BBF5FBF0991199129913991499152
:10580C00599169910990E991F99118959A938A9314
:10581C00C801082F092B29F020FB1EF48C010E94D3
:10582C00503C8991999108959801A895E19B02C0EB
:10583C00A895FCCFF8943FBB2EBBE09A78940DB39F
:10584C000895792F082EF801C901042F052B41F07A
:10585C008C01EADF01960083319641505040F5CF20
:10586C0001E0802D972F08950E94343DC801290135
:10587C00DA018C010E94022E82010E94FD2D8D0105
:10588C000E94162E00E010E00E940C2EE6E00C9414
:10589C00453D0E94363D0E94112EC8010E941B2ED0
:1058AC008017910740F50E94072E1FBB0EBB0E946C
:1058BC00072E0F5F1F4F0E94022EE09A8DB30E949D
:1058CC00F82DD8010E94112EA00FB11F0C9180173A
:1058DC0059F00E94F82DD8010E94112EA00FB11F73
:1058EC000C910DBBE29AE19A0E94112E0F5F1F4F93
:1058FC000E940C2E09C00E94F62D00E010E01FBB88
:10590C000EBB01E00E94A90DE4E00C94473D9A9374
:10591C008A93FA93EA933A922A921A920A927A9377
:10592C006A935A934A933A932A931A930A938FB78A
:10593C009BB7AFDF9BBF8FBF09911991299139910B
:10594C0049915991699179910990199029903990BF
:10595C00E991F9918991999118959A938A930801F3
:10596C00190180E090E08215930560F4FA01362F5E
:10597C00E80FF91F3BBF0691F001E80FF91F0083F8
:10598C000196F1CF01E08991999108950E94353DDE
:10599C00D801422E042D0E94202EC801042D0E94F5
:1059AC00372EA801622F02969C018D01D6DF042DA3
:1059BC000E94202EFD01E00FF11F808190E0042D4C
:1059CC000E94202EFD01E00FF11F118100E0802BC1
:1059DC00912B042D0E94202E98018D010E94740998
:1059EC008017910721F4042D0E94202E05C004E09D
:1059FC000E94EB0900E010E0E5E00C94463D9A9320
:105A0C008A93C801082F092B29F020FB1EF48C0166
:105A1C000E94503C89919991089503E10DB907B307
:105A2C00066007BB08B3066008BB08956E9A08951C
:105A3C006E9808959A938A93902F9FB980E07799E6
:105A4C0008C00E94D909883C10F48395F8CF0FB197
:105A5C0005C009EE0A95F1F700000FB189919991F3
:105A6C0008950E94323D38012901DA01A13400E089
:105A7C00B00710F000E011C080E090E08A179B079F
:105A8C0058F4F201E80FF91F0081D4DFF301E80F9D
:105A9C00F91F00830196F2CF01E0E8E00C94433D3E
:105AAC009801890101501040232B41F025ED36E07F
:105ABC0021503040E9F700C00000F2CF08959A93CE
:105ACC008A93C801082F092B29F020FB1EF48C01A6
