:100000000C94E6421895189518951895189518951A
:100010001895189518951895189518951895189578
:10002000189518950C94AA33189518951895189545
:100030001895189518951895189518951895189558
:100040001895189518951895189518951895189548
:1000500018951895189518950C9468321895189558
:100060001895189518951895189518951895189528
:1000700018951895189518950C94C9310C948531DC
:100080000C94A33118951895189518950000000048
:10009000FA050E063B0C3E0C410C90080E064D0C6A
:1000A000500C530CA3080E06560C590C5C0CB608E9
:1000B0000E065F0C620C650CC9080E06680C6B0C12
:1000C0006E0CDC080E06710C740C770CEF080E0633
:1000D0007A0C7D0C800C02090E06830C860C890CB0
:1000E00015090E068C0C8F0C920C28090E06950C27
:1000F000980C9B0C3B094E099E0CA10CA40C460BC2
:100100004E09A70CAA0CAD0C590B4E09B00CB30C40
:10011000B60C6C0B4E09B90CBC0CBF0C7F0B930BCF
:10012000C20CC50C00000000000000000000000030
:10013000000000000000FA0C080D0000C1C081C1E1
:10014000400101C3C003800241C201C6C00680074E
:1001500041C70005C1C581C4400401CCC00C800D5D
:1001600041CD000FC1CF81CE400E000AC1CA81CB64
:10017000400B01C9C009800841C801D8C0188019C6
:1001800041D9001BC1DB81DA401A001EC1DE81DFCC
:10019000401F01DDC01D801C41DC0014C1D481D58D
:1001A000401501D7C017801641D601D2C012801366
:1001B00041D30011C1D181D0401001F0C030803155
:1001C00041F10033C1F381F240320036C1F681F7CC
:1001D000403701F5C035803441F4003CC1FC81FD5D
:1001E000403D01FFC03F803E41FE01FAC03A803BE6
:1001F00041FB0039C1F981F840380028C1E881E9A4
:10020000402901EBC02B802A41EA01EEC02E802F4D
:1002100041EF002DC1ED81EC402C01E4C02480258C
:1002200041E50027C1E781E640260022C1E281E3E3
:10023000402301E1C021802041E001A0C060806135
:1002400041A10063C1A381A240620066C1A681A74B
:10025000406701A5C065806441A4006CC1AC81AD5C
:10026000406D01AFC06F806E41AE01AAC06A806B65
:1002700041AB0069C1A981A840680078C1B881B9C3
:10028000407901BBC07B807A41BA01BEC07E807FCD
:1002900041BF007DC1BD81BC407C01B4C07480758C
:1002A00041B50077C1B781B640760072C1B281B363
:1002B000407301B1C071807041B00050C190819114
:1002C00040510193C053805241920196C0568057CD
:1002D00041970055C19581944054019CC05C805D5C
:1002E000419D005FC19F819E405E005AC19A819BE3
:1002F000405B0199C059805841980188C0488049A5
:100300004189004BC18B818A404A004EC18E818F4A
:10031000404F018DC04D804C418C0044C18481858B
:1003200040450187C047804641860182C0428043E4
:1003300041830041C18181804040000000000000F5
:1003400000000000000000000000000000000000AD
:10035000000000000000000000000000000000009D
:10036000000000000000B211C011C111C011000056
:10037000000000000000000000000000000000007D
:10038000000000000000000000000000000000006D
:10039000000000000000000000000000000000005D
:1003A000000000000000000000000000000000004D
:1003B000D512C011E912C0117515C4150000000056
:1003C000000000000000000000000000000000002D
:1003D0000000262E2F271F170F07050D151D1E16AF
:1003E0000E06141C242C2D25040C222A2B231B134F
:1003F0000B03010911191A120A02101820282921C9
:1004000000083F3F3F0000000000FF00FF00FF002A
:100410000000FFFFFFFFFF7317C011000000000086
:1004200000000000000000000000000000000000CC
:10043000009317A617000000000000000000000055
:1004400000000000000000000000006418C0117BE4
:100450001841454145414541450D2011200000000E
:10046000000000000000000000000000000000008C
:1004700000000046208E21A8216F21B3213E22C01A
:1004800024C8245F20BD247B188B21A521B021C264
:1004900021C424CC24000000000000000000000063
:1004A00000000000000000000000008304000000C5
:1004B000000000000000000000000000000000003C
:1004C00000000016253727FD241325C01100000069
:1004D000000000000000000000000000000000001C
:1004E0000000008D27CE2774278A27C011E828082E
:1004F00029414541454145414541454145EE2EF2A1
:100500002EF62EFA2EFE2E022F062F0A2F0E2F1257
:100510002FA22B0829EC2BED2BF62BFF2B002CB94F
:100520002B162F1A2F1E2F222F262F2A2F062F0A87
:100530002F0E2F122F0B2C0829552C562C5F2C60B8
:100540002C692C222C2E2F322F362F3A2F3E2F4261
:100550002F062F0A2F0E2F122F642DB42D7C2D87DE
:100560002D922D9D2DA82D7B2D462F4A2F4E2F529B
:100570002F562F5A2F062F0A2F0E2F122F00000052
:10058000000000000000000000000000000000006B
:10059000000000742C0829C32CCB2CCC2CD42CDCD0
:1005A0002C8B2CEE2EF22EF62EFA2EFE2E022F067D
:1005B0002F0A2F0E2F122FE62C08293A2D422D4AF2
:1005C0002D522D5A2DFD2CEE2EF22EF62EFA2EFE49
:1005D0002E022F062F0A2F0E2F122FF82FE7314051
:1005E00033000000000000000000000000000000D8
:1005F00000000000000000E03202013000000000B6
:10060000000000000000000000000000006F0A0170
:100610002F0873060000171B0000000000000000F8
:100620000000000000000000BEF00001020304050D
:10063000060708090A0B0C0D0E0F101112131415E2
:10064000161718191A1B1C1D1E1F202122232425D2
:10065000262728292A2B2C2D2E2FFFFFFFFFFFFFF7
:10066000FFFFFFFFFFFFFFFFFFFFFFFFFFFFFFFF9A
:10067000FFFFFFFFFFFFFFFFFFFFFFFFFFFFFFFF8A
:10068000FFFFFFFFFFFFFFFFFFFFFFFFFFFFFFFF7A
:10069000FFFFFFFFFFFFFFFFFFFFFFFFFFFFFFFF6A
:1006A000FFFFFFFFFFFFFFFFFFFFF95A03030303F5
:1006B000030303030303030303030303030303030A
:1006C0000303030302020202020202020202020206
:1006D00002020202020202020202020202020202FA
:1006E00002020202020202020202020239413E3EFC
:1006F0003E3E3C3C3C3CFFFFFFFFFFFFFFFFFFFF98
:10070000FFFFFFFFFFFF4B6F010204081020408036
:1007100000000000000000000000000000000000D9
:1007200000000000000000000000000000000000C9
:1007300000000000000000000000000000000000B9
:1007400000000000000000000000000000000000A9
:100750000000000000000000000000000000000099
:100760000000000000000000000000000000000089
:100770000000000000000000000000000000000079
:10078000000000000000000099E8010102100020B4
:100790000000000000000000000000000000000059
:1007A0000000000000000000000000000000000049
:1007B0000000000000000000000000000000000039
:1007C0000000000000000000000000000000000029
:1007D000000000000000000000000023E20101050D
:1007E0000000FF000000000000000000000000000A
:1007F00000000000000000000000000000000000F9
:1008000000000000000000000000000000000000E8
:1008100000000000000000000000000000000000D8
:1008200000000000000000000000000000007B9CB1
:100830000101050100FF00000000000000000000B1
:1008400000000000000000000000000000000000A8
:100850000000000000000000000000000000000098
:100860000000000000000000000000000000000088
:100870000000000000000000000000000000000078
:1008800000FB6C0000000000000000400B000000B6
:100890000000000000400B001400000107160002D9
:1008A000101F00038031000440B3000518F5000656
:1008B000800F01075191010851E401095137020AE3
:1008C000088A020B089402000000000000000000EB
:1008D0000000000000000000000000000001010115
:1008E0000101010101010000000000000101000000
:1008F00000000000010100000000000001010000F4
:0F09000000000000010101010101010101344269
:1009100000008D080A008D08EB06CF078D07F5074C
:1009200015083A088D086008790801019A1F3F1FD1
:1009300001461F014D1F01541F015B1F01621F0172
:10094000691F07771F01701F017E1F01851F068C1D
:100950001F2AA11F03A11F01A11F01931FFB00005C
:10096000BA241400BA24BA24562261227222C32265
:10097000262353235E237E238B23BA249423A92387
:10098000F623552476248324A324B22400019F2B2C
:100990009F2B01852901A62905B22901D32901FB35
:1009A0002904232A01442A016C2A04942A01B52A25
:1009B00001DD2A01052B012D2B0114290135290107
:1009C0005D2904552B01762B06902BFB0000774107
:1009D00016007D4077419C40A140CD40D2407741F8
:1009E0007741774177417741D740E340E540F24096
:1009F0001541174139413B414A415A417141620E0B
:100A00003C34BA93AA93D8018D010E94971100E952
:100A100010E0FD01018312838D01A991B991089520
:100A2000BA93AA93D8018D01ECDF0AE910E0FD0129
:100A30000183128320E08D010E94320C8D01A99167
:100A4000B9910895BA93AA93D8018D01DADF04EA27
:100A500010E0FD010183128321E08D010E94320C20
:100A60008D01A991B9910895BA93AA93D8018D01E6
:100A7000C8DF0EEA10E0FD010183128321E08D0141
:100A80000E94320C8D01A991B9910895BA93AA934D
:100A9000D8018D01B6DF08EB10E0FD010183128360
:100AA00021E08D010E94320C8D01A991B991089528
:100AB000BA93AA93D8018D01A4DF02EC10E0FD01E6
:100AC0000183128321E08D010E94320C8D01A991D6
:100AD000B9910895BA93AA93D8018D0192DF0CECD5
:100AE00010E0FD010183128321E08D010E94320C90
:100AF0008D01A991B9910895BA93AA93D8018D0156
:100B000080DF06ED10E0FD010183128321E08D01FD
:100B10000E94320C8D01A991B9910895BA93AA93BC
:100B2000D8018D016EDF00EE10E0FD01018312831C
:100B300021E08D010E94320C8D01A991B991089597
:100B4000BA93AA93D8018D015CDF0AEE10E0FD0193
:100B50000183128321E08D010E94320C8D01A99145
:100B6000B9910895BA93AA93D8018D014ADF04EF91
:100B700010E0FD010183128321E08D010E94320CFF
:100B80008D01A991B9910895BA93AA93D8018D01C5
:100B9000E9DF0EEF10E0FD010183128321E08D01FA
:100BA0000E94320C8D01A991B9910895BA93AA932C
:100BB000D8018D01D7DF08E011E0FD010183128328
:100BC00021E08D010E94320C8D01A991B991089507
:100BD000BA93AA93D8018D01C5DF02E111E0FD01AE
:100BE0000183128321E08D010E94320C8D01A991B5
:100BF000B99108950E94E643C801D901082F092B35
:100C000051F020E030E08C010E94B211A0FB1EF4F4
:100C10008C010E940043E4E00C94F7430E94E643F9
:100C2000D80183E08D010E94440C0E94CB3D902F9F
:100C30008D01FD0121813281F90138962591349190
:100C40003997F9010995002311F001E001C000E096
:100C5000002309F460C08D010E94440C0E94CB3D2A
:100C6000005049F00A9539F00A9509F44CC00A95EC
:100C700009F449C0A7C08D010E94440C0E94CB3DDD
:100C800003700023E1F48D010E94440C10E00E94E7
:100C9000BB3D8D01FD0121813281F90136962591FF
:100CA00034913797F9010995002311F001E001C053
:100CB00000E0002311F081E085C080E083C08D0159
:100CC0000E94440C0E94CB3D03700130D9F48D0189
:100CD0000E94440C11E00E94BB3D8D01FD01218169
:100CE0003281F9013696259134913797F9010995AA
:100CF000002311F001E001C000E0002311F080E0CA
:100D000061C081E05FC082E08D010E94440C10E070
:100D10000E94BB3D57C08D010E94440C0E94CB3DF8
:100D20000370023041F08D010E94440C0E94CB3DC3
:100D300003700130E1F48D010E94440C10E00E9428
:100D4000BB3D8D01FD0121813281F901369625914E
:100D500034913797F9010995002311F001E001C0A2
:100D600000E0002311F081E02DC080E02BC08D0158
:100D70000E94440C0E94CB3D0370033041F08D0172
:100D80000E94440C0E94CB3D03700023D9F48D01D6
:100D90000E94440C11E00E94BB3D8D01FD012181A8
:100DA0003281F9013696259134913797F9010995E9
:100DB000002311F001E001C000E0002311F080E009
:100DC00001C081E08D010E94350CE0E1F0E0FBBF45
:100DD000F9E00C949D438D01FD0121813281F901DF
:100DE0003896259134913997F9010995002311F02E
:100DF00001E001C000E0002309F44BC0823029F477
:100E000028E08D010E94320C88C1813009F085C133
:100E10008D010E944A0C21E00E94AD3C8D01FD0134
:100E200021813281F9013496259134913597F90168
:100E30000995902F8D010E94470C192F0E94253E85
:100E40008D01FD0121813281F90134962591349182
:100E50003597F9010995902F8D010E94470C192FA4
:100E60000E94323E8D010E94470C0E94DA0C21E064
:100E70000E94380CEAECFCE0038103FF05C023E08C
:100E80008D010E94320C49C122E08D010E94320C7A
:100E900044C1813009F040C08D010E944A0C21E01C
:100EA0000E94AD3C8D01FD0121813281F901349612
:100EB000259134913597F9010995902F8D010E9464
:100EC000470C192F0E94253E8D01FD0121813281A1
:100ED000F9013496259134913597F9010995902FB0
:100EE0008D010E94470C192F0E94323E8D010E94F5
:100EF000470C0E94DA0C21E00E94380CEAECFCE07E
:100F0000038103FF05C023E08D010E94320C05C15F
:100F100022E08D010E94320C00C1813039F48D0134
:100F20000E944A0C20E00E94AD3C1BC0882399F42B
:100F30008D010E94470C10E00E94253E8D010E9409
:100F4000470C0E94DA0C20E00E94380C21E08D0151
:100F50000E94320CE2C0823021F428E08D010E9410
:100F6000320C0E94D10C002359F08D010E94470CD5
:100F700011E00E94253E25E08D010E94320CCDC07B
:100F80000E94CE0C002351F08D010E94470C11E00D
:100F90000E94253E24E08D010E94320CBEC08130AB
:100FA00031F48D010E944A0C20E00E94AD3C0E9469
:100FB000D10C002359F08D010E94470C11E00E94D2
:100FC000253E25E08D010E94320CA7C00E94CE0C68
:100FD000002351F08D010E94470C11E00E94253E34
:100FE00024E08D010E94320C98C00E94D10C002395
:100FF00029F025E08D010E94320C8FC0882329F44E
:1010000026E08D010E94320C88C0813039F48D01B8
:101010000E944A0C20E00E94AD3C7FC0823021F447
:1010200028E08D010E94320C78C0882399F48D014C
:101030000E94470C10E00E94253E8D010E94470C43
:101040000E94DA0C20E00E94380C21E08D010E9401
:10105000320C63C0813039F48D010E944A0C20E0CB
:101060000E94AD3C5AC0823021F428E08D010E94DC
:10107000320C53C0813039F48D010E944A0C20E0BB
:101080000E94AD3C06C0823021F428E08D010E9410
:10109000320C0E94D10C002391F08D010E94470C6C
:1010A00010E00E94253E8D010E94470C0E94DA0C40
:1010B00020E00E94380C21E08D010E94320C2DC0EE
:1010C0008D010E94470C11E00E94253E8D010E9477
:1010D000470C16E00E94323E8D010E94470C0E9490
:1010E000DA0C21E00E94380C29E08D010E94320CBC
:1010F00014C0823091F08D010E94470C10E00E94D4
:10110000253E8D010E94470C0E94DA0C20E00E94CF
:10111000380C21E08D010E94320CE4E00C94F7437E
:101120000E94E643C801D901082F092B49F020E0AD
:1011300030E08C015FDDA0FB1EF48C010E940043B7
:10114000E4E00C94F7430E94E643C801D901082F5C
:10115000092B49F020E030E08C014CDDA0FB1EF4AF
:101160008C010E940043E4E00C94F7430E94E643A4
:10117000C801D901082F092B49F020E030E08C018B
:1011800039DDA0FB1EF48C010E940043E4E00C94C6
:10119000F7430E94E643C801D901082F092B49F003
:1011A00020E030E08C0126DDA0FB1EF48C010E94C3
:1011B0000043E4E00C94F7430E94E643C801D901E0
:1011C000082F092B49F020E030E08C0113DDA0FB53
:1011D0001EF48C010E940043E4E00C94F7430E944B
:1011E000E643C801D901082F092B49F020E030E07F
:1011F0008C0100DDA0FB1EF48C010E940043E4E0A2
:101200000C94F7430E94E643C801D901082F092B2B
:1012100049F020E030E08C01EDDCA0FB1EF48C01F5
:101220000E940043E4E00C94F7430E94E643C801A7
:10123000D901082F092B49F020E030E08C01DADCDD
:10124000A0FB1EF48C010E940043E4E00C94F743E1
:101250000E94E643C801D901082F092B49F020E07C
:1012600030E08C01C7DCA0FB1EF48C010E9400431F
:10127000E4E00C94F7430E94E643C801D901082F2B
:10128000092B49F020E030E08C01B4DCA0FB1EF417
:101290008C010E940043E4E00C94F7430E94E64373
:1012A000D80183E08D010E94440C0E94CB3D902F19
:1012B0008D01FD0121813281F9013896259134910A
:1012C0003997F9010995002311F001E001C000E010
:1012D000002309F460C08D010E94440C0E94CB3DA4
:1012E000005049F00A9539F00A9509F44CC00A9566
:1012F00009F449C0A7C08D010E94440C0E94CB3D57
:1013000003700023E1F48D010E94440C10E00E9460
:10131000BB3D8D01FD0121813281F9013696259178
:1013200034913797F9010995002311F001E001C0CC
:1013300000E0002311F081E085C080E083C08D01D2
:101340000E94440C0E94CB3D03700130D9F48D0102
:101350000E94440C11E00E94BB3D8D01FD012181E2
:101360003281F9013696259134913797F901099523
:10137000002311F001E001C000E0002311F080E043
:1013800061C081E05FC082E08D010E94440C10E0EA
:101390000E94BB3D57C08D010E94440C0E94CB3D72
:1013A0000370023041F08D010E94440C0E94CB3D3D
:1013B00003700130E1F48D010E94440C10E00E94A2
:1013C000BB3D8D01FD0121813281F90136962591C8
:1013D00034913797F9010995002311F001E001C01C
:1013E00000E0002311F081E02DC080E02BC08D01D2
:1013F0000E94440C0E94CB3D0370033041F08D01EC
:101400000E94440C0E94CB3D03700023D9F48D014F
:101410000E94440C11E00E94BB3D8D01FD01218121
:101420003281F9013696259134913797F901099562
:10143000002311F001E001C000E0002311F080E082
:1014400001C081E08D010E94350C005061F00A95C9
:1014500059F0065009F495C00A9509F4E7C00A95B9
:1014600009F4FDC010C10FC18D01FD012181328140
:10147000F9013896259134913997F901099500239E
:1014800011F001E001C000E0002309F441C0823006
:1014900029F428E08D010E94320CF5C0813009F05A
:1014A000F2C08D010E944A0C21E00E94AD3C8D01EA
:1014B000FD0121813281F9013496259134913597CE
:1014C000F9010995902F8D010E94470C192F0E9458
:1014D000253E8D01FD0121813281F901349625914E
:1014E00034913597F9010995902F8D010E94470C91
:1014F000192F0E94323E8D010E94470C0E94DA0C87
:1015000021E00E94380C27E08D010E94320CBBC004
:101510008130B1F58D010E944A0C21E00E94AD3C62
:101520008D01FD0121813281F9013496259134919B
:101530003597F9010995902F8D010E94470C192FBD
:101540000E94253E8D01FD0121813281F9013496F1
:10155000259134913597F9010995902F8D010E94BD
:10156000470C192F0E94323E8D010E94470C0E94A9
:10157000DA0C21E00E94380C27E08D010E94320C29
:1015800082C08D01FD0121813281F90138962591BA
:1015900034913997F9010995002311F001E001C058
:1015A00000E0002329F1823029F428E08D010E9417
:1015B000320C69C0882399F48D010E94470C10E019
:1015C0000E94253E8D010E94470C0E94DA0C20E00B
:1015D0000E94380C21E08D010E94320C54C08130F1
:1015E00021F58D010E944A0C20E00E94AD3C4BC0C9
:1015F000882399F48D010E94470C10E00E94253E3B
:101600008D010E94470C0E94DA0C20E00E94380CE9
:1016100021E08D010E94320C36C08130A1F58D0190
:101620000E944A0C20E00E94AD3C2DC08D010E941A
:10163000470C11E00E94253E8D010E94470C16E0E8
:101640000E94323E8D010E94470C0E94DA0C21E07C
:101650000E94380C29E08D010E94320C14C08230A7
:1016600091F08D010E94470C10E00E94253E8D01F3
:101670000E94470C0E94DA0C20E00E94380C21E006
:101680008D010E94320CE4E00C94F7430E94E64383
:10169000C801D901082F092B49F020E030E08C0166
:1016A000EADDA0FB1EF48C010E940043E4E00C94F0
:1016B000F7430E94E643C801D901082F092B49F0DE
:1016C00020E030E08C01D7DDA0FB1EF48C010E94ED
:1016D0000043E4E00C94F7430E94E643C801D901BB
:1016E000082F092B49F020E030E08C01C4DDA0FB7D
:1016F0001EF48C010E940043E4E00C94F7430E9426
:10170000E643C801D901082F092B51F020E030E051
:101710008C010E94B211A0FB1EF48C010E940043B8
:10172000E4E00C94F7430E94E543D8018D010E9448
:10173000350C005049F00A9541F00A9509F463C050
:101740000A9509F46BC08BC08AC0FD01818192812A
:1017500006968D010E94C80C0E94D13D402E8D013D
:10176000FC01259134913197F901099540264420D7
:1017700011F001E001C000E0002309F470C00E94F4
:10178000D70C073021F1FD018181928104960E94DE
:10179000D70C402E8D01FC01259134913197F90130
:1017A0000995401610F001E001C000E0002379F433
:1017B0008D011196ED91FC911297349625913491FB
:1017C0003597F90109950E94D40C0E94D73D8D01EF
:1017D0001196ED91FC91129734962591349135979D
:1017E000F9010995802F8D010E94CB0C182F0E94C2
:1017F000323E8D010E94CB0C0E94A83F22E08D0159
:101800000E94320C2CC00E94CE0C002341F10E9499
:10181000F63D23E08D010E94320C21C0FD01818143
:10182000928106968D010E94C80C0E94D13D402EE7
:101830008D01FC01259134913197F90109954026DC
:10184000442011F401E001C000E0002341F00E94B7
:10185000FF3D0E94E63521E08D010E94320CE5E05B
:101860000C94F643F80120830895F801008108954F
:10187000F80120830895980100E00895980100E0A0
:101880000895980100E00895F80105810895F80190
:10189000038108950C5F1F4F0895980100E008959B
:1018A000980100E00895980100E00895980102E091
:1018B0000895980100E00895980100E008959801C6
:1018C00002E00895980101E00895980100E008956C
:1018D000980102E00895980100E00895980101E060
:1018E0000895980102E00895980101E00895980193
:1018F00001E00895980103E00895980100E008953B
:10190000980100E00895980103E00895980101E02E
:101910000895980100E00895980103E00895980162
:1019200000E00895980101E00895980103E008950A
:10193000980101E00895980101E00895980101E0FF
:101940000895980100E00895980100E00895980135
:1019500001E00895980101E00895980100E00895DC
:10196000980101E00895980100E00895980101E0D0
:101970000895980101E00895980101E00895980103
:1019800001E00895980107E00895980100E00895A6
:10199000F80104810895F801038108950091500C25
:1019A00008950091510C08950093BF0C0895009183
:1019B000BF0C089510E048E050E00E9408439801F1
:1019C0000BED1DE0020F131F089526E331E0F8012F
:1019D00026833783F80120E02083F80120E021836B
:1019E000F80120E02283F80120E02383F80120E0C1
:1019F000248308959A938A93C801082F092B29F00C
:101A000020FB1EF48C010E94004389919991089556
:101A10009A938A93C801082F092B29F020FB1EF402
:101A20008C010E9400438991999108950E943C0D78
:101A30000E94380D0E94420D0E943E0D089508EF4D
:101A400012E00E9474330E943A0D0E94400D0895E6
:101A50000AE81CE00E9474330E943A0D0E94400D77
:101A600008950E943C0D0E94420D0E949F330895EC
:101A7000149A08951C9A08951C980895159A08952B
:101A80001D9A08951D9808957B2F2A2ED8010FEFD7
:101A90001FEF40E050E04217530798F46C91502F2D
:101AA00065271196012F10E0E62FF0E0EE0FFF1FE3
:101AB000E65CFE4F05901490319700251125439563
:101AC000E9CFA22DB72F0895F80100E010E0408182
:101AD00050E0040F151F319621503040422F432B08
:101AE000B1F708950E94E643F801C90120E030E013
:101AF000008110E0200F311F31960197082F092B2C
:101B0000B9F7DF01FD013196022F1C91011749F44D
:101B10008901012F10E01081011719F401E010E094
:101B200002C000E010E0E4E00C94F743F80140E06C
:101B30000081400F319621503040022F032BC1F716
:101B40000081401719F401E010E0089500E010E072
:101B50000895A895089510E048E050E00E940843D9
:101B6000F801E056F84F0681178108950091310879
:101B700008950CE008950093520C08950E94E643E6
:101B80000E94760EB0E0A1E00A2F015039F00A95CC
:101B900039F10A95A1F10A9581F133C00E94B90D7E
:101BA000B017E0F42B2F0AE11AE00E946611C80179
:101BB000082F092B89F04B2F43959C010AE11AE06D
:101BC0000E94BD0F002311F0A2E01BC00E94B60DC1
:101BD0000430B9F4A3E015C0A3E013C0A4E011C021
:101BE0000E94B60D033019F4B395A1E00AC00E941B
:101BF000B60D043031F4A3E004C001E00BC000E0F6
:101C000009C00E9463100AE010E00E9431330E9474
:101C1000A90DBACFE4E00C94F7430E94E00F0895B9
:101C20000E94051008950E943110089500E00E945E
:101C3000BB0D0E940111002399F0EFDF002351F04A
:101C4000F2DF002311F001E0089504E00E94BB0DD3
:101C500000E0089504E00E94BB0D90DF00E00895CD
:101C600004E00E94BB0D8ADF00E008950E94E74374
:101C7000C801A22F2A2F23958C010E94AC0EE3E00D
:101C80000C94F8438A93802F0E94B90D801730F48A
:101C9000082F03950E94AB0D10E002C000E010E099
:101CA000899108950E94E743C801A22F0A2FEADF15
:101CB00098014A2F43958C010E94BD0F10E0E3E08C
:101CC0000C94F84308E218E00E94194200E417E07F
:101CD0000E94A44208959A938A93C80122E030E0BA
:101CE0008C010E9434428991999108950AE11AE089
:101CF000E6E2F8E00083118300E00E9488114CE6E0
:101D000050E020E030E000EA17E00E941244E0EAF0
:101D1000F7E000E110E004831583E0EAF7E00CE669
:101D200010E0068317830EE610E00E943214E0EA0A
:101D3000F7E0008711870EE610E00E943214005F82
:101D40001F4FE0EAF7E002831383E0EAF7E000E0E8
:101D5000008300E0018308950E94DC43D1503801E4
:101D6000822E0DE0801618F000E010E077C0082DFC
:101D700010E048E050E00E940843F801E056F84FB8
:101D800006811781012B09F451C0082D10E048E0AD
:101D900050E00E940843F801E056F84F0085118595
:101DA000012B09F443C0082D10E048E050E00E94E8
:101DB0000843F801E056F84F048115816801082DA9
:101DC00010E048E050E00E940843F801E056F84F68
:101DD000068117812801082D10E048E050E00E949C
:101DE0000843F801E056F84F008511855801A50118
:101DF00096018E010E940232A5019E018E010E9471
:101E0000E314FE01E40DF51D808190E0FE01E40D78
:101E1000F51D118100E0802B912B92018E010E9413
:101E2000440DD8018A179B07A1F403C000E010E01D
:101E300015C0082D10E0000F111FF801E45FF74FE7
:101E400080839183A2019E0183010E94024482014A
:101E500005C004E00E94BB0D00E010E0DF5FEEE093
:101E60000C94ED430E94E043D1502801C901642E37
:101E70000DE0601618F000E010E07BC0AC019201AC
:101E80008E010E9402449C0182010E94440DD801EF
:101E90000A2FFE01E80FF91F00838D01012F10E0CA
:101EA000FE01E80FF91F0183062D10E048E050E025
:101EB0000E940843F801E056F84FA287B387AC01AF
:101EC0004E5F5F4F9E01E6E2F8E0008111810E94C3
:101ED0003C144801062D10E048E050E00E94084301
:101EE000F801E056F84F00851185012B69F5E0EA0D
:101EF000F7E022813381062D10E048E050E00E9497
:101F00000843F801E056F84F24833583E0EAF7E010
:101F100002811381080D191D02831383062D10E021
:101F200048E050E00E940843F801E056F84F8683ED
:101F30009783062D10E048E050E00E940843F80126
:101F4000E056F84F80869186A401E6E2F8E0208111
:101F50003181BA01062D10E048E050E00E940843AC
:101F6000F801E056F84F04811581AB010E9415324B
:101F70008401DF5FEAE00C94F1430E94E543D8015D
:101F8000C901442E0E948B11002399F4442D9C0119
:101F90008D0168DF012B41F001E00E948E1101E00C
:101FA0000E94881101E009C004E00E948E1100E047
:101FB00004C002E00E948E1100E0E5E00C94F643BC
:101FC000BD01E1E0F0E0EC3000E0F007D8F48F0173
:101FD000000F111FD801A45FB74F2D913C911197AD
:101FE0008F0148E050E00E940843D801A655B84F41
:101FF0000D911C9111972017310711F000E003C0DB
:102000003196E1CF01E0DB010895BA93AA93689776
:10201000E0E0F0E0EC3000E0F007B0F48F0148E0E1
:1020200050E00E940843D801AE54B84F2D913C9126
:102030001197DE018F01000F111FA00FB11F2D930B
:102040003C9311973196E6CF28E130E08E010E9453
:10205000440DE0EAF7E0008311836896A991B991F5
:102060000895BA93AA936897E0E0F0E0EC3000E0BE
:10207000F007B0F48F0148E050E00E940843D80117
:10208000AE54B84F2D913C911197DE018F01000F96
:10209000111FA00FB11F2D933C9311973196E6CFDE
:1020A00028E130E08E010E94440DE0EAF7E0208153
:1020B00031812017310711F401E001C000E068967A
:1020C000A991B99108950E948B11005079F00A9559
:1020D00071F00A95B1F00A9589F10A9509F443C0A7
:1020E0000A9509F459C00A9509F473C008950E942D
:1020F000851128EC30E00E94424202E00E948811E3
:1021000008950E947311002361F00E94851120E15F
:1021100037E20E9442420E947F1103E00E94881130
:1021200008950E9485110E945142002331F004E07D
:102130000E948E1100E00E94881108950E947C1177
:10214000002321F004E00E94881108950E94851167
:102150000E945142002331F004E00E948E1100E001
:102160000E948811089540E02CE630E000EA17E074
:1021700079DE012B51F00E94851128EC30E00E949D
:10218000424205E00E948811089504E00E948E11E9
:1021900000E00E94881108950E947311002361F0ED
:1021A0000E94851120E137E20E9442420E947F1185
:1021B00006E00E94881108950E9485110E945142F4
:1021C0000023F1F004E00E948E1100E00E948811CB
:1021D00008950E947C11002339F003E00E948E11C3
:1021E00000E00E94881108950E9485110E945142CA
:1021F000002331F004E00E948E1100E00E9488115B
:1022000008950E94E64372DD20E000EA17E0A4DDB5
:10221000012B11F400E057C0B0E0A1E000E00E9403
:1022200091110A2F015059F00A9509F10A9581F18F
:102230000A95D1F10A95E9F10A95C9F13CC0BD3082
:10224000A0F42B2FE6E2F8E00081118185DDC801C2
:10225000082F092B41F00E949411002311F0A2E0F5
:102260002AC0A4E028C0A5E026C0A6E024C04B2FC9
:102270009C01E6E2F8E0008111817FDE002311F08D
:10228000A3E019C00E94B60D0430A9F4A5E013C064
:102290000E94B60D033011F4A4E00DC00E94B60DEB
:1022A000043049F4A5E007C0B395A1E004C001E003
:1022B0000AC000E008C007DF0AE010E00E943133E6
:1022C0000E94A90DAECFE4E00C94F7430E94E743CF
:1022D000C801A22F2A2F8C010E94A732E3E00C94A0
:1022E000F843E39A0895E19B02C000E0089501E0FD
:1022F000089500937C08089500917C08089500E0FB
:102300000E9479110E947111089508E218E0089561
:102310000093300808950091300808950093310823
:10232000089500933208089500913208089526E632
:1023300033E0F80121833283F80120E020830895FF
:10234000AD01D8018D01F3DF0AE613E0FD01018341
:102350001283FD0100E00383FD0100E004838D0191
:10236000DA0108959A938A93C801082F092B29F05E
:1023700020FB1EF48C010E940043899199910895DD
:1023800008959A938A93C801082F092B29F020FBFE
:102390001EF48C010E940043899199910895009147
:1023A0006100016000936100089500916200016086
:1023B000009362000895009162000E7F0093620016
:1023C00008950091610000640093610008950091F8
:1023D00062000064009362000895009162000F7B28
:1023E0000093620008950091610002600093610013
:1023F00008950091620002600093620008950091C8
:1024000062000D7F009362000895009161000460F6
:10241000009361000895009162000B7F00936200B9
:102420000895BC9A0895C4980895009161000061D0
:1024300000936100089500916200006100936200C2
:102440000895009162000F7E00936200089500914C
:1024500061000062009361000895009162000062D3
:102460000093620008950E94111202E001BF09E189
:1024700003BF0895000000000895000008950E9421
:10248000CF110E94DB110E94E1110E94E7110E940E
:10249000F3110E94FF110E9405120E940B120E946C
:1024A00011120E9413120E9415120E9421120E9402
:1024B00027120E942D120E94331208950E94ED11DE
:1024C0000E943A120E94E71108959A938A93902FDE
:1024D0000E94211280E08630B0F400E210E0482F24
:1024E0000E941C43192F1023112319F00E94D511AB
:1024F00002C00E94DB110E94F9110E943D120E944D
:10250000FF118395E8CF0E94211289919991089536
:102510009A938A93902F0E941B1280E08830B0F427
:1025200000E810E0482F0E941C43192F10231123AC
:1025300019F00E94D51102C00E94DB110E94F9110E
:102540000E943D120E94FF118395E8CF0E94211244
:10255000899199910895BA93AA93D8018D010E9407
:10256000A01100EB13E0FD01018312838D01A991FD
:10257000B99108950E94E643D801C9018D01EBDFAE
:1025800004EB13E0FD01018312838D010B5F1F4FEC
:102590000E941942FD018387948720E08D010E94EB
:1025A000320C8D01E4E00C94F7430E94E643C8012D
:1025B000D901082F092B51F020E030E08C010E9456
:1025C000C111A0FB1EF48C010E940043E4E00C94B6
:1025D000F7430E94E643D801C9010A2F0B2BA9F04B
:1025E00004EB13E0FD010183128322E030E08D0152
:1025F0000B5F1F4F0E94344220E030E08D01D5DF99
:1026000080FB1EF48D010E940043E4E00C94F7432C
:102610000E94E643D801922F832F8D010E94350C32
:10262000005029F00A9561F00A9521F148C0FD019A
:1026300000E0058721E08D010E94320C00E040C0DF
:10264000992321F0FD01058501600587882321F08C
:10265000FD01058502600587FD01238534858D0117
:102660000B5F1F4F0E94424222E08D010E94320CFC
:1026700000E026C08D010B5F1F4F0E9451420023D6
:1026800031F020E08D010E94320C00E019C0992346
:1026900021F0FD01058501600587882321F0FD01FA
:1026A000058502600587FD010585033031F420E0D2
:1026B0008D010E94320C01E003C000E001C000E087
:1026C000E4E00C94F743202F30E0E0E0F0E0E83065
:1026D00000E0F0074CF4022F10E04E2F0E941C4344
:1026E000017030273196F3CF332311F401E00895C0
:1026F00000E00895980150E0E0E0F0E0EC3000E008
:10270000F00744F44E2F89010E94174301705027AF
:102710003196F4CF552311F401E0089500E00895B7
:10272000502F60E070E000E1509F00E000220FE0D9
:102730001022B00108E0509F00E7002200E01022C4
:1027400060297129052F017014E0019F602971290A
:10275000052F007FB8DF10E8019F60297129052F40
:102760000E78B1DF18E0019F60297129052F0D76E1
:10277000AADF12E0019F60297129052F0B75A3DFE5
:1027800010E0602B712B8B010895080160E080013F
:1027900000701F70AFDF102D17FB10E010F901174C
:1027A00011F061E001C060E0660F660F660F800106
:1027B000007718709FDF102D13FB10E010F9011740
:1027C00011F001E001C000E0000F000F602B80015C
:1027D000047616708FDF102D11FB10E010F9011731
:1027E00011F001E001C000E0000F602B80010475D2
:1027F000157080DF102D1170011711F001E001C07C
:1028000000E0602B062F0895B801222311F48B01FC
:102810000895209332082A9501E010E0422F0E948B
:102820001243602771278B010895B80120E044E02E
:102830008B010E941743007F202F062F06950695D7
:1028400006950E70202B062F02FB00E000F9202BCE
:10285000022F08951801810198DF202F8101D4DF14
:10286000E4DF089500FB16F40F5F1F4F98013695C3
:102870002795020F131F08950E94DB433801590169
:102880006A012224332444245524EE240C2D0D29DE
:1028900041F0C0FA36F40FEFC00E0FEFD01EEE2459
:1028A000E394882499248C149D0408F04BC0F5010E
:1028B000E40DF51D008134DF20E030E0C801D901CE
:1028C00001E0400E00E0501EF501E40DF51D008111
:1028D00027DFA80160E070E0ECE08A019B014E2F49
:1028E0000E946E43802B912BA22BB32B01E0400E54
:1028F00000E0501E8C01F301E20DF31D008301E0A6
:10290000200E00E0301E892F9A2FAB2FB0E08C01F3
:10291000F301E20DF31D008301E0200E00E0301E04
:10292000892F9A2FAB2FB0E08C01F301E20DF31D3C
:10293000008301E0200E00E0301E02E0800E00E087
:10294000901EB1CFEE20D9F1F501E40DF51D008107
:10295000E7DE20E030E0C801D90100E0E1DEA801B7
:1029600060E070E0ECE08A019B014E2F0E946E4314
:10297000802B912BA22BB32B8C01F301E20DF31DC5
:10298000008301E0200E00E0301E892F9A2FAB2F2C
:10299000B0E08C01F301E20DF31D008301E0200E95
:1029A00000E0301E892F9A2FAB2FB0E08C01F3018D
:1029B000E20DF31D008301E0200E00E0301E8101D6
:1029C000EFE00C94EC430E94DA43580149017A018C
:1029D00066247724442455240E2D0F2951F043E01A
:1029E00050E087010E941F43452B19F000E010E0E2
:1029F00057C0CC24DD24CE14DF0408F050C0F4010D
:102A0000E40DF51D008110E020E030E0C801D9019F
:102A100001E0400E00E0501EF401E40DF51D0081C0
:102A200010E020E030E0322F212F102F00E0802B2B
:102A3000912BA22BB32B01E0400E00E0501EF401BD
:102A4000E40DF51D208130E000E010E0802B912B9B
:102A5000A22BB32B01E0400E00E0501E8C010F7F33
:102A60001F70F8DEF501E60DF71D008301E0600E32
:102A700000E0701E4CE08C019D010E9475430F7FA9
:102A80001F70E8DEF501E60DF71D008301E0600E22
:102A900000E0701E03E0C00E00E0D01EACCF83014A
:102AA000E0E10C94EB430E94E643D801C9018D019B
:102AB0000E94A01108EB13E0FD01018312838D0138
:102AC000075F1F4F0E941942FD0185839683FD0118
:102AD00000E00087FD0100E0078320E08D010E94F7
:102AE000320C8D01E4E00C94F7430E94E643D801D8
:102AF000C9010A2F0B2BB1F008EB13E0FD01018394
:102B0000128322E030E08D01075F1F4F0E943442A4
:102B100020E030E08D010E94C11180FB1EF48D0188
:102B20000E940043E4E00C94F743BA93AA93D801BF
:102B30001596ED91FC9116970995002311F001E08F
:102B400001C000E0A991B99108950E94E643D8011F
:102B5000822F8D01FD0121813281F901329625916B
:102B600034913397F9010995FD010781081741F464
:102B7000FD0100E00783FD0100E0008701E001C0E6
:102B800000E0E4E00C94F743BA93AA93D8018D01D6
:102B90000E94350C005089F00A95C1F00A9541F168
:102BA0000A9509F44EC00A9509F474C00A9509F40F
:102BB0009AC0025009F4BCC0C3C0FD010085FD01EC
:102BC000078321E08D010E94320CBAC08D01ADDF78
:102BD000002369F08D010E94A31698018D01075F03
:102BE0001F4F0E94424222E08D010E94320CA8C079
:102BF0008D019BDF0023E1F08D01075F1F4F0E94D5
:102C000051420023E9F08D010E94A71698018D0121
:102C1000075F1F4F0E944242FD0102E00087FD0155
:102C20000085FD01078323E08D010E94320C88C0DE
:102C3000FD010085FD01078320E08D010E94320C1B
:102C40007FC08D0172DF0023E1F08D01075F1F4F10
:102C50000E9451420023E9F08D010E94AB169801B9
:102C60008D01075F1F4F0E944242FD0103E0008774
:102C7000FD010085FD01078324E08D010E94320CD7
:102C80005FC0FD010085FD01078320E08D010E94EA
:102C9000320C56C08D0149DF0023E1F08D01075F42
:102CA0001F4F0E9451420023E9F08D010E94AF1690
:102CB00098018D01075F1F4F0E944242FD0104E011
:102CC0000087FD010085FD01078327E08D010E943B
:102CD000320C36C0FD010085FD01078320E08D0127
:102CE0000E94320C2DC08D0120DF0023E1F08D0108
:102CF000075F1F4F0E945142002311F18D010E9476
:102D0000B31698018D01075F1F4F0E944242FD01DB
:102D100005E00087FD010085FD01078327E08D01A7
:102D20000E94320C0DC020E08D010E94320C08C0C0
:102D30008D01FBDE002321F420E08D010E94320C86
:102D4000A991B9910895980104E610E008959801B9
:102D50000CED15E00895980108EB1BE0089598012B
:102D600008E813E10895980102E310E00895F801DE
:102D700000810895F80104810895009162000460C3
:102D8000009362000895009162000F7D009362003D
:102D90000895000008959A938A93C8010E943F12F3
:102DA0008991999108950E94E743C8010E945E129B
:102DB000A0E0A03338F402E014E020E00E94622F8B
:102DC000A395F7CFA0E0A03308F058C0EA2FF0E0B9
:102DD000EE52FC4F049110E048E050E00E9408439E
:102DE00098018C01020F131F0E94B7160023F9F1FE
:102DF000EA2FF0E0EE52FC4F049110E048E050E082
:102E00000E94084398018C01020F131F0E94BA16FA
:102E1000015049F00A9569F00A9589F00350A9F02C
:102E20000A95C9F01EC00BE014E020E00E947F2F3D
:102E300023C001E114E020E00E947F2F1DC008E0C4
:102E400014E020E00E947F2F17C00EE014E020E085
:102E50000E947F2F11C004E114E020E00E947F2F28
:102E60000BC005E014E020E00E947F2F05C005E0C4
:102E700014E020E00E947F2FA395A5CF0E94BD16ED
:102E80000E94C9160E940B120E94C316E3E00C9424
:102E9000F843BA93AA93D8018D010E94A01107E1CB
:102EA00014E0FD01018312838D010B5F1F4F0E940F
:102EB00019428D01A991B9910895BA93AA93D801A5
:102EC0008D01E7DF01E314E0FD010183128320E0BF
:102ED0008D010E94431821E08D010E94320C8D016A
:102EE000A991B99108950E94E643D801C9010A2F1A
:102EF0000B2BB1F007E114E0FD010183128322E006
:102F000030E08D010B5F1F4F0E94344220E030E023
:102F10008D010E94C11180FB1EF48D010E940043AF
:102F2000E4E00C94F7430E94E643C801D901082F5E
:102F3000092B49F020E030E08C01D5DFA0FB1EF426
:102F40008C010E940043E4E00C94F7430E94E643A6
:102F5000C8018C010E94350C005051F00A9549F0CF
:102F60000A9539F10A95F9F10A9509F45EC088C00D
:102F700087C00E947E380023B9F00E948E3800235B
:102F800071F00E948638D8018C010E9449189D0179
:102F90000E94424223E08C010E94320C71C022E068
:102FA0008C010E94320C6CC020E08C010E94320C1B
:102FB00067C08C010E9446180130A1F420E08C010A
:102FC0000E94431801E00E9497380E948638D80179
:102FD0008C010E9449189D010E94424223E08C010D
:102FE0000E94320C4DC08C010E944618013071F4D1
:102FF00020E08C010E9443180E948638D8018C0181
:103000000E9449189D010E9442423AC08C010E94D0
:1030100049180E945142002399F105E00E94BB0D1E
:1030200024E08C010E94320C2BC08C010E944618B7
:10303000015019F00A95B1F023C020E08C010E94E4
:10304000431802E10E944C180E948638D8018C0176
:103050000E9449189D010E94424223E08C010E9477
:10306000320C0EC020E08C010E94431800E00E9448
:10307000973802E10E944C1822E08C010E94320C29
:10308000E4E00C94F743F80124830895F8010481E7
:1030900008950B5F1F4F089500939A0B089500E069
:1030A0000E944C180E947540FDCFBA93AA93D80194
:1030B0008D010E94A0110BE414E0FD010183128335
:1030C0008D01A991B99108950E94E643C801D901E3
:1030D000082F092B51F020E030E08C010E94C11133
:1030E000A0FB1EF48C010E940043E4E00C94F74323
:1030F000F801258308959A938A93C8018C010E9450
:10310000350C002311F401E001C000E08991999190
:1031100008950E94E4432801C901DA01AD019C0130
:103120008201F20161817281FB0136966591749191
:103130003797FB010995D801AD019C018201F2018D
:1031400061817281FB013C96659174913D97FB0111
:103150000995E6E00C94F5430E94E143D801722EF4
:10316000632E842ECB01AC01362D3068272D8D01C6
:10317000FD0161817281FB013A96659174913B97E3
:10318000FB0109952801FC01E40DF51D808201E099
:10319000400E00E0501E8201E9E00C94F2430E94D0
:1031A000E04328010A012A843B848C859D8550E0F8
:1031B0006624A0E0B0E0A015B105F0F44901940147
:1031C0002F5F3F4FFB01E80DF91D0081002331F017
:1031D00001E010E0462D0E941243502B07E06016DC
:1031E00041F4F101E80FF91F5083019650E0662485
:1031F00001C063941196DFCF662029F0F101E80F3A
:10320000F91F508301968C01EEE00C94F1430E946B
:10321000DA43280159014A01CB018201F2012181DF
:103220003281F9013E96259134913F97F901099534
:103230003801F501E60DF71D3197F080F501E60D37
:10324000F71DE080F501E60DF71DD180CC24F501D6
:10325000E60DF71D028110E0C02AD12AF501E60D26
:10326000F71DB381A0E0F501E60DF71D048110E024
:10327000A02BB12B0A2F0B2B21F0A13D07E0B007AB
:1032800040F0B40143E03E2D2F2D820165DFC801DF
:1032900044C0F201028D138D96012A0F3B1F0217C5
:1032A000130740F4B40142E03E2D2F2D820154DF7C
:1032B000C80133C0A4013E2D2F2D8201F20161818E
:1032C0007281FB013A96659174913B97FB010995D8
:1032D000C8010A2F0770002359F043E08D010E94B6
:1032E00017430395F401E80FF91F0083019609C005
:1032F00043E08D010E941743F401E80FF91F00839A
:1033000001969A938A939A928A92F20162897389BA
:10331000AD019601820143DFC8018C01E0E10C940C
:10332000EB430E94DA43280159014A01CB01820193
:10333000F20121813281F9013E96259134913F9726
:10334000F90109953801F501E60DF71D3197F08077
:10335000F501E60DF71DE080F501E60DF71DD180C2
:10336000CC24F501E60DF71D028110E0C02AD12A18
:10337000F501E60DF71DB381A0E0F501E60DF71D9F
:10338000048110E0A02BB12B0A2F0B2B21F0A13DC3
:1033900007E0B00740F0B40143E03E2D2F2D82013D
:1033A000DBDEC80144C0F201048D158D96012A0FA1
:1033B0003B1F0217130740F4B40142E03E2D2F2DAE
:1033C0008201CADEC80133C0A4013E2D2F2D820127
:1033D000F20161817281FB013A96659174913B978C
:1033E000FB010995C8010A2F0770002359F043E03B
:1033F0008D010E9417430395F401E80FF91F008324
:10340000019609C043E08D010E941743F401E80FC3
:10341000F91F008301969A938A939A928A92F201F5
:1034200064897589AD0196018201B9DEC8018C01FC
:10343000E0E10C94EB430E94DA43280169014A0160
:10344000CB018201F20121813281F9013E96259161
:1034500034913F97F90109955801F601EA0DFB1DDA
:103460003197F080F601EA0DFB1DE080F601EA0DD0
:10347000FB1DB181A0E0F601EA0DFB1D028110E009
:10348000A02BB12BF601EA0DFB1D73806624F6011B
:10349000EA0DFB1D048110E0602A712A062D072920
:1034A00029F00EE7601600E0700640F0B40143E03A
:1034B0003E2D2F2D820150DEC80152C0F201068D33
:1034C000178D9D01260D371D0217130740F4B40117
:1034D00042E03E2D2F2D82013FDEC80141C0A401F4
:1034E0003E2D2F2D8201F20161817281FB013A96FE
:1034F000659174913B97FB010995C801062D000F5A
:10350000F401E80FF91F0083019600E010E00615B2
:10351000170530F5F201468957899D01220F331FA7
:10352000420F531FFA0120813181232F30E0F40133
:10353000E80FF91F20830196F201468957899D0102
:10354000220F331F420F531FFA0120813181F401F2
:10355000E80FF91F2083019611960F5F1F4FD7CFF9
:103560008C01E0E10C94EB430E94DA4328016901ED
:103570004A01CB018201F20121813281F9013E969B
:10358000259134913F97F90109955801F601EA0D0B
:10359000FB1D3197F080F601EA0DFB1DE080F6017E
:1035A000EA0DFB1DB181A0E0F601EA0DFB1D0281D1
:1035B00010E0A02BB12BF601EA0DFB1D73806624F1
:1035C000F601EA0DFB1D048110E0602A712A062D28
:1035D000072929F00EE7601600E0700640F0B401FC
:1035E00043E03E2D2F2D8201B7DDC80152C0F2010C
:1035F00000A111A19D01260D371D0217130740F4EC
:10360000B40142E03E2D2F2D8201A6DDC80141C04C
:10361000A4013E2D2F2D8201F20161817281FB01F7
:103620003A96659174913B97FB010995C801062D67
:10363000000FF401E80FF91F0083019600E010E08D
:103640000615170530F5F201408D518D9D01220FB1
:10365000331F420F531FFA0120813181232F30E0A5
:10366000F401E80FF91F20830196F201408D518D7E
:103670009D01220F331F420F531FFA012081318118
:10368000F401E80FF91F2083019611960F5F1F4F79
:10369000D7CF8C01E0E10C94EB430E94DA43580150
:1036A00029016A01CB018501F50121813281F901EE
:1036B0003E96259134913F97F90109953801F20121
:1036C000E60DF71D3197F080F201E60DF71DE08061
:1036D000F201E60DF71D91808824F201E60DF71D39
:1036E000028110E0802A912AF501028D138D801647
:1036F000910640F0B60142E03E2D2F2D85012CDDD4
:10370000C8012EC0F201E60DF71DB381A0E0F20161
:10371000E60DF71D048110E0A02BB12BA0300FEFB8
:10372000B00751F4940101E00E947038AC0192019D
:1037300086010E94024414C00A2F0B2B51F49401FD
:1037400000E00E947038AC01920186010E940244A0
:1037500007C0B60143E03E2D2F2D8501FDDCC801D9
:103760008C01E0E10C94EB430E94DC432801C90189
:103770005A014B018201F20121813281F9013E9609
:10378000259134913F97F9010995D801FC01EA0F81
:10379000FB1F3197D080FC01EA0FFB1FC080FC01AA
:1037A000EA0FFB1F71806624FC01EA0FFB1F0281F8
:1037B00010E0602A712AF201068D178D60167106DD
:1037C00040F0B50142E03C2D2D2D8201C5DC4801C1
:1037D0001CC0FC01EA0FFB1F538140E0FC01EA0F13
:1037E000FB1F048110E0402B512BF2012689378901
:1037F0008301000F111F200F311FF90140835183F6
:10380000A4019C0185010E9402448401EEE00C9415
:10381000ED430E94DA43280139016A01CB0182019C
:10382000F20121813281F9013E96259134913F9731
:10383000F90109954801F301E80DF91D3197F08070
:10384000F301E80DF91DE080F301E80DF91DB180E9
:10385000AA24F301E80DF91D028110E0A02AB12A83
:10386000F301E80DF91DB381A0E0F301E80DF91DA6
:10387000048110E0A02BB12B0A2F0B2B21F0A13BD0
:1038800007E0B00740F0B60143E03E2D2F2D820146
:1038900063DCC80134C0F201028D138D95012A0F3B
:1038A0003B1F0217130740F4B60142E03E2D2F2DB7
:1038B000820152DCC80123C0A5019D018301080DCE
:1038C000191D0A5F1F4F0E943738A6013E2D2F2D6C
:1038D0008201F20161817281FB013A9665917491D6
:1038E0003B97FB010995C80144E050E09301280F84
:1038F000391F8601080F191F0E94024404968C018B
:10390000E0E10C94EB430E94DA43480129016A018B
:103910003B018401F40121813281F9013E96259118
:1039200034913F97F9010995C801F201E80FF91F99
:103930003197F080F201E80FF91FE080F201E80F03
:10394000F91FB181A0E0F201E80FF91F028110E038
:10395000A02BB12BF201E80FF91FB380AA24F201CA
:10396000E80FF91F048110E0A02AB12A0A2D0B29C3
:1039700029F00CE7A01600E0B00640F0B60143E0E5
:103980003E2D2F2D8401E8DB38014FC0F401068D58
:10399000178D9D012A0D3B1D0217130740F4B60138
:1039A00042E03E2D2F2D8401D7DB38013EC020E0C0
:1039B00030E02A153B05E0F4F201E80FF91F5681CB
:1039C00040E0F201E80FF91F078110E0402B512B76
:1039D000F401668977898D01000F111F600F711F37
:1039E000FB0140835183119602962F5F3F4FE1CF39
:1039F000A6013E2D2F2D8401F40161817281FB010E
:103A00003A96659174913B97FB010995380144E022
:103A100050E09201260D371D8601060D171D0E94EC
:103A2000024404E0600E00E0701E8301E0E10C94AB
:103A3000EB4308010FEF1FEF0895080100E010E0CD
:103A400008950E94DE4328014901DA01CB01820179
:103A5000F20121813281F9013E96259134913F97FF
:103A6000F90109953801F401E60DF71D3197B08091
:103A7000F401E60DF71DA080AD013A2D2B2D82013A
:103A8000F20161817281FB013A96659174913B97D5
:103A9000FB010995C801FD01E80FF91F03E0008350
:103AA0000196FD01E80FF91F00E200830196FD0178
:103AB000E80FF91F07E000830196FD01E80FF91FE9
:103AC00002E3008301968C01ECE00C94EF430E942A
:103AD000DA4338014901DA01CB018301F301218185
:103AE0003281F9013E96259134913F97F90109956C
:103AF0002801F401E40DF51D3197B080F401E40DC7
:103B0000F51DA080F401E40DF51DE280FF248C0179
:103B100006501040E016F10641F0BD0142E03A2D9A
:103B20002B2D830119DBC8012CC1AD013A2D2B2DA2
:103B30008301F30161817281FB013A966591749171
:103B40003B97FB010995C801F401E40DF51D0381C4
:103B5000005049F00A9579F10A9509F49DC00A953B
:103B600009F4E0C007C1FD01E80FF91F00E0008380
:103B70000196FD01E80FF91F04E000830196F401AE
:103B8000E40DF51D0381FD01E80FF91F0083019687
:103B9000FD01E80FF91F02E000830196FD01E80F27
:103BA000F91F00E000830196FD01E80FF91F02E014
:103BB00000830196E6C0F401E40DF51D0481C02EDA
:103BC0000E94B90D0C1540F4BD0142E03A2D2B2D99
:103BD0008301C2DAC801D5C0CC20B9F52C2D8D01E6
:103BE000040D151D0B5F1F4F0E94360E2091C90C4E
:103BF000FD01E40DF51D25832091C80CFD01E40DA8
:103C0000F51D2683FD01E40DF51D20E32783FD014D
:103C1000E80FF91F20E020830196202F2E5FFD0181
:103C2000E80FF91F20830196F401E40DF51D2381AF
:103C3000FD01E80FF91F20830196FD01E80FF91F30
:103C4000C0820196800F911F9CC02C2D8D01040D08
:103C5000151D0B5F1F4F0E94360E9801FD01E80FE6
:103C6000F91F00E000830196022F0E5FFD01E80FAF
:103C7000F91F00830196F401E40DF51D0381FD0198
:103C8000E80FF91F00830196FD01E80FF91FC082BC
:103C90000196820F931F75C0F401E40DF51D048198
:103CA000C02E0E94B90D0C1540F4BD0142E03A2D22
:103CB0002B2D830151DAC80164C00C2D0E94420EE5
:103CC0009801F401E40DF51D028110E0025010404E
:103CD0000217130741F0BD0143E03A2D2B2D83015C
:103CE0003BDAC8014EC02C2D8401040D151D0B5F5D
:103CF0001F4F0E94520E012B69F00E94100E03E12B
:103D00000E944C18BD0145E03A2D2B2D830124DA89
:103D1000C80137C0BD0147E03A2D2B2D83011CDAC5
:103D2000C8012FC00E94B60D033081F4AD013A2DB9
:103D30002B2D8301F30161817281FB013A9665911C
:103D400074913B97FB010995C8011BC00E94B60DF9
:103D5000013041F4BD0146E03A2D2B2D8301FCD901
:103D6000C8010FC0BD0141E03A2D2B2D8301F4D9CC
:103D7000C80107C0BD0141E03A2D2B2D8301ECD9CC
:103D8000C8018C01E0E10C94EB430E94DE43D801B2
:103D900049012A01CB018D01FD0121813281F90107
:103DA0003E96259134913F97F90109953801F40128
:103DB000E60DF71D3197B080F401E60DF71DA080E8
:103DC0000E94B60D033081F4A2013A2D2B2D8D01F6
:103DD000FD0161817281FB013A96659174913B9777
:103DE000FB010995C80113C00E94B60D013041F4D2
:103DF000B20146E03A2D2B2D8D01AED9C80107C086
:103E0000B20141E03A2D2B2D8D01A6D9C8018C01BC
:103E1000ECE00C94EF430E94DB43D80129013A0106
:103E20005B018D01FD0121813281F9013E962591D1
:103E300034913F97F90109954801F201E80DF91D08
:103E40003197C080F201E80DF91DE080C501DC2C3E
:103E5000DD0CDD08FD01058110E0C016D10629F05A
:103E6000CC2019F000E010E070C00E2D102F110FC3
:103E7000110BEAE2F0E0FBBFF9E00C949D43BC01BA
:103E8000A30192018D01C3D9C8015BC0BC01A3018C
:103E900092018D0146DAC80154C0BC01A301920110
:103EA0008D01C9DAC8014DC0BC01A30192018D0189
:103EB0005BDBC80146C0BC01A30192018D01EDDBB3
:103EC000C8013FC0BC01A30192018D014DDCC801B6
:103ED00038C0BC01A30192018D01ABDDC80131C026
:103EE000BC01A30192018D0194DCC8012AC0BC0170
:103EF000A30192018D0149DFC80123C0BC01A301C8
:103F000092018D0100DDC8011CC0BC01A30192011A
:103F10008D0197DDC80115C0BC01A30192018D017F
:103F20008CDDC8010EC0BC01A30192018D01CFDD63
:103F3000C80107C0B30141E03E2D2C2D8D010CD9E5
:103F4000C801FD01848795878C01EFE00C94EC4358
:103F5000B80101E010E008950E94DE43D801290174
:103F60003A018D01FD0121813281F9013E962591B1
:103F700034913F97F9010995C801F201E80FF91F43
:103F800031979080F201E80FF91F80805301FD0105
:103F90000681091591F4FD010781081571F402E00D
:103FA000801641F4A5019201280F391F2E5F3F4F63
:103FB0008D01CEDF01E010E02DC08D01FD012181DA
:103FC0003281F9017096259134917197F901099523
:103FD00098018C01020F131F0E5F1F4FA016B10630
:103FE00031F487FA16F401E003C000E001C000E0FC
:103FF000002371F0F201E80FF91F21812C302CF41D
:10400000022F102F110F110B05C00EE010E002C09F
:1040100001E010E0ECE00C94EF43980101E010E0C7
:104020000895980102E010E008950E94E443C80159
:10403000D9010A2F0B2B11F401E001C000E000238D
:1040400079F00BEA402E04E0502EDC011F96FC01B3
:10405000A587B6878C01015F1F4F0E94551806C0C7
:10406000FC0143845484FC01A587B68703E714E070
:10407000FC0103871487F201059114913197FD012A
:10408000018312838C01E6E00C94F5430E94E64321
:10409000C801D901082F092B79F00A2F0B2B39F011
:1040A00020E030E08C01015F1F4F0E946418A0FBEC
:1040B0001EF48C010E940043E4E00C94F7430F507F
:1040C0001040E4CF0E94DA43229728833983D80135
:1040D0002A013B018D889E888F89988DED8CFE8CFE
:1040E000CF8CD8A0A9A0BAA0088119810D931C93E8
:1040F0001197FD0142825382648275820A89FD0113
:1041000000870B89FD0106830C89FD010783FD01F2
:1041100005851685F80186869786FD010585168535
:10412000F801808B918B298D3A8DFD0105851685CF
:10413000F801228B338B2B8D3C8DFD010585168577
:10414000F801248B358BFD0105851685F801E68A7B
:10415000F78AFD0105851685F801C08ED18EFD0117
:1041600005851685F801A28EB38E2BA13CA1FD0119
:1041700005851685F801248F358F2DA13EA1FD01FF
:1041800005851685F801268F378F2FA138A5FD01EB
:1041900005851685F80120A331A3FD0142815381D5
:1041A0006481758100E412E42FE030E00E947843DE
:1041B00040E250E060E070E00E944A4308011901CB
:1041C00048EE53E060E070E0800191010E94784386
:1041D0000F5F1F4FFD0101871287FD0105851685C1
:1041E000F801428D538D20E030E0FD0105851685F4
:1041F000F801028913890E941244FD010585168584
:10420000F801448D558D20E030E0FD0105851685CF
:10421000F801048915890E941244FD01058516855F
:10422000F80140A151A1440F551F20E030E0FD01ED
:1042300005851685F801008D118D0E9412449A9310
:104240008A939A928A92FD0107810A93FD01368131
:10425000FD012085FD0142815381648175810D91AD
:104260001C9111970E9406302296E7E20C94EB43D2
:10427000BA93AA93D8010D911C9111970E943B30DB
:10428000A991B9910895BA93AA93D8010D911C915F
:1042900011970E944A30A991B9910895BA93AA93AF
:1042A000D8010D911C9111970E945B30A991B99191
:1042B0000895BA93AA93D8010D911C9111970E9469
:1042C0008930A991B9910895BA93AA93D8010D9113
:1042D0001C9111970E94A430A991B99108950E9450
:1042E000E4432801D901CA019C018D010E94440DBB
:1042F0009801022FFD01E80FF91F00830196890143
:10430000012F10E0FD01E80FF91F008301968C01D9
:10431000E6E00C94F5430F501040E1CF1D01080179
:10432000E881F981208331838A01012F10E0028323
:10433000042F03838B01012F10E00483062F0583D4
:1043400006E010E0D101229608950F501040E6CF0C
:10435000B801FA012083FA01318302E010E00895E8
:104360000F501040F5CF0E94E443D8012901CA0143
:10437000AC0192010D911C9111970E94B830E6E0BA
:104380000C94F5430F501040EECFBA93AA93D80186
:104390000D911C9111970E94D324A991B991089570
:1043A000BA93AA93D8010D911C9111970E94D02421
:1043B000A991B99108950E94E443D8012901CA0145
:1043C000AC0192010D911C9111970E94C030E6E062
:1043D0000C94F5430E94E643D801C9010E94D624FB
:1043E000FD0125853685F90122853385021B130BD6
:1043F0000817190710F001E001C000E0E4E00C9498
:10440000F743BA93AA93D8010E94D624FD012585CB
:104410003685F90102871387A991B99108950E9401
:10442000E0434801D901CA01843000E0900710F44C
:1044300000E021C0FD01E80FF91F319750804424AE
:10444000FD01E80FF91F3297008110E0402A512A40
:104450009C01225030408D010E94440D38019C0186
:10446000225030408D010E94440D0415150511F4B1
:1044700001E001C000E0EAE00C94F1430E94E64351
:10448000D80100911B09063431F400911F090A304C
:1044900011F480E090E0FD01058516850E94350C41
:1044A000EEE5F0E0FBBFF9E00C949D438D01E0DE0A
:1044B0008D01E9DE23E0FD01058516850E94320CA1
:1044C00059C28D019EDFFD0105851685F80100E0CA
:1044D000048700E0058724E0FD01058516850E941C
:1044E000320C48C28D015CDF0023F1F140E051E065
:1044F000FD0105851685F80104851585401B510BC6
:10450000FD0105851685F80126853785FD010585A0
:104510001685F80104851585200F311F8D014BDFAD
:10452000C801813000E090079CF0FD0105851685EB
:10453000F80104851585080F191F048715878D015B
:1045400060DF25E0FD01058516850E94320C0CC058
:104550008F3F0FEF900741F48D018ADE23E0FD01CC
:10456000058516850E94320C28E93AE38D0132DF79
:10457000002341F08D017CDE23E0FD0105851685D9
:104580000E94320CF7C18D010BDF0023C1F140E026
:1045900051E0FD0105851685F80104851585401B50
:1045A000510BFD0105851685F80126853785FD012E
:1045B00005851685F80104851585200F311F8D01AD
:1045C000FADEC801813000E090076CF0FD0105853E
:1045D0001685F80104851585080F191F04871587AE
:1045E0008D010FDF0CC08F3F0FEF900741F48D015D
:1045F0003FDE23E0FD01058516850E94320CFD019A
:10460000218532858D01E6DE0023F9F0FD01058567
:104610001685F80144855585FD0105851685F80147
:10462000268537858D01FBDE002339F026E0FD016C
:10463000058516850E94320C9DC18D0119DE23E08F
:10464000FD01058516850E94320C94C1FD0105858A
:104650001685F80164857585FD0105851685F801C7
:1046600040895189FD0105851685F8012685378524
:10467000FD01058516850E940B1F012B49F00E9444
:10468000DB2427E0FD01058516850E94320C72C1EE
:104690000E94DD248D01ECDD23E0FD0105851685FA
:1046A0000E94320C67C18D01ACDE8D01E1DD28E096
:1046B000FD01058516850E94320C5CC124E630E0C0
:1046C0008D0188DE0023C9F0FD0105851685F801FE
:1046D00044855585FD0105851685F80120893189B8
:1046E000FD01058516850E9489188D01E2DD29E00E
:1046F000FD01058516850E94320C3CC18D0145DE09
:10470000002341F00E94DD2423E0FD01058516858C
:104710000E94320C2FC18D01C1DD20E0FD01058515
:1047200016850E94320C26C18D016BDE8D01A0DD45
:10473000FD0105851685F80100E0048700E0058786
:104740008D01A1DD2DE0FD01058516850E94320C4D
:1047500011C18D0125DE0023E1F140E051E0FD01B2
:1047600005851685F80104851585401B510BFD0153
:1047700005851685F80126853785FD010585168591
:10478000F80104851585200F311F8D0114DEC80145
:10479000813000E090079CF08D0133DEFD0105853E
:1047A0001685F80104851585080F191F04871587DC
:1047B0002EE0FD01058516850E94320C0AC08F3F50
:1047C0000FEF900731F423E1FD01058516850E9466
:1047D000320C28EE33E08D01FDDD002331F023E1C2
:1047E000FD01058516850E94320CC4C08D01D8DDFF
:1047F0000023B1F140E051E0FD0105851685F80187
:1048000004851585401B510BFD0105851685F801B2
:1048100026853785FD0105851685F80104851585F2
:10482000200F311F8D01C7DDC801813000E09007E6
:104830006CF08D01E6DDFD0105851685F801048526
:104840001585080F191F048715870AC08F3F0FEFC2
:10485000900731F423E1FD01058516850E94320C95
:10486000FD01218532858D01B5DD0023E9F0FD01D3
:1048700005851685F80144855585FD010585168554
:10488000F801268537858D01CADD002339F02FE038
:10489000FD01058516850E94320C6CC023E1FD01E7
:1048A000058516850E94320C65C0FD0105851685BB
:1048B000F80144855585FD0105851685F801268595
:1048C0003785FD01058516850E94AC1F012B39F047
:1048D00023E1FD01058516850E94320C4BC023E1C2
:1048E000FD01058516850E94320C44C08D0189DDCD
:1048F0008D01BEDC0E94DB2421E1FD0105851685CA
:104900000E94320C37C024E630E08D0163DD0023C5
:1049100089F1FD0105851685F80144855585FD0160
:1049200005851685F80120893189FD0105851685E3
:104930000E9489188D01BDDC22E1FD0105851685E7
:104940000E94320C17C08D0120DD002399F08D01EB
:10495000BBDC0E94DD242CE0FD01058516850E944C
:10496000320C08C08D019ADC20E0FD01058516851A
:104970000E94320CE4E00C94F7430F5010407ECDBF
:10498000980101E010E008950F5010400C94C024ED
:10499000980102E010E008950F5010400C94C824D4
:1049A000F80102A50895F80103A50895EDE7F8E0E0
:1049B000008111810895DB980895DB9A08950E9483
:1049C000E643D801822F8D01055F1F4F0E94A01181
:1049D00003EC14E0FD010187128709EC14E0FD01EE
:1049E000048715878C9320E08D01055F1F4F0E947F
:1049F000320C8D01E4E00C94F7430E94E643C801B9
:104A0000D901082F092B61F020E030E08C01055F0F
:104A10001F4F0E94C111A0FB1EF48C010E94004395
:104A2000E4E00C94F7430B501040E7CF1D01D80190
:104A3000F9010081FD01008BF90101811281FD0165
:104A4000018B128BF90103811481FD01038B148BFF
:104A5000F90105811681FD0105831683F90107819E
:104A60001085FD01058B168BF90103891489FD0161
:104A7000038F148FF90105851685FD01078B108FB3
:104A8000F90140895189F901028910E0000F111FD5
:104A9000400F511FFD01418F528FF9010289085FBC
:104AA000028BF90163897489F901058910E048E1F5
:104AB00050E00E940843600F711FFD01638F748FE7
:104AC000F9010589085F058BF901068917890F5FD0
:104AD0001F4FFD0107831087FD0100E0058FD10105
:104AE00008950E94E443D801FD01038914890E5FF3
:104AF0001F4FC80100E0083078F4FD01238D348D8C
:104B000010E0200F311FF901208110E0FC01E00FBF
:104B1000F11F20830395EFCF28E030E08C010E9445
:104B2000640D2801FD0103891489065F1F4FC80128
:104B3000042DFC01008301968201012F10E0FC018D
:104B40000083FD0103891489F80101E80083FD0158
:104B500000890E9437360AE613E001501040E9F759
:104B600000C000004DE050E0FD0123893489FD01C3
:104B7000018912890E9412330E945C36FD0101896D
:104B80001289F8010181013849F4FD010189128976
:104B9000F80104850E3711F401E001C000E0E6E001
:104BA0000C94F5430E94E043D801992420E028307A
:104BB00020F5FD01038D148D30E0020F131FF80165
:104BC00000850F3FC1F0FD0105891689FD01438D68
:104BD000548D30E0420F531FFA01408550E0040F1E
:104BE000151FF8010081002331F001E010E0422F91
:104BF0000E941243902A2395DACF882420E028309F
:104C000020F5FD01038D148D30E0020F131FF80114
:104C100000890F3FC1F0FD0105891689FD01438D13
:104C2000548D30E0420F531FFA01408950E0040FC9
:104C3000151FF8010081002331F001E010E0422F40
:104C40000E941243802A2395DACF5524FD01038167
:104C5000002329F0FD0100E00383689450F8FD0172
:104C60000481002329F0FD0100E00483689451F8D9
:104C7000FD010181002329F0FD0100E0018368941A
:104C800052F8FD010281002329F0FD0100E00283BA
:104C9000689453F8FD0103891489F80102E4008344
:104CA000FD01038914890E5F1F4FC801442420E0D1
:104CB0002830A8F4FD01018D128D422F50E0440FE1
:104CC000551F040F151FF8010181002331F001E089
:104CD00010E0422F0E941243402A2395E9CFFC01A5
:104CE00040820196442420E02830A8F4FD01018D83
:104CF000128D422F50E0440F551F040F151FF8016D
:104D00000081002331F001E010E0422F0E941243A5
:104D1000402A2395E9CFFC0140820196FC01908254
:104D20000196FC0180820196FC015082019625E0EB
:104D300030E0FD01038914890E5F1F4F0E94640D4E
:104D40003801062DFC01008301968301012F10E03C
:104D5000FC0100830196FC010EE700830196FD0132
:104D600000890E9437360AE613E001501040E9F747
:104D700000C000004AE050E0FD0123893489FD01B4
:104D8000018912890E9412330E945C36FD0101895B
:104D90001289F8010181045209F447C00E5109F04B
:104DA0004EC025E030E0FD01018912890E5F1F4FE2
:104DB0000E94720D01301040BCF1FD010189128981
:104DC000F80101850E37D9F5FD0100E0058F20E0DF
:104DD0008D010E945527FD0101891289F801028188
:104DE000402E20E02830F0F401E010E0422F0E9435
:104DF0001243142D1023112351F0FD010789108D4A
:104E000030E0020F131FF80101E0008309C0FD012B
:104E10000789108D30E0020F131FF80100E00083B6
:104E20002395E0CF01E020C00AC0FD01058D0431CB
:104E300030F420E08D01055F1F4F0E94320CFD0110
:104E4000058D043130F4FD01058D0395058F00E0DB
:104E50000BC0FD0105811681F80102E0008321E00D
:104E60008D010E94552700E0EAE00C94F1430E9476
:104E7000E743C8018C01055F1F4F0E94350C0050AD
:104E800019F00A9559F00DC08C012BDEA02F21E0FE
:104E90008C01055F1F4F0E94320C03C08C0182DE23
:104EA000A02F0A2FE3E00C94F843AD01F801A7818D
:104EB000B0852C93DA0108950E94E643D801822F31
:104EC0008D01055F1F4F0E94A01103EE14E0FD014C
:104ED0000187128709EE14E0FD01048715878C9382
:104EE0008D01E4E00C94F7430E94E643C801D90128
:104EF000082F092B61F020E030E08C01055F1F4F87
:104F00000E94C111A0FB1EF48C010E940043E4E04A
:104F10000C94F7430B501040E7CFBD01D801F901C5
:104F20000081FD01008BF90101811281FD01018BDE
:104F3000128BF90103811481FD01038B148BF9019C
:104F400005811681FD0105831683F901478150858E
:104F5000F901018510E0400F511FFD01458B568B73
:104F6000F9010185085E0187F90142855385F90140
:104F7000048510E0400F511FFD01478B508FF90150
:104F80000485085E0487F90106891789FD010783F6
:104F90001087FD0100E0018FDB0108950E94E443CA
:104FA000C801DC015396ED91FC91549702E4008313
:104FB000FC0100890E9437360AE613E001501040D8
:104FC000E9F700C0000049E050E0FC012389348982
:104FD000FC01018912890E9412330E945C36FC0197
:104FE00045885688FC01A789B08DFC01018912898A
:104FF000F8010181045279F10E51A9F527E030E062
:10500000FC01018912890F5F1F4F0E94960D01302C
:1050100010408CF1FC0100E0018F20E08C010E9427
:10502000552720E02630A8F4FC010189128930E0E0
:10503000020F131FF801328100E0043040F4132FF7
:105040001370369536951C9311960395F6CF2395DC
:10505000E9CF01E02DC000E0083168F414E01C93B2
:1050600011960395F9CF00E0083128F414E01C9361
:1050700011960395F9CFFC01018D043130F4FC0148
:10508000018D0395018F00E013C000E0083128F482
:1050900014E01C9311960395F9CFFC01058116814C
:1050A000F80101E0008321E08C010E94552700E017
:1050B000E6E00C94F543F80123830895BA93AA938C
:1050C000D8018D010E94A0110DEE14E0FD010183B5
:1050D00012838D010A5F1F4F0E94194225E28D0144
:1050E0000E94320C25E28D010E945B288D01A9915E
:1050F000B9910895BA93AA93D8018D01DFDF01E138
:1051000015E0FD010183128325E28D010E94320C1E
:1051100025E28D010E945B288D01A991B991089526
:10512000BA93AA93D8018D01C9DF05E315E0FD010B
:105130000183128325E28D010E94320C25E28D014C
:105140000E945B288D01A991B9910895BA93AA9301
:10515000D8018D01B3DF03E915E0FD01018312835E
:1051600028E18D010E94320C28E18D010E945B280C
:105170008D01A991B9910895BA93AA93D8018D018F
:105180009DDF07EB15E0FD010183128325E28D0110
:105190000E94320C25E28D010E945B288D01A991AD
:1051A000B9910895BA93AA93D8018D0187DF09E5D3
:1051B00015E0FD010183128325E28D010E94320C6E
:1051C00025E28D010E945B288D01A991B991089576
:1051D0000E94E643D801C9010A2F0B2BB1F00DEE56
:1051E00014E0FD010183128322E030E08D010A5FAB
:1051F0001F4F0E94344220E030E08D010E94C11117
:1052000080FB1EF48D010E940043E4E00C94F74300
:10521000BA93AA93D8018D010E94350CECE8F0E016
:10522000FBBFF9E00C949D438D011196ED91FC912B
:1052300012977096259134917197F901099598010B
:105240008D010A5F1F4F0E9442428D011196ED9120
:10525000FC9112973496259134913597F90109956F
:1052600029E18D010E94320C6AC28D010A5F1F4F35
:105270000E945142002301F18D011196ED91FC91A4
:1052800012977296259134917397F90109959801B7
:105290008D010A5F1F4F0E9442428D011196ED91D0
:1052A000FC9112973C96259134913D97F90109950F
:1052B0002AE18D010E94320C42C28D010A5F1F4F0C
:1052C0000E945142002301F18D011196ED91FC9154
:1052D00012977096259134917197F901099598016B
:1052E0008D010A5F1F4F0E9442428D011196ED9180
:1052F000FC9112973496259134913597F9010995CF
:1053000029E18D010E94320C1AC28D011196ED9196
:10531000FC9112977096259134917197F901099536
:1053200098018D010A5F1F4F0E9442428D01119624
:10533000ED91FC9112973696259134913797F901AA
:10534000099522E08D010E94320CF9C18D010A5F9E
:105350001F4F0E945142002321F021E08D010E9445
:10536000320CEDC18D011196ED91FC91129774965E
:10537000259134917597F901099598018D010A5F7E
:105380001F4F0E9442428D011196ED91FC911297A0
:105390003896259134913997F901099528E08D01C6
:1053A0000E94320CCCC18D010A5F1F4F0E945142F6
:1053B000002301F18D011196ED91FC9112977696E3
:1053C000259134917797F901099598018D010A5F2C
:1053D0001F4F0E9442428D011196ED91FC91129750
:1053E0003C96259134913D97F901099529E08D016D
:1053F0000E94320CA4C18D010A5F1F4F0E945142CE
:10540000002301F18D011196ED91FC911297749694
:10541000259134917597F901099598018D010A5FDD
:105420001F4F0E9442428D011196ED91FC911297FF
:105430003896259134913997F901099528E08D0125
:105440000E94320C7CC18D011196ED91FC91129756
:105450007896259134917997F901099598018D01F4
:105460000A5F1F4F0E9442428D011196ED91FC91FF
:1054700012973A96259134913B97F90109952EE0C0
:105480008D010E94320C5BC18D010A5F1F4F0E948B
:105490005142002301F18D011196ED91FC9112977B
:1054A0007A96259134917B97F901099598018D01A0
:1054B0000A5F1F4F0E9442428D011196ED91FC91AF
:1054C00012973C96259134913D97F90109952FE06B
:1054D0008D010E94320C33C18D010A5F1F4F0E9463
:1054E0005142002301F18D011196ED91FC9112972B
:1054F0007896259134917997F901099598018D0154
:105500000A5F1F4F0E9442428D011196ED91FC915E
:1055100012973A96259134913B97F90109952EE01F
:105520008D010E94320C0BC18D011196ED91FC9101
:1055300012977C96259134917D97F90109959801F0
:105540008D010A5F1F4F0E9442428D011196ED911D
:10555000FC9112973A96259134913B97F901099560
:1055600024E18D010E94320CEAC08D010A5F1F4FB9
:105570000E945142002301F18D011196ED91FC91A1
:1055800012977E96259134917F97F901099598019C
:105590008D010A5F1F4F0E9442428D011196ED91CD
:1055A000FC9112973C96259134913D97F90109950C
:1055B00025E18D010E94320CC2C08D010A5F1F4F90
:1055C0000E945142002301F18D011196ED91FC9151
:1055D00012977C96259134917D97F9010995980150
:1055E0008D010A5F1F4F0E9442428D011196ED917D
:1055F000FC9112973A96259134913B97F9010995C0
:1056000026E18D010E94320C9AC08D010A5F1F4F66
:105610000E945142002301F18D011196ED91FC9100
:105620001297B09625913491B197F9010995980197
:105630008D010A5F1F4F0E9442428D011196ED912C
:10564000FC9112973C96259134913D97F90109956B
:1056500027E18D010E94320C72C08D010A5F1F4F3D
:105660000E945142002301F18D011196ED91FC91B0
:1056700012977C96259134917D97F90109959801AF
:105680008D010A5F1F4F0E9442428D011196ED91DC
:10569000FC9112973A96259134913B97F90109951F
:1056A00024E18D010E94320C4AC08D011196ED91CA
:1056B000FC911297B29625913491B397F90109950F
:1056C00098018D010A5F1F4F0E9442428D01119681
:1056D000ED91FC9112973896259134913997F90103
:1056E00009952FE18D010E94320C29C08D010A5FBE
:1056F0001F4F0E945142002311F18D011196ED912F
:10570000FC9112973C96259134913D97F9010995AA
:105710008D010E94EB2E202F8D010E94320C0FC0B4
:105720008D011196ED91FC9112973C962591349143
:105730003D97F901099520E08D010E94320CA99155
:10574000B99108950E94E643C801D901082F092B99
:1057500069F025E28C010E94320C20E030E08C01DF
:1057600037DDA0FB1EF48C010E940043E4E00C94A2
:10577000F7430E94E743C801A22F8C010E94350C19
:10578000202F8C010E945B280A2F005079F00A9587
:1057900091F00A95A9F00A95C1F00A95D1F00A9501
:1057A000C1F00250B1F00A95A1F013C025E28C01BE
:1057B0000E94320C0EC021E08C010E94320C09C004
:1057C00027E08C010E94320C04C027E08C010E946B
:1057D000320CE3E00C94F84308959A938A93C8013D
:1057E00001E00E94FF3E8991999108959A938A93CE
:1057F000C80102E00E94FF3E8991999108950895A1
:105800009A938A93C80102E00E94293F0E94E135E1
:105810008991999108950E94E643C801D901082F02
:10582000092B69F025E28C010E94320C20E030E067
:105830008C01CEDCA0FB1EF48C010E940043E4E04E
:105840000C94F7430E94E743C801A22F8C010E94E9
:10585000350C202F8C010E945B280A2F005079F014
:105860000A9591F00A95A9F00A95C1F00A95D1F030
:105870000A95C1F00250B1F00A95A1F013C025E2DB
:105880008C010E94320C0EC021E08C010E94320C6F
:1058900009C025E28C010E94320C04C02DE08C016D
:1058A0000E94320CE3E00C94F84308959A938A9393
:1058B000C80101E00E94FF3E8991999108950895E1
:1058C0009A938A93C80103E00E94FF3E89919991BF
:1058D00008959A938A93C80103E00E94293F0E9489
:1058E000E1358991999108950E94E643C801D90153
:1058F000082F092B69F025E28C010E94320C20E070
:1059000030E08C0165DCA0FB1EF48C010E9400439A
:10591000E4E00C94F7430E94E743C801A22F8C01F6
:105920000E94350C202F8C010E945B280A2F00500A
:1059300079F00A9591F00A95A9F00A95C1F00A95B7
:10594000F9F00A95E9F00250B9F00A95C9F018C0CB
:1059500028E18C010E94320C13C028E18C010E94C6
:10596000320C0EC027E08C010E94320C09C02DE0E1
:105970008C010E94320C04C023E18C010E94320C85
:10598000E3E00C94F8439A938A93C8010E945E2F37
:1059900089919991089508959A938A93C8010E94D4
:1059A0005E2F8991999108959A938A93C8010E94D4
:1059B0005E2F8991999108959A938A93C8010E94C4
:1059C000602F0E94E1358991999108950E94E643E4
:1059D000C801D901082F092B69F025E28C010E942A
:1059E000320C20E030E08C01F3DBA0FB1EF48C01D4
:1059F0000E940043E4E00C94F7430E94E743C8018F
:105A0000A22F8C010E94350C202F8C010E945B2854
:105A10000A2F005079F00A9591F00A95A9F00A959D
:105A2000C1F00A9521F10A9511F10250B9F00A95D9
:105A3000D1F01DC025E28C010E94320C18C025E275
:105A40008C010E94320C13C027E08C010E94320CA2
:105A50000EC02DE08C010E94320C09C023E18C01A4
:105A60000E94320C04C02EE18C010E94320CE3E053
:105A70000C94F8439A938A93C8010E94310D89913E
:105A8000999108959A938A93C8010E94310D899142
:105A9000999108959A938A93C8010E941F0D899144
:105AA000999108959A938A93C8010E94280D89912B
:105AB000999108959A938A93C8010E94310D0E948A
:105AC000E1358991999108950E94E643C801D90171
:105AD000082F092B69F025E28C010E94320C20E08E
